S010000056656E745F626F782E73726563CF
S11300000C94C3000C94E0000C94E0000C94E00009
S11300100C94E0000C94E0000C94E0000C9459085B
S11300200C94E0000C94E0000C94E0000C9488081C
S11300300C94E0000C94E0000C94E0000C94E000BC
S11300400C94E0000C94E0000C94E0000C94E000AC
S11300500C94E0000C94E0000C94E0000C94E0009C
S11300600C94E0000C94E000F70C020D0D0D180D3B
S1130070230D2E0D390DFD0D080E130E1E0E290E27
S1130080340E3F0E6E616E00696E660000407A1099
S1130090F35A00A0724E18090010A5D4E80000E835
S11300A07648170000E40B54020000CA9A3B000093
S11300B000E1F505000080969800000040420F0022
S11300C00000A08601000000102700000000E803E3
S11300D0000000006400000000000A0000000000AE
S11300E00100000000002C76D888DC674F0823DF6D
S11300F0C1DFAE59E1B1B796E5E3E453C63AE65140
S1130100997696E8E6C28426EB898C9B62ED407C66
S11301106FFCEFBC9C9F40F2BAA56FA5F490055A02
S11301202AF75C936B6CF9676DC11BFCE0E40D4727
S1130130FEF520E6B500D0ED902E0300943577054A
S11301400080841E080000204E0A000000C80C3302
S11301503333330F986E12831141EF8D2114893B91
S1130160E65516CFFEE6DB18D1844B381BF77C1D11
S1130170901DA4BBE424203284725E228100C9F164
S113018024ECA1E53D2711241FBECFEFD8E0DEBF4C
S1130190CDBF13E0A0E0B1E0E2EFF3E502C00590CB
S11301A00D92AA37B107D9F725E0AAE7B3E001C059
S11301B01D92A839B207E1F70E949F080C94F72911
S11301C00C94000080937C00EAE7F0E08081806476
S11301D08083808186FDFDCFE8E7F0E08081209177
S11301E0790090E0922B918380838081918108959E
S11301F00F931F93CF93DF9310923F0410923E040A
S11302001092CA031092C90310922C0410922B046A
S1130210C5E9D0E000E012E083E00E94E2009093A0
S113022089058093880520913E0430913F0482170C
S113023093076CF0811522E092072CF090933F0411
S113024080933E0404C010933F0400933E0487E06F
S11302500E94E2009093AB038093AA032091C90308
S11302603091CA03821793076CF0811522E092073C
S11302702CF09093CA038093C90304C01093CA035B
S11302800093C90386E00E94E2009093CD0380931B
S1130290CC0320912B0430912C04821793076CF02B
S11302A0811522E092072CF090932C0480932B0468
S11302B004C010932C0400932B04219709F0ACCFB5
S11302C080913E0490913F04DF91CF911F910F9153
S11302D00895CF92DF92EF92FF92CF93C0902E04B5
S11302E0D0902F04E0903004F090310420E030E00E
S11302F040E752E4C701B6010E947C2618160CF4AC
S113030056C020E030E040E251ECC701B6010E9443
S1130310DB2788230CF44BC020910404309105049E
S11303204091060450910704C701B6010E947C263F
S1130330181684F080917B0381110CC0C1E0C09336
S11303407B0341E060E070E280E090E00E94BB1338
S1130350C0939403209183053091840540918505D1
S11303605091860560912E0470912F048091300481
S1130370909131040E940F262091040430910504C9
S113038040910604509107040E94DB2788237CF0E7
S113039080917B03813059F410927B0340E060E04C
S11303A070E280E090E00E94BB1310929403C0902E
S11303B0F003D090F103E090F203F090F30320E017
S11303C030E046EC52E4C701B6010E947C261816C0
S11303D00CF44BC0209100043091010440910204BC
S11303E050910304C701B6010E947C26181684F0BC
S11303F080917A0381110CC0C1E0C0937A0341E07B
S113040060E070E480E090E00E94BB13C093390484
S11304102091A0033091A1034091A2035091A30322
S11304206091F0037091F1038091F2039091F303D2
S11304300E940F262091000430910104409102048F
S1130440509103040E94DB2788237CF080917A0377
S1130450813059F410927A0340E060E070E480E067
S113046090E00E94BB1310923904CF91FF90EF905B
S1130470DF90CF90089541E060E071E080E090E08B
S11304800E94BB130E94BD0C80918203811138C06D
S1130490809122048111B8C080919403813029F0A5
S11304A090913904913009F0A1C041E060E870E016
S11304B080E090E00E94BB1360E080E80E94400569
S11304C082E091E00E94160681E080937D03809192
S11304D09403811115C08091390481118AC040E0D0
S11304E060E870E080E090E00E94BB1360E080E888
S11304F00E94400583E191E00E94160610927D035C
S113050080918203823021F080912204813081F530
S113051080919403813021F080913904813041F439
S113052060E080E80E94400584E291E00E941606A3
S113053080919403811115C080913904811111C0F7
S113054040E060E870E080E090E00E94BB1360E06F
S113055080E80E94400583E191E00E941606109213
S11305607D0340E060E870E080E090E00E94BB130F
S113057080918203813099F580919403813021F038
S113058080913904813091F441E060E870E080E0CA
S113059090E00E94BB1360E080E80E94400582E086
S11305A091E00E94160681E080937D03809194037C
S11305B0811115C080913904811111C040E060E8B7
S11305C070E080E090E00E94BB1360E080E80E944D
S11305D0400583E191E00E94160610927D038FE3AB
S11305E09CE90197F1F700C000000895882339F0D1
S11305F0BFCF80918203823009F48ECF85CF809162
S11306003904811181CF6BCF80912204813039F775
S11306107FCFCF93DF93579A5F982FEF80EE90E0D0
S1130620215080409040E1F700C000005F9A579845
S113063087EC90E00197F1F700C000004F9931C0BA
S11306408FE391E00197F1F700C000004F9B2CC0AD
S11306504F99FECFA6E1B4E0CBE1D4E061E070E0D5
S1130660FD011C9287E090E04F9BFECF2AE82A957B
S1130670F1F700C04F9B0AC040819B01082E02C0C5
S1130680220F331F0A94E2F7242B20834F99FECFC5
S1130690019750F71196CA17DB0711F781E090E034
S11306A005C080E090E002C080E090E0DF91CF914F
S11306B008958F929F92AF92BF92CF92DF92EF9262
S11306C0FF920F931F93CF93DF9310928D030E9499
S11306D00903C82F80938D03813009F08BC01092D9
S11306E0F5031092F403E6E1F4E0008110E0E18008
S11306F0F12CD281C380D12CC8018E0D9F1D8D0F8A
S1130700911D8C0D9D1D90933804809337046D2F9B
S11307106F7770E080E090E00E942B272DEC3CEC9A
S11307204CEC51E40E94E0274B015C01B601DD0C66
S1130730880B990B0E942B272DEC3CEC4CEC5DE3D1
S11307400E94E0279B01AC01C501B4010E94102660
S11307504B015C01609304047093050480930604C8
S1130760909307040E94F32670938F0360938E0383
S1130770DD239CF4B7FAB094B7F8B09480920404E3
S113078090920504A0920604B092070471956195B5
S1130790710970938F0360938E03B701FF0C880B6C
S11307A0990B0E942B272DEC3CEC4CEC5DE30E9452
S11307B0E0276B017C01B801110F880B990B0E9493
S11307C02B272DEC3CEC4CEC51E40E94E0279B01E0
S11307D0AC01C701B6010E94102660930004709317
S11307E0010480930204909303048091F403909194
S11307F0F5031EC0811109C08091F4039091F503A3
S113080001969093F5038093F4038091F4039091FF
S1130810F5038536910564F084E690E09093F50342
S11308208093F40381E080938D05C130F1F408C016
S11308308436910514F410928D05C13041F402C040
S113084084E690E001979093F5038093F4038091FC
S1130850F4039091F503049744F410928D0588E015
S113086090E09093F5038093F403DF91CF911F916F
S11308700F91FF90EF90DF90CF90BF90AF909F903B
S11308808F9008950E94590360E080EC0E94400517
S1130890809103048F93809102048F9380910104CB
S11308A08F93809100048F93809107048F9380919C
S11308B006048F93809105048F93809104048F9391
S11308C085E391E09F938F938EEA93E09F938F93B8
S11308D00E9477298EEA93E00E9416068DB79EB790
S11308E00C960FB6F8949EBF0FBE8DBF0895F9996C
S11308F0FECF92BD81BD60BDFA9AF99A0895F99927
S1130900FECF92BD81BDF89A80B50895809183038E
S1130910909184039C012E5432402F36310538F4D3
S113092040918503413019F442E040938203805999
S113093091408D3B9105E8F440918503411115C028
S113094042E04093820311C080918503813019F401
S11309501092820308952F363105B8F480918503EF
S1130960811113C01092820308958F35914028F4A9
S1130970EBCF8F35914078F304C081E080938203FC
S1130980E3CF81E080938203E6CF089581E00E9463
S1130990E20090938103809380038E5492408F36BB
S11309A0910568F480918603813049F480937F0334
S11309B041E060E074E080E090E00E94BB1380912D
S11309C0800390918103805991408D3B910508F0FB
S11309D052C02091860321114AC081E080937F0395
S11309E041E060E074E080E090E00E94BB138091FD
S11309F0800390918103805991408F35914050F04C
S1130A0082E080937F0341E060E078E080E090E062
S1130A100E94BB138091800390918103805991407F
S1130A208D3B910568F480918603813049F41092DE
S1130A307F0340E060E074E080E090E00E94BB133C
S1130A4080918003909181038E5492408F3691055A
S1130A50B0F480918603811112C010927F0340E0AC
S1130A6060E074E080E090E00E94BB1308958F354D
S1130A709140C8F2C5CF8F35914010F3C1CF08958E
S1130A80CF93C82F613041F441E061E070E080E031
S1130A9090E00E94BB1307C040E061E070E080E09A
S1130AA090E00E94BB1341E062E070E080E090E0DF
S1130AB00E94BB13C4FF08C041E064E070E080E022
S1130AC090E00E94BB1307C040E064E070E080E067
S1130AD090E00E94BB13C5FF08C041E068E070E0ED
S1130AE080E090E00E94BB1307C040E068E070E043
S1130AF080E090E00E94BB13C6FF08C041E060E1C3
S1130B0070E080E090E00E94BB1307C040E060E129
S1130B1070E080E090E00E94BB13CC2344F441E0F9
S1130B2060E270E080E090E00E94BB1307C040E008
S1130B3060E270E080E090E00E94BB1340E062E07D
S1130B4070E080E090E00E94BB138FE39FE1019787
S1130B50F1F700C0000041E062E070E080E090E066
S1130B600E94BB13C0FF08C041E064E070E080E075
S1130B7090E00E94BB1307C040E064E070E080E0B6
S1130B8090E00E94BB13C1FF08C041E068E070E040
S1130B9080E090E00E94BB1307C040E068E070E092
S1130BA080E090E00E94BB13C2FF08C041E060E116
S1130BB070E080E090E00E94BB1307C040E060E179
S1130BC070E080E090E00E94BB13C3FF08C041E0E6
S1130BD060E270E080E090E00E94BB1307C040E058
S1130BE060E270E080E090E00E94BB1340E062E0CD
S1130BF070E080E090E00E94BB138FE39FE10197D7
S1130C00F1F700C00000CF91089560E082E00E94F7
S1130C10400560E088E20E94400560E08CE00E94AC
S1130C20400560E081E00E94400508950F931F9302
S1130C30CF93FC018081882361F08F01C0E0CF5FF6
S1130C4061E00E944005F801EC0FF11D80818111E3
S1130C50F6CFCF911F910F910895CF93DF93EC01BD
S1130C60623009F449C020F4613009F46DC08AC0CF
S1130C706330C1F0643009F085C09C013695279536
S1130C803695279536952795A5ECB0E20E94B525B3
S1130C90929582958F7089279F70892761E0805D86
S1130CA00E9440059E013695279536952795ABE71A
S1130CB0B4E10E94B525AC01569547959A01ADEC77
S1130CC0BCEC0E94B5259695879596958795969543
S1130CD087959C01220F331F880F991F880F991F36
S1130CE0880F991F820F931F9A01281B390BC90182
S1130CF061E0805D0E9440059E01ADECBCEC0E9469
S1130D00B525AC0156954795569547955695479503
S1130D109A010E94B52596958795969587959695FF
S1130D2087959C01220F331F880F991F880F991FE5
S1130D30880F991F820F931F9A01281B390BC90131
S1130D4061E0805D0E9440059E01ADECBCEC0E9418
S1130D50B5259695879596958795969587959C0143
S1130D60220F331F880F991F880F991F880F991F0F
S1130D70820F931F9E01281B390BC90161E0805D1E
S1130D800E944005DF91CF91089510923204109291
S1130D900A0410920C048091C3039091C403019639
S1130DA09093C4038093C30360912B0470912C042B
S1130DB07250072E000C880B990B0E942B272EEEE5
S1130DC034E045EB5FE30E94812621EE3AE744E9F3
S1130DD05FE30E94E0270E94F326AB0170931004A6
S1130DE060930F04209100013091010181EE90E0A5
S1130DF0821B930B481759072CF02F513F4F241790
S1130E0035074CF58091810590918205209133043A
S1130E1030913404821B930B8D349D41A4F440E043
S1130E2060E470E080E090E00E94BB138091810553
S1130E30909182052091330430913404821B930BEA
S1130E408D349D41ECF041E060E470E080E090E09E
S1130E500E94BB1315C081E08093320480930A047E
S1130E608091130490911404019690931404809338
S1130E70130441E060E470E080E090E00E94BB1362
S1130E8081E080930A042091C3033091C40340910C
S1130E9013045091140464E6649FC001659F900D8F
S1130EA01124B9010E949B257093D1036093D00350
S1130EB02436310541F41092C4031092C3031092F6
S1130EC0140410921304809181059091820520915D
S1130ED0330430913404AC01421B530B9A0128397A
S1130EE03A4324F09093340480933304089580911A
S1130EF08203823021F090912204913039F421E070
S1130F0030E030934A042093490404C010924A0408
S1130F10109249042091A8033091A903232B39F49A
S1130F2021E030E030934C0420934B0404C0109231
S1130F304C0410924B04813039F481E090E090939A
S1130F404E0480934D0404C010924E0410924D043C
S1130F5080917F03823039F421E030E030935004F3
S1130F6020934F0404C01092500410924F049091A7
S1130F700A04911107C021E030E030935204209319
S1130F80510404C0109252041092510490918D05A2
S1130F90913039F421E030E0309354042093530429
S1130FA004C0109254041092530490919D03913004
S1130FB039F421E030E0309356042093550404C002
S1130FC0109256041092550490911504913039F4FE
S1130FD021E030E030935A042093590404C0109265
S1130FE05A0410925904833038F081E090E09093D1
S1130FF05C0480935B0404C010925C0410925B0454
S11310008091470490914804899724F010925404E5
S1131010109253048091A6039091A70389970CF42E
S113102040C010925604109255043BC090813296F1
S1131030890FE217F307D1F780930C0481110BC0D9
S113104040E060E078E080E090E00E94BB13809193
S11310500C04882339F041E060E078E080E090E01F
S11310600E94BB1380918203823021F0809122047C
S1131070813039F441E060E072E080E090E00E9469
S1131080BB1380918203811113C0809122048111CA
S11310900FC040E060E072E080E090E00E94BB138B
S11310A0089580910C04EBE4F4E02DE534E0BECF28
S11310B008951F920F920FB60F9211242F933F930E
S11310C04F935F936F937F938F939F93AF93BF934C
S11310D0EF93FF93809181059091820501969093FF
S11310E08205809381050E940C120E948113FF9156
S11310F0EF91BF91AF919F918F917F916F915F918C
S11311004F913F912F910F900FBE0F901F90189504
S11311101F920F920FB60F9211248F939F93809179
S1131120200490912104019690932104809320043B
S11311309F918F910F900FBE0F901F90189541E0D3
S113114060E070E880E090E00E94BB13AAE7B0E0A2
S11311508C9180688C93ECE7F0E080811082808130
S11311608064808380818F6D80838C9186608C9372
S1131170EBE7F0E080818083EEE7F0E08081876335
S1131180808380B7806880BF80E287B992E094B999
S113119088E185B98EEF8AB918B810928000E1E829
S11311A0F0E080818D60808310928500109284002D
S11311B029E03DE3309389002093880090936F00E9
S11311C0E0EBF0E0808182608083E1EBF0E08081FD
S11311D0826080831092B2008FEF8093B300E0E7C7
S11311E0F0E08081826080832FEF83EC99E02150CE
S11311F080409040E1F700C000000E94050660E0D6
S113120081E00E94400560E080E80E94400589E496
S113121091E00E9416060E94C5060E9447214E9A3C
S11312200E94472110928A0585E090E090931F0464
S113123080931E04109221041092200483E0809372
S113124096051092F8031092CB0310928705109222
S1131250A7031092A6031092480410924704109218
S11312602E0410922F041092300410923104109224
S1131270F0031092F1031092F2031092F303109210
S1131280A9031092A8031092FF031092FE03109278
S11312904304109242041092F5031092F403109246
S11312A00B041092C2031092150483E190E0909312
S11312B02A04809329048DE990E09093F7038093A6
S11312C0F60381E090E00E947F048093960582E01B
S11312D090E00E947F0490E090931F0480931E048A
S11312E083E090E00E947F0490E09093010180935A
S11312F0000186E090E00E947F04823018F480931D
S1131300860303C081E08093860387E090E00E9417
S11313107F04823018F48093850303C081E08093B6
S1131320850388E090E00E947F0490E09093A703F7
S11313308093A6038B9734F089E290E09093A703FF
S11313408093A60389E090E00E947F0490E090934C
S11313504804809347048B9734F089E290E090939B
S113136048048093470480E190E00E947F0490E069
S113137090932A04809329048138910524F01092D3
S11313802A041092290481E190E00E947F04682FCE
S113139070E080E090E00E94292760932E0470930F
S11313A02F04809330049093310420E030E048E728
S11313B052E40E94DB27181664F480E090E0A4E76E
S11313C0B2E480932E0490932F04A0933004B0933E
S11313D0310482E190E00E947F04682F70E080E095
S11313E090E00E9429276093F0037093F1038093A7
S11313F0F2039093F30320E030E048EC52E40E94BF
S1131400DB27181664F480E090E0A8ECB2E4809343
S11314102E0490932F04A0933004B093310483E1FD
S113142090E00E947F0490E090939305809392054E
S113143084E190E00E947F0490E090939A0380936B
S1131440990385E190E00E947F0490E09093EF037C
S11314508093EE0386E190E00E947F04C82FD0E0E1
S1131460D093C103C093C0036091990370919A0310
S1131470072E000C880B990B0E942B272DEC3CECBB
S11314804CEC5DE30E94E0276B017C0160919205C6
S113149070919305072E000C880B990B0E942B2743
S11314A09B01AC01C701B6010E941026609383051D
S11314B07093840580938505909386056091EE036F
S11314C07091EF03072E000C880B990B0E942B27B9
S11314D06B017C01BE01DD0F880B990B0E942B2749
S11314E02DEC3CEC4CEC5DE30E94E0279B01AC014D
S11314F0C701B6010E9410266093A0037093A10354
S11315008093A2039093A3031092970580E00E9416
S1131510E200909384038093830381E00E94E200BD
S113152090938103809380030E9447210E94C50603
S11315300E9477077894109297031092960340E0E4
S113154060E070E880E090E00E94BB1311E0C1E02D
S1131550D0E00E94F8000E9486040E94C6040E9403
S1131560C5060E94E5140E9477070E9469018091D4
S11315709605823009F4C5C01093ED032091D00381
S11315803091D1038091A6039091A703820F931FFA
S113159084369105D4F440E060E470E080E090E0AB
S11315A00E94BB131092A9031092A8038091A60372
S11315B09091A7032091D0033091D103280F391FB4
S11315C02436310514F489975CF0D093A903C093B1
S11315D0A803412F60E470E080E090E00E94BB1318
S11315E01B9946C080917C03811142C0809197056C
S11315F081118AC0412F60E070E880E090E00E9491
S1131600BB13809196058F5F8093960510937C039E
S113161010928A0510922404109223042FEF86E777
S113162091E0215080409040E1F700C0000010920A
S11316307E0340E060E870E080E090E00E94BB132D
S113164080919605843010F010939605609196056C
S1131650CE010E9477048FE39CE90197F1F700C063
S11316600000412F60E070E880E090E00E94BB132E
S11316701B9B12C080917C03813071F4809197058B
S113168081110AC010928A0510927C038FE39CE9B1
S11316900197F1F700C0000080919605813031F484
S11316A080919705811125C00E94860B8091960533
S11316B0823031F48091970581111BC00E943B0256
S11316C0809196058330A9F480919705811111C00A
S11316D060E080E80E9440058AE591E00E941606D9
S11316E00E94BD0C40E060E071E080E090E00E9468
S11316F0BB1340E060E070E880E090E00E94BB1320
S113170028CF1092ED033ACF83B1C6CF40E060E01A
S113171071E080E090E00E94BB1380918A05811102
S113172013C11C9B0EC180917E0381110AC160E02C
S113173080E80E9440058FE691E00E9416060E9410
S1131740BD0C1C9924C080918A05882309F402C128
S11317501EC041E060E070E880E090E00E94BB13AE
S113176081E080938A052FEF3AE683E021503040F0
S11317708040E1F700C00000109221041092200480
S113178040E060E070E880E090E00E94BB1380914C
S11317908A05813009F0EBC01C9B6FC080917E03E9
S11317A081116BC080918203811116C08091220443
S11317B08111D8C081E080937E03809395031092B9
S11317C08A059FEF29EF30E0915020403040E1F747
S11317D000C0000080937D0380918203823021F059
S11317E080912204813009F581E080937E0340E0FA
S11317F060E870E080E090E00E94BB1310929503D3
S113180010928A0560E080E80E94400584E291E03D
S11318100E9416068FEF99EF20E0815090402040FF
S1131820E1F700C0000010927D0380918A058111C8
S11318308DC01C994FC080917E03813009F04AC04D
S113184080938A0541E060E070E880E090E00E94C7
S1131850BB133FEF82E597E0315080409040E1F7C1
S113186000C0000040E060E070E880E090E00E948A
S1131870BB1380918A05813049F51C9B7DC0809102
S11318807E03813009F078C010927E0310928A059D
S113189060E080E80E9440058FE691E00E94160611
S11318A00E94BD0C1092950340E060E870E080E077
S11318B090E00E94BB132FEF39EF80E021503040BD
S11318C08040E1F700C0000010927D0380918A05FA
S11318D0811152C080917E03813009F04DC0809106
S11318E08203811110C080912204811110C01092D2
S11318F0150460E080E80E94400580E891E00E94C1
S113190016060E94BD0C80918203823021F08091E2
S11319102204813089F540E060E870E080E090E0E6
S11319200E94BB131092950360E080E80E9440057A
S113193084E291E00E94160610927D030E94BD0C81
S113194008951C9B07C071CF83B121CF813009F466
S113195094CF089580917E0381116BCFFACE80914C
S11319608A05F4CF809122048130C9F73DCF80915C
S11319708A05882309F45DCF0895CF93DF9380917E
S11319809605813009F406C160E080EC0E944005B0
S113199010920E0410920D04C0912304D0912404DB
S11319A0C730D10509F0F8C10E944204C091230454
S11319B0D0912404C730D1050CF074C0FE01EE0FA1
S11319C0FF1FE75BFB4F80819181019709F060C0A5
S11319D005C081919191019709F05FC0C730D1058D
S11319E008F051C0FE01EC5CFF4F0C94AF2581E977
S11319F091E00E94160681E090E090930E0480939B
S1131A000D0441C082EA91E00E94160681E090E054
S1131A1090930E0480930D0436C083EB91E00E94F2
S1131A20160681E090E090930E0480930D042BC081
S1131A3084EC91E00E94160681E090E090930E04FD
S1131A4080930D0420C085ED91E00E94160681E08C
S1131A5090E090930E0480930D0415C086EE91E0FF
S1131A600E94160681E090E090930E0480930D048A
S1131A700AC087EF91E00E94160681E090E09093FF
S1131A800E0480930D04D0932404C09323040AC04D
S1131A90FE01EE0FFF1FE55BFB4F2196C730D1051A
S1131AA00CF497CF80910D0490910E04892B31F49E
S1131AB00E944204109224041092230480910D0485
S1131AC090910E04019711F40E9459031C990AC0C5
S1131AD08091CB03811106C081E08093CB031C9BD2
S1131AE054C007C01C9B51C08091CB03813009F0C6
S1131AF04CC041E060E070E880E090E00E94BB13DD
S1131B001092CB03E0912304F0912404CF010196B9
S1131B109093240480932304DC01AA0FBB1FA75BCA
S1131B20BB4F2D913C91232B49F5873091055CF0F7
S1131B3012C0219131912130310549F4909324044C
S1131B408093230408C0EE0FFF1FE35BFB4F019655
S1131B508730910571F780912304909124040897AC
S1131B6024F010922404109223042FEF89EF90E0C4
S1131B70215080409040E1F700C0000040E060E068
S1131B8070E880E090E00E94BB138091960581305C
S1131B9009F00CC160E080EC0E94400510920E0434
S1131BA010920D04C0912304D0912404C730D105B0
S1131BB009F0F7C00E944204C0912304D091240488
S1131BC0C730D1050CF074C0FE01EE0FFF1FE75BB8
S1131BD0FB4F80819181019709F060C005C081911C
S1131BE09191019709F05FC0C730D10508F051C049
S1131BF0FE01E55CFF4F0C94AF2581E991E00E9462
S1131C00160681E090E090930E0480930D0441C089
S1131C1082EA91E00E94160681E090E090930E041F
S1131C2080930D0436C083EB91E00E94160681E098
S1131C3090E090930E0480930D042BC084EC91E00B
S1131C400E94160681E090E090930E0480930D04A8
S1131C5020C085ED91E00E94160681E090E090930B
S1131C600E0480930D0415C086EE91E00E941606C2
S1131C7081E090E090930E0480930D040AC087EFF6
S1131C8091E00E94160681E090E090930E04809308
S1131C900D04D0932404C09323040AC0FE01EE0F64
S1131CA0FF1FE55BFB4F2196C730D1050CF497CF9E
S1131CB080910D0490910E04892B31F40E9442040A
S1131CC0109224041092230480910D0490910E0428
S1131CD0019711F40E9459031D9B0AC08091CB0304
S1131CE0811106C081E08093CB031D995FC007C0BA
S1131CF01D995CC08091CB03813009F057C041E04D
S1131D0060E070E880E090E00E94BB131092CB0387
S1131D10E0912304F0912404CF01019690932404CC
S1131D2080932304DC01AA0FBB1FA75BBB4F2D913B
S1131D303C91232B49F5873091055CF012C0219129
S1131D4031912130310549F4909324048093230484
S1131D5008C0EE0FFF1FE35BFB4F01968730910530
S1131D6071F78091230490912404089724F0109231
S1131D702404109223042FEF89EF90E02150804037
S1131D809040E1F700C0000040E060E070E880E0CF
S1131D9090E00E94BB130AC0C730D1050CF40ECEEC
S1131DA087CEC730D1050CF40FCF88CFDF91CF9108
S1131DB00895CF93DF9380919003909191038D3098
S1131DC0910509F01AC3CFE5D4E02A8D3B8D8091AB
S1131DD0250490912604822B932B2C893D89220F74
S1131DE0331F220F331F220F331F822B932B2E8975
S1131DF03F89220F331F220F331F822B932B288DF1
S1131E00398D220F331F822B932B909326048093BA
S1131E10250408C0299A459A8091900390919103D2
S1131E200D9711F4299A459A80919003909191030A
S1131E300E9761F48091490490914A04019721F02E
S1131E40809122048230B1F4299A459A80919003BA
S1131E50909191038D3091050CF4DBC2469711F4F7
S1131E60299A459A80919003909191034F9711F488
S1131E70299A459A8091900390919103889711F43F
S1131E80299A459A8091900390919103C19711F4F6
S1131E90299A459A8091900390919103CA9711F4DD
S1131EA0299A459A809190039091910383349105E6
S1131EB011F4299A459A80919003909191038C345E
S1131EC0910511F4299A459A80912504909126044C
S1131ED08230910509F46AC01CF4892B49F099C237
S1131EE08330910509F47FC00E9709F41FC291C293
S1131EF08091900390919103099711F4299A459A3E
S1131F0080919003909191030D9711F4299A459A29
S1131F1080919003909191030E9761F4809149040C
S1131F2090914A04019721F080912204823091F427
S1131F30299A459A8091900390919103469711F4C0
S1131F40299A459A80919003909191034F9711F4A7
S1131F50299A459A8091900390919103889711F45E
S1131F60299A459A8091900390919103C19711F415
S1131F70299A459A8091900390919103CA9711F4FC
S1131F80299A459A80919003909191038334910505
S1131F9011F4299A459A80919003909191038C347D
S1131FA0910509F036C2299A459A33C2809190036B
S1131FB0909191030D9711F4299A459A8091900379
S1131FC0909191030E9709F024C280914904909155
S1131FD04A04019729F080912204823009F019C241
S1131FE0299A459A16C280919003909191030D9776
S1131FF011F4299A459A80919003909191030E9738
S113200061F48091490490914A04019721F08091F0
S11320102204823091F4299A459A809190039091F8
S11320209103469711F4299A459A809190039091CF
S113203091034F9711F4299A459A809190039091B6
S11320409103889711F4299A459A8091900390916D
S11320509103C19711F4299A459A80919003909124
S11320609103CA9711F4299A459A8091900390910B
S113207091038334910511F4299A459A8091900330
S1132080909191038C34910511F4299A459A809189
S11320909003909191039C012E5031092830310511
S11320A020F525E130E0281B390B8091F60390914F
S11320B0F70302C0959587952A95E2F781709927D1
S11320C02091C5033091C603822B932B9093C603B2
S11320D08093C503019711F4299A459A8091C50309
S11320E09091C603892B09F42998809190039091CB
S11320F091034E97E1F480912204E82FE170F0E01F
S11321008091C5039091C603E82BF92BF093C60385
S1132110E093C503E130F10509F073C1299A459AAA
S11321208091C5039091C603892B09F42998809165
S113213090039091910382970297D0F48091ED03DC
S1132140A82FA170B0E08091C5039091C603A82B7D
S1132150B92BB093C603A093C503119711F4299A20
S1132160459A8091C5039091C603892B09F4299857
S1132170809190039091910384970497D8F480916F
S11321802204482F417050E08091C5039091C6030A
S1132190482B592B5093C6034093C5034130510536
S11321A011F4299A459A8091C5039091C603892B0D
S11321B009F4299880919003909191038797E1F411
S11321C080918D05682F617070E08091C5039091B6
S11321D0C603682B792B7093C6036093C5036130E3
S11321E0710509F012C1299A459A8091C50390910D
S11321F0C603892B09F42998209190033091910307
S1132200C901C397069760F5809183039091840375
S113221099230CF40396959587959595879549E3AD
S113222050E0BA01621B730B02C0959587956A95BD
S1132230E2F7817099272091C5033091C603822B60
S1132240932B9093C6038093C503019711F4299AA5
S1132250459A8091C5039091C603892B09F4299866
S113226080919003909191039C012C533109273064
S1132270310520F522E430E0281B390B80918E03D0
S113228090918F0302C0959587952A95E2F7817006
S113229099272091C5033091C603822B932B9093E9
S11322A0C6038093C503019711F4299A459A809136
S11322B0C5039091C603892B09F4299820919003B2
S11322C030919103C90185549109079708F0A1C081
S11322D0809180039091810399230CF40396959542
S11322E08795959587954BE450E0BA01621B730B73
S11322F002C0959587956A95E2F781709927209198
S1132300C5033091C603822B932B9093C60380930D
S1132310C503019711F4299A459A8091C5039091B8
S1132320C603892B09F075C0299873C08091900366
S1132330909191030D9711F4299A459A80919003F5
S1132340909191034E9711F4299A459A80919003A4
S1132350909191038D9711F4299A459A8091900355
S1132360909191038E9709F054C08091A5049091A7
S1132370A604019779F48091B3049091B404019771
S113238049F441E060E070E880E090E00E94BB1313
S1132390109222048091A7049091A804019779F4E3
S11323A08091B5049091B604019749F440E060E04F
S11323B070E880E090E00E94BB13109222048091A8
S11323C0AB049091AC04019749F48091B9049091C5
S11323D0BA04019719F481E0809322048091A9043E
S11323E09091AA040197A9F48091B7049091B8043C
S11323F0019779F4109222040CC0099709F014CDC6
S113240009CDEF2B09F492CED5CE672B09F4F3CE88
S113241055CFDF91CF910895599A23B1822F8170BE
S113242090E090934604809345048130910509F02F
S11324302AC18091F90381115EC18091FA039091C0
S1132440FB039C01295031092230310528F41092F4
S1132450FB031092FA032EC04297039738F481E0ED
S113246090E09093FB038093FA0342C08091FA03B7
S11324709091FB034B970897E8F482E090E09093E7
S1132480FB038093FA03109291031092900310922D
S1132490A5031092A4031092D3031092D2031092B6
S11324A026041092250420E030E090936004809389
S11324B05F0482C08091FA039091FB03893E9340AC
S11324C0BCF010929103109290031092A503109205
S11324D0A4031092D3031092D203109226041092F4
S11324E02504109222041092600410925F0474C0B8
S11324F02091900330919103F901EE0FFF1FE15AEF
S1132500FB4F8091FA039091FB03918380832830E1
S1132510310509F051C0EFE5F4E02089318980915B
S1132520D2039091D303822B932B248135810024F1
S1132530369527950794369527950794322F202DA5
S1132540822B932B26813781220F331F22953295BC
S1132550307F3227207F3227822B932B20853185B1
S113256022953295307F3227207F3227822B932B7E
S113257022853385220F331F220F331F220F331F6F
S1132580822B932B24853585220F331F220F331F73
S1132590822B932B26853785220F331F822B932B77
S11325A09093D3038093D203009709F09BC01092B9
S11325B0D5031092D40396C04091D2035091D30313
S11325C08091290490912A044817590729F4283046
S11325D0310514F00E94D90E81E08093F903109222
S11325E02D041092FB031092FA031092C60310926A
S11325F0C5038091610490916204019711F5809163
S1132600630490916404892BE1F480919003909188
S113261091030297B1F48091D4039091D50301966C
S11326209093D5038093D4032091290430912A04F4
S11326308217930731F49093D3038093D203299A9A
S1132640459A809190039091910301969093910300
S113265080939003809145049091460481309105C4
S113266009F449C010C08091CE039091CF03019624
S11326709093CF038093CE038091450490914604B8
S1132680892BE9F02DC0892B59F580912D048111F6
S113269016C02998459881E080932D041092F9037F
S11326A01092CF031092CE031092A5031092A403AC
S11326B08091450490914604892B29F011C08091A2
S11326C02D04813069F41092CF031092CE038091CF
S11326D0FA039091FB0301969093FB038093FA0312
S11326E0599808952091290430912A048217930758
S11326F009F072CF6FCF8091F903813009F4B3CF21
S1132700EFCF809195038130A9F58091D703909103
S1132710D80301969093D8038093D7036BE470E0B9
S11327200E949B2570939F0360939E031092120452
S11327301092110486E00E94E200909312048093A8
S11327401104845F9140499770F48AE090E090937B
S11327509C0380939B0341E060E870E080E090E09C
S11327600E94BB13089540E060E870E080E090E0D0
S11327700E94BB1308950F931F934130B9F4009145
S11327808703109188032091890330918A03DC0127
S1132790CB01802B912BA22BB32B80938703909397
S11327A08803A0938903B0938A031AC00091870316
S11327B0109188032091890330918A03DC01CB01B5
S11327C080959095A095B09580239123A223B3235F
S11327D08093870390938803A0938903B0938A031B
S11327E05B985C988091870390918803A0918903FA
S11327F0B0918A0397FF02C05A9A01C05A985C9A12
S11328005C988091870390918803A0918903B0918B
S11328108A0396FF02C05A9A01C05A985C9A5C983F
S11328208091870390918803A0918903B0918A03D2
S113283095FF02C05A9A01C05A985C9A5C9880919C
S1132840870390918803A0918903B0918A0394FF30
S113285002C05A9A01C05A985C9A5C988091870386
S113286090918803A0918903B0918A0393FF02C0D9
S11328705A9A01C05A985C9A5C9880918703909107
S11328808803A0918903B0918A0392FF02C05A9AE7
S113289001C05A985C9A5C98809187039091880350
S11328A0A0918903B0918A0391FF02C05A9A01C092
S11328B05A985C9A5C988091870390918803A091C0
S11328C08903B0918A0390FF02C05A9A01C05A98B2
S11328D05C9A5C988091870390918803A091890306
S11328E0B0918A0387FF02C05A9A01C05A985C9A31
S11328F05C988091870390918803A0918903B0919B
S11329008A0386FF02C05A9A01C05A985C9A5C985E
S11329108091870390918803A0918903B0918A03E1
S113292085FF02C05A9A01C05A985C9A5C988091BB
S1132930870390918803A0918903B0918A0384FF4F
S113294002C05A9A01C05A985C9A5C988091870395
S113295090918803A0918903B0918A0383FF02C0F8
S11329605A9A01C05A985C9A5C9880918703909116
S11329708803A0918903B0918A0382FF02C05A9A06
S113298001C05A985C9A5C9880918703909188035F
S1132990A0918903B0918A0381FF02C05A9A01C0B1
S11329A05A985C9A5C988091870390918803A091CF
S11329B08903B0918A0380FF02C05A9A01C05A98D1
S11329C05C9A5B9A1F910F910895CF92DF92EF92D8
S11329D0FF921D9B48C08091F803811144C08091EF
S11329E09605833011F00C943D2141E060E070E8DD
S11329F080E090E00E94BB13809181059091820554
S1132A009093FF038093FE03809197058F5F8093DB
S1132A10970581E08093F8032FEF30E782E021509F
S1132A2030408040E1F700C0000060E080EC0E948C
S1132A30400588E092E00E941606809197058B304D
S1132A4028F083E08093960510929705609197058E
S1132A5080E090E00E94770440E060E070E880E06D
S1132A6090E00E94BB131D9B39C08091F803813014
S1132A7011F00C943621809181059091820520916A
S1132A80FE033091FF03821B930B90938C0380937E
S1132A908B03813A9F4014F40C94302141E060E0B0
S1132AA070E880E090E00E94BB13809181059091D2
S1132AB082059093FF038093FE0383E08093960541
S1132AC01092970560E080E090E00E94770440E077
S1132AD060E070E880E090E00E94BB131D9913C091
S1132AE08091F803813079F480919605833059F40C
S1132AF01092F8033FEF89EF90E03150804090400E
S1132B00E1F700C0000080919705813009F0FDC015
S1132B1060E080E80E94400589E192E00E94160688
S1132B2060912B0470912C047250072E000C880BBA
S1132B30990B0E942B272EEE34E045EB5FE30E94B5
S1132B40812621EE3AE744E95FE30E94E0270E94F0
S1132B50F3267093BF036093BE0360E08BE80E948A
S1132B60400563E08091BE039091BF030E942D064F
S1132B7060E080EC0E9440058AE292E00E94160622
S1132B8060E08EEC0E94400580910001909101016B
S1132B906AE070E00E949B25CB0161E00E942D0653
S1132BA060E08FEC0E94400580910001909101014A
S1132BB064E670E00E949B2561E00E942D061B994B
S1132BC035C08091CB03811131C041E060E070E8F1
S1132BD080E090E00E94BB1380910001909101017C
S1132BE00296893291052CF490930101809300019F
S1132BF004C0109201011092000181E08093CB0384
S1132C006091000183E090E00E9477042FEF39EF98
S1132C1080E0215030408040E1F700C0000040E0F7
S1132C2060E070E880E090E00E94BB131B9B1AC038
S1132C308091CB038130B1F441E060E070E880E042
S1132C4090E00E94BB131092CB038FE39CE90197A1
S1132C50F1F700C0000040E060E070E880E090E040
S1132C600E94BB131C9935C08091CB03811131C0E4
S1132C7041E060E070E880E090E00E94BB13809146
S1132C8000019091010102972AF090930101809331
S1132C90000106C088E290E0909301018093000156
S1132CA081E08093CB036091000183E090E00E9477
S1132CB077049FEF29EF30E0915020403040E1F756
S1132CC000C0000040E060E070E880E090E00E9416
S1132CD0BB131B9B1AC08091CB038130B1F441E03C
S1132CE060E070E880E090E00E94BB131092CB0398
S1132CF08FE39CE90197F1F700C0000040E060E039
S1132D0070E880E090E00E94BB13809197058230C8
S1132D1009F0E6C060E080E80E94400588E392E0A4
S1132D200E94160660E080EC0E94400589E492E06F
S1132D300E94160660E08CEC0E94400583E592E058
S1132D400E94160682E090E00E947F0490E0909337
S1132D501F0480931E0460E08AEC0E944005809169
S1132D601E0490911F046AE070E00E949B25CB0131
S1132D7061E00E942D0660E08BEC0E94400580918A
S1132D801E0490911F0464E670E00E949B2561E09C
S1132D900E942D061B9935C08091CB03811131C04F
S1132DA041E060E070E880E090E00E94BB13809115
S1132DB01E0490911F040196853191052CF4909383
S1132DC01F0480931E0404C010921F0410921E045A
S1132DD081E08093CB0360911E0482E090E00E9426
S1132DE077049FEF29EF30E0915020403040E1F725
S1132DF000C0000040E060E070E880E090E00E94E5
S1132E00BB131B9B1AC08091CB038130B1F4109289
S1132E10CB0341E060E070E880E090E00E94BB13E7
S1132E208FE39CE90197F1F700C0000040E060E007
S1132E3070E880E090E00E94BB131C9935C080913B
S1132E40CB03811131C041E060E070E880E090E0A4
S1132E500E94BB1380911E0490911F0401972AF0D5
S1132E6090931F0480931E0406C084E190E0909325
S1132E701F0480931E0481E08093CB0360911E04A1
S1132E8082E090E00E9477049FEF29EF30E09150B8
S1132E9020403040E1F700C0000040E060E070E80E
S1132EA080E090E00E94BB131C9B1AC08091CB036E
S1132EB08130B1F41092CB0341E060E070E880E02F
S1132EC090E00E94BB138FE39CE90197F1F700C0E7
S1132ED0000040E060E070E880E090E00E94BB13F6
S1132EE080919705833009F0C1C060E080E80E94BA
S1132EF0400588E592E00E94160681E00E94E20007
S1132F00909381038093800360E08DEC0E944005E0
S1132F1080918003909181036AE070E00E949B2578
S1132F20CB0162E00E942D0660E08FEC0E94400518
S1132F30809180039091810364E670E00E949B2558
S1132F4061E00E942D0680918603811108C060E033
S1132F5080EC0E94400588E692E00E94160680916B
S1132F608603813041F460E080EC0E94400584E7F0
S1132F7092E00E9416061B995AC080918705811120
S1132F8056C041E060E070E880E090E00E94BB132E
S1132F9080918603811120C080918705811140C0F2
S1132FA081E0809387058093860360E080EC0E9433
S1132FB0400584E792E00E9416066091860386E04D
S1132FC090E00E9477049FEF20E732E09150204088
S1132FD03040E1F700C0000080918603813001F5A4
S1132FE08091870581111CC081E080938705109230
S1132FF0860360E080EC0E94400588E692E00E942F
S113300016066091860386E090E00E9477048FEFB5
S113301090E722E0815090402040E1F700C000009A
S113302040E060E070E880E090E00E94BB131B9BEE
S11330301DC0809187058130C9F441E060E070E8EB
S113304080E090E00E94BB13109287053FEF80E779
S113305092E0315080409040E1F700C0000040E031
S113306060E070E880E090E00E94BB1380919705D7
S1133070843009F0C1C060E080E80E94400581E826
S113308092E00E94160682E00E94E200909384037C
S11330908093830360E08DEC0E944005809183035C
S11330A0909184036AE070E00E949B25CB0162E06A
S11330B00E942D0660E08FEC0E94400580918303FE
S11330C09091840364E670E00E949B2561E00E9475
S11330D02D0680918503811108C060E080EC0E9478
S11330E0400588E692E00E941606809185038130AF
S11330F041F460E080EC0E94400584E792E00E9485
S113310016061B995AC080918705811156C041E06B
S113311060E070E880E090E00E94BB13809185033A
S1133120811120C080918705811140C081E0809386
S113313087058093850360E080EC0E94400584E766
S113314092E00E9416066091850387E090E00E9459
S113315077042FEF30E782E0215030408040E1F7E0
S113316000C0000080918503813001F580918705BE
S113317081111CC081E0809387051092850360E073
S113318080EC0E94400588E692E00E941606609159
S1133190850387E090E00E9477049FEF20E732E008
S11331A0915020403040E1F700C0000040E060E072
S11331B070E880E090E00E94BB131B9B1DC08091CF
S11331C087058130C9F441E060E070E880E090E078
S11331D00E94BB13109287058FEF90E722E0815085
S11331E090402040E1F700C0000040E060E070E85B
S11331F080E090E00E94BB1380919705853009F030
S1133200D4C181E190E00E947F04682F70E080E0E7
S113321090E00E9429276B017C0160932E04709337
S11332202F04809330049093310420E030E040E791
S113323052E40E947C2618160CF44AC020E030E0C8
S113324040E251ECC701B6010E94DB2788230CF44D
S11332503FC060E080E80E94400581E992E00E945E
S1133260160660E080EC0E94400582EA92E00E942B
S1133270160660E08EEC0E94400520E030E040E25B
S113328051E460912E0470912F0480913004909148
S113329031040E9481260E94FA26DC01CB0161E000
S11332A00E942D0660E08FEC0E94400560912E0480
S11332B070912F0480913004909131040E94F32680
S11332C0CB0164E670E00E949B2561E00E942D061C
S11332D0C0902E04D0902F04E0903004F09031047C
S11332E020E030E040E752E4C701B6010E94DB274A
S11332F0181654F020E030E040E251ECC701B6016A
S11333000E947C26882384F460E080E80E944005C3
S113331081EB92E00E94160660E080EC0E9440057A
S113332082EC92E00E9416061B995DC08091CB034B
S1133330811159C041E060E070E880E090E00E94B3
S1133340BB1380918105909182059093FF03809334
S1133350FE0381E08093CB0320E030E040E050E4C2
S113336060912E0470912F04809130049091310467
S11333700E9410266B017C0120E030E048E752E413
S11333800E94DB2718164CF0C0922E04D0922F0412
S1133390E0923004F092310408C010922E0410928E
S11333A02F04109230041092310460912E04709115
S11333B02F0480913004909131040E94FA2681E117
S11333C090E00E9477043FEF89EF90E03150804015
S11333D09040E1F700C0000040E060E070E880E069
S11333E090E00E94BB131B9B1BC08091CB038130D8
S11333F009F03FC741E060E070E880E090E00E949F
S1133400BB131092CB038FE39CE90197F1F700C043
S1133410000040E060E070E880E090E00E94BB13B0
S11334201B9950C08091CB03813009F04BC0E090D0
S11334308105F09082058091FE039091FF0397012E
S1133440281B390BC90130938C0320938B03813DD6
S11334509740C4F120E030E040E85FE360912E043F
S113346070912F0480913004909131040E941026B1
S113347060932E0470932F0480933004909331044E
S1133480F092FF03E092FE0320E030E048E752E4CC
S11334900E94DB27181644F410922E0410922F0475
S11334A0109230041092310460912E0470912F0414
S11334B080913004909131040E94FA2681E190E0D9
S11334C00E9477041C9955C080918705811151C0D1
S11334D041E060E070E880E090E00E94BB1320E0EF
S11334E030E040E85FE360912E0470912F048091F6
S11334F03004909131040E940F266B017C0120E07E
S113350030E040E251EC0E947C2688234CF0C092CB
S11335102E04D0922F04E0923004F092310408C0BB
S113352010922E0410922F04109230041092310441
S113353081E08093870560912E0470912F0480911F
S11335403004909131040E94FA2681E190E00E94B7
S113355077048FEF99EF20E0815090402040E1F70D
S113356000C0000040E060E070E880E090E00E946D
S1133570BB131C9B1AC0809187058130B1F441E0D4
S113358060E070E880E090E00E94BB131092870531
S11335908FE39CE90197F1F700C0000040E060E090
S11335A070E880E090E00E94BB138091970586301C
S11335B009F062C189E090E00E947F0490E090935A
S11335C048048093470420E030E046EC52E46091E4
S11335D0F0037091F1038091F2039091F3030E9440
S11335E07C2618160CF43FC060E080E80E94400579
S11335F081E992E00E94160660E080EC0E9440059A
S113360083ED92E00E94160660E08EEC0E94400575
S113361020E030E040E251E46091F0037091F10366
S11336208091F2039091F3030E9481260E94FA266E
S1133630DC01CB0161E00E942D0660E08FEC0E946A
S113364040056091F0037091F1038091F203909131
S1133650F3030E94F326CB0164E670E00E949B25ED
S113366061E00E942D0620E030E046EC52E46091D7
S1133670F0037091F1038091F2039091F3030E949F
S1133680DB27181684F460E080E80E94400581EB93
S113369092E00E94160660E080EC0E94400582EEF3
S11336A092E00E9416061B9955C08091CB038111AC
S11336B051C041E060E070E880E090E00E94BB13FC
S11336C020E030E040E050E46091F0037091F103B9
S11336D08091F2039091F3030E9410266B017C0108
S11336E020E030E048EC52E40E94DB2718164CF04E
S11336F0C092F003D092F103E092F203F092F3034C
S113370008C01092F0031092F1031092F203109289
S1133710F30381E08093CB036091F0037091F10394
S11337208091F2039091F3030E94FA2682E190E0E3
S11337300E9477049FEF29EF30E091502040304001
S1133740E1F700C0000040E060E070E880E090E055
S11337500E94BB131B9B1AC08091CB038130B1F430
S11337601092CB0341E060E070E880E090E00E94BA
S1133770BB138FE39CE90197F1F700C0000040E020
S113378060E070E880E090E00E94BB131C9958C090
S113379080918705811154C041E060E070E880E0C9
S11337A090E00E94BB1320E030E040E85FE36091CA
S11337B0F0037091F1038091F2039091F3030E945E
S11337C00F266B017C0120E030E0A9010E947C26D9
S11337D088234CF0C092F003D092F103E092F203FC
S11337E0F092F3030CC080E090E0A8ECB2E4809384
S11337F0F0039093F103A093F203B093F30381E0F9
S1133800809387056091F0037091F1038091F20336
S11338109091F3030E94FA2682E190E00E947704DB
S11338209FEF29EF30E0915020403040E1F700C095
S1133830000040E060E070E880E090E00E94BB138C
S11338401C9B1AC0809187058130B1F441E060E08F
S113385070E880E090E00E94BB13109287058FE32C
S11338609CE90197F1F700C0000040E060E070E8D7
S113387080E090E00E94BB1380919705873009F0A7
S11338807CC1C0902E04D0902F04E0903004F090BE
S1133890310420E030E044E752E4C701B6010E945D
S11338A0DB2788231CF088E08093970520E030E034
S11338B040EB50E460918305709184058091850507
S11338C0909186050E947C261816CCF120E030E009
S11338D044E752E4C701B6010E947C2688237CF5A4
S11338E060E080E80E94400583EF92E00E941606A3
S11338F060E080EC0E944005809186058F93809162
S113390085058F93809184058F93809183058F9390
S113391084E093E09F938F938EEA93E09F938F9339
S11339200E9477298EEA93E00E9416062DB73EB7CF
S1133930285F3F4F0FB6F8943EBF0FBE2DBF20E067
S113394030E040EB50E460918305709184058091F0
S11339508505909186050E94DB27181644F4109281
S113396083051092840510928505109286051B9993
S113397074C08091CB03811170C041E060E070E8B5
S113398080E090E00E94BB132DEC3CEC4CEC5DE33A
S113399060918305709184058091850590918605D9
S11339A00E9410266B017C0120E030E040EB50E4E3
S11339B00E94DB2718164CF0C0928305D092840530
S11339C0E0928505F092860508C010928305109256
S11339D08405109285051092860581E08093CB03BF
S11339E06091830570918405809185059091860589
S11339F00E94F326262F6093920570939305862FD9
S1133A00972F880F991FAC01440F551F440F551F62
S1133A10840F951F6AE070E00E949B2590939A039F
S1133A2080939903622F83E190E00E947704609170
S1133A30990384E190E00E9477043FEF89EF90E0DE
S1133A40315080409040E1F700C0000040E060E069
S1133A5070E880E090E00E94BB131B9B1AC0809129
S1133A60CB038130B1F41092CB0341E060E070E805
S1133A7080E090E00E94BB138FE39CE90197F1F78B
S1133A8000C0000040E060E070E880E090E00E9448
S1133A90BB131C9956C080918705811152C041E027
S1133AA060E070E880E090E00E94BB132DEC3CECF9
S1133AB04CEC5DE3609183057091840580918505EC
S1133AC0909186050E940F266B017C0120E030E076
S1133AD0A9010E947C2688234CF0C0928305D092D1
S1133AE08405E0928505F09286050CC083E393E398
S1133AF0A3EBB0E48093830590938405A09385059C
S1133B00B093860581E0809387056091920583E1F7
S1133B1090E00E9477046091990384E190E00E9410
S1133B2077049FEF29EF30E0915020403040E1F7D7
S1133B3000C0000040E060E070E880E090E00E9497
S1133B40BB131C9B1AC0809187058130B1F441E0FE
S1133B5060E070E880E090E00E94BB13109287055B
S1133B608FE39CE90197F1F700C0000040E060E0BA
S1133B7070E880E090E00E94BB1380919705883044
S1133B8009F07CC1C090F003D090F103E090F203FF
S1133B90F090F30320E030E048EC52E4C701B601B2
S1133BA00E94DB2788231CF089E08093970520E09E
S1133BB030E040E251E46091A0037091A103809150
S1133BC0A2039091A3030E947C261816CCF120E056
S1133BD030E048EC52E4C701B6010E947C268823F9
S1133BE07CF560E080E80E94400583EF92E00E944B
S1133BF0160660E080EC0E9440058091A3038F9339
S1133C008091A2038F938091A1038F938091A0034D
S1133C108F9389E193E09F938F938EEA93E09F9330
S1133C208F930E9477298EEA93E00E9416062DB79F
S1133C303EB7285F3F4F0FB6F8943EBF0FBE2DBF6F
S1133C4020E030E040E251E46091A0037091A103D0
S1133C508091A2039091A3030E94DB27181644F4D9
S1133C601092A0031092A1031092A2031092A30336
S1133C701B9974C08091CB03811170C041E060E056
S1133C8070E880E090E00E94BB1320E030E040E068
S1133C905FE36091A0037091A1038091A2039091CE
S1133CA0A3030E9410266B017C0120E030E040E277
S1133CB051E40E94DB2718164CF0C092A003D09266
S1133CC0A103E092A203F092A30308C01092A00300
S1133CD01092A1031092A2031092A30381E0809397
S1133CE0CB036091A0037091A1038091A2039091F2
S1133CF0A3030E94F326262F6093EE037093EF0331
S1133D00862F972F880F991FAC01440F551F440F1E
S1133D10551F840F951F6AE070E00E949B259093C5
S1133D20C1038093C003622F85E190E00E94770471
S1133D306091C00386E190E00E9477043FEF89EF31
S1133D4090E0315080409040E1F700C0000040E036
S1133D5060E070E880E090E00E94BB131B9B1AC0F7
S1133D608091CB038130B1F41092CB0341E060E049
S1133D7070E880E090E00E94BB138FE39CE9019718
S1133D80F1F700C0000040E060E070E880E090E0FF
S1133D900E94BB131C9956C080918705811152C0A3
S1133DA041E060E070E880E090E00E94BB1320E016
S1133DB030E040E05FE36091A0037091A103809143
S1133DC0A2039091A3030E940F266B017C0120E0C3
S1133DD030E0A9010E947C2688234CF0C092A00305
S1133DE0D092A103E092A203F092A3030CC080E05E
S1133DF090E0A0E2B1E48093A0039093A103A09388
S1133E00A203B093A30381E0809387056091EE033E
S1133E1085E190E00E9477046091C00386E190E020
S1133E200E9477049FEF29EF30E09150204030400A
S1133E30E1F700C0000040E060E070E880E090E05E
S1133E400E94BB131C9B1AC0809187058130B1F47A
S1133E5041E060E070E880E090E00E94BB131092C3
S1133E6087058FE39CE90197F1F700C0000040E06B
S1133E7060E070E880E090E00E94BB1380919705B9
S1133E80893009F003C18091290490912A04803873
S1133E9091057CF560E080E80E9440058CE293E0A7
S1133EA00E94160660E080EC0E9440058CE092E0DF
S1133EB00E94160660E08CEC0E9440058091290463
S1133EC090912A046AE070E00E949B25CB0162E095
S1133ED00E942D0660E08EEC0E944005809129042A
S1133EE090912A0464E670E00E949B2561E00E94A0
S1133EF02D068091290490912A048038910581F43B
S1133F0060E080E80E9440058DE393E00E9416067D
S1133F1060E080EC0E9440058EE493E00E94160667
S1133F201B993DC08091CB03811139C041E060E011
S1133F3070E880E090E00E94BB1380912904909186
S1133F402A04019690932A048093290481389105C8
S1133F502CF010922A041092290408C0992334F4F6
S1133F608FE790E090932A048093290481E0809362
S1133F70CB036091290480E190E00E9477049FEFD5
S1133F8029EF30E0915020403040E1F700C00000BC
S1133F9040E060E070E880E090E00E94BB131B9B6F
S1133FA01AC08091CB038130B1F41092CB0341E06D
S1133FB060E070E880E090E00E94BB138FE39CE92E
S1133FC00197F1F700C0000040E060E070E880E095
S1133FD090E00E94BB131C993DC08091CB038111DA
S1133FE039C041E060E070E880E090E00E94BB13DB
S1133FF08091290490912A04019790932A04809334
S11340002904813891052CF010922A041092290475
S113401008C0992334F48FE790E090932A048093A6
S1134020290481E08093CB036091290480E190E02E
S11340300E9477049FEF29EF30E0915020403040F8
S1134040E1F700C0000040E060E070E880E090E04C
S11340500E94BB131C9B1AC08091CB038130B1F426
S11340601092CB0341E060E070E880E090E00E94B1
S1134070BB138FE39CE90197F1F700C0000040E017
S113408060E070E880E090E00E94BB1380919705A7
S11340908A3009F0F7C060E080E80E9440058FE5AF
S11340A093E00E9416061C9909C08091CB038111EC
S11340B0E2C081E08093CB030E9481131B9961C00D
S11340C08091CB0381115DC080918105909182051F
S11340D09093FF038093FE0341E060E070E880E08A
S11340E090E00E94BB1341E060E470E080E090E067
S11340F00E94BB1341E060E870E080E090E00E9421
S1134100BB1341E060E071E080E090E00E94BB13EB
S113411041E060E074E080E090E00E94BB1341E085
S113412060E078E080E090E00E94BB1341E060E052
S113413072E080E090E00E94BB1341E060E070E236
S113414080E090E00E94BB1341E060E070E480E016
S113415090E00E94BB1341E060E070E180E090E0F9
S11341600E94BB139FEF23ED30E391502040304079
S1134170E1F700C0000081E08093CB031B9908C0E5
S113418081C01B9B7FC08091CB03813009F07AC032
S113419080918105909182052091FE033091FF0367
S11341A0821B930B90938C0380938B0381379741ED
S11341B00CF468C041E060E070E880E090E00E94A8
S11341C0BB138FE39CE90197F1F700C0000040E0C6
S11341D060E470E080E090E00E94BB1340E060E89F
S11341E070E080E090E00E94BB1340E060E071E08A
S11341F080E090E00E94BB1340E060E074E080E067
S113420090E00E94BB1340E060E078E080E090E042
S11342100E94BB1340E060E072E080E090E00E9406
S1134220BB1340E060E070E280E090E00E94BB13CA
S113423040E060E070E480E090E00E94BB1340E066
S113424060E070E180E090E00E94BB1340E060E039
S113425070E880E090E00E94BB131092CB0312C080
S11342601D9902C00C9474150C94831583B10C949D
S1134270831583B127C983B184CF1D9902C00C94DF
S11342806E15F4CFFF90EF90DF90CF9008950F93C9
S11342901F93CF93DF9360E080EC0E94400580E79A
S11342A093E00E94160660913E0470913F047250A0
S11342B0072E000C880B990B0E942B272EEE34E05E
S11342C045EB5FE30E94812621EE3AE744E95FE390
S11342D00E94E0270E94F326709391056093900555
S11342E060E081EC0E9440058091900590919105D9
S11342F00AE010E0B8010E949B25CB0162E00E9415
S11343002D0660E083EC0E94400580919005909119
S11343109105C4E6D0E0BE010E949B2561E00E94A5
S11343202D060E94F80060E084EC0E94400582E7BC
S113433093E00E9416066091C9037091CA037250FB
S1134340072E000C880B990B0E942B272EEE34E0CD
S113435045EB5FE30E94812621EE3AE744E95FE3FF
S11343600E94E0270E94F3267093FD036093FC03F0
S113437060E087EC0E9440058091FC039091FD036E
S1134380B8010E949B25CB0162E00E942D0660E0EB
S113439089EC0E9440058091FC039091FD03BE01CD
S11343A00E949B2561E00E942D060E94F80060E0B7
S11343B08AEC0E94400586E793E00E94160660910D
S11343C02B0470912C047250072E000C880B990B4F
S11343D00E942B272EEE34E045EB5FE30E948126FA
S11343E021EE3AE744E95FE30E94E0270E94F326C6
S11343F07093BF036093BE0360E08DEC0E944005A0
S11344008091BE039091BF03B8010E949B25CB010C
S113441062E00E942D0660E08FEC0E9440058091CE
S1134420BE039091BF03BE010E949B2561E00E94E0
S11344302D06DF91CF911F910F910895A0E1B0E077
S1134440E4E2F2E20C94C4257C011B016A01FC0144
S113445017821682838181FF44C39E012F5F3F4FE1
S11344603901F7019381F10193FD859193FF8191C6
S11344701F01882309F431C3853239F493FD8591F2
S113448093FF81911F01853239F4B70190E00E94B6
S11344903B2956016501E5CF10E0512C912CFFE139
S11344A0F915D8F08B3279F038F4803279F0833210
S11344B0A1F4F92DF0612EC08D3261F0803369F4DE
S11344C0292D21602DC0392D3260932E892D8460D1
S11344D0982E2AC0E92DE86015C097FC2DC020ED68
S11344E0280F2A3088F496FE06C03AE0139F200D68
S11344F01124122F19C08AE0589E200D1124522E27
S1134500E92DE0629E2E10C08E3231F496FCE5C295
S1134510F92DF0649F2E08C08C3621F4292D2068D3
S1134520922E02C0883641F4F10193FD859193FFE8
S113453081911F018111B3CF9BEB980F933020F42D
S1134540992D9061805E07C09BE9980F933008F025
S113455066C1992D9F7E96FF16E09F73992E85362E
S113456019F49064992E08C0863621F4392F3068E6
S1134570932E02C01111115097FE07C01C3350F442
S113458044244394410E27E00BC0183038F027E050
S113459017E005C027E09CE3492E02C0212F412CDF
S11345A0560184E0A80EB11CF601608171818281FC
S11345B09381042DA3010E944D286C01F981FC878D
S11345C0F0FF02C0F3FF06C091FC06C092FE06C0D5
S11345D000E205C00DE203C00BE201C000E08C85DF
S11345E08C7019F001115AC29BC297FE10C04C0C7A
S11345F0FC85F4FF04C08A81813309F44A941414BD
S113460074F528E0241578F588E0482E2CC096FC33
S11346102AC0812F90E08C159D059CF03CEFC316B9
S11346203FEFD30674F0892D8068982E0AC0E2E02B
S1134630F0E0EC0FFD1FE10FF11D8081803319F4D0
S113464011501111F4CF97FE0EC044244394410E2F
S1134650812F90E0C816D9062CF41C1904C04424F8
S1134660439401C010E097FE06C01C141D0434F4EA
S1134670C601019605C085E090E002C081E090E0AB
S113468001110196112331F0212F30E02F5F3F4FAC
S1134690820F931F252D30E08217930714F4581AC4
S11346A001C0512C892D897049F4552039F0B70186
S11346B080E290E00E943B295A94F7CF002329F02E
S11346C0B701802F90E00E943B2993FC09C055203C
S11346D039F0B70180E390E00E943B295A94F7CF68
S11346E097FE4CC04601D7FE02C0812C912CC60116
S11346F088199909F301E80FF91FFE87ED879601E0
S113470024193109388B2F87012F10E01195019559
S113471011093FEF8316930629F4B7018EE290E066
S11347200E943B29C814D9044CF08F8598898815B8
S1134730990524F4ED85FE85818101C080E3F1E0D3
S11347408F1A91082D853E852F5F3F4F3E872D8719
S1134750801691062CF0B70190E00E943B29D9CF36
S1134760C814D90441F49A81963320F4953319F48A
S11347703C8534FF81E3B70190E04EC08A818133E8
S113478019F09C859F7E9C87B70190E00E943B298D
S1134790111105C094FC18C085E690E017C0B7015C
S11347A08EE290E00E943B291E5F82E001E0080F48
S11347B0F301E80FF11D8081B70190E00E943B29CD
S11347C0802F0113F3CFE6CF85E490E0B7010E9478
S11347D03B29D7FC06C0C114D10441F4EC85E4FFA5
S11347E005C0D194C194D1088DE201C08BE2B70118
S11347F090E00E943B2980E32AE0C216D1042CF009
S11348008F5FFAE0CF1AD108F7CFB70190E00E948A
S11348103B29B701C601C0960E943B2954C1833687
S113482031F0833779F0833509F056C020C0560142
S113483032E0A30EB11CF6018081898301E010E00F
S1134840630112C05601F2E0AF0EB11CF601C08044
S1134850D18096FE03C0612F70E002C06FEF7FEF3E
S1134860C6010E9430298C01F92DFF7714C056012E
S113487022E0A20EB11CF601C080D18096FE03C0D6
S1134880612F70E002C06FEF7FEFC6010E942529FF
S11348908C01F92DF0689F2EF3FD1AC0852D90E050
S11348A008171907A8F4B70180E290E00E943B2999
S11348B05A94F4CFF60197FC859197FE81916F018C
S11348C0B70190E00E943B2951105A9401501109FC
S11348D00115110579F7F7C0843611F0893661F5B1
S11348E0560197FE09C024E0A20EB11CF6016081B6
S11348F07181828193810AC0F2E0AF0EB11CF6018E
S113490060817181072E000C880B990BF92DFF76BD
S11349109F2E97FF09C090958095709561957F4F64
S11349208F4F9F4FF0689F2E2AE030E0A3010E9432
S11349309929C82EC6183FC0092D853721F40F7E4A
S11349402AE030E01DC0097F8F3691F018F48835D5
S113495059F0C3C0803719F0883711F0BEC0006128
S113496004FF09C0046007C094FE08C0066006C0C6
S113497028E030E005C020E130E002C020E132E070
S1134980560107FF09C084E0A80EB11CF60160813E
S113499071818281938108C0F2E0AF0EB11CF601EF
S11349A06081718180E090E0A3010E949929C82E62
S11349B0C6180F77902E96FE0BC0092D0E7FC116D8
S11349C050F494FE0AC092FC08C0092D0E7E05C066
S11349D0DC2C092D03C0DC2C01C0D12E04FF0DC03A
S11349E0FE01EC0DF11D8081803311F4097E09C0B4
S11349F002FF06C0D394D39404C0802F867809F0B4
S1134A00D39403FD11C000FF06C01C2DD51480F4FF
S1134A10150D1D190DC0D51458F4B70180E290E0AE
S1134A200E943B29D394F7CFD51410F45D1801C02C
S1134A30512C04FF10C0B70180E390E00E943B2991
S1134A4002FF17C001FD03C088E790E002C088E5BB
S1134A5090E0B7010CC0802F867859F001FF02C0A6
S1134A608BE201C080E207FD8DE2B70190E00E9475
S1134A703B29C11638F4B70180E390E00E943B293A
S1134A801150F7CFCA94F301EC0DF11D8081B701E9
S1134A9090E00E943B29C110F5CF15C0F4E0F51554
S1134AA060F584E0581A93FE1FC0011127C02C85BD
S1134AB023FF2AC004E810E0392D3071932EF80149
S1134AC08491811124C0552009F4E4CCB70180E21B
S1134AD090E00E943B295A94F6CFF7018681978192
S1134AE026C08FEF9FEF23C0B70180E290E00E94C1
S1134AF03B295A945110F8CFD8CF512CB701802FAD
S1134B0090E00E943B29D3CF08E810E0D5CF911064
S1134B108052B70190E00E943B290F5F1F4FCFCF17
S1134B2023E0251510F483E0BDCF512CC0CF60964F
S1134B30E2E10C94E02597FB072E16F4009407D0CD
S1134B4077FD09D00E94FB2507FC05D03EF4909523
S1134B5081959F4F0895709561957F4F0895EE0F4D
S1134B60FF1F0590F491E02D0994A29FB001B39F1B
S1134B70C001A39F700D811D1124911DB29F700D62
S1134B80811D1124911D08952F923F924F925F929F
S1134B906F927F928F929F92AF92BF92CF92DF9249
S1134BA0EF92FF920F931F93CF93DF93CDB7DEB7AE
S1134BB0CA1BDB0B0FB6F894DEBF0FBECDBF099442
S1134BC02A88398848885F846E847D848C849B8499
S1134BD0AA84B984C884DF80EE80FD800C811B81A7
S1134BE0AA81B981CE0FD11D0FB6F894DEBF0FBED6
S1134BF0CDBFED010895AA1BBB1B51E107C0AA1F3D
S1134C00BB1FA617B70710F0A61BB70B881F991F69
S1134C105A95A9F780959095BC01CD0108955058F7
S1134C20BB27AA270E9427260C94A1270E9493271A
S1134C3038F00E949A2720F039F49F3F19F426F4A3
S1134C400C9490270EF4E095E7FB0C948A27E92F47
S1134C500E94B22758F3BA176207730784079507AF
S1134C6020F079F4A6F50C94D4270EF4E0950B2EDD
S1134C70BA2FA02D0B01B90190010C01CA01A001AA
S1134C801124FF27591B99F0593F50F4503E68F105
S1134C901A16F040A22F232F342F4427585FF3CF46
S1134CA0469537952795A795F0405395C9F77EF417
S1134CB01F16BA0B620B730B840BBAF09150A1F060
S1134CC0FF0FBB1F661F771F881FC2F70EC0BA0FE6
S1134CD0621F731F841F48F4879577956795B7956E
S1134CE0F7959E3F08F0B0CF9395880F08F0992769
S1134CF0EE0F9795879508950E94662708F481E042
S1134D0008950E9495260C94A1270E949A2758F092
S1134D100E94932740F029F45F3F29F00C948A27DE
S1134D2051110C94D5270C9490270E94B22768F354
S1134D309923B1F3552391F3951B550BBB27AA2750
S1134D4062177307840738F09F5F5F4F220F331F8A
S1134D50441FAA1FA9F335D00E2E3AF0E0E832D052
S1134D6091505040E695001CCAF72BD0FE2F29D055
S1134D70660F771F881FBB1F261737074807AB0727
S1134D80B0E809F0BB0B802DBF01FF2793585F4F9C
S1134D903AF09E3F510578F00C948A270C94D5275D
S1134DA05F3FE4F3983ED4F3869577956795B7957E
S1134DB0F7959F5FC9F7880F911D9695879597F989
S1134DC00895E1E0660F771F881FBB1F6217730702
S1134DD08407BA0720F0621B730B840BBA0BEE1F17
S1134DE088F7E09508950E94FA266894B1110C940E
S1134DF0D52708950E94BA2788F09F5798F0B92FB5
S1134E009927B751B0F0E1F0660F771F881F991FFB
S1134E101AF0BA95C9F714C0B13091F00E94D427A2
S1134E20B1E008950C94D427672F782F8827B85FB2
S1134E3039F0B93FCCF3869577956795B395D9F753
S1134E403EF490958095709561957F4F8F4F9F4F5D
S1134E500895E89409C097FB3EF490958095709569
S1134E6061957F4F8F4F9F4F9923A9F0F92F96E9B2
S1134E70BB279395F695879577956795B795F11127
S1134E80F8CFFAF4BB0F11F460FF1BC06F5F7F4FC4
S1134E908F4F9F4F16C0882311F096E911C07723D6
S1134EA021F09EE8872F762F05C0662371F096E8DF
S1134EB0862F70E060E02AF09A95660F771F881FAE
S1134EC0DAF7880F9695879597F90895990F000852
S1134ED0550FAA0BE0E8FEEF16161706E807F907C8
S1134EE0C0F012161306E407F50798F0621B730B63
S1134EF0840B950B39F40A2661F0232B242B252BE4
S1134F0021F408950A2609F4A140A6958FEF811D86
S1134F10811D089597F99F6780E870E060E0089527
S1134F209FEF80EC089500240A94161617061806BD
S1134F300906089500240A94121613061406050699
S1134F400895092E0394000C11F4882352F0BB0F2A
S1134F5040F4BF2B11F460FF04C06F5F7F4F8F4F8D
S1134F609F4F089557FD9058440F551F59F05F3FC8
S1134F7071F04795880F97FB991F61F09F3F79F077
S1134F8087950895121613061406551FF2CF4695F9
S1134F90F1DF08C0161617061806991FF1CF86957B
S1134FA07105610508940895E894BB27662777275F
S1134FB0CB0197F908950E94662708F48FEF0895AE
S1134FC00E94F3270C94A1270E94932738F00E9493
S1134FD09A2720F0952311F00C948A270C9490279B
S1134FE011240C94D5270E94B22770F3959FC1F326
S1134FF0950F50E0551F629FF001729FBB27F00D83
S1135000B11D639FAA27F00DB11DAA1F649F6627D7
S1135010B00DA11D661F829F2227B00DA11D621F26
S1135020739FB00DA11D621F839FA00D611D221FE0
S1135030749F3327A00D611D231F849F600D211DC4
S1135040822F762F6A2F11249F5750409AF0F1F047
S113505088234AF0EE0FFF1FBB1F661F771F881FB0
S113506091505040A9F79E3F510580F00C948A2737
S11350700C94D5275F3FE4F3983ED4F38695779557
S11350806795B795F795E7959F5FC1F7FE2B880F56
S1135090911D9695879597F90895283008F027E093
S11350A03327DA01990F311D87FD91600096610560
S11350B0710539F432602E5F3D9330E32A95E1F7B0
S11350C008959F3F30F080387105610509F03C5F19
S11350D03C5F3D93913008F08068911DDF93CF933E
S11350E01F930F93FF92EF92192F987F9695E92FB4
S11350F096959695E90FFF27EA51FF4F9927332795
S1135100EE24FF24A701E70105900894079428F4EE
S1135110360FE71EF81E491F511D660F771F881FA3
S1135120991F0694A1F70590079428F4E70EF81E3A
S1135130491F561FC11D770F881F991F661F0694AC
S1135140A1F70590079428F4F80E491F561FC71FAE
S1135150D11D880F991F661F771F0694A1F705902C
S1135160079420F4490F561FC71FD81F990F661FB5
S1135170771F881F0694A9F784911095177041F042
S1135180D695C79557954795F794E7941A95C1F71F
S1135190ECE8F0E06894159015913591659195913E
S11351A005907FE27395E118F10A430B560BC90B86
S11351B0D009C0F7E10CF11E431F561FC91FD01DB3
S11351C07EF4703311F48A95E6CFE894015030F000
S11351D0080F0AF40027021708F4202F2395022F42
S11351E07A3328F079E37D932A95E9F710C07D930B
S11351F02A9589F606949795679537951795179488
S1135200E118F10A430B560BC90BD00998F023950A
S11352107E9173957A3308F070E37C932013B8F78A
S11352207E9170617D9330F0839571E37D9370E39B
S11352302A95E1F71124EF90FF900F911F91CF91E0
S1135240DF91992787FD90950895FC0105906150A1
S113525070400110D8F7809590958E0F9F1F089588
S1135260FC016150704001900110D8F78095909531
S11352708E0F9F1F08950F931F93CF93DF93FB010E
S1135280238121FD03C08FEF9FEF2CC022FF16C0A6
S113529046815781248135814217530744F4A08104
S11352A0B1819D012F5F3F4F318320838C932681F1
S11352B037812F5F3F4F3783268314C08B01EC0166
S11352C0FB010084F185E02D0995892BE1F6D801D5
S11352D016968D919C911797019617969C938E9391
S11352E01697CE01DF91CF911F910F910895AEE0F3
S11352F0B0E0EDE7F9E20C94D2250D891E8986E031
S11353008C831A8309838FEF9FE79E838D83AE017D
S1135310475E5F4F6F89788DCE0101960E941E22F1
S1135320EF81F885E00FF11F10822E96E4E00C94D3
S1135330EE25FA01AA27283051F1203181F1E894B1
S11353406F936E7F6E5F7F4F8F4F9F4FAF4FB1E074
S11353503ED0B4E03CD0670F781F891F9A1FA11D6F
S1135360680F791F8A1F911DA11D6A0F711D811D70
S1135370911DA11D20D009F468943F912AE0269F35
S113538011243019305D3193DEF6CF010895462F94
S11353904770405D4193B3E00FD0C9F7F6CF462F75
S11353A04F70405D4A3318F0495D31FD40524193DE
S11353B002D0A9F7EACFB4E0A6959795879577959B
S11353C06795BA95C9F700976105710508959B0122
S11353D0AC010A2E06945795479537952795BA95AB
S11353E0C9F7620F731F841F951FA01D0895F894B9
S10553F0FFCFE9
S11353F205005061B26FBF6120B365BDBF2D7061FE
S11354022020004142544F2020205045A3A54D2086
S113541220202000A87963BA20A441A85045E2A222
S11354224820202000546D70252E3166432F486D8C
S1135432252E31662525202000A8B8BF61BDB86598
S113544220424BA7B0AB45484F00A461BE7963BA72
S1135452204F544BA7B0ABA248202020202000505C
S113546279C0BD6FB9205045A3A54D20202020004E
S11354725079C0BD6FB920A8A9434B20B365BDBF05
S1135482002143B8B4BD61BB20A84FA341505F21A2
S1135492200041B36170B8C720BEB8BF61BDB8C7B0
S11354A220200041B36170B8C720B3786FE3612054
S11354B2414C200041B36170B8C720B3786FE361F7
S11354C2205053200041B36170B8C72033383042B2
S11354D220202020200041B36170B8C720BBB8BD92
S11354E2B8B8204448540041B36170B8C720BABB6D
S11354F261BE61BD612020002020202020202020C8
S11355022020202020202020004FBFBABB6FBD6581
S1135512BDB8652820202056290061BCBEBBB8BF97
S113552279E32C422B2F2D00427065BCC720B3C3F4
S1135532786FE3612020202000BD61207065B6B839
S1135542BC2C006365BA2E0054B8BE20E361BFC010
S1135552B8BA61202D5053002D4E4F2D6FBFBA7033
S1135562C3BF2D002D4E432DB761BCBABD79BF2DEB
S11355720054B8BE20E361BFC0B8BA61202D414CCB
S1135582004D61BA63B8BC61BBC4BD61C7202020B1
S11355922000BF65BC2D70612C43202020202020D8
S11355A2004B6FBDBF706FBBC42020202020202081
S11355B22000BF65BCBE2D70C320202020204F5484
S11355C24BA700B3BB61B6BD6F63BFC420202020CC
S11355D22500B3BB61B6BD6F63BFB82020204F5412
S11355E24BA700A1B863BF657065B7B863202020DC
S11355F220202000546D702B2F2D202020252E31A9
S1135602664320202020202000486D2B2F2D2020AF
S1135612252E3166252520202020200053797374FD
S1135622656D5F616472657320202020004164729D
S11356326573732064697361626C652020002020A5
S11356422020202020204F544BA720202020002D52
S1135652544553542D544553542D544553542D00FD
S10D566255005F5F56005F5F5700BC
S9032702D3
