:100000000C94C3000C94E0000C94E0000C94E0000D
:100010000C94E0000C94E0000C94E0000C940509B2
:100020000C94E0000C94E0000C94E0000C94320975
:100030000C94E0000C94E0000C94E0000C94E000C0
:100040000C94E0000C94E0000C94E0000C94E000B0
:100050000C94E0000C94E0000C94E0000C94E000A0
:100060000C94E0000C94E000940D9F0DAA0DB50DCA
:10007000C00DCB0DD60D9A0EA50EB00EBB0EC60E42
:10008000D10EDC0E6E616E00696E660000407A1063
:10009000F35A00A0724E18090010A5D4E80000E839
:1000A0007648170000E40B54020000CA9A3B000097
:1000B00000E1F505000080969800000040420F0026
:1000C0000000A08601000000102700000000E803E7
:1000D000000000006400000000000A0000000000B2
:1000E0000100000000002C76D888DC674F0823DF71
:1000F000C1DFAE59E1B1B796E5E3E453C63AE65144
:10010000997696E8E6C28426EB898C9B62ED407C6A
:100110006FFCEFBC9C9F40F2BAA56FA5F490055A06
:100120002AF75C936B6CF9676DC11BFCE0E40D472B
:10013000FEF520E6B500D0ED902E0300943577054E
:100140000080841E080000204E0A000000C80C3306
:100150003333330F986E12831141EF8D2114893B95
:10016000E65516CFFEE6DB18D1844B381BF77C1D15
:10017000901DA4BBE424203284725E228100C9F168
:1001800024ECA1E53D2711241FBECFEFD8E0DEBF50
:10019000CDBF13E0A0E0B1E0E6EFF1E502C00590CD
:1001A0000D92AA36B107D9F725E0AAE6B3E001C05F
:1001B0001D92AC37B207E1F70E9449090C94F92867
:1001C0000C94000080937C00EAE7F0E0808180647A
:1001D0008083808186FDFDCFE8E7F0E0808120917B
:1001E000790090E0922B91838083808191810895A2
:1001F0000F931F93CF93DF93109225041092240442
:100200001092B4031092B3031092120410921104CE
:10021000C5E9D0E000E012E083E00E94E2009093A4
:100220006D0580936C05209124043091250482177C
:1002300093076CF0811522E092072CF0909325042F
:100240008093240404C0109325040093240487E0C1
:100250000E94E20090939503809394032091B3034E
:100260003091B403821793076CF0811522E0920756
:100270002CF09093B4038093B30304C01093B403A1
:100280000093B30386E00E94E2009093B70380934B
:10029000B6032091110430911204821793076CF079
:1002A000811522E092072CF09093120480931104A0
:1002B00004C01093120400931104219709F0ACCFED
:1002C0008091240490912504DF91CF911F910F918B
:1002D0000895CF92DF92EF92FF92CF93C0901404D3
:1002E000D0901504E0901604F090170420E030E060
:1002F00040E752E4C701B6010E947E2518160CF4AF
:1003000056C020E030E040E251ECC701B6010E9447
:10031000DD2688230CF44BC02091EC033091ED03D3
:100320004091EE035091EF03C701B6010E947E2574
:10033000181684F080916B0381110CC0C1E0C0934A
:100340006B0341E060E070E280E090E00E941E14E8
:10035000C093840320916705309168054091690539
:1003600050916A05609114047091150480911604EF
:10037000909117040E9411252091EC033091ED0318
:100380004091EE035091EF030E94DD2688237CF01C
:1003900080916B03813059F410926B0340E060E070
:1003A00070E280E090E00E941E1410928403C090DE
:1003B000D803D090D903E090DA03F090DB0320E07B
:1003C00030E046EC52E4C701B6010E947E251816C3
:1003D0000CF44BC02091E8033091E9034091EA030B
:1003E0005091EB03C701B6010E947E25181684F0D8
:1003F00080916A0381110CC0C1E0C0936A0341E09F
:1004000060E070E480E090E00E941E14C0931F043E
:1004100020918A0330918B0340918C0350918D037E
:100420006091D8037091D9038091DA039091DB0336
:100430000E9411252091E8033091E9034091EA03DD
:100440005091EB030E94DD2688237CF080916A03A3
:10045000813059F410926A0340E060E070E480E07B
:1004600090E00E941E1410921F04CF91FF90EF9015
:10047000DF90CF90089541E060E071E080E090E08F
:100480000E941E140E945A0D80917203811133C084
:10049000809108048111ACC080918403813029F0DF
:1004A00090911F04913009F095C041E060E870E040
:1004B00080E090E00E941E1460E080E80E94EC055D
:1004C00082E091E00E94C20680918403811113C0F2
:1004D00080911F04811181C040E060E870E080E0FD
:1004E00090E00E941E1460E080E80E94EC0583E129
:1004F00091E00E94C20680917203823021F08091C7
:100500000804813071F580918403813021F080915D
:100510001F04813041F460E080E80E94EC0584E231
:1005200091E00E94C20680918403811113C08091E2
:100530001F0481110FC040E060E870E080E090E0AF
:100540000E941E1460E080E80E94EC0583E191E0C7
:100550000E94C20640E060E870E080E090E00E9407
:100560001E1480917203813071F580918403813073
:1005700021F080911F04813079F441E060E870E05F
:1005800080E090E00E941E1460E080E80E94EC058C
:1005900082E091E00E94C20680918403811113C021
:1005A00080911F0481110FC040E060E870E080E09E
:1005B00090E00E941E1460E080E80E94EC0583E158
:1005C00091E00E94C2068FE39CE90197F1F700C019
:1005D00000000895882339F0C4CF809172038230DF
:1005E00009F495CF8CCF80911F04811188CF74CFEF
:1005F00080910804813039F786CFCF93DF93579AE3
:100600005F982FEF80EE90E0215080409040E1F71E
:1006100000C000005F9A579887EC90E00197F1F7CF
:1006200000C000004F9935C08FE391E00197F1F7CA
:1006300000C000004F9B30C080916505809370051D
:100640004F99FECFACEFB3E0C1E0D4E061E070E0E1
:10065000FD011C9287E090E04F9BFECF2AE82A958F
:10066000F1F700C04F9B0AC040819B01082E02C0D9
:10067000220F331F0A94E2F7242B20834F99FECFD9
:10068000019750F71196CA17DB0711F781E090E048
:1006900005C080E090E002C080E090E0DF91CF9163
:1006A00008958F929F92AF92BF92CF92DF92EF9276
:1006B000FF920F931F93CF93DF9310927D030E94BD
:1006C000FD02C82F80937D03813009F08BC010920A
:1006D000DD031092DC03ECEFF3E0008110E0E18039
:1006E000F12CD281C380D12CC8018E0D9F1D8D0F9E
:1006F000911D8C0D9D1D90931E0480931D046D2FE4
:100700006F7770E080E090E00E942D262DEC3CECAD
:100710004CEC51E40E94E2264B015C01B601DD0C79
:10072000880B990B0E942D262DEC3CEC4CEC5DE3E4
:100730000E94E2269B01AC01C501B4010E94122572
:100740004B015C016093EC037093ED038093EE0327
:100750009093EF030E94F52570937F0360937E03CF
:10076000DD239CF4B7FAB094B7F8B0948092EC0310
:100770009092ED03A092EE03B092EF037195619514
:10078000710970937F0360937E03B701FF0C880BA0
:10079000990B0E942D262DEC3CEC4CEC5DE30E9465
:1007A000E2266B017C01B801110F880B990B0E94A6
:1007B0002D262DEC3CEC4CEC51E40E94E2269B01F2
:1007C000AC01C701B6010E9412256093E803709343
:1007D000E9038093EA039093EB038091DC0390910B
:1007E000DD031EC0811109C08091DC039091DD03FF
:1007F00001969093DD038093DC038091DC0390915C
:10080000DD038536910564F084E690E09093DD0386
:100810008093DC0381E080937105C130F1F408C05E
:100820008436910514F410927105C13041F402C070
:1008300084E690E001979093DD038093DC03809140
:10084000DC039091DD03029744F41092710585E07A
:1008500090E09093DD038093DC03DF91CF911F91B3
:100860000F91FF90EF90DF90CF90BF90AF909F904F
:100870008F9008950E94510360E080EC0E94EC0587
:100880008091EB038F938091EA038F938091E9032A
:100890008F938091E8038F938091EF038F938091E2
:1008A000EE038F938091ED038F938091EC038F93F0
:1008B00085E391E09F938F9388E993E09F938F93D3
:1008C0000E94792888E993E00E94C2068DB79EB7FE
:1008D0000C960FB6F8949EBF0FBE8DBF0895F99980
:1008E000FECF92BD81BD60BDFA9AF99A0895F9993B
:1008F000FECF92BD81BDF89A80B5089580E00E9438
:10090000E20090937403809373039C012E54324051
:100910002F36310538F440917503413019F442E027
:1009200040937203805991408D3B9105E8F44091CA
:100930007503411115C042E04093720311C08091CC
:100940007503813019F41092720308952F36310522
:10095000B8F480917503811113C010927203089549
:100960008F35914028F4EBCF8F35914078F304C058
:1009700081E080937203E3CF81E080937203E6CF3E
:10098000089581E00E94E2009093710380937003C8
:100990009C012E5432402F36310508F0B8C08091AA
:1009A0007603813099F480916E03813029F0809133
:1009B0006D03813009F0D7C081E080936F0341E07F
:1009C00060E074E080E090E00E941E14809170036B
:1009D00090917103805991408D3B910508F0D4C0EE
:1009E000809176038111A5C080916E03813029F03A
:1009F00080916D03813009F091C081E080936F0395
:100A000041E060E074E080E090E00E941E1480917C
:100A10007003909171038E5492408F369105B0F41B
:100A200080917603813091F480916E038111BEC074
:100A300080916D038111BAC083E080936F0341E020
:100A400060E074E080E090E00E941E1480917003EA
:100A500090917103805991408D3B910508F07EC0C3
:100A60008091760381116FC080916E038111A8C0BF
:100A700080916D038111A4C083E080936F0341E0F6
:100A800060E074E080E090E00E941E1480917003AA
:100A900090917103805991408F35914050F082E0E0
:100AA00080936F0341E060E078E080E090E00E9496
:100AB0001E148091700390917103805991408D3B79
:100AC000910568F480917603813049F410926F03A8
:100AD00040E060E074E080E090E00E941E148091AD
:100AE0007003909171038E5492408F36910508F0F7
:100AF00072C08091760381116EC010926F0340E046
:100B000060E074E080E090E00E941E140895805937
:100B100091408D3B910508F463CF41C080917003F3
:100B200090917103805991408D3B910508F49CCFC1
:100B300015C080917003909171038E5492408F364E
:100B4000910508F46DCF80917003909171038059E5
:100B500091408F35914008F4B5CFA1CF8F359140AA
:100B600008F4BDCF9CCF80917003909171038059A0
:100B700091408D3B9105E8F24ACF809170039091AE
:100B8000710380599140EACF809170039091710375
:100B90008E5492408F36910508F442CFEECF80916B
:100BA00070039091710380599140D8CF8091700368
:100BB00090917103805991408D3B910520F2CECFE9
:100BC0008091700390917103805991408F359140CD
:100BD00008F485CF64CF0895CF93C82F613041F4D6
:100BE00041E061E070E080E090E00E941E1407C0E8
:100BF00040E061E070E080E090E00E941E1441E07F
:100C000062E070E080E090E00E941E14C4FF08C023
:100C100041E064E070E080E090E00E941E1407C0B4
:100C200040E064E070E080E090E00E941E14C5FFA8
:100C300008C041E068E070E080E090E00E941E148F
:100C400007C040E068E070E080E090E00E941E1481
:100C5000C6FF08C041E060E170E080E090E00E94E3
:100C60001E1407C040E060E170E080E090E00E9468
:100C70001E14CC2344F441E060E270E080E090E098
:100C80000E941E1407C040E060E270E080E090E047
:100C90000E941E1440E062E070E080E090E00E945C
:100CA0001E148FE39FE10197F1F700C0000041E0BF
:100CB00062E070E080E090E00E941E14C0FF08C077
:100CC00041E064E070E080E090E00E941E1407C004
:100CD00040E064E070E080E090E00E941E14C1FFFC
:100CE00008C041E068E070E080E090E00E941E14DF
:100CF00007C040E068E070E080E090E00E941E14D1
:100D0000C2FF08C041E060E170E080E090E00E9436
:100D10001E1407C040E060E170E080E090E00E94B7
:100D20001E14C3FF08C041E060E270E080E090E084
:100D30000E941E1407C040E060E270E080E090E096
:100D40000E941E1440E062E070E080E090E00E94AB
:100D50001E148FE39FE10197F1F700C00000CF91CF
:100D6000089560E082E00E94EC0560E088E20E9465
:100D7000EC0560E08CE00E94EC0560E081E00E9400
:100D8000EC0508950F931F93CF93FC018081882376
:100D900061F08F01C0E0CF5F61E00E94EC05F801D7
:100DA000EC0FF11D80818111F6CFCF911F910F9132
:100DB0000895CF93DF93EC01623009F449C020F429
:100DC000613009F46DC08AC06330C1F0643009F04D
:100DD00085C09C013695279536952795369527959C
:100DE000A5ECB0E20E94B724929582958F70892776
:100DF0009F70892761E0805D0E94EC059E01369519
:100E0000279536952795ABE7B4E10E94B724AC014E
:100E1000569547959A01ADECBCEC0E94B724969587
:100E2000879596958795969587959C01220F331FF8
:100E3000880F991F880F991F880F991F820F931F82
:100E40009A01281B390BC90161E0805D0E94EC0505
:100E50009E01ADECBCEC0E94B724AC0156954795C1
:100E600056954795569547959A010E94B7249695B1
:100E7000879596958795969587959C01220F331FA8
:100E8000880F991F880F991F880F991F820F931F32
:100E90009A01281B390BC90161E0805D0E94EC05B5
:100EA0009E01ADECBCEC0E94B72496958795969573
:100EB0008795969587959C01220F331F880F991F60
:100EC000880F991F880F991F820F931F9E01281B5F
:100ED000390BC90161E0805D0E94EC05DF91CF9183
:100EE0000895109218041092F2031092F403809166
:100EF000AD039091AE0301969093AE038093AD0342
:100F000060911104709112047250072E000C880B2E
:100F1000990B0E942D262EEE34E045EB5FE30E94F4
:100F2000832521EE3AE744E95FE30E94E2260E942E
:100F3000F525AB017093F8036093F703209100014E
:100F40003091010181EE90E0821B930B4817590705
:100F50002CF02F513F4F241735074CF58091650534
:100F6000909166052091190430911A04821B930B0D
:100F70008D349D41A4F440E060E470E080E090E0B6
:100F80000E941E14809165059091660520911904B8
:100F900030911A04821B930B8D349D41ECF041E09B
:100FA00060E470E080E090E00E941E1415C081E0D3
:100FB000809318048093F2038091F9039091FA03CF
:100FC00001969093FA038093F90341E060E470E0A6
:100FD00080E090E00E941E1481E08093F203209153
:100FE000AD033091AE034091F9035091FA0364E6EA
:100FF000649FC001659F900D1124B9010E949D243A
:101000007093BB036093BA032436310541F4109208
:10101000AE031092AD031092FA031092F90380917F
:101020006505909166052091190430911A04AC0170
:10103000421B530B9A0128393A4324F090931A0427
:1010400080931904089580917203823021F0909169
:101050000804913039F421E030E0309330042093DB
:101060002F0404C01092300410922F042091920398
:1010700030919303232B39F421E030E03093320494
:101080002093310404C01092320410923104813054
:1010900039F481E090E0909334048093330404C0E9
:1010A000109234041092330480916F03823039F42B
:1010B00021E030E0309336042093350404C01092D0
:1010C0003604109235049091F203911107C021E08B
:1010D00030E0309338042093370404C01092380471
:1010E0001092370490917105913039F421E030E08D
:1010F00030933A042093390404C010923A041092B9
:1011000039049091AC03923039F421E030E030930F
:101110003C0420933B0404C010923C0410923B0416
:101120009091FB03913039F421E030E0309340049A
:1011300020933F0404C01092400410923F04833077
:1011400038F081E090E0909342048093410404C021
:10115000109242041092410480912D0490912E042B
:10116000899724F010923A041092390480919003E8
:101170009091910389970CF440C010923C04109216
:101180003B043BC090813296890FE217F307D1F7F9
:101190008093F40381110BC040E060E078E080E0D0
:1011A00090E00E941E148091F403882339F041E0FE
:1011B00060E078E080E090E00E941E14809172036D
:1011C000823021F080910804813039F441E060E000
:1011D00072E080E090E00E941E1480917203811101
:1011E00013C08091080481110FC040E060E072E0FC
:1011F00080E090E00E941E1408958091F403E1E3E2
:10120000F4E023E434E0BECF08951F920F920FB6AE
:101210000F9211242F933F934F935F936F937F937C
:101220008F939F93AF93BF93EF93FF938091650547
:1012300090916605019690936605809365050E94DE
:10124000A912FF91EF91BF91AF919F918F917F91E3
:101250006F915F914F913F912F910F900FBE0F9023
:101260001F9018951F920F920FB60F9211248F9313
:101270009F93809106049091070401969093070430
:10128000809306049F918F910F900FBE0F901F9037
:10129000189541E060E070E880E090E00E941E1444
:1012A000AAE7B0E08C9180688C93ECE7F0E0808155
:1012B000108280818064808380818F6D80838C9197
:1012C00086608C93EBE7F0E080818083EEE7F0E0CE
:1012D00080818763808380B7806880BF80E287B920
:1012E00092E094B988E185B98EEF8AB918B8109266
:1012F0008000E1E8F0E080818D60808310928500BD
:101300001092840029E03DE3309389002093880007
:1013100090936F00E0EBF0E0808182608083E1EBEE
:10132000F0E08081826080831092B2008FEF809322
:10133000B300E0E7F0E08081826080832FEF83ECF0
:1013400099E0215080409040E1F700C000000E94E9
:10135000B10660E081E00E94EC0560E080E80E9458
:10136000EC0589E491E00E94C2060E9471070E9488
:1013700049204E9A0E94492010926E0585E090E027
:1013800090930504809304041092070410920604BD
:1013900083E080937A051092E0031092B5031092D7
:1013A0006B05109291031092900310922E041092EC
:1013B0002D04109214041092150410921604109229
:1013C00017041092D8031092D9031092DA031092E6
:1013D000DB0310929303109292031092E703109292
:1013E000E60310922904109228041092DD03109253
:1013F000DC031092F3031092AC031092FB0383E121
:1014000090E09093100480930F048DE990E0909306
:10141000DF038093DE0381E090E00E9477048093F5
:101420007A0582E090E00E94770490E090930504B2
:101430008093040483E090E00E94770490E090930E
:1014400001018093000186E090E00E9477048230E1
:1014500018F48093760303C081E08093760387E0DD
:1014600090E00E947704823018F48093750303C0E3
:1014700081E08093750388E090E00E94770490E01B
:1014800090939103809390038B9734F089E290E0DE
:10149000909391038093900389E090E00E947704F9
:1014A00090E090932E0480932D048B9734F089E282
:1014B00090E090932E0480932D0480E190E00E94B0
:1014C000770490E09093100480930F048138910585
:1014D00024F01092100410920F0481E190E00E9419
:1014E0007704682F70E080E090E00E942B266093E4
:1014F000140470931504809316049093170420E04D
:1015000030E048E752E40E94DD26181664F480E0DB
:1015100090E0A4E7B2E48093140490931504A093A0
:101520001604B093170482E190E00E947704682FBC
:1015300070E080E090E00E942B266093D8037093C7
:10154000D9038093DA039093DB0320E030E048EC8A
:1015500052E40E94DD26181664F480E090E0A8ECC6
:10156000B2E48093140490931504A0931604B093EE
:10157000170483E190E00E94770490E09093770550
:101580008093760584E190E00E94770490E0909348
:1015900089038093880385E190E00E94770490E0BE
:1015A0009093D7038093D60386E190E00E9477045E
:1015B000C82FD0E0D093AB03C093AA0360918803F7
:1015C00070918903072E000C880B990B0E942D2621
:1015D0002DEC3CEC4CEC5DE30E94E2266B017C01BF
:1015E0006091760570917705072E000C880B990B9A
:1015F0000E942D269B01AC01C701B6010E94122555
:1016000060936705709368058093690590936A05F8
:101610006091D6037091D703072E000C880B990BAD
:101620000E942D266B017C01BE01DD0F880B990BFA
:101630000E942D262DEC3CEC4CEC5DE30E94E22652
:101640009B01AC01C701B6010E94122560938A0379
:1016500070938B0380938C0390938D0310927B0582
:1016600080E00E94E200909374038093730381E012
:101670000E94E20090937103809370030E944920BE
:101680000E9471070E94230878941092860310929A
:10169000850340E060E070E880E090E00E941E1466
:1016A00011E0C1E0D0E00E94F8000E947E040E9498
:1016B000C1040E9471070E9448150E9423080E94DD
:1016C000690180917A05823009F4C5C01093D50371
:1016D0002091BA033091BB038091900390919103C4
:1016E000820F931F84369105D4F440E060E470E0EB
:1016F00080E090E00E941E141092930310929203D7
:1017000080919003909191032091BA033091BB0393
:10171000280F391F2436310514F489975CF0D093D3
:101720009303C0939203412F60E470E080E090E067
:101730000E941E141B9946C080916C03811142C007
:1017400080917B0581118AC0412F60E070E880E0C4
:1017500090E00E941E1480917A058F5F80937A0535
:1017600010936C0310926E0510920A0410920904F3
:101770002FEF86E791E0215080409040E1F700C0D4
:10178000000010926E0340E060E870E080E090E0BE
:101790000E941E1480917A05843010F010937A050F
:1017A00060917A05CE010E946F048FE39CE9019756
:1017B000F1F700C00000412F60E070E880E090E0A9
:1017C0000E941E141B9B12C080916C03813071F427
:1017D00080917B0581110AC010926E0510926C03F6
:1017E0008FE39CE90197F1F700C0000080917A0532
:1017F000813031F480917B05811125C00E94300C2D
:1018000080917A05823031F480917B0581111BC073
:101810000E943B0280917A058330A9F480917B0578
:10182000811111C060E080E80E94EC058AE591E03A
:101830000E94C2060E945A0D40E060E071E080E024
:1018400090E00E941E1440E060E070E880E090E0CC
:101850000E941E1428CF1092D5033ACF83B1C6CF71
:1018600040E060E071E080E090E00E941E14809112
:101870006E05811106C11C9B01C180916E0381110F
:10188000FDC060E080E80E94EC058FE691E00E94D8
:10189000C2060E945A0D1C9924C080916E058823AF
:1018A00009F4F5C01EC041E060E070E880E090E01F
:1018B0000E941E1481E080936E052FEF8AE693E06C
:1018C000215080409040E1F700C0000010920704D2
:1018D0001092060440E060E070E880E090E00E9432
:1018E0001E1480916E05813009F0DEC01C9B6EC015
:1018F00080916E0381116AC080917203811119C0B9
:10190000809108048111CBC081E080936E0341E097
:1019100060E870E080E090E00E941E1410926E0576
:101920002FEF89EF90E0215080409040E1F700C018
:10193000000080917203823021F080910804813090
:10194000E9F481E080936E0340E060E870E080E0BD
:1019500090E00E941E1410926E0560E080E80E94E4
:10196000EC0584E291E00E94C2062FEF89EF90E03F
:10197000215080409040E1F700C0000080916E054A
:10198000811181C01C994BC080916E03813009F098
:1019900046C080936E0541E060E070E880E090E032
:1019A0000E941E142FEF82E597E021508040904066
:1019B000E1F700C0000040E060E070E880E090E007
:1019C0000E941E1480916E05813029F51C9B71C008
:1019D00080916E03813009F06CC010926E031092FA
:1019E0006E0560E080E80E94EC058FE691E00E94C1
:1019F000C2060E945A0D40E060E870E080E090E08E
:101A00000E941E142FEF89EF90E0215080409040FB
:101A1000E1F700C0000080916E0581114AC08091FD
:101A20006E03813009F045C08091720381110EC0B0
:101A30008091080481110EC01092FB0360E080E8E1
:101A40000E94EC0580E891E00E94C206809172033A
:101A5000823021F080910804813059F540E060E83F
:101A600070E080E090E00E941E1460E080E80E9438
:101A7000EC0584E291E00E94C20608951C9B07C019
:101A80007DCF83B12ECF813009F4A0CF089580910E
:101A90006E03811177CF07CF80916E05F4CF8091CF
:101AA00008048130C9F74DCF80916E05882309F471
:101AB00069CF0895CF93DF9380917A05813009F43F
:101AC00006C160E080EC0E94EC051092F6031092D3
:101AD000F503C0910904D0910A04C730D10509F07B
:101AE000F8C10E943A04C0910904D0910A04C73099
:101AF000D1050CF074C0FE01EE0FFF1FE15DFB4F3E
:101B000080819181019709F060C005C08191919118
:101B1000019709F05FC0C730D10508F051C0FE0140
:101B2000EC5CFF4F0C94B12481E991E00E94C20665
:101B300081E090E09093F6038093F50341C082EA40
:101B400091E00E94C20681E090E09093F6038093BA
:101B5000F50336C083EB91E00E94C20681E090E07D
:101B60009093F6038093F5032BC084EC91E00E94E0
:101B7000C20681E090E09093F6038093F50320C0C5
:101B800085ED91E00E94C20681E090E09093F6031B
:101B90008093F50315C086EE91E00E94C20681E0B5
:101BA00090E09093F6038093F5030AC087EF91E0ED
:101BB0000E94C20681E090E09093F6038093F503C3
:101BC000D0930A04C09309040AC0FE01EE0FFF1F60
:101BD000EF5CFB4F2196C730D1050CF497CF809175
:101BE000F5039091F603892B31F40E943A04109288
:101BF0000A04109209048091F5039091F60301976D
:101C000011F40E9451031C990AC08091B5038111FF
:101C100006C081E08093B5031C9B54C007C01C9B89
:101C200051C08091B503813009F04CC041E060E0C3
:101C300070E880E090E00E941E141092B503E091DD
:101C40000904F0910A04CF01019690930A0480934D
:101C50000904DC01AA0FBB1FA15DBB4F2D913C9174
:101C6000232B49F5873091055CF012C02191319109
:101C70002130310549F490930A048093090408C087
:101C8000EE0FFF1FED5CFB4F01968730910571F75A
:101C90008091090490910A04089724F010920A0494
:101CA000109209042FEF89EF90E02150804090407E
:101CB000E1F700C0000040E060E070E880E090E004
:101CC0000E941E1480917A05813009F00CC160E0F9
:101CD00080EC0E94EC051092F6031092F503C0917F
:101CE0000904D0910A04C730D10509F0F7C00E9459
:101CF0003A04C0910904D0910A04C730D1050CF010
:101D000074C0FE01EE0FFF1FE15DFB4F80819181EA
:101D1000019709F060C005C081919191019709F088
:101D20005FC0C730D10508F051C0FE01E55CFF4F30
:101D30000C94B12481E991E00E94C20681E090E018
:101D40009093F6038093F50341C082EA91E00E94EC
:101D5000C20681E090E09093F6038093F50336C0CD
:101D600083EB91E00E94C20681E090E09093F6033D
:101D70008093F5032BC084EC91E00E94C20681E0C1
:101D800090E09093F6038093F50320C085ED91E0F9
:101D90000E94C20681E090E09093F6038093F503E1
:101DA00015C088E092E00E94C20681E090E0909326
:101DB000F6038093F5030AC087EF91E00E94C20604
:101DC00081E090E09093F6038093F503D0930A04AA
:101DD000C09309040AC0FE01EE0FFF1FEF5CFB4F2A
:101DE0002196C730D1050CF497CF8091F5039091DF
:101DF000F603892B31F40E943A0410920A041092DF
:101E000009048091F5039091F603019711F40E9463
:101E100051031D9B0AC08091B503811106C081E06A
:101E20008093B5031D995FC007C01D995CC0809168
:101E3000B503813009F057C041E060E070E880E010
:101E400090E00E941E141092B503E0910904F091F5
:101E50000A04CF01019690930A0480930904DC01DF
:101E6000AA0FBB1FA15DBB4F2D913C91232B49F5C0
:101E7000873091055CF012C02191319121303105FC
:101E800049F490930A048093090408C0EE0FFF1FE1
:101E9000ED5CFB4F01968730910571F78091090445
:101EA00090910A04089724F010920A0410920904F1
:101EB0002FEF89EF90E0215080409040E1F700C083
:101EC000000040E060E070E880E090E00E941E14B6
:101ED0000AC0C730D1050CF40ECE87CEC730D1056D
:101EE0000CF40FCF88CFDF91CF910895CF93DF937C
:101EF00080918003909181038D30910509F01AC380
:101F0000C3E4D4E02A8D3B8D80910B0490910C04A6
:101F1000822B932B2C893D89220F331F220F331FD5
:101F2000220F331F822B932B2E893F89220F331FC1
:101F3000220F331F822B932B288D398D220F331FB5
:101F4000822B932B90930C0480930B0408C0299A46
:101F5000459A80918003909181030D9711F4299AFD
:101F6000459A80918003909181030E9761F480914E
:101F70002F0490913004019721F080910804823061
:101F8000B1F4299A459A80918003909181038D3014
:101F900091050CF4DBC2469711F4299A459A809179
:101FA0008003909181034F9711F4299A459A80916B
:101FB000800390918103889711F4299A459A809122
:101FC000800390918103C19711F4299A459A8091D9
:101FD000800390918103CA9711F4299A459A8091C0
:101FE0008003909181038334910511F4299A459AD5
:101FF00080918003909181038C34910511F4299A8A
:10200000459A80910B0490910C048230910509F45B
:102010006AC01CF4892B49F099C28330910509F4F8
:102020007FC00E9709F41FC291C2809180039091E6
:102030008103099711F4299A459A80918003909120
:1020400081030D9711F4299A459A8091800390910C
:1020500081030E9761F480912F04909130040197D1
:1020600021F080910804823091F4299A459A809158
:10207000800390918103469711F4299A459A8091A3
:102080008003909181034F9711F4299A459A80918A
:10209000800390918103889711F4299A459A809141
:1020A000800390918103C19711F4299A459A8091F8
:1020B000800390918103CA9711F4299A459A8091DF
:1020C0008003909181038334910511F4299A459AF4
:1020D00080918003909181038C34910509F036C280
:1020E000299A459A33C280918003909181030D977C
:1020F00011F4299A459A80918003909181030E975B
:1021000009F024C280912F0490913004019729F0A6
:1021100080910804823009F019C2299A459A16C2A2
:1021200080918003909181030D9711F4299A459A2B
:1021300080918003909181030E9761F480912F0428
:1021400090913004019721F080910804823091F43D
:10215000299A459A8091800390918103469711F4C2
:10216000299A459A80918003909181034F9711F4A9
:10217000299A459A8091800390918103889711F460
:10218000299A459A8091800390918103C19711F417
:10219000299A459A8091800390918103CA9711F4FE
:1021A000299A459A80918003909181038334910507
:1021B00011F4299A459A80918003909181038C347F
:1021C000910511F4299A459A809180039091810399
:1021D0009C012E5031092830310520F525E130E0F1
:1021E000281B390B8091DE039091DF0302C0959587
:1021F00087952A95E2F7817099272091AF03309156
:10220000B003822B932B9093B0038093AF0301977D
:1022100011F4299A459A8091AF039091B003892BCC
:1022200009F4299880918003909181034E97E1F4FD
:1022300080910804E82FE170F0E08091AF03909165
:10224000B003E82BF92BF093B003E093AF03E13038
:10225000F10509F073C1299A459A8091AF039091D5
:10226000B003892B09F42998809180039091810310
:1022700082970297D0F48091D503A82FA170B0E087
:102280008091AF039091B003A82BB92BB093B0030A
:10229000A093AF03119711F4299A459A8091AF0347
:1022A0009091B003892B09F4299880918003909133
:1022B000810384970497D8F480910804482F4170D3
:1022C00050E08091AF039091B003482B592B50936D
:1022D000B0034093AF034130510511F4299A459A58
:1022E0008091AF039091B003892B09F429988091D4
:1022F0008003909181038797E1F480917105682FA5
:10230000617070E08091AF039091B003682B792BDE
:102310007093B0036093AF036130710509F012C18F
:10232000299A459A8091AF039091B003892B09F4C3
:1023300029982091800330918103C901C3970697A2
:1023400060F5809173039091740399230CF40396C4
:10235000959587959595879549E350E0BA01621B5D
:10236000730B02C0959587956A95E2F7817099275E
:102370002091AF033091B003822B932B9093B00345
:102380008093AF03019711F4299A459A8091AF0386
:102390009091B003892B09F4299880918003909142
:1023A00081039C012C5331092730310520F522E4AB
:1023B00030E0281B390B80917E0390917F0302C08F
:1023C000959587952A95E2F7817099272091AF031B
:1023D0003091B003822B932B9093B0038093AF0383
:1023E000019711F4299A459A8091AF039091B00317
:1023F000892B09F429982091800330918103C90128
:1024000085549109079708F0A1C0809170039091BD
:10241000710399230CF40396959587959595879567
:102420004BE450E0BA01621B730B02C0959587958F
:102430006A95E2F7817099272091AF033091B0033C
:10244000822B932B9093B0038093AF03019711F4E9
:10245000299A459A8091AF039091B003892B09F096
:1024600075C0299873C080918003909181030D9766
:1024700011F4299A459A80918003909181034E9797
:1024800011F4299A459A80918003909181038D9748
:1024900011F4299A459A80918003909181038E9737
:1024A00009F054C08091890490918A04019779F4CD
:1024B0008091970490919804019749F441E060E07D
:1024C00070E880E090E00E941E1410920804809151
:1024D0008B0490918C04019779F4809199049091E8
:1024E0009A04019749F440E060E070E880E090E0F1
:1024F0000E941E141092080480918F049091900401
:10250000019749F480919D0490919E04019719F4DC
:1025100081E08093080480918D0490918E0401974E
:10252000A9F480919B0490919C04019779F41092F6
:1025300008040CC0099709F014CD09CDEF2B09F45C
:1025400092CED5CE672B09F4F3CE55CFDF91CF9144
:102550000895599A23B1822F817090E090932C04B2
:1025600080932B048130910509F02AC18091E10309
:1025700081115EC18091E2039091E3039C01295097
:1025800031092230310528F41092E3031092E2035E
:102590002EC04297039738F481E090E09093E303D4
:1025A0008093E20342C08091E2039091E3034B9752
:1025B0000897E8F482E090E09093E3038093E203CD
:1025C000109281031092800310928F0310928E0359
:1025D0001092BD031092BC0310920C0410920B04D5
:1025E00020E030E0909344048093430482C08091C3
:1025F000E2039091E303893E9340BCF01092810383
:102600001092800310928F0310928E031092BD03DC
:102610001092BC0310920C0410920B041092080448
:10262000109244041092430474C0209180033091AE
:102630008103F901EE0FFF1FED5BFB4F8091E20379
:102640009091E303918380832830310509F051C0D4
:10265000E3E4F4E0208931898091BC039091BD03CB
:10266000822B932B2481358100243695279507945E
:10267000369527950794322F202D822B932B268178
:102680003781220F331F22953295307F3227207FEA
:102690003227822B932B2085318522953295307FEE
:1026A0003227207F3227822B932B22853385220FDE
:1026B000331F220F331F220F331F822B932B2485AE
:1026C0003585220F331F220F331F822B932B268534
:1026D0003785220F331F822B932B9093BD0380935A
:1026E000BC03009709F09BC01092BF031092BE0379
:1026F00096C04091BC035091BD0380910F0490910E
:1027000010044817590729F42830310514F00E94A5
:10271000760F81E08093E103109213041092E3039B
:102720001092E2031092B0031092AF03809145041F
:1027300090914604019711F58091470490914804C7
:10274000892BE1F480918003909181030297B1F489
:102750008091BE039091BF0301969093BF03809335
:10276000BE0320910F04309110048217930731F4B7
:102770009093BD038093BC03299A459A809180036E
:1027800090918103019690938103809380038091BF
:102790002B0490912C048130910509F449C010C09C
:1027A0008091B8039091B90301969093B9038093F7
:1027B000B80380912B0490912C04892BE9F02DC053
:1027C000892B59F580911304811116C029984598D9
:1027D00081E0809313041092E1031092B9031092E8
:1027E000B80310928F0310928E0380912B04909166
:1027F0002C04892B29F011C080911304813069F4D5
:102800001092B9031092B8038091E2039091E30310
:1028100001969093E3038093E203599808952091E1
:102820000F04309110048217930709F072CF6FCF15
:102830008091E103813009F4B3CFEFCF0F931F9361
:102840004130B9F400917703109178032091790316
:1028500030917A03DC01CB01802B912BA22BB32B7F
:102860008093770390937803A0937903B0937A03CE
:102870001AC0009177031091780320917903309169
:102880007A03DC01CB0180959095A095B0958023CB
:102890009123A223B3238093770390937803A0938B
:1028A0007903B0937A035B985C9880917703909159
:1028B0007803A0917903B0917A0397FF02C05A9AE6
:1028C00001C05A985C9A5C98809177039091780344
:1028D000A0917903B0917A0396FF02C05A9A01C081
:1028E0005A985C9A5C988091770390917803A091B4
:1028F0007903B0917A0395FF02C05A9A01C05A98A1
:102900005C9A5C988091770390917803A091790309
:10291000B0917A0394FF02C05A9A01C05A985C9A07
:102920005C988091770390917803A0917903B0919E
:102930007A0393FF02C05A9A01C05A985C9A5C9835
:102940008091770390917803A0917903B0917A03F5
:1029500092FF02C05A9A01C05A985C9A5C98809182
:10296000770390917803A0917903B0917A0391FF56
:1029700002C05A9A01C05A985C9A5C988091770379
:1029800090917803A0917903B0917A0390FF02C0EF
:102990005A9A01C05A985C9A5C98809177039091FA
:1029A0007803A0917903B0917A0387FF02C05A9A05
:1029B00001C05A985C9A5C98809177039091780353
:1029C000A0917903B0917A0386FF02C05A9A01C0A0
:1029D0005A985C9A5C988091770390917803A091C3
:1029E0007903B0917A0385FF02C05A9A01C05A98C0
:1029F0005C9A5C988091770390917803A091790319
:102A0000B0917A0384FF02C05A9A01C05A985C9A26
:102A10005C988091770390917803A0917903B091AD
:102A20007A0383FF02C05A9A01C05A985C9A5C9854
:102A30008091770390917803A0917903B0917A0304
:102A400082FF02C05A9A01C05A985C9A5C988091A1
:102A5000770390917803A0917903B0917A0381FF75
:102A600002C05A9A01C05A985C9A5C988091770388
:102A700090917803A0917903B0917A0380FF02C00E
:102A80005A9A01C05A985C9A5B9A1F910F910895C7
:102A9000CF92DF92EF92FF921D9B40C08091E003A6
:102AA00081113CC080917A05833011F00C943F2055
:102AB00041E060E070E880E090E00E941E148091A8
:102AC0007B058F5F80937B0581E08093E0032FEF90
:102AD00030E782E0215030408040E1F700C0000044
:102AE00060E080EC0E94EC0589E192E00E94C20661
:102AF00080917B058A3028F083E080937A051092DC
:102B00007B0560917B0580E090E00E946F0440E0CF
:102B100060E070E880E090E00E941E141D9913C0F0
:102B20008091E003813079F480917A05833059F403
:102B30001092E0039FEF29EF30E0915020403040A9
:102B4000E1F700C0000080917B05813009F0D5C01D
:102B500060E080E80E94EC058AE292E00E94C206F2
:102B600060E080EC0E94EC058BE392E00E94C206DC
:102B700060E08EEC0E94EC058091000190910101D3
:102B80006AE070E00E949D24CB0161E00E94D906BA
:102B900060E08FEC0E94EC058091000190910101B2
:102BA00064E670E00E949D2461E00E94D9061B99B2
:102BB00035C08091B503811131C041E060E070E81B
:102BC00080E090E00E941E1480910001909101012C
:102BD0000296893291052CF49093010180930001B3
:102BE00004C0109201011092000181E08093B503AE
:102BF0006091000183E090E00E946F048FEF99EFF5
:102C000020E0815090402040E1F700C0000040E00B
:102C100060E070E880E090E00E941E141B9B1AC0E8
:102C20008091B5038130B1F41092B50341E060E0CA
:102C300070E880E090E00E941E148FE39CE9019709
:102C4000F1F700C0000040E060E070E880E090E054
:102C50000E941E141C9935C08091B503811131C0AA
:102C600041E060E070E880E090E00E941E148091F6
:102C700000019091010102972AF090930101809345
:102C8000000106C088E290E090930101809300016A
:102C900081E08093B5036091000183E090E00E94A1
:102CA0006F049FEF29EF30E0915020403040E1F772
:102CB00000C0000040E060E070E880E090E00E942A
:102CC0001E141B9B1AC08091B5038130B1F4109281
:102CD000B50341E060E070E880E090E00E941E14DF
:102CE0008FE39CE90197F1F700C0000040E060E04D
:102CF00070E880E090E00E941E1480917B05823095
:102D000009F0E6C060E080E80E94EC0589E492E00A
:102D10000E94C20660E080EC0E94EC058AE592E029
:102D20000E94C20660E08CEC0E94EC0584E692E012
:102D30000E94C20682E090E00E94770490E09093A7
:102D400005048093040460E08AEC0E94EC05809105
:102D50000404909105046AE070E00E949D24CB0178
:102D600061E00E94D90660E08BEC0E94EC05809146
:102D700004049091050464E670E00E949D2461E0E3
:102D80000E94D9061B9935C08091B503811131C0CD
:102D900041E060E070E880E090E00E941E148091C5
:102DA0000404909105040196853191052CF49093CB
:102DB00005048093040404C01092050410920404D6
:102DC00081E08093B5036091040482E090E00E946A
:102DD0006F049FEF29EF30E0915020403040E1F741
:102DE00000C0000040E060E070E880E090E00E94F9
:102DF0001E141B9B1AC08091B5038130B1F4109250
:102E0000B50341E060E070E880E090E00E941E14AD
:102E10008FE39CE90197F1F700C0000040E060E01B
:102E200070E880E090E00E941E141C9935C08091EB
:102E3000B503811131C041E060E070E880E090E0CE
:102E40000E941E14809104049091050401972AF0B9
:102E5000909305048093040406C084E190E090936D
:102E600005048093040481E08093B5036091040419
:102E700082E090E00E946F049FEF29EF30E09150D4
:102E800020403040E1F700C0000040E060E070E822
:102E900080E090E00E941E141C9B1AC08091B50334
:102EA0008130B1F41092B50341E060E070E880E059
:102EB00090E00E941E148FE39CE90197F1F700C097
:102EC000000040E060E070E880E090E00E941E14A6
:102ED00080917B05833009F0C1C060E080E80E94EA
:102EE000EC0589E692E00E94C20681E00E94E200C1
:102EF000909371038093700360E08DEC0E94EC0569
:102F000080917003909171036AE070E00E949D24AB
:102F1000CB0162E00E94D90660E08FEC0E94EC05D4
:102F2000809170039091710364E670E00E949D248B
:102F300061E00E94D90680917603811108C060E0AB
:102F400080EC0E94EC0589E792E00E94C206809125
:102F50007603813041F460E080EC0E94EC0585E866
:102F600092E00E94C2061B995AC080916B058111A4
:102F700056C041E060E070E880E090E00E941E14DE
:102F800080917603811120C080916B05811140C032
:102F900081E080936B058093760360E080EC0E9473
:102FA000EC0585E892E00E94C2066091760386E017
:102FB00090E00E946F049FEF20E732E091502040A4
:102FC0003040E1F700C0000080917603813001F5C8
:102FD00080916B0581111CC081E080936B0510927C
:102FE000760360E080EC0E94EC0589E792E00E94A5
:102FF000C2066091760386E090E00E946F048FEF36
:1030000090E722E0815090402040E1F700C00000AE
:1030100040E060E070E880E090E00E941E141B9B9E
:103020001DC080916B058130C9F441E060E070E81B
:1030300080E090E00E941E1410926B053FEF80E745
:1030400092E0315080409040E1F700C0000040E045
:1030500060E070E880E090E00E941E1480917B05A3
:10306000843009F0C1C060E080E80E94EC0582E98C
:1030700092E00E94C20682E00E94E20090937403F4
:103080008093730360E08DEC0E94EC0580917303E4
:10309000909174036AE070E00E949D24CB0162E08D
:1030A0000E94D90660E08FEC0E94EC0580917303CA
:1030B0009091740364E670E00E949D2461E00E9498
:1030C000D90680917503811108C060E080EC0E94F0
:1030D000EC0589E792E00E94C20680917503813079
:1030E00041F460E080EC0E94EC0585E892E00E94EB
:1030F000C2061B995AC080916B05811156C041E0F0
:1031000060E070E880E090E00E941E1480917503FA
:10311000811120C080916B05811140C081E08093B6
:103120006B058093750360E080EC0E94EC0585E8F8
:1031300092E00E94C2066091750387E090E00E94D1
:103140006F042FEF30E782E0215030408040E1F7FC
:1031500000C0000080917503813001F580916B05FE
:1031600081111CC081E080936B051092750360E0B3
:1031700080EC0E94EC0589E792E00E94C206609113
:10318000750387E090E00E946F049FEF20E732E034
:10319000915020403040E1F700C0000040E060E086
:1031A00070E880E090E00E941E141B9B1DC080917F
:1031B0006B058130C9F441E060E070E880E090E0A8
:1031C0000E941E1410926B058FEF90E722E0815051
:1031D00090402040E1F700C0000040E060E070E86F
:1031E00080E090E00E941E1480917B05853009F0FC
:1031F000D4C181E190E00E947704682F70E080E004
:1032000090E00E942B266B017C0160931404709364
:103210001504809316049093170420E030E040E7F3
:1032200052E40E947E2518160CF44AC020E030E0DB
:1032300040E251ECC701B6010E94DD2688230CF460
:103240003FC060E080E80E94EC0582EA92E00E94C4
:10325000C20660E080EC0E94EC0583EB92E00E94E5
:10326000C20660E08EEC0E94EC0520E030E040E217
:1032700051E46091140470911504809116049091AA
:1032800017040E9483250E94FC25DC01CB0161E02C
:103290000E94D90660E08FEC0E94EC056091140456
:1032A0007091150480911604909117040E94F525E1
:1032B000CB0164E670E00E949D2461E00E94D90683
:1032C000C0901404D0901504E0901604F0901704F8
:1032D00020E030E040E752E4C701B6010E94DD265D
:1032E000181654F020E030E040E251ECC701B6017E
:1032F0000E947E25882384F460E080E80E94EC052B
:1033000082EC92E00E94C20660E080EC0E94EC0534
:1033100083ED92E00E94C2061B9955C08091B503CF
:10332000811151C041E060E070E880E090E00E94CF
:103330001E1481E08093B50320E030E040E050E4CB
:1033400060911404709115048091160490911704F3
:103350000E9412256B017C0120E030E048E752E436
:103360000E94DD2618164CF0C0921404D092150469
:10337000E0921604F092170408C010921404109200
:1033800015041092160410921704609114047091A1
:10339000150480911604909117040E94FC2581E188
:1033A00090E00E946F043FEF89EF90E03150804041
:1033B0009040E1F700C0000040E060E070E880E08D
:1033C00090E00E941E141B9B23C08091B5038130A6
:1033D00009F058C641E060E070E880E090E00E94AB
:1033E0001E1480910604909107049093E703809344
:1033F000E6031092B5038FE39CE90197F1F700C053
:10340000000040E060E070E880E090E00E941E1460
:103410001B9950C08091B503813009F04BC0E090FA
:103420000604F09007048091E6039091E70397016A
:10343000281B390BC90130937C0320937B03893B04
:103440009B40C4F120E030E040E85FE36091140469
:103450007091150480911604909117040E94122512
:1034600060931404709315048093160490931704CA
:10347000F092E703E092E60320E030E048E752E410
:103480000E94DD26181644F41092140410921504BC
:103490001092160410921704609114047091150490
:1034A00080911604909117040E94FC2581E190E020
:1034B0000E946F041C9955C080916B05811151C009
:1034C00041E060E070E880E090E00E941E1420E09F
:1034D00030E040E85FE3609114047091150480913E
:1034E0001604909117040E9411256B017C0120E0C5
:1034F00030E040E251EC0E947E2588234CF0C092DF
:103500001404D0921504E0921604F092170408C037
:1035100010921404109215041092160410921704BD
:1035200081E080936B056091140470911504809183
:103530001604909117040E94FC2581E190E00E94FE
:103540006F048FEF99EF20E0815090402040E1F729
:1035500000C0000040E060E070E880E090E00E9481
:103560001E141C9B1AC080916B058130B1F441E0A0
:1035700060E070E880E090E00E941E1410926B05FD
:103580008FE39CE90197F1F700C0000040E060E0A4
:1035900070E880E090E00E941E1480917B058630E8
:1035A00009F062C189E090E00E94770490E0909376
:1035B0002E0480932D0420E030E046EC52E460912C
:1035C000D8037091D9038091DA039091DB030E94B4
:1035D0007E2518160CF43FC060E080E80E94EC05E0
:1035E00082EA92E00E94C20660E080EC0E94EC0554
:1035F00084EE92E00E94C20660E08EEC0E94EC0530
:1036000020E030E040E251E46091D8037091D903AA
:103610008091DA039091DB030E9483250E94FC25B0
:10362000DC01CB0161E00E94D90660E08FEC0E94D2
:10363000EC056091D8037091D9038091DA039091E1
:10364000DB030E94F525CB0164E670E00E949D2417
:1036500061E00E94D90620E030E046EC52E460913F
:10366000D8037091D9038091DA039091DB030E9413
:10367000DD26181684F460E080E80E94EC0582ECF8
:1036800092E00E94C20660E080EC0E94EC0583EFAD
:1036900092E00E94C2061B9955C08091B50381112A
:1036A00051C041E060E070E880E090E00E941E14AC
:1036B00020E030E040E050E46091D8037091D903FD
:1036C0008091DA039091DB030E9412256B017C014B
:1036D00020E030E048EC52E40E94DD2618164CF061
:1036E000C092D803D092D903E092DA03F092DB03C0
:1036F00008C01092D8031092D9031092DA031092E6
:10370000DB0381E08093B5036091D8037091D90306
:103710008091DA039091DB030E94FC2582E190E026
:103720000E946F049FEF29EF30E09150204030401D
:10373000E1F700C0000040E060E070E880E090E069
:103740000E941E141B9B1AC08091B5038130B1F4F6
:103750001092B50341E060E070E880E090E00E94E4
:103760001E148FE39CE90197F1F700C0000040E0D0
:1037700060E070E880E090E00E941E141C9958C040
:1037800080916B05811154C041E060E070E880E0F9
:1037900090E00E941E1420E030E040E85FE360917A
:1037A000D8037091D9038091DA039091DB030E94D2
:1037B00011256B017C0120E030E0A9010E947E25EB
:1037C00088234CF0C092D803D092D903E092DA0358
:1037D000F092DB030CC080E090E0A8ECB2E48093B0
:1037E000D8039093D903A093DA03B093DB0381E06D
:1037F00080936B056091D8037091D9038091DA03AF
:103800009091DB030E94FC2582E190E00E946F040E
:103810009FEF29EF30E0915020403040E1F700C0A9
:10382000000040E060E070E880E090E00E941E143C
:103830001C9B1AC080916B058130B1F441E060E0BF
:1038400070E880E090E00E941E1410926B058FE3F8
:103850009CE90197F1F700C0000040E060E070E8EB
:1038600080E090E00E941E1480917B05873009F073
:103870007CC1C0901404D0901504E0901604F09020
:10388000170420E030E044E752E4C701B6010E948B
:10389000DD2688231CF088E080937B0520E030E063
:1038A00040EB50E46091670570916805809169056F
:1038B00090916A050E947E251816CCF120E030E038
:1038C00044E752E4C701B6010E947E2588237CF5B7
:1038D00060E080E80E94EC0582EA92E00E94C20665
:1038E00060E080EC0E94EC0580916A058F938091E6
:1038F00069058F93809168058F93809167058F93F9
:1039000084E093E09F938F9388E993E09F938F9354
:103910000E94792888E993E00E94C2062DB73EB73D
:10392000285F3F4F0FB6F8943EBF0FBE2DBF20E07B
:1039300030E040EB50E4609167057091680580913C
:10394000690590916A050E94DD26181644F41092CC
:103950006705109268051092690510926A051B9917
:1039600074C08091B503811170C041E060E070E8DF
:1039700080E090E00E941E142DEC3CEC4CEC5DE3EA
:1039800060916705709168058091690590916A055D
:103990000E9412256B017C0120E030E040EB50E4F6
:1039A0000E94DD2618164CF0C0926705D09268057B
:1039B000E0926905F0926A0508C0109267051092BE
:1039C00068051092690510926A0581E08093B5033D
:1039D00060916705709168058091690590916A050D
:1039E0000E94F525262F6093760570937705862F24
:1039F000972F880F991FAC01440F551F440F551F77
:103A0000840F951F6AE070E00E949D2490938903C3
:103A100080938803622F83E190E00E946F0460919D
:103A2000880384E190E00E946F043FEF89EF90E00B
:103A3000315080409040E1F700C0000040E060E07D
:103A400070E880E090E00E941E141B9B1AC08091D9
:103A5000B5038130B1F41092B50341E060E070E845
:103A600080E090E00E941E148FE39CE90197F1F73B
:103A700000C0000040E060E070E880E090E00E945C
:103A80001E141C9956C080916B05811152C041E0F3
:103A900060E070E880E090E00E941E142DEC3CECA9
:103AA0004CEC5DE360916705709168058091690554
:103AB00090916A050E9411256B017C0120E030E0A5
:103AC000A9010E947E2588234CF0C0926705D09200
:103AD0006805E0926905F0926A050CC083E393E300
:103AE000A3EBB0E48093670590936805A093690504
:103AF000B0936A0581E080936B056091760583E160
:103B000090E00E946F046091880384E190E00E943D
:103B10006F049FEF29EF30E0915020403040E1F7F3
:103B200000C0000040E060E070E880E090E00E94AB
:103B30001E141C9B1AC080916B058130B1F441E0CA
:103B400060E070E880E090E00E941E1410926B0527
:103B50008FE39CE90197F1F700C0000040E060E0CE
:103B600070E880E090E00E941E1480917B05883010
:103B700009F07CC1C090D803D090D903E090DA035B
:103B8000F090DB0320E030E048EC52E4C701B601DE
:103B90000E94DD2688231CF089E080937B0520E0CD
:103BA00030E040E251E460918A0370918B03809190
:103BB0008C0390918D030E947E251816CCF120E095
:103BC00030E048EC52E4C701B6010E947E2588230C
:103BD0007CF560E080E80E94EC0582EA92E00E94B9
:103BE000C20660E080EC0E94EC0580918D038F930B
:103BF00080918C038F9380918B038F9380918A03A4
:103C00008F9389E193E09F938F9388E993E09F934B
:103C10008F930E94792888E993E00E94C2062DB70D
:103C20003EB7285F3F4F0FB6F8943EBF0FBE2DBF83
:103C300020E030E040E251E460918A0370918B0310
:103C400080918C0390918D030E94DD26181644F418
:103C500010928A0310928B0310928C0310928D03A2
:103C60001B9974C08091B503811170C041E060E080
:103C700070E880E090E00E941E1420E030E040E018
:103C80005FE360918A0370918B0380918C03909124
:103C90008D030E9412256B017C0120E030E040E2A0
:103CA00051E40E94DD2618164CF0C0928A03D0928F
:103CB0008B03E0928C03F0928D0308C010928A036C
:103CC00010928B0310928C0310928D0381E08093ED
:103CD000B50360918A0370918B0380918C0390915E
:103CE0008D030E94F525262F6093D6037093D7038A
:103CF000862F972F880F991FAC01440F551F440F33
:103D0000551F840F951F6AE070E00E949D249093D8
:103D1000AB038093AA03622F85E190E00E946F04B9
:103D20006091AA0386E190E00E946F043FEF89EF63
:103D300090E0315080409040E1F700C0000040E04A
:103D400060E070E880E090E00E941E141B9B1AC0A7
:103D50008091B5038130B1F41092B50341E060E089
:103D600070E880E090E00E941E148FE39CE90197C8
:103D7000F1F700C0000040E060E070E880E090E013
:103D80000E941E141C9956C080916B05811152C06F
:103D900041E060E070E880E090E00E941E1420E0C6
:103DA00030E040E05FE360918A0370918B03809183
:103DB0008C0390918D030E9411256B017C0120E002
:103DC00030E0A9010E947E2588234CF0C0928A032E
:103DD000D0928B03E0928C03F0928D030CC080E0B4
:103DE00090E0A0E2B1E480938A0390938B03A093C8
:103DF0008C03B0938D0381E080936B056091D603B3
:103E000085E190E00E946F046091AA0386E190E052
:103E10000E946F049FEF29EF30E091502040304026
:103E2000E1F700C0000040E060E070E880E090E072
:103E30000E941E141C9B1AC080916B058130B1F446
:103E400041E060E070E880E090E00E941E14109273
:103E50006B058FE39CE90197F1F700C0000040E09B
:103E600060E070E880E090E00E941E1480917B0585
:103E7000893009F009C180910F04909110048038B5
:103E800091057CF560E080E80E94EC058CE293E00F
:103E90000E94C20660E080EC0E94EC058DE192E099
:103EA0000E94C20660E08CEC0E94EC0580910F0439
:103EB000909110046AE070E00E949D24CB0162E0C2
:103EC0000E94D90660E08EEC0E94EC0580910F0400
:103ED0009091100464E670E00E949D2461E00E94CD
:103EE000D90680910F04909110048038910581F4D7
:103EF00060E080E80E94EC058DE393E00E94C2063A
:103F000060E080EC0E94EC058EE493E00E94C20623
:103F10001B993DC08091B503811139C041E060E03B
:103F200070E880E090E00E941E1480910F04909150
:103F3000100401969093100480930F04813891052A
:103F40002CF01092100410920F0408C0992334F43E
:103F50008FE790E09093100480930F0481E08093AA
:103F6000B50360910F0480E190E00E946F049FEF21
:103F700029EF30E0915020403040E1F700C00000D0
:103F800040E060E070E880E090E00E941E141B9B1F
:103F90001AC08091B5038130B1F41092B50341E0AD
:103FA00060E070E880E090E00E941E148FE39CE9DE
:103FB0000197F1F700C0000040E060E070E880E0A9
:103FC00090E00E941E141C993DC08091B5038111A0
:103FD00039C041E060E070E880E090E00E941E148B
:103FE00080910F0490911004019790931004809396
:103FF0000F04813891052CF01092100410920F04D8
:1040000008C0992334F48FE790E0909310048093D4
:104010000F0481E08093B50360910F0480E190E08C
:104020000E946F049FEF29EF30E091502040304014
:10403000E1F700C0000040E060E070E880E090E060
:104040000E941E141C9B20C08091B5038130E1F4B6
:104050001092B50341E060E070E880E090E00E94DB
:104060001E148FE39CE90197F1F700C0000040E0C7
:1040700060E070E880E090E00E941E1405C083B10B
:104080000C94A31583B116CAFF90EF90DF90CF90E8
:1040900008950F931F93CF93DF9360E080EC0E940D
:1040A000EC058FE593E00E94C206609124047091B4
:1040B00025047250072E000C880B990B0E942D26A8
:1040C0002EEE34E045EB5FE30E94832521EE3AE7D4
:1040D00044E95FE30E94E2260E94F525709375058E
:1040E0006093740560E081EC0E94EC05809174059A
:1040F000909175050AE010E0B8010E949D24CB0163
:1041000062E00E94D90660E083EC0E94EC05809199
:10411000740590917505C4E6D0E0BE010E949D240F
:1041200061E00E94D9060E94F80060E084EC0E94E1
:10413000EC0581E693E00E94C2066091B3037091A2
:10414000B4037250072E000C880B990B0E942D2689
:104150002EEE34E045EB5FE30E94832521EE3AE743
:1041600044E95FE30E94E2260E94F5257093E5038F
:104170006093E40360E087EC0E94EC058091E40327
:104180009091E503B8010E949D24CB0162E00E945A
:10419000D90660E089EC0E94EC058091E4039091DF
:1041A000E503BE010E949D2461E00E94D9060E94A1
:1041B000F80060E08AEC0E94EC0585E693E00E943E
:1041C000C20660911104709112047250072E000C07
:1041D000880B990B0E942D262EEE34E045EB5FE311
:1041E0000E94832521EE3AE744E95FE30E94E2263C
:1041F0000E94F5257093A9036093A80360E08DECFD
:104200000E94EC058091A8039091A903B8010E9437
:104210009D24CB0162E00E94D90660E08FEC0E94F1
:10422000EC058091A8039091A903BE010E949D24F2
:1042300061E00E94D906DF91CF911F910F910895FF
:10424000A0E1B0E0E6E2F1E20C94C6247C011B019F
:104250006A01FC0117821682838181FF44C39E019B
:104260002F5F3F4F3901F7019381F10193FD859154
:1042700093FF81911F01882309F431C3853239F4FA
:1042800093FD859193FF81911F01853239F4B70128
:1042900090E00E943D2856016501E5CF10E0512CC9
:1042A000912CFFE1F915D8F08B3279F038F4803297
:1042B00079F08332A1F4F92DF0612EC08D3261F0D6
:1042C000803369F4292D21602DC0392D3260932E61
:1042D000892D8460982E2AC0E92DE86015C097FCCE
:1042E0002DC020ED280F2A3088F496FE06C03AE053
:1042F000139F200D1124122F19C08AE0589E200D03
:104300001124522EE92DE0629E2E10C08E3231F41F
:1043100096FCE5C2F92DF0649F2E08C08C3621F47E
:10432000292D2068922E02C0883641F4F10193FDB8
:10433000859193FF81911F018111B3CF9BEB980F62
:10434000933020F4992D9061805E07C09BE9980F0F
:10435000933008F066C1992D9F7E96FF16E09F73FB
:10436000992E853619F49064992E08C0863621F46A
:10437000392F3068932E02C01111115097FE07C0DB
:104380001C3350F444244394410E27E00BC01830F2
:1043900038F027E017E005C027E09CE3492E02C073
:1043A000212F412C560184E0A80EB11CF60160813A
:1043B000718182819381042DA3010E944F276C019A
:1043C000F981FC87F0FF02C0F3FF06C091FC06C034
:1043D00092FE06C000E205C00DE203C00BE201C080
:1043E00000E08C858C7019F001115AC29BC297FEB7
:1043F00010C04C0CFC85F4FF04C08A81813309F4A1
:104400004A94141474F528E0241578F588E0482EB1
:104410002CC096FC2AC0812F90E08C159D059CF045
:104420003CEFC3163FEFD30674F0892D8068982EB9
:104430000AC0E2E0F0E0EC0FFD1FE10FF11D80810A
:10444000803319F411501111F4CF97FE0EC044249B
:104450004394410E812F90E0C816D9062CF41C1904
:1044600004C04424439401C010E097FE06C01C140D
:104470001D0434F4C601019605C085E090E002C039
:1044800081E090E001110196112331F0212F30E0FD
:104490002F5F3F4F820F931F252D30E08217930728
:1044A00014F4581A01C0512C892D897049F45520F3
:1044B00039F0B70180E290E00E943D285A94F7CF8E
:1044C000002329F0B701802F90E00E943D2893FC43
:1044D00009C0552039F0B70180E390E00E943D28E3
:1044E0005A94F7CF97FE4CC04601D7FE02C0812CEC
:1044F000912CC60188199909F301E80FF91FFE876D
:10450000ED87960124193109388B2F87012F10E090
:104510001195019511093FEF8316930629F4B70110
:104520008EE290E00E943D28C814D9044CF08F859B
:1045300098898815990524F4ED85FE85818101C04F
:1045400080E3F1E08F1A91082D853E852F5F3F4F64
:104550003E872D87801691062CF0B70190E00E94CF
:104560003D28D9CFC814D90441F49A81963320F458
:10457000953319F43C8534FF81E3B70190E04EC0D8
:104580008A81813319F09C859F7E9C87B70190E0DA
:104590000E943D28111105C094FC18C085E690E0EA
:1045A00017C0B7018EE290E00E943D281E5F82E0B6
:1045B00001E0080FF301E80FF11D8081B70190E0E1
:1045C0000E943D28802F0113F3CFE6CF85E490E0D1
:1045D000B7010E943D28D7FC06C0C114D10441F4A4
:1045E000EC85E4FF05C0D194C194D1088DE201C0EF
:1045F0008BE2B70190E00E943D2880E32AE0C216DA
:10460000D1042CF08F5FFAE0CF1AD108F7CFB701B1
:1046100090E00E943D28B701C601C0960E943D2847
:1046200054C1833631F0833779F0833509F056C0B1
:1046300020C0560132E0A30EB11CF60180818983AF
:1046400001E010E0630112C05601F2E0AF0EB11CB0
:10465000F601C080D18096FE03C0612F70E002C0D9
:104660006FEF7FEFC6010E9432288C01F92DFF7792
:1046700014C0560122E0A20EB11CF601C080D18008
:1046800096FE03C0612F70E002C06FEF7FEFC6019E
:104690000E9427288C01F92DF0689F2EF3FD1AC087
:1046A000852D90E008171907A8F4B70180E290E083
:1046B0000E943D285A94F4CFF60197FC859197FE0D
:1046C00081916F01B70190E00E943D2851105A94EA
:1046D000015011090115110579F7F7C0843611F061
:1046E000893661F5560197FE09C024E0A20EB11C7F
:1046F000F60160817181828193810AC0F2E0AF0E80
:10470000B11CF60160817181072E000C880B990B9A
:10471000F92DFF769F2E97FF09C090958095709593
:1047200061957F4F8F4F9F4FF0689F2E2AE030E0BA
:10473000A3010E949B28C82EC6183FC0092D8537AB
:1047400021F40F7E2AE030E01DC0097F8F3691F002
:1047500018F4883559F0C3C0803719F0883711F044
:10476000BEC0006104FF09C0046007C094FE08C019
:10477000066006C028E030E005C020E130E002C05D
:1047800020E132E0560107FF09C084E0A80EB11C09
:10479000F601608171818281938108C0F2E0AF0EE1
:1047A000B11CF6016081718180E090E0A3010E945C
:1047B0009B28C82EC6180F77902E96FE0BC0092D89
:1047C0000E7FC11650F494FE0AC092FC08C0092D59
:1047D0000E7E05C0DC2C092D03C0DC2C01C0D12EBF
:1047E00004FF0DC0FE01EC0DF11D8081803311F43A
:1047F000097E09C002FF06C0D394D39404C0802F61
:10480000867809F0D39403FD11C000FF06C01C2D6B
:10481000D51480F4150D1D190DC0D51458F4B70129
:1048200080E290E00E943D28D394F7CFD51410F495
:104830005D1801C0512C04FF10C0B70180E390E067
:104840000E943D2802FF17C001FD03C088E790E0E9
:1048500002C088E590E0B7010CC0802F867859F03F
:1048600001FF02C08BE201C080E207FD8DE2B701CB
:1048700090E00E943D28C11638F4B70180E390E033
:104880000E943D281150F7CFCA94F301EC0DF11DA1
:104890008081B70190E00E943D28C110F5CF15C07E
:1048A000F4E0F51560F584E0581A93FE1FC001117D
:1048B00027C02C8523FF2AC004E810E0392D307171
:1048C000932EF8018491811124C0552009F4E4CC81
:1048D000B70180E290E00E943D285A94F6CFF7019C
:1048E0008681978126C08FEF9FEF23C0B70180E2BA
:1048F00090E00E943D285A945110F8CFD8CF512C07
:10490000B701802F90E00E943D28D3CF08E810E047
:10491000D5CF91108052B70190E00E943D280F5FE3
:104920001F4FCFCF23E0251510F483E0BDCF512CCE
:10493000C0CF6096E2E10C94E22497FB072E16F4B8
:10494000009407D077FD09D00E94FD2407FC05D014
:104950003EF4909581959F4F0895709561957F4F96
:104960000895EE0FFF1F0590F491E02D0994A29F8A
:10497000B001B39FC001A39F700D811D1124911D33
:10498000B29F700D811D1124911D08952F923F92A9
:104990004F925F926F927F928F929F92AF92BF924F
:1049A000CF92DF92EF92FF920F931F93CF93DF93FB
:1049B000CDB7DEB7CA1BDB0B0FB6F894DEBF0FBE58
:1049C000CDBF09942A88398848885F846E847D84A5
:1049D0008C849B84AA84B984C884DF80EE80FD80A7
:1049E0000C811B81AA81B981CE0FD11D0FB6F8941D
:1049F000DEBF0FBECDBFED010895AA1BBB1B51E169
:104A000007C0AA1FBB1FA617B70710F0A61BB70B3E
:104A1000881F991F5A95A9F780959095BC01CD01E3
:104A200008955058BB27AA270E9429250C94A32635
:104A30000E94952638F00E949C2620F039F49F3F72
:104A400019F426F40C9492260EF4E095E7FB0C94EE
:104A50008C26E92F0E94B42658F3BA176207730711
:104A60008407950720F079F4A6F50C94D6260EF469
:104A7000E0950B2EBA2FA02D0B01B90190010C016E
:104A8000CA01A0011124FF27591B99F0593F50F486
:104A9000503E68F11A16F040A22F232F342F4427DE
:104AA000585FF3CF469537952795A795F0405395D6
:104AB000C9F77EF41F16BA0B620B730B840BBAF0A6
:104AC0009150A1F0FF0FBB1F661F771F881FC2F711
:104AD0000EC0BA0F621F731F841F48F48795779525
:104AE0006795B795F7959E3F08F0B0CF9395880FDF
:104AF00008F09927EE0F9795879508950E946826EC
:104B000008F481E008950E9497250C94A3260E9442
:104B10009C2658F00E94952640F029F45F3F29F02A
:104B20000C948C2651110C94D7260C9492260E943A
:104B3000B42668F39923B1F3552391F3951B550BD4
:104B4000BB27AA2762177307840738F09F5F5F4F60
:104B5000220F331F441FAA1FA9F335D00E2E3AF09F
:104B6000E0E832D091505040E695001CCAF72BD0B7
:104B7000FE2F29D0660F771F881FBB1F2617370708
:104B80004807AB07B0E809F0BB0B802DBF01FF273A
:104B900093585F4F3AF09E3F510578F00C948C2665
:104BA0000C94D7265F3FE4F3983ED4F3869577952F
:104BB0006795B795F7959F5FC9F7880F911D9695F3
:104BC000879597F90895E1E0660F771F881FBB1F4F
:104BD000621773078407BA0720F0621B730B840BFC
:104BE000BA0BEE1F88F7E09508950E94FC256894A3
:104BF000B1110C94D72608950E94BC2688F09F57C7
:104C000098F0B92F9927B751B0F0E1F0660F771FF0
:104C1000881F991F1AF0BA95C9F714C0B13091F0E6
:104C20000E94D626B1E008950C94D626672F782FDF
:104C30008827B85F39F0B93FCCF3869577956795AB
:104C4000B395D9F73EF490958095709561957F4F17
:104C50008F4F9F4F0895E89409C097FB3EF49095BD
:104C60008095709561957F4F8F4F9F4F9923A9F045
:104C7000F92F96E9BB279395F695879577956795D4
:104C8000B795F111F8CFFAF4BB0F11F460FF1BC018
:104C90006F5F7F4F8F4F9F4F16C0882311F096E9AB
:104CA00011C0772321F09EE8872F762F05C0662359
:104CB00071F096E8862F70E060E02AF09A95660F12
:104CC000771F881FDAF7880F9695879597F90895CB
:104CD000990F0008550FAA0BE0E8FEEF161617060D
:104CE000E807F907C0F012161306E407F50798F075
:104CF000621B730B840B950B39F40A2661F0232B8E
:104D0000242B252B21F408950A2609F4A140A69509
:104D10008FEF811D811D089597F99F6780E870E0EE
:104D200060E008959FEF80EC089500240A94161621
:104D3000170618060906089500240A941216130689
:104D4000140605060895092E0394000C11F4882317
:104D500052F0BB0F40F4BF2B11F460FF04C06F5F33
:104D60007F4F8F4F9F4F089557FD9058440F551F09
:104D700059F05F3F71F04795880F97FB991F61F0DD
:104D80009F3F79F087950895121613061406551F54
:104D9000F2CF4695F1DF08C0161617061806991FC0
:104DA000F1CF86957105610508940895E894BB27B5
:104DB00066277727CB0197F908950E94682608F4A3
:104DC0008FEF08950E94F5260C94A3260E94952645
:104DD00038F00E949C2620F0952311F00C948C262C
:104DE0000C94922611240C94D7260E94B42670F3BA
:104DF000959FC1F3950F50E0551F629FF001729F80
:104E0000BB27F00DB11D639FAA27F00DB11DAA1F8E
:104E1000649F6627B00DA11D661F829F2227B00DDB
:104E2000A11D621F739FB00DA11D621F839FA00D66
:104E3000611D221F749F3327A00D611D231F849FB6
:104E4000600D211D822F762F6A2F11249F5750400D
:104E50009AF0F1F088234AF0EE0FFF1FBB1F661F88
:104E6000771F881F91505040A9F79E3F510580F051
:104E70000C948C260C94D7265F3FE4F3983ED4F331
:104E8000869577956795B795F795E7959F5FC1F7F5
:104E9000FE2B880F911D9695879597F908952830D8
:104EA00008F027E03327DA01990F311D87FD916063
:104EB00000966105710539F432602E5F3D9330E351
:104EC0002A95E1F708959F3F30F08038710561051C
:104ED00009F03C5F3C5F3D93913008F08068911D84
:104EE000DF93CF931F930F93FF92EF92192F987F29
:104EF0009695E92F96959695E90FFF27EA51FF4F72
:104F000099273327EE24FF24A701E7010590089491
:104F1000079428F4360FE71EF81E491F511D660F2F
:104F2000771F881F991F0694A1F70590079428F40E
:104F3000E70EF81E491F561FC11D770F881F991FC6
:104F4000661F0694A1F70590079428F4F80E491FF0
:104F5000561FC71FD11D880F991F661F771F069404
:104F6000A1F70590079420F4490F561FC71FD81FBB
:104F7000990F661F771F881F0694A9F784911095D3
:104F8000177041F0D695C79557954795F794E794D4
:104F90001A95C1F7ECE8F0E06894159015913591F9
:104FA0006591959105907FE27395E118F10A430BA5
:104FB000560BC90BD009C0F7E10CF11E431F561F59
:104FC000C91FD01D7EF4703311F48A95E6CFE894A2
:104FD000015030F0080F0AF40027021708F4202FC0
:104FE0002395022F7A3328F079E37D932A95E9F708
:104FF00010C07D932A9589F6069497956795379505
:1050000017951794E118F10A430B560BC90BD009F9
:1050100098F023957E9173957A3308F070E37C9332
:105020002013B8F77E9170617D9330F0839571E322
:105030007D9370E32A95E1F71124EF90FF900F9193
:105040001F91CF91DF91992787FD90950895FC01DD
:105050000590615070400110D8F7809590958E0FA3
:105060009F1F0895FC016150704001900110D8F716
:10507000809590958E0F9F1F08950F931F93CF9348
:10508000DF93FB01238121FD03C08FEF9FEF2CC035
:1050900022FF16C04681578124813581421753076C
:1050A00044F4A081B1819D012F5F3F4F3183208364
:1050B0008C93268137812F5F3F4F3783268314C01F
:1050C0008B01EC01FB010084F185E02D0995892B12
:1050D000E1F6D80116968D919C9117970196179637
:1050E0009C938E931697CE01DF91CF911F910F91D4
:1050F0000895AEE0B0E0EFE7F8E20C94D4240D8917
:105100001E8986E08C831A8309838FEF9FE79E8335
:105110008D83AE01475E5F4F6F89788DCE0101961A
:105120000E942021EF81F885E00FF11F10822E965A
:10513000E4E00C94F024FA01AA27283051F1203140
:1051400081F1E8946F936E7F6E5F7F4F8F4F9F4F1B
:10515000AF4FB1E03ED0B4E03CD0670F781F891F5D
:105160009A1FA11D680F791F8A1F911DA11D6A0F2B
:10517000711D811D911DA11D20D009F468943F91DE
:105180002AE0269F11243019305D3193DEF6CF01DD
:105190000895462F4770405D4193B3E00FD0C9F7A3
:1051A000F6CF462F4F70405D4A3318F0495D31FD10
:1051B0004052419302D0A9F7EACFB4E0A695979563
:1051C000879577956795BA95C9F700976105710539
:1051D00008959B01AC010A2E069457954795379583
:1051E0002795BA95C9F7620F731F841F951FA01DDD
:0651F0000895F894FFCFC2
:1051F60005005061B26FBF6120B365BDBF2D706100
:105206002020004142544F2020205045A3A54D2088
:1052160020202000A87963BA20A441A85045E2A224
:105226004820202000546D70252E3166432F486D8E
:10523600252E31662525202000A8B8BF61BDB8659A
:1052460020424BA7B0AB45484F00A461BE7963BA74
:10525600204F544BA7B0ABA248202020202000505E
:1052660079C0BD6FB9205045A3A54D202020200050
:105276005079C0BD6FB920A8A9434B20B365BDBF07
:10528600002143B8B4BD61BB20A84FA341505F21A4
:10529600200041B36170B8C720BEB8BF61BDB8C7B2
:1052A60020200041B36170B8C720B3786FE3612056
:1052B600414C200041B36170B8C720B3786FE361F9
:1052C600205053200041B36170B8C72033383042B4
:1052D60020202020200041B36170B8C720BBB8BD94
:1052E600B8B820444854005065B365706320E46143
:1052F600B720333830422000413F61703F3F20BB2A
:105306003F3F3F3F204448540020202020202020BB
:10531600202020202020202020004FBFBABB6FBDB8
:1053260065BDB8652020202020200061BCBEBBB82A
:10533600BF79E32C422B2F2D00427065BCC720B3EA
:10534600C3786FE3612020202000BD61207065B620
:10535600B8BC2C006365BA2E0054B8BE20E361BF0A
:10536600C0B8BA61202D5053002D4E4F2D6FBFBAD5
:1053760070C3BF2D002D4E432DB761BCBABD79BF9A
:105386002D0054B8BE20E361BFC0B8BA61202D41DC
:105396004C004D61BA63B8BC61BBC4BD61C7202077
:1053A600202000BF65BC2D70612C432020202020CA
:1053B60020004B6FBDBF706FBBC420202020202073
:1053C600202000BF65BCBE2D70C320202020204FAA
:1053D600544BA700B3BB61B6BD6F63BFC42020208A
:1053E600202500B3BB61B6BD6F63BFB82020204F38
:1053F600544BA700546D702B2F2D202020252E31C5
:10540600664320202020202000486D2B2F2D2020B1
:10541600252E3166252520202020200053797374FF
:10542600656D5F616472657320202020004164729F
:105436006573732064697361626C652020002020A7
:105446002020202020204F544BA72020202000552C
:0A545600005F5F56005F5F57000023
:00000001FF
