:100000000C94BC000C94D9000C94D9000C94D90029
:100010000C94D9000C94D9000C94D9000C94460887
:100020000C94D9000C94D9000C94D9000C9473084A
:100030000C94D9000C94D9000C94D9000C94D900DC
:100040000C94D9000C94D9000C94D9000C94D900CC
:100050000C94D9000C94D9000C94D9000C94D900BC
:100060000C94D9000C94D900B60BC10BCC0BD70B58
:10007000E20BED0BF80B6E616E00696E66000040DE
:100080007A10F35A00A0724E18090010A5D4E800A7
:1000900000E87648170000E40B54020000CA9A3BBF
:1000A000000000E1F5050000809698000000404245
:1000B0000F000000A08601000000102700000000D3
:1000C000E803000000006400000000000A000000D7
:1000D00000000100000000002C76D888DC674F0883
:1000E00023DFC1DFAE59E1B1B796E5E3E453C63A89
:1000F000E651997696E8E6C28426EB898C9B62ED00
:10010000407C6FFCEFBC9C9F40F2BAA56FA5F490B9
:10011000055A2AF75C936B6CF9676DC11BFCE0E430
:100120000D47FEF520E6B500D0ED902E0300943586
:1001300077050080841E080000204E0A000000C8D9
:100140000C333333330F986E12831141EF8D21142A
:10015000893BE65516CFFEE6DB18D1844B381BF7FA
:100160007C1D901DA4BBE424203284725E22810099
:10017000C9F124ECA1E53D2711241FBECFEFD8E043
:10018000DEBFCDBF13E0A0E0B1E0E2E2FFE302C0DA
:1001900005900D92AE34B107D9F725E0AEE4B3E097
:1001A00001C01D92A034B207E1F70E948A080C94A6
:1001B0008F1F0C94000080937C00EAE7F0E08081C0
:1001C00080648083808186FDFDCFE8E7F0E0808158
:1001D0002091790090E0922B91838083808191819E
:1001E00008950F931F93CF93DF931092EF03109214
:1001F000EE0310928B0310928A031092E103109287
:10020000E003C5E9D0E000E012E083E00E94DB00FB
:1002100090933305809332052091EE033091EF03E4
:10022000821793076CF0811522E092072CF09093CF
:10023000EF038093EE0304C01093EF030093EE03EB
:1002400087E00E94DB0090936E0380936D03209102
:100250008A0330918B03821793076CF0811522E09B
:1002600092072CF090938B0380938A0304C0109321
:100270008B0300938A0386E00E94DB0090938E0339
:1002800080938D032091E0033091E103821793075F
:100290006CF0811522E092072CF09093E10380939B
:1002A000E00304C01093E1030093E003219709F0F9
:1002B000ACCF8091EE039091EF03DF91CF911F912E
:1002C0000F9108950F931F93CF93DF9341E060E068
:1002D00071E080E090E00E94DE100E94810B80912E
:1002E0005403811122C08091D7038111D7C080911E
:1002F0005103823008F0AEC01092510360E080E8F4
:100300000E94500582E091E00E9426061092CA03E6
:1003100040E060E870E080E090E00E94DE10109223
:10032000D6031092D50310924F038091540382306C
:1003300029F08091D703823009F08CC081E080934E
:100340004F0341E060E870E080E090E00E94DE1042
:10035000C091D303D091D4030091D5031091D6035B
:1003600090915103913089F441E060E074E080E0C5
:1003700090E00E94DE1060E080E80E94500583E17A
:1003800091E00E9426061092CA034091D503509135
:10039000D6032091D3033091D4034217530794F529
:1003A00080915103811156C0C01BD10B60E080E8E1
:1003B0000E94500584E291E00E94260660E08DE8EC
:1003C0000E945005CE016AE070E00E94611BCB01E3
:1003D00062E00E943D0660E08FE80E945005CE0179
:1003E00064E670E00E94611B61E00E943D0620917E
:1003F000D5033091D6038091D3039091D40328176D
:10040000390744F180915103811116C060E080E802
:100410000E94500582E391E00E94260681E08093CD
:10042000CA032091D5033091D6038091D3039091D4
:10043000D4032817390774F080915103823038F1C2
:1004400060E080E80E94500583E491E00E94260667
:100450001092CA03809154038130C9F480915103F2
:100460008230A8F060E080E80E94500582E091E0D0
:100470000E94260640E060E870E080E090E00E9484
:10048000DE101092D6031092D50310924F038FE323
:100490009CE90197F1F700C0000005C08091D703E7
:1004A0008230A9F74BCFDF91CF911F910F91089523
:1004B000CF93DF93579A5F982FEF80EE90E0215013
:1004C00080409040E1F700C000005F9A579887ECA9
:1004D00090E00197F1F700C000004F9935C08FE31D
:1004E00091E00197F1F700C000004F9B30C0809170
:1004F0002F05809336054F99FECFABECB3E0C0EDEE
:10050000D3E061E070E0FD011C9287E090E04F9B3A
:10051000FECF2AE82A95F1F700C04F9B0AC0408120
:100520009B01082E02C0220F331F0A94E2F7242BEE
:1005300020834F99FECF019750F71196CA17DB071A
:1005400011F781E090E005C080E090E002C080E01B
:1005500090E0DF91CF9108958F929F92AF92BF92DA
:10056000DF92EF92FF920F931F93CF93DF9310923E
:100570005D030E94580280935D03813009F08AC0B8
:100580001092AE031092AD03EBECF3E06081C62F46
:10059000D0E06181062F10E0D2806381E62EF12C3D
:1005A000CE01800F911F8D0D911D8E0D9F1D90937B
:1005B000E9038093E8036D2D6F7770E080E090E0B1
:1005C0000E94EC1C2DEC3CEC4CEC51E40E94781D9C
:1005D0004B015C01B701FF0C880B990B0E94EC1CCE
:1005E0002DEC3CEC4CEC5DE30E94781D9B01AC01D2
:1005F000C501B4010E94D61B4B015C016093BB0393
:100600007093BC038093BD039093BE030E94B41CFF
:1006100070935F0360935E03DD209CF4B7FAB0949F
:10062000B7F8B0948092BB039092BC03A092BD0334
:10063000B092BE0371956195710970935F036093E9
:100640005E03B801110F880B990B0E94EC1C2DEC76
:100650003CEC4CEC5DE30E94781D4B015C01BE015B
:10066000DD0F880B990B0E94EC1C2DEC3CEC4CEC44
:1006700051E40E94781D9B01AC01C501B4010E94A8
:10068000D61B6093B7037093B8038093B90390931C
:10069000BA0318C0811109C08091AD039091AE03D7
:1006A00001969093AE038093AD038091AD0390913A
:1006B000AE038536910534F084E690E09093AE0366
:1006C0008093AD0310923705DF91CF911F910F9169
:1006D000FF90EF90DF90BF90AF909F908F90089524
:1006E0000E94AC0260E080EC0E9450058091BA0349
:1006F0008F938091B9038F938091B8038F938091EA
:10070000B7038F938091BE038F938091BD038F9326
:100710008091BC038F938091BB038F9384E591E01C
:100720009F938F9381E793E09F938F930E940F1F76
:1007300081E793E00E9426068DB79EB70C960FB610
:10074000F8949EBF0FBE8DBF0895F999FECF92BD5C
:1007500081BD60BDFA9AF99A0895F999FECF92BDCC
:1007600081BDF89A80B5089580E00E94DB009093E7
:100770005603809355038E5492408F36910570F442
:1007800080915703813051F482E08093540341E01B
:1007900060E072E080E090E00E94DE1080915503FE
:1007A00090915603805991408D3B910508F047C0C8
:1007B0002091570321113EC082E08093540341E011
:1007C00060E072E080E090E00E94DE1080915503CE
:1007D00090915603805991408F3521E0920718F08F
:1007E00021E0209354038D3B910568F480915703D9
:1007F000813049F41092540340E060E072E080E000
:1008000090E00E94DE1080915503909156038E5423
:1008100092408F369105C0F480915703811114C026
:100820001092540340E060E072E080E090E00E94AB
:10083000DE1008958F3521E0920790F6D7CF8F35DF
:1008400021E0920700F3CCCF089581E00E94DB0005
:1008500090935303809352039C012E5432402F36C1
:10086000310508F0B8C080915803813099F4809127
:100870005003813029F080914F03813009F0D7C0B7
:1008800081E08093510341E060E074E080E090E01B
:100890000E94DE1080915203909153038059914041
:1008A0008D3B910508F0D4C0809158038111A5C0FB
:1008B00080915003813029F080914F03813009F0FD
:1008C00091C081E08093510341E060E074E080E0FA
:1008D00090E00E94DE1080915203909153038E5459
:1008E00092408F369105B0F480915803813091F495
:1008F000809150038111BEC080914F038111BAC015
:1009000083E08093510341E060E074E080E090E098
:100910000E94DE10809152039091530380599140C0
:100920008D3B910508F07EC08091580381116FC006
:10093000809150038111A8C080914F038111A4C000
:1009400083E08093510341E060E074E080E090E058
:100950000E94DE1080915203909153038059914080
:100960008F35914050F082E08093510341E060E088
:1009700078E080E090E00E94DE1080915203909138
:100980005303805991408D3B910568F48091580341
:10099000813049F41092510340E060E074E080E05F
:1009A00090E00E94DE1080915203909153038E5488
:1009B00092408F36910508F072C0809158038111E2
:1009C0006EC01092510340E060E074E080E090E07F
:1009D0000E94DE100895805991408D3B910508F4E6
:1009E00063CF41C08091520390915303805991404D
:1009F0008D3B910508F49CCF15C0809152039091D6
:100A000053038E5492408F36910508F46DCF809138
:100A1000520390915303805991408F35914008F4CF
:100A2000B5CFA1CF8F35914008F4BDCF9CCF809139
:100A3000520390915303805991408D3B9105E8F208
:100A40004ACF809152039091530380599140EACF4D
:100A500080915203909153038E5492408F369105AA
:100A600008F442CFEECF8091520390915303805906
:100A70009140D8CF80915203909153038059914077
:100A80008D3B910520F2CECF80915203909153037C
:100A9000805991408F35914008F485CF64CF0895F7
:100AA000CF93C82F613041F441E061E070E080E015
:100AB00090E00E94DE1007C040E061E070E080E05E
:100AC00090E00E94DE1041E062E070E080E090E0A3
:100AD0000E94DE10C4FF08C041E064E070E080E0E6
:100AE00090E00E94DE1007C040E064E070E080E02B
:100AF00090E00E94DE10C5FF08C041E068E070E0B1
:100B000080E090E00E94DE1007C040E068E070E006
:100B100080E090E00E94DE10C6FF08C041E060E186
:100B200070E080E090E00E94DE1007C040E060E1ED
:100B300070E080E090E00E94DE10CC2344F441E0BD
:100B400060E270E080E090E00E94DE1007C040E0CC
:100B500060E270E080E090E00E94DE1040E062E041
:100B600070E080E090E00E94DE108FE39FE101974B
:100B7000F1F700C0000041E062E070E080E090E04A
:100B80000E94DE10C0FF08C041E064E070E080E039
:100B900090E00E94DE1007C040E064E070E080E07A
:100BA00090E00E94DE10C1FF08C041E068E070E004
:100BB00080E090E00E94DE1007C040E068E070E056
:100BC00080E090E00E94DE10C2FF08C041E060E1DA
:100BD00070E080E090E00E94DE1007C040E060E13D
:100BE00070E080E090E00E94DE10C3FF08C041E0AA
:100BF00060E270E080E090E00E94DE1007C040E01C
:100C000060E270E080E090E00E94DE1040E062E090
:100C100070E080E090E00E94DE108FE39FE101979A
:100C2000F1F700C00000CF91089560E082E00E94DB
:100C3000500560E088E20E94500560E08CE00E9470
:100C4000500560E081E00E94500508950F931F93C6
:100C5000CF93FC018081882361F08F01C0E0CF5FDA
:100C600061E00E945005F801EC0FF11D80818111B7
:100C7000F6CFCF911F910F910895CF93DF93EC01A1
:100C8000623009F449C020F4613009F46DC08AC0B3
:100C90006330C1F0643009F085C09C01369527951A
:100CA0003695279536952795A5ECB0E20E947B1BDB
:100CB000929582958F7089279F70892761E0805D6A
:100CC0000E9450059E013695279536952795ABE7EE
:100CD000B4E10E947B1BAC01569547959A01ADEC9F
:100CE000BCEC0E947B1B969587959695879596956B
:100CF00087959C01220F331F880F991F880F991F1A
:100D0000880F991F820F931F9A01281B390BC90165
:100D100061E0805D0E9450059E01ADECBCEC0E943C
:100D20007B1BAC015695479556954795569547952B
:100D30009A010E947B1B9695879596958795969527
:100D400087959C01220F331F880F991F880F991FC9
:100D5000880F991F820F931F9A01281B390BC90115
:100D600061E0805D0E9450059E01ADECBCEC0E94EC
:100D70007B1B9695879596958795969587959C016B
:100D8000220F331F880F991F880F991F880F991FF3
:100D9000820F931F9E01281B390BC90161E0805D02
:100DA0000E945005DF91CF9108951092E3031092B5
:100DB000C1031092C303809184039091850301962F
:100DC00090938503809384036091E0037091E10325
:100DD0007250072E000C880B990B0E94EC1C2EEE13
:100DE00034E045EB5FE30E94421C21EE3AE744E920
:100DF0005FE30E94781D0E94B41CAB017093C7038F
:100E00006093C603209100013091010181EE90E0D2
:100E1000821B930B481759072CF02F513F4F241773
:100E200035074CF580912F05909130052091E40312
:100E30003091E503821B930B8D349D41A4F440E077
:100E400060E470E080E090E00E94DE1080912F0569
:100E5000909130052091E4033091E503821B930BC0
:100E60008D349D41ECF041E060E470E080E090E082
:100E70000E94DE1015C081E08093E3038093C103DC
:100E80008091C8039091C90301969093C903809300
:100E9000C80341E060E470E080E090E00E94DE1072
:100EA00081E08093C10320918403309185034091B8
:100EB000C8035091C90364E6649FC001659F900D0B
:100EC0001124B9010E94611B7093920360939103F6
:100ED0002436310541F41092850310928403109258
:100EE000C9031092C80380912F059091300520917D
:100EF000E4033091E503AC01421B530B9A012839FE
:100F00003A4324F09093E5038093E403089580919D
:100F10005403823039F421E030E03093FA03209317
:100F2000F90304C01092FA031092F90320916B03A5
:100F300030916C03232B39F421E030E03093FC0333
:100F40002093FB0304C01092FC031092FB0381303A
:100F500039F481E090E09093FE038093FD0304C098
:100F60001092FE031092FD0380915103823039F4F8
:100F700021E030E0309300042093FF0304C010927E
:100F800000041092FF039091C103911107C021E06A
:100F900030E0309302042093010404C01092020454
:100FA000109201049091C203913039F421E030E0B5
:100FB000309304042093030404C01092040410929C
:100FC000030490918303923039F421E030E03093B0
:100FD00006042093050404C0109206041092050430
:100FE0009091CA03913039F421E030E030930A0443
:100FF0002093090404C010920A041092090483305B
:1010000038F081E090E090930C0480930B0404C0CE
:1010100010920C0410920B048091F7039091F80346
:10102000899724F0109204041092030480916903BC
:1010300090916A03899714F11092060410920504A6
:101040001DC090813296890FE217F307D1F7809384
:10105000C30381110BC040E060E078E080E090E0E5
:101060000E94DE108091C303882379F041E060E0A4
:1010700078E080E090E00E94DE1008958091C30344
:10108000EBEFF3E02DE034E0DCCF08951F920F92F8
:101090000FB60F9211242F933F934F935F936F934B
:1010A0007F938F939F93AF93BF93EF93FF93809121
:1010B0002F059091300501969093300580932F0570
:1010C0000E94690FFF91EF91BF91AF919F918F9116
:1010D0007F916F915F914F913F912F910F900FBE34
:1010E0000F901F9018951F920F920FB60F92112418
:1010F0008F939F938091D5039091D60301969093FF
:10110000D6038093D5039F918F910F900FBE0F90C0
:101110001F90189541E060E070E880E090E00E9448
:10112000DE10AAE7B0E08C9180688C93ECE7F0E0E9
:101130008081108280818064808380818F6D808334
:101140008C9186608C93EBE7F0E080818083EEE702
:10115000F0E080818763808380B7806880BF80E211
:1011600087B992E094B988E185B98EEF8AB918B849
:1011700010928000E1E8F0E080818D608083109221
:1011800085001092840029E03DE33093890020938C
:10119000880090936F00E0EBF0E0808182608083B4
:1011A000E1EBF0E08081826080831092B2008FEFEB
:1011B0008093B300E0E7F0E08081826080832FEFCE
:1011C00083EC99E0215080409040E1F700C000009E
:1011D0000E94150660E081E00E94500560E080E812
:1011E0000E94500588E691E00E9426060E94D506DE
:1011F0000E940D174E9A0E940D171092340585E03B
:1012000090E09093D4038093D3031092D60310926E
:10121000D50383E080933E051092B10310928C03B6
:101220001092310510926A03109269031092F8032C
:101230001092F70310926C0310926B031092F30359
:101240001092F2031092AE031092AD031092C203FB
:10125000109283031092CA0383E190E09093DF031E
:101260008093DE038DE990E09093B0038093AF0309
:1012700081E090E00E94AD0380933E0582E090E023
:101280000E94AD0390E09093D4038093D30383E056
:1012900090E00E94AD0390E09093010180930001E3
:1012A00086E090E00E94AD03823018F480935803EA
:1012B00003C081E08093580387E090E00E94AD0373
:1012C000823018F48093570303C081E08093570362
:1012D00088E090E00E94AD0390E090936A038093D1
:1012E00069038B9734F089E290E090936A038093CE
:1012F000690389E090E00E94AD0390E09093F803C9
:101300008093F7038B9734F089E290E09093F80391
:101310008093F70380E190E00E94AD0390E090930A
:10132000DF038093DE038138910524F01092DF0300
:101330001092DE0310923F0580E00E94DB00909344
:1013400056038093550381E00E94DB009093530382
:10135000809352030E940D170E94D5060E948707B2
:101360007894109265031092640340E060E070E8A6
:1013700080E090E00E94DE1011E0C1E0D0E00E9429
:10138000F1000E94B4030E9425040E94D5060E9429
:1013900008120E94870780913E05823009F4C5C07B
:1013A0001093AC03209191033091920380916903D3
:1013B00090916A03820F931F84369105D4F440E024
:1013C00060E470E080E090E00E94DE1010926C0318
:1013D00010926B038091690390916A0320919103AD
:1013E00030919203280F391F2436310514F4899760
:1013F0005CF0D0936C03C0936B03412F60E470E00A
:1014000080E090E00E94DE101B9946C080914E0360
:10141000811142C080913F0581118AC0412F60E057
:1014200070E880E090E00E94DE1080913E058F5FC2
:1014300080933E0510934E03109234051092D90309
:101440001092D8032FEF86E791E021508040904022
:10145000E1F700C000001092500340E060E870E047
:1014600080E090E00E94DE1080913E05843010F014
:1014700010933E0560913E05CE010E94A5038FE3C7
:101480009CE90197F1F700C00000412F60E070E88F
:1014900080E090E00E94DE101B9B12C080914E0302
:1014A000813071F480913F0581110AC0109234059A
:1014B00010924E038FE39CE90197F1F700C0000002
:1014C00080913E05813031F480913F05811125C026
:1014D0000E949A0A80913E05823031F480913F0546
:1014E00081111BC00E94620180913E058330A9F4E6
:1014F00080913F05811111C060E080E80E94500595
:1015000089E791E00E9426060E94810B40E060E09E
:1015100071E080E090E00E94DE1040E060E070E862
:1015200080E090E00E94DE102ACF1092AC033ACF08
:1015300083B1C6CF40E060E071E080E090E00E94BF
:10154000DE10809134058111CBC01C9BC6C08091F8
:1015500050038111C2C060E080E80E9450058EE80F
:1015600091E00E9426060E9470031C9924C080917D
:101570003405882309F4BAC01EC041E060E070E879
:1015800080E090E00E94DE1081E0809334052FEF30
:1015900081EE94E0215080409040E1F700C00000CF
:1015A0001092D6031092D50340E060E070E880E02E
:1015B00090E00E94DE1080913405813009F09BC0DC
:1015C0001C9B41C08091500381113DC081E08093FC
:1015D000500341E060E870E080E090E00E94DE109F
:1015E000109234052FEF89EF90E021508040904019
:1015F000E1F700C0000080913405811173C01C998F
:101600005DC080915003813009F058C0809334054B
:1016100041E060E070E880E090E00E94DE102FEF93
:1016200082E597E0215080409040E1F700C0000043
:1016300040E060E070E880E090E00E94DE10809181
:1016400034058130B9F51C9B5BC08091500381301B
:1016500009F056C0109250031092340560E080E803
:101660000E9450058EE891E00E9426060E947003B9
:1016700080915403813071F480915103823050F095
:1016800060E080E80E9450058EE891E00E94260606
:101690000E94700340E060E870E080E090E00E940B
:1016A000DE102FEF89EF90E0215080409040E1F76D
:1016B00000C0000080913405811122C08091500348
:1016C0008130F1F41092CA0360E080E80E94500576
:1016D0008FE991E00E94260608951C9B07C08BCFDE
:1016E00083B169CF813009F4AECF08958091500362
:1016F000811185CF42CF80913405882309F47FCFB3
:101700000895CF93DF9360E080EC0E945005109223
:10171000C5031092C403C091D803D091D903C73038
:10172000D10509F0EAC00E947003C091D803D0919E
:10173000D903C730D1050CF074C0FE01EE0FFF1FB6
:10174000E750FC4F80819181019709F060C005C08E
:1017500081919191019709F05FC0C730D10508F0E0
:1017600051C0FE01EC5CFF4F0C94751B80EB91E0C7
:101770000E94260681E090E09093C5038093C40305
:1017800041C081EC91E00E94260681E090E09093B8
:10179000C5038093C40336C082ED91E00E94260603
:1017A00081E090E09093C5038093C4032BC083EE47
:1017B00091E00E94260681E090E09093C50380931B
:1017C000C40320C084EF91E00E94260681E090E0EF
:1017D0009093C5038093C40315C085E092E00E94F6
:1017E000260681E090E09093C5038093C4030AC06D
:1017F00086E192E00E94260681E090E09093C50386
:101800008093C403D093D903C093D8030AC0FE01C8
:10181000EE0FFF1FE550FC4F2196C730D1050CF4A9
:1018200097CF8091C4039091C503892B31F40E9416
:1018300070031092D9031092D8031C990AC08091AA
:101840008C03811106C081E080938C031C9B5AC0DD
:1018500007C01C9B57C080918C03813009F052C097
:1018600041E060E070E880E090E00E94DE101092BD
:101870008C03E091D803F091D903CF0101969093A6
:10188000D9038093D803DC01AA0FBB1FA750BC4F1C
:101890002D913C91232B49F5873091055CF012C0C6
:1018A000219131912130310549F49093D9038093EE
:1018B000D80308C0EE0FFF1FE350FC4F019687309E
:1018C000910571F78091D8039091D903089724F07E
:1018D0001092D9031092D8032FEF89EF90E0215096
:1018E00080409040E1F700C0000040E060E070E818
:1018F00080E090E00E94DE1005C0C730D1050CF4F6
:101900001CCF95CFDF91CF91089580916003909186
:1019100061038D30910509F0D3C2EDE0F4E0228D32
:10192000338D8091DA039091DB03822B932B2489F2
:101930003589220F331F220F331F220F331F822BB3
:10194000932B26893789220F331F220F331F822BB7
:10195000932B208D318D220F331F822B932B90934D
:10196000DB038093DA0308C0299A459A80916003CB
:10197000909161030D9711F4299A459A8091600323
:10198000909161030E9761F48091F9039091FA03AD
:10199000019721F08091D7038230B1F4299A459ABA
:1019A00080916003909161038D3091050CF490C299
:1019B000469711F4299A459A8091600390916103AA
:1019C0004F9711F4299A459A809160039091610391
:1019D000889711F4299A459A809160039091610348
:1019E000C19711F4299A459A8091600390916103FF
:1019F000CA9711F4299A459A8091600390916103E6
:101A00008334910511F4299A459A8091600390914D
:101A100061038C34910511F4299A459A8091DA0377
:101A20009091DB038230910509F46AC01CF4892B84
:101A300049F008958330910509F47FC00E9709F4A9
:101A4000DCC108958091600390916103099711F4BE
:101A5000299A459A80916003909161030D9711F442
:101A6000299A459A80916003909161030E9761F4E1
:101A70008091F9039091FA03019721F08091D703A7
:101A8000823091F4299A459A809160039091610384
:101A9000469711F4299A459A8091600390916103C9
:101AA0004F9711F4299A459A8091600390916103B0
:101AB000889711F4299A459A809160039091610367
:101AC000C19711F4299A459A80916003909161031E
:101AD000CA9711F4299A459A809160039091610305
:101AE0008334910511F4299A459A8091600390916D
:101AF00061038C34910509F0EBC1299A459A089548
:101B000080916003909161030D9711F4299A459A91
:101B100080916003909161030E9709F0D9C1809183
:101B2000F9039091FA03019729F08091D70382304D
:101B300009F0CEC1299A459A089580916003909149
:101B400061030D9711F4299A459A80916003909151
:101B500061030E9761F48091F9039091FA03019764
:101B600021F08091D703823091F4299A459A80918F
:101B7000600390916103469711F4299A459A8091E8
:101B80006003909161034F9711F4299A459A8091CF
:101B9000600390916103889711F4299A459A809186
:101BA000600390916103C19711F4299A459A80913D
:101BB000600390916103CA9711F4299A459A809124
:101BC0006003909161038334910511F4299A459A39
:101BD00080916003909161038C34910511F4299AEE
:101BE000459A80916003909161039C012E503109C8
:101BF0002830310520F525E130E0281B390B809194
:101C0000AF039091B00302C0959587952A95E2F7AE
:101C1000817099272091860330918703822B932B23
:101C20009093870380938603019711F4299A459A2C
:101C30008091860390918703892B09F429988091DC
:101C400060039091610382970297D8F48091AC036E
:101C5000682F617070E08091860390918703682BF4
:101C6000792B70938703609386036130710511F4BB
:101C7000299A459A8091860390918703892B09F4CC
:101C8000299880916003909161038797E1F4809196
:101C90003705482F417050E080918603909187036B
:101CA000482B592B509387034093860341305105AD
:101CB00009F00AC1299A459A809186039091870379
:101CC000892B09F429982091600330916103C9019F
:101CD000C397069760F58091550390915603992319
:101CE0000CF40396959587959595879549E350E073
:101CF000BA01621B730B02C0959587956A95E2F74E
:101D0000817099272091860330918703822B932B32
:101D10009093870380938603019711F4299A459A3B
:101D20008091860390918703892B09F429988091EB
:101D30006003909161039C012C53310927303105D8
:101D400020F522E430E0281B390B80915E0390914E
:101D50005F0302C0959587952A95E2F781709927D0
:101D60002091860330918703822B932B90938703D6
:101D700080938603019711F4299A459A80918603EE
:101D800090918703892B09F4299820916003309161
:101D90006103C90185549109079708F099C08091A2
:101DA00052039091530399230CF4039695958795CC
:101DB000959587954BE450E0BA01621B730B02C006
:101DC000959587956A95E2F781709927209186030A
:101DD00030918703822B932B909387038093860304
:101DE000019711F4299A459A80918603909187036F
:101DF000892B09F06DC02998089580916003909116
:101E000061030D9711F4299A459A8091600390918E
:101E100061034E9711F4299A459A8091600390913D
:101E200061038D9711F4299A459A809160039091EE
:101E300061038E9709F04CC0809153049091540433
:101E4000019769F48091610490916204019739F4DB
:101E500041E060E070E880E090E00E94DE10809158
:101E6000550490915604019769F480916304909110
:101E70006404019739F440E060E070E880E090E0AD
:101E80000E94DE108091590490915A04019749F400
:101E90008091670490916804019719F482E080931F
:101EA000D7038091570490915804019789F4809149
:101EB000650490916604019759F41092D703089530
:101EC000099709F05BCD50CD452B09F4FBCE5DCFD2
:101ED0000895599A23B1822F817090E09093F60370
:101EE0008093F5038130910509F02AC18091B203F6
:101EF00081115EC18091B3039091B4039C0129507C
:101F000031092230310528F41092B4031092B30342
:101F10002EC04297039738F481E090E09093B40389
:101F20008093B30342C08091B3039091B4034B9765
:101F30000897E8F482E090E09093B4038093B303B1
:101F4000109261031092600310926803109267036D
:101F500010929403109293031092DB031092DA0311
:101F600020E030E090930E0480930D0482C08091B5
:101F7000B3039091B403893E9340BCF01092610387
:101F800010926003109268031092670310929403FA
:101F9000109293031092DB031092DA031092D7038E
:101FA00010920E0410920D0474C0209160033091C1
:101FB0006103F901EE0FFF1FE35FFB4F8091B30355
:101FC0009091B403918380832830310509F051C08A
:101FD000EDE0F4E02089318980919303909194039E
:101FE000822B932B248135810024369527950794E5
:101FF000369527950794322F202D822B932B2681FF
:102000003781220F331F22953295307F3227207F70
:102010003227822B932B2085318522953295307F74
:102020003227207F3227822B932B22853385220F64
:10203000331F220F331F220F331F822B932B248534
:102040003585220F331F220F331F822B932B2685BA
:102050003785220F331F822B932B90939403809309
:102060009303009709F09BC010929603109295037A
:1020700096C040919303509194038091DE03909118
:10208000DF034817590729F42830310514F00E945E
:10209000850C81E08093B2031092E2031092B403A6
:1020A0001092B303109287031092860380910F045D
:1020B00090911004019711F58091110490911204F0
:1020C000892BE1F480916003909161030297B1F450
:1020D0008091950390919603019690939603809337
:1020E00095032091DE033091DF038217930731F4CB
:1020F0009093940380939303299A459A8091600367
:1021000090916103019690936103809360038091A5
:10211000F5039091F6038130910509F449C010C090
:1021200080918F03909190030196909390038093F8
:102130008F038091F5039091F603892BE9F02DC070
:10214000892B59F58091E203811116C02998459891
:1021500081E08093E2031092B203109290031092F8
:102160008F0310926803109267038091F50390919A
:10217000F603892B29F011C08091E203813069F4C4
:102180001092900310928F038091B3039091B40347
:1021900001969093B4038093B303599808952091C6
:1021A000DE033091DF038217930709F072CF6FCF00
:1021B0008091B203813009F4B3CFEFCF0F931F9317
:1021C0004130B9F40091590310915A0320915B03F7
:1021D00030915C03DC01CB01802B912BA22BB32B24
:1021E0008093590390935A03A0935B03B0935C03CD
:1021F0001AC00091590310915A0320915B0330914A
:102200005C03DC01CB0180959095A095B09580236F
:102210009123A223B3238093590390935A03A0934D
:102220005B03B0935C035B985C9880915903909139
:102230005A03A0915B03B0915C0397FF02C05A9AC6
:1022400001C05A985C9A5C988091590390915A0306
:10225000A0915B03B0915C0396FF02C05A9A01C043
:102260005A985C9A5C988091590390915A03A09176
:102270005B03B0915C0395FF02C05A9A01C05A9863
:102280005C9A5C988091590390915A03A0915B03EA
:10229000B0915C0394FF02C05A9A01C05A985C9AAC
:1022A0005C988091590390915A03A0915B03B0917F
:1022B0005C0393FF02C05A9A01C05A985C9A5C98DA
:1022C0008091590390915A03A0915B03B0915C03F4
:1022D00092FF02C05A9A01C05A985C9A5C98809109
:1022E000590390915A03A0915B03B0915C0391FF55
:1022F00002C05A9A01C05A985C9A5C98809159031E
:1023000090915A03A0915B03B0915C0390FF02C0CF
:102310005A9A01C05A985C9A5C988091590390919E
:102320005A03A0915B03B0915C0387FF02C05A9AE5
:1023300001C05A985C9A5C988091590390915A0315
:10234000A0915B03B0915C0386FF02C05A9A01C062
:102350005A985C9A5C988091590390915A03A09185
:102360005B03B0915C0385FF02C05A9A01C05A9882
:102370005C9A5C988091590390915A03A0915B03F9
:10238000B0915C0384FF02C05A9A01C05A985C9ACB
:102390005C988091590390915A03A0915B03B0918E
:1023A0005C0383FF02C05A9A01C05A985C9A5C98F9
:1023B0008091590390915A03A0915B03B0915C0303
:1023C00082FF02C05A9A01C05A985C9A5C98809128
:1023D000590390915A03A0915B03B0915C0381FF74
:1023E00002C05A9A01C05A985C9A5C98809159032D
:1023F00090915A03A0915B03B0915C0380FF02C0EF
:102400005A9A01C05A985C9A5B9A1F910F9108954D
:102410001D9B3FC08091B10381113BC080913E055F
:10242000833009F0F7C441E060E070E880E090E0BC
:102430000E94DE1080913F058F5F80933F0581E011
:102440008093B1032FEF80E792E0215080409040CD
:10245000E1F700C0000060E080EC0E94500587E2D8
:1024600092E00E94260680913F05883028F083E0A4
:1024700080933E0510923F0560913F0580E090E01B
:102480000E94A50340E060E070E880E090E00E94D8
:10249000DE101D9913C08091B103813079F48091D1
:1024A0003E05833059F41092B1032FEF89EF90E08D
:1024B000215080409040E1F700C0000080913F052E
:1024C000813009F082C060E080E80E94500588E316
:1024D00092E00E94260660E080EC0E94500589E4AC
:1024E00092E00E94260660E08EEC0E9450058091EA
:1024F0000001909101016AE070E00E94611BCB0134
:1025000061E00E943D0660E08FEC0E9450058091E2
:1025100000019091010164E670E00E94611B61E09E
:102520000E943D061B9935C080918C03811131C0FA
:1025300041E060E070E880E090E00E94DE10809171
:102540000001909101010296893291052CF490933B
:1025500001018093000104C010920101109200015A
:1025600081E080938C036091000183E090E00E9401
:10257000A5032FEF89EF90E0215080409040E1F7D4
:1025800000C0000040E060E070E880E090E00E9461
:10259000DE101B9B1AC080918C038130B1F4109225
:1025A0008C0341E060E070E880E090E00E94DE1083
:1025B0008FE39CE90197F1F700C0000040E060E084
:1025C00070E880E090E00E94DE1080913F0582304C
:1025D00009F093C060E080E80E94500587E592E032
:1025E0000E94260660E080EC0E94500588E692E09A
:1025F0000E94260660E08CEC0E94500582E792E083
:102600000E94260682E090E00E94AD0390E0909345
:10261000D4038093D30360E08AEC0E94500580913C
:10262000D3039091D4036AE070E00E94611BCB0158
:1026300061E00E943D0660E08BEC0E9450058091B5
:10264000D3039091D40364E670E00E94611B61E0C3
:102650000E943D061B9935C080918C03811131C0C9
:1026600041E060E070E880E090E00E94DE10809140
:10267000D3039091D4030196853191052CF4909366
:10268000D4038093D30304C01092D4031092D303D5
:1026900081E080938C036091D30382E090E00E94FC
:1026A000A5039FEF29EF80E0915020408040E1F7A3
:1026B00000C0000040E060E070E880E090E00E9430
:1026C000DE101B9B1AC080918C038130B1F41092F4
:1026D0008C0341E060E070E880E090E00E94DE1052
:1026E0008FE39CE90197F1F700C0000040E060E053
:1026F00070E880E090E00E94DE1080913F0583301A
:1027000009F0C1C060E080E80E94500587E792E0D0
:102710000E94260681E00E94DB0090935303809381
:10272000520360E08DEC0E9450058091520390911D
:1027300053036AE070E00E94611BCB0162E00E94DB
:102740003D0660E08FEC0E9450058091520390910D
:10275000530364E670E00E94611B61E00E943D0645
:1027600080915803811108C060E080EC0E94500500
:1027700087E892E00E94260680915803813041F458
:1027800060E080EC0E94500583E992E00E942606FA
:102790001B995AC080913105811156C041E060E01B
:1027A00070E880E090E00E94DE1080915803811173
:1027B00020C080913105811140C081E080933105B6
:1027C0008093580360E080EC0E94500583E992E01A
:1027D0000E9426066091580386E090E00E94A503BF
:1027E0009FEF20E782E0915020408040E1F700C059
:1027F000000080915803813001F5809131058111ED
:102800001CC081E0809331051092580360E080EC99
:102810000E94500587E892E00E94260660915803C6
:1028200086E090E00E94A5039FEF20E782E09150B0
:1028300020408040E1F700C0000040E060E070E828
:1028400080E090E00E94DE101B9B1DC0809131054E
:102850008130C9F441E060E070E880E090E00E94DF
:10286000DE10109231059FEF20E782E0915020406A
:102870008040E1F700C0000040E060E070E880E0E8
:1028800090E00E94DE1080913F05843009F0C1C0C5
:1028900060E080E80E94500580EA92E00E942606EF
:1028A00082E00E94DB00909356038093550360E022
:1028B0008DEC0E94500580915503909156036AE07B
:1028C00070E00E94611BCB0162E00E943D0660E067
:1028D0008FEC0E945005809155039091560364E659
:1028E00070E00E94611B61E00E943D0680915703E9
:1028F000811108C060E080EC0E94500587E892E0FA
:102900000E94260680915703813041F460E080ECFC
:102910000E94500583E992E00E9426061B995AC046
:1029200080913105811156C041E060E070E880E09F
:1029300090E00E94DE1080915703811120C08091A9
:102940003105811140C081E08093310580935703A8
:1029500060E080EC0E94500583E992E00E94260628
:102960006091570387E090E00E94A5039FEF20E766
:1029700082E0915020408040E1F700C0000080914B
:102980005703813001F58091310581111CC081E030
:10299000809331051092570360E080EC0E9450054F
:1029A00087E892E00E9426066091570387E090E056
:1029B0000E94A5039FEF20E782E0915020408040D5
:1029C000E1F700C0000040E060E070E880E090E0E7
:1029D0000E94DE101B9B1DC0809131058130C9F41F
:1029E00041E060E070E880E090E00E94DE1010922C
:1029F00031059FEF20E782E0915020408040E1F7D1
:102A000000C0000040E060E070E880E090E00E94DC
:102A1000DE1080913F05853009F0A3C088E090E08A
:102A20000E94AD0390E090936A03809369038997B5
:102A3000ACF560E080E80E94500580EB92E00E94D7
:102A4000260660E080EC0E94500581EC92E00E9436
:102A5000260660E08EEC0E945005809169039091FB
:102A60006A036AE070E00E94611BCB0161E00E9492
:102A70003D0660E08FEC0E945005809169039091C3
:102A80006A0364E670E00E94611B61E00E943D06FB
:102A90008091690390916A03899784F060E080E8EF
:102AA0000E9450058FEC92E00E94260660E080ECC8
:102AB0000E94500580EE92E00E9426061B9935C0C8
:102AC00080918C03811131C041E060E070E880E0CA
:102AD00090E00E94DE108091690390916A03029653
:102AE0008B3291052CF490936A038093690304C0A0
:102AF00010926A031092690381E080938C036091C5
:102B0000690388E090E00E94A5039FEF29EF80E031
:102B1000915020408040E1F700C0000040E060E0BC
:102B200070E880E090E00E94DE101B9B1AC080914C
:102B30008C038130B1F410928C0341E060E070E8C6
:102B400080E090E00E94DE108FE39CE90197F1F7AE
:102B500000C0000040E060E070E880E090E00E948B
:102B6000DE1080913F05863009F0A3C089E090E037
:102B70000E94AD0390E09093F8038093F703899748
:102B8000ACF560E080E80E94500580EB92E00E9486
:102B9000260660E080EC0E94500581EF92E00E94E2
:102BA000260660E08EEC0E9450058091F70390911C
:102BB000F8036AE070E00E94611BCB0161E00E94B3
:102BC0003D0660E08FEC0E9450058091F7039091E4
:102BD000F80364E670E00E94611B61E00E943D061C
:102BE0008091F7039091F803899784F060E080E882
:102BF0000E9450058FEC92E00E94260660E080EC77
:102C00000E94500580E093E00E9426061B9935C083
:102C100080918C03811131C041E060E070E880E078
:102C200090E00E94DE108091F7039091F8030296E5
:102C30008B3291052CF49093F8038093F70304C032
:102C40001092F8031092F70381E080938C03609157
:102C5000F70389E090E00E94A5039FEF29EF80E051
:102C6000915020408040E1F700C0000040E060E06B
:102C700070E880E090E00E94DE101B9B1AC08091FB
:102C80008C038130B1F410928C0341E060E070E875
:102C900080E090E00E94DE108FE39CE90197F1F75D
:102CA00000C0000040E060E070E880E090E00E943A
:102CB000DE1080913F05873009F0AEC060E08DE8FE
:102CC0000E94500563E080918803909189030E94DF
:102CD0003D068091DE039091DF03803891057CF5FD
:102CE00060E080E80E94500581E193E00E942606A2
:102CF00060E080EC0E9450058AE292E00E94260685
:102D000060E08CEC0E9450058091DE039091DF031F
:102D10006AE070E00E94611BCB0162E00E943D0608
:102D200060E08EEC0E9450058091DE039091DF03FD
:102D300064E670E00E94611B61E00E943D068091A4
:102D4000DE039091DF038038910581F460E080E834
:102D50000E94500582E293E00E94260660E080EC2B
:102D60000E94500583E393E00E9426061B9935C01C
:102D700080918C03811131C041E060E070E880E017
:102D800090E00E94DE108091DE039091DF030196B7
:102D9000813891052CF49093DF038093DE0304C007
:102DA0001092DF031092DE0381E080938C03609128
:102DB000DE0380E190E00E94A5039FEF29EF80E011
:102DC000915020408040E1F700C0000040E060E00A
:102DD00070E880E090E00E94DE101B9B1DC0809197
:102DE0008C038130C9F410928C0341E060E070E8FC
:102DF00080E090E00E94DE108FE39CE90197F1F7FC
:102E000000C0000040E060E070E880E090E00E94D8
:102E1000DE10089583B152CB08950F931F93CF9383
:102E2000DF9360E080EC0E94500584E493E00E9410
:102E300026066091EE037091EF037250072E000C8E
:102E4000880B990B0E94EC1C2EEE34E045EB5FE3FF
:102E50000E94421C21EE3AE744E95FE30E94781D9C
:102E60000E94B41C70933B0560933A0560E081ECCE
:102E70000E94500580913A0590913B050AE010E0D0
:102E8000B8010E94611BCB0162E00E943D0660E038
:102E900083EC0E94500580913A0590913B05C4E671
:102EA000D0E0BE010E94611B61E00E943D060E94CD
:102EB000F10060E084EC0E94500586E493E00E94FB
:102EC000260660918A0370918B037250072E000CC6
:102ED000880B990B0E94EC1C2EEE34E045EB5FE36F
:102EE0000E94421C21EE3AE744E95FE30E94781D0C
:102EF0000E94B41C7093B6036093B50360E087EC46
:102F00000E9450058091B5039091B603B8010E94CC
:102F1000611BCB0162E00E943D0660E089EC0E94EB
:102F200050058091B5039091B603BE010E94611BCC
:102F300061E00E943D060E94F10060E08AEC0E9480
:102F400050058AE493E00E9426066091E0037091A8
:102F5000E1037250072E000C880B990B0E94EC1CA9
:102F60002EEE34E045EB5FE30E94421C21EE3AE78F
:102F700044E95FE30E94781D0E94B41C70938203B1
:102F80006093810360E08DEC0E9450058091810385
:102F900090918203B8010E94611BCB0162E00E9404
:102FA0003D0660E08FEC0E94500580918103909176
:102FB0008203BE010E94611B61E00E943D06DF9119
:102FC000CF911F910F910895A0E1B0E0EAEEF7E1F3
:102FD0000C948A1B7C011B016A01FC01178216827A
:102FE000838181FF44C39E012F5F3F4F3901F70169
:102FF0009381F10193FD859193FF81911F018823B6
:1030000009F431C3853239F493FD859193FF8191A1
:103010001F01853239F4B70190E00E94D31E56019A
:103020006501E5CF10E0512C912CFFE1F915D8F0A6
:103030008B3279F038F4803279F08332A1F4F92DB3
:10304000F0612EC08D3261F0803369F4292D21604A
:103050002DC0392D3260932E892D8460982E2AC080
:10306000E92DE86015C097FC2DC020ED280F2A300F
:1030700088F496FE06C03AE0139F200D1124122F0B
:1030800019C08AE0589E200D1124522EE92DE062CD
:103090009E2E10C08E3231F496FCE5C2F92DF064FC
:1030A0009F2E08C08C3621F4292D2068922E02C054
:1030B000883641F4F10193FD859193FF81911F01C1
:1030C0008111B3CF9BEB980F933020F4992D906131
:1030D000805E07C09BE9980F933008F066C1992D78
:1030E0009F7E96FF16E09F73992E853619F49064A3
:1030F000992E08C0863621F4392F3068932E02C0ED
:103100001111115097FE07C01C3350F4442443940E
:10311000410E27E00BC0183038F027E017E005C05B
:1031200027E09CE3492E02C0212F412C560184E068
:10313000A80EB11CF6016081718182819381042DFA
:10314000A3010E94E51D6C01F981FC87F0FF02C01C
:10315000F3FF06C091FC06C092FE06C000E205C067
:103160000DE203C00BE201C000E08C858C7019F009
:1031700001115AC29BC297FE10C04C0CFC85F4FF93
:1031800004C08A81813309F44A94141474F528E048
:10319000241578F588E0482E2CC096FC2AC0812F93
:1031A00090E08C159D059CF03CEFC3163FEFD306D5
:1031B00074F0892D8068982E0AC0E2E0F0E0EC0FF0
:1031C000FD1FE10FF11D8081803319F411501111A1
:1031D000F4CF97FE0EC044244394410E812F90E01B
:1031E000C816D9062CF41C1904C04424439401C009
:1031F00010E097FE06C01C141D0434F4C6010196AD
:1032000005C085E090E002C081E090E001110196E8
:10321000112331F0212F30E02F5F3F4F820F931F9A
:10322000252D30E08217930714F4581A01C0512C51
:10323000892D897049F4552039F0B70180E290E07A
:103240000E94D31E5A94F7CF002329F0B701802F94
:1032500090E00E94D31E93FC09C0552039F0B701BD
:1032600080E390E00E94D31E5A94F7CF97FE4CC0A3
:103270004601D7FE02C0812C912CC60188199909FC
:10328000F301E80FF91FFE87ED8796012419310934
:10329000388B2F87012F10E01195019511093FEF11
:1032A0008316930629F4B7018EE290E00E94D31EA4
:1032B000C814D9044CF08F8598898815990524F491
:1032C000ED85FE85818101C080E3F1E08F1A9108D0
:1032D0002D853E852F5F3F4F3E872D8780169106B7
:1032E0002CF0B70190E00E94D31ED9CFC814D904A6
:1032F00041F49A81963320F4953319F43C8534FFD8
:1033000081E3B70190E04EC08A81813319F09C853A
:103310009F7E9C87B70190E00E94D31E111105C0CB
:1033200094FC18C085E690E017C0B7018EE290E0EB
:103330000E94D31E1E5F82E001E0080FF301E80F38
:10334000F11D8081B70190E00E94D31E802F0113F0
:10335000F3CFE6CF85E490E0B7010E94D31ED7FCFF
:1033600006C0C114D10441F4EC85E4FF05C0D1943A
:10337000C194D1088DE201C08BE2B70190E00E94B8
:10338000D31E80E32AE0C216D1042CF08F5FFAE04E
:10339000CF1AD108F7CFB70190E00E94D31EB70132
:1033A000C601C0960E94D31E54C1833631F08337C4
:1033B00079F0833509F056C020C0560132E0A30EE3
:1033C000B11CF6018081898301E010E0630112C025
:1033D0005601F2E0AF0EB11CF601C080D18096FE1E
:1033E00003C0612F70E002C06FEF7FEFC6010E9443
:1033F000C81E8C01F92DFF7714C0560122E0A20EE1
:10340000B11CF601C080D18096FE03C0612F70E030
:1034100002C06FEF7FEFC6010E94BD1E8C01F92D27
:10342000F0689F2EF3FD1AC0852D90E0081719074C
:10343000A8F4B70180E290E00E94D31E5A94F4CF22
:10344000F60197FC859197FE81916F01B70190E09D
:103450000E94D31E51105A940150110901151105F3
:1034600079F7F7C0843611F0893661F5560197FE79
:1034700009C024E0A20EB11CF60160817181828135
:1034800093810AC0F2E0AF0EB11CF6016081718138
:10349000072E000C880B990BF92DFF769F2E97FFB6
:1034A00009C090958095709561957F4F8F4F9F4F84
:1034B000F0689F2E2AE030E0A3010E94311FC82E41
:1034C000C6183FC0092D853721F40F7E2AE030E071
:1034D0001DC0097F8F3691F018F4883559F0C3C0AC
:1034E000803719F0883711F0BEC0006104FF09C0B1
:1034F000046007C094FE08C0066006C028E030E003
:1035000005C020E130E002C020E132E0560107FFB3
:1035100009C084E0A80EB11CF6016081718182812E
:10352000938108C0F2E0AF0EB11CF6016081718199
:1035300080E090E0A3010E94311FC82EC6180F77CB
:10354000902E96FE0BC0092D0E7FC11650F494FEEE
:103550000AC092FC08C0092D0E7E05C0DC2C092D86
:1035600003C0DC2C01C0D12E04FF0DC0FE01EC0D08
:10357000F11D8081803311F4097E09C002FF06C06D
:10358000D394D39404C0802F867809F0D39403FD9C
:1035900011C000FF06C01C2DD51480F4150D1D1997
:1035A0000DC0D51458F4B70180E290E00E94D31EFC
:1035B000D394F7CFD51410F45D1801C0512C04FF3B
:1035C00010C0B70180E390E00E94D31E02FF17C035
:1035D00001FD03C088E790E002C088E590E0B701F4
:1035E0000CC0802F867859F001FF02C08BE201C029
:1035F00080E207FD8DE2B70190E00E94D31EC11664
:1036000038F4B70180E390E00E94D31E1150F7CF49
:10361000CA94F301EC0DF11D8081B70190E00E9486
:10362000D31EC110F5CF15C0F4E0F51560F584E0A8
:10363000581A93FE1FC0011127C02C8523FF2AC0F2
:1036400006E710E0392D3071932EF8018491811135
:1036500024C0552009F4E4CCB70180E290E00E9438
:10366000D31E5A94F6CFF7018681978126C08FEF3B
:103670009FEF23C0B70180E290E00E94D31E5A94CE
:103680005110F8CFD8CF512CB701802F90E00E9475
:10369000D31ED3CF0AE710E0D5CF91108052B701E7
:1036A00090E00E94D31E0F5F1F4FCFCF23E0251560
:1036B00010F483E0BDCF512CC0CF6096E2E10C94B2
:1036C000A61B97FB072E16F4009407D077FD09D0B0
:1036D0000E94C11B07FC05D03EF4909581959F4F39
:1036E0000895709561957F4F0895EE0FFF1F059027
:1036F000F491E02D0994A29FB001B39FC001A39F54
:10370000700D811D1124911DB29F700D811D11241A
:10371000911D08952F923F924F925F926F927F92E8
:103720008F929F92AF92BF92CF92DF92EF92FF92D1
:103730000F931F93CF93DF93CDB7DEB7CA1BDB0B7D
:103740000FB6F894DEBF0FBECDBF09942A88398822
:1037500048885F846E847D848C849B84AA84B98429
:10376000C884DF80EE80FD800C811B81AA81B98135
:10377000CE0FD11D0FB6F894DEBF0FBECDBFED0149
:103780000895AA1BBB1B51E107C0AA1FBB1FA617A8
:10379000B70710F0A61BB70B881F991F5A95A9F7FA
:1037A00080959095BC01CD0108955058BB27AA275C
:1037B0000E94ED1B0C943E1D0E94301D38F00E94AB
:1037C000371D20F039F49F3F19F426F40C942D1D79
:1037D0000EF4E095E7FB0C94271DE92F0E944F1D86
:1037E00058F3BA17620773078407950720F079F436
:1037F000A6F50C94711D0EF4E0950B2EBA2FA02D9A
:103800000B01B90190010C01CA01A0011124FF278D
:10381000591B99F0593F50F4503E68F11A16F04088
:10382000A22F232F342F4427585FF3CF4695379587
:103830002795A795F0405395C9F77EF41F16BA0B4C
:10384000620B730B840BBAF09150A1F0FF0FBB1FFA
:10385000661F771F881FC2F70EC0BA0F621F731F43
:10386000841F48F4879577956795B795F7959E3FA0
:1038700008F0B0CF9395880F08F09927EE0F979531
:10388000879508950E94561C0C943E1D0E94371D7A
:1038900058F00E94301D40F029F45F3F29F00C944D
:1038A000271D51110C94721D0C942D1D0E944F1D4B
:1038B00068F39923B1F3552391F3951B550BBB275F
:1038C000AA2762177307840738F09F5F5F4F220FA4
:1038D000331F441FAA1FA9F335D00E2E3AF0E0E89B
:1038E00032D091505040E695001CCAF72BD0FE2FE5
:1038F00029D0660F771F881FBB1F26173707480779
:10390000AB07B0E809F0BB0B802DBF01FF27935830
:103910005F4F3AF09E3F510578F00C94271D0C94B0
:10392000721D5F3FE4F3983ED4F3869577956795D3
:10393000B795F7959F5FC9F7880F911D9695879565
:1039400097F90895E1E0660F771F881FBB1F621784
:1039500073078407BA0720F0621B730B840BBA0B42
:10396000EE1F88F7E09508950E94BB1C6894B11182
:103970000C94721D08950E94571D88F09F5798F06F
:10398000B92F9927B751B0F0E1F0660F771F881F64
:10399000991F1AF0BA95C9F714C0B13091F00E947E
:1039A000711DB1E008950C94711D672F782F882741
:1039B000B85F39F0B93FCCF3869577956795B395A5
:1039C000D9F73EF490958095709561957F4F8F4F14
:1039D0009F4F0895E89409C097FB3EF49095809519
:1039E000709561957F4F8F4F9F4F9923A9F0F92FC5
:1039F00096E9BB279395F695879577956795B79543
:103A0000F111F8CFFAF4BB0F11F460FF1BC06F5F28
:103A10007F4F8F4F9F4F16C0882311F096E911C03A
:103A2000772321F09EE8872F762F05C0662371F05B
:103A300096E8862F70E060E02AF09A95660F771F6F
:103A4000881FDAF7880F9695879597F9089597F963
:103A50009F6780E870E060E008959FEF80EC089534
:103A600000240A941616170618060906089500245D
:103A70000A9412161306140605060895092E0394D7
:103A8000000C11F4882352F0BB0F40F4BF2B11F44B
:103A900060FF04C06F5F7F4F8F4F9F4F089557FDAA
:103AA0009058440F551F59F05F3F71F04795880FAC
:103AB00097FB991F61F09F3F79F087950895121643
:103AC00013061406551FF2CF4695F1DF08C01616EF
:103AD00017061806991FF1CF8695710561050894A0
:103AE0000895E894BB2766277727CB0197F90895B7
:103AF0000E948B1D0C943E1D0E94301D38F00E94C8
:103B0000371D20F0952311F00C94271D0C942D1DCA
:103B100011240C94721D0E944F1D70F3959FC1F3E8
:103B2000950F50E0551F629FF001729FBB27F00D6B
:103B3000B11D639FAA27F00DB11DAA1F649F6627C0
:103B4000B00DA11D661F829F2227B00DA11D621F0F
:103B5000739FB00DA11D621F839FA00D611D221FC9
:103B6000749F3327A00D611D231F849F600D211DAD
:103B7000822F762F6A2F11249F5750409AF0F1F030
:103B800088234AF0EE0FFF1FBB1F661F771F881F99
:103B900091505040A9F79E3F510580F00C94271D8D
:103BA0000C94721D5F3FE4F3983ED4F386957795AD
:103BB0006795B795F795E7959F5FC1F7FE2B880F3F
:103BC000911D9695879597F90895283008F027E07C
:103BD0003327DA01990F311D87FD91600096610549
:103BE000710539F432602E5F3D9330E32A95E1F799
:103BF00008959F3F30F080387105610509F03C5F02
:103C00003C5F3D93913008F08068911DDF93CF9326
:103C10001F930F93FF92EF92192F987F9695E92F9C
:103C200096959695E90FFF27E852FF4F992733277E
:103C3000EE24FF24A701E70105900894079428F4D7
:103C4000360FE71EF81E491F511D660F771F881F8C
:103C5000991F0694A1F70590079428F4E70EF81E23
:103C6000491F561FC11D770F881F991F661F069495
:103C7000A1F70590079428F4F80E491F561FC71F97
:103C8000D11D880F991F661F771F0694A1F7059015
:103C9000079420F4490F561FC71FD81F990F661F9E
:103CA000771F881F0694A9F784911095177041F02B
:103CB000D695C79557954795F794E7941A95C1F708
:103CC000EEE7F0E068941590159135916591959126
:103CD00005907FE27395E118F10A430B560BC90B6F
:103CE000D009C0F7E10CF11E431F561FC91FD01D9C
:103CF0007EF4703311F48A95E6CFE894015030F0E9
:103D0000080F0AF40027021708F4202F2395022F2A
:103D10007A3328F079E37D932A95E9F710C07D93F3
:103D20002A9589F606949795679537951795179470
:103D3000E118F10A430B560BC90BD00998F02395F3
:103D40007E9173957A3308F070E37C932013B8F773
:103D50007E9170617D9330F0839571E37D9370E384
:103D60002A95E1F71124EF90FF900F911F91CF91C9
:103D7000DF91992787FD90950895FC01059061508A
:103D800070400110D8F7809590958E0F9F1F089571
:103D9000FC016150704001900110D8F7809590951A
:103DA0008E0F9F1F08950F931F93CF93DF93FB01F7
:103DB000238121FD03C08FEF9FEF2CC022FF16C08F
:103DC00046815781248135814217530744F4A081ED
:103DD000B1819D012F5F3F4F318320838C932681DA
:103DE00037812F5F3F4F3783268314C08B01EC014F
:103DF000FB010084F185E02D0995892BE1F6D801BE
:103E000016968D919C911797019617969C938E9379
:103E10001697CE01DF91CF911F910F910895AEE0DB
:103E2000B0E0E5E1FFE10C94981B0D891E8986E066
:103E30008C831A8309838FEF9FE79E838D83AE0166
:103E4000475E5F4F6F89788DCE0101960E94E4171F
:103E5000EF81F885E00FF11F10822E96E4E00C94BC
:103E6000B41BFA01AA27283051F1203181F1E894DE
:103E70006F936E7F6E5F7F4F8F4F9F4FAF4FB1E05D
:103E80003ED0B4E03CD0670F781F891F9A1FA11D58
:103E9000680F791F8A1F911DA11D6A0F711D811D59
:103EA000911DA11D20D009F468943F912AE0269F1E
:103EB00011243019305D3193DEF6CF010895462F7D
:103EC0004770405D4193B3E00FD0C9F7F6CF462F5E
:103ED0004F70405D4A3318F0495D31FD40524193C7
:103EE00002D0A9F7EACFB4E0A69597958795779584
:103EF0006795BA95C9F700976105710508959B010B
:103F0000AC010A2E06945795479537952795BA9593
:103F1000C9F7620F731F841F951FA01D0895F894A1
:023F2000FFCFD1
:103F220005004142544F2020205045A3A54D20209A
:103F320020200042C3786FE320BD61207065B6B8CF
:103F4200BC202000A16FBF6FB3BD6F63BFC42E2E14
:103F52002E004865B3C3786FE320BD61207065B65B
:103F6200B8BC005053204C494E45204552524F5246
:103F720020202000546D70252E3166432F486D2578
:103F82002E31662525202000A8B8BF61BDB8652066
:103F9200424BA7B0AB45484F00A461BE7963BA203B
:103FA2004F544BA7B0ABA2482020202020005079CC
:103FB200C0BD6FB9205045A3A54D20202020005040
:103FC20079C0BD6FB920A8A9434B20B365BDBF001E
:103FD2002143B8B4BD61BB20A84FA341505F21204B
:103FE2000041B36170B8C720BEB8BF61BDB8C72079
:103FF200200041B36170B8C720B3786FE3612041FC
:104002004C200041B36170B8C720B3786FE36120E0
:104012005053200041B36170B8C72033383042207A
:10402200202020200041B36170B8C720E461B7B8F6
:10403200706FB3BAB8005065B365706320E461B7BE
:104042002033383042200020202020202020202031
:1040520020202020202020004FBFBABB6FBD65BDAD
:10406200B8652020202020200061BCBEBBB8BF79EB
:10407200E32C422B2F2D00427065BCC720B3C378BE
:104082006FE3612020202000BD61207065B6B8BCBE
:104092002C006365BA2E0054B8BE20E361BFC0B8DD
:1040A200BA61202D5053002D4E4F2D6FBFBA70C3F1
:1040B200BF2D002D4E432DB761BCBABD79BF2D0077
:1040C20054B8BE20E361BFC0B8BA61202D414C0094
:1040D200E06FBE7963BFB8BCC3B920202020202086
:1040E20000BE657065BA6F6320E461B72025004B9E
:1040F2006FBDBF706FBBC420202020202020200075
:10410200BE657065BA6F636120E461B7204F544B9E
:104112000063E3B3B8B420E461B720202025200077
:1041220063E3B3B8B46120E461B7204F544BA720D6
:104132000053797374656D5F61647265732020202A
:1041420020004164726573732064697361626C65F7
:1041520020200020202020202020204F544BA72068
:0E4162002020200055005F5F56005F5F570071
:00000001FF
