:100000000C94BC000C94D9000C94D9000C94D90029
:100010000C94D9000C94D9000C94D9000C941E08AF
:100020000C94D9000C94D9000C94D9000C944B0872
:100030000C94D9000C94D9000C94D9000C94D900DC
:100040000C94D9000C94D9000C94D9000C94D900CC
:100050000C94D9000C94D9000C94D9000C94D900BC
:100060000C94D9000C94D900B90BC40BCF0BDA0B4C
:10007000E50BF00BFB0B6E616E00696E66000040D5
:100080007A10F35A00A0724E18090010A5D4E800A7
:1000900000E87648170000E40B54020000CA9A3BBF
:1000A000000000E1F5050000809698000000404245
:1000B0000F000000A08601000000102700000000D3
:1000C000E803000000006400000000000A000000D7
:1000D00000000100000000002C76D888DC674F0883
:1000E00023DFC1DFAE59E1B1B796E5E3E453C63A89
:1000F000E651997696E8E6C28426EB898C9B62ED00
:10010000407C6FFCEFBC9C9F40F2BAA56FA5F490B9
:10011000055A2AF75C936B6CF9676DC11BFCE0E430
:100120000D47FEF520E6B500D0ED902E0300943586
:1001300077050080841E080000204E0A000000C8D9
:100140000C333333330F986E12831141EF8D21142A
:10015000893BE65516CFFEE6DB18D1844B381BF7FA
:100160007C1D901DA4BBE424203284725E22810099
:10017000C9F124ECA1E53D2711241FBECFEFD8E043
:10018000DEBFCDBF13E0A0E0B1E0E4ECF0E402C0DC
:1001900005900D92A036B107D9F725E0A0E6B3E0AF
:1001A00001C01D92A635B207E1F70E9462080C94C7
:1001B00060200C94000080937C00EAE7F0E08081EE
:1001C00080648083808186FDFDCFE8E7F0E0808158
:1001D0002091790090E0922B91838083808191819E
:1001E00008950F931F93CF93DF93109205041092FD
:1001F000040410929D0310929C031092F503109238
:10020000F403C5E9D0E000E012E083E00E94DB00E7
:10021000909349058093480520910404309105048A
:10022000821793076CF0811522E092072CF09093CF
:1002300005048093040404C010930504009304048F
:1002400087E00E94DB009093800380937F032091DE
:100250009C0330919D03821793076CF0811522E077
:1002600092072CF090939D0380939C0304C01093FD
:100270009D0300939C0386E00E94DB009093A00303
:1002800080939F032091F4033091F5038217930725
:100290006CF0811522E092072CF09093F503809387
:1002A000F40304C01093F5030093F403219709F0BD
:1002B000ACCF8091040490910504DF91CF911F9100
:1002C0000F9108950F931F93CF93DF9341E060E068
:1002D00071E080E090E00E94FE100E94840B80910B
:1002E000660381111DC08091EB0381111DC0109226
:1002F000630360E080E80E94280582E091E00E94AC
:10030000FE051092DE0340E060E870E080E090E0DF
:100310000E94FE101092EA031092E903109261030A
:1003200080916603823029F08091EB03823009F0DE
:100330008CC081E08093610341E060E870E080E080
:1003400090E00E94FE10C091E703D091E803009175
:10035000E9031091EA0390916303913089F441E03D
:1003600060E074E080E090E00E94FE1060E080E8D1
:100370000E94280583E191E00E94FE051092DE03B1
:100380004091E9035091EA032091E7033091E8039B
:100390004217530794F580916303811156C0C01B27
:1003A000D10B60E080E80E94280584E291E00E9481
:1003B000FE0560E08DE80E942805CE016AE070E04D
:1003C0000E94321CCB0162E00E94150660E08FE8BB
:1003D0000E942805CE0164E670E00E94321C61E0B4
:1003E0000E9415062091E9033091EA038091E7030A
:1003F0009091E8032817390744F180916303811134
:1004000016C060E080E80E94280582E391E00E9427
:10041000FE0581E08093DE032091E9033091EA0339
:100420008091E7039091E8032817390774F08091D1
:100430006303823050F060E080E80E94280583E486
:1004400091E00E94FE051092DE038FE39CE9019784
:10045000F1F700C00000DF91CF911F910F91089537
:10046000CF93DF93579A5F982FEF80EE90E0215063
:1004700080409040E1F700C000005F9A579887ECF9
:1004800090E00197F1F700C000004F9935C08FE36D
:1004900091E00197F1F700C000004F9B30C08091C0
:1004A000450580934C054F99FECFAFEDB3E0C4EE08
:1004B000D3E061E070E0FD011C9287E090E04F9B8B
:1004C000FECF2AE82A95F1F700C04F9B0AC0408171
:1004D0009B01082E02C0220F331F0A94E2F7242B3F
:1004E00020834F99FECF019750F71196CA17DB076B
:1004F00011F781E090E005C080E090E002C080E06C
:1005000090E0DF91CF9108958F929F92AF92BF922A
:10051000DF92EF92FF920F931F93CF93DF9310928E
:100520006F030E94300280936F03813009F08AC00C
:100530001092C2031092C103EFEDF3E06081C62F69
:10054000D0E06181062F10E0D2806381E62EF12C8D
:10055000CE01800F911F8D0D911D8E0D9F1D9093CB
:10056000FF038093FE036D2D6F7770E080E090E0D5
:100570000E94BD1D2DEC3CEC4CEC51E40E94491E48
:100580004B015C01B701FF0C880B990B0E94BD1D4C
:100590002DEC3CEC4CEC5DE30E94491E9B01AC0150
:1005A000C501B4010E94A71C4B015C016093CF03FD
:1005B0007093D0038093D1039093D2030E94851D42
:1005C0007093710360937003DD209CF4B7FAB094CC
:1005D000B7F8B0948092CF039092D003A092D10349
:1005E000B092D20371956195710970937103609314
:1005F0007003B801110F880B990B0E94BD1D2DECE3
:100600003CEC4CEC5DE30E94491E4B015C01BE01D9
:10061000DD0F880B990B0E94BD1D2DEC3CEC4CECC2
:1006200051E40E94491E9B01AC01C501B4010E9426
:10063000A71C6093CB037093CC038093CD0390935E
:10064000CE0318C0811109C08091C1039091C203EB
:1006500001969093C2038093C1038091C10390914E
:10066000C2038536910534F084E690E09093C2038E
:100670008093C10310924D05DF91CF911F910F918F
:10068000FF90EF90DF90BF90AF909F908F90089574
:100690000E94840260E080EC0E9428058091CE03D5
:1006A0008F938091CD038F938091CC038F93809112
:1006B000CB038F938091D2038F938091D1038F933B
:1006C0008091D0038F938091CF038F9384E591E045
:1006D0009F938F9383E893E09F938F930E94E01FF3
:1006E00083E893E00E94FE058DB79EB70C960FB687
:1006F000F8949EBF0FBE8DBF0895F999FECF92BDAD
:1007000081BD60BDFA9AF99A0895F999FECF92BD1C
:1007100081BDF89A80B5089580E00E94DB00909337
:100720006803809367038E5492408F36910570F46E
:1007300080916903813051F482E08093660341E047
:1007400060E072E080E090E00E94FE10809167031C
:1007500090916803805991408D3B910508F047C006
:100760002091690321113EC082E08093660341E03D
:1007700060E072E080E090E00E94FE1080916703EC
:1007800090916803805991408F3521E0920718F0CD
:1007900021E0209366038D3B910568F48091690305
:1007A000813049F41092660340E060E072E080E03E
:1007B00090E00E94FE1080916703909168038E5430
:1007C00092408F369105C0F480916903811114C065
:1007D0001092660340E060E072E080E090E00E94EA
:1007E000FE1008958F3521E0920790F6D7CF8F3510
:1007F00021E0920700F3CCCF089581E00E94DB0056
:1008000090936503809364039C012E5432402F36ED
:10081000310508F0B8C080916A03813099F4809165
:100820006203813029F080916103813009F0D7C0E3
:1008300081E08093630341E060E074E080E090E059
:100840000E94FE108091640390916503805991404D
:100850008D3B910508F0D4C080916A038111A5C039
:1008600080916203813029F080916103813009F029
:1008700091C081E08093630341E060E074E080E038
:1008800090E00E94FE1080916403909165038E5465
:1008900092408F369105B0F480916A03813091F4D3
:1008A000809162038111BEC0809161038111BAC041
:1008B00083E08093630341E060E074E080E090E0D7
:1008C0000E94FE10809164039091650380599140CD
:1008D0008D3B910508F07EC080916A0381116FC045
:1008E000809162038111A8C0809161038111A4C02D
:1008F00083E08093630341E060E074E080E090E097
:100900000E94FE108091640390916503805991408C
:100910008F35914050F082E08093630341E060E0C6
:1009200078E080E090E00E94FE1080916403909156
:100930006503805991408D3B910568F480916A036D
:10094000813049F41092630340E060E074E080E09D
:1009500090E00E94FE1080916403909165038E5494
:1009600092408F36910508F072C080916A03811120
:100970006EC01092630340E060E074E080E090E0BD
:100980000E94FE100895805991408D3B910508F416
:1009900063CF41C080916403909165038059914079
:1009A0008D3B910508F49CCF15C080916403909114
:1009B00065038E5492408F36910508F46DCF809177
:1009C000640390916503805991408F35914008F4FC
:1009D000B5CFA1CF8F35914008F4BDCF9CCF80918A
:1009E000640390916503805991408D3B9105E8F235
:1009F0004ACF809164039091650380599140EACF7A
:100A000080916403909165038E5492408F369105D6
:100A100008F442CFEECF8091640390916503805932
:100A20009140D8CF809164039091650380599140A3
:100A30008D3B910520F2CECF8091640390916503A8
:100A4000805991408F35914008F485CF64CF089547
:100A5000CF93C82F613041F441E061E070E080E065
:100A600090E00E94FE1007C040E061E070E080E08E
:100A700090E00E94FE1041E062E070E080E090E0D3
:100A80000E94FE10C4FF08C041E064E070E080E016
:100A900090E00E94FE1007C040E064E070E080E05B
:100AA00090E00E94FE10C5FF08C041E068E070E0E1
:100AB00080E090E00E94FE1007C040E068E070E037
:100AC00080E090E00E94FE10C6FF08C041E060E1B7
:100AD00070E080E090E00E94FE1007C040E060E11E
:100AE00070E080E090E00E94FE10CC2344F441E0EE
:100AF00060E270E080E090E00E94FE1007C040E0FD
:100B000060E270E080E090E00E94FE1040E062E071
:100B100070E080E090E00E94FE108FE39FE101977B
:100B2000F1F700C0000041E062E070E080E090E09A
:100B30000E94FE10C0FF08C041E064E070E080E069
:100B400090E00E94FE1007C040E064E070E080E0AA
:100B500090E00E94FE10C1FF08C041E068E070E034
:100B600080E090E00E94FE1007C040E068E070E086
:100B700080E090E00E94FE10C2FF08C041E060E10A
:100B800070E080E090E00E94FE1007C040E060E16D
:100B900070E080E090E00E94FE10C3FF08C041E0DA
:100BA00060E270E080E090E00E94FE1007C040E04C
:100BB00060E270E080E090E00E94FE1040E062E0C1
:100BC00070E080E090E00E94FE108FE39FE10197CB
:100BD000F1F700C00000CF91089560E082E00E942C
:100BE000280560E088E20E94280560E08CE00E9411
:100BF000280560E081E00E94280508950F931F9367
:100C0000CF93FC018081882361F08F01C0E0CF5F2A
:100C100061E00E942805F801EC0FF11D808181112F
:100C2000F6CFCF911F910F910895CF93DF93EC01F1
:100C3000623009F449C020F4613009F46DC08AC003
:100C40006330C1F0643009F085C09C01369527956A
:100C50003695279536952795A5ECB0E20E944C1C59
:100C6000929582958F7089279F70892761E0805DBA
:100C70000E9428059E013695279536952795ABE766
:100C8000B4E10E944C1CAC01569547959A01ADEC1D
:100C9000BCEC0E944C1C96958795969587959695E9
:100CA00087959C01220F331F880F991F880F991F6A
:100CB000880F991F820F931F9A01281B390BC901B6
:100CC00061E0805D0E9428059E01ADECBCEC0E94B5
:100CD0004C1CAC01569547955695479556954795AA
:100CE0009A010E944C1C96958795969587959695A6
:100CF00087959C01220F331F880F991F880F991F1A
:100D0000880F991F820F931F9A01281B390BC90165
:100D100061E0805D0E9428059E01ADECBCEC0E9464
:100D20004C1C9695879596958795969587959C01E9
:100D3000220F331F880F991F880F991F880F991F43
:100D4000820F931F9E01281B390BC90161E0805D52
:100D50000E942805DF91CF9108951092F903109217
:100D6000D5031092D7038091960390919703019633
:100D700090939703809396036091F4037091F50329
:100D80007250072E000C880B990B0E94BD1D2EEE91
:100D900034E045EB5FE30E94131D21EE3AE744E99E
:100DA0005FE30E94491E0E94851DAB017093DB0327
:100DB0006093DA03209100013091010181EE90E00F
:100DC000821B930B481759072CF02F513F4F2417C4
:100DD00035074CF580914505909146052091FA0321
:100DE0003091FB03821B930B8D349D41A4F440E0B2
:100DF00060E470E080E090E00E94FE108091450584
:100E0000909146052091FA033091FB03821B930BCE
:100E10008D349D41ECF041E060E470E080E090E0D2
:100E20000E94FE1015C081E08093F9038093D503E2
:100E30008091DC039091DD0301969093DD03809314
:100E4000DC0341E060E470E080E090E00E94FE108E
:100E500081E08093D50320919603309197034091D0
:100E6000DC035091DD0364E6649FC001659F900D33
:100E70001124B9010E94321C7093A4036093A30350
:100E80002436310541F41092970310929603109284
:100E9000DD031092DC038091450590914605209179
:100EA000FA033091FB03AC01421B530B9A01283922
:100EB0003A4324F09093FB038093FA0308958091C2
:100EC0006603823039F421E030E03093100420933F
:100ED0000F0404C01092100410920F0420917D039F
:100EE00030917E03232B39F421E030E0309312045B
:100EF0002093110404C01092120410921104813046
:100F000039F481E090E0909314048093130404C0BA
:100F1000109214041092130480916303823039F408
:100F200021E030E0309316042093150404C01092A1
:100F30001604109215049091D503911107C021E079
:100F400030E0309318042093170404C01092180462
:100F5000109217049091D603913039F421E030E0DB
:100F600030931A042093190404C010921A041092AA
:100F7000190490919503923039F421E030E03093D8
:100F80001C0420931B0404C010921C0410921B0428
:100F90009091DE03913039F421E030E03093200469
:100FA00020931F0404C01092200410921F04833069
:100FB00038F081E090E0909322048093210404C0F3
:100FC000109222041092210480910D0490910E043D
:100FD000899724F010921A041092190480917B03CF
:100FE00090917C03899714F110921C0410921B04B9
:100FF0001DC090813296890FE217F307D1F78093D5
:10100000D70381110BC040E060E078E080E090E021
:101010000E94FE108091D703882379F041E060E0C0
:1010200078E080E090E00E94FE1008958091D70360
:10103000E1E1F4E023E234E0DCCF08951F920F9267
:101040000FB60F9211242F933F934F935F936F939B
:101050007F938F939F93AF93BF93EF93FF93809171
:101060004505909146050196909346058093450568
:101070000E94890FFF91EF91BF91AF919F918F9146
:101080007F916F915F914F913F912F910F900FBE84
:101090000F901F9018951F920F920FB60F92112468
:1010A0008F939F938091E9039091EA030196909327
:1010B000EA038093E9039F918F910F900FBE0F90E9
:1010C0001F90189541E060E070E880E090E00E9499
:1010D000FE10AAE7B0E08C9180688C93ECE7F0E01A
:1010E0008081108280818064808380818F6D808385
:1010F0008C9186608C93EBE7F0E080818083EEE753
:10110000F0E080818763808380B7806880BF80E261
:1011100087B992E094B988E185B98EEF8AB918B899
:1011200010928000E1E8F0E080818D608083109271
:1011300085001092840029E03DE3309389002093DC
:10114000880090936F00E0EBF0E080818260808304
:10115000E1EBF0E08081826080831092B2008FEF3B
:101160008093B300E0E7F0E08081826080832FEF1E
:1011700083EC99E0215080409040E1F700C00000EE
:101180000E94ED0560E081E00E94280560E080E8B3
:101190000E94280588E691E00E94FE050E94AD06A7
:1011A0000E94DE174E9A0E94DE1710924A0585E0D3
:1011B00090E09093E8038093E7031092EA03109283
:1011C000E90383E0809354051092C50310929E03B7
:1011D0001092470510927C0310927B0310920E042C
:1011E00010920D041092F8031092F7031092C003AE
:1011F0001092BF0310927E0310927D031092090497
:10120000109208041092C2031092C1031092D603E8
:10121000109295031092DE0383E190E09093F30324
:101220008093F2038DE990E09093C4038093C3030D
:1012300081E090E00E9485038093540582E090E075
:101240000E94850390E09093E8038093E70383E096
:1012500090E00E94850390E090930101809300014B
:1012600086E090E00E948503823018F480936A0340
:1012700003C081E080936A0387E090E00E948503C9
:10128000823018F48093690303C081E0809369037E
:1012900088E090E00E94850390E090937C03809327
:1012A0007B038B9734F089E290E090937C038093EA
:1012B0007B0389E090E00E94850390E090930E0408
:1012C00080930D048B9734F089E290E090930E04A4
:1012D00080930D0480E190E00E94850390E090935C
:1012E000F3038093F2038138910524F01092F30305
:1012F0001092F20381E190E00E94850390E09093C8
:10130000F8038093F703CF9734F08DE390E0909348
:10131000F8038093F70382E190E00E94850390E058
:101320009093C0038093BF038536910534F084E623
:1013300090E09093F8038093F7031092550580E0B6
:101340000E94DB00909368038093670381E00E9412
:10135000DB0090936503809364030E94DE170E9474
:10136000AD060E945F07789410927703109276037F
:1013700040E060E070E880E090E00E94FE1011E044
:10138000C1E0D0E00E94F1000E948C030E94FD03A6
:101390000E94AD060E9428120E945F0780915405AA
:1013A000823009F4C5C01093BE032091A30330918D
:1013B000A40380917B0390917C03820F931F84365A
:1013C0009105D4F440E060E470E080E090E00E9499
:1013D000FE1010927E0310927D0380917B0390910A
:1013E0007C032091A3033091A403280F391F2436D6
:1013F000310514F489975CF0D0937E03C0937D038C
:10140000412F60E470E080E090E00E94FE101B99A4
:1014100046C080916003811142C0809155058111C1
:101420008AC0412F60E070E880E090E00E94FE10EA
:10143000809154058F5F8093540510936003109240
:101440004A051092ED031092EC032FEF86E791E02E
:10145000215080409040E1F700C0000010926203EC
:1014600040E060E870E080E090E00E94FE10809133
:101470005405843010F01093540560915405CE014A
:101480000E947D038FE39CE90197F1F700C0000003
:10149000412F60E070E880E090E00E94FE101B9B0E
:1014A00012C080916003813071F4809155058111E3
:1014B0000AC010924A05109260038FE39CE90197DD
:1014C000F1F700C0000080915405813031F4809123
:1014D0005505811125C00E949D0A809154058230D6
:1014E00031F48091550581111BC00E9462018091E9
:1014F00054058330A9F480915505811111C060E035
:1015000080E80E94280589E791E00E94FE050E947C
:10151000840B40E060E071E080E090E00E94FE100B
:1015200040E060E070E880E090E00E94FE102ACF8A
:101530001092BE033ACF83B1C6CF40E060E071E0C5
:1015400080E090E00E94FE1080914A058111CBC09E
:101550001C9BC6C0809162038111C2C060E080E81C
:101560000E9428058EE891E00E94FE050E94480333
:101570001C9924C080914A05882309F4BAC01EC072
:1015800041E060E070E880E090E00E94FE1081E0C1
:1015900080934A052FEF81EE94E0215080409040E7
:1015A000E1F700C000001092EA031092E90340E066
:1015B00060E070E880E090E00E94FE1080914A05B3
:1015C000813009F09BC01C9B41C080916203811156
:1015D0003DC081E08093620341E060E870E080E01C
:1015E00090E00E94FE1010924A052FEF89EF90E0E4
:1015F000215080409040E1F700C0000080914A05F2
:10160000811173C01C995DC080916203813009F023
:1016100058C080934A0541E060E070E880E090E0C7
:101620000E94FE102FEF82E597E02150804090400D
:10163000E1F700C0000040E060E070E880E090E08A
:101640000E94FE1080914A058130B9F51C9B5BC059
:1016500080916203813009F056C0109262031092AB
:101660004A0560E080E80E9428058EE891E00E942B
:10167000FE050E94480380916603813071F48091D9
:101680006303823050F060E080E80E9428058EE815
:1016900091E00E94FE050E94480340E060E870E08F
:1016A00080E090E00E94FE102FEF89EF90E0215043
:1016B00080409040E1F700C0000080914A05811110
:1016C00022C0809162038130F1F41092DE0360E069
:1016D00080E80E9428058FE991E00E94FE050895A8
:1016E0001C9B07C08BCF83B169CF813009F4AECF8B
:1016F000089580916203811185CF42CF80914A0580
:10170000882309F47FCF0895CF93DF9360E080ECC6
:101710000E9428051092D9031092D803C091EC03BF
:10172000D091ED03C730D10509F0EAC00E9448030B
:10173000C091EC03D091ED03C730D1050CF074C01B
:10174000FE01EE0FFF1FE15FFB4F8081918101974A
:1017500009F060C005C081919191019709F05FC0C7
:10176000C730D10508F051C0FE01EC5CFF4F0C946E
:10177000461C80EB91E00E94FE0581E090E0909392
:10178000D9038093D80341C081EC91E00E94FE050B
:1017900081E090E09093D9038093D80336C082ED26
:1017A00091E00E94FE0581E090E09093D903809340
:1017B000D8032BC083EE91E00E94FE0581E090E00B
:1017C0009093D9038093D80320C084EF91E00E94C6
:1017D000FE0581E090E09093D9038093D80315C073
:1017E00085E092E00E94FE0581E090E09093D903AD
:1017F0008093D8030AC086E192E00E94FE0581E052
:1018000090E09093D9038093D803D093ED03C093D5
:10181000EC030AC0FE01EE0FFF1FEF5EFB4F2196A7
:10182000C730D1050CF497CF8091D8039091D9039C
:10183000892B31F40E9448031092ED031092EC03BF
:101840001C990AC080919E03811106C081E080939B
:101850009E031C9B5AC007C01C9B57C080919E03CF
:10186000813009F052C041E060E070E880E090E033
:101870000E94FE1010929E03E091EC03F091ED03A4
:10188000CF0101969093ED038093EC03DC01AA0F46
:10189000BB1FA15FBB4F2D913C91232B49F5873096
:1018A00091055CF012C0219131912130310549F44C
:1018B0009093ED038093EC0308C0EE0FFF1FED5EE5
:1018C000FB4F01968730910571F78091EC03909161
:1018D000ED03089724F01092ED031092EC032FEF24
:1018E00089EF90E0215080409040E1F700C0000077
:1018F00040E060E070E880E090E00E94FE1005C0EB
:10190000C730D1050CF41CCF95CFDF91CF9108954E
:1019100080917203909173038D30910509F0F0C2AC
:10192000E3E2F4E0228D338D8091EE039091EF039A
:10193000822B932B24893589220F331F220F331FCB
:10194000220F331F822B932B26893789220F331FB7
:10195000220F331F822B932B208D318D220F331FAB
:10196000822B932B9093EF038093EE0308C0299A68
:10197000459A80917203909173030D9711F4299AFF
:10198000459A80917203909173030E9761F4809150
:101990000F0490911004019721F08091EB038230A5
:1019A000B1F4299A459A80917203909173038D3016
:1019B00091050CF4ADC2469711F4299A459A80918D
:1019C0007203909173034F9711F4299A459A80916D
:1019D000720390917303889711F4299A459A809124
:1019E000720390917303C19711F4299A459A8091DB
:1019F000720390917303CA9711F4299A459A8091C2
:101A00007203909173038334910511F4299A459AD6
:101A100080917203909173038C34910511F4299A8B
:101A2000459A8091EE039091EF038230910509F47D
:101A30006AC01CF4892B49F008958330910509F49C
:101A40007FC00E9709F4F7C10895809172039091B9
:101A50007303099711F4299A459A80917203909122
:101A600073030D9711F4299A459A8091720390910E
:101A700073030E9761F480910F0490911004019705
:101A800021F08091EB03823091F4299A459A80915C
:101A9000720390917303469711F4299A459A8091A5
:101AA0007203909173034F9711F4299A459A80918C
:101AB000720390917303889711F4299A459A809143
:101AC000720390917303C19711F4299A459A8091FA
:101AD000720390917303CA9711F4299A459A8091E1
:101AE0007203909173038334910511F4299A459AF6
:101AF00080917203909173038C34910509F008C2B0
:101B0000299A459A089580917203909173030D97D5
:101B100011F4299A459A80917203909173030E975C
:101B200009F0F6C180910F0490911004019729F0FB
:101B30008091EB03823009F0EBC1299A459A089510
:101B400080917203909173030D9711F4299A459A2D
:101B500080917203909173030E9761F480910F044A
:101B600090911004019721F08091EB03823091F461
:101B7000299A459A8091720390917303469711F4C4
:101B8000299A459A80917203909173034F9711F4AB
:101B9000299A459A8091720390917303889711F462
:101BA000299A459A8091720390917303C19711F419
:101BB000299A459A8091720390917303CA9711F400
:101BC000299A459A80917203909173038334910509
:101BD00011F4299A459A80917203909173038C3481
:101BE000910511F4299A459A80917203909173039B
:101BF0009C012E5031092830310520F525E130E0D7
:101C0000281B390B8091C3039091C40302C09595A2
:101C100087952A95E2F78170992720919803309152
:101C20009903822B932B90939903809398030197A8
:101C300011F4299A459A8091980390919903892BE0
:101C400009F4299880917203909173034F97A9F436
:101C50008091980390919903816090939903809368
:101C60009803019709F04DC0299A459A80919803ED
:101C700090919903892B09F429988091720390918E
:101C8000730382970297D8F48091BE03682F617026
:101C900070E08091980390919903682B792B709351
:101CA0009903609398036130710511F4299A459A5C
:101CB0008091980390919903892B09F42998809138
:101CC0007203909173038797E1F480914D05482F3B
:101CD000417050E08091980390919903482B592BC3
:101CE00050939903409398034130510509F00CC17A
:101CF000299A459A8091980390919903892B09F428
:101D000029982091720330917303C901C3970697F4
:101D100060F5809167039091680399230CF4039612
:101D2000959587959595879549E350E0BA01621B93
:101D3000730B02C0959587956A95E2F78170992794
:101D40002091980330919903822B932B90939903C0
:101D500080939803019711F4299A459A80919803EA
:101D600090919903892B09F429988091720390919D
:101D700073039C012C5331092730310520F522E4EF
:101D800030E0281B390B809170039091710302C0E1
:101D9000959587952A95E2F7817099272091980368
:101DA00030919903822B932B9093990380939803FE
:101DB000019711F4299A459A80919803909199037B
:101DC000892B09F429982091720330917303C9017A
:101DD00085549109079708F09BC080916403909106
:101DE000650399230CF403969595879595958795AA
:101DF0004BE450E0BA01621B730B02C095958795C6
:101E00006A95E2F7817099272091980330919903A0
:101E1000822B932B9093990380939803019711F44D
:101E2000299A459A8091980390919903892B09F0FA
:101E30006FC02998089580917203909173030D9754
:101E400011F4299A459A80917203909173034E97E9
:101E500011F4299A459A80917203909173038D979A
:101E600011F4299A459A80917203909173038E9789
:101E700009F04EC08091690490916A04019769F459
:101E80008091770490917804019739F441E060E003
:101E900070E880E090E00E94FE1080916B049091C9
:101EA0006C04019779F48091790490917A040197F8
:101EB00049F440E060E070E880E090E00E94FE10AD
:101EC0001092EB0380916F0490917004019749F494
:101ED00080917D0490917E04019719F482E08093B3
:101EE000EB0380916D0490916E04019789F48091C9
:101EF0007B0490917C04019759F41092EB030895B0
:101F0000099709F03ECD33CD452B09F4F9CE5BCFCF
:101F10000895599A23B1822F817090E090930C0418
:101F200080930B048130910509F02AC18091C6038A
:101F300081115EC18091C7039091C8039C01295013
:101F400031092230310528F41092C8031092C703DA
:101F50002EC04297039738F481E090E09093C80335
:101F60008093C70342C08091C7039091C8034B97E9
:101F70000897E8F482E090E09093C8038093C70349
:101F8000109273031092720310927A0310927903E5
:101F90001092A6031092A5031092EF031092EE0385
:101FA00020E030E0909324048093230482C0809149
:101FB000C7039091C803893E9340BCF0109273030D
:101FC0001092720310927A03109279031092A60372
:101FD0001092A5031092EF031092EE031092EB0300
:101FE000109224041092230474C020917203309143
:101FF0007303F901EE0FFF1FED5DFB4F8091C703E7
:102000009091C803918380832830310509F051C035
:10201000E3E2F4E0208931898091A5039091A60341
:10202000822B932B248135810024369527950794A4
:10203000369527950794322F202D822B932B2681BE
:102040003781220F331F22953295307F3227207F30
:102050003227822B932B2085318522953295307F34
:102060003227207F3227822B932B22853385220F24
:10207000331F220F331F220F331F822B932B2485F4
:102080003585220F331F220F331F822B932B26857A
:102090003785220F331F822B932B9093A6038093B7
:1020A000A503009709F09BC01092A8031092A70304
:1020B00096C04091A5035091A6038091F2039091A0
:1020C000F3034817590729F42830310514F00E940A
:1020D000880C81E08093C6031092F6031092C80327
:1020E0001092C703109299031092980380912504CF
:1020F00090912604019711F580912704909128046E
:10210000892BE1F480917203909173030297B1F4EB
:102110008091A7039091A80301969093A8038093C0
:10212000A7032091F2033091F3038217930731F450
:102130009093A6038093A503299A459A80917203F0
:10214000909173030196909373038093720380912F
:102150000B0490910C048130910509F449C010C022
:102160008091A1039091A20301969093A203809382
:10217000A10380910B0490910C04892BE9F02DC0F0
:10218000892B59F58091F603811116C0299845983D
:1021900081E08093F6031092C6031092A20310927E
:1021A000A10310927A031092790380910B0490910D
:1021B0000C04892B29F011C08091F603813069F459
:1021C0001092A2031092A1038091C7039091C803BB
:1021D00001969093C8038093C7035998089520915E
:1021E000F2033091F3038217930709F072CF6FCF98
:1021F0008091C603813009F4B3CFEFCF0F931F93C3
:102200004130B9F400916B0310916C0320916D0380
:1022100030916E03DC01CB01802B912BA22BB32BD1
:1022200080936B0390936C03A0936D03B0936E0344
:102230001AC000916B0310916C0320916D033091D3
:102240006E03DC01CB0180959095A095B09580231D
:102250009123A223B32380936B0390936C03A093E9
:102260006D03B0936E035B985C9880916B039091C3
:102270006C03A0916D03B0916E0397FF02C05A9A50
:1022800001C05A985C9A5C9880916B0390916C03A2
:10229000A0916D03B0916E0396FF02C05A9A01C0DF
:1022A0005A985C9A5C9880916B0390916C03A09112
:1022B0006D03B0916E0395FF02C05A9A01C05A98FF
:1022C0005C9A5C9880916B0390916C03A0916D0374
:1022D000B0916E0394FF02C05A9A01C05A985C9A5A
:1022E0005C9880916B0390916C03A0916D03B09109
:1022F0006E0393FF02C05A9A01C05A985C9A5C9888
:1023000080916B0390916C03A0916D03B0916E036B
:1023100092FF02C05A9A01C05A985C9A5C988091C8
:102320006B0390916C03A0916D03B0916E0391FFCC
:1023300002C05A9A01C05A985C9A5C9880916B03CB
:1023400090916C03A0916D03B0916E0390FF02C059
:102350005A9A01C05A985C9A5C9880916B0390914C
:102360006C03A0916D03B0916E0387FF02C05A9A6F
:1023700001C05A985C9A5C9880916B0390916C03B1
:10238000A0916D03B0916E0386FF02C05A9A01C0FE
:102390005A985C9A5C9880916B0390916C03A09121
:1023A0006D03B0916E0385FF02C05A9A01C05A981E
:1023B0005C9A5C9880916B0390916C03A0916D0383
:1023C000B0916E0384FF02C05A9A01C05A985C9A79
:1023D0005C9880916B0390916C03A0916D03B09118
:1023E0006E0383FF02C05A9A01C05A985C9A5C98A7
:1023F00080916B0390916C03A0916D03B0916E037B
:1024000082FF02C05A9A01C05A985C9A5C988091E7
:102410006B0390916C03A0916D03B0916E0381FFEB
:1024200002C05A9A01C05A985C9A5C9880916B03DA
:1024300090916C03A0916D03B0916E0380FF02C078
:102440005A9A01C05A985C9A5B9A1F910F9108950D
:102450001D9B3FC08091C50381113BC080915405F5
:10246000833009F0A8C541E060E070E880E090E0CA
:102470000E94FE10809155058F5F8093550581E085
:102480008093C5032FEF80E792E021508040904079
:10249000E1F700C0000060E080EC0E94280587E2C0
:1024A00092E00E94FE0580915505883028F083E077
:1024B00080935405109255056091550580E090E099
:1024C0000E947D0340E060E070E880E090E00E94C0
:1024D000FE101D9913C08091C503813079F480915D
:1024E0005405833059F41092C5032FEF89EF90E023
:1024F000215080409040E1F700C0000080915505D8
:10250000813009F082C060E080E80E94280588E3FD
:1025100092E00E94FE0560E080EC0E94280589E4BC
:1025200092E00E94FE0560E08EEC0E9428058091FA
:102530000001909101016AE070E00E94321CCB0121
:1025400061E00E94150660E08FEC0E9428058091F2
:1025500000019091010164E670E00E94321C61E08C
:102560000E9415061B9935C080919E03811131C0D0
:1025700041E060E070E880E090E00E94FE10809111
:102580000001909101010296893291052CF49093FB
:1025900001018093000104C010920101109200011A
:1025A00081E080939E036091000183E090E00E94AF
:1025B0007D032FEF89EF90E0215080409040E1F7BC
:1025C00000C0000040E060E070E880E090E00E9421
:1025D000FE101B9B1AC080919E038130B1F41092B3
:1025E0009E0341E060E070E880E090E00E94FE1011
:1025F0008FE39CE90197F1F700C0000040E060E044
:1026000070E880E090E00E94FE10809155058230D5
:1026100009F093C060E080E80E94280587E592E019
:102620000E94FE0560E080EC0E94280588E692E0AA
:102630000E94FE0560E08CEC0E94280582E792E093
:102640000E94FE0582E090E00E94850390E0909356
:10265000E8038093E70360E08AEC0E9428058091FC
:10266000E7039091E8036AE070E00E94321CCB011E
:1026700061E00E94150660E08BEC0E9428058091C5
:10268000E7039091E80364E670E00E94321C61E089
:102690000E9415061B9935C080919E03811131C09F
:1026A00041E060E070E880E090E00E94FE108091E0
:1026B000E7039091E8030196853191052CF49093FE
:1026C000E8038093E70304C01092E8031092E70345
:1026D00081E080939E036091E70382E090E00E9496
:1026E0007D039FEF29EF80E0915020408040E1F78B
:1026F00000C0000040E060E070E880E090E00E94F0
:10270000FE101B9B1AC080919E038130B1F4109281
:102710009E0341E060E070E880E090E00E94FE10DF
:102720008FE39CE90197F1F700C0000040E060E012
:1027300070E880E090E00E94FE10809155058330A3
:1027400009F0C1C060E080E80E94280587E792E0B8
:102750000E94FE0581E00E94DB0090936503809358
:10276000640360E08DEC0E942805809164039091E1
:1027700065036AE070E00E94321CCB0162E00E94B7
:10278000150660E08FEC0E9428058091640390910B
:10279000650364E670E00E94321C61E00E94150649
:1027A00080916A03811108C060E080EC0E942805D6
:1027B00087E892E00E94FE0580916A03813041F42F
:1027C00060E080EC0E94280583E992E00E94FE050B
:1027D0001B995AC080914705811156C041E060E0C5
:1027E00070E880E090E00E94FE1080916A03811101
:1027F00020C080914705811140C081E0809347054A
:1028000080936A0360E080EC0E94280583E992E0EF
:102810000E94FE0560916A0386E090E00E947D03BD
:102820009FEF20E782E0915020408040E1F700C018
:10283000000080916A03813001F580914705811184
:102840001CC081E08093470510926A0360E080EC31
:102850000E94280587E892E00E94FE0560916A03C5
:1028600086E090E00E947D039FEF20E782E0915098
:1028700020408040E1F700C0000040E060E070E8E8
:1028800080E090E00E94FE101B9B1DC080914705D8
:102890008130C9F441E060E070E880E090E00E949F
:1028A000FE10109247059FEF20E782E091502040F4
:1028B0008040E1F700C0000040E060E070E880E0A8
:1028C00090E00E94FE1080915505843009F0C1C04F
:1028D00060E080E80E94280580EA92E00E94FE0500
:1028E00082E00E94DB00909368038093670360E0BE
:1028F0008DEC0E94280580916703909168036AE03F
:1029000070E00E94321CCB0162E00E94150660E07C
:102910008FEC0E942805809167039091680364E61C
:1029200070E00E94321C61E00E94150680916903EC
:10293000811108C060E080EC0E94280587E892E0E1
:102940000E94FE0580916903813041F460E080ECD3
:102950000E94280583E992E00E94FE051B995AC057
:1029600080914705811156C041E060E070E880E049
:1029700090E00E94FE1080916903811120C0809137
:102980004705811140C081E080934705809369032A
:1029900060E080EC0E94280583E992E00E94FE0539
:1029A0006091690387E090E00E947D039FEF20E73C
:1029B00082E0915020408040E1F700C0000080910B
:1029C0006903813001F58091470581111CC081E0C8
:1029D000809347051092690360E080EC0E9428050F
:1029E00087E892E00E94FE056091690387E090E02D
:1029F0000E947D039FEF20E782E0915020408040BD
:102A0000E1F700C0000040E060E070E880E090E0A6
:102A10000E94FE101B9B1DC0809147058130C9F4A8
:102A200041E060E070E880E090E00E94FE101092CB
:102A300047059FEF20E782E0915020408040E1F77A
:102A400000C0000040E060E070E880E090E00E949C
:102A5000FE1080915505853009F0FBC081E190E0C2
:102A60000E94850390E09093F8038093F7030A9601
:102A70008734910578F560E080E80E94280580EBB6
:102A800092E00E94FE0560E080EC0E94280580EC48
:102A900092E00E94FE0560E08EEC0E942805809185
:102AA000F7039091F8036AE070E00E94321CCB01BA
:102AB00061E00E94150660E08FEC0E94280580917D
:102AC000F7039091F80364E670E00E94321C61E025
:102AD0000E9415068091F7039091F8030A968734B7
:102AE000910580F060E080E80E9428058FEC92E07C
:102AF0000E94FE0560E080EC0E94280580EE92E0D6
:102B00000E94FE051B9935C080919E03811131C042
:102B100041E060E070E880E090E00E94FE1080916B
:102B2000F7039091F80302968F3391052CF490935C
:102B3000F8038093F70304C01092F8031092F70390
:102B400081E080939E036091F70381E190E00E9411
:102B50007D039FEF29EF80E0915020408040E1F716
:102B600000C0000040E060E070E880E090E00E947B
:102B7000FE101B9B1AC080919E038130B1F441E08E
:102B800060E070E880E090E00E94FE1010929E03EA
:102B90008FE39CE90197F1F700C0000040E060E09E
:102BA00070E880E090E00E94FE101C9936C0809191
:102BB0004705811132C041E060E070E880E090E0BC
:102BC0000E94FE108091F7039091F8030197863FD1
:102BD0002FEF92072CF09093F8038093F70304C033
:102BE0001092F8031092F70381E0809347056091FB
:102BF000F70381E190E00E947D038FEF99EF20E0E1
:102C0000815090402040E1F700C0000040E060E0CB
:102C100070E880E090E00E94FE101C9B1AC080913A
:102C200047058130B1F441E060E070E880E090E079
:102C30000E94FE10109247058FE39CE90197F1F77F
:102C400000C0000040E060E070E880E090E00E949A
:102C5000FE1080915505863009F0FCC089E090E0B7
:102C60000E94850390E090930E0480930D04809160
:102C7000BF039091C00384369105B4F560E080E80D
:102C80000E94280581EF92E00E94FE0560E080EC42
:102C90000E94280582E093E00E94FE0560E08EEC31
:102CA0000E9428058091BF039091C0036AE070E004
:102CB0000E94321CCB0161E00E94150660E08FEC9F
:102CC0000E9428058091BF039091C00364E670E0E4
:102CD0000E94321C61E00E9415068091BF03909112
:102CE000C0038436910584F060E080E80E942805E6
:102CF0008FEC92E00E94FE0560E080EC0E942805C7
:102D000081E193E00E94FE051B9935C080919E03EE
:102D1000811131C041E060E070E880E090E00E9405
:102D2000FE108091BF039091C003029685369105F5
:102D30002CF49093C0038093BF0304C01092C0038F
:102D40001092BF0381E080939E036091BF0382E1F4
:102D500090E00E947D039FEF29EF80E0915020409A
:102D60008040E1F700C0000040E060E070E880E0F3
:102D700090E00E94FE101B9B1AC080919E03813040
:102D8000B1F410929E0341E060E070E880E090E0D2
:102D90000E94FE108FE39CE90197F1F700C000004C
:102DA00040E060E070E880E090E00E94FE101C9936
:102DB00035C080914705811131C041E060E070E885
:102DC00080E090E00E94FE108091BF039091C003CC
:102DD00001972AF09093C0038093BF0306C084E656
:102DE00090E09093C0038093BF0381E080934705F8
:102DF0006091BF0382E190E00E947D039FEF29EF85
:102E000080E0915020408040E1F700C0000040E0A9
:102E100060E070E880E090E00E94FE101C9B1AC009
:102E2000809147058130B1F441E060E070E880E0D6
:102E300090E00E94FE10109247058FE39CE90197F5
:102E4000F1F700C0000040E060E070E880E090E052
:102E50000E94FE1080915505873009F0AEC060E0F9
:102E60008DE80E94280563E080919A0390919B036E
:102E70000E9415068091F2039091F303803891052A
:102E80007CF560E080E80E94280582E293E00E94E1
:102E9000FE0560E080EC0E9428058AE292E00E9434
:102EA000FE0560E08CEC0E9428058091F203909171
:102EB000F3036AE070E00E94321CCB0162E00E94E2
:102EC000150660E08EEC0E9428058091F203909137
:102ED000F30364E670E00E94321C61E00E94150674
:102EE0008091F2039091F3038038910581F460E0C2
:102EF00080E80E94280583E393E00E94FE0560E0DD
:102F000080EC0E94280584E493E00E94FE051B9952
:102F100035C080919E03811131C041E060E070E8CE
:102F200080E090E00E94FE108091F2039091F30304
:102F30000196813891052CF49093F3038093F2036A
:102F400004C01092F3031092F20381E080939E0379
:102F50006091F20380E190E00E947D039FEF29EFF2
:102F600080E0915020408040E1F700C0000040E048
:102F700060E070E880E090E00E94FE101B9B1DC0A6
:102F800080919E038130C9F410929E0341E060E07D
:102F900070E880E090E00E94FE108FE39CE90197CA
:102FA000F1F700C0000040E060E070E880E090E0F1
:102FB0000E94FE10089583B1A1CA08950F931F9334
:102FC000CF93DF9360E080EC0E94280585E593E0D5
:102FD0000E94FE0560910404709105047250072E52
:102FE000000C880B990B0E94BD1D2EEE34E045EBC2
:102FF0005FE30E94131D21EE3AE744E95FE30E947C
:10300000491E0E94851D709351056093500560E034
:1030100081EC0E94280580915005909151050AE0AD
:1030200010E0B8010E94321CCB0162E00E9415063C
:1030300060E083EC0E942805809150059091510535
:10304000C4E6D0E0BE010E94321C61E00E94150679
:103050000E94F10060E084EC0E94280587E593E07F
:103060000E94FE0560919C0370919D037250072E93
:10307000000C880B990B0E94BD1D2EEE34E045EB31
:103080005FE30E94131D21EE3AE744E95FE30E94EB
:10309000491E0E94851D7093CA036093C90360E0B6
:1030A00087EC0E9428058091C9039091CA03B8015A
:1030B0000E94321CCB0162E00E94150660E089ECA0
:1030C0000E9428058091C9039091CA03BE010E9405
:1030D000321C61E00E9415060E94F10060E08AEC5B
:1030E0000E9428058BE593E00E94FE056091F403A1
:1030F0007091F5037250072E000C880B990B0E94FB
:10310000BD1D2EEE34E045EB5FE30E94131D21EE62
:103110003AE744E95FE30E94491E0E94851D7093CF
:1031200094036093930360E08DEC0E9428058091E6
:10313000930390919403B8010E94321CCB0162E08A
:103140000E94150660E08FEC0E9428058091930391
:1031500090919403BE010E94321C61E00E9415060A
:10316000DF91CF911F910F910895A0E1B0E0EBEBBB
:10317000F8E10C945B1C7C011B016A01FC011782C5
:103180001682838181FF44C39E012F5F3F4F390127
:10319000F7019381F10193FD859193FF81911F01C7
:1031A000882309F431C3853239F493FD859193FF67
:1031B00081911F01853239F4B70190E00E94A41F6C
:1031C00056016501E5CF10E0512C912CFFE1F91576
:1031D000D8F08B3279F038F4803279F08332A1F470
:1031E000F92DF0612EC08D3261F0803369F4292D04
:1031F00021602DC0392D3260932E892D8460982E48
:103200002AC0E92DE86015C097FC2DC020ED280FDD
:103210002A3088F496FE06C03AE0139F200D112450
:10322000122F19C08AE0589E200D1124522EE92D2C
:10323000E0629E2E10C08E3231F496FCE5C2F92D6C
:10324000F0649F2E08C08C3621F4292D2068922E20
:1032500002C0883641F4F10193FD859193FF81917D
:103260001F018111B3CF9BEB980F933020F4992D60
:103270009061805E07C09BE9980F933008F066C1AB
:10328000992D9F7E96FF16E09F73992E853619F42F
:103290009064992E08C0863621F4392F3068932E19
:1032A00002C01111115097FE07C01C3350F4442482
:1032B0004394410E27E00BC0183038F027E017E0A8
:1032C00005C027E09CE3492E02C0212F412C560166
:1032D00084E0A80EB11CF601608171818281938126
:1032E000042DA3010E94B61E6C01F981FC87F0FF3A
:1032F00002C0F3FF06C091FC06C092FE06C000E2C9
:1033000005C00DE203C00BE201C000E08C858C70AB
:1033100019F001115AC29BC297FE10C04C0CFC85DB
:10332000F4FF04C08A81813309F44A94141474F5BB
:1033300028E0241578F588E0482E2CC096FC2AC099
:10334000812F90E08C159D059CF03CEFC3163FEF5C
:10335000D30674F0892D8068982E0AC0E2E0F0E070
:10336000EC0FFD1FE10FF11D8081803319F4115026
:103370001111F4CF97FE0EC044244394410E812FC7
:1033800090E0C816D9062CF41C1904C044244394B8
:1033900001C010E097FE06C01C141D0434F4C601E1
:1033A000019605C085E090E002C081E090E0011147
:1033B0000196112331F0212F30E02F5F3F4F820F14
:1033C000931F252D30E08217930714F4581A01C07B
:1033D000512C892D897049F4552039F0B70180E2CC
:1033E00090E00E94A41F5A94F7CF002329F0B70160
:1033F000802F90E00E94A41F93FC09C0552039F053
:10340000B70180E390E00E94A41F5A94F7CF97FE83
:103410004CC04601D7FE02C0812C912CC6018819F0
:103420009909F301E80FF91FFE87ED87960124192A
:103430003109388B2F87012F10E011950195110963
:103440003FEF8316930629F4B7018EE290E00E94C5
:10345000A41FC814D9044CF08F8598898815990544
:1034600024F4ED85FE85818101C080E3F1E08F1AAF
:1034700091082D853E852F5F3F4F3E872D87801613
:1034800091062CF0B70190E00E94A41FD9CFC81478
:10349000D90441F49A81963320F4953319F43C858C
:1034A00034FF81E3B70190E04EC08A81813319F087
:1034B0009C859F7E9C87B70190E00E94A41F1111FC
:1034C00005C094FC18C085E690E017C0B7018EE2F5
:1034D00090E00E94A41F1E5F82E001E0080FF3014C
:1034E000E80FF11D8081B70190E00E94A41F802F9A
:1034F0000113F3CFE6CF85E490E0B7010E94A41F4B
:10350000D7FC06C0C114D10441F4EC85E4FF05C02A
:10351000D194C194D1088DE201C08BE2B70190E053
:103520000E94A41F80E32AE0C216D1042CF08F5F12
:10353000FAE0CF1AD108F7CFB70190E00E94A41F9C
:10354000B701C601C0960E94A41F54C1833631F052
:10355000833779F0833509F056C020C0560132E038
:10356000A30EB11CF6018081898301E010E06301A4
:1035700012C05601F2E0AF0EB11CF601C080D1803E
:1035800096FE03C0612F70E002C06FEF7FEFC601AF
:103590000E94991F8C01F92DFF7714C0560122E07B
:1035A000A20EB11CF601C080D18096FE03C0612F2F
:1035B00070E002C06FEF7FEFC6010E948E1F8C018A
:1035C000F92DF0689F2EF3FD1AC0852D90E00817A5
:1035D0001907A8F4B70180E290E00E94A41F5A9452
:1035E000F4CFF60197FC859197FE81916F01B701A9
:1035F00090E00E94A41F51105A9401501109011526
:10360000110579F7F7C0843611F0893661F5560156
:1036100097FE09C024E0A20EB11CF6016081718101
:10362000828193810AC0F2E0AF0EB11CF601608185
:103630007181072E000C880B990BF92DFF769F2EB8
:1036400097FF09C090958095709561957F4F8F4F3A
:103650009F4FF0689F2E2AE030E0A3010E940220D5
:10366000C82EC6183FC0092D853721F40F7E2AE0E9
:1036700030E01DC0097F8F3691F018F4883559F07D
:10368000C3C0803719F0883711F0BEC0006104FF55
:1036900009C0046007C094FE08C0066006C028E0A8
:1036A00030E005C020E130E002C020E132E0560108
:1036B00007FF09C084E0A80EB11CF601608171818A
:1036C0008281938108C0F2E0AF0EB11CF6016081E7
:1036D000718180E090E0A3010E940220C82EC618EC
:1036E0000F77902E96FE0BC0092D0E7FC11650F459
:1036F00094FE0AC092FC08C0092D0E7E05C0DC2C89
:10370000092D03C0DC2C01C0D12E04FF0DC0FE0129
:10371000EC0DF11D8081803311F4097E09C002FF98
:1037200006C0D394D39404C0802F867809F0D39434
:1037300003FD11C000FF06C01C2DD51480F4150D2B
:103740001D190DC0D51458F4B70180E290E00E9415
:10375000A41FD394F7CFD51410F45D1801C0512CD9
:1037600004FF10C0B70180E390E00E94A41F02FF95
:1037700017C001FD03C088E790E002C088E590E033
:10378000B7010CC0802F867859F001FF02C08BE290
:1037900001C080E207FD8DE2B70190E00E94A41F06
:1037A000C11638F4B70180E390E00E94A41F1150C5
:1037B000F7CFCA94F301EC0DF11D8081B70190E0C1
:1037C0000E94A41FC110F5CF15C0F4E0F51560F5F7
:1037D00084E0581A93FE1FC0011127C02C8523FFD7
:1037E0002AC006E710E0392D3071932EF80184913C
:1037F000811124C0552009F4E4CCB70180E290E0A7
:103800000E94A41F5A94F6CFF7018681978126C0A3
:103810008FEF9FEF23C0B70180E290E00E94A41FCA
:103820005A945110F8CFD8CF512CB701802F90E087
:103830000E94A41FD3CF0AE710E0D5CF9110805289
:10384000B70190E00E94A41F0F5F1F4FCFCF23E06E
:10385000251510F483E0BDCF512CC0CF6096E2E176
:103860000C94771C97FB072E16F4009407D077FD75
:1038700009D00E94921C07FC05D03EF490958195DA
:103880009F4F0895709561957F4F0895EE0FFF1F2C
:103890000590F491E02D0994A29FB001B39FC0015F
:1038A000A39F700D811D1124911DB29F700D811D6C
:1038B0001124911D08952F923F924F925F926F9223
:1038C0007F928F929F92AF92BF92CF92DF92EF92B0
:1038D000FF920F931F93CF93DF93CDB7DEB7CA1B31
:1038E000DB0B0FB6F894DEBF0FBECDBF09942A885C
:1038F000398848885F846E847D848C849B84AA8404
:10390000B984C884DF80EE80FD800C811B81AA8190
:10391000B981CE0FD11D0FB6F894DEBF0FBECDBF5B
:10392000ED010895AA1BBB1B51E107C0AA1FBB1FD5
:10393000A617B70710F0A61BB70B881F991F5A953B
:10394000A9F780959095BC01CD0108955058BB27EB
:10395000AA270E94BE1C0C940F1E0E94011E38F064
:103960000E94081E20F039F49F3F19F426F40C94AD
:10397000FE1D0EF4E095E7FB0C94F81DE92F0E9464
:10398000201E58F3BA17620773078407950720F0C3
:1039900079F4A6F50C94421E0EF4E0950B2EBA2F86
:1039A000A02D0B01B90190010C01CA01A001112445
:1039B000FF27591B99F0593F50F4503E68F11A16F1
:1039C000F040A22F232F342F4427585FF3CF469582
:1039D00037952795A795F0405395C9F77EF41F16A4
:1039E000BA0B620B730B840BBAF09150A1F0FF0F6E
:1039F000BB1F661F771F881FC2F70EC0BA0F621F5A
:103A0000731F841F48F4879577956795B795F79549
:103A10009E3F08F0B0CF9395880F08F09927EE0FDE
:103A20009795879508950E94271D0C940F1E0E945C
:103A3000081E58F00E94011E40F029F45F3F29F053
:103A40000C94F81D51110C94431E0C94FE1D0E9401
:103A5000201E68F39923B1F3552391F3951B550B61
:103A6000BB27AA2762177307840738F09F5F5F4F51
:103A7000220F331F441FAA1FA9F335D00E2E3AF090
:103A8000E0E832D091505040E695001CCAF72BD0A8
:103A9000FE2F29D0660F771F881FBB1F26173707F9
:103AA0004807AB07B0E809F0BB0B802DBF01FF272B
:103AB00093585F4F3AF09E3F510578F00C94F81DF3
:103AC0000C94431E5F3FE4F3983ED4F386957795BC
:103AD0006795B795F7959F5FC9F7880F911D9695E4
:103AE000879597F90895E1E0660F771F881FBB1F40
:103AF000621773078407BA0720F0621B730B840BED
:103B0000BA0BEE1F88F7E09508950E948C1D68940B
:103B1000B1110C94431E08950E94281E88F09F57EF
:103B200098F0B92F9927B751B0F0E1F0660F771FE1
:103B3000881F991F1AF0BA95C9F714C0B13091F0D7
:103B40000E94421EB1E008950C94421E672F782F08
:103B50008827B85F39F0B93FCCF38695779567959C
:103B6000B395D9F73EF490958095709561957F4F08
:103B70008F4F9F4F0895E89409C097FB3EF49095AE
:103B80008095709561957F4F8F4F9F4F9923A9F036
:103B9000F92F96E9BB279395F695879577956795C5
:103BA000B795F111F8CFFAF4BB0F11F460FF1BC009
:103BB0006F5F7F4F8F4F9F4F16C0882311F096E99C
:103BC00011C0772321F09EE8872F762F05C066234A
:103BD00071F096E8862F70E060E02AF09A95660F03
:103BE000771F881FDAF7880F9695879597F90895BC
:103BF00097F99F6780E870E060E008959FEF80ECA0
:103C0000089500240A941616170618060906089542
:103C100000240A9412161306140605060895092EA8
:103C20000394000C11F4882352F0BB0F40F4BF2B17
:103C300011F460FF04C06F5F7F4F8F4F9F4F089557
:103C400057FD9058440F551F59F05F3F71F047954D
:103C5000880F97FB991F61F09F3F79F08795089532
:103C6000121613061406551FF2CF4695F1DF08C051
:103C7000161617061806991FF1CF8695710561056E
:103C800008940895E894BB2766277727CB0197F916
:103C900008950E945C1E0C940F1E0E94011E38F0B5
:103CA0000E94081E20F0952311F00C94F81D0C942E
:103CB000FE1D11240C94431E0E94201E70F3959F3C
:103CC000C1F3950F50E0551F629FF001729FBB2713
:103CD000F00DB11D639FAA27F00DB11DAA1F649FAF
:103CE0006627B00DA11D661F829F2227B00DA11D62
:103CF000621F739FB00DA11D621F839FA00D611DE8
:103D0000221F749F3327A00D611D231F849F600D08
:103D1000211D822F762F6A2F11249F5750409AF031
:103D2000F1F088234AF0EE0FFF1FBB1F661F771FBD
:103D3000881F91505040A9F79E3F510580F00C9488
:103D4000F81D0C94431E5F3FE4F3983ED4F3869530
:103D500077956795B795F795E7959F5FC1F7FE2B28
:103D6000880F911D9695879597F90895283008F04A
:103D700027E03327DA01990F311D87FD9160009606
:103D80006105710539F432602E5F3D9330E32A9569
:103D9000E1F708959F3F30F080387105610509F023
:103DA0003C5F3C5F3D93913008F08068911DDF934C
:103DB000CF931F930F93FF92EF92192F987F9695B1
:103DC000E92F96959695E90FFF27E852FF4F99271F
:103DD0003327EE24FF24A701E701059008940794F8
:103DE00028F4360FE71EF81E491F511D660F771F76
:103DF000881F991F0694A1F70590079428F4E70EF1
:103E0000F81E491F561FC11D770F881F991F661F77
:103E10000694A1F70590079428F4F80E491F561F41
:103E2000C71FD11D880F991F661F771F0694A1F722
:103E30000590079420F4490F561FC71FD81F990FEC
:103E4000661F771F881F0694A9F784911095177035
:103E500041F0D695C79557954795F794E7941A95ED
:103E6000C1F7EEE7F0E068941590159135916591F2
:103E7000959105907FE27395E118F10A430B560B7B
:103E8000C90BD009C0F7E10CF11E431F561FC91F13
:103E9000D01D7EF4703311F48A95E6CFE89401507A
:103EA00030F0080F0AF40027021708F4202F23959A
:103EB000022F7A3328F079E37D932A95E9F710C031
:103EC0007D932A9589F6069497956795379517956A
:103ED0001794E118F10A430B560BC90BD00998F05F
:103EE00023957E9173957A3308F070E37C932013C9
:103EF000B8F77E9170617D9330F0839571E37D9387
:103F000070E32A95E1F71124EF90FF900F911F9134
:103F1000CF91DF91992787FD90950895FC01059039
:103F2000615070400110D8F7809590958E0F9F1FBB
:103F30000895FC016150704001900110D8F7809500
:103F400090958E0F9F1F08950F931F93CF93DF932C
:103F5000FB01238121FD03C08FEF9FEF2CC022FFC7
:103F600016C046815781248135814217530744F496
:103F7000A081B1819D012F5F3F4F318320838C93BE
:103F8000268137812F5F3F4F3783268314C08B01F3
:103F9000EC01FB010084F185E02D0995892BE1F608
:103FA000D80116968D919C911797019617969C9320
:103FB0008E931697CE01DF91CF911F910F910895A7
:103FC000AEE0B0E0E6EEFFE10C94691C0D891E89BD
:103FD00086E08C831A8309838FEF9FE79E838D830E
:103FE000AE01475E5F4F6F89788DCE0101960E94CA
:103FF000B518EF81F885E00FF11F10822E96E4E0EE
:104000000C94851CFA01AA27283051F1203181F146
:10401000E8946F936E7F6E5F7F4F8F4F9F4FAF4FD0
:10402000B1E03ED0B4E03CD0670F781F891F9A1FE3
:10403000A11D680F791F8A1F911DA11D6A0F711D97
:10404000811D911DA11D20D009F468943F912AE0A3
:10405000269F11243019305D3193DEF6CF0108958B
:10406000462F4770405D4193B3E00FD0C9F7F6CFBC
:10407000462F4F70405D4A3318F0495D31FD405284
:10408000419302D0A9F7EACFB4E0A695979587951A
:1040900077956795BA95C9F70097610571050895F9
:1040A0009B01AC010A2E06945795479537952795A5
:1040B000BA95C9F7620F731F841F951FA01D08953D
:0440C000F894FFCFA2
:1040C40005004142544F2020205045A3A54D2020F7
:1040D40020200042C3786FE320BD61207065B6B82C
:1040E400BC202000A16FBF6FB3BD6F63BFC42E2E71
:1040F4002E004865B3C3786FE320BD61207065B6B8
:10410400B8BC005053204C494E45204552524F52A2
:1041140020202000546D70252E3166432F486D25D4
:104124002E31662525202000A8B8BF61BDB86520C2
:10413400424BA7B0AB45484F00A461BE7963BA2097
:104144004F544BA7B0ABA248202020202000507928
:10415400C0BD6FB9205045A3A54D2020202000509C
:1041640079C0BD6FB920A8A9434B20B365BDBF007A
:104174002143B8B4BD61BB20A84FA341505F2120A7
:104184000041B36170B8C720BEB8BF61BDB8C720D5
:10419400200041B36170B8C720B3786FE361204158
:1041A4004C200041B36170B8C720B3786FE361203D
:1041B4005053200041B36170B8C7203338304220D7
:1041C400202020200041B36170B8C720E461B7B853
:1041D400706FB3BAB8005065B365706320E461B71B
:1041E400203338304220002020202020202020208E
:1041F40020202020202020004FBFBABB6FBD65BD0A
:10420400B8652020202020200061BCBEBBB8BF7947
:10421400E32C422B2F2D00427065BCC720B3C3781A
:104224006FE3612020202000BD61207065B6B8BC1A
:104234002C006365BA2E0054B8BE20E361BFC0B839
:10424400BA61202D5053002D4E4F2D6FBFBA70C34D
:10425400BF2D002D4E432DB761BCBABD79BF2D00D3
:1042640054B8BE20E361BFC0B8BA61202D414C00F0
:10427400A86F706FB420637061B26FBFBAB82000CA
:1042840054286D6178292D43202020202020004BC4
:104294006FBDBF706FBBC4202020202020202000D1
:1042A400BF65BCBE2D70C320202020204F544BA7D7
:1042B400004D61BA63B8BC61BBC4BD61C720202096
:1042C4002000B3BB61B6BD6F63BFC420202020258E
:1042D40000B3BB61B6BD6F63BFB82020204F544B01
:1042E400A70053797374656D5F61647265732020F0
:1042F4002020004164726573732064697361626C89
:104304006520200020202020202020204F544BA76F
:10431400202020200055005F5F56005F5F5700009B
:00000001FF
