:100000000C94C3000C94E0000C94E0000C94E0000D
:100010000C94E0000C94E0000C94E0000C94A00818
:100020000C94E0000C94E0000C94E0000C94CD08DB
:100030000C94E0000C94E0000C94E0000C94E000C0
:100040000C94E0000C94E0000C94E0000C94E000B0
:100050000C94E0000C94E0000C94E0000C94E000A0
:100060000C94E0000C94E000D90CE40CEF0CFA0CBA
:10007000050D100D1B0DD70DE20DED0DF80D030E46
:100080000E0E190E6E616E00696E660000407A10E9
:10009000F35A00A0724E18090010A5D4E80000E839
:1000A0007648170000E40B54020000CA9A3B000097
:1000B00000E1F505000080969800000040420F0026
:1000C0000000A08601000000102700000000E803E7
:1000D000000000006400000000000A0000000000B2
:1000E0000100000000002C76D888DC674F0823DF71
:1000F000C1DFAE59E1B1B796E5E3E453C63AE65144
:10010000997696E8E6C28426EB898C9B62ED407C6A
:100110006FFCEFBC9C9F40F2BAA56FA5F490055A06
:100120002AF75C936B6CF9676DC11BFCE0E40D472B
:10013000FEF520E6B500D0ED902E0300943577054E
:100140000080841E080000204E0A000000C80C3306
:100150003333330F986E12831141EF8D2114893B95
:10016000E65516CFFEE6DB18D1844B381BF77C1D15
:10017000901DA4BBE424203284725E228100C9F168
:1001800024ECA1E53D2711241FBECFEFD8E0DEBF50
:10019000CDBF13E0A0E0B1E0E4EFFDE402C00590C4
:1001A0000D92A435B107D9F725E0A4E5B3E001C06D
:1001B0001D92A636B207E1F70E94E4080C94F826D7
:1001C0000C94000080937C00EAE7F0E0808180647A
:1001D0008083808186FDFDCFE8E7F0E0808120917B
:1001E000790090E0922B91838083808191810895A2
:1001F0000F931F93CF93DF9310920F0410920E046E
:1002000010929E0310929D031092FC031092FB0328
:10021000C5E9D0E000E012E083E00E94E2009093A4
:1002200057058093560520910E0430910F048217D4
:1002300093076CF0811522E092072CF090930F0445
:1002400080930E0404C010930F0400930E0487E003
:100250000E94E20090937F0380937E0320919D0390
:1002600030919E03821793076CF0811522E092076C
:100270002CF090939E0380939D0304C010939E03E3
:1002800000939D0386E00E94E2009093A103809377
:10029000A0032091FB033091FC03821793076CF0BD
:1002A000811522E092072CF09093FC038093FB03CE
:1002B00004C01093FC030093FB03219709F0ACCF1B
:1002C00080910E0490910F04DF91CF911F910F91B7
:1002D0000895CF92DF92EF92FF92CF93C090FE03EA
:1002E000D090FF03E0900004F090010420E030E0A3
:1002F00040E752E4C701B6010E947D2318160CF4B2
:1003000056C020E030E040E251ECC701B6010E9447
:10031000DC2488230CF44BC02091D6033091D70302
:100320004091D8035091D903C701B6010E947D23A3
:10033000181684F08091550381110CC0C1E0C09360
:10034000550341E060E070E280E090E00E942113FC
:10035000C0936E0320915105309152054091530591
:10036000509154056091FE037091FF038091000449
:10037000909101040E9410232091D6033091D7035D
:100380004091D8035091D9030E94DC2488237CF04B
:1003900080915503813059F41092550340E060E09C
:1003A00070E280E090E00E94211310926E03C090F2
:1003B000C203D090C303E090C403F090C50320E0D3
:1003C00030E046EC52E4C701B6010E947D231816C6
:1003D0000CF44BC02091D2033091D3034091D4034D
:1003E0005091D503C701B6010E947D23181684F0F1
:1003F0008091540381110CC0C1E0C093540341E0CB
:1004000060E070E480E090E00E942113C093090452
:1004100020917403309175034091760350917703D6
:100420006091C2037091C3038091C4039091C5038E
:100430000E9410232091D2033091D3034091D40322
:100440005091D5030E94DC2488237CF080915403D2
:10045000813059F41092540340E060E070E480E091
:1004600090E00E94211310920904CF91FF90EF9029
:10047000DF90CF90089541E060E071E080E090E08F
:100480000E9421130E949F0C80915C03811133C054
:100490008091F203811133C080916E03813029F085
:1004A00090910904913009F04CC041E060E870E09F
:1004B00080E090E00E94211360E080E80E94A605A1
:1004C00082E091E00E947C0680916E03811113C04E
:1004D00080910904811138C040E060E870E080E05C
:1004E00090E00E94211360E080E80E94A60583E16D
:1004F00091E00E947C0680915C03823021F0809123
:10050000F2038130B9F480916E03813021F0809143
:100510000904813041F460E080E80E94A60584E28D
:1005200091E00E947C0640E060E870E080E090E0AE
:100530000E9421138FE39CE90197F1F700C00000AE
:100540000895882331F0F6CF80915C038230F9F270
:10055000D6CF809109048111D2CFBECFCF93DF9344
:10056000579A5F982FEF80EE90E0215080409040A6
:10057000E1F700C000005F9A579887EC90E0019780
:10058000F1F700C000004F9935C08FE391E001976B
:10059000F1F700C000004F9B30C080914F05809361
:1005A0005A054F99FECFA6EEB3E0CBEED3E061E063
:1005B00070E0FD011C9287E090E04F9BFECF2AE89F
:1005C0002A95F1F700C04F9B0AC040819B01082E7D
:1005D00002C0220F331F0A94E2F7242B20834F9985
:1005E000FECF019750F71196CA17DB0711F781E08C
:1005F00090E005C080E090E002C080E090E0DF91F4
:10060000CF9108958F929F92AF92BF92DF92EF9217
:10061000FF920F931F93CF93DF93109267030E9473
:10062000AE0280936703813009F08AC01092C7033D
:100630001092C603E6EEF3E06081C62FD0E0618140
:10064000062F10E0D2806381E62EF12CCE01800FC0
:10065000911F8D0D911D8E0D9F1D90930804809309
:1006600007046D2D6F7770E080E090E00E942C24ED
:100670002DEC3CEC4CEC51E40E94E1244B015C017C
:10068000B701FF0C880B990B0E942C242DEC3CEC3D
:100690004CEC5DE30E94E1249B01AC01C501B40177
:1006A0000E9411234B015C016093D6037093D70322
:1006B0008093D8039093D9030E94F4237093690325
:1006C00060936803DD209CF4B7FAB094B7F8B09457
:1006D0008092D6039092D703A092D803B092D90308
:1006E0007195619571097093690360936803B8010E
:1006F000110F880B990B0E942C242DEC3CEC4CEC38
:100700005DE30E94E1244B015C01BE01DD0F880B1B
:10071000990B0E942C242DEC3CEC4CEC51E40E94F3
:10072000E1249B01AC01C501B4010E941123609337
:10073000D2037093D3038093D4039093D50318C04E
:10074000811109C08091C6039091C70301969093CF
:10075000C7038093C6038091C6039091C703853673
:10076000910534F084E690E09093C7038093C6032C
:1007700010925B05DF91CF911F910F91FF90EF9049
:10078000DF90BF90AF909F908F9008950E940203DA
:1007900060E080EC0E94A6058091D5038F93809144
:1007A000D4038F938091D3038F938091D2038F933F
:1007B0008091D9038F938091D8038F938091D70331
:1007C0008F938091D6038F9385E391E09F938F93CE
:1007D00082E893E09F938F930E94782682E893E0CB
:1007E0000E947C068DB79EB70C960FB6F8949EBFFC
:1007F0000FBE8DBF0895F999FECF92BD81BD60BD3A
:10080000FA9AF99A0895F999FECF92BD81BDF89AA6
:1008100080B5089580E00E94E20090935E0380938B
:100820005D038E5492408F36910570F480915F0382
:10083000813051F482E080935C0341E060E072E03B
:1008400080E090E00E94211380915D0390915E030F
:10085000805991408D3B910508F047C020915F037E
:1008600021113EC082E080935C0341E060E072E0D1
:1008700080E090E00E94211380915D0390915E03DF
:10088000805991408F3521E0920718F021E02093A4
:100890005C038D3B910568F480915F03813049F4DE
:1008A00010925C0340E060E072E080E090E00E9423
:1008B000211380915D0390915E038E5492408F3698
:1008C0009105C0F480915F03811114C010925C0304
:1008D00040E060E072E080E090E00E942113089523
:1008E0008F3521E0920790F6D7CF8F3521E0920720
:1008F00000F3CCCF089581E00E94E20090935B0367
:1009000080935A039C012E5432402F36310508F053
:10091000B8C080916003813099F480915803813090
:1009200029F080915703813009F0D7C081E080938E
:10093000590341E060E074E080E090E00E94211300
:1009400080915A0390915B03805991408D3B9105B2
:1009500008F0D4C0809160038111A5C08091580334
:10096000813029F080915703813009F091C081E0F6
:100970008093590341E060E074E080E090E00E94E1
:10098000211380915A0390915B038E5492408F36CD
:100990009105B0F480916003813091F48091580307
:1009A0008111BEC0809157038111BAC083E080934A
:1009B000590341E060E074E080E090E00E94211380
:1009C00080915A0390915B03805991408D3B910532
:1009D00008F07EC08091600381116FC08091580340
:1009E0008111A8C0809157038111A4C083E0809336
:1009F000590341E060E074E080E090E00E94211340
:100A000080915A0390915B03805991408F359140BA
:100A100050F082E08093590341E060E078E080E0AC
:100A200090E00E94211380915A0390915B038059BA
:100A300091408D3B910568F480916003813049F4C9
:100A40001092590340E060E074E080E090E00E9482
:100A5000211380915A0390915B038E5492408F36FC
:100A6000910508F072C08091600381116EC01092F0
:100A7000590340E060E074E080E090E00E942113C0
:100A80000895805991408D3B910508F463CF41C092
:100A900080915A0390915B03805991408D3B910561
:100AA00008F49CCF15C080915A0390915B038E543B
:100AB00092408F36910508F46DCF80915A03909142
:100AC0005B03805991408F35914008F4B5CFA1CF99
:100AD0008F35914008F4BDCF9CCF80915A039091FF
:100AE0005B03805991408D3B9105E8F24ACF80919C
:100AF0005A0390915B0380599140EACF80915A0349
:100B000090915B038E5492408F36910508F442CF4A
:100B1000EECF80915A0390915B0380599140D8CFDA
:100B200080915A0390915B03805991408D3B9105D0
:100B300020F2CECF80915A0390915B03805991406F
:100B40008F35914008F485CF64CF0895CF93C82F97
:100B5000613041F441E061E070E080E090E00E94AB
:100B6000211307C040E061E070E080E090E00E9467
:100B7000211341E062E070E080E090E00E942113E8
:100B8000C4FF08C041E064E070E080E090E00E94B3
:100B9000211307C040E064E070E080E090E00E9434
:100BA0002113C5FF08C041E068E070E080E090E0FC
:100BB0000E94211307C040E068E070E080E090E010
:100BC0000E942113C6FF08C041E060E170E080E0B0
:100BD00090E00E94211307C040E060E170E080E0F7
:100BE00090E00E942113CC2344F441E060E270E0E5
:100BF00080E090E00E94211307C040E060E270E0D6
:100C000080E090E00E94211340E062E070E080E02C
:100C100090E00E9421138FE39FE10197F1F700C05C
:100C2000000041E062E070E080E090E00E9421136B
:100C3000C0FF08C041E064E070E080E090E00E9406
:100C4000211307C040E064E070E080E090E00E9483
:100C50002113C1FF08C041E068E070E080E090E04F
:100C60000E94211307C040E068E070E080E090E05F
:100C70000E942113C2FF08C041E060E170E080E003
:100C800090E00E94211307C040E060E170E080E046
:100C900090E00E942113C3FF08C041E060E270E0D1
:100CA00080E090E00E94211307C040E060E270E025
:100CB00080E090E00E94211340E062E070E080E07C
:100CC00090E00E9421138FE39FE10197F1F700C0AC
:100CD0000000CF91089560E082E00E94A60560E0E8
:100CE00088E20E94A60560E08CE00E94A60560E014
:100CF00081E00E94A60508950F931F93CF93FC01F6
:100D00008081882361F08F01C0E0CF5F61E00E94A5
:100D1000A605F801EC0FF11D80818111F6CFCF916E
:100D20001F910F910895CF93DF93EC01623009F486
:100D300049C020F4613009F46DC08AC06330C1F04D
:100D4000643009F085C09C01369527953695279526
:100D500036952795A5ECB0E20E94B6229295829531
:100D60008F7089279F70892761E0805D0E94A605AA
:100D70009E013695279536952795ABE7B4E10E94FD
:100D8000B622AC01569547959A01ADECBCEC0E9499
:100D9000B6229695879596958795969587959C0109
:100DA000220F331F880F991F880F991F880F991FD3
:100DB000820F931F9A01281B390BC90161E0805DE6
:100DC0000E94A6059E01ADECBCEC0E94B622AC01CF
:100DD0005695479556954795569547959A010E9481
:100DE000B6229695879596958795969587959C01B9
:100DF000220F331F880F991F880F991F880F991F83
:100E0000820F931F9A01281B390BC90161E0805D95
:100E10000E94A6059E01ADECBCEC0E94B622969500
:100E2000879596958795969587959C01220F331FF8
:100E3000880F991F880F991F880F991F820F931F82
:100E40009E01281B390BC90161E0805D0E94A60547
:100E5000DF91CF910895109202041092DC0310925A
:100E6000DE038091970390919803019690939803E5
:100E7000809397036091FB037091FC037250072EDF
:100E8000000C880B990B0E942C242EEE34E045EBCD
:100E90005FE30E94822321EE3AE744E95FE30E9488
:100EA000E1240E94F423AB017093E2036093E10319
:100EB000209100013091010181EE90E0821B930BA3
:100EC000481759072CF02F513F4F241735074CF581
:100ED00080914F05909150052091030430910404B6
:100EE000821B930B8D349D41A4F440E060E470E0DC
:100EF00080E090E00E94211380914F059091500571
:100F00002091030430910404821B930B8D349D4186
:100F1000ECF041E060E470E080E090E00E9421139A
:100F200015C081E0809302048093DC038091E30389
:100F30009091E40301969093E4038093E30341E0EE
:100F400060E470E080E090E00E94211381E08093F3
:100F5000DC0320919703309198034091E303509173
:100F6000E40364E6649FC001659F900D1124B901FC
:100F70000E949C227093A5036093A403243631053C
:100F800041F410929803109297031092E403109288
:100F9000E30380914F059091500520910304309117
:100FA0000404AC01421B530B9A0128393A4324F044
:100FB0009093040480930304089580915C0382302D
:100FC00021F09091F203913039F421E030E0309338
:100FD0001A042093190404C010921A0410921904E0
:100FE00020917C0330917D03232B39F421E030E004
:100FF00030931C0420931B0404C010921C04109214
:101000001B04813039F481E090E090931E048093BA
:101010001D0404C010921E0410921D0480915903F7
:10102000823039F421E030E03093200420931F0413
:1010300004C01092200410921F049091DC039111BF
:1010400007C021E030E0309322042093210404C043
:1010500010922204109221049091DD03913039F412
:1010600021E030E0309324042093230404C0109244
:1010700024041092230490919603923039F421E0D5
:1010800030E0309326042093250404C010922604F7
:10109000109225049091E503913039F421E030E07D
:1010A00030932A042093290404C010922A04109239
:1010B0002904833038F081E090E090932C048093F1
:1010C0002B0404C010922C0410922B04809117045E
:1010D00090911804899724F010922404109223040C
:1010E00080917A0390917B03899714F110922604E2
:1010F000109225041DC090813296890FE217F307E4
:10110000D1F78093DE0381110BC040E060E078E00E
:1011100080E090E00E9421138091DE03882379F023
:1011200041E060E078E080E090E00E9421130895C3
:101130008091DE03EBE1F4E02DE234E0DCCF0895B2
:101140001F920F920FB60F9211242F933F934F933C
:101150005F936F937F938F939F93AF93BF93EF931F
:10116000FF9380914F059091500501969093500503
:1011700080934F050E94AC11FF91EF91BF91AF9109
:101180009F918F917F916F915F914F913F912F919F
:101190000F900FBE0F901F9018951F920F920FB6D1
:1011A0000F9211248F939F938091F0039091F103FC
:1011B00001969093F1038093F0039F918F910F908C
:1011C0000FBE0F901F90189541E060E070E880E03E
:1011D00090E00E942113AAE7B0E08C9180688C9384
:1011E000ECE7F0E0808110828081806480838081E0
:1011F0008F6D80838C9186608C93EBE7F0E080812B
:101200008083EEE7F0E080818763808380B7806829
:1012100080BF80E287B992E094B988E185B98EEF0A
:101220008AB918B810928000E1E8F0E080818D6002
:101230008083109285001092840029E03DE3309372
:1012400089002093880090936F00E0EBF0E08081AC
:1012500082608083E1EBF0E0808182608083109285
:10126000B2008FEF8093B300E0E7F0E0808182600E
:1012700080832FEF83EC99E0215080409040E1F78C
:1012800000C000000E946B0660E081E00E94A6059D
:1012900060E080E80E94A60589E491E00E947C0657
:1012A0000E942B070E94481E4E9A0E94481E1092D0
:1012B000580585E090E09093EF038093EE03109241
:1012C000F1031092F00383E0809364051092CA0347
:1012D00010929F031092550510927B0310927A038F
:1012E00010921804109217041092FE031092FF033C
:1012F00010920004109201041092C2031092C303D2
:101300001092C4031092C50310927D0310927C03C7
:101310001092D1031092D003109213041092120471
:101320001092C7031092C6031092DD031092960329
:101330001092E50383E190E09093FA038093F90320
:101340008DE990E09093C9038093C80381E090E019
:101350000E9403048093640582E090E00E940304ED
:1013600090E09093EF038093EE0383E090E00E947F
:10137000030490E0909301018093000186E090E0E7
:101380000E940304823018F48093600303C081E05C
:101390008093600387E090E00E940304823018F499
:1013A00080935F0303C081E080935F0388E090E057
:1013B0000E94030490E090937B0380937A038B97C1
:1013C00034F089E290E090937B0380937A0389E084
:1013D00090E00E94030490E0909318048093170417
:1013E0008B9734F089E290E090931804809317046F
:1013F00080E190E00E94030490E09093FA038093D0
:10140000F9038138910524F01092FA031092F90340
:1014100081E190E00E940304682F70E080E090E09A
:101420000E942A246093FE037093FF0380930004BC
:101430009093010420E030E048E752E40E94DC246D
:10144000181664F480E090E0A4E7B2E48093FE0311
:101450009093FF03A0930004B093010482E190E015
:101460000E940304682F70E080E090E00E942A242C
:101470006093C2037093C3038093C4039093C50326
:1014800020E030E048EC52E40E94DC24181664F4BA
:1014900080E090E0A8ECB2E48093FE039093FF0319
:1014A000A0930004B093010483E190E00E94030440
:1014B00090E0909361058093600584E190E00E9444
:1014C000030490E0909373038093720385E190E0AE
:1014D0000E94030490E09093C1038093C00386E1CF
:1014E00090E00E940304C82FD0E0D0939503C093EE
:1014F00094036091720370917303072E000C880BA4
:10150000990B0E942C242DEC3CEC4CEC5DE30E94EA
:10151000E1246B017C016091600570916105072EEB
:10152000000C880B990B0E942C249B01AC01C70175
:10153000B6010E9411236093510570935205809368
:101540005305909354056091C0037091C103072E19
:10155000000C880B990B0E942C246B017C01BE01AE
:10156000DD0F880B990B0E942C242DEC3CEC4CECED
:101570005DE30E94E1249B01AC01C701B6010E941A
:101580001123609374037093750380937603909393
:1015900077031092650580E00E94E20090935E035D
:1015A00080935D0381E00E94E20090935B0380934F
:1015B0005A030E94481E0E942B070E94DD07789460
:1015C0001092700310926F0340E060E070E880E0DA
:1015D00090E00E94211311E0C1E0D0E00E94F800E9
:1015E0000E940A040E947B040E942B070E944B1455
:1015F0000E94DD070E94690180916405823009F430
:10160000C5C01093BF032091A4033091A50380911E
:101610007A0390917B03820F931F84369105D4F453
:1016200040E060E470E080E090E00E9421131092BE
:101630007D0310927C0380917A0390917B0320912B
:10164000A4033091A503280F391F2436310514F463
:1016500089975CF0D0937D03C0937C03412F60E4B5
:1016600070E080E090E00E9421131B9946C08091B9
:101670005603811142C08091650581118AC0412FB6
:1016800060E070E880E090E00E94211380916405A2
:101690008F5F809364051093560310925805109243
:1016A000F4031092F3032FEF86E791E0215080407E
:1016B0009040E1F700C000001092580340E060E85D
:1016C00070E080E090E00E942113809164058430F6
:1016D00010F01093640560916405CE010E94FB0335
:1016E0008FE39CE90197F1F700C00000412F60E013
:1016F00070E880E090E00E9421131B9B12C0809153
:101700005603813071F48091650581110AC01092F1
:101710005805109256038FE39CE90197F1F700C03A
:10172000000080916405813031F48091650581115C
:1017300025C00E94CB0B80916405823031F48091EA
:10174000650581111BC00E943B02809164058330B6
:10175000A9F480916505811111C060E080E80E94C4
:10176000A6058AE591E00E947C060E949F0C40E05D
:1017700060E071E080E090E00E94211340E060E0D2
:1017800070E880E090E00E94211328CF1092BF0300
:101790003ACF83B1C6CF40E060E071E080E090E0F6
:1017A0000E942113809158058111B9C01C9BB4C0BF
:1017B000809158038111B0C060E080E80E94A605C6
:1017C0008FE691E00E947C060E949F0C1C9924C029
:1017D00080915805882309F4A7C01EC041E060E04D
:1017E00070E880E090E00E94211381E0809358052A
:1017F0002FEF8AE693E0215080409040E1F700C04F
:1018000000001092F1031092F00340E060E070E8F5
:1018100080E090E00E94211380915805813009F00A
:1018200088C01C9B41C08091580381113DC081E05C
:101830008093580341E060E870E080E090E00E940F
:101840002113109258052FEF89EF90E0215080402E
:101850009040E1F700C0000080915805811161C0FF
:101860001C994BC080915803813009F046C0809389
:10187000580541E060E070E880E090E00E942113AC
:101880002FEF82E597E0215080409040E1F700C0C3
:10189000000040E060E070E880E090E00E942113EA
:1018A00080915805813029F51C9B48C080915803D0
:1018B000813009F043C0109258031092580560E03F
:1018C00080E80E94A6058FE691E00E947C060E94B7
:1018D0009F0C40E060E870E080E090E00E942113FF
:1018E0002FEF89EF90E0215080409040E1F700C059
:1018F000000080915805811121C0809158038130EA
:10190000E9F41092E50360E080E80E94A60580E813
:1019100091E00E947C0608951C9B06C09DCF83B178
:101920007BCF813009F2089580915803811198CFBF
:1019300055CF80915805882309F492CF0895CF930D
:10194000DF9380916405813009F4FEC060E080EC93
:101950000E94A6051092E0031092DF03C091F303EA
:10196000D091F403C730D10509F0E8C10E94C60345
:10197000C091F303D091F403C730D1050CF074C0CB
:10198000FE01EE0FFF1FE75EFB4F80819181019703
:1019900009F060C005C081919191019709F05FC085
:1019A000C730D10508F051C0FE01EC5CFF4F0C942C
:1019B000B02281E991E00E947C0681E090E0909362
:1019C000E0038093DF0341C082EA91E00E947C063D
:1019D00081E090E09093E0038093DF0336C083EBD7
:1019E00091E00E947C0681E090E09093E003809378
:1019F000DF032BC084EC91E00E947C0681E090E044
:101A00009093E0038093DF0320C085ED91E00E9476
:101A10007C0681E090E09093E0038093DF0315C0A3
:101A200086EE91E00E947C0681E090E09093E003D6
:101A30008093DF030AC087EF91E00E947C0681E07B
:101A400090E09093E0038093DF03D093F403C0937E
:101A5000F3030AC0FE01EE0FFF1FE55EFB4F219668
:101A6000C730D1050CF497CF8091DF039091E0034C
:101A7000892B31F40E94C6031092F4031092F303F1
:101A80001C990AC080919F03811106C081E0809358
:101A90009F031C9B54C007C01C9B51C080919F0397
:101AA000813009F04CC041E060E070E880E090E0F7
:101AB0000E94211310929F03E091F303F091F4032D
:101AC000CF0101969093F4038093F303DC01AA0FF6
:101AD000BB1FA75EBB4F2D913C91232B49F587304F
:101AE00091055CF012C0219131912130310549F40A
:101AF0009093F4038093F30308C0EE0FFF1FE35E9F
:101B0000FB4F01968730910571F78091F303909117
:101B1000F403089724F01092F4031092F3032FEFCC
:101B200089EF90E0215080409040E1F700C0000034
:101B300040E060E070E880E090E00E942113809136
:101B40006405813009F004C160E080EC0E94A605C4
:101B50001092E0031092DF03C091F303D091F403DD
:101B6000C730D10509F0EFC00E94C603C091F3034E
:101B7000D091F403C730D1050CF074C0FE01EE0F14
:101B8000FF1FE75EFB4F80819181019709F060C0E4
:101B900005C081919191019709F05FC0C730D105CF
:101BA00008F051C0FE01E55CFF4F0C94B02281E9C2
:101BB00091E00E947C0681E090E09093E0038093A6
:101BC000DF0341C082EA91E00E947C0681E090E060
:101BD0009093E0038093DF0336C083EB91E00E9493
:101BE0007C0681E090E09093E0038093DF032BC0BC
:101BF00084EC91E00E947C0681E090E09093E00309
:101C00008093DF0320C085ED91E00E947C0681E097
:101C100090E09093E0038093DF0315C086EE91E09F
:101C20000E947C0681E090E09093E0038093DF03C4
:101C30000AC087EF91E00E947C0681E090E09093DB
:101C4000E0038093DF03D093F403C093F3030AC04F
:101C5000FE01EE0FFF1FE55EFB4F2196C730D10559
:101C60000CF497CF8091DF039091E003892B31F43E
:101C70000E94C6031092F4031092F3031D9B0AC046
:101C800080919F03811106C081E080939F031D997D
:101C90005FC007C01D995CC080919F03813009F02F
:101CA00057C041E060E070E880E090E00E942113BE
:101CB00010929F03E091F303F091F403CF0101969A
:101CC0009093F4038093F303DC01AA0FBB1FA75E7C
:101CD000BB4F2D913C91232B49F5873091055CF04A
:101CE00012C0219131912130310549F49093F403D0
:101CF0008093F30308C0EE0FFF1FE35EFB4F0196D6
:101D00008730910571F78091F3039091F403089760
:101D100024F01092F4031092F3032FEF89EF90E078
:101D2000215080409040E1F700C0000040E060E0BA
:101D300070E880E090E00E9421130AC0C730D1050E
:101D40000CF41ECE97CEC730D1050CF417CF90CF30
:101D5000DF91CF91089580916A0390916B038D304C
:101D6000910509F0F0C2EDE2F4E0228D338D80910F
:101D7000F5039091F603822B932B24893589220F4A
:101D8000331F220F331F220F331F822B932B2689E1
:101D90003789220F331F220F331F822B932B208D65
:101DA000318D220F331F822B932B9093F603809358
:101DB000F50308C0299A459A80916A0390916B03B4
:101DC0000D9711F4299A459A80916A0390916B03BB
:101DD0000E9761F48091190490911A04019721F0F3
:101DE0008091F2038230B1F4299A459A80916A0376
:101DF00090916B038D3091050CF4ADC2469711F4B0
:101E0000299A459A80916A0390916B034F9711F438
:101E1000299A459A80916A0390916B03889711F4EF
:101E2000299A459A80916A0390916B03C19711F4A6
:101E3000299A459A80916A0390916B03CA9711F48D
:101E4000299A459A80916A0390916B038334910596
:101E500011F4299A459A80916A0390916B038C340E
:101E6000910511F4299A459A8091F5039091F60312
:101E70008230910509F46AC01CF4892B49F0089559
:101E80008330910509F47FC00E9709F4F7C10895D6
:101E900080916A0390916B03099711F4299A459AEE
:101EA00080916A0390916B030D9711F4299A459ADA
:101EB00080916A0390916B030E9761F480911904ED
:101EC00090911A04019721F08091F203823091F4ED
:101ED000299A459A80916A0390916B03469711F471
:101EE000299A459A80916A0390916B034F9711F458
:101EF000299A459A80916A0390916B03889711F40F
:101F0000299A459A80916A0390916B03C19711F4C5
:101F1000299A459A80916A0390916B03CA9711F4AC
:101F2000299A459A80916A0390916B0383349105B5
:101F300011F4299A459A80916A0390916B038C342D
:101F4000910509F008C2299A459A089580916A037B
:101F500090916B030D9711F4299A459A80916A0329
:101F600090916B030E9709F0F6C18091190490913E
:101F70001A04019729F08091F203823009F0EBC135
:101F8000299A459A089580916A0390916B030D9761
:101F900011F4299A459A80916A0390916B030E97E8
:101FA00061F48091190490911A04019721F08091B5
:101FB000F203823091F4299A459A80916A039091B4
:101FC0006B03469711F4299A459A80916A03909180
:101FD0006B034F9711F4299A459A80916A03909167
:101FE0006B03889711F4299A459A80916A0390911E
:101FF0006B03C19711F4299A459A80916A039091D5
:102000006B03CA9711F4299A459A80916A039091BB
:102010006B038334910511F4299A459A80916A03E0
:1020200090916B038C34910511F4299A459A809113
:102030006A0390916B039C012E50310928303105C1
:1020400020F525E130E0281B390B8091C8039091E1
:10205000C90302C0959587952A95E2F78170992763
:102060002091990330919A03822B932B90939A039A
:1020700080939903019711F4299A459A80919903C5
:1020800090919A03892B09F4299880916A03909181
:102090006B034F97A9F48091990390919A03816003
:1020A00090939A0380939903019709F04DC0299A60
:1020B000459A8091990390919A03892B09F4299864
:1020C00080916A0390916B0382970297D8F4809174
:1020D000BF03682F617070E08091990390919A031B
:1020E000682B792B70939A03609399036130710583
:1020F00011F4299A459A8091990390919A03892B1A
:1021000009F4299880916A0390916B038797E1F411
:1021100080915B05482F417050E080919903909128
:102120009A03482B592B50939A03409399034130BB
:10213000510509F00CC1299A459A80919903909113
:102140009A03892B09F4299820916A0330916B0333
:10215000C901C397069760F580915D0390915E0376
:1021600099230CF40396959587959595879549E362
:1021700050E0BA01621B730B02C0959587956A9572
:10218000E2F7817099272091990330919A03822B6D
:10219000932B90939A0380939903019711F4299AB2
:1021A000459A8091990390919A03892B09F4299873
:1021B00080916A0390916B039C012C533109273065
:1021C000310520F522E430E0281B390B80916803AB
:1021D0009091690302C0959587952A95E2F78170E1
:1021E00099272091990330919A03822B932B9093F6
:1021F0009A0380939903019711F4299A459A809143
:10220000990390919A03892B09F4299820916A03E4
:1022100030916B03C90185549109079708F09BC061
:1022200080915A0390915B0399230CF40396959542
:102230008795959587954BE450E0BA01621B730B27
:1022400002C0959587956A95E2F78170992720914C
:10225000990330919A03822B932B90939A03809346
:102260009903019711F4299A459A809199039091C5
:102270009A03892B09F06FC02998089580916A0309
:1022800090916B030D9711F4299A459A80916A03F6
:1022900090916B034E9711F4299A459A80916A03A5
:1022A00090916B038D9711F4299A459A80916A0356
:1022B00090916B038E9709F04EC0809173049091BA
:1022C0007404019769F480918104909182040197CC
:1022D00039F441E060E070E880E090E00E94211372
:1022E0008091750490917604019779F4809183042C
:1022F00090918404019749F440E060E070E880E048
:1023000090E00E9421131092F20380917904909141
:102310007A04019749F48091870490918804019789
:1023200019F482E08093F20380917704909178040D
:10233000019789F48091850490918604019759F45E
:102340001092F2030895099709F03ECD33CD452B45
:1023500009F4F9CE5BCF0895599A23B1822F817089
:1023600090E090931604809315048130910509F054
:102370002AC18091CB0381115EC18091CC039091E1
:10238000CD039C01295031092230310528F41092E7
:10239000CD031092CC032EC04297039738F481E00E
:1023A00090E09093CD038093CC0342C08091CC0306
:1023B0009091CD034B970897E8F482E090E09093DA
:1023C000CD038093CC0310926B0310926A0310929A
:1023D0007903109278031092A7031092A60310922B
:1023E000F6031092F50320E030E090932E048093E2
:1023F0002D0482C08091CC039091CD03893E9340FF
:10240000BCF010926B0310926A0310927903109241
:1024100078031092A7031092A6031092F60310926D
:10242000F5031092F20310922E0410922D0474C042
:1024300020916A0330916B03F901EE0FFF1FE35DFA
:10244000FB4F8091CC039091CD0391838083283002
:10245000310509F051C0EDE2F4E020893189809125
:10246000A6039091A703822B932B2481358100240E
:10247000369527950794369527950794322F202D6A
:10248000822B932B26813781220F331F2295329581
:10249000307F3227207F3227822B932B2085318576
:1024A00022953295307F3227207F3227822B932B43
:1024B00022853385220F331F220F331F220F331F34
:1024C000822B932B24853585220F331F220F331F38
:1024D000822B932B26853785220F331F822B932B3C
:1024E0009093A7038093A603009709F09BC01092D6
:1024F000A9031092A80396C04091A6035091A70388
:102500008091F9039091FA034817590729F428306C
:10251000310514F00E94AB0E81E08093CB03109242
:10252000FD031092CD031092CC0310929A031092E7
:10253000990380912F0490913004019711F58091B7
:10254000310490913204892BE1F480916A039091D7
:102550006B030297B1F48091A8039091A9030196AF
:102560009093A9038093A8032091F9033091FA0373
:102570008217930731F49093A7038093A603299AB7
:10258000459A80916A0390916B03019690936B0337
:1025900080936A038091150490911604813091050F
:1025A00009F449C010C08091A2039091A303019641
:1025B0009093A3038093A203809115049091160435
:1025C000892BE9F02DC0892B59F58091FD038111EC
:1025D00016C02998459881E08093FD031092CB03A3
:1025E0001092A3031092A203109279031092780321
:1025F0008091150490911604892B29F011C08091C7
:10260000FD03813069F41092A3031092A20380911C
:10261000CC039091CD0301969093CD038093CC038E
:10262000599808952091F9033091FA03821793077E
:1026300009F072CF6FCF8091CB03813009F4B3CF13
:10264000EFCF0F931F934130B9F4009161031091C4
:1026500062032091630330916403DC01CB01802B82
:10266000912BA22BB32B8093610390936203A093D1
:102670006303B09364031AC0009161031091620375
:102680002091630330916403DC01CB018095909528
:10269000A095B09580239123A223B3238093610357
:1026A00090936203A0936303B09364035B985C9878
:1026B0008091610390916203A0916303B0916403E0
:1026C00097FF02C05A9A01C05A985C9A5C98809110
:1026D000610390916203A0916303B091640396FF3C
:1026E00002C05A9A01C05A985C9A5C988091610322
:1026F00090916203A0916303B091640395FF02C0BF
:102700005A9A01C05A985C9A5C98809161039091A2
:102710006203A0916303B091640394FF02C05A9ACC
:1027200001C05A985C9A5C98809161039091620311
:10273000A0916303B091640393FF02C05A9A01C051
:102740005A985C9A5C988091610390916203A09181
:102750006303B091640392FF02C05A9A01C05A9871
:102760005C9A5C988091610390916203A0916303ED
:10277000B091640391FF02C05A9A01C05A985C9AC2
:102780005C988091610390916203A0916303B09182
:10279000640390FF02C05A9A01C05A985C9A5C98F0
:1027A0008091610390916203A0916303B0916403EF
:1027B00087FF02C05A9A01C05A985C9A5C9880912F
:1027C000610390916203A0916303B091640386FF5B
:1027D00002C05A9A01C05A985C9A5C988091610331
:1027E00090916203A0916303B091640385FF02C0DE
:1027F0005A9A01C05A985C9A5C98809161039091B2
:102800006203A0916303B091640384FF02C05A9AEB
:1028100001C05A985C9A5C98809161039091620320
:10282000A0916303B091640383FF02C05A9A01C070
:102830005A985C9A5C988091610390916203A09190
:102840006303B091640382FF02C05A9A01C05A9890
:102850005C9A5C988091610390916203A0916303FC
:10286000B091640381FF02C05A9A01C05A985C9AE1
:102870005C988091610390916203A0916303B09191
:10288000640380FF02C05A9A01C05A985C9A5B9A0E
:102890001F910F910895CF92DF92EF92FF921D9BAF
:1028A00040C08091CA0381113CC08091640583308F
:1028B00011F00C94401E41E060E070E880E090E090
:1028C0000E942113809165058F5F8093650581E0EB
:1028D0008093CA032FEF30E782E0215030408040E0
:1028E000E1F700C0000060E080EC0E94A60588E0EF
:1028F00092E00E947C06809165058A3028F083E092
:1029000080936405109265056091650580E090E014
:102910000E94FB0340E060E070E880E090E00E94ED
:1029200021131D9913C08091CA03813079F48091DD
:102930006405833059F41092CA039FEF29EF30E009
:10294000915020403040E1F700C0000080916505C3
:10295000813009F082C060E080E80E94A60589E12C
:1029600092E00E947C0660E080EC0E94A6058AE26C
:1029700092E00E947C0660E08EEC0E94A6058091A9
:102980000001909101016AE070E00E949C22CB015D
:1029900061E00E94930660E08FEC0E94A6058091A2
:1029A00000019091010164E670E00E949C2261E0C8
:1029B0000E9493061B9935C080919F03811131C0FD
:1029C00041E060E070E880E090E00E942113809197
:1029D0000001909101010296893291052CF49093A7
:1029E00001018093000104C01092010110920001C6
:1029F00081E080939F036091000183E090E00E945A
:102A0000FB038FEF99EF20E0815090402040E1F7E9
:102A100000C0000040E060E070E880E090E00E94CC
:102A200021131B9B1AC080919F038130B1F4109237
:102A30009F0341E060E070E880E090E00E94211395
:102A40008FE39CE90197F1F700C0000040E060E0EF
:102A500070E880E090E00E9421138091650582304B
:102A600009F093C060E080E80E94A60588E392E048
:102A70000E947C0660E080EC0E94A60589E492E05A
:102A80000E947C0660E08CEC0E94A60583E592E043
:102A90000E947C0682E090E00E94030490E0909304
:102AA000EF038093EE0360E08AEC0E94A60580911C
:102AB000EE039091EF036AE070E00E949C22CB014C
:102AC00061E00E94930660E08BEC0E94A605809175
:102AD000EE039091EF0364E670E00E949C2261E0B7
:102AE0000E9493061B9935C080919F03811131C0CC
:102AF00041E060E070E880E090E00E942113809166
:102B0000EE039091EF030196853191052CF490939B
:102B1000EF038093EE0304C01092EF031092EE03D4
:102B200081E080939F036091EE0382E090E00E9439
:102B3000FB039FEF29EF30E0915020403040E1F758
:102B400000C0000040E060E070E880E090E00E949B
:102B500021131B9B1AC080919F038130B1F4109206
:102B60009F0341E060E070E880E090E00E94211364
:102B70008FE39CE90197F1F700C0000040E060E0BE
:102B800070E880E090E00E94211380916505833019
:102B900009F0C1C060E080E80E94A60588E592E0E7
:102BA0000E947C0681E00E94E20090935B03809388
:102BB0005A0360E08DEC0E94A60580915A03909123
:102BC0005B036AE070E00E949C22CB0162E00E94FD
:102BD000930660E08FEC0E94A60580915A039091C5
:102BE0005B0364E670E00E949C2261E00E94930611
:102BF00080916003811108C060E080EC0E94A6050E
:102C000088E692E00E947C0680916003813041F466
:102C100060E080EC0E94A60584E792E00E947C06BA
:102C20001B995AC080915505811156C041E060E062
:102C300070E880E090E00E94211380916003811190
:102C400020C080915505811140C081E080935505D9
:102C50008093600360E080EC0E94A60584E792E028
:102C60000E947C066091600386E090E00E94FB0376
:102C70009FEF20E732E0915020403040E1F700C064
:102C8000000080916003813001F58091550581112C
:102C90001CC081E0809355051092600360E080ECD9
:102CA0000E94A60588E692E00E947C06609160037F
:102CB00086E090E00E94FB038FEF90E722E08150D6
:102CC00090402040E1F700C0000040E060E070E884
:102CD00080E090E00E9421131B9B1DC08091550550
:102CE0008130C9F441E060E070E880E090E00E944B
:102CF0002113109255053FEF80E792E0315080405C
:102D00009040E1F700C0000040E060E070E880E043
:102D100090E00E94211380916505843009F0C1C0C4
:102D200060E080E80E94A60581E892E00E947C06AF
:102D300082E00E94E20090935E0380935D0360E076
:102D40008DEC0E94A60580915D0390915E036AE080
:102D500070E00E949C22CB0162E00E94930660E03A
:102D60008FEC0E94A60580915D0390915E0364E65E
:102D700070E00E949C2261E00E94930680915F03B4
:102D8000811108C060E080EC0E94A60588E692E010
:102D90000E947C0680915F03813041F460E080EC0A
:102DA0000E94A60584E792E00E947C061B995AC007
:102DB00080915505811156C041E060E070E880E0E7
:102DC00090E00E94211380915F03811120C08091C7
:102DD0005505811140C081E08093550580935F03C4
:102DE00060E080EC0E94A60584E792E00E947C06E9
:102DF00060915F0387E090E00E94FB032FEF30E7D4
:102E000082E0215030408040E1F700C00000809116
:102E10005F03813001F58091550581111CC081E06F
:102E20008093550510925F0360E080EC0E94A60538
:102E300088E692E00E947C0660915F0387E090E064
:102E40000E94FB039FEF20E732E09150204030408A
:102E5000E1F700C0000040E060E070E880E090E052
:102E60000E9421131B9B1DC0809155058130C9F420
:102E700041E060E070E880E090E00E942113109251
:102E800055058FEF90E722E0815090402040E1F718
:102E900000C0000040E060E070E880E090E00E9448
:102EA000211380916505853009F0D0C181E190E062
:102EB0000E940304682F70E080E090E00E942A24C2
:102EC0006B017C016093FE037093FF038093000409
:102ED0009093010420E030E040E752E40E947D231B
:102EE00018160CF44AC020E030E040E251ECC70173
:102EF000B6010E94DC2488230CF43FC060E080E827
:102F00000E94A60581E992E00E947C0660E080ECC8
:102F10000E94A60582EA92E00E947C0660E08EECA8
:102F20000E94A60520E030E040E251E46091FE03FB
:102F30007091FF0380910004909101040E9482230C
:102F40000E94FB23DC01CB0161E00E94930660E05C
:102F50008FEC0E94A6056091FE037091FF038091A3
:102F60000004909101040E94F423CB0164E670E018
:102F70000E949C2261E00E949306C090FE03D090C4
:102F8000FF03E0900004F090010420E030E040E70F
:102F900052E4C701B6010E94DC24181654F020E068
:102FA00030E040E251ECC701B6010E947D23882346
:102FB00084F460E080E80E94A60581EB92E00E9424
:102FC0007C0660E080EC0E94A60582EC92E00E9404
:102FD0007C061B99A4C080919F038111A0C041E091
:102FE00060E070E880E090E00E94211381E080932F
:102FF0009F03E090F003F090F1038091D003909153
:10300000D1039701281B390B309366032093650386
:1030100022303105ECF11B993BC020E030E040E06C
:1030200050E46091FE037091FF0380910004909141
:1030300001040E9411236093FE037093FF038093A9
:10304000000490930104F092D103E092D003109217
:103050009F0360E08AEC0E94A60580916503909131
:10306000660364E670E00E949C2261E00E94930681
:1030700060E08CEC0E94A605809165039091660348
:103080006AE070E00E949C22CB0162E00E949306FD
:1030900020E030E040E050E46091FE037091FF03D7
:1030A00080910004909101040E9411236B017C0126
:1030B00020E030E048E752E40E94DC2418164CF08F
:1030C000C092FE03D092FF03E0920004F09201044C
:1030D00008C01092FE031092FF0310920004109299
:1030E00001046091FE037091FF03809100049091B0
:1030F00001040E94FB2381E190E00E94FB033FEF6B
:1031000089EF90E0315080409040E1F700C000002E
:1031100040E060E070E880E090E00E9421131B9B9B
:1031200022C080919F038130F1F441E060E070E8BB
:1031300080E090E00E9421138091F0039091F103D0
:103140009093D1038093D00310929F038FE39CE967
:103150000197F1F700C0000040E060E070E880E017
:1031600090E00E9421131C9955C080915505811152
:1031700051C041E060E070E880E090E00E942113DF
:1031800020E030E040E85FE36091FE037091FF03D0
:1031900080910004909101040E9410236B017C0136
:1031A00020E030E040E251EC0E947D2388234CF087
:1031B000C092FE03D092FF03E0920004F09201045B
:1031C00008C01092FE031092FF03109200041092A8
:1031D000010481E0809355056091FE037091FF0327
:1031E00080910004909101040E94FB2381E190E012
:1031F0000E94FB039FEF29EF30E0915020403040C8
:10320000E1F700C0000040E060E070E880E090E09E
:103210000E9421131C9B1AC0809155058130B1F486
:1032200041E060E070E880E090E00E94211310929D
:1032300055058FE39CE90197F1F700C0000040E0DD
:1032400060E070E880E090E00E94211380916505C5
:10325000863009F062C189E090E00E94030490E0AA
:10326000909318048093170420E030E046EC52E479
:103270006091C2037091C3038091C4039091C50310
:103280000E947D2318160CF43FC060E080E80E9485
:10329000A60581E992E00E947C0660E080EC0E9435
:1032A000A60583ED92E00E947C0660E08EEC0E9411
:1032B000A60520E030E040E251E46091C203709145
:1032C000C3038091C4039091C5030E9482230E948E
:1032D000FB23DC01CB0161E00E94930660E08FECF0
:1032E0000E94A6056091C2037091C3038091C4033C
:1032F0009091C5030E94F423CB0164E670E00E9424
:103300009C2261E00E94930620E030E046EC52E40B
:103310006091C2037091C3038091C4039091C5036F
:103320000E94DC24181684F460E080E80E94A60560
:1033300081EB92E00E947C0660E080EC0E94A60592
:1033400082EE92E00E947C061B9955C080919F03FB
:10335000811151C041E060E070E880E090E00E949F
:10336000211320E030E040E050E46091C20370910E
:10337000C3038091C4039091C5030E9411236B0184
:103380007C0120E030E048EC52E40E94DC24181676
:103390004CF0C092C203D092C303E092C403F092F7
:1033A000C50308C01092C2031092C3031092C40355
:1033B0001092C50381E080939F036091C2037091D6
:1033C000C3038091C4039091C5030E94FB2382E153
:1033D00090E00E94FB039FEF29EF30E091502040E6
:1033E0003040E1F700C0000040E060E070E880E0BD
:1033F00090E00E9421131B9B1AC080919F03813093
:10340000B1F410929F0341E060E070E880E090E04A
:103410000E9421138FE39CE90197F1F700C000009F
:1034200040E060E070E880E090E00E9421131C9989
:1034300058C080915505811154C041E060E070E8AA
:1034400080E090E00E94211320E030E040E85FE35C
:103450006091C2037091C3038091C4039091C5032E
:103460000E9410236B017C0120E030E0A9010E9442
:103470007D2388234CF0C092C203D092C303E09214
:10348000C403F092C5030CC080E090E0A8ECB2E465
:103490008093C2039093C303A093C403B093C50366
:1034A00081E0809355056091C2037091C3038091C0
:1034B000C4039091C5030E94FB2382E190E00E9427
:1034C000FB039FEF29EF30E0915020403040E1F7BF
:1034D00000C0000040E060E070E880E090E00E9402
:1034E00021131C9B1AC0809155058130B1F441E035
:1034F00060E070E880E090E00E9421131092550592
:103500008FE39CE90197F1F700C0000040E060E024
:1035100070E880E090E00E9421138091650587307B
:1035200009F07CC1C090FE03D090FF03E09000043E
:10353000F090010420E030E044E752E4C701B60116
:103540000E94DC2488231CF088E08093650520E03D
:1035500030E040EB50E4609151057091520580914C
:103560005305909154050E947D231816CCF120E05C
:1035700030E044E752E4C701B6010E947D2388236E
:103580007CF560E080E80E94A60581E992E00E9457
:103590007C0660E080EC0E94A605809154058F9324
:1035A000809153058F93809152058F93809151059F
:1035B0008F9383EF92E09F938F9382E893E09F93A2
:1035C0008F930E94782682E893E00E947C062DB7B4
:1035D0003EB7285F3F4F0FB6F8943EBF0FBE2DBFDA
:1035E00020E030E040EB50E46091510570915205CD
:1035F00080915305909154050E94DC24181644F4E0
:1036000010925105109252051092530510925405D4
:103610001B9974C080919F03811170C041E060E0EC
:1036200070E880E090E00E9421132DEC3CEC4CEC23
:103630005DE3609151057091520580915305909121
:1036400054050E9411236B017C0120E030E040EB27
:1036500050E40E94DC2418164CF0C0925105D09220
:103660005205E0925305F092540508C0109251059E
:1036700010925205109253051092540581E08093E8
:103680009F0360915105709152058091530590916F
:1036900054050E94F423262F609360057093610502
:1036A000862F972F880F991FAC01440F551F440F89
:1036B000551F840F951F6AE070E00E949C22909332
:1036C000730380937203622F83E190E00E94FB03F7
:1036D0006091720384E190E00E94FB033FEF89EF69
:1036E00090E0315080409040E1F700C0000040E0A1
:1036F00060E070E880E090E00E9421131B9B1AC0FC
:1037000080919F038130B1F410929F0341E060E00B
:1037100070E880E090E00E9421138FE39CE901971C
:10372000F1F700C0000040E060E070E880E090E069
:103730000E9421131C9956C080915505811152C0D9
:1037400041E060E070E880E090E00E9421132DEC01
:103750003CEC4CEC5DE36091510570915205809119
:103760005305909154050E9410236B017C0120E0C9
:1037700030E0A9010E947D2388234CF0C0925105BE
:10378000D0925205E0925305F09254050CC083E3A9
:1037900093E3A3EBB0E48093510590935205A0937B
:1037A0005305B093540581E0809355056091600501
:1037B00083E190E00E94FB036091720384E190E05A
:1037C0000E94FB039FEF29EF30E0915020403040F2
:1037D000E1F700C0000040E060E070E880E090E0C9
:1037E0000E9421131C9B1AC0809155058130B1F4B1
:1037F00041E060E070E880E090E00E9421131092C8
:1038000055058FE39CE90197F1F700C0000040E007
:1038100060E070E880E090E00E94211380916505EF
:10382000883009F07CC1C090C203D090C303E090FF
:10383000C403F090C50320E030E048EC52E4C70137
:10384000B6010E94DC2488231CF089E08093650582
:1038500020E030E040E251E4609174037091750320
:1038600080917603909177030E947D231816CCF106
:1038700020E030E048EC52E4C701B6010E947D230D
:1038800088237CF560E080E80E94A60581E992E04B
:103890000E947C0660E080EC0E94A6058091770380
:1038A0008F93809176038F93809175038F9380918E
:1038B00074038F9385E093E09F938F9382E893E066
:1038C0009F938F930E94782682E893E00E947C0663
:1038D0002DB73EB7285F3F4F0FB6F8943EBF0FBEDF
:1038E0002DBF20E030E040E251E46091740370911C
:1038F000750380917603909177030E94DC2418165B
:1039000044F410927403109275031092760310928F
:1039100077031B9974C080919F03811170C041E0AF
:1039200060E070E880E090E00E94211320E030E049
:1039300040E05FE3609174037091750380917603BA
:10394000909177030E9411236B017C0120E030E00D
:1039500040E251E40E94DC2418164CF0C09274033B
:10396000D0927503E0927603F092770308C010922C
:10397000740310927503109276031092770381E01E
:1039800080939F0360917403709175038091760317
:10399000909177030E94F423262F6093C0037093C5
:1039A000C103862F972F880F991FAC01440F551F15
:1039B000440F551F840F951F6AE070E00E949C22FF
:1039C0009093950380939403622F85E190E00E9489
:1039D000FB036091940386E190E00E94FB033FEFBC
:1039E00089EF90E0315080409040E1F700C0000046
:1039F00040E060E070E880E090E00E9421131B9BB3
:103A00001AC080919F038130B1F410929F0341E06E
:103A100060E070E880E090E00E9421138FE39CE971
:103A20000197F1F700C0000040E060E070E880E03E
:103A300090E00E9421131C9956C080915505811178
:103A400052C041E060E070E880E090E00E94211305
:103A500020E030E040E05FE3609174037091750313
:103A600080917603909177030E9410236B017C0173
:103A700020E030E0A9010E947D2388234CF0C09211
:103A80007403D0927503E0927603F09277030CC032
:103A900080E090E0A0E2B1E480937403909375031A
:103AA000A0937603B093770381E0809355056091EE
:103AB000C00385E190E00E94FB036091940386E1DE
:103AC00090E00E94FB039FEF29EF30E091502040EF
:103AD0003040E1F700C0000040E060E070E880E0C6
:103AE00090E00E9421131C9B1AC0809155058130E3
:103AF000B1F441E060E070E880E090E00E942113C2
:103B0000109255058FE39CE90197F1F700C0000082
:103B100040E060E070E880E090E00E942113809136
:103B20006505893009F0AFC060E08DE80E94A60508
:103B300063E080919B0390919C030E949306809187
:103B4000F9039091FA03803891057CF560E080E8F4
:103B50000E94A60586E193E00E947C0660E080EC6E
:103B60000E94A6058BE092E00E947C0660E08CEC4F
:103B70000E94A6058091F9039091FA036AE070E033
:103B80000E949C22CB0162E00E94930660E08EECD2
:103B90000E94A6058091F9039091FA0364E670E013
:103BA0000E949C2261E00E9493068091F90390910B
:103BB000FA038038910581F460E080E80E94A60550
:103BC00087E293E00E947C0660E080EC0E94A605FC
:103BD00088E393E00E947C061B9935C080919F0387
:103BE000811131C041E060E070E880E090E00E9427
:103BF00021138091F9039091FA0301968138910580
:103C00002CF49093FA038093F90304C01092FA0302
:103C10001092F90381E080939F036091F90380E1A2
:103C200090E00E94FB039FEF29EF30E0915020408D
:103C30003040E1F700C0000040E060E070E880E064
:103C400090E00E9421131B9B1EC080919F03813036
:103C5000D1F410929F0341E060E070E880E090E0D2
:103C60000E9421138FE39CE90197F1F700C0000047
:103C700040E060E070E880E090E00E94211303C023
:103C800083B10C94A614FF90EF90DF90CF9008952D
:103C90000F931F93CF93DF9360E080EC0E94A60503
:103CA00089E493E00E947C0660910E0470910F04F9
:103CB0007250072E000C880B990B0E942C242EEEBC
:103CC00034E045EB5FE30E94822321EE3AE744E9CA
:103CD0005FE30E94E1240E94F42370935F056093E8
:103CE0005E0560E081EC0E94A60580915E059091E2
:103CF0005F050AE010E0B8010E949C22CB0162E05F
:103D00000E94930660E083EC0E94A60580915E0508
:103D100090915F05C4E6D0E0BE010E949C2261E064
:103D20000E9493060E94F80060E084EC0E94A605C1
:103D30008BE493E00E947C0660919D0370919E034A
:103D40007250072E000C880B990B0E942C242EEE2B
:103D500034E045EB5FE30E94822321EE3AE744E939
:103D60005FE30E94E1240E94F4237093CF036093E9
:103D7000CE0360E087EC0E94A6058091CE0390916F
:103D8000CF03B8010E949C22CB0162E00E949306FF
:103D900060E089EC0E94A6058091CE039091CF034C
:103DA000BE010E949C2261E00E9493060E94F800DE
:103DB00060E08AEC0E94A6058FE493E00E947C06F6
:103DC0006091FB037091FC037250072E000C880B6E
:103DD000990B0E942C242EEE34E045EB5FE30E9409
:103DE000822321EE3AE744E95FE30E94E1240E9446
:103DF000F423709393036093920360E08DEC0E9430
:103E0000A6058091920390919303B8010E949C2291
:103E1000CB0162E00E94930660E08FEC0E94A60551
:103E20008091920390919303BE010E949C2261E0D5
:103E30000E949306DF91CF911F910F910895A0E109
:103E4000B0E0E5E2FFE10C94C5227C011B016A01B0
:103E5000FC0117821682838181FF44C39E012F5F7C
:103E60003F4F3901F7019381F10193FD859193FF54
:103E700081911F01882309F431C3853239F493FD00
:103E8000859193FF81911F01853239F4B70190E04C
:103E90000E943C2656016501E5CF10E0512C912C83
:103EA000FFE1F915D8F08B3279F038F4803279F0EF
:103EB0008332A1F4F92DF0612EC08D3261F0803390
:103EC00069F4292D21602DC0392D3260932E892D62
:103ED0008460982E2AC0E92DE86015C097FC2DC09B
:103EE00020ED280F2A3088F496FE06C03AE0139F92
:103EF000200D1124122F19C08AE0589E200D112484
:103F0000522EE92DE0629E2E10C08E3231F496FCC6
:103F1000E5C2F92DF0649F2E08C08C3621F4292DBE
:103F20002068922E02C0883641F4F10193FD8591FC
:103F300093FF81911F018111B3CF9BEB980F9330B9
:103F400020F4992D9061805E07C09BE9980F933013
:103F500008F066C1992D9F7E96FF16E09F73992EFB
:103F6000853619F49064992E08C0863621F4392FCD
:103F70003068932E02C01111115097FE07C01C33F8
:103F800050F444244394410E27E00BC0183038F01D
:103F900027E017E005C027E09CE3492E02C0212F4F
:103FA000412C560184E0A80EB11CF601608171819C
:103FB00082819381042DA3010E944E256C01F98119
:103FC000FC87F0FF02C0F3FF06C091FC06C092FE22
:103FD00006C000E205C00DE203C00BE201C000E034
:103FE0008C858C7019F001115AC29BC297FE10C0CB
:103FF0004C0CFC85F4FF04C08A81813309F44A9497
:10400000141474F528E0241578F588E0482E2CC0A7
:1040100096FC2AC0812F90E08C159D059CF03CEF0A
:10402000C3163FEFD30674F0892D8068982E0AC01E
:10403000E2E0F0E0EC0FFD1FE10FF11D8081803325
:1040400019F411501111F4CF97FE0EC0442443947B
:10405000410E812F90E0C816D9062CF41C1904C01B
:104060004424439401C010E097FE06C01C141D04B4
:1040700034F4C601019605C085E090E002C081E0FD
:1040800090E001110196112331F0212F30E02F5FD4
:104090003F4F820F931F252D30E08217930714F4B2
:1040A000581A01C0512C892D897049F4552039F0D6
:1040B000B70180E290E00E943C265A94F7CF00239B
:1040C00029F0B701802F90E00E943C2693FC09C0A4
:1040D000552039F0B70180E390E00E943C265A94C5
:1040E000F7CF97FE4CC04601D7FE02C0812C912C21
:1040F000C60188199909F301E80FF91FFE87ED87BA
:10410000960124193109388B2F87012F10E0119562
:10411000019511093FEF8316930629F4B7018EE24A
:1041200090E00E943C26C814D9044CF08F859889F1
:104130008815990524F4ED85FE85818101C080E311
:10414000F1E08F1A91082D853E852F5F3F4F3E8706
:104150002D87801691062CF0B70190E00E943C2636
:10416000D9CFC814D90441F49A81963320F49533F9
:1041700019F43C8534FF81E3B70190E04EC08A8199
:10418000813319F09C859F7E9C87B70190E00E9447
:104190003C26111105C094FC18C085E690E017C0BC
:1041A000B7018EE290E00E943C261E5F82E001E0B3
:1041B000080FF301E80FF11D8081B70190E00E9424
:1041C0003C26802F0113F3CFE6CF85E490E0B701C2
:1041D0000E943C26D7FC06C0C114D10441F4EC85F2
:1041E000E4FF05C0D194C194D1088DE201C08BE2F7
:1041F000B70190E00E943C2680E32AE0C216D10479
:104200002CF08F5FFAE0CF1AD108F7CFB70190E01A
:104210000E943C26B701C601C0960E943C2654C1AC
:10422000833631F0833779F0833509F056C020C0EA
:10423000560132E0A30EB11CF6018081898301E0B2
:1042400010E0630112C05601F2E0AF0EB11CF6019E
:10425000C080D18096FE03C0612F70E002C06FEF76
:104260007FEFC6010E9431268C01F92DFF7714C023
:10427000560122E0A20EB11CF601C080D18096FE4C
:1042800003C0612F70E002C06FEF7FEFC6010E9494
:1042900026268C01F92DF0689F2EF3FD1AC0852D7E
:1042A00090E008171907A8F4B70180E290E00E9497
:1042B0003C265A94F4CFF60197FC859197FE8191A4
:1042C0006F01B70190E00E943C2651105A940150B2
:1042D00011090115110579F7F7C0843611F08936F7
:1042E00061F5560197FE09C024E0A20EB11CF6014B
:1042F00060817181828193810AC0F2E0AF0EB11CAE
:10430000F60160817181072E000C880B990BF92D45
:10431000FF769F2E97FF09C09095809570956195C7
:104320007F4F8F4F9F4FF0689F2E2AE030E0A30110
:104330000E949A26C82EC6183FC0092D853721F441
:104340000F7E2AE030E01DC0097F8F3691F018F40F
:10435000883559F0C3C0803719F0883711F0BEC0D6
:10436000006104FF09C0046007C094FE08C0066035
:1043700006C028E030E005C020E130E002C020E1C6
:1043800032E0560107FF09C084E0A80EB11CF60117
:10439000608171818281938108C0F2E0AF0EB11C0F
:1043A000F6016081718180E090E0A3010E949A266D
:1043B000C82EC6180F77902E96FE0BC0092D0E7FC3
:1043C000C11650F494FE0AC092FC08C0092D0E7E5E
:1043D00005C0DC2C092D03C0DC2C01C0D12E04FF4C
:1043E0000DC0FE01EC0DF11D8081803311F4097EBA
:1043F00009C002FF06C0D394D39404C0802F8678EE
:1044000009F0D39403FD11C000FF06C01C2DD51484
:1044100080F4150D1D190DC0D51458F4B70180E2B4
:1044200090E00E943C26D394F7CFD51410F45D1889
:1044300001C0512C04FF10C0B70180E390E00E943E
:104440003C2602FF17C001FD03C088E790E002C0D0
:1044500088E590E0B7010CC0802F867859F001FF05
:1044600002C08BE201C080E207FD8DE2B70190E05F
:104470000E943C26C11638F4B70180E390E00E9408
:104480003C261150F7CFCA94F301EC0DF11D808149
:10449000B70190E00E943C26C110F5CF15C0F4E0B2
:1044A000F51560F584E0581A93FE1FC0011127C06E
:1044B0002C8523FF2AC004E810E0392D3071932E9B
:1044C000F8018491811124C0552009F4E4CCB7018E
:1044D00080E290E00E943C265A94F6CFF701868154
:1044E000978126C08FEF9FEF23C0B70180E290E055
:1044F0000E943C265A945110F8CFD8CF512CB701C6
:10450000802F90E00E943C26D3CF08E810E0D5CF62
:1045100091108052B70190E00E943C260F5F1F4F20
:10452000CFCF23E0251510F483E0BDCF512CC0CFB1
:104530006096E2E10C94E12297FB072E16F40094BA
:1045400007D077FD09D00E94FC2207FC05D03EF47D
:10455000909581959F4F0895709561957F4F08952F
:10456000EE0FFF1F0590F491E02D0994A29FB0017A
:10457000B39FC001A39F700D811D1124911DB29F97
:10458000700D811D1124911D08952F923F924F921D
:104590005F926F927F928F929F92AF92BF92CF92D3
:1045A000DF92EF92FF920F931F93CF93DF93CDB7DC
:1045B000DEB7CA1BDB0B0FB6F894DEBF0FBECDBF54
:1045C00009942A88398848885F846E847D848C8425
:1045D0009B84AA84B984C884DF80EE80FD800C812E
:1045E0001B81AA81B981CE0FD11D0FB6F894DEBF11
:1045F0000FBECDBFED010895AA1BBB1B51E107C043
:10460000AA1FBB1FA617B70710F0A61BB70B881F62
:10461000991F5A95A9F780959095BC01CD010895F1
:104620005058BB27AA270E9428230C94A2240E943A
:10463000942438F00E949B2420F039F49F3F19F411
:1046400026F40C9491240EF4E095E7FB0C948B2453
:10465000E92F0E94B32458F3BA176207730784073F
:10466000950720F079F4A6F50C94D5240EF4E09586
:104670000B2EBA2FA02D0B01B90190010C01CA011C
:10468000A0011124FF27591B99F0593F50F4503EC7
:1046900068F11A16F040A22F232F342F4427585FB9
:1046A000F3CF469537952795A795F0405395C9F7D1
:1046B0007EF41F16BA0B620B730B840BBAF0915089
:1046C000A1F0FF0FBB1F661F771F881FC2F70EC028
:1046D000BA0F621F731F841F48F4879577956795FB
:1046E000B795F7959E3F08F0B0CF9395880F08F0E7
:1046F0009927EE0F9795879508950E94672408F4EF
:1047000081E008950E9496230C94A2240E949B2489
:1047100058F00E94942440F029F45F3F29F00C9453
:104720008B2451110C94D6240C9491240E94B32410
:1047300068F39923B1F3552391F3951B550BBB27D0
:10474000AA2762177307840738F09F5F5F4F220F15
:10475000331F441FAA1FA9F335D00E2E3AF0E0E80C
:1047600032D091505040E695001CCAF72BD0FE2F56
:1047700029D0660F771F881FBB1F261737074807EA
:10478000AB07B0E809F0BB0B802DBF01FF279358A2
:104790005F4F3AF09E3F510578F00C948B240C94B7
:1047A000D6245F3FE4F3983ED4F3869577956795DA
:1047B000B795F7959F5FC9F7880F911D96958795D7
:1047C00097F90895E1E0660F771F881FBB1F6217F6
:1047D00073078407BA0720F0621B730B840BBA0BB4
:1047E000EE1F88F7E09508950E94FB236894B111AD
:1047F0000C94D62408950E94BB2488F09F5798F00B
:10480000B92F9927B751B0F0E1F0660F771F881FD5
:10481000991F1AF0BA95C9F714C0B13091F00E94EF
:10482000D524B1E008950C94D524672F782F8827DC
:10483000B85F39F0B93FCCF3869577956795B39516
:10484000D9F73EF490958095709561957F4F8F4F85
:104850009F4F0895E89409C097FB3EF4909580958A
:10486000709561957F4F8F4F9F4F9923A9F0F92F36
:1048700096E9BB279395F695879577956795B795B4
:10488000F111F8CFFAF4BB0F11F460FF1BC06F5F9A
:104890007F4F8F4F9F4F16C0882311F096E911C0AC
:1048A000772321F09EE8872F762F05C0662371F0CD
:1048B00096E8862F70E060E02AF09A95660F771FE1
:1048C000881FDAF7880F9695879597F90895990FBD
:1048D0000008550FAA0BE0E8FEEF16161706E807CA
:1048E000F907C0F012161306E407F50798F0621BEB
:1048F000730B840B950B39F40A2661F0232B242BC0
:10490000252B21F408950A2609F4A140A6958FEFDE
:10491000811D811D089597F99F6780E870E060E030
:1049200008959FEF80EC089500240A941616170648
:1049300018060906089500240A9412161306140690
:1049400005060895092E0394000C11F4882352F0F3
:10495000BB0F40F4BF2B11F460FF04C06F5F7F4FAB
:104960008F4F9F4F089557FD9058440F551F59F092
:104970005F3F71F04795880F97FB991F61F09F3F4C
:1049800079F087950895121613061406551FF2CF75
:104990004695F1DF08C0161617061806991FF1CFC5
:1049A00086957105610508940895E894BB276627EC
:1049B0007727CB0197F908950E94672408F48FEFB9
:1049C00008950E94F4240C94A2240E94942438F0A8
:1049D0000E949B2420F0952311F00C948B240C94BE
:1049E000912411240C94D6240E94B32470F3959F33
:1049F000C1F3950F50E0551F629FF001729FBB27D6
:104A0000F00DB11D639FAA27F00DB11DAA1F649F71
:104A10006627B00DA11D661F829F2227B00DA11D24
:104A2000621F739FB00DA11D621F839FA00D611DAA
:104A3000221F749F3327A00D611D231F849F600DCB
:104A4000211D822F762F6A2F11249F5750409AF0F4
:104A5000F1F088234AF0EE0FFF1FBB1F661F771F80
:104A6000881F91505040A9F79E3F510580F00C944B
:104A70008B240C94D6245F3FE4F3983ED4F38695C0
:104A800077956795B795F795E7959F5FC1F7FE2BEB
:104A9000880F911D9695879597F90895283008F00D
:104AA00027E03327DA01990F311D87FD91600096C9
:104AB0006105710539F432602E5F3D9330E32A952C
:104AC000E1F708959F3F30F080387105610509F0E6
:104AD0003C5F3C5F3D93913008F08068911DDF930F
:104AE000CF931F930F93FF92EF92192F987F969574
:104AF000E92F96959695E90FFF27EA51FF4F9927E1
:104B00003327EE24FF24A701E701059008940794BA
:104B100028F4360FE71EF81E491F511D660F771F38
:104B2000881F991F0694A1F70590079428F4E70EB3
:104B3000F81E491F561FC11D770F881F991F661F3A
:104B40000694A1F70590079428F4F80E491F561F04
:104B5000C71FD11D880F991F661F771F0694A1F7E5
:104B60000590079420F4490F561FC71FD81F990FAF
:104B7000661F771F881F0694A9F7849110951770F8
:104B800041F0D695C79557954795F794E7941A95B0
:104B9000C1F7ECE8F0E068941590159135916591B6
:104BA000959105907FE27395E118F10A430B560B3E
:104BB000C90BD009C0F7E10CF11E431F561FC91FD6
:104BC000D01D7EF4703311F48A95E6CFE89401503D
:104BD00030F0080F0AF40027021708F4202F23955D
:104BE000022F7A3328F079E37D932A95E9F710C0F4
:104BF0007D932A9589F6069497956795379517952D
:104C00001794E118F10A430B560BC90BD00998F021
:104C100023957E9173957A3308F070E37C9320138B
:104C2000B8F77E9170617D9330F0839571E37D9349
:104C300070E32A95E1F71124EF90FF900F911F91F7
:104C4000CF91DF91992787FD90950895FC010590FC
:104C5000615070400110D8F7809590958E0F9F1F7E
:104C60000895FC016150704001900110D8F78095C3
:104C700090958E0F9F1F08950F931F93CF93DF93EF
:104C8000FB01238121FD03C08FEF9FEF2CC022FF8A
:104C900016C046815781248135814217530744F459
:104CA000A081B1819D012F5F3F4F318320838C9381
:104CB000268137812F5F3F4F3783268314C08B01B6
:104CC000EC01FB010084F185E02D0995892BE1F6CB
:104CD000D80116968D919C911797019617969C93E3
:104CE0008E931697CE01DF91CF911F910F9108956A
:104CF000AEE0B0E0EEE7F6E20C94D3220D891E8917
:104D000086E08C831A8309838FEF9FE79E838D83D0
:104D1000AE01475E5F4F6F89788DCE0101960E948C
:104D20001F1FEF81F885E00FF11F10822E96E4E03F
:104D30000C94EF22FA01AA27283051F1203181F199
:104D4000E8946F936E7F6E5F7F4F8F4F9F4FAF4F93
:104D5000B1E03ED0B4E03CD0670F781F891F9A1FA6
:104D6000A11D680F791F8A1F911DA11D6A0F711D5A
:104D7000811D911DA11D20D009F468943F912AE066
:104D8000269F11243019305D3193DEF6CF0108954E
:104D9000462F4770405D4193B3E00FD0C9F7F6CF7F
:104DA000462F4F70405D4A3318F0495D31FD405247
:104DB000419302D0A9F7EACFB4E0A69597958795DD
:104DC00077956795BA95C9F70097610571050895BC
:104DD0009B01AC010A2E0694579547953795279568
:104DE000BA95C9F7620F731F841F951FA01D089500
:044DF000F894FFCF65
:104DF40005005061B26FBF6120B365BDBF2D706106
:104E04002020004142544F2020205045A3A54D208E
:104E140020202000A87963BA20A441A85045E2A22A
:104E24004820202000546D70252E3166432F486D94
:104E3400252E31662525202000A8B8BF61BDB865A0
:104E440020424BA7B0AB45484F00A461BE7963BA7A
:104E5400204F544BA7B0ABA2482020202020005064
:104E640079C0BD6FB9205045A3A54D202020200056
:104E74005079C0BD6FB920A8A9434B20B365BDBF0D
:104E8400002143B8B4BD61BB20A84FA341505F21AA
:104E9400200041B36170B8C720BEB8BF61BDB8C7B8
:104EA40020200041B36170B8C720B3786FE361205C
:104EB400414C200041B36170B8C720B3786FE361FF
:104EC400205053200041B36170B8C72033383042BA
:104ED40020202020200041B36170B8C720E461B7CE
:104EE400B8706FB3BAB8005065B365706320E461FD
:104EF400B7203338304220002020202020202020DA
:104F04002020202020202020004FBFBABB6FBD6589
:104F1400BDB8652020202020200061BCBEBBB8BFE6
:104F240079E32C422B2F2D00427065BCC720B3C3FC
:104F3400786FE3612020202000BD61207065B6B841
:104F4400BC2C006365BA2E0054B8BE20E361BFC018
:104F5400B8BA61202D5053002D4E4F2D6FBFBA703B
:104F6400C3BF2D002D4E432DB761BCBABD79BF2DF3
:104F74000054B8BE20E361BFC0B8BA61202D414CD3
:104F8400004D61BA63B8BC61BBC4BD61C7202020B9
:104F94002000BF65BC2D70612C43202020202020E0
:104FA400004B6FBDBF706FBBC42020202020202089
:104FB4002000BF65BCBE2D70C320202020204F548C
:104FC4004BA700B3BB61B6BD6F63BFC420202020D4
:104FD4002500B3BB61B6BD6F63BFB82020204F541A
:104FE4004BA700546D702B2F2D252E3166432020A6
:104FF4002020202000486D2B2F2D252E31662525BD
:1050040020202020200053797374656D5F616472E1
:1050140065732020202000416472657373206469E5
:105024007361626C65202000202020202020202035
:105034004F544BA7202020200055005F5F56005F8F
:045044005F570000B2
:00000001FF
