:100000000C94C3000C94E0000C94E0000C94E0000D
:100010000C94E0000C94E0000C94E0000C94600858
:100020000C94E0000C94E0000C94E0000C94950813
:100030000C94E0000C94E0000C94E0000C94E000C0
:100040000C94E0000C94E0000C94E0000C94E000B0
:100050000C94E0000C94E0000C94E0000C94E000A0
:100060000C94E0000C94E000310D3C0D470D520D56
:100070005D0D680D730D370E420E4D0E580E630E5A
:100080006E0E790E6E616E00696E660000407A1029
:10009000F35A00A0724E18090010A5D4E80000E839
:1000A0007648170000E40B54020000CA9A3B000097
:1000B00000E1F505000080969800000040420F0026
:1000C0000000A08601000000102700000000E803E7
:1000D000000000006400000000000A0000000000B2
:1000E0000100000000002C76D888DC674F0823DF71
:1000F000C1DFAE59E1B1B796E5E3E453C63AE65144
:10010000997696E8E6C28426EB898C9B62ED407C6A
:100110006FFCEFBC9C9F40F2BAA56FA5F490055A06
:100120002AF75C936B6CF9676DC11BFCE0E40D472B
:10013000FEF520E6B500D0ED902E0300943577054E
:100140000080841E080000204E0A000000C80C3306
:100150003333330F986E12831141EF8D2114893B95
:10016000E65516CFFEE6DB18D1844B381BF77C1D15
:10017000901DA4BBE424203284725E228100C9F168
:1001800024ECA1E53D2711241FBECFEFD8E0DEBF50
:10019000CDBF13E0A0E0B1E0E8E0F5E502C00590D6
:1001A0000D92AA37B107D9F725E0AAE7B3E001C05D
:1001B0001D92AD39B207E1F70E94AC080C94822A77
:1001C0000C94000080937C00EAE7F0E0808180647A
:1001D0008083808186FDFDCFE8E7F0E0808120917B
:1001E000790090E0922B91838083808191810895A2
:1001F0000F931F93CF93DF93109244041092430404
:100200001092CA031092C90310922F0410922E0468
:1002100080E00E94E2009093840380938303C7E709
:10022000D0E000E012E083E00E94E20090938E05AF
:1002300080938D05209143043091440482179307E5
:100240006CF0811522E092072CF090934404809387
:10025000430404C0109344040093430487E00E94C5
:10026000E2009093AB038093AA032091C9033091DD
:10027000CA03821793076CF0811522E092072CF0D5
:100280009093CA038093C90304C01093CA030093D8
:10029000C90386E00E94E2009093CD038093CC03D3
:1002A00020912E0430912F04821793076CF0811552
:1002B00022E092072CF090932F0480932E0404C028
:1002C00010932F0400932E04219709F0ACCF809156
:1002D000430490914404DF91CF911F910F910895B1
:1002E000CF92DF92EF92FF92CF93C0903304D090E1
:1002F0003404E0903504F090360420E030E040E72C
:1003000052E4C701B6010E94072718160CF456C024
:1003100020E030E040E251ECC701B6010E946628BF
:1003200088230CF44BC020910604309107044091BF
:10033000080450910904C701B6010E940727181646
:1003400084F080917B0381110CC0C1E0C0937B03DA
:1003500041E060E070E280E090E00E944614C093CB
:100360009403209188053091890540918A05509128
:100370008B05609133047091340480913504909121
:1003800036040E949A262091060430910704409179
:100390000804509109040E94662888237CF080910B
:1003A0007B03813059F410927B0340E060E070E2FF
:1003B00080E090E00E94461410929403C090F203F3
:1003C000D090F303E090F403F090F50320E030E0E8
:1003D00046EC52E4C701B6010E94072718160CF438
:1003E0004BC02091020430910304409104045091C9
:1003F0000504C701B6010E940727181684F08091F2
:100400007A0381110CC0C1E0C0937A0341E060E03F
:1004100070E480E090E00E944614C0933E04209176
:10042000A0033091A1034091A2035091A3036091D6
:10043000F2037091F3038091F4039091F5030E940D
:100440009A262091020430910304409104045091B3
:1004500005040E94662888237CF080917A0381300D
:1004600059F410927A0340E060E070E480E090E09C
:100470000E94461410923E04CF91FF90EF90DF90BF
:10048000CF90089541E060E071E080E090E00E944C
:1004900046140E94F70C80918203811138C080912C
:1004A00025048111B8C080919403813029F0909186
:1004B0003E04913009F0A1C041E060E870E080E0C6
:1004C00090E00E94461460E080E80E94470582E0C8
:1004D00091E00E941D0681E080937D03809194034A
:1004E000811115C080913E0481118AC040E060E80E
:1004F00070E080E090E00E94461460E080E80E9496
:10050000470583E191E00E941D0610927D038091D2
:100510008203823021F080912504813081F5809121
:100520009403813021F080913E04813041F460E0F9
:1005300080E80E94470584E291E00E941D068091B8
:100540009403811115C080913E04811111C040E0D7
:1005500060E870E080E090E00E94461460E080E88F
:100560000E94470583E191E00E941D0610927D03E1
:1005700040E060E870E080E090E00E9446148091E6
:100580008203813099F580919403813021F080912C
:100590003E04813091F441E060E870E080E090E05A
:1005A0000E94461460E080E80E94470582E091E0E6
:1005B0000E941D0681E080937D0380919403811148
:1005C00015C080913E04811111C040E060E870E0E8
:1005D00080E090E00E94461460E080E80E944705B9
:1005E00083E191E00E941D0610927D038FE39CE958
:1005F0000197F1F700C000000895882339F0BFCFBC
:1006000080918203823009F48ECF85CF80913E04A1
:10061000811181CF6BCF80912504813039F77FCF55
:10062000CF93DF93579A5F982FEF80EE90E02150A1
:1006300080409040E1F700C000005F9A579887EC37
:1006400090E00197F1F700C000004F9931C08FE3AF
:1006500091E00197F1F700C000004F9B2CC04F992B
:10066000FECFA9E1B4E0CEE1D4E061E070E0FD01AD
:100670001C9287E090E04F9BFECF2AE82A95F1F785
:1006800000C04F9B0AC040819B01082E02C0220F70
:10069000331F0A94E2F7242B20834F99FECF019752
:1006A00050F71196CA17DB0711F781E090E005C0FB
:1006B00080E090E002C080E090E0DF91CF9108956B
:1006C0008F929F92AF92BF92CF92DF92EF92FF9262
:1006D0000F931F93CF93DF9310928D030E9410030B
:1006E000C82F80938D03813009F08BC01092F703DF
:1006F0001092F603E9E1F4E0008110E0E180F12CD2
:10070000D281C380D12CC8018E0D9F1D8D0F911DEC
:100710008C0D9D1D90933D0480933C046D2F6F774D
:1007200070E080E090E00E94B6272DEC3CEC4CECB1
:1007300051E40E946B284B015C01B601DD0C880B73
:10074000990B0E94B6272DEC3CEC4CEC5DE30E942B
:100750006B289B01AC01C501B4010E949B264B0193
:100760005C016093060470930704809308049093DF
:1007700009040E947E2770938F0360938E03DD230C
:100780009CF4B7FAB094B7F8B094809206049092B3
:100790000704A0920804B09209047195619571094B
:1007A00070938F0360938E03B701FF0C880B990B36
:1007B0000E94B6272DEC3CEC4CEC5DE30E946B28CC
:1007C0006B017C01B801110F880B990B0E94B627B1
:1007D0002DEC3CEC4CEC51E40E946B289B01AC01ED
:1007E000C701B6010E949B26609302047093030424
:1007F00080930404909305048091F6039091F7038D
:100800001EC0811109C08091F6039091F7030196F3
:100810009093F7038093F6038091F6039091F7038A
:100820008536910564F084E690E09093F703809319
:10083000F60381E080939205C130F1F408C084365C
:10084000910514F410929205C13041F402C084E67F
:1008500090E001979093F7038093F6038091F6035D
:100860009091F703049744F41092920588E090E089
:100870009093F7038093F603DF91CF911F910F912F
:10088000FF90EF90DF90CF90BF90AF909F908F90B0
:1008900008950E94600360E080EC0E94470580910B
:1008A00005048F93809104048F93809103048F93A8
:1008B000809102048F93809109048F9380910804A2
:1008C0008F93809107048F93809106048F9385E323
:1008D00091E09F938F938EEA93E09F938F930E9472
:1008E000022A8EEA93E00E941D068DB79EB70C96F1
:1008F0000FB6F8949EBF0FBE8DBF0895F999FECF35
:1009000092BD81BD60BDFA9AF99A0895F999FECF1A
:1009100092BD81BDF89A80B508958091830390912E
:1009200084039C012E5432402F36310538F4409117
:100930008503413019F442E040938203805991408D
:100940008D3B9105E8F440918503411115C042E0CB
:100950004093820311C080918503813019F4109275
:10096000820308952F363105B8F4809185038111F3
:1009700013C01092820308958F35914028F4EBCF75
:100980008F35914078F304C081E080938203E3CFF8
:1009900081E080938203E6CF089581E00E94E20027
:1009A00090938103809380038E5492408F369105FB
:1009B00068F480918603813049F480937F0341E09D
:1009C00060E074E080E090E00E9446148091800333
:1009D00090918103805991408D3B910508F052C060
:1009E0002091860321114AC081E080937F0341E07A
:1009F00060E074E080E090E00E9446148091800303
:100A000090918103805991408F35914050F082E060
:100A100080937F0341E060E078E080E090E00E9416
:100A200046148091800390918103805991408D3BC1
:100A3000910568F480918603813049F410927F0318
:100A400040E060E074E080E090E00E944614809115
:100A50008003909181038E5492408F369105B0F4BB
:100A600080918603811112C010927F0340E060E004
:100A700074E080E090E00E94461408958F35914024
:100A8000C8F2C5CF8F35914010F3C1CF0895CF93F1
:100A9000C82F613041F441E061E070E080E090E017
:100AA0000E94461407C040E061E070E080E090E002
:100AB0000E94461441E062E070E080E090E00E9415
:100AC0004614C4FF08C041E064E070E080E090E0BC
:100AD0000E94461407C040E064E070E080E090E0CF
:100AE0000E944614C5FF08C041E068E070E080E065
:100AF00090E00E94461407C040E068E070E080E0AB
:100B000090E00E944614C6FF08C041E060E170E03A
:100B100080E090E00E94461407C040E060E170E091
:100B200080E090E00E944614CC2344F441E060E26F
:100B300070E080E090E00E94461407C040E060E270
:100B400070E080E090E00E94461440E062E070E0D7
:100B500080E090E00E9446148FE39FE10197F1F757
:100B600000C0000041E062E070E080E090E00E94A0
:100B70004614C0FF08C041E064E070E080E090E00F
:100B80000E94461407C040E064E070E080E090E01E
:100B90000E944614C1FF08C041E068E070E080E0B8
:100BA00090E00E94461407C040E068E070E080E0FA
:100BB00090E00E944614C2FF08C041E060E170E08E
:100BC00080E090E00E94461407C040E060E170E0E1
:100BD00080E090E00E944614C3FF08C041E060E25C
:100BE00070E080E090E00E94461407C040E060E2C0
:100BF00070E080E090E00E94461440E062E070E027
:100C000080E090E00E9446148FE39FE10197F1F7A6
:100C100000C00000CF91089560E082E00E94470587
:100C200060E088E20E94470560E08CE00E94470592
:100C300060E081E00E94470508950F931F93CF93D2
:100C4000FC018081882361F08F01C0E0CF5F61E00B
:100C50000E944705F801EC0FF11D80818111F6CF4C
:100C6000CF911F910F910895CF93DF93EC016230E4
:100C700009F449C020F4613009F46DC08AC06330C2
:100C8000C1F0643009F085C09C01369527953695F2
:100C9000279536952795A5ECB0E20E9440269295BF
:100CA00082958F7089279F70892761E0805D0E94FF
:100CB00047059E013695279536952795ABE7B4E114
:100CC0000E944026AC01569547959A01ADECBCECCC
:100CD0000E94402696958795969587959695879537
:100CE0009C01220F331F880F991F880F991F880FAF
:100CF000991F820F931F9A01281B390BC90161E0CC
:100D0000805D0E9447059E01ADECBCEC0E94402630
:100D1000AC015695479556954795569547959A0136
:100D20000E944026969587959695879596958795E6
:100D30009C01220F331F880F991F880F991F880F5E
:100D4000991F820F931F9A01281B390BC90161E07B
:100D5000805D0E9447059E01ADECBCEC0E944026E0
:100D60009695879596958795969587959C01220FE0
:100D7000331F880F991F880F991F880F991F820FA3
:100D8000931F9E01281B390BC90161E0805D0E9401
:100D90004705DF91CF9108951092370410920C040B
:100DA00010920E048091C3039091C4030196909316
:100DB000C4038093C30360912E0470912F0472507A
:100DC000072E000C880B990B0E94B6272EEE34E0FC
:100DD00045EB5FE30E940C2721EE3AE744E95FE32D
:100DE0000E946B280E947E27AB01709312046093CF
:100DF0001104209100013091010181EE90E0821BED
:100E0000930B481759072CF02F513F4F24173507E4
:100E10004CF580918605909187052091380430919A
:100E20003904821B930B8D349D41A4F440E060E4AF
:100E300070E080E090E00E944614809186059091D9
:100E400087052091380430913904821B930B8D342F
:100E50009D41ECF041E060E470E080E090E00E94B1
:100E6000461415C081E08093370480930C04809170
:100E7000160490911704019690931704809316041A
:100E800041E060E470E080E090E00E94461481E080
:100E900080930C042091C3033091C4034091160445
:100EA0005091170464E6649FC001659F900D112462
:100EB000B9010E9426267093D2036093D103243691
:100EC000310541F41092C4031092C3031092170429
:100ED0001092160480918605909187052091380420
:100EE00030913904AC01421B530B9A0128393A4323
:100EF00024F09093390480933804089580918203FC
:100F0000823021F090912504913039F421E030E0D5
:100F100030934F0420934E0404C010924F0410925B
:100F20004E042091A8033091A903232B39F421E02A
:100F300030E0309351042093500404C010925104C7
:100F400010925004813039F481E090E09093530482
:100F50008093520404C01092530410925204809162
:100F60007F03823039F421E030E030935504209340
:100F7000540404C0109255041092540490910C042F
:100F8000911107C021E030E03093570420935604BC
:100F900004C010925704109256049091920591301B
:100FA00039F421E030E0309359042093580404C010
:100FB000109259041092580490919D03913039F485
:100FC00021E030E030935B0420935A0404C0109277
:100FD0005B0410925A0490911804913039F421E086
:100FE00030E030935F0420935E0404C010925F04ED
:100FF00010925E04833038F081E090E090936104B9
:101000008093600404C01092610410926004809187
:101010004C0490914D04899724F010925904109239
:1010200058048091A6039091A70389970CF440C0BF
:1010300010925B0410925A043BC090813296890F43
:10104000E217F307D1F780930E0481110BC040E043
:1010500060E078E080E090E00E94461480910E0409
:10106000882339F041E060E078E080E090E00E9481
:10107000461480918203823021F0809125048130D2
:1010800039F441E060E072E080E090E00E944614B4
:1010900080918203811113C08091250481110FC0BA
:1010A00040E060E072E080E090E00E944614089525
:1010B00080910E04E0E5F4E022E634E0BECF08952E
:1010C0001F920F920FB60F9211242F933F934F93BD
:1010D0005F936F937F938F939F93AF93BF93EF93A0
:1010E000FF93599A80918605909187050196909378
:1010F0008705809386050E94461280919503813072
:1011000011F40E94B9135998FF91EF91BF91AF91DB
:101110009F918F917F916F915F914F913F912F910F
:101120000F900FBE0F901F9018951F920F920FB641
:101130000F9211248F939F93809123049091240404
:10114000019690932404809323049F918F910F9094
:101150000FBE0F901F90189541E060E070E880E0AE
:1011600090E00E944614AAE7B0E08C9180688C93CE
:10117000ECE7F0E080811082808180648083808150
:101180008F6D80838C9186608C93EBE7F0E080819B
:101190008083EEE7F0E080818763808380B780689A
:1011A00080BF80E287B992E094B988E185B98EEF7B
:1011B0008AB918B810928000E1E8F0E080818D6073
:1011C0008083109285001092840029E03DE33093E3
:1011D00089002093880090936F00E0EBF0E080811D
:1011E00082608083E1EBF0E08081826080831092F6
:1011F000B2008FEF8093B300E0E7F0E0808182607F
:1012000080832FEF83EC99E0215080409040E1F7FC
:1012100000C000000E940C0660E081E00E944705CB
:1012200060E080E80E94470589E491E00E941D0685
:101230000E94CC060E94D2214E9A0E94D221109286
:101240008F0585E090E09093220480932104109212
:1012500024041092230483E080939B051092FA03E8
:101260001092CB0310928C051092A7031092A60344
:1012700010924D0410924C041092330410923404D6
:1012800010923504109236041092F2031092F30378
:101290001092F4031092F5031092A9031092A80380
:1012A0001092010410920004109248041092470416
:1012B0001092F7031092F60310920D041092C203DD
:1012C0001092180483E190E090932D0480932C04F5
:1012D0008DE990E09093F9038093F80381E090E02A
:1012E0000E94860480939B0582E090E00E94860421
:1012F00090E0909322048093210483E090E00E9488
:10130000860490E0909301018093000186E090E0D4
:101310000E948604823018F48093860303C081E023
:101320008093860387E090E00E948604823018F460
:101330008093850303C081E08093850388E090E07B
:101340000E94860490E09093A7038093A6038B9756
:1013500034F089E290E09093A7038093A60389E09C
:1013600090E00E94860490E090934D0480934C049A
:101370008B9734F089E290E090934D0480934C0475
:1013800080E190E00E94860490E090932D04809389
:101390002C048138910524F010922D0410922C0415
:1013A00081E190E00E948604682F70E080E090E088
:1013B0000E94B427609333047093340480933504FF
:1013C0009093360420E030E048E752E40E9466281B
:1013D000181664F480E090E0A4E7B2E4809333044C
:1013E00090933404A0933504B093360482E190E0E6
:1013F0000E948604682F70E080E090E00E94B4278D
:101400006093F2037093F3038093F4039093F503D6
:1014100020E030E048EC52E40E946628181664F49C
:1014200080E090E0A8ECB2E480933304909334041D
:10143000A0933504B093360483E190E00E948604C3
:1014400090E0909398058093970584E190E00E9446
:10145000860490E090939A038093990385E190E04D
:101460000E94860490E09093F1038093F00386E15C
:1014700090E00E948604C82FD0E0D093C103C093AF
:10148000C0036091990370919A03072E000C880B9A
:10149000990B0E94B6272DEC3CEC4CEC5DE30E94CE
:1014A0006B286B017C016091970570919805072E60
:1014B000000C880B990B0E94B6279B01AC01C70159
:1014C000B6010E949B2660938805709389058093DE
:1014D0008A0590938B056091F0037091F103072EBC
:1014E000000C880B990B0E94B6276B017C01BE0192
:1014F000DD0F880B990B0E94B6272DEC3CEC4CECD1
:101500005DE30E946B289B01AC01C701B6010E94FC
:101510009B266093A0037093A1038093A2039093F2
:10152000A30310929C0580E00E94E2009093840344
:101530008093830381E00E94E20090938103809373
:1015400080030E94D2210E94CC060E947E077894DC
:10155000109297031092960340E060E070E880E0FC
:1015600090E00E94461411E0C1E0D0E00E94F80033
:101570000E948D040E94CD040E94CC060E9470152A
:101580000E947E070E94700180919B05823009F4C1
:10159000BFC01093EF032091D1033091D20380910B
:1015A000A6039091A703820F931F84369105D4F46C
:1015B00040E060E470E080E090E00E944614109209
:1015C000A9031092A8038091A6039091A7032091EC
:1015D000D1033091D203280F391F2436310514F47A
:1015E00089975CF0D093A903C093A803412F60E4CE
:1015F00070E080E090E00E9446141B9946C0809104
:101600007C03811142C080919C05811184C0412FCF
:1016100060E070E880E090E00E94461480919B05B5
:101620008F5F80939B0510937C0310928F0510921F
:101630002704109226042FEF86E791E02150804086
:101640009040E1F700C0000010927E0340E060E8A7
:1016500070E080E090E00E94461480919B05843009
:1016600010F010939B0560919B05CE010E947E04B3
:101670008FE39CE90197F1F700C0000040E060E0D3
:1016800070E880E090E00E9446141B9B12C080919D
:101690007C03813071F480919C0581110AC0109205
:1016A0008F0510927C038FE39CE90197F1F700C04E
:1016B000000080919B05813031F480919C0581115F
:1016C00055CF0E948D0B80919B05823031F4809123
:1016D0009C0581114BCF0E94420280919B05833073
:1016E00009F044CF80919C05811140CF60E080E8F3
:1016F0000E9447058AE591E00E941D060E94F70CB2
:1017000040E060E071E080E090E00E9446142ECF5F
:101710001092EF0340CF83B1CCCF80918F05811120
:101720004DC11C9B48C180917E03811144C18091B1
:10173000950381110EC01092DA031092D903109212
:101740009F0310929E0310929C0310929B03109291
:10175000CE0340E060E071E080E090E00E9446143B
:1017600060E080E80E9447058FE691E00E941D0638
:101770000E94F70C10929503109213048FE39CE9DA
:101780000197F1F700C000001C9920C080918F05DF
:10179000882309F419C11AC041E060E070E880E0D4
:1017A00090E00E94461481E080938F059FEF2AE627
:1017B00083E0915020408040E1F700C0000040E00D
:1017C00060E070E880E090E00E94461480918F0510
:1017D000813009F006C11C9B74C080917E03811189
:1017E00070C080918203811118C0809125048111FD
:1017F000F3C010928F0581E080937E0380937D0378
:1018000080939503109213049FEF29EF80E091508D
:1018100020408040E1F700C00000809182038230C8
:1018200021F080912504813009F581E080937E03C9
:1018300040E060E870E080E090E00E944614109282
:10184000950310928F0560E080E80E94470584E2CE
:1018500091E00E941D069FEF29EF80E0915020400B
:101860008040E1F700C0000010927D0380918F0559
:101870008111A6C01C9952C080917E03813009F06D
:101880004DC01092950341E060E070E880E090E088
:101890000E94461481E080938F059FEF22E587E048
:1018A000915020408040E1F700C0000040E060E03F
:1018B00070E880E090E00E94461480918F058130AE
:1018C00049F51C9B93C080917E03813009F08EC046
:1018D0001092CE0340E060E870E080E090E00E946B
:1018E000461410927E0310928F0560E080E80E94FB
:1018F00047058FE691E00E941D060E94F70C9FEFBE
:1019000029EF80E0915020408040E1F700C00000C6
:1019100010927D0380918F05811168C080917E03B4
:10192000813009F063C0809113048130A1F480916B
:10193000CE03811110C0109295031092DA03109219
:10194000D90381E08093CE0341E060E870E080E05D
:1019500090E00E9446148091820381110EC0809114
:10196000250481110EC060E080E80E94470580E8F0
:1019700091E00E941D060E94F70C80918203823044
:1019800021F080912504813089F540E060E870E025
:1019900080E090E00E9446141092950360E080E899
:1019A0000E94470584E291E00E941D0610927D038B
:1019B0000E94F70C08951C9B07C058CF83B106CF37
:1019C000813009F47ECF089580917E03811152CF3A
:1019D000E3CE80918F05F4CF809125048130C9F743
:1019E00024CF80918F05882309F444CF0895CF93A5
:1019F000DF9380919B05813009F406C160E080ECA3
:101A00000E9447051092100410920F04C091260402
:101A1000D0912704C730D10509F0F8C10E944904CC
:101A2000C0912604D0912704C730D1050CF074C0B2
:101A3000FE01EE0FFF1FE25BFB4F8081918101975A
:101A400009F060C005C081919191019709F05FC0D4
:101A5000C730D10508F051C0FE01EC5CFF4F0C947B
:101A60003A2681E991E00E941D0681E090E0909382
:101A7000100480930F0441C082EA91E00E941D0689
:101A800081E090E09093100480930F0436C083EBC4
:101A900091E00E941D0681E090E0909310048093F5
:101AA0000F042BC084EC91E00E941D0681E090E0C1
:101AB0009093100480930F0420C085ED91E00E9464
:101AC0001D0681E090E09093100480930F0415C0F0
:101AD00086EE91E00E941D0681E090E09093100454
:101AE00080930F040AC087EF91E00E941D0681E0F9
:101AF00090E09093100480930F04D0932704C09338
:101B000026040AC0FE01EE0FFF1FE05BFB4F21968B
:101B1000C730D1050CF497CF80910F049091100439
:101B2000892B31F40E944904109227041092260454
:101B300080910F0490911004019711F40E946003AA
:101B40001C990AC08091CB03811106C081E080936B
:101B5000CB031C9B54C007C01C9B51C08091CB037E
:101B6000813009F04CC041E060E070E880E090E036
:101B70000E9446141092CB03E0912604F0912704B2
:101B8000CF0101969093270480932604DC01AA0FCD
:101B9000BB1FA25BBB4F2D913C91232B49F5873096
:101BA00091055CF012C0219131912130310549F449
:101BB000909327048093260408C0EE0FFF1FEE5A6F
:101BC000FB4F01968730910571F780912604909123
:101BD0002704089724F010922704109226042FEF70
:101BE00089EF90E0215080409040E1F700C0000074
:101BF00040E060E070E880E090E00E944614809150
:101C00009B05813009F00CC160E080EC0E94470523
:101C10001092100410920F04C0912604D091270452
:101C2000C730D10509F0F7C00E944904C0912604CD
:101C3000D0912704C730D1050CF074C0FE01EE0F1F
:101C4000FF1FE25BFB4F80819181019709F060C02B
:101C500005C081919191019709F05FC0C730D1050E
:101C600008F051C0FE01E55CFF4F0C943A2681E973
:101C700091E00E941D0681E090E090931004809313
:101C80000F0441C082EA91E00E941D0681E090E0CD
:101C90009093100480930F0436C083EB91E00E9470
:101CA0001D0681E090E09093100480930F042BC0F8
:101CB00084EC91E00E941D0681E090E09093100476
:101CC00080930F0420C085ED91E00E941D0681E005
:101CD00090E09093100480930F0415C086EE91E07D
:101CE0000E941D0681E090E09093100480930F0401
:101CF0000AC087EF91E00E941D0681E090E090937A
:101D0000100480930F04D0932704C09326040AC0C4
:101D1000FE01EE0FFF1FE05BFB4F2196C730D105A0
:101D20000CF497CF80910F0490911004892B31F41B
:101D30000E944904109227041092260480910F04F7
:101D400090911004019711F40E9460031D9B0AC03A
:101D50008091CB03811106C081E08093CB031D9954
:101D60005FC007C01D995CC08091CB03813009F032
:101D700057C041E060E070E880E090E00E944614C7
:101D80001092CB03E0912604F0912704CF01019635
:101D90009093270480932604DC01AA0FBB1FA25B4B
:101DA000BB4F2D913C91232B49F5873091055CF079
:101DB00012C0219131912130310549F490932704CB
:101DC0008093260408C0EE0FFF1FEE5AFB4F0196CA
:101DD0008730910571F78091260490912704089728
:101DE00024F010922704109226042FEF89EF90E040
:101DF000215080409040E1F700C0000040E060E0EA
:101E000070E880E090E00E9446140AC0C730D10517
:101E10000CF40ECE87CEC730D1050CF40FCF88CF8F
:101E2000DF91CF910895CF93DF93809190039091AC
:101E300091038D30910509F01AC3C4E6D4E02A8DD0
:101E40003B8D8091280490912904822B932B2C891F
:101E50003D89220F331F220F331F220F331F822B86
:101E6000932B2E893F89220F331F220F331F822B82
:101E7000932B288D398D220F331F822B932B909318
:101E800029048093280408C0299A459A80919003D8
:101E9000909191030D9711F4299A459A809190039E
:101EA000909191030E9761F480914E0490914F04AC
:101EB000019721F0809125048230B1F4299A459A46
:101EC00080919003909191038D3091050CF4DBC2C9
:101ED000469711F4299A459A809190039091910325
:101EE0004F9711F4299A459A80919003909191030C
:101EF000889711F4299A459A8091900390919103C3
:101F0000C19711F4299A459A809190039091910379
:101F1000CA9711F4299A459A809190039091910360
:101F20008334910511F4299A459A809190039091F8
:101F300091038C34910511F4299A459A80912804D3
:101F4000909129048230910509F46AC01CF4892B10
:101F500049F099C28330910509F47FC00E9709F4C6
:101F60001FC291C28091900390919103099711F43F
:101F7000299A459A80919003909191030D9711F4BD
:101F8000299A459A80919003909191030E9761F45C
:101F900080914E0490914F04019721F08091250487
:101FA000823091F4299A459A8091900390919103FF
:101FB000469711F4299A459A809190039091910344
:101FC0004F9711F4299A459A80919003909191032B
:101FD000889711F4299A459A8091900390919103E2
:101FE000C19711F4299A459A809190039091910399
:101FF000CA9711F4299A459A809190039091910380
:102000008334910511F4299A459A80919003909117
:1020100091038C34910509F036C2299A459A33C24E
:1020200080919003909191030D9711F4299A459A0C
:1020300080919003909191030E9709F024C28091B2
:102040004E0490914F04019729F08091250482302D
:1020500009F019C2299A459A16C28091900390916D
:1020600091030D9711F4299A459A809190039091CC
:1020700091030E9761F480914E0490914F04019763
:1020800021F080912504823091F4299A459A80911B
:10209000900390919103469711F4299A459A809163
:1020A0009003909191034F9711F4299A459A80914A
:1020B000900390919103889711F4299A459A809101
:1020C000900390919103C19711F4299A459A8091B8
:1020D000900390919103CA9711F4299A459A80919F
:1020E0009003909191038334910511F4299A459AB4
:1020F00080919003909191038C34910511F4299A69
:10210000459A80919003909191039C012E50310942
:102110002830310520F525E130E0281B390B80916E
:10212000F8039091F90302C0959587952A95E2F7F7
:10213000817099272091C5033091C603822B932B80
:102140009093C6038093C503019711F4299A459A89
:102150008091C5039091C603892B09F42998809139
:102160009003909191034E97E1F480912504E82F1C
:10217000E170F0E08091C5039091C603E82BF92B44
:10218000F093C603E093C503E130F10509F073C194
:10219000299A459A8091C5039091C603892B09F429
:1021A0002998809190039091910382970297D0F49F
:1021B0008091EF03A82FA170B0E08091C5039091AA
:1021C000C603A82BB92BB093C603A093C5031197E0
:1021D00011F4299A459A8091C5039091C603892BE1
:1021E00009F4299880919003909191038497049722
:1021F000D8F480912504482F417050E08091C503A8
:102200009091C603482B592B5093C6034093C503A6
:102210004130510511F4299A459A8091C503909156
:10222000C603892B09F4299880919003909191031A
:102230008797E1F480919205682F617070E080913A
:10224000C5039091C603682B792B7093C6036093E6
:10225000C5036130710509F012C1299A459A809130
:10226000C5039091C603892B09F429982091900306
:1022700030919103C901C397069760F5809183035C
:102280009091840399230CF40396959587959595E1
:10229000879549E350E0BA01621B730B02C0959524
:1022A00087956A95E2F7817099272091C50330914F
:1022B000C603822B932B9093C6038093C50301978B
:1022C00011F4299A459A8091C5039091C603892BF0
:1022D00009F4299880919003909191039C012C53CB
:1022E00031092730310520F522E430E0281B390B75
:1022F00080918E0390918F0302C0959587952A95C2
:10230000E2F7817099272091C5033091C603822B93
:10231000932B9093C6038093C503019711F4299AD8
:10232000459A8091C5039091C603892B09F4299899
:102330002091900330919103C90185549109079729
:1023400008F0A1C0809180039091810399230CF43F
:10235000039695958795959587954BE450E0BA013E
:10236000621B730B02C0959587956A95E2F78170A1
:1023700099272091C5033091C603822B932B90930C
:10238000C6038093C503019711F4299A459A809159
:10239000C5039091C603892B09F075C0299873C0B5
:1023A00080919003909191030D9711F4299A459A89
:1023B00080919003909191034E9711F4299A459A38
:1023C00080919003909191038D9711F4299A459AE9
:1023D00080919003909191038E9709F054C0809161
:1023E000AA049091AB04019779F48091B80490917C
:1023F000B904019749F441E060E070E880E090E0C2
:102400000E944614109225048091AC049091AD0472
:10241000019779F48091BA049091BB04019749F433
:1024200040E060E070E880E090E00E944614109286
:1024300025048091B0049091B104019749F48091F2
:10244000BE049091BF04019719F481E080932504A4
:102450008091AE049091AF040197A9F48091BC04DF
:102460009091BD04019779F4109225040CC009974E
:1024700009F014CD09CDEF2B09F492CED5CE672B00
:1024800009F4F3CE55CFDF91CF91089523B1822F78
:10249000817090E090934B0480934A0481309105C1
:1024A00009F02AC18091FB0381115DC18091FC0379
:1024B0009091FD039C01295031092230310528F407
:1024C0001092FD031092FC032EC04297039738F43C
:1024D00081E090E09093FD038093FC0342C08091E3
:1024E000FC039091FD034B970897E8F482E090E09D
:1024F0009093FD038093FC0310929103109290033C
:102500001092A5031092A4031092D4031092D30347
:10251000109229041092280420E030E09093650482
:102520008093640482C08091FC039091FD03893EF6
:102530009340BCF010929103109290031092A50367
:102540001092A4031092D4031092D3031092290482
:1025500010922804109225041092650410926404CD
:1025600074C02091900330919103F901EE0FFF1F89
:10257000EC59FB4F8091FC039091FD039183808384
:102580002830310509F051C0E4E6F4E020893189B2
:102590008091D3039091D403822B932B2481358196
:1025A0000024369527950794369527950794322F62
:1025B000202D822B932B26813781220F331F2295CA
:1025C0003295307F3227207F3227822B932B208534
:1025D000318522953295307F3227207F3227822B1A
:1025E000932B22853385220F331F220F331F220F97
:1025F000331F822B932B24853585220F331F220F07
:10260000331F822B932B26853785220F331F822B76
:10261000932B9093D4038093D303009709F09AC02F
:102620001092D6031092D50395C04091D3035091D8
:10263000D40380912C0490912D044817590729F454
:102640002830310514F00E94130F81E08093FB03C2
:10265000109230041092FD031092FC031092C603F6
:102660001092C5038091660490916704019711F55B
:102670008091680490916904892BE1F48091900322
:10268000909191030297B1F48091D5039091D60374
:1026900001969093D6038093D50320912C0430911A
:1026A0002D048217930731F49093D4038093D303BE
:1026B000299A459A80919003909191030196909365
:1026C00091038093900380914A0490914B04813050
:1026D000910509F448C010C08091CF039091D003B8
:1026E00001969093D0038093CF0380914A049091F8
:1026F0004B04892BE9F00895892BD1F580913004A2
:10270000811116C02998459881E080933004109279
:10271000FB031092D0031092CF031092A5031092E6
:10272000A40380914A0490914B04892B29F00895C9
:10273000809130048130E1F41092D0031092CF03E5
:102740008091FC039091FD0301969093FD0380938B
:10275000FC03089520912C0430912D0482179307D7
:1027600009F073CF70CF8091FB03813009F4B4CFAF
:10277000089580911304811188C08091D9039091AC
:10278000DA0301969093DA038093D90384382DE31A
:10279000920744F464EC70E00E94262670939F0335
:1027A00060939E0310921504109214048091D80334
:1027B000811133C086E00E94E2009093150480935B
:1027C0001404845F9140499740F58091D8038111AA
:1027D00024C08091D9039091DA0320913104309183
:1027E0003204AC01421B530B45345105B4F19093B4
:1027F00032048093310481E08093D80380919E035A
:1028000090919F0390939C0380939B0341E060E829
:1028100070E080E090E00E9446148091D8038130FF
:10282000E1F480919B0390919C03181619062CF4F7
:10283000019790939C0380939B0380919B039091BD
:102840009C03892B89F440E060E870E080E090E030
:102850000E9446141092D80307C040E060E870E080
:1028600080E090E00E9446148091D9039091DA03B1
:1028700084389D4354F081E08093130441E060E884
:1028800070E080E090E00E94461408950F931F933B
:102890004130B9F400918703109188032091890396
:1028A00030918A03DC01CB01802B912BA22BB32B1F
:1028B0008093870390938803A0938903B0938A033E
:1028C0001AC00091870310918803209189033091E9
:1028D0008A03DC01CB0180959095A095B09580236B
:1028E0009123A223B3238093870390938803A0931B
:1028F0008903B0938A035B985C98809187039091D9
:102900008803A0918903B0918A0397FF02C05A9A65
:1029100001C05A985C9A5C988091870390918803D3
:10292000A0918903B0918A0396FF02C05A9A01C010
:102930005A985C9A5C988091870390918803A09143
:102940008903B0918A0395FF02C05A9A01C05A9830
:102950005C9A5C988091870390918803A091890389
:10296000B0918A0394FF02C05A9A01C05A985C9AA7
:102970005C988091870390918803A0918903B0911E
:102980008A0393FF02C05A9A01C05A985C9A5C98D5
:102990008091870390918803A0918903B0918A0365
:1029A00092FF02C05A9A01C05A985C9A5C98809132
:1029B000870390918803A0918903B0918A0391FFC6
:1029C00002C05A9A01C05A985C9A5C988091870319
:1029D00090918803A0918903B0918A0390FF02C06F
:1029E0005A9A01C05A985C9A5C988091870390919A
:1029F0008803A0918903B0918A0387FF02C05A9A85
:102A000001C05A985C9A5C988091870390918803E2
:102A1000A0918903B0918A0386FF02C05A9A01C02F
:102A20005A985C9A5C988091870390918803A09152
:102A30008903B0918A0385FF02C05A9A01C05A984F
:102A40005C9A5C988091870390918803A091890398
:102A5000B0918A0384FF02C05A9A01C05A985C9AC6
:102A60005C988091870390918803A0918903B0912D
:102A70008A0383FF02C05A9A01C05A985C9A5C98F4
:102A80008091870390918803A0918903B0918A0374
:102A900082FF02C05A9A01C05A985C9A5C98809151
:102AA000870390918803A0918903B0918A0381FFE5
:102AB00002C05A9A01C05A985C9A5C988091870328
:102AC00090918803A0918903B0918A0380FF02C08E
:102AD0005A9A01C05A985C9A5B9A1F910F91089577
:102AE000CF92DF92EF92FF921D9B48C08091FA0334
:102AF000811144C080919B05833011F00C94C82152
:102B000041E060E070E880E090E00E94461480912F
:102B1000860590918705909301048093000480912D
:102B20009C058F5F80939C0581E08093FA032FEFD3
:102B300030E782E0215030408040E1F700C00000E3
:102B400060E080EC0E94470588E092E00E941D064C
:102B500080919C058B3028F083E080939B05109238
:102B60009C0560919C0580E090E00E947E0440E01E
:102B700060E070E880E090E00E9446141D9B39C040
:102B80008091FA03813011F00C94C1218091860567
:102B9000909187052091000430910104821B930BD2
:102BA00090938C0380938B03813A9F4014F40C9490
:102BB000BB2141E060E070E880E090E00E944614B4
:102BC000809186059091870590930104809300047D
:102BD00083E080939B0510929C0560E080E090E08C
:102BE0000E947E0440E060E070E880E090E00E9497
:102BF00046141D9913C08091FA03813079F48091B5
:102C00009B05833059F41092FA033FEF89EF90E06F
:102C1000315080409040E1F700C0000080919C0559
:102C2000813009F0FDC060E080E80E94470589E13D
:102C300092E00E941D0660912E0470912F04725044
:102C4000072E000C880B990B0E94B6272EEE34E05D
:102C500045EB5FE30E940C2721EE3AE744E95FE38E
:102C60000E946B280E947E277093BF036093BE036F
:102C700060E08BE80E94470563E08091BE0390917D
:102C8000BF030E94340660E080EC0E9447058AE2A0
:102C900092E00E941D0660E08EEC0E944705809144
:102CA0000001909101016AE070E00E942626CB01AC
:102CB00061E00E94340660E08FEC0E94470580913D
:102CC00000019091010164E670E00E94262661E017
:102CD0000E9434061B9935C08091CB03811131C00D
:102CE00041E060E070E880E090E00E94461480914E
:102CF0000001909101010296893291052CF4909384
:102D000001018093000104C01092010110920001A2
:102D100081E08093CB036091000183E090E00E940A
:102D20007E042FEF39EF80E0215030408040E1F702
:102D300000C0000040E060E070E880E090E00E94A9
:102D400046141B9B1AC08091CB038130B1F441E043
:102D500060E070E880E090E00E9446141092CB039F
:102D60008FE39CE90197F1F700C0000040E060E0CC
:102D700070E880E090E00E9446141C9935C0809174
:102D8000CB03811131C041E060E070E880E090E069
:102D90000E944614809100019091010102972AF04F
:102DA000909301018093000106C088E290E0909327
:102DB00001018093000181E08093CB0360910001C9
:102DC00083E090E00E947E049FEF29EF30E0915075
:102DD00020403040E1F700C0000040E060E070E8D3
:102DE00080E090E00E9446141B9B1AC08091CB03A8
:102DF0008130B1F441E060E070E880E090E00E9452
:102E000046141092CB038FE39CE90197F1F700C0C1
:102E1000000040E060E070E880E090E00E9446142E
:102E200080919C05823009F0E6C060E080E80E9455
:102E3000470588E392E00E941D0660E080EC0E9456
:102E4000470589E492E00E941D0660E08CEC0E9438
:102E5000470583E592E00E941D0682E090E00E9413
:102E6000860490E0909322048093210460E08AEC31
:102E70000E94470580912104909122046AE070E04D
:102E80000E942626CB0161E00E94340660E08BECB4
:102E90000E944705809121049091220464E670E02D
:102EA0000E94262661E00E9434061B9935C080915D
:102EB000CB03811131C041E060E070E880E090E038
:102EC0000E9446148091210490912204019685313C
:102ED00091052CF4909322048093210404C0109255
:102EE00022041092210481E08093CB03609121049D
:102EF00082E090E00E947E049FEF29EF30E0915045
:102F000020403040E1F700C0000040E060E070E8A1
:102F100080E090E00E9446141B9B1AC08091CB0376
:102F20008130B1F41092CB0341E060E070E880E0C2
:102F300090E00E9446148FE39CE90197F1F700C0EE
:102F4000000040E060E070E880E090E00E944614FD
:102F50001C9935C08091CB03811131C041E060E004
:102F600070E880E090E00E944614809121049091E6
:102F7000220401972AF0909322048093210406C032
:102F800084E190E0909322048093210481E0809377
:102F9000CB036091210482E090E00E947E049FEFC9
:102FA00029EF30E0915020403040E1F700C00000B0
:102FB00040E060E070E880E090E00E9446141C9BD6
:102FC0001AC08091CB038130B1F41092CB0341E061
:102FD00060E070E880E090E00E9446148FE39CE996
:102FE0000197F1F700C0000040E060E070E880E089
:102FF00090E00E94461480919C05833009F0C1C086
:1030000060E080E80E94470588E592E00E941D0686
:1030100081E00E94E200909381038093800360E04E
:103020008DEC0E94470580918003909181036AE0B6
:1030300070E00E942626CB0162E00E94340660E028
:103040008FEC0E944705809180039091810364E694
:1030500070E00E94262661E00E943406809186037B
:10306000811108C060E080EC0E94470588E692E08C
:103070000E941D0680918603813041F460E080EC5F
:103080000E94470584E792E00E941D061B995AC0E2
:1030900080918C05811156C041E060E070E880E0CD
:1030A00090E00E94461480918603811120C0809197
:1030B0008C05811140C081E080938C05809386034C
:1030C00060E080EC0E94470584E792E00E941D06C4
:1030D0006091860386E090E00E947E049FEF20E7E7
:1030E00032E0915020403040E1F700C00000809174
:1030F0008603813001F580918C0581111CC081E02F
:1031000080938C051092860360E080EC0E94470556
:1031100088E692E00E941D066091860386E090E0BA
:103120000E947E048FEF90E722E081509040204083
:10313000E1F700C0000040E060E070E880E090E06F
:103140000E9446141B9B1DC080918C058130C9F4E0
:1031500041E060E070E880E090E00E944614109248
:103160008C053FEF80E792E0315080409040E1F7DE
:1031700000C0000040E060E070E880E090E00E9465
:10318000461480919C05843009F0C1C060E080E85D
:103190000E94470581E892E00E941D0682E00E949D
:1031A000E200909384038093830360E08DEC0E949F
:1031B000470580918303909184036AE070E00E9448
:1031C0002626CB0162E00E94340660E08FEC0E946C
:1031D0004705809183039091840364E670E00E9428
:1031E000262661E00E94340680918503811108C083
:1031F00060E080EC0E94470588E692E00E941D0690
:1032000080918503813041F460E080EC0E944705A5
:1032100084E792E00E941D061B995AC080918C059C
:10322000811156C041E060E070E880E090E00E94CB
:10323000461480918503811120C080918C058111F5
:1032400040C081E080938C058093850360E080EC32
:103250000E94470584E792E00E941D066091850365
:1032600087E090E00E947E042FEF30E782E021505B
:1032700030408040E1F700C000008091850381303C
:1032800001F580918C0581111CC081E080938C0533
:103290001092850360E080EC0E94470588E692E08A
:1032A0000E941D066091850387E090E00E947E04E5
:1032B0009FEF20E732E0915020403040E1F700C01E
:1032C000000040E060E070E880E090E00E9446147A
:1032D0001B9B1DC080918C058130C9F441E060E0EA
:1032E00070E880E090E00E94461410928C058FEF09
:1032F00090E722E0815090402040E1F700C00000BC
:1033000040E060E070E880E090E00E944614809128
:103310009C05853009F0D4C181E190E00E948604CB
:10332000682F70E080E090E00E94B4276B017C0180
:10333000609333047093340480933504909336047F
:1033400020E030E040E752E40E94072718160CF412
:103350004AC020E030E040E251ECC701B6010E94D3
:10336000662888230CF43FC060E080E80E9447058F
:1033700081E992E00E941D0660E080EC0E94470512
:1033800082EA92E00E941D0660E08EEC0E944705F2
:1033900020E030E040E251E4609133047091340465
:1033A00080913504909136040E940C270E94852755
:1033B000DC01CB0161E00E94340660E08FEC0E94EA
:1033C00047056091330470913404809135049091E5
:1033D00036040E947E27CB0164E670E00E94262618
:1033E00061E00E943406C0903304D0903404E09031
:1033F0003504F090360420E030E040E752E4C701A5
:10340000B6010E946628181654F020E030E040E231
:1034100051ECC701B6010E940727882384F460E0BD
:1034200080E80E94470581EB92E00E941D0660E063
:1034300080EC0E94470582EC92E00E941D061B99D9
:103440005DC08091CB03811159C041E060E070E81C
:1034500080E090E00E944614809186059091870557
:10346000909301048093000481E08093CB0320E0DB
:1034700030E040E050E46091330470913404809176
:103480003504909136040E949B266B017C0120E05C
:1034900030E048E752E40E94662818164CF0C092CB
:1034A0003304D0923404E0923504F092360408C01C
:1034B00010923304109234041092350410923604A2
:1034C00060913304709134048091350490913604F6
:1034D0000E94852781E190E00E947E043FEF89EF02
:1034E00090E0315080409040E1F700C0000040E0A3
:1034F00060E070E880E090E00E9446141B9B1BC0D7
:103500008091CB03813009F03FC741E060E070E873
:1035100080E090E00E9446141092CB038FE39CE978
:103520000197F1F700C0000040E060E070E880E043
:1035300090E00E9446141B9950C08091CB038130CB
:1035400009F04BC0E0908605F0908705809100045B
:10355000909101049701281B390BC90130938C030A
:1035600020938B03813D9740C4F120E030E040E898
:103570005FE360913304709134048091350490913D
:1035800036040E949B266093330470933404809326
:10359000350490933604F0920104E092000420E098
:1035A00030E048E752E40E946628181644F410926E
:1035B0003304109234041092350410923604609152
:1035C00033047091340480913504909136040E9444
:1035D000852781E190E00E947E041C9955C080916E
:1035E0008C05811151C041E060E070E880E090E01E
:1035F0000E94461420E030E040E85FE3609133042D
:103600007091340480913504909136040E949A267A
:103610006B017C0120E030E040E251EC0E94072782
:1036200088234CF0C0923304D0923404E0923504E5
:10363000F092360408C010923304109234041092B1
:1036400035041092360481E080938C056091330438
:103650007091340480913504909136040E9485273E
:1036600081E190E00E947E048FEF99EF20E081508D
:1036700090402040E1F700C0000040E060E070E8CA
:1036800080E090E00E9446141C9B1AC080918C053B
:103690008130B1F441E060E070E880E090E00E94A9
:1036A000461410928C058FE39CE90197F1F700C056
:1036B000000040E060E070E880E090E00E94461486
:1036C00080919C05863009F062C189E090E00E94FB
:1036D000860490E090934D0480934C0420E030E009
:1036E00046EC52E46091F2037091F3038091F4038D
:1036F0009091F5030E94072718160CF43FC060E074
:1037000080E80E94470581E992E00E941D0660E082
:1037100080EC0E94470583ED92E00E941D0660E068
:103720008EEC0E94470520E030E040E251E46091D9
:10373000F2037091F3038091F4039091F5030E94DA
:103740000C270E948527DC01CB0161E00E94340632
:1037500060E08FEC0E9447056091F2037091F303E3
:103760008091F4039091F5030E947E27CB0164E6DB
:1037700070E00E94262661E00E94340620E030E0DE
:1037800046EC52E46091F2037091F3038091F403EC
:103790009091F5030E946628181684F460E080E892
:1037A0000E94470581EB92E00E941D0660E080ECDC
:1037B0000E94470582EE92E00E941D061B9955C0AB
:1037C0008091CB03811151C041E060E070E880E05E
:1037D00090E00E94461420E030E040E050E4609128
:1037E000F2037091F3038091F4039091F5030E942A
:1037F0009B266B017C0120E030E048EC52E40E9403
:10380000662818164CF0C092F203D092F303E092AF
:10381000F403F092F50308C01092F2031092F30340
:103820001092F4031092F50381E08093CB03609132
:10383000F2037091F3038091F4039091F5030E94D9
:10384000852782E190E00E947E049FEF29EF30E01F
:10385000915020403040E1F700C0000040E060E0BF
:1038600070E880E090E00E9446141B9B1AC0809193
:10387000CB038130B1F41092CB0341E060E070E8FB
:1038800080E090E00E9446148FE39CE90197F1F7F5
:1038900000C0000040E060E070E880E090E00E943E
:1038A00046141C9958C080918C05811154C041E088
:1038B00060E070E880E090E00E94461420E030E094
:1038C00040E85FE36091F2037091F3038091F403A9
:1038D0009091F5030E949A266B017C0120E030E074
:1038E000A9010E94072788234CF0C092F203D092CE
:1038F000F303E092F403F092F5030CC080E090E053
:10390000A8ECB2E48093F2039093F303A093F40342
:10391000B093F50381E080938C056091F203709180
:10392000F3038091F4039091F5030E94852782E1CF
:1039300090E00E947E049FEF29EF30E091502040FC
:103940003040E1F700C0000040E060E070E880E057
:1039500090E00E9446141C9B1AC080918C05813017
:10396000B1F441E060E070E880E090E00E9446142D
:1039700010928C058FE39CE90197F1F700C00000DD
:1039800040E060E070E880E090E00E9446148091A2
:103990009C05873009F07CC1C0903304D09034047A
:1039A000E0903504F090360420E030E044E752E443
:1039B000C701B6010E94662888231CF088E0809326
:1039C0009C0520E030E040EB50E460918805709168
:1039D000890580918A0590918B050E94072718160A
:1039E000CCF120E030E044E752E4C701B6010E9488
:1039F000072788237CF560E080E80E94470583EF75
:103A000092E00E941D0660E080EC0E9447058091D4
:103A10008B058F9380918A058F93809189058F9371
:103A2000809188058F9384E093E09F938F938EEA33
:103A300093E09F938F930E94022A8EEA93E00E9464
:103A40001D062DB73EB7285F3F4F0FB6F8943EBF17
:103A50000FBE2DBF20E030E040EB50E460918805C0
:103A60007091890580918A0590918B050E94662846
:103A7000181644F4109288051092890510928A0550
:103A800010928B051B9974C08091CB03811170C07B
:103A900041E060E070E880E090E00E9446142DEC88
:103AA0003CEC4CEC5DE36091880570918905809158
:103AB0008A0590918B050E949B266B017C0120E07A
:103AC00030E040EB50E40E94662818164CF0C0929B
:103AD0008805D0928905E0928A05F0928B0508C08E
:103AE000109288051092890510928A0510928B0514
:103AF00081E08093CB036091880570918905809166
:103B00008A0590918B050E947E27262F609397054A
:103B100070939805862F972F880F991FAC01440F3B
:103B2000551F440F551F840F951F6AE070E00E94D7
:103B3000262690939A0380939903622F83E190E065
:103B40000E947E046091990384E190E00E947E04CB
:103B50003FEF89EF90E0315080409040E1F700C0A6
:103B6000000040E060E070E880E090E00E944614D1
:103B70001B9B1AC08091CB038130B1F41092CB0310
:103B800041E060E070E880E090E00E9446148FE33E
:103B90009CE90197F1F700C0000040E060E070E8A8
:103BA00080E090E00E9446141C9956C080918C05DC
:103BB000811152C041E060E070E880E090E00E9436
:103BC00046142DEC3CEC4CEC5DE360918805709163
:103BD000890580918A0590918B050E949A266B0138
:103BE0007C0120E030E0A9010E94072788234CF0E7
:103BF000C0928805D0928905E0928A05F0928B05E3
:103C00000CC083E393E3A3EBB0E480938805909327
:103C10008905A0938A05B0938B0581E080938C057C
:103C20006091970583E190E00E947E046091990382
:103C300084E190E00E947E049FEF29EF30E09150F4
:103C400020403040E1F700C0000040E060E070E854
:103C500080E090E00E9446141C9B1AC080918C0565
:103C60008130B1F441E060E070E880E090E00E94D3
:103C7000461410928C058FE39CE90197F1F700C080
:103C8000000040E060E070E880E090E00E944614B0
:103C900080919C05883009F07CC1C090F203D090DF
:103CA000F303E090F403F090F50320E030E048ECFB
:103CB00052E4C701B6010E94662888231CF089E0FF
:103CC00080939C0520E030E040E251E46091A00345
:103CD0007091A1038091A2039091A3030E940727F2
:103CE0001816CCF120E030E048EC52E4C701B601F0
:103CF0000E94072788237CF560E080E80E94470542
:103D000083EF92E00E941D0660E080EC0E94470570
:103D10008091A3038F938091A2038F938091A1033D
:103D20008F938091A0038F9389E193E09F938F936A
:103D30008EEA93E09F938F930E94022A8EEA93E08B
:103D40000E941D062DB73EB7285F3F4F0FB6F8946F
:103D50003EBF0FBE2DBF20E030E040E251E4609155
:103D6000A0037091A1038091A2039091A3030E94EC
:103D70006628181644F41092A0031092A103109222
:103D8000A2031092A3031B9974C08091CB038111ED
:103D900070C041E060E070E880E090E00E9446146E
:103DA00020E030E040E05FE36091A0037091A10368
:103DB0008091A2039091A3030E949B266B017C013A
:103DC00020E030E040E251E40E94662818164CF0F2
:103DD000C092A003D092A103E092A203F092A303A9
:103DE00008C01092A0031092A1031092A203109297
:103DF000A30381E08093CB036091A0037091A103A2
:103E00008091A2039091A3030E947E27262F6093A6
:103E1000F0037093F103862F972F880F991FAC0141
:103E2000440F551F440F551F840F951F6AE070E023
:103E30000E9426269093C1038093C003622F85E1E0
:103E400090E00E947E046091C00386E190E00E94B1
:103E50007E043FEF89EF90E0315080409040E1F7E1
:103E600000C0000040E060E070E880E090E00E9468
:103E700046141B9B1AC08091CB038130B1F4109281
:103E8000CB0341E060E070E880E090E00E944614DF
:103E90008FE39CE90197F1F700C0000040E060E08B
:103EA00070E880E090E00E9446141C9956C0809112
:103EB0008C05811152C041E060E070E880E090E044
:103EC0000E94461420E030E040E05FE36091A003F0
:103ED0007091A1038091A2039091A3030E949A265E
:103EE0006B017C0120E030E0A9010E9407278823B4
:103EF0004CF0C092A003D092A103E092A203F092F2
:103F0000A3030CC080E090E0A0E2B1E48093A003A2
:103F10009093A103A093A203B093A30381E08093A5
:103F20008C056091F00385E190E00E947E04609131
:103F3000C00386E190E00E947E049FEF29EF30E00D
:103F4000915020403040E1F700C0000040E060E0C8
:103F500070E880E090E00E9446141C9B1AC080919B
:103F60008C058130B1F441E060E070E880E090E0E1
:103F70000E94461410928C058FE39CE90197F1F79B
:103F800000C0000040E060E070E880E090E00E9447
:103F9000461480919C05893009F003C180912C045E
:103FA00090912D04803891057CF560E080E80E94B6
:103FB00047058CE293E00E941D0660E080EC0E94C1
:103FC00047058CE092E00E941D0660E08CEC0E94A8
:103FD000470580912C0490912D046AE070E00E94C6
:103FE0002626CB0162E00E94340660E08EEC0E943F
:103FF000470580912C0490912D0464E670E00E94A6
:10400000262661E00E94340680912C0490912D04B4
:104010008038910581F460E080E80E9447058DE3D7
:1040200093E00E941D0660E080EC0E9447058EE44C
:1040300093E00E941D061B993DC08091CB03811126
:1040400039C041E060E070E880E090E00E944614F2
:1040500080912C0490912D04019690932D048093CF
:104060002C04813891052CF010922D0410922C0410
:1040700008C0992334F48FE790E090932D04809347
:104080002C0481E08093CB0360912C0480E190E0CC
:104090000E947E049FEF29EF30E091502040304095
:1040A000E1F700C0000040E060E070E880E090E0F0
:1040B0000E9446141B9B1AC08091CB038130B1F43F
:1040C0001092CB0341E060E070E880E090E00E9455
:1040D00046148FE39CE90197F1F700C0000040E02F
:1040E00060E070E880E090E00E9446141C993DC0BA
:1040F0008091CB03811139C041E060E070E880E03D
:1041000090E00E94461480912C0490912D04019718
:1041100090932D0480932C04813891052CF01092FB
:104120002D0410922C0408C0992334F48FE790E0FA
:1041300090932D0480932C0481E08093CB036091B5
:104140002C0480E190E00E947E049FEF29EF30E094
:10415000915020403040E1F700C0000040E060E0B6
:1041600070E880E090E00E9446141C9B1AC0809189
:10417000CB038130B1F41092CB0341E060E070E8F2
:1041800080E090E00E9446148FE39CE90197F1F7EC
:1041900000C0000040E060E070E880E090E00E9435
:1041A000461480919C058A3009F0F7C060E080E8F1
:1041B0000E9447058FE593E00E941D061C9909C0E7
:1041C0008091CB038111E2C081E08093CB030E94F8
:1041D000B9131B9961C08091CB0381115DC080919F
:1041E000860590918705909301048093000441E037
:1041F00060E070E880E090E00E94461441E060E4F6
:1042000070E080E090E00E94461441E060E870E0D9
:1042100080E090E00E94461441E060E071E080E0C0
:1042200090E00E94461441E060E074E080E090E09D
:104230000E94461441E060E078E080E090E00E9457
:10424000461441E060E072E080E090E00E94461495
:1042500041E060E070E280E090E00E94461441E0BE
:1042600060E070E480E090E00E94461441E060E08D
:1042700070E180E090E00E9446149FEF23ED30E370
:10428000915020403040E1F700C0000081E0809371
:10429000CB031B9908C081C01B9B7FC08091CB03BF
:1042A000813009F07AC08091860590918705209130
:1042B000000430910104821B930B90938C03809334
:1042C0008B03813797410CF468C041E060E070E8EF
:1042D00080E090E00E9446148FE39CE90197F1F79B
:1042E00000C0000040E060E470E080E090E00E94E8
:1042F000461440E060E870E080E090E00E944614E0
:1043000040E060E071E080E090E00E94461440E010
:1043100060E074E080E090E00E94461440E060E0DD
:1043200078E080E090E00E94461440E060E072E0B7
:1043300080E090E00E94461440E060E070E280E09F
:1043400090E00E94461440E060E070E480E090E07D
:104350000E94461440E060E070E180E090E00E943E
:10436000461440E060E070E880E090E00E9446146F
:104370001092CB0312C01D9902C00C94FF150C942F
:104380000E1683B10C940E1683B127C983B184CF66
:104390001D9902C00C94F915F4CFFF90EF90DF90B7
:1043A000CF9008950F931F93CF93DF9360E080EC3D
:1043B0000E94470580E793E00E941D066091430438
:1043C000709144047250072E000C880B990B0E94C8
:1043D000B6272EEE34E045EB5FE30E940C2721EE7A
:1043E0003AE744E95FE30E946B280E947E277093BE
:1043F00096056093950560E081EC0E9447058091E9
:104400009505909196050AE010E0B8010E942626D5
:10441000CB0162E00E94340660E083EC0E94470515
:104420008091950590919605C4E6D0E0BE010E946A
:10443000262661E00E9434060E94F80060E084ECC9
:104440000E94470582E793E00E941D066091C90320
:104450007091CA037250072E000C880B990B0E94B2
:10446000B6272EEE34E045EB5FE30E940C2721EEE9
:104470003AE744E95FE30E946B280E947E2770932D
:10448000FF036093FE0360E087EC0E944705809184
:10449000FE039091FF03B8010E942626CB0162E043
:1044A0000E94340660E089EC0E9447058091FE037B
:1044B0009091FF03BE010E94262661E00E9434060F
:1044C0000E94F80060E08AEC0E94470586E793E0CE
:1044D0000E941D0660912E0470912F047250072EC9
:1044E000000C880B990B0E94B6272EEE34E045EBAA
:1044F0005FE30E940C2721EE3AE744E95FE30E9464
:104500006B280E947E277093BF036093BE0360E018
:104510008DEC0E9447058091BE039091BF03B801C6
:104520000E942626CB0162E00E94340660E08FECF8
:104530000E9447058091BE039091BF03BE010E9477
:10454000262661E00E943406DF91CF911F910F91E2
:104550000895A0E1B0E0EFEAF2E20C944F267C016E
:104560001B016A01FC0117821682838181FF44C30B
:104570009E012F5F3F4F3901F7019381F10193FDB8
:10458000859193FF81911F01882309F431C38532FE
:1045900039F493FD859193FF81911F01853239F4A0
:1045A000B70190E00E94C62956016501E5CF10E0F1
:1045B000512C912CFFE1F915D8F08B3279F038F4B9
:1045C000803279F08332A1F4F92DF0612EC08D3262
:1045D00061F0803369F4292D21602DC0392D3260BE
:1045E000932E892D8460982E2AC0E92DE86015C08D
:1045F00097FC2DC020ED280F2A3088F496FE06C0C7
:104600003AE0139F200D1124122F19C08AE0589E02
:10461000200D1124522EE92DE0629E2E10C08E3204
:1046200031F496FCE5C2F92DF0649F2E08C08C365B
:1046300021F4292D2068922E02C0883641F4F10120
:1046400093FD859193FF81911F018111B3CF9BEB66
:10465000980F933020F4992D9061805E07C09BE9FC
:10466000980F933008F066C1992D9F7E96FF16E053
:104670009F73992E853619F49064992E08C086365A
:1046800021F4392F3068932E02C01111115097FE7A
:1046900007C01C3350F444244394410E27E00BC060
:1046A000183038F027E017E005C027E09CE3492EDA
:1046B00002C0212F412C560184E0A80EB11CF60146
:1046C0006081718182819381042DA3010E94D82889
:1046D0006C01F981FC87F0FF02C0F3FF06C091FC7A
:1046E00006C092FE06C000E205C00DE203C00BE268
:1046F00001C000E08C858C7019F001115AC29BC278
:1047000097FE10C04C0CFC85F4FF04C08A818133F5
:1047100009F44A94141474F528E0241578F588E017
:10472000482E2CC096FC2AC0812F90E08C159D0548
:104730009CF03CEFC3163FEFD30674F0892D8068E0
:10474000982E0AC0E2E0F0E0EC0FFD1FE10FF11D32
:104750008081803319F411501111F4CF97FE0EC0EF
:1047600044244394410E812F90E0C816D9062CF4BE
:104770001C1904C04424439401C010E097FE06C0F5
:104780001C141D0434F4C601019605C085E090E0B8
:1047900002C081E090E001110196112331F0212F38
:1047A00030E02F5F3F4F820F931F252D30E082179F
:1047B000930714F4581A01C0512C892D897049F4BB
:1047C000552039F0B70180E290E00E94C6295A9442
:1047D000F7CF002329F0B701802F90E00E94C6296F
:1047E00093FC09C0552039F0B70180E390E00E94A6
:1047F000C6295A94F7CF97FE4CC04601D7FE02C097
:10480000812C912CC60188199909F301E80FF91F31
:10481000FE87ED87960124193109388B2F87012FE8
:1048200010E01195019511093FEF8316930629F4C5
:10483000B7018EE290E00E94C629C814D9044CF05A
:104840008F8598898815990524F4ED85FE858181E9
:1048500001C080E3F1E08F1A91082D853E852F5F1E
:104860003F4F3E872D87801691062CF0B70190E0D0
:104870000E94C629D9CFC814D90441F49A8196332D
:1048800020F4953319F43C8534FF81E3B70190E0BF
:104890004EC08A81813319F09C859F7E9C87B70129
:1048A00090E00E94C629111105C094FC18C085E64D
:1048B00090E017C0B7018EE290E00E94C6291E5F0B
:1048C00082E001E0080FF301E80FF11D8081B701DC
:1048D00090E00E94C629802F0113F3CFE6CF85E434
:1048E00090E0B7010E94C629D7FC06C0C114D104CC
:1048F00041F4EC85E4FF05C0D194C194D1088DE268
:1049000001C08BE2B70190E00E94C62980E32AE053
:10491000C216D1042CF08F5FFAE0CF1AD108F7CF7E
:10492000B70190E00E94C629B701C601C0960E9457
:10493000C62954C1833631F0833779F0833509F0C5
:1049400056C020C0560132E0A30EB11CF601808192
:10495000898301E010E0630112C05601F2E0AF0E5E
:10496000B11CF601C080D18096FE03C0612F70E0BB
:1049700002C06FEF7FEFC6010E94BB298C01F92DA9
:10498000FF7714C0560122E0A20EB11CF601C080D0
:10499000D18096FE03C0612F70E002C06FEF7FEF01
:1049A000C6010E94B0298C01F92DF0689F2EF3FDFD
:1049B0001AC0852D90E008171907A8F4B70180E206
:1049C00090E00E94C6295A94F4CFF60197FC859195
:1049D00097FE81916F01B70190E00E94C6295110A6
:1049E0005A94015011090115110579F7F7C0843661
:1049F00011F0893661F5560197FE09C024E0A20E38
:104A0000B11CF60160817181828193810AC0F2E05C
:104A1000AF0EB11CF60160817181072E000C880B6E
:104A2000990BF92DFF769F2E97FF09C090958095E1
:104A3000709561957F4F8F4F9F4FF0689F2E2AE0B2
:104A400030E0A3010E94242AC82EC6183FC0092DB9
:104A5000853721F40F7E2AE030E01DC0097F8F36B4
:104A600091F018F4883559F0C3C0803719F08837B1
:104A700011F0BEC0006104FF09C0046007C094FECD
:104A800008C0066006C028E030E005C020E130E044
:104A900002C020E132E0560107FF09C084E0A80E01
:104AA000B11CF601608171818281938108C0F2E0BE
:104AB000AF0EB11CF6016081718180E090E0A3012E
:104AC0000E94242AC82EC6180F77902E96FE0BC07F
:104AD000092D0E7FC11650F494FE0AC092FC08C046
:104AE000092D0E7E05C0DC2C092D03C0DC2C01C075
:104AF000D12E04FF0DC0FE01EC0DF11D808180332D
:104B000011F4097E09C002FF06C0D394D39404C0F7
:104B1000802F867809F0D39403FD11C000FF06C0F2
:104B20001C2DD51480F4150D1D190DC0D51458F485
:104B3000B70180E290E00E94C629D394F7CFD51444
:104B400010F45D1801C0512C04FF10C0B70180E3C0
:104B500090E00E94C62902FF17C001FD03C088E74C
:104B600090E002C088E590E0B7010CC0802F867805
:104B700059F001FF02C08BE201C080E207FD8DE227
:104B8000B70190E00E94C629C11638F4B70180E34E
:104B900090E00E94C6291150F7CFCA94F301EC0DA2
:104BA000F11D8081B70190E00E94C629C110F5CFA8
:104BB00015C0F4E0F51560F584E0581A93FE1FC0A7
:104BC000011127C02C8523FF2AC004E810E0392DED
:104BD0003071932EF8018491811124C0552009F47D
:104BE000E4CCB70180E290E00E94C6295A94F6CF47
:104BF000F7018681978126C08FEF9FEF23C0B70111
:104C000080E290E00E94C6295A945110F8CFD8CF84
:104C1000512CB701802F90E00E94C629D3CF08E81D
:104C200010E0D5CF91108052B70190E00E94C629C4
:104C30000F5F1F4FCFCF23E0251510F483E0BDCFCA
:104C4000512CC0CF6096E2E10C946B2697FB072EA7
:104C500016F4009407D077FD09D00E94862607FC41
:104C600005D03EF4909581959F4F0895709561957C
:104C70007F4F0895EE0FFF1F0590F491E02D0994EA
:104C8000A29FB001B39FC001A39F700D811D11248D
:104C9000911DB29F700D811D1124911D08952F92B9
:104CA0003F924F925F926F927F928F929F92AF92BC
:104CB000BF92CF92DF92EF92FF920F931F93CF9309
:104CC000DF93CDB7DEB7CA1BDB0B0FB6F894DEBFA0
:104CD0000FBECDBF09942A88398848885F846E84C6
:104CE0007D848C849B84AA84B984C884DF80EE8010
:104CF000FD800C811B81AA81B981CE0FD11D0FB619
:104D0000F894DEBF0FBECDBFED010895AA1BBB1BFB
:104D100051E107C0AA1FBB1FA617B70710F0A61BBB
:104D2000B70B881F991F5A95A9F780959095BC01DC
:104D3000CD0108955058BB27AA270E94B2260C9493
:104D40002C280E941E2838F00E94252820F039F4D3
:104D50009F3F19F426F40C941B280EF4E095E7FB12
:104D60000C941528E92F0E943D2858F3BA176207C2
:104D700073078407950720F079F4A6F50C945F2853
:104D80000EF4E0950B2EBA2FA02D0B01B901900166
:104D90000C01CA01A0011124FF27591B99F0593FAA
:104DA00050F4503E68F11A16F040A22F232F342FF2
:104DB0004427585FF3CF469537952795A795F04040
:104DC0005395C9F77EF41F16BA0B620B730B840B55
:104DD000BAF09150A1F0FF0FBB1F661F771F881F0D
:104DE000C2F70EC0BA0F621F731F841F48F4879565
:104DF00077956795B795F7959E3F08F0B0CF939557
:104E0000880F08F09927EE0F9795879508950E94CF
:104E1000F12708F481E008950E9420270C942C28A3
:104E20000E94252858F00E941E2840F029F45F3F78
:104E300029F00C94152851110C9460280C941B280F
:104E40000E943D2868F39923B1F3552391F3951BF4
:104E5000550BBB27AA2762177307840738F09F5F9B
:104E60005F4F220F331F441FAA1FA9F335D00E2E08
:104E70003AF0E0E832D091505040E695001CCAF775
:104E80002BD0FE2F29D0660F771F881FBB1F261738
:104E900037074807AB07B0E809F0BB0B802DBF010F
:104EA000FF2793585F4F3AF09E3F510578F00C94DE
:104EB00015280C9460285F3FE4F3983ED4F3869560
:104EC00077956795B795F7959F5FC9F7880F911DFF
:104ED0009695879597F90895E1E0660F771F881FEB
:104EE000BB1F621773078407BA0720F0621B730B9E
:104EF000840BBA0BEE1F88F7E09508950E94852772
:104F00006894B1110C94602808950E94452888F097
:104F10009F5798F0B92F9927B751B0F0E1F0660F7D
:104F2000771F881F991F1AF0BA95C9F714C0B130BE
:104F300091F00E945F28B1E008950C945F28672FDC
:104F4000782F8827B85F39F0B93FCCF386957795ED
:104F50006795B395D9F73EF49095809570956195D6
:104F60007F4F8F4F9F4F0895E89409C097FB3EF401
:104F700090958095709561957F4F8F4F9F4F9923A6
:104F8000A9F0F92F96E9BB279395F6958795779524
:104F90006795B795F111F8CFFAF4BB0F11F460FFE4
:104FA0001BC06F5F7F4F8F4F9F4F16C0882311F03C
:104FB00096E911C0772321F09EE8872F762F05C050
:104FC000662371F096E8862F70E060E02AF09A95EB
:104FD000660F771F881FDAF7880F9695879597F9E0
:104FE0000895990F0008550FAA0BE0E8FEEF16167A
:104FF0001706E807F907C0F012161306E407F507CD
:1050000098F0621B730B840B950B39F40A2661F040
:10501000232B242B252B21F408950A2609F4A140E3
:10502000A6958FEF811D811D089597F99F6780E8F0
:1050300070E060E008959FEF80EC089500240A94EA
:105040001616170618060906089500240A94121663
:105050001306140605060895092E0394000C11F496
:10506000882352F0BB0F40F4BF2B11F460FF04C043
:105070006F5F7F4F8F4F9F4F089557FD9058440F9C
:10508000551F59F05F3F71F04795880F97FB991FA7
:1050900061F09F3F79F08795089512161306140664
:1050A000551FF2CF4695F1DF08C0161617061806F1
:1050B000991FF1CF86957105610508940895E894CC
:1050C000BB2766277727CB0197F908950E94F12720
:1050D00008F48FEF08950E947E280C942C280E94DB
:1050E0001E2838F00E94252820F0952311F00C94FA
:1050F00015280C941B2811240C9460280E943D282C
:1051000070F3959FC1F3950F50E0551F629FF0011A
:10511000729FBB27F00DB11D639FAA27F00DB11D33
:10512000AA1F649F6627B00DA11D661F829F2227BC
:10513000B00DA11D621F739FB00DA11D621F839F43
:10514000A00D611D221F749F3327A00D611D231F19
:10515000849F600D211D822F762F6A2F11249F5767
:1051600050409AF0F1F088234AF0EE0FFF1FBB1F6A
:10517000661F771F881F91505040A9F79E3F510529
:1051800080F00C9415280C9460285F3FE4F3983E5F
:10519000D4F3869577956795B795F795E7959F5FD3
:1051A000C1F7FE2B880F911D9695879597F9089565
:1051B000283008F027E03327DA01990F311D87FDE9
:1051C000916000966105710539F432602E5F3D9360
:1051D00030E32A95E1F708959F3F30F0803871055C
:1051E000610509F03C5F3C5F3D93913008F08068B9
:1051F000911DDF93CF931F930F93FF92EF92192F7F
:10520000987F9695E92F96959695E90FFF27EA5195
:10521000FF4F99273327EE24FF24A701E7010590CC
:105220000894079428F4360FE71EF81E491F511DF5
:10523000660F771F881F991F0694A1F705900794A2
:1052400028F4E70EF81E491F561FC11D770F881F4F
:10525000991F661F0694A1F70590079428F4F80E8D
:10526000491F561FC71FD11D880F991F661F771F23
:105270000694A1F70590079420F4490F561FC71F05
:10528000D81F990F661F771F881F0694A9F784916E
:105290001095177041F0D695C79557954795F79497
:1052A000E7941A95C1F7ECE8F0E068941590159131
:1052B00035916591959105907FE27395E118F10A1A
:1052C000430B560BC90BD009C0F7E10CF11E431F6D
:1052D000561FC91FD01D7EF4703311F48A95E6CF96
:1052E000E894015030F0080F0AF40027021708F480
:1052F000202F2395022F7A3328F079E37D932A9586
:10530000E9F710C07D932A9589F6069497956795DD
:10531000379517951794E118F10A430B560BC90BF3
:10532000D00998F023957E9173957A3308F070E355
:105330007C932013B8F77E9170617D9330F0839554
:1053400071E37D9370E32A95E1F71124EF90FF90CC
:105350000F911F91CF91DF91992787FD9095089527
:10536000FC010590615070400110D8F78095909530
:105370008E0F9F1F0895FC01615070400190011035
:10538000D8F7809590958E0F9F1F08950F931F93C8
:10539000CF93DF93FB01238121FD03C08FEF9FEFAC
:1053A0002CC022FF16C046815781248135814217C7
:1053B000530744F4A081B1819D012F5F3F4F31839A
:1053C00020838C93268137812F5F3F4F378326833D
:1053D00014C08B01EC01FB010084F185E02D0995DF
:1053E000892BE1F6D80116968D919C91179701961D
:1053F00017969C938E931697CE01DF91CF911F91B4
:105400000F910895AEE0B0E0E8E0FAE20C945D267A
:105410000D891E8986E08C831A8309838FEF9FE7AD
:105420009E838D83AE01475E5F4F6F89788DCE017D
:1054300001960E94A922EF81F885E00FF11F1082EA
:105440002E96E4E00C947926FA01AA27283051F12F
:10545000203181F1E8946F936E7F6E5F7F4F8F4FA5
:105460009F4FAF4FB1E03ED0B4E03CD0670F781F04
:10547000891F9A1FA11D680F791F8A1F911DA11DE9
:105480006A0F711D811D911DA11D20D009F4689422
:105490003F912AE0269F11243019305D3193DEF6CA
:1054A000CF010895462F4770405D4193B3E00FD080
:1054B000C9F7F6CF462F4F70405D4A3318F0495D6B
:1054C00031FD4052419302D0A9F7EACFB4E0A6954E
:1054D0009795879577956795BA95C9F70097610570
:1054E000710508959B01AC010A2E069457954795C6
:1054F00037952795BA95C9F7620F731F841F951FBB
:08550000A01D0895F894FFCFEF
:1055080005005061B26FBF6120B365BDBF2D7061EA
:105518002020004142544F2020205045A3A54D2073
:1055280020202000A87963BA20A441A85045E2A20F
:105538004820202000546D70252E3166432F486D79
:10554800252E31662525202000A8B8BF61BDB86585
:1055580020424BA7B0AB45484F00A461BE7963BA5F
:10556800204F544BA7B0ABA2482020202020005049
:1055780079C0BD6FB9205045A3A54D20202020003B
:105588005079C0BD6FB920A8A9434B20B365BDBFF2
:10559800002143B8B4BD61BB20A84FA341505F218F
:1055A800200041B36170B8C720BEB8BF61BDB8C79D
:1055B80020200041B36170B8C720B3786FE3612041
:1055C800414C200041B36170B8C720B3786FE361E4
:1055D800205053200041B36170B8C720333830429F
:1055E80020202020200041B36170B8C720BBB8BD7F
:1055F800B8B8204448540041B36170B8C720BABB5A
:1056080061BE61BD612020002020202020202020B4
:105618002020202020202020004FBFBABB6FBD656E
:10562800BDB8652820202056290061BCBEBBB8BF84
:1056380079E32C422B2F2D00427065BCC720B3C3E1
:10564800786FE3612020202000BD61207065B6B826
:10565800BC2C006365BA2E0054B8BE20E361BFC0FD
:10566800B8BA61202D5053002D4E4F2D6FBFBA7020
:10567800C3BF2D002D4E432DB761BCBABD79BF2DD8
:105688000054B8BE20E361BFC0B8BA61202D414CB8
:10569800004D61BA63B8BC61BBC4BD61C72020209E
:1056A8002000BF65BC2D70612C43202020202020C5
:1056B800004B6FBDBF706FBBC4202020202020206E
:1056C8002000BF65BCBE2D70C320202020204F5471
:1056D8004BA700B3BB61B6BD6F63BFC420202020B9
:1056E8002500B3BB61B6BD6F63BFB82020204F54FF
:1056F8004BA700A1B863BF657065B7B863202020C9
:1057080020202000546D702B2F2D202020252E3195
:10571800664320202020202000486D2B2F2D20209C
:10572800252E3166252520202020200053797374EA
:10573800656D5F616472657320202020004164728A
:105748006573732064697361626C65202000202092
:105758002020202020204F544BA720202020002D3F
:10576800544553542D544553542D544553542D00EA
:0A57780055005F5F56005F5F5700A9
:040000030000277260
:00000001FF
