:100000000C94C3000C94E0000C94E0000C94E0000D
:100010000C94E0000C94E0000C94E0000C94600858
:100020000C94E0000C94E0000C94E0000C94910817
:100030000C94E0000C94E0000C94E0000C94E000C0
:100040000C94E0000C94E0000C94E0000C94E000B0
:100050000C94E0000C94E0000C94E0000C94E000A0
:100060000C94E0000C94E000460D510D5C0D670D02
:10007000720D7D0D880D4C0E570E620E6D0E780EB2
:10008000830E8E0E6E616E00696E660000407A10FF
:10009000F35A00A0724E18090010A5D4E80000E839
:1000A0007648170000E40B54020000CA9A3B000097
:1000B00000E1F505000080969800000040420F0026
:1000C0000000A08601000000102700000000E803E7
:1000D000000000006400000000000A0000000000B2
:1000E0000100000000002C76D888DC674F0823DF71
:1000F000C1DFAE59E1B1B796E5E3E453C63AE65144
:10010000997696E8E6C28426EB898C9B62ED407C6A
:100110006FFCEFBC9C9F40F2BAA56FA5F490055A06
:100120002AF75C936B6CF9676DC11BFCE0E40D472B
:10013000FEF520E6B500D0ED902E0300943577054E
:100140000080841E080000204E0A000000C80C3306
:100150003333330F986E12831141EF8D2114893B95
:10016000E65516CFFEE6DB18D1844B381BF77C1D15
:10017000901DA4BBE424203284725E228100C9F168
:1001800024ECA1E53D2711241FBECFEFD8E0DEBF50
:10019000CDBF13E0A0E0B1E0E8E1F5E502C00590D5
:1001A0000D92AA37B107D9F725E0AAE7B3E001C05D
:1001B0001D92AF39B207E1F70E94A8080C948A2A71
:1001C0000C94000080937C00EAE7F0E0808180647A
:1001D0008083808186FDFDCFE8E7F0E0808120917B
:1001E000790090E0922B91838083808191810895A2
:1001F0000F931F93CF93DF93109246041092450400
:100200001092CC031092CB03109231041092300460
:1002100080E00E94E2009093840380938303C7E709
:10022000D0E000E012E083E00E94E20090939005AD
:1002300080938F05209145043091460482179307DF
:100240006CF0811522E092072CF090934604809385
:10025000450404C0109346040093450487E00E94BF
:10026000E2009093AD038093AC032091CB033091D7
:10027000CC03821793076CF0811522E092072CF0D3
:100280009093CC038093CB0304C01093CC030093D2
:10029000CB0386E00E94E2009093CF038093CE03CD
:1002A0002091300430913104821793076CF081154E
:1002B00022E092072CF0909331048093300404C024
:1002C0001093310400933004219709F0ACCF809152
:1002D000450490914604DF91CF911F910F910895AD
:1002E000CF92DF92EF92FF92CF93C0903504D090DF
:1002F0003604E0903704F090380420E030E040E726
:1003000052E4C701B6010E940F2718160CF456C01C
:1003100020E030E040E251ECC701B6010E946E28B7
:1003200088230CF44BC020910804309109044091BB
:100330000A0450910B04C701B6010E940F2718163A
:1003400084F080917B0381110CC0C1E0C0937B03DA
:1003500041E060E070E280E090E00E944E14C093C3
:10036000960320918A0530918B0540918C05509120
:100370008D05609135047091360480913704909119
:1003800038040E94A226209108043091090440916B
:100390000A0450910B040E946E2888237CF08091FF
:1003A0007B03813059F410927B0340E060E070E2FF
:1003B00080E090E00E944E1410929603C090F403E7
:1003C000D090F503E090F603F090F70320E030E0E2
:1003D00046EC52E4C701B6010E940F2718160CF430
:1003E0004BC02091040430910504409106045091C3
:1003F0000704C701B6010E940F27181684F08091E8
:100400007A0381110CC0C1E0C0937A0341E060E03F
:1004100070E480E090E00E944E14C093400420916C
:10042000A2033091A3034091A4035091A5036091CE
:10043000F4037091F5038091F6039091F7030E9405
:10044000A2262091040430910504409106045091A5
:1004500007040E946E2888237CF080917A03813003
:1004600059F410927A0340E060E070E480E090E09C
:100470000E944E1410924004CF91FF90EF90DF90B5
:10048000CF90089541E060E071E080E090E00E944C
:100490004E140E940C0D80918203811138C080910E
:1004A00027048111B8C080919603813029F0909182
:1004B0004004913009F0A1C041E060E870E080E0C4
:1004C00090E00E944E1460E080E80E94470582E0C0
:1004D00091E00E941D0681E080937D038091960348
:1004E000811115C08091400481118AC040E060E80C
:1004F00070E080E090E00E944E1460E080E80E948E
:10050000470583E191E00E941D0610927D038091D2
:100510008203823021F080912704813081F580911F
:100520009603813021F080914004813041F460E0F5
:1005300080E80E94470584E291E00E941D068091B8
:100540009603811115C080914004811111C040E0D3
:1005500060E870E080E090E00E944E1460E080E887
:100560000E94470583E191E00E941D0610927D03E1
:1005700040E060E870E080E090E00E944E148091DE
:100580008203813099F580919603813021F080912A
:100590004004813091F441E060E870E080E090E058
:1005A0000E944E1460E080E80E94470582E091E0DE
:1005B0000E941D0681E080937D0380919603811146
:1005C00015C080914004811111C040E060E870E0E6
:1005D00080E090E00E944E1460E080E80E944705B1
:1005E00083E191E00E941D0610927D038FE39CE958
:1005F0000197F1F700C000000895882339F0BFCFBC
:1006000080918203823009F48ECF85CF809140049F
:10061000811181CF6BCF80912704813039F77FCF53
:10062000CF93DF93579A5F982FEF80EE90E02150A1
:1006300080409040E1F700C000005F9A579887EC37
:1006400090E00197F1F700C000004F9931C08FE3AF
:1006500091E00197F1F700C000004F9B2CC04F992B
:10066000FECFABE1B4E0C0E2D4E061E070E0FD01B8
:100670001C9287E090E04F9BFECF2AE82A95F1F785
:1006800000C04F9B0AC040819B01082E02C0220F70
:10069000331F0A94E2F7242B20834F99FECF019752
:1006A00050F71196CA17DB0711F781E090E005C0FB
:1006B00080E090E002C080E090E0DF91CF9108956B
:1006C0008F929F92AF92BF92CF92DF92EF92FF9262
:1006D0000F931F93CF93DF9310928D030E9410030B
:1006E000C82F80938D03813009F08BC01092F903DD
:1006F0001092F803EBE1F4E0008110E0E180F12CCE
:10070000D281C380D12CC8018E0D9F1D8D0F911DEC
:100710008C0D9D1D90933F0480933E046D2F6F7749
:1007200070E080E090E00E94BE272DEC3CEC4CECA9
:1007300051E40E9473284B015C01B601DD0C880B6B
:10074000990B0E94BE272DEC3CEC4CEC5DE30E9423
:1007500073289B01AC01C501B4010E94A3264B0183
:100760005C01609308047093090480930A049093D9
:100770000B040E94862770938F0360938E03DD2302
:100780009CF4B7FAB094B7F8B094809208049092B1
:100790000904A0920A04B0920B0471956195710945
:1007A00070938F0360938E03B701FF0C880B990B36
:1007B0000E94BE272DEC3CEC4CEC5DE30E947328BC
:1007C0006B017C01B801110F880B990B0E94BE27A9
:1007D0002DEC3CEC4CEC51E40E9473289B01AC01E5
:1007E000C701B6010E94A326609304047093050418
:1007F00080930604909307048091F8039091F90385
:100800001EC0811109C08091F8039091F9030196EF
:100810009093F9038093F8038091F8039091F90382
:100820008536910564F084E690E09093F903809317
:10083000F80381E080939405C130F1F408C0843658
:10084000910514F410929405C13041F402C084E67D
:1008500090E001979093F9038093F8038091F80357
:100860009091F903049744F41092940588E090E085
:100870009093F9038093F803DF91CF911F910F912B
:10088000FF90EF90DF90CF90BF90AF909F908F90B0
:1008900008950E94600360E080EC0E94470580910B
:1008A00007048F93809106048F93809105048F93A2
:1008B000809104048F9380910B048F9380910A049C
:1008C0008F93809109048F93809108048F9385E31F
:1008D00091E09F938F9380EB93E09F938F930E947F
:1008E0000A2A80EB93E00E941D068DB79EB70C96F6
:1008F0000FB6F8949EBF0FBE8DBF0895F999FECF35
:1009000092BD81BD60BDFA9AF99A0895F999FECF1A
:1009100092BD81BDF89A80B508958091830390912E
:1009200084039C012E5432402F36310538F4409117
:100930008503413019F442E040938203805991408D
:100940008D3B9105E8F440918503411115C042E0CB
:100950004093820311C080918503813019F4109275
:10096000820308952F363105B8F4809185038111F3
:1009700013C01092820308958F35914028F4EBCF75
:100980008F35914078F304C081E080938203E3CFF8
:1009900081E080938203E6CF089581E00E94E20027
:1009A00090938103809380038E5492408F369105FB
:1009B00068F480918603813049F480937F0341E09D
:1009C00060E074E080E090E00E944E14809180032B
:1009D00090918103805991408D3B910508F052C060
:1009E0002091860321114AC081E080937F0341E07A
:1009F00060E074E080E090E00E944E1480918003FB
:100A000090918103805991408F35914050F082E060
:100A100080937F0341E060E078E080E090E00E9416
:100A20004E148091800390918103805991408D3BB9
:100A3000910568F480918603813049F410927F0318
:100A400040E060E074E080E090E00E944E1480910D
:100A50008003909181038E5492408F369105B0F4BB
:100A600080918603811112C010927F0340E060E004
:100A700074E080E090E00E944E1408958F3591401C
:100A8000C8F2C5CF8F35914010F3C1CF0895CF93F1
:100A9000C82F613041F441E061E070E080E090E017
:100AA0000E944E1407C040E061E070E080E090E0FA
:100AB0000E944E1441E062E070E080E090E00E940D
:100AC0004E14C4FF08C041E064E070E080E090E0B4
:100AD0000E944E1407C040E064E070E080E090E0C7
:100AE0000E944E14C5FF08C041E068E070E080E05D
:100AF00090E00E944E1407C040E068E070E080E0A3
:100B000090E00E944E14C6FF08C041E060E170E032
:100B100080E090E00E944E1407C040E060E170E089
:100B200080E090E00E944E14CC2344F441E060E267
:100B300070E080E090E00E944E1407C040E060E268
:100B400070E080E090E00E944E1440E062E070E0CF
:100B500080E090E00E944E148FE39FE10197F1F74F
:100B600000C0000041E062E070E080E090E00E94A0
:100B70004E14C0FF08C041E064E070E080E090E007
:100B80000E944E1407C040E064E070E080E090E016
:100B90000E944E14C1FF08C041E068E070E080E0B0
:100BA00090E00E944E1407C040E068E070E080E0F2
:100BB00090E00E944E14C2FF08C041E060E170E086
:100BC00080E090E00E944E1407C040E060E170E0D9
:100BD00080E090E00E944E14C3FF08C041E060E254
:100BE00070E080E090E00E944E1407C040E060E2B8
:100BF00070E080E090E00E944E1440E062E070E01F
:100C000080E090E00E944E148FE39FE10197F1F79E
:100C100000C00000CF91089560E082E00E94470587
:100C200060E088E20E94470560E08CE00E94470592
:100C300060E081E00E94470508950F931F93CF93D2
:100C4000FC018081882361F08F01C0E0CF5F61E00B
:100C50000E944705F801EC0FF11D80818111F6CF4C
:100C6000CF911F910F910895CF93DF93EC016230E4
:100C700009F449C020F4613009F46DC08AC06330C2
:100C8000C1F0643009F085C09C01369527953695F2
:100C9000279536952795A5ECB0E20E9448269295B7
:100CA00082958F7089279F70892761E0805D0E94FF
:100CB00047059E013695279536952795ABE7B4E114
:100CC0000E944826AC01569547959A01ADECBCECC4
:100CD0000E9448269695879596958795969587952F
:100CE0009C01220F331F880F991F880F991F880FAF
:100CF000991F820F931F9A01281B390BC90161E0CC
:100D0000805D0E9447059E01ADECBCEC0E94482628
:100D1000AC015695479556954795569547959A0136
:100D20000E944826969587959695879596958795DE
:100D30009C01220F331F880F991F880F991F880F5E
:100D4000991F820F931F9A01281B390BC90161E07B
:100D5000805D0E9447059E01ADECBCEC0E944826D8
:100D60009695879596958795969587959C01220FE0
:100D7000331F880F991F880F991F880F991F820FA3
:100D8000931F9E01281B390BC90161E0805D0E9401
:100D90004705DF91CF9108951092390410920E0407
:100DA000109210048091C5039091C6030196909310
:100DB000C6038093C5036091300470913104725072
:100DC000072E000C880B990B0E94BE272EEE34E0F4
:100DD00045EB5FE30E94142721EE3AE744E95FE325
:100DE0000E9473280E948627AB01709314046093BD
:100DF0001304209100013091010181EE90E0821BEB
:100E0000930B481759072CF02F513F4F24173507E4
:100E10004CF5809188059091890520913A04309194
:100E20003B04821B930B8D349D41A4F440E060E4AD
:100E300070E080E090E00E944E14809188059091CF
:100E4000890520913A0430913B04821B930B8D3429
:100E50009D41ECF041E060E470E080E090E00E94B1
:100E60004E1415C081E08093390480930E04809164
:100E70001804909119040196909319048093180412
:100E800041E060E470E080E090E00E944E1481E078
:100E900080930E042091C5033091C603409118043D
:100EA0005091190464E6649FC001659F900D112460
:100EB000B9010E942E267093D4036093D303243685
:100EC000310541F41092C6031092C5031092190423
:100ED00010921804809188059091890520913A0418
:100EE00030913B04AC01421B530B9A0128393A4321
:100EF00024F090933B0480933A04089580918203F8
:100F0000823021F090912704913039F421E030E0D3
:100F1000309351042093500404C010925104109255
:100F200050042091AA033091AB03232B39F421E024
:100F300030E0309353042093520404C010925304C1
:100F400010925204813039F481E090E0909355047E
:100F50008093540404C0109255041092540480915C
:100F60007F03823039F421E030E03093570420933E
:100F7000560404C0109257041092560490910E0427
:100F8000911107C021E030E03093590420935804B8
:100F900004C0109259041092580490919405913015
:100FA00039F421E030E030935B0420935A0404C00C
:100FB00010925B0410925A0490919F03913039F47F
:100FC00021E030E030935D0420935C0404C0109273
:100FD0005D0410925C0490911A04913039F421E080
:100FE00030E0309361042093600404C010926104E7
:100FF00010926004833038F081E090E090936304B5
:101000008093620404C01092630410926204809181
:101010004E0490914F04899724F010925B04109233
:101020005A048091A8039091A90389970CF440C0B9
:1010300010925D0410925C043BC090813296890F3F
:10104000E217F307D1F78093100481110BC040E041
:1010500060E078E080E090E00E944E1480911004FF
:10106000882339F041E060E078E080E090E00E9481
:101070004E1480918203823021F0809127048130C8
:1010800039F441E060E072E080E090E00E944E14AC
:1010900080918203811113C08091270481110FC0B8
:1010A00040E060E072E080E090E00E944E1408951D
:1010B00080911004E2E5F4E024E634E0BECF089528
:1010C0001F920F920FB60F9211242F933F934F93BD
:1010D0005F936F937F938F939F93AF93BF93EF93A0
:1010E000FF93599A80918805909189050196909374
:1010F0008905809388050E945B120E94CE1359983F
:10110000FF91EF91BF91AF919F918F917F916F91DF
:101110005F914F913F912F910F900FBE0F901F90B5
:1011200018951F920F920FB60F9211248F939F93D1
:101130008091250490912604019690932604809333
:1011400025049F918F910F900FBE0F901F901895BF
:1011500041E060E070E880E090E00E944E14AAE771
:10116000B0E08C9180688C93ECE7F0E08081108295
:1011700080818064808380818F6D80838C91866084
:101180008C93EBE7F0E080818083EEE7F0E08081F4
:101190008763808380B7806880BF80E287B992E0F0
:1011A00094B988E185B98EEF8AB918B81092800099
:1011B000E1E8F0E080818D608083109285001092DC
:1011C000840029E03DE330938900209388009093C8
:1011D0006F00E0EBF0E0808182608083E1EBF0E083
:1011E0008081826080831092B2008FEF8093B30081
:1011F000E0E7F0E08081826080832FEF83EC99E06C
:10120000215080409040E1F700C000000E940C0691
:1012100060E081E00E94470560E080E80E944705A9
:1012200089E491E00E941D060E94CC060E94DA210A
:101230004E9A0E94DA211092910585E090E09093F9
:10124000240480932304109226041092250483E042
:1012500080939D051092FC031092CD0310928E0591
:101260001092A9031092A80310924F0410924E04FA
:1012700010923504109236041092370410923804FC
:101280001092F4031092F5031092F6031092F703F4
:101290001092AB031092AA0310920304109202045E
:1012A00010924A04109249041092F9031092F80324
:1012B00010920F041092C40310921A0483E190E07C
:1012C00090932F0480932E048DE990E09093FB037C
:1012D0008093FA0381E090E00E94860480939D054C
:1012E00082E090E00E94860490E090932404809332
:1012F000230483E090E00E94860490E09093010133
:101300008093000186E090E00E948604823018F409
:101310008093860303C081E08093860387E090E09A
:101320000E948604823018F48093850303C081E014
:101330008093850388E090E00E94860490E090937B
:10134000A9038093A8038B9734F089E290E09093EF
:10135000A9038093A80389E090E00E94860490E0AE
:1013600090934F0480934E048B9734F089E290E081
:1013700090934F0480934E0480E190E00E94860495
:1013800090E090932F0480932E048138910524F0EF
:1013900010922F0410922E0481E190E00E948604A6
:1013A000682F70E080E090E00E94BC2760933504D5
:1013B00070933604809337049093380420E030E033
:1013C00048E752E40E946E28181664F480E090E02A
:1013D000A4E7B2E48093350490933604A0933704D5
:1013E000B093380482E190E00E948604682F70E098
:1013F00080E090E00E94BC276093F4037093F503B3
:101400008093F6039093F70320E030E048EC52E439
:101410000E946E28181664F480E090E0A8ECB2E414
:101420008093350490933604A0933704B093380426
:1014300083E190E00E94860490E090939A05809367
:10144000990584E190E00E94860490E090939C03CB
:1014500080939B0385E190E00E94860490E0909346
:10146000F3038093F20386E190E00E948604C82F84
:10147000D0E0D093C303C093C20360919B037091EB
:101480009C03072E000C880B990B0E94BE272DECA5
:101490003CEC4CEC5DE30E9473286B017C01609195
:1014A000990570919A05072E000C880B990B0E94E4
:1014B000BE279B01AC01C701B6010E94A326609321
:1014C0008A0570938B0580938C0590938D056091B0
:1014D000F2037091F303072E000C880B990B0E9406
:1014E000BE276B017C01BE01DD0F880B990B0E94AA
:1014F000BE272DEC3CEC4CEC5DE30E9473289B0175
:10150000AC01C701B6010E94A3266093A2037093A9
:10151000A3038093A4039093A50310929E0580E0FB
:101520000E94E200909384038093830381E00E94F1
:10153000E20090938103809380030E94DA210E944D
:10154000CC060E947E07789410929903109298031B
:1015500040E060E070E880E090E00E944E1411E00E
:10156000C1E0D0E00E94F8000E948D040E94CD04EA
:101570000E94CC060E9478150E947E070E9470018E
:1015800080919D05823009F4BFC01093F103209132
:10159000D3033091D4038091A8039091A903820FC3
:1015A000931F84369105D4F440E060E470E080E05D
:1015B00090E00E944E141092AB031092AA03809107
:1015C000A8039091A9032091D3033091D403280F4D
:1015D000391F2436310514F489975CF0D093AB039E
:1015E000C093AA03412F60E470E080E090E00E9485
:1015F0004E141B9946C080917C03811142C080919A
:101600009E05811184C0412F60E070E880E090E089
:101610000E944E1480919D058F5F80939D051093CD
:101620007C031092910510922904109228042FEF48
:1016300086E791E0215080409040E1F700C0000033
:1016400010927E0340E060E870E080E090E00E944D
:101650004E1480919D05843010F010939D0560918B
:101660009D05CE010E947E048FE39CE90197F1F76E
:1016700000C0000040E060E070E880E090E00E9480
:101680004E141B9B12C080917C03813071F48091B9
:101690009E0581110AC01092910510927C038FE380
:1016A0009CE90197F1F700C0000080919D05813011
:1016B00031F480919E05811155CF0E94890B809154
:1016C0009D05823031F480919E0581114BCF0E949F
:1016D000420280919D05833009F044CF80919E05A0
:1016E000811140CF60E080E80E9447058AE591E0E3
:1016F0000E941D060E940C0D40E060E071E080E059
:1017000090E00E944E142ECF1092F10340CF83B18F
:10171000CCCF80919105811166C11C9B61C18091E4
:101720007E0381115DC18091970381110EC01092DB
:10173000DC031092DB031092A1031092A00310921D
:101740009E0310929D031092D00340E060E071E090
:1017500080E090E00E944E1460E080E80E9447051F
:101760008FE691E00E941D060E940C0D1092340439
:10177000109233041092DA0310929703109215041A
:101780008FE39CE90197F1F700C000001C9920C08D
:1017900080919105882309F42CC11AC041E060E0D2
:1017A00070E880E090E00E944E1481E08093910503
:1017B0009FEF2AE683E0915020408040E1F700C08F
:1017C000000040E060E070E880E090E00E944E148D
:1017D00080919105813009F019C11C9B83C08091D3
:1017E0007E0381117FC080918203811120C080918E
:1017F0002704811106C160E080E80E94470580E867
:1018000091E00E941D061092910581E080937E0375
:1018100080937D0380939703109215049FEF29EF27
:1018200080E0915020408040E1F700C000008091AE
:101830008203823021F080912704813009F581E014
:1018400080937E0340E060E870E080E090E00E94DA
:101850004E14109297031092910560E080E80E9468
:10186000470584E291E00E941D069FEF29EF80E08A
:10187000915020408040E1F700C0000010927D03AD
:10188000809191058111B1C01C9959C080917E034E
:10189000813009F054C040E060E870E080E090E002
:1018A0000E944E141092970341E060E070E880E0DF
:1018B00090E00E944E1481E0809391059FEF22E515
:1018C00087E0915020408040E1F700C0000040E0F8
:1018D00060E070E880E090E00E944E1480919105F5
:1018E000813049F51C9B97C080917E03813009F0BF
:1018F00092C01092D00340E060E870E080E090E099
:101900000E944E1410927E031092910560E080E8D0
:101910000E9447058FE691E00E941D060E940C0D73
:101920009FEF29EF80E0915020408040E1F700C018
:10193000000010927D038091910581116CC080910F
:101940007E03813009F067C0809115048130A1F4D5
:101950008091D003811110C0109297031092DC0384
:101960001092DB0381E08093D00341E060E870E0F7
:1019700080E090E00E944E1480918203811112C099
:1019800080912704811112C080919703811143C077
:1019900060E080E80E94470580E891E00E941D0613
:1019A0000E940C0D80918203823021F080912704E7
:1019B000813089F540E060E870E080E090E00E94CE
:1019C0004E141092970360E080E80E94470584E27D
:1019D00091E00E941D0610927D030E940C0D089557
:1019E0001C9B07C04DCF83B1F3CE813009F47ACF71
:1019F000089580917E03811147CFD0CE80919105CB
:101A0000F4CF809127048130C9F719CF80919105D7
:101A1000882309F439CF0895CF93DF9380919D05F2
:101A2000813009F406C160E080EC0E944705109205
:101A3000120410921104C0912804D0912904C730D7
:101A4000D10509F0F8C10E944904C0912804D09141
:101A50002904C730D1050CF074C0FE01EE0FFF1F42
:101A6000E05BFB4F80819181019709F060C005C068
:101A700081919191019709F05FC0C730D10508F0BD
:101A800051C0FE01EC5CFF4F0C94422681E991E0CD
:101A90000E941D0681E090E090931204809311044F
:101AA00041C082EA91E00E941D0681E090E090939F
:101AB00012048093110436C083EB91E00E941D064E
:101AC00081E090E090931204809311042BC084EC89
:101AD00091E00E941D0681E090E0909312048093B3
:101AE000110420C085ED91E00E941D0681E090E088
:101AF000909312048093110415C086EE91E00E9429
:101B00001D0681E090E090931204809311040AC0B6
:101B100087EF91E00E941D0681E090E0909312040F
:101B200080931104D0932904C09328040AC0FE01B5
:101B3000EE0FFF1FEE5AFB4F2196C730D1050CF474
:101B400097CF8091110490911204892B31F40E9457
:101B50004904109229041092280480911104909154
:101B60001204019711F40E9460031C990AC080912D
:101B7000CD03811106C081E08093CD031C9B54C02E
:101B800007C01C9B51C08091CD03813009F04CC02F
:101B900041E060E070E880E090E00E944E14109216
:101BA000CD03E0912804F0912904CF010196909390
:101BB000290480932804DC01AA0FBB1FA05BBB4F44
:101BC0002D913C91232B49F5873091055CF012C093
:101BD000219131912130310549F49093290480936A
:101BE000280408C0EE0FFF1FEC5AFB4F0196873008
:101BF000910571F78091280490912904089724F0A9
:101C000010922904109228042FEF89EF90E02150C0
:101C100080409040E1F700C0000040E060E070E8E4
:101C200080E090E00E944E1480919D05813009F083
:101C30000CC160E080EC0E944705109212041092E3
:101C40001104C0912804D0912904C730D10509F0AE
:101C5000F7C00E944904C0912804D0912904C730DC
:101C6000D1050CF074C0FE01EE0FFF1FE05BFB4FCF
:101C700080819181019709F060C005C081919191A7
:101C8000019709F05FC0C730D10508F051C0FE01CF
:101C9000E55CFF4F0C94422681E991E00E941D060D
:101CA00081E090E0909312048093110441C082EA95
:101CB00091E00E941D0681E090E0909312048093D1
:101CC000110436C083EB91E00E941D0681E090E094
:101CD00090931204809311042BC084EC91E00E9435
:101CE0001D0681E090E0909312048093110420C0BF
:101CF00085ED91E00E941D0681E090E09093120432
:101D00008093110415C086EE91E00E941D0681E0CB
:101D100090E090931204809311040AC087EF91E041
:101D20000E941D0681E090E09093120480931104BC
:101D3000D0932904C09328040AC0FE01EE0FFF1FB0
:101D4000EE5AFB4F2196C730D1050CF497CF809106
:101D5000110490911204892B31F40E9449041092CD
:101D60002904109228048091110490911204019783
:101D700011F40E9460031D9B0AC08091CD03811164
:101D800006C081E08093CD031D995FC007C01D99F7
:101D90005CC08091CD03813009F057C041E060E024
:101DA00070E880E090E00E944E141092CD03E09124
:101DB0002804F0912904CF0101969093290480937F
:101DC0002804DC01AA0FBB1FA05BBB4F2D913C91E7
:101DD000232B49F5873091055CF012C02191319198
:101DE0002130310549F4909329048093280408C0D8
:101DF000EE0FFF1FEC5AFB4F01968730910571F7EC
:101E00008091280490912904089724F010922904C5
:101E1000109228042FEF89EF90E0215080409040ED
:101E2000E1F700C0000040E060E070E880E090E092
:101E30000E944E140AC0C730D1050CF40ECE87CED6
:101E4000C730D1050CF40FCF88CFDF91CF91089523
:101E5000CF93DF9380919003909191038D30910502
:101E600009F01AC3C6E6D4E02A8D3B8D80912A047E
:101E700090912B04822B932B2C893D89220F331FA9
:101E8000220F331F220F331F822B932B2E893F8962
:101E9000220F331F220F331F822B932B288D398D56
:101EA000220F331F822B932B90932B0480932A04B1
:101EB00008C0299A459A80919003909191030D97BB
:101EC00011F4299A459A80919003909191030E976D
:101ED00061F48091500490915104019721F0809118
:101EE00027048230B1F4299A459A80919003909109
:101EF00091038D3091050CF4DBC2469711F4299AB9
:101F0000459A80919003909191034F9711F4299AEB
:101F1000459A8091900390919103889711F4299AA2
:101F2000459A8091900390919103C19711F4299A59
:101F3000459A8091900390919103CA9711F4299A40
:101F4000459A80919003909191038334910511F407
:101F5000299A459A80919003909191038C34910530
:101F600011F4299A459A80912A0490912B04823089
:101F7000910509F46AC01CF4892B49F099C2833099
:101F8000910509F47FC00E9709F41FC291C2809198
:101F9000900390919103099711F4299A459A8091A1
:101FA0009003909191030D9711F4299A459A80918D
:101FB0009003909191030E9761F480915004909159
:101FC0005104019721F080912704823091F4299ADD
:101FD000459A8091900390919103469711F4299A24
:101FE000459A80919003909191034F9711F4299A0B
:101FF000459A8091900390919103889711F4299AC2
:10200000459A8091900390919103C19711F4299A78
:10201000459A8091900390919103CA9711F4299A5F
:10202000459A80919003909191038334910511F426
:10203000299A459A80919003909191038C3491054F
:1020400009F036C2299A459A33C280919003909143
:1020500091030D9711F4299A459A809190039091DC
:1020600091030E9709F024C280915004909151047D
:10207000019729F080912704823009F019C2299A2A
:10208000459A16C280919003909191030D9711F497
:10209000299A459A80919003909191030E9761F44B
:1020A0008091500490915104019721F08091270470
:1020B000823091F4299A459A8091900390919103EE
:1020C000469711F4299A459A809190039091910333
:1020D0004F9711F4299A459A80919003909191031A
:1020E000889711F4299A459A8091900390919103D1
:1020F000C19711F4299A459A809190039091910388
:10210000CA9711F4299A459A80919003909191036E
:102110008334910511F4299A459A80919003909106
:1021200091038C34910511F4299A459A809190037A
:10213000909191039C012E5031092830310520F5F2
:1021400025E130E0281B390B8091FA039091FB03C5
:1021500002C0959587952A95E2F78170992720917D
:10216000C7033091C803822B932B9093C8038093AD
:10217000C703019711F4299A459A8091C70390915A
:10218000C803892B09F429988091900390919103B9
:102190004E97E1F480912704E82FE170F0E0809100
:1021A000C7039091C803E82BF92BF093C803E09381
:1021B000C703E130F10509F073C1299A459A80916E
:1021C000C7039091C803892B09F429988091900343
:1021D0009091910382970297D0F48091F103A82FF8
:1021E000A170B0E08091C7039091C803A82BB92BD0
:1021F000B093C803A093C703119711F4299A459A85
:102200008091C7039091C803892B09F42998809184
:1022100090039091910384970497D8F480912704B8
:10222000482F417050E08091C7039091C803482B1C
:10223000592B5093C8034093C7034130510511F403
:10224000299A459A8091C7039091C803892B09F474
:10225000299880919003909191038797E1F4809160
:102260009405682F617070E08091C7039091C80356
:10227000682B792B7093C8036093C7036130710595
:1022800009F012C1299A459A8091C7039091C80319
:10229000892B09F429982091900330919103C90169
:1022A000C397069760F580918303909184039923E7
:1022B0000CF40396959587959595879549E350E09D
:1022C000BA01621B730B02C0959587956A95E2F778
:1022D000817099272091C7033091C803822B932BDB
:1022E0009093C8038093C703019711F4299A459AE4
:1022F0008091C7039091C803892B09F42998809194
:102300009003909191039C012C53310927303105A2
:1023100020F522E430E0281B390B80918E03909148
:102320008F0302C0959587952A95E2F781709927CA
:102330002091C7033091C803822B932B9093C8033D
:102340008093C703019711F4299A459A8091C70396
:102350009091C803892B09F429982091900330911A
:102360009103C90185549109079708F0A1C0809194
:1023700080039091810399230CF40396959587959A
:10238000959587954BE450E0BA01621B730B02C030
:10239000959587956A95E2F7817099272091C703F3
:1023A0003091C803822B932B9093C8038093C7036B
:1023B000019711F4299A459A8091C7039091C80317
:1023C000892B09F075C0299873C080919003909172
:1023D00091030D9711F4299A459A80919003909159
:1023E00091034E9711F4299A459A80919003909108
:1023F00091038D9711F4299A459A809190039091B9
:1024000091038E9709F054C08091AC049091AD0473
:10241000019779F48091BA049091BB04019749F433
:1024200041E060E070E880E090E00E944E1410927D
:1024300027048091AE049091AF04019779F48091C4
:10244000BC049091BD04019749F440E060E070E85D
:1024500080E090E00E944E14109227048091B20414
:102460009091B304019749F48091C0049091C10404
:10247000019719F481E0809327048091B004909132
:10248000B1040197A9F48091BE049091BF04019713
:1024900079F4109227040CC0099709F014CD09CDE6
:1024A000EF2B09F492CED5CE672B09F4F3CE55CF9E
:1024B000DF91CF91089523B1822F817090E09093A6
:1024C0004D0480934C048130910509F02AC180911C
:1024D000FD0381115DC18091FE039091FF039C017A
:1024E000295031092230310528F41092FF0310924F
:1024F000FE032EC04297039738F481E090E090935A
:10250000FF038093FE0342C08091FE039091FF037E
:102510004B970897E8F482E090E09093FF03809354
:10252000FE0310929103109290031092A703109251
:10253000A6031092D6031092D50310922B0410928A
:102540002A0420E030E0909367048093660482C000
:102550008091FE039091FF03893E9340BCF010925E
:102560009103109290031092A7031092A603109269
:10257000D6031092D50310922B0410922A041092C5
:102580002704109267041092660474C0209190038F
:1025900030919103F901EE0FFF1FEA59FB4F809133
:1025A000FE039091FF03918380832830310509F069
:1025B00051C0E6E6F4E0208931898091D5039091FD
:1025C000D603822B932B24813581002436952795C1
:1025D0000794369527950794322F202D822B932B25
:1025E00026813781220F331F22953295307F322783
:1025F000207F3227822B932B20853185229532959F
:10260000307F3227207F3227822B932B2285338500
:10261000220F331F220F331F220F331F822B932BC6
:1026200024853585220F331F220F331F822B932BD6
:1026300026853785220F331F822B932B9093D60349
:102640008093D503009709F09AC01092D803109296
:10265000D70395C04091D5035091D60380912E04A5
:1026600090912F044817590729F42830310514F0A8
:102670000E94280F81E08093FD0310923204109293
:10268000FF031092FE031092C8031092C7038091BB
:10269000680490916904019711F580916A04909102
:1026A0006B04892BE1F48091900390919103029740
:1026B000B1F48091D7039091D80301969093D803F9
:1026C0008093D70320912E0430912F048217930713
:1026D00031F49093D6038093D503299A459A80913B
:1026E00090039091910301969093910380939003AE
:1026F00080914C0490914D048130910509F448C0BB
:1027000010C08091D1039091D20301969093D2038F
:102710008093D10380914C0490914D04892BE9F072
:102720000895892BD1F580913204811116C0299822
:10273000459881E0809332041092FD031092D203F9
:102740001092D1031092A7031092A60380914C041B
:1027500090914D04892B29F00895809132048130A5
:10276000E1F41092D2031092D1038091FE03909174
:10277000FF0301969093FF038093FE030895209139
:102780002E0430912F048217930709F073CF70CF76
:102790008091FD03813009F4B4CF089580919703AF
:1027A000813009F07AC080911504811176C0809142
:1027B000DB039091DC0301969093DC038093DB03B1
:1027C00068E572E00E942E267093A1036093A00337
:1027D00010921704109216048091DA03811130C010
:1027E00086E00E94E2009093170480931604895FAC
:1027F00091400C9728F58091DA03811121C08091D6
:10280000DB039091DC032091330430913404AC015C
:10281000421B530B493451050CF43FC090933404D0
:102820008093330481E08093DA0310929E03109228
:102830009D0340E060E870E080E090E00E944E146C
:102840008091DA03813049F520919D0330919E03F8
:102850002F5F3F4F30939E0320939D034091A00331
:102860005091A1038FE490E0841B950B9093930308
:10287000809392032817390739F441E060E870E04B
:1028800080E090E00E944E1480919D0390919E0301
:102890008C34910514F01092DA0308950F931F936E
:1028A0004130B9F400918703109188032091890386
:1028B00030918A03DC01CB01802B912BA22BB32B0F
:1028C0008093870390938803A0938903B0938A032E
:1028D0001AC00091870310918803209189033091D9
:1028E0008A03DC01CB0180959095A095B09580235B
:1028F0009123A223B3238093870390938803A0930B
:102900008903B0938A035B985C98809187039091C8
:102910008803A0918903B0918A0397FF02C05A9A55
:1029200001C05A985C9A5C988091870390918803C3
:10293000A0918903B0918A0396FF02C05A9A01C000
:102940005A985C9A5C988091870390918803A09133
:102950008903B0918A0395FF02C05A9A01C05A9820
:102960005C9A5C988091870390918803A091890379
:10297000B0918A0394FF02C05A9A01C05A985C9A97
:102980005C988091870390918803A0918903B0910E
:102990008A0393FF02C05A9A01C05A985C9A5C98C5
:1029A0008091870390918803A0918903B0918A0355
:1029B00092FF02C05A9A01C05A985C9A5C98809122
:1029C000870390918803A0918903B0918A0391FFB6
:1029D00002C05A9A01C05A985C9A5C988091870309
:1029E00090918803A0918903B0918A0390FF02C05F
:1029F0005A9A01C05A985C9A5C988091870390918A
:102A00008803A0918903B0918A0387FF02C05A9A74
:102A100001C05A985C9A5C988091870390918803D2
:102A2000A0918903B0918A0386FF02C05A9A01C01F
:102A30005A985C9A5C988091870390918803A09142
:102A40008903B0918A0385FF02C05A9A01C05A983F
:102A50005C9A5C988091870390918803A091890388
:102A6000B0918A0384FF02C05A9A01C05A985C9AB6
:102A70005C988091870390918803A0918903B0911D
:102A80008A0383FF02C05A9A01C05A985C9A5C98E4
:102A90008091870390918803A0918903B0918A0364
:102AA00082FF02C05A9A01C05A985C9A5C98809141
:102AB000870390918803A0918903B0918A0381FFD5
:102AC00002C05A9A01C05A985C9A5C988091870318
:102AD00090918803A0918903B0918A0380FF02C07E
:102AE0005A9A01C05A985C9A5B9A1F910F91089567
:102AF000CF92DF92EF92FF921D9B48C08091FC0322
:102B0000811144C080919D05833011F00C94D02137
:102B100041E060E070E880E090E00E944E14809117
:102B20008805909189059093030480930204809115
:102B30009E058F5F80939E0581E08093FC032FEFBD
:102B400030E782E0215030408040E1F700C00000D3
:102B500060E080EC0E94470588E092E00E941D063C
:102B600080919E058B3028F083E080939D05109224
:102B70009E0560919E0580E090E00E947E0440E00A
:102B800060E070E880E090E00E944E141D9B39C028
:102B90008091FC03813011F00C94C921809188054B
:102BA000909189052091020430910304821B930BBC
:102BB00090938C0380938B03813A9F4014F40C9480
:102BC000C32141E060E070E880E090E00E944E1494
:102BD0008091880590918905909303048093020465
:102BE00083E080939D0510929E0560E080E090E078
:102BF0000E947E0440E060E070E880E090E00E9487
:102C00004E141D9913C08091FC03813079F480919A
:102C10009D05833059F41092FC033FEF89EF90E05B
:102C2000315080409040E1F700C0000080919E0547
:102C3000813009F0FDC060E080E80E94470589E12D
:102C400092E00E941D066091300470913104725030
:102C5000072E000C880B990B0E94BE272EEE34E045
:102C600045EB5FE30E94142721EE3AE744E95FE376
:102C70000E9473280E9486277093C1036093C0034B
:102C800060E08BE80E94470563E08091C00390916B
:102C9000C1030E94340660E080EC0E9447058AE28E
:102CA00092E00E941D0660E08EEC0E944705809134
:102CB0000001909101016AE070E00E942E26CB0194
:102CC00061E00E94340660E08FEC0E94470580912D
:102CD00000019091010164E670E00E942E2661E0FF
:102CE0000E9434061B9935C08091CD03811131C0FB
:102CF00041E060E070E880E090E00E944E14809136
:102D00000001909101010296893291052CF4909373
:102D100001018093000104C0109201011092000192
:102D200081E08093CD036091000183E090E00E94F8
:102D30007E042FEF39EF80E0215030408040E1F7F2
:102D400000C0000040E060E070E880E090E00E9499
:102D50004E141B9B1AC08091CD038130B1F441E029
:102D600060E070E880E090E00E944E141092CD0385
:102D70008FE39CE90197F1F700C0000040E060E0BC
:102D800070E880E090E00E944E141C9935C080915C
:102D9000CD03811131C041E060E070E880E090E057
:102DA0000E944E14809100019091010102972AF037
:102DB000909301018093000106C088E290E0909317
:102DC00001018093000181E08093CD0360910001B7
:102DD00083E090E00E947E049FEF29EF30E0915065
:102DE00020403040E1F700C0000040E060E070E8C3
:102DF00080E090E00E944E141B9B1AC08091CD038E
:102E00008130B1F441E060E070E880E090E00E9441
:102E10004E141092CD038FE39CE90197F1F700C0A7
:102E2000000040E060E070E880E090E00E944E1416
:102E300080919E05823009F0E6C060E080E80E9443
:102E4000470588E392E00E941D0660E080EC0E9446
:102E5000470589E492E00E941D0660E08CEC0E9428
:102E6000470583E592E00E941D0682E090E00E9403
:102E7000860490E0909324048093230460E08AEC1D
:102E80000E94470580912304909124046AE070E039
:102E90000E942E26CB0161E00E94340660E08BEC9C
:102EA0000E944705809123049091240464E670E019
:102EB0000E942E2661E00E9434061B9935C0809145
:102EC000CD03811131C041E060E070E880E090E026
:102ED0000E944E1480912304909124040196853120
:102EE00091052CF4909324048093230404C0109241
:102EF00024041092230481E08093CD036091230485
:102F000082E090E00E947E049FEF29EF30E0915034
:102F100020403040E1F700C0000040E060E070E891
:102F200080E090E00E944E141B9B1AC08091CD035C
:102F30008130B1F41092CD0341E060E070E880E0B0
:102F400090E00E944E148FE39CE90197F1F700C0D6
:102F5000000040E060E070E880E090E00E944E14E5
:102F60001C9935C08091CD03811131C041E060E0F2
:102F700070E880E090E00E944E14809123049091CC
:102F8000240401972AF0909324048093230406C01C
:102F900084E190E0909324048093230481E0809363
:102FA000CD036091230482E090E00E947E049FEFB5
:102FB00029EF30E0915020403040E1F700C00000A0
:102FC00040E060E070E880E090E00E944E141C9BBE
:102FD0001AC08091CD038130B1F41092CD0341E04D
:102FE00060E070E880E090E00E944E148FE39CE97E
:102FF0000197F1F700C0000040E060E070E880E079
:1030000090E00E944E1480919E05833009F0C1C06B
:1030100060E080E80E94470588E592E00E941D0676
:1030200081E00E94E200909381038093800360E03E
:103030008DEC0E94470580918003909181036AE0A6
:1030400070E00E942E26CB0162E00E94340660E010
:103050008FEC0E944705809180039091810364E684
:1030600070E00E942E2661E00E9434068091860363
:10307000811108C060E080EC0E94470588E692E07C
:103080000E941D0680918603813041F460E080EC4F
:103090000E94470584E792E00E941D061B995AC0D2
:1030A00080918E05811156C041E060E070E880E0BB
:1030B00090E00E944E1480918603811120C080917F
:1030C0008E05811140C081E080938E058093860338
:1030D00060E080EC0E94470584E792E00E941D06B4
:1030E0006091860386E090E00E947E049FEF20E7D7
:1030F00032E0915020403040E1F700C00000809164
:103100008603813001F580918E0581111CC081E01C
:1031100080938E051092860360E080EC0E94470544
:1031200088E692E00E941D066091860386E090E0AA
:103130000E947E048FEF90E722E081509040204073
:10314000E1F700C0000040E060E070E880E090E05F
:103150000E944E141B9B1DC080918E058130C9F4C6
:1031600041E060E070E880E090E00E944E14109230
:103170008E053FEF80E792E0315080409040E1F7CC
:1031800000C0000040E060E070E880E090E00E9455
:103190004E1480919E05843009F0C1C060E080E843
:1031A0000E94470581E892E00E941D0682E00E948D
:1031B000E200909384038093830360E08DEC0E948F
:1031C000470580918303909184036AE070E00E9438
:1031D0002E26CB0162E00E94340660E08FEC0E9454
:1031E0004705809183039091840364E670E00E9418
:1031F0002E2661E00E94340680918503811108C06B
:1032000060E080EC0E94470588E692E00E941D067F
:1032100080918503813041F460E080EC0E94470595
:1032200084E792E00E941D061B995AC080918E058A
:10323000811156C041E060E070E880E090E00E94BB
:103240004E1480918503811120C080918E058111DB
:1032500040C081E080938E058093850360E080EC20
:103260000E94470584E792E00E941D066091850355
:1032700087E090E00E947E042FEF30E782E021504B
:1032800030408040E1F700C000008091850381302C
:1032900001F580918E0581111CC081E080938E051F
:1032A0001092850360E080EC0E94470588E692E07A
:1032B0000E941D066091850387E090E00E947E04D5
:1032C0009FEF20E732E0915020403040E1F700C00E
:1032D000000040E060E070E880E090E00E944E1462
:1032E0001B9B1DC080918E058130C9F441E060E0D8
:1032F00070E880E090E00E944E1410928E058FEFEF
:1033000090E722E0815090402040E1F700C00000AB
:1033100040E060E070E880E090E00E944E14809110
:103320009E05853009F0D4C181E190E00E948604B9
:10333000682F70E080E090E00E94BC276B017C0168
:103340006093350470933604809337049093380467
:1033500020E030E040E752E40E940F2718160CF4FA
:103360004AC020E030E040E251ECC701B6010E94C3
:103370006E2888230CF43FC060E080E80E94470577
:1033800081E992E00E941D0660E080EC0E94470502
:1033900082EA92E00E941D0660E08EEC0E944705E2
:1033A00020E030E040E251E4609135047091360451
:1033B00080913704909138040E9414270E948D2731
:1033C000DC01CB0161E00E94340660E08FEC0E94DA
:1033D00047056091350470913604809137049091CF
:1033E00038040E948627CB0164E670E00E942E26F6
:1033F00061E00E943406C0903504D0903604E0901D
:103400003704F090380420E030E040E752E4C70190
:10341000B6010E946E28181654F020E030E040E219
:1034200051ECC701B6010E940F27882384F460E0A5
:1034300080E80E94470581EB92E00E941D0660E053
:1034400080EC0E94470582EC92E00E941D061B99C9
:103450005DC08091CD03811159C041E060E070E80A
:1034600080E090E00E944E1480918805909189053B
:10347000909303048093020481E08093CD0320E0C5
:1034800030E040E050E46091350470913604809162
:103490003704909138040E94A3266B017C0120E040
:1034A00030E048E752E40E946E2818164CF0C092B3
:1034B0003504D0923604E0923704F092380408C004
:1034C000109235041092360410923704109238048A
:1034D00060913504709136048091370490913804DE
:1034E0000E948D2781E190E00E947E043FEF89EFEA
:1034F00090E0315080409040E1F700C0000040E093
:1035000060E070E880E090E00E944E141B9B1BC0BE
:103510008091CD03813009F03FC741E060E070E861
:1035200080E090E00E944E141092CD038FE39CE95E
:103530000197F1F700C0000040E060E070E880E033
:1035400090E00E944E141B9950C08091CD038130B1
:1035500009F04BC0E0908805F09089058091020445
:10356000909103049701281B390BC90130938C03F8
:1035700020938B03813D9740C4F120E030E040E888
:103580005FE3609135047091360480913704909127
:1035900038040E94A3266093350470933604809308
:1035A000370490933804F0920304E092020420E080
:1035B00030E048E752E40E946E28181644F4109256
:1035C000350410923604109237041092380460913A
:1035D00035047091360480913704909138040E942C
:1035E0008D2781E190E00E947E041C9955C0809156
:1035F0008E05811151C041E060E070E880E090E00C
:103600000E944E1420E030E040E85FE36091350412
:103610007091360480913704909138040E94A2265C
:103620006B017C0120E030E040E251EC0E940F276A
:1036300088234CF0C0923504D0923604E0923704CF
:10364000F092380408C0109235041092360410929B
:1036500037041092380481E080938E056091350420
:103660007091360480913704909138040E948D2720
:1036700081E190E00E947E048FEF99EF20E081507D
:1036800090402040E1F700C0000040E060E070E8BA
:1036900080E090E00E944E141C9B1AC080918E0521
:1036A0008130B1F441E060E070E880E090E00E9499
:1036B0004E1410928E058FE39CE90197F1F700C03C
:1036C000000040E060E070E880E090E00E944E146E
:1036D00080919E05863009F062C189E090E00E94E9
:1036E000860490E090934F0480934E0420E030E0F5
:1036F00046EC52E46091F4037091F5038091F60377
:103700009091F7030E940F2718160CF43FC060E059
:1037100080E80E94470581E992E00E941D0660E072
:1037200080EC0E94470583ED92E00E941D0660E058
:103730008EEC0E94470520E030E040E251E46091C9
:10374000F4037091F5038091F6039091F7030E94C2
:1037500014270E948D27DC01CB0161E00E94340612
:1037600060E08FEC0E9447056091F4037091F503CF
:103770008091F6039091F7030E948627CB0164E6BF
:1037800070E00E942E2661E00E94340620E030E0C6
:1037900046EC52E46091F4037091F5038091F603D6
:1037A0009091F7030E946E28181684F460E080E878
:1037B0000E94470581EB92E00E941D0660E080ECCC
:1037C0000E94470582EE92E00E941D061B9955C09B
:1037D0008091CD03811151C041E060E070E880E04C
:1037E00090E00E944E1420E030E040E050E4609110
:1037F000F4037091F5038091F6039091F7030E9412
:10380000A3266B017C0120E030E048EC52E40E94EA
:103810006E2818164CF0C092F403D092F503E09293
:10382000F603F092F70308C01092F4031092F50328
:103830001092F6031092F70381E08093CD0360911C
:10384000F4037091F5038091F6039091F7030E94C1
:103850008D2782E190E00E947E049FEF29EF30E007
:10386000915020403040E1F700C0000040E060E0AF
:1038700070E880E090E00E944E141B9B1AC080917B
:10388000CD038130B1F41092CD0341E060E070E8E7
:1038900080E090E00E944E148FE39CE90197F1F7DD
:1038A00000C0000040E060E070E880E090E00E942E
:1038B0004E141C9958C080918E05811154C041E06E
:1038C00060E070E880E090E00E944E1420E030E07C
:1038D00040E85FE36091F4037091F5038091F60393
:1038E0009091F7030E94A2266B017C0120E030E05A
:1038F000A9010E940F2788234CF0C092F403D092B4
:10390000F503E092F603F092F7030CC080E090E03C
:10391000A8ECB2E48093F4039093F503A093F6032C
:10392000B093F70381E080938E056091F40370916A
:10393000F5038091F6039091F7030E948D2782E1B1
:1039400090E00E947E049FEF29EF30E091502040EC
:103950003040E1F700C0000040E060E070E880E047
:1039600090E00E944E141C9B1AC080918E058130FD
:10397000B1F441E060E070E880E090E00E944E1415
:1039800010928E058FE39CE90197F1F700C00000CB
:1039900040E060E070E880E090E00E944E1480918A
:1039A0009E05873009F07CC1C0903504D090360464
:1039B000E0903704F090380420E030E044E752E42F
:1039C000C701B6010E946E2888231CF088E080930E
:1039D0009E0520E030E040EB50E460918A05709154
:1039E0008B0580918C0590918D050E940F271816EC
:1039F000CCF120E030E044E752E4C701B6010E9478
:103A00000F2788237CF560E080E80E94470583EF5C
:103A100092E00E941D0660E080EC0E9447058091C4
:103A20008D058F9380918C058F9380918B058F935B
:103A300080918A058F9384E093E09F938F9380EB2E
:103A400093E09F938F930E940A2A80EB93E00E9459
:103A50001D062DB73EB7285F3F4F0FB6F8943EBF07
:103A60000FBE2DBF20E030E040EB50E460918A05AE
:103A700070918B0580918C0590918D050E946E2828
:103A8000181644F410928A0510928B0510928C053A
:103A900010928D051B9974C08091CD03811170C067
:103AA00041E060E070E880E090E00E944E142DEC70
:103AB0003CEC4CEC5DE360918A0570918B05809144
:103AC0008C0590918D050E94A3266B017C0120E05E
:103AD00030E040EB50E40E946E2818164CF0C09283
:103AE0008A05D0928B05E0928C05F0928D0508C076
:103AF00010928A0510928B0510928C0510928D05FC
:103B000081E08093CD0360918A0570918B0580914F
:103B10008C0590918D050E948627262F609399052C
:103B200070939A05862F972F880F991FAC01440F29
:103B3000551F440F551F840F951F6AE070E00E94C7
:103B40002E2690939C0380939B03622F83E190E049
:103B50000E947E0460919B0384E190E00E947E04B9
:103B60003FEF89EF90E0315080409040E1F700C096
:103B7000000040E060E070E880E090E00E944E14B9
:103B80001B9B1AC08091CD038130B1F41092CD03FC
:103B900041E060E070E880E090E00E944E148FE326
:103BA0009CE90197F1F700C0000040E060E070E898
:103BB00080E090E00E944E141C9956C080918E05C2
:103BC000811152C041E060E070E880E090E00E9426
:103BD0004E142DEC3CEC4CEC5DE360918A05709149
:103BE0008B0580918C0590918D050E94A2266B011A
:103BF0007C0120E030E0A9010E940F2788234CF0CF
:103C0000C0928A05D0928B05E0928C05F0928D05CA
:103C10000CC083E393E3A3EBB0E480938A05909315
:103C20008B05A0938C05B0938D0581E080938E0564
:103C30006091990583E190E00E947E0460919B036E
:103C400084E190E00E947E049FEF29EF30E09150E4
:103C500020403040E1F700C0000040E060E070E844
:103C600080E090E00E944E141C9B1AC080918E054B
:103C70008130B1F441E060E070E880E090E00E94C3
:103C80004E1410928E058FE39CE90197F1F700C066
:103C9000000040E060E070E880E090E00E944E1498
:103CA00080919E05883009F07CC1C090F403D090CB
:103CB000F503E090F603F090F70320E030E048ECE5
:103CC00052E4C701B6010E946E2888231CF089E0E7
:103CD00080939E0520E030E040E251E46091A20331
:103CE0007091A3038091A4039091A5030E940F27D4
:103CF0001816CCF120E030E048EC52E4C701B601E0
:103D00000E940F2788237CF560E080E80E94470529
:103D100083EF92E00E941D0660E080EC0E94470560
:103D20008091A5038F938091A4038F938091A30327
:103D30008F938091A2038F9389E193E09F938F9358
:103D400080EB93E09F938F930E940A2A80EB93E08D
:103D50000E941D062DB73EB7285F3F4F0FB6F8945F
:103D60003EBF0FBE2DBF20E030E040E251E4609145
:103D7000A2037091A3038091A4039091A5030E94D4
:103D80006E28181644F41092A2031092A303109206
:103D9000A4031092A5031B9974C08091CD038111D7
:103DA00070C041E060E070E880E090E00E944E1456
:103DB00020E030E040E05FE36091A2037091A30354
:103DC0008091A4039091A5030E94A3266B017C011E
:103DD00020E030E040E251E40E946E2818164CF0DA
:103DE000C092A203D092A303E092A403F092A50391
:103DF00008C01092A2031092A3031092A403109281
:103E0000A50381E08093CD036091A2037091A30389
:103E10008091A4039091A5030E948627262F60938A
:103E2000F2037093F303862F972F880F991FAC012D
:103E3000440F551F440F551F840F951F6AE070E013
:103E40000E942E269093C3038093C203622F85E1C4
:103E500090E00E947E046091C20386E190E00E949F
:103E60007E043FEF89EF90E0315080409040E1F7D1
:103E700000C0000040E060E070E880E090E00E9458
:103E80004E141B9B1AC08091CD038130B1F4109267
:103E9000CD0341E060E070E880E090E00E944E14C5
:103EA0008FE39CE90197F1F700C0000040E060E07B
:103EB00070E880E090E00E944E141C9956C08091FA
:103EC0008E05811152C041E060E070E880E090E032
:103ED0000E944E1420E030E040E05FE36091A203D6
:103EE0007091A3038091A4039091A5030E94A22640
:103EF0006B017C0120E030E0A9010E940F2788239C
:103F00004CF0C092A203D092A303E092A403F092DB
:103F1000A5030CC080E090E0A0E2B1E48093A2038E
:103F20009093A303A093A403B093A50381E080938F
:103F30008E056091F20385E190E00E947E0460911D
:103F4000C20386E190E00E947E049FEF29EF30E0FB
:103F5000915020403040E1F700C0000040E060E0B8
:103F600070E880E090E00E944E141C9B1AC0809183
:103F70008E058130B1F441E060E070E880E090E0CF
:103F80000E944E1410928E058FE39CE90197F1F781
:103F900000C0000040E060E070E880E090E00E9437
:103FA0004E1480919E05893009F003C180912E0442
:103FB00090912F04803891057CF560E080E80E94A4
:103FC00047058CE293E00E941D0660E080EC0E94B1
:103FD00047058CE092E00E941D0660E08CEC0E9498
:103FE000470580912E0490912F046AE070E00E94B2
:103FF0002E26CB0162E00E94340660E08EEC0E9427
:10400000470580912E0490912F0464E670E00E9491
:104010002E2661E00E94340680912E0490912F0498
:104020008038910581F460E080E80E9447058DE3C7
:1040300093E00E941D0660E080EC0E9447058EE43C
:1040400093E00E941D061B993DC08091CD03811114
:1040500039C041E060E070E880E090E00E944E14DA
:1040600080912E0490912F04019690932F048093B9
:104070002E04813891052CF010922F0410922E04FA
:1040800008C0992334F48FE790E090932F04809335
:104090002E0481E08093CD0360912E0480E190E0B6
:1040A0000E947E049FEF29EF30E091502040304085
:1040B000E1F700C0000040E060E070E880E090E0E0
:1040C0000E944E141B9B1AC08091CD038130B1F425
:1040D0001092CD0341E060E070E880E090E00E9443
:1040E0004E148FE39CE90197F1F700C0000040E017
:1040F00060E070E880E090E00E944E141C993DC0A2
:104100008091CD03811139C041E060E070E880E02A
:1041100090E00E944E1480912E0490912F040197FC
:1041200090932F0480932E04813891052CF01092E7
:104130002F0410922E0408C0992334F48FE790E0E6
:1041400090932F0480932E0481E08093CD0360919F
:104150002E0480E190E00E947E049FEF29EF30E082
:10416000915020403040E1F700C0000040E060E0A6
:1041700070E880E090E00E944E141C9B1AC0809171
:10418000CD038130B1F41092CD0341E060E070E8DE
:1041900080E090E00E944E148FE39CE90197F1F7D4
:1041A00000C0000040E060E070E880E090E00E9425
:1041B0004E1480919E058A3009F0F7C060E080E8D7
:1041C0000E9447058FE593E00E941D061C9909C0D7
:1041D0008091CD038111E2C081E08093CD030E94E4
:1041E000CE131B9961C08091CD0381115DC0809178
:1041F000880590918905909303048093020441E01F
:1042000060E070E880E090E00E944E1441E060E4DD
:1042100070E080E090E00E944E1441E060E870E0C1
:1042200080E090E00E944E1441E060E071E080E0A8
:1042300090E00E944E1441E060E074E080E090E085
:104240000E944E1441E060E078E080E090E00E943F
:104250004E1441E060E072E080E090E00E944E1475
:1042600041E060E070E280E090E00E944E1441E0A6
:1042700060E070E480E090E00E944E1441E060E075
:1042800070E180E090E00E944E149FEF23ED30E358
:10429000915020403040E1F700C0000081E0809361
:1042A000CD031B9908C081C01B9B7FC08091CD03AB
:1042B000813009F07AC0809188059091890520911C
:1042C000020430910304821B930B90938C03809320
:1042D0008B03813797410CF468C041E060E070E8DF
:1042E00080E090E00E944E148FE39CE90197F1F783
:1042F00000C0000040E060E470E080E090E00E94D8
:104300004E1440E060E870E080E090E00E944E14BF
:1043100040E060E071E080E090E00E944E1440E0F8
:1043200060E074E080E090E00E944E1440E060E0C5
:1043300078E080E090E00E944E1440E060E072E09F
:1043400080E090E00E944E1440E060E070E280E087
:1043500090E00E944E1440E060E070E480E090E065
:104360000E944E1440E060E070E180E090E00E9426
:104370004E1440E060E070E880E090E00E944E144F
:104380001092CD0312C01D9902C00C9407160C9414
:10439000161683B10C94161683B127C983B184CF46
:1043A0001D9902C00C940116F4CFFF90EF90DF909E
:1043B000CF9008950F931F93CF93DF9360E080EC2D
:1043C0000E94470580E793E00E941D066091450426
:1043D000709146047250072E000C880B990B0E94B6
:1043E000BE272EEE34E045EB5FE30E94142721EE5A
:1043F0003AE744E95FE30E9473280E94862770939E
:1044000098056093970560E081EC0E9447058091D4
:104410009705909198050AE010E0B8010E942E26B9
:10442000CB0162E00E94340660E083EC0E94470505
:104430008091970590919805C4E6D0E0BE010E9456
:104440002E2661E00E9434060E94F80060E084ECB1
:104450000E94470582E793E00E941D066091CB030E
:104460007091CC037250072E000C880B990B0E94A0
:10447000BE272EEE34E045EB5FE30E94142721EEC9
:104480003AE744E95FE30E9473280E94862770930D
:1044900001046093000460E087EC0E94470580916E
:1044A000000490910104B8010E942E26CB0162E025
:1044B0000E94340660E089EC0E9447058091000468
:1044C00090910104BE010E942E2661E00E943406F4
:1044D0000E94F80060E08AEC0E94470586E793E0BE
:1044E0000E941D0660913004709131047250072EB5
:1044F000000C880B990B0E94BE272EEE34E045EB92
:104500005FE30E94142721EE3AE744E95FE30E944B
:1045100073280E9486277093C1036093C00360E0F4
:104520008DEC0E9447058091C0039091C103B801B2
:104530000E942E26CB0162E00E94340660E08FECE0
:104540000E9447058091C0039091C103BE010E9463
:104550002E2661E00E943406DF91CF911F910F91CA
:104560000895A0E1B0E0E7EBF2E20C9457267C015D
:104570001B016A01FC0117821682838181FF44C3FB
:104580009E012F5F3F4F3901F7019381F10193FDA8
:10459000859193FF81911F01882309F431C38532EE
:1045A00039F493FD859193FF81911F01853239F490
:1045B000B70190E00E94CE2956016501E5CF10E0D9
:1045C000512C912CFFE1F915D8F08B3279F038F4A9
:1045D000803279F08332A1F4F92DF0612EC08D3252
:1045E00061F0803369F4292D21602DC0392D3260AE
:1045F000932E892D8460982E2AC0E92DE86015C07D
:1046000097FC2DC020ED280F2A3088F496FE06C0B6
:104610003AE0139F200D1124122F19C08AE0589EF2
:10462000200D1124522EE92DE0629E2E10C08E32F4
:1046300031F496FCE5C2F92DF0649F2E08C08C364B
:1046400021F4292D2068922E02C0883641F4F10110
:1046500093FD859193FF81911F018111B3CF9BEB56
:10466000980F933020F4992D9061805E07C09BE9EC
:10467000980F933008F066C1992D9F7E96FF16E043
:104680009F73992E853619F49064992E08C086364A
:1046900021F4392F3068932E02C01111115097FE6A
:1046A00007C01C3350F444244394410E27E00BC050
:1046B000183038F027E017E005C027E09CE3492ECA
:1046C00002C0212F412C560184E0A80EB11CF60136
:1046D0006081718182819381042DA3010E94E02871
:1046E0006C01F981FC87F0FF02C0F3FF06C091FC6A
:1046F00006C092FE06C000E205C00DE203C00BE258
:1047000001C000E08C858C7019F001115AC29BC267
:1047100097FE10C04C0CFC85F4FF04C08A818133E5
:1047200009F44A94141474F528E0241578F588E007
:10473000482E2CC096FC2AC0812F90E08C159D0538
:104740009CF03CEFC3163FEFD30674F0892D8068D0
:10475000982E0AC0E2E0F0E0EC0FFD1FE10FF11D22
:104760008081803319F411501111F4CF97FE0EC0DF
:1047700044244394410E812F90E0C816D9062CF4AE
:104780001C1904C04424439401C010E097FE06C0E5
:104790001C141D0434F4C601019605C085E090E0A8
:1047A00002C081E090E001110196112331F0212F28
:1047B00030E02F5F3F4F820F931F252D30E082178F
:1047C000930714F4581A01C0512C892D897049F4AB
:1047D000552039F0B70180E290E00E94CE295A942A
:1047E000F7CF002329F0B701802F90E00E94CE2957
:1047F00093FC09C0552039F0B70180E390E00E9496
:10480000CE295A94F7CF97FE4CC04601D7FE02C07E
:10481000812C912CC60188199909F301E80FF91F21
:10482000FE87ED87960124193109388B2F87012FD8
:1048300010E01195019511093FEF8316930629F4B5
:10484000B7018EE290E00E94CE29C814D9044CF042
:104850008F8598898815990524F4ED85FE858181D9
:1048600001C080E3F1E08F1A91082D853E852F5F0E
:104870003F4F3E872D87801691062CF0B70190E0C0
:104880000E94CE29D9CFC814D90441F49A81963315
:1048900020F4953319F43C8534FF81E3B70190E0AF
:1048A0004EC08A81813319F09C859F7E9C87B70119
:1048B00090E00E94CE29111105C094FC18C085E635
:1048C00090E017C0B7018EE290E00E94CE291E5FF3
:1048D00082E001E0080FF301E80FF11D8081B701CC
:1048E00090E00E94CE29802F0113F3CFE6CF85E41C
:1048F00090E0B7010E94CE29D7FC06C0C114D104B4
:1049000041F4EC85E4FF05C0D194C194D1088DE257
:1049100001C08BE2B70190E00E94CE2980E32AE03B
:10492000C216D1042CF08F5FFAE0CF1AD108F7CF6E
:10493000B70190E00E94CE29B701C601C0960E943F
:10494000CE2954C1833631F0833779F0833509F0AD
:1049500056C020C0560132E0A30EB11CF601808182
:10496000898301E010E0630112C05601F2E0AF0E4E
:10497000B11CF601C080D18096FE03C0612F70E0AB
:1049800002C06FEF7FEFC6010E94C3298C01F92D91
:10499000FF7714C0560122E0A20EB11CF601C080C0
:1049A000D18096FE03C0612F70E002C06FEF7FEFF1
:1049B000C6010E94B8298C01F92DF0689F2EF3FDE5
:1049C0001AC0852D90E008171907A8F4B70180E2F6
:1049D00090E00E94CE295A94F4CFF60197FC85917D
:1049E00097FE81916F01B70190E00E94CE2951108E
:1049F0005A94015011090115110579F7F7C0843651
:104A000011F0893661F5560197FE09C024E0A20E27
:104A1000B11CF60160817181828193810AC0F2E04C
:104A2000AF0EB11CF60160817181072E000C880B5E
:104A3000990BF92DFF769F2E97FF09C090958095D1
:104A4000709561957F4F8F4F9F4FF0689F2E2AE0A2
:104A500030E0A3010E942C2AC82EC6183FC0092DA1
:104A6000853721F40F7E2AE030E01DC0097F8F36A4
:104A700091F018F4883559F0C3C0803719F08837A1
:104A800011F0BEC0006104FF09C0046007C094FEBD
:104A900008C0066006C028E030E005C020E130E034
:104AA00002C020E132E0560107FF09C084E0A80EF1
:104AB000B11CF601608171818281938108C0F2E0AE
:104AC000AF0EB11CF6016081718180E090E0A3011E
:104AD0000E942C2AC82EC6180F77902E96FE0BC067
:104AE000092D0E7FC11650F494FE0AC092FC08C036
:104AF000092D0E7E05C0DC2C092D03C0DC2C01C065
:104B0000D12E04FF0DC0FE01EC0DF11D808180331C
:104B100011F4097E09C002FF06C0D394D39404C0E7
:104B2000802F867809F0D39403FD11C000FF06C0E2
:104B30001C2DD51480F4150D1D190DC0D51458F475
:104B4000B70180E290E00E94CE29D394F7CFD5142C
:104B500010F45D1801C0512C04FF10C0B70180E3B0
:104B600090E00E94CE2902FF17C001FD03C088E734
:104B700090E002C088E590E0B7010CC0802F8678F5
:104B800059F001FF02C08BE201C080E207FD8DE217
:104B9000B70190E00E94CE29C11638F4B70180E336
:104BA00090E00E94CE291150F7CFCA94F301EC0D8A
:104BB000F11D8081B70190E00E94CE29C110F5CF90
:104BC00015C0F4E0F51560F584E0581A93FE1FC097
:104BD000011127C02C8523FF2AC004E810E0392DDD
:104BE0003071932EF8018491811124C0552009F46D
:104BF000E4CCB70180E290E00E94CE295A94F6CF2F
:104C0000F7018681978126C08FEF9FEF23C0B70100
:104C100080E290E00E94CE295A945110F8CFD8CF6C
:104C2000512CB701802F90E00E94CE29D3CF08E805
:104C300010E0D5CF91108052B70190E00E94CE29AC
:104C40000F5F1F4FCFCF23E0251510F483E0BDCFBA
:104C5000512CC0CF6096E2E10C94732697FB072E8F
:104C600016F4009407D077FD09D00E948E2607FC29
:104C700005D03EF4909581959F4F0895709561956C
:104C80007F4F0895EE0FFF1F0590F491E02D0994DA
:104C9000A29FB001B39FC001A39F700D811D11247D
:104CA000911DB29F700D811D1124911D08952F92A9
:104CB0003F924F925F926F927F928F929F92AF92AC
:104CC000BF92CF92DF92EF92FF920F931F93CF93F9
:104CD000DF93CDB7DEB7CA1BDB0B0FB6F894DEBF90
:104CE0000FBECDBF09942A88398848885F846E84B6
:104CF0007D848C849B84AA84B984C884DF80EE8000
:104D0000FD800C811B81AA81B981CE0FD11D0FB608
:104D1000F894DEBF0FBECDBFED010895AA1BBB1BEB
:104D200051E107C0AA1FBB1FA617B70710F0A61BAB
:104D3000B70B881F991F5A95A9F780959095BC01CC
:104D4000CD0108955058BB27AA270E94BA260C947B
:104D500034280E94262838F00E942D2820F039F4AB
:104D60009F3F19F426F40C9423280EF4E095E7FBFA
:104D70000C941D28E92F0E94452858F3BA176207A2
:104D800073078407950720F079F4A6F50C9467283B
:104D90000EF4E0950B2EBA2FA02D0B01B901900156
:104DA0000C01CA01A0011124FF27591B99F0593F9A
:104DB00050F4503E68F11A16F040A22F232F342FE2
:104DC0004427585FF3CF469537952795A795F04030
:104DD0005395C9F77EF41F16BA0B620B730B840B45
:104DE000BAF09150A1F0FF0FBB1F661F771F881FFD
:104DF000C2F70EC0BA0F621F731F841F48F4879555
:104E000077956795B795F7959E3F08F0B0CF939546
:104E1000880F08F09927EE0F9795879508950E94BF
:104E2000F92708F481E008950E9428270C9434287B
:104E30000E942D2858F00E94262840F029F45F3F58
:104E400029F00C941D2851110C9468280C942328E7
:104E50000E94452868F39923B1F3552391F3951BDC
:104E6000550BBB27AA2762177307840738F09F5F8B
:104E70005F4F220F331F441FAA1FA9F335D00E2EF8
:104E80003AF0E0E832D091505040E695001CCAF765
:104E90002BD0FE2F29D0660F771F881FBB1F261728
:104EA00037074807AB07B0E809F0BB0B802DBF01FF
:104EB000FF2793585F4F3AF09E3F510578F00C94CE
:104EC0001D280C9468285F3FE4F3983ED4F3869540
:104ED00077956795B795F7959F5FC9F7880F911DEF
:104EE0009695879597F90895E1E0660F771F881FDB
:104EF000BB1F621773078407BA0720F0621B730B8E
:104F0000840BBA0BEE1F88F7E09508950E948D2759
:104F10006894B1110C94682808950E944D2888F077
:104F20009F5798F0B92F9927B751B0F0E1F0660F6D
:104F3000771F881F991F1AF0BA95C9F714C0B130AE
:104F400091F00E946728B1E008950C946728672FBC
:104F5000782F8827B85F39F0B93FCCF386957795DD
:104F60006795B395D9F73EF49095809570956195C6
:104F70007F4F8F4F9F4F0895E89409C097FB3EF4F1
:104F800090958095709561957F4F8F4F9F4F992396
:104F9000A9F0F92F96E9BB279395F6958795779514
:104FA0006795B795F111F8CFFAF4BB0F11F460FFD4
:104FB0001BC06F5F7F4F8F4F9F4F16C0882311F02C
:104FC00096E911C0772321F09EE8872F762F05C040
:104FD000662371F096E8862F70E060E02AF09A95DB
:104FE000660F771F881FDAF7880F9695879597F9D0
:104FF0000895990F0008550FAA0BE0E8FEEF16166A
:105000001706E807F907C0F012161306E407F507BC
:1050100098F0621B730B840B950B39F40A2661F030
:10502000232B242B252B21F408950A2609F4A140D3
:10503000A6958FEF811D811D089597F99F6780E8E0
:1050400070E060E008959FEF80EC089500240A94DA
:105050001616170618060906089500240A94121653
:105060001306140605060895092E0394000C11F486
:10507000882352F0BB0F40F4BF2B11F460FF04C033
:105080006F5F7F4F8F4F9F4F089557FD9058440F8C
:10509000551F59F05F3F71F04795880F97FB991F97
:1050A00061F09F3F79F08795089512161306140654
:1050B000551FF2CF4695F1DF08C0161617061806E1
:1050C000991FF1CF86957105610508940895E894BC
:1050D000BB2766277727CB0197F908950E94F92708
:1050E00008F48FEF08950E9486280C9434280E94BB
:1050F000262838F00E942D2820F0952311F00C94DA
:105100001D280C94232811240C9468280E944528FB
:1051100070F3959FC1F3950F50E0551F629FF0010A
:10512000729FBB27F00DB11D639FAA27F00DB11D23
:10513000AA1F649F6627B00DA11D661F829F2227AC
:10514000B00DA11D621F739FB00DA11D621F839F33
:10515000A00D611D221F749F3327A00D611D231F09
:10516000849F600D211D822F762F6A2F11249F5757
:1051700050409AF0F1F088234AF0EE0FFF1FBB1F5A
:10518000661F771F881F91505040A9F79E3F510519
:1051900080F00C941D280C9468285F3FE4F3983E3F
:1051A000D4F3869577956795B795F795E7959F5FC3
:1051B000C1F7FE2B880F911D9695879597F9089555
:1051C000283008F027E03327DA01990F311D87FDD9
:1051D000916000966105710539F432602E5F3D9350
:1051E00030E32A95E1F708959F3F30F0803871054C
:1051F000610509F03C5F3C5F3D93913008F08068A9
:10520000911DDF93CF931F930F93FF92EF92192F6E
:10521000987F9695E92F96959695E90FFF27EA5185
:10522000FF4F99273327EE24FF24A701E7010590BC
:105230000894079428F4360FE71EF81E491F511DE5
:10524000660F771F881F991F0694A1F70590079492
:1052500028F4E70EF81E491F561FC11D770F881F3F
:10526000991F661F0694A1F70590079428F4F80E7D
:10527000491F561FC71FD11D880F991F661F771F13
:105280000694A1F70590079420F4490F561FC71FF5
:10529000D81F990F661F771F881F0694A9F784915E
:1052A0001095177041F0D695C79557954795F79487
:1052B000E7941A95C1F7ECE8F0E068941590159121
:1052C00035916591959105907FE27395E118F10A0A
:1052D000430B560BC90BD009C0F7E10CF11E431F5D
:1052E000561FC91FD01D7EF4703311F48A95E6CF86
:1052F000E894015030F0080F0AF40027021708F470
:10530000202F2395022F7A3328F079E37D932A9575
:10531000E9F710C07D932A9589F6069497956795CD
:10532000379517951794E118F10A430B560BC90BE3
:10533000D00998F023957E9173957A3308F070E345
:105340007C932013B8F77E9170617D9330F0839544
:1053500071E37D9370E32A95E1F71124EF90FF90BC
:105360000F911F91CF91DF91992787FD9095089517
:10537000FC010590615070400110D8F78095909520
:105380008E0F9F1F0895FC01615070400190011025
:10539000D8F7809590958E0F9F1F08950F931F93B8
:1053A000CF93DF93FB01238121FD03C08FEF9FEF9C
:1053B0002CC022FF16C046815781248135814217B7
:1053C000530744F4A081B1819D012F5F3F4F31838A
:1053D00020838C93268137812F5F3F4F378326832D
:1053E00014C08B01EC01FB010084F185E02D0995CF
:1053F000892BE1F6D80116968D919C91179701960D
:1054000017969C938E931697CE01DF91CF911F91A3
:105410000F910895AEE0B0E0E0E1FAE20C94652669
:105420000D891E8986E08C831A8309838FEF9FE79D
:105430009E838D83AE01475E5F4F6F89788DCE016D
:1054400001960E94B122EF81F885E00FF11F1082D2
:105450002E96E4E00C948126FA01AA27283051F117
:10546000203181F1E8946F936E7F6E5F7F4F8F4F95
:105470009F4FAF4FB1E03ED0B4E03CD0670F781FF4
:10548000891F9A1FA11D680F791F8A1F911DA11DD9
:105490006A0F711D811D911DA11D20D009F4689412
:1054A0003F912AE0269F11243019305D3193DEF6BA
:1054B000CF010895462F4770405D4193B3E00FD070
:1054C000C9F7F6CF462F4F70405D4A3318F0495D5B
:1054D00031FD4052419302D0A9F7EACFB4E0A6953E
:1054E0009795879577956795BA95C9F70097610560
:1054F000710508959B01AC010A2E069457954795B6
:1055000037952795BA95C9F7620F731F841F951FAA
:08551000A01D0895F894FFCFDF
:1055180005005061B26FBF6120B365BDBF2D7061DA
:105528002020004142544F2020205045A3A54D2063
:1055380020202000A87963BA20A441A85045E2A2FF
:105548004820202000546D70252E3166432F486D69
:10555800252E31662525202000A8B8BF61BDB86575
:1055680020424BA7B0AB45484F00A461BE7963BA4F
:10557800204F544BA7B0ABA2482020202020005039
:1055880079C0BD6FB9205045A3A54D20202020002B
:105598005079C0BD6FB920A8A9434B20B365BDBFE2
:1055A800002143B8B4BD61BB20A84FA341505F217F
:1055B800200041B36170B8C720BEB8BF61BDB8C78D
:1055C80020200041B36170B8C720B3786FE3612031
:1055D800414C200041B36170B8C720B3786FE361D4
:1055E800205053200041B36170B8C720333830428F
:1055F80020202020200041B36170B8C720BBB8BD6F
:10560800B8B8204448540041B36170B8C720BABB49
:1056180061BE61BD612020002020202020202020A4
:105628002020202020202020004FBFBABB6FBD655E
:10563800BDB8652820202056290061BCBEBBB8BF74
:1056480079E32C422B2F2D00427065BCC720B3C3D1
:10565800786FE3612020202000BD61207065B6B816
:10566800BC2C006365BA2E0054B8BE20E361BFC0ED
:10567800B8BA61202D5053002D4E4F2D6FBFBA7010
:10568800C3BF2D002D4E432DB761BCBABD79BF2DC8
:105698000054B8BE20E361BFC0B8BA61202D414CA8
:1056A800004D61BA63B8BC61BBC4BD61C72020208E
:1056B8002000BF65BC2D70612C43202020202020B5
:1056C800004B6FBDBF706FBBC4202020202020205E
:1056D8002000BF65BCBE2D70C320202020204F5461
:1056E8004BA700B3BB61B6BD6F63BFC420202020A9
:1056F8002500B3BB61B6BD6F63BFB82020204F54EF
:105708004BA700A1B863BF657065B7B863202020B8
:1057180020202000546D702B2F2D202020252E3185
:10572800664320202020202000486D2B2F2D20208C
:10573800252E3166252520202020200053797374DA
:10574800656D5F616472657320202020004164727A
:105758006573732064697361626C65202000202082
:105768002020202020204F544BA720202020002D2F
:10577800544553542D544553542D544553542D00DA
:0A57880055005F5F56005F5F570099
:040000030000279C36
:00000001FF
