:100000000C94C3000C94E0000C94E0000C94E0000D
:100010000C94E0000C94E0000C94E0000C945C085C
:100020000C94E0000C94E0000C94E0000C9489081F
:100030000C94E0000C94E0000C94E0000C94E000C0
:100040000C94E0000C94E0000C94E0000C94E000B0
:100050000C94E0000C94E0000C94E0000C94E000A0
:100060000C94E0000C94E000F90C040D0F0D1A0D37
:10007000250D300D3B0DFF0D0A0E150E200E2B0E1B
:10008000360E410E6E616E00696E660000407A1099
:10009000F35A00A0724E18090010A5D4E80000E839
:1000A0007648170000E40B54020000CA9A3B000097
:1000B00000E1F505000080969800000040420F0026
:1000C0000000A08601000000102700000000E803E7
:1000D000000000006400000000000A0000000000B2
:1000E0000100000000002C76D888DC674F0823DF71
:1000F000C1DFAE59E1B1B796E5E3E453C63AE65144
:10010000997696E8E6C28426EB898C9B62ED407C6A
:100110006FFCEFBC9C9F40F2BAA56FA5F490055A06
:100120002AF75C936B6CF9676DC11BFCE0E40D472B
:10013000FEF520E6B500D0ED902E0300943577054E
:100140000080841E080000204E0A000000C80C3306
:100150003333330F986E12831141EF8D2114893B95
:10016000E65516CFFEE6DB18D1844B381BF77C1D15
:10017000901DA4BBE424203284725E228100C9F168
:1001800024ECA1E53D2711241FBECFEFD8E0DEBF50
:10019000CDBF13E0A0E0B1E0E8E1F3E502C00590D7
:1001A0000D92AA37B107D9F725E0AAE7B3E001C05D
:1001B0001D92AF38B207E1F70E94A0080C948A297B
:1001C0000C94000080937C00EAE7F0E0808180647A
:1001D0008083808186FDFDCFE8E7F0E0808120917B
:1001E000790090E0922B91838083808191810895A2
:1001F0000F931F93CF93DF93109236041092350420
:100200001092C5031092C40310922304109222048A
:10021000C5E9D0E000E012E083E00E94E2009093A4
:10022000800580937F052091350430913604821734
:1002300093076CF0811522E092072CF0909336041E
:100240008093350404C0109336040093350487E08E
:100250000E94E2009093A6038093A5032091C4031B
:100260003091C503821793076CF0811522E0920745
:100270002CF09093C5038093C40304C01093C5036E
:100280000093C40386E00E94E2009093C803809329
:10029000C7032091220430912304821793076CF046
:1002A000811522E092072CF090932304809322047E
:1002B00004C01093230400932204219709F0ACCFCB
:1002C0008091350490913604DF91CF911F910F9169
:1002D0000895CF92DF92EF92FF92CF93C0902504C2
:1002E000D0902604E0902704F090280420E030E02D
:1002F00040E752E4C701B6010E940F2618160CF41D
:1003000056C020E030E040E251ECC701B6010E9447
:100310006E2788230CF44BC02091FD033091FE031F
:100320004091FF0350910004C701B6010E940F26BF
:10033000181684F080917B0381110CC0C1E0C0933A
:100340007B0341E060E070E280E090E00E94831374
:10035000C093940320917A0530917B0540917C05F0
:1003600050917D05609125047091260480912704A9
:10037000909128040E94A2252091FD033091FE0354
:100380004091FF03509100040E946E2788237CF067
:1003900080917B03813059F410927B0340E060E050
:1003A00070E280E090E00E94831310929403C0906A
:1003B000E903D090EA03E090EB03F090EC0320E037
:1003C00030E046EC52E4C701B6010E940F26181631
:1003D0000CF44BC02091F9033091FA034091FB03D8
:1003E0005091FC03C701B6010E940F26181684F035
:1003F00080917A0381110CC0C1E0C0937A0341E07F
:1004000060E070E480E090E00E948313C0933004C9
:1004100020919B0330919C0340919D0350919E033A
:100420006091E9037091EA038091EB039091EC03F2
:100430000E94A2252091F9033091FA034091FB0319
:100440005091FC030E946E2788237CF080917A03F0
:10045000813059F410927A0340E060E070E480E06B
:1004600090E00E94831310923004CF91FF90EF90A0
:10047000DF90CF90089541E060E071E080E090E08F
:100480000E9483130E94BF0C80918203811138C0A7
:10049000809119048111B8C080919403813029F0B2
:1004A00090913004913009F0A1C041E060E870E023
:1004B00080E090E00E94831360E080E80E944305A2
:1004C00082E091E00E94190681E080937D03809193
:1004D0009403811115C08091300481118AC040E0DD
:1004E00060E870E080E090E00E94831360E080E8C4
:1004F0000E94430583E191E00E94190610927D035A
:1005000080918203823021F080911904813081F53D
:1005100080919403813021F080913004813041F446
:1005200060E080E80E94430584E291E00E941906A1
:1005300080919403811115C080913004811111C004
:1005400040E060E870E080E090E00E94831360E0AB
:1005500080E80E94430583E191E00E941906109211
:100560007D0340E060E870E080E090E00E9483134B
:1005700080918203813099F580919403813021F03C
:1005800080913004813091F441E060E870E080E0D7
:1005900090E00E94831360E080E80E94430582E0BF
:1005A00091E00E94190681E080937D03809194037D
:1005B000811115C080913004811111C040E060E8C4
:1005C00070E080E090E00E94831360E080E80E9489
:1005D000430583E191E00E94190610927D038FE3A9
:1005E0009CE90197F1F700C000000895882339F0D5
:1005F000BFCF80918203823009F48ECF85CF809166
:100600003004811181CF6BCF80911904813039F78B
:100610007FCFCF93DF93579A5F982FEF80EE90E0D4
:10062000215080409040E1F700C000005F9A579849
:1006300087EC90E00197F1F700C000004F9931C0BE
:100640008FE391E00197F1F700C000004F9B2CC0B1
:100650004F99FECFADE0B4E0C2E1D4E061E070E0DC
:10066000FD011C9287E090E04F9BFECF2AE82A957F
:10067000F1F700C04F9B0AC040819B01082E02C0C9
:10068000220F331F0A94E2F7242B20834F99FECFC9
:10069000019750F71196CA17DB0711F781E090E038
:1006A00005C080E090E002C080E090E0DF91CF9153
:1006B00008958F929F92AF92BF92CF92DF92EF9266
:1006C000FF920F931F93CF93DF9310928D030E949D
:1006D0000903C82F80938D03813009F08BC01092DD
:1006E000EE031092ED03EDE0F4E0008110E0E18014
:1006F000F12CD281C380D12CC8018E0D9F1D8D0F8E
:10070000911D8C0D9D1D90932F0480932E046D2FB1
:100710006F7770E080E090E00E94BE262DEC3CEC0C
:100720004CEC51E40E9473274B015C01B601DD0CD7
:10073000880B990B0E94BE262DEC3CEC4CEC5DE343
:100740000E9473279B01AC01C501B4010E94A3253F
:100750004B015C016093FD037093FE038093FF03E4
:10076000909300040E94862670938F0360938E03FB
:10077000DD239CF4B7FAB094B7F8B0948092FD03EF
:100780009092FE03A092FF03B092000471956195D0
:10079000710970938F0360938E03B701FF0C880B70
:1007A000990B0E94BE262DEC3CEC4CEC5DE30E94C4
:1007B00073276B017C01B801110F880B990B0E9404
:1007C000BE262DEC3CEC4CEC51E40E9473279B01BF
:1007D000AC01C701B6010E94A3256093F903709391
:1007E000FA038093FB039093FC038091ED039091B7
:1007F000EE031EC0811109C08091ED039091EE03BC
:1008000001969093EE038093ED038091ED03909118
:10081000EE038536910564F084E690E09093EE0354
:100820008093ED0381E080938405C130F1F408C02A
:100830008436910514F410928405C13041F402C04D
:1008400084E690E001979093EE038093ED0380910E
:10085000ED039091EE03049744F41092840588E030
:1008600090E09093EE038093ED03DF91CF911F9181
:100870000F91FF90EF90DF90CF90BF90AF909F903F
:100880008F9008950E94590360E080EC0E94430518
:100890008091FC038F938091FB038F938091FA03E7
:1008A0008F938091F9038F93809100048F938091AF
:1008B000FF038F938091FE038F938091FD038F93AD
:1008C00085E391E09F938F9389EA93E09F938F93C1
:1008D0000E940A2989EA93E00E9419068DB79EB703
:1008E0000C960FB6F8949EBF0FBE8DBF0895F99970
:1008F000FECF92BD81BD60BDFA9AF99A0895F9992B
:10090000FECF92BD81BDF89A80B5089580E00E9427
:10091000E20090938403809383039C012E54324021
:100920002F36310538F440918503413019F442E007
:1009300040938203805991408D3B9105E8F44091AA
:100940008503411115C042E04093820311C080919C
:100950008503813019F41092820308952F363105F2
:10096000B8F480918503811113C010928203089519
:100970008F35914028F4EBCF8F35914078F304C048
:1009800081E080938203E3CF81E080938203E6CF0E
:10099000089581E00E94E200909381038093800398
:1009A0008E5492408F36910568F480918603813091
:1009B00049F480937F0341E060E074E080E090E0E0
:1009C0000E9483138091800390918103805991400C
:1009D0008D3B910508F052C02091860321114AC039
:1009E00081E080937F0341E060E074E080E090E08C
:1009F0000E948313809180039091810380599140DC
:100A00008F35914050F082E080937F0341E060E0B9
:100A100078E080E090E00E948313809180039091C1
:100A20008103805991408D3B910568F48091860344
:100A3000813049F410927F0340E060E074E080E090
:100A400090E00E94831380918003909181038E54E3
:100A500092408F369105B0F480918603811112C0C7
:100A600010927F0340E060E074E080E090E00E943C
:100A7000831308958F359140C8F2C5CF8F359140CB
:100A800010F3C1CF0895CF93C82F613041F441E0F6
:100A900061E070E080E090E00E94831307C040E0D6
:100AA00061E070E080E090E00E94831341E062E04A
:100AB00070E080E090E00E948313C4FF08C041E032
:100AC00064E070E080E090E00E94831307C040E0A3
:100AD00064E070E080E090E00E948313C5FF08C0EE
:100AE00041E068E070E080E090E00E94831307C07E
:100AF00040E068E070E080E090E00E948313C6FF71
:100B000008C041E060E170E080E090E00E94831363
:100B100007C040E060E170E080E090E00E94831355
:100B2000CC2344F441E060E270E080E090E00E9479
:100B3000831307C040E060E270E080E090E00E9434
:100B4000831340E062E070E080E090E00E94831355
:100B50008FE39FE10197F1F700C0000041E062E000
:100B600070E080E090E00E948313C0FF08C041E085
:100B700064E070E080E090E00E94831307C040E0F2
:100B800064E070E080E090E00E948313C1FF08C041
:100B900041E068E070E080E090E00E94831307C0CD
:100BA00040E068E070E080E090E00E948313C2FFC4
:100BB00008C041E060E170E080E090E00E948313B3
:100BC00007C040E060E170E080E090E00E948313A5
:100BD000C3FF08C041E060E270E080E090E00E9466
:100BE000831307C040E060E270E080E090E00E9484
:100BF000831340E062E070E080E090E00E948313A5
:100C00008FE39FE10197F1F700C00000CF910895B5
:100C100060E082E00E94430560E088E20E944305B4
:100C200060E08CE00E94430560E081E00E944305A3
:100C300008950F931F93CF93FC018081882361F067
:100C40008F01C0E0CF5F61E00E944305F801EC0F27
:100C5000F11D80818111F6CFCF911F910F910895E1
:100C6000CF93DF93EC01623009F449C020F4613086
:100C700009F46DC08AC06330C1F0643009F085C0EA
:100C80009C01369527953695279536952795A5ECA1
:100C9000B0E20E944825929582958F7089279F70B7
:100CA000892761E0805D0E9443059E013695279566
:100CB00036952795ABE7B4E10E944825AC015695DF
:100CC00047959A01ADECBCEC0E9448259695879516
:100CD00096958795969587959C01220F331F880FCF
:100CE000991F880F991F880F991F820F931F9A01D0
:100CF000281B390BC90161E0805D0E9443059E01FC
:100D0000ADECBCEC0E944825AC0156954795569534
:100D10004795569547959A010E944825969587953F
:100D200096958795969587959C01220F331F880F7E
:100D3000991F880F991F880F991F820F931F9A017F
:100D4000281B390BC90161E0805D0E9443059E01AB
:100D5000ADECBCEC0E9448259695879596958795B5
:100D6000969587959C01220F331F880F991F880F36
:100D7000991F880F991F820F931F9E01281B390B03
:100D8000C90161E0805D0E944305DF91CF91089524
:100D90001092290410920304109205048091BE035E
:100DA0009091BF0301969093BF038093BE0360911F
:100DB0002204709123047250072E000C880B990BAB
:100DC0000E94BE262EEE34E045EB5FE30E9414261F
:100DD00021EE3AE744E95FE30E9473270E948626EA
:100DE000AB017093090460930804209100013091D5
:100DF000010181EE90E0821B930B481759072CF0FC
:100E00002F513F4F241735074CF58091780590916D
:100E1000790520912A0430912B04821B930B8D3489
:100E20009D41A4F440E060E470E080E090E00E9426
:100E30008313809178059091790520912A0430914F
:100E40002B04821B930B8D349D41ECF041E060E458
:100E500070E080E090E00E94831315C081E08093F1
:100E600029048093030480910A0490910B04019655
:100E700090930B0480930A0441E060E470E080E00A
:100E800090E00E94831381E0809303042091BE03CD
:100E90003091BF0340910A0450910B0464E6649FB3
:100EA000C001659F900D1124B9010E942E257093F9
:100EB000CC036093CB032436310541F41092BF0379
:100EC0001092BE0310920B0410920A0480917805D0
:100ED0009091790520912A0430912B04AC01421B9A
:100EE000530B9A0128393A4324F090932B048093B2
:100EF0002A04089580918203823021F09091190490
:100F0000913039F421E030E03093410420934004E3
:100F100004C010924104109240042091A303309128
:100F2000A403232B39F421E030E0309343042093D1
:100F3000420404C01092430410924204813039F4F8
:100F400081E090E0909345048093440404C01092A3
:100F500045041092440480917F03823039F421E0EB
:100F600030E0309347042093460404C010924704B5
:100F70001092460490910304911107C021E030E0E3
:100F8000309349042093480404C0109249041092FD
:100F9000480490918405913039F421E030E0309399
:100FA0004B0420934A0404C010924B0410924A044C
:100FB00090919A03913039F421E030E030934D0460
:100FC00020934C0404C010924D0410924C04909154
:100FD0000C04913039F421E030E030935104209337
:100FE000500404C01092510410925004833038F021
:100FF00081E090E0909353048093520404C01092D7
:1010000053041092520480913E0490913F048997BA
:1010100024F010924B0410924A048091A103909105
:10102000A20389970CF440C010924D0410924C0416
:101030003BC090813296890FE217F307D1F7809376
:10104000050481110BC040E060E078E080E090E0B2
:101050000E94831380910504882339F041E060E009
:1010600078E080E090E00E948313809182038230D8
:1010700021F080911904813039F441E060E072E0A0
:1010800080E090E00E94831380918203811113C05D
:101090008091190481110FC040E060E072E080E0AF
:1010A00090E00E948313089580910504E2E4F4E047
:1010B00024E534E0BECF08951F920F920FB60F9231
:1010C00011242F933F934F935F936F937F938F934D
:1010D0009F93AF93BF93EF93FF9380917805909187
:1010E0007905019690937905809378050E940E12F8
:1010F000FF91EF91BF91AF919F918F917F916F91F0
:101100005F914F913F912F910F900FBE0F901F90C5
:1011100018951F920F920FB60F9211248F939F93E1
:10112000809117049091180401969093180480936D
:1011300017049F918F910F900FBE0F901F901895DD
:1011400041E060E070E880E090E00E948313AAE74D
:10115000B0E08C9180688C93ECE7F0E080811082A5
:1011600080818064808380818F6D80838C91866094
:101170008C93EBE7F0E080818083EEE7F0E0808104
:101180008763808380B7806880BF80E287B992E000
:1011900094B988E185B98EEF8AB918B810928000A9
:1011A000E1E8F0E080818D608083109285001092EC
:1011B000840029E03DE330938900209388009093D8
:1011C0006F00E0EBF0E0808182608083E1EBF0E093
:1011D0008081826080831092B2008FEF8093B30091
:1011E000E0E7F0E08081826080832FEF83EC99E07C
:1011F000215080409040E1F700C000000E940806A6
:1012000060E081E00E94430560E080E80E944305C1
:1012100089E491E00E9419060E94C8060E94DA2023
:101220004E9A0E94DA201092810585E090E090931A
:10123000160480931504109218041092170483E08A
:1012400080938D051092F1031092C60310927E05D3
:101250001092A2031092A10310923F0410923E0438
:10126000109225041092260410922704109228044C
:101270001092E9031092EA031092EB031092EC0330
:101280001092A4031092A3031092F8031092F70394
:1012900010923A04109239041092EE031092ED036A
:1012A000109204041092BD0310920C0483E190E0AC
:1012B00090932104809320048DE990E09093F003B3
:1012C0008093EF0381E090E00E947F0480938D057E
:1012D00082E090E00E947F0490E090931604809357
:1012E000150483E090E00E947F0490E09093010158
:1012F0008093000186E090E00E947F04823018F421
:101300008093860303C081E08093860387E090E0AA
:101310000E947F04823018F48093850303C081E02B
:101320008093850388E090E00E947F0490E0909392
:10133000A2038093A1038B9734F089E290E090930D
:10134000A2038093A10389E090E00E947F0490E0D3
:1013500090933F0480933E048B9734F089E290E0B1
:1013600090933F0480933E0480E190E00E947F04CC
:1013700090E090932104809320048138910524F01B
:10138000109221041092200481E190E00E947F04D9
:10139000682F70E080E090E00E94BC2660932504F6
:1013A00070932604809327049093280420E030E073
:1013B00048E752E40E946E27181664F480E090E03B
:1013C000A4E7B2E48093250490932604A093270415
:1013D000B093280482E190E00E947F04682F70E0BF
:1013E00080E090E00E94BC266093E9037093EA03DA
:1013F0008093EB039093EC0320E030E048EC52E460
:101400000E946E27181664F480E090E0A8ECB2E425
:101410008093250490932604A0932704B093280476
:1014200083E190E00E947F0490E090938A0580938E
:10143000890584E190E00E947F0490E090939903F5
:101440008093980385E190E00E947F0490E0909360
:10145000E8038093E70386E190E00E947F04C82FB1
:10146000D0E0D093BC03C093BB036091980370910C
:101470009903072E000C880B990B0E94BE262DECB9
:101480003CEC4CEC5DE30E9473276B017C016091A6
:10149000890570918A05072E000C880B990B0E9414
:1014A000BE269B01AC01C701B6010E94A325609333
:1014B0007A0570937B0580937C0590937D05609100
:1014C000E7037091E803072E000C880B990B0E942C
:1014D000BE266B017C01BE01DD0F880B990B0E94BB
:1014E000BE262DEC3CEC4CEC5DE30E9473279B0187
:1014F000AC01C701B6010E94A32560939B037093C2
:101500009C0380939D0390939E0310928E0580E030
:101510000E94E200909384038093830381E00E9401
:10152000E20090938103809380030E94DA200E945E
:10153000C8060E947A077894109296031092950339
:1015400040E060E070E880E090E00E94831311E0EA
:10155000C1E0D0E00E94F8000E9486040E94C90405
:101560000E94C8060E94AD140E947A070E94690179
:1015700080918D05823009F4C5C01093E603209157
:10158000CB033091CC038091A1039091A203820FF1
:10159000931F84369105D4F440E060E470E080E06D
:1015A00090E00E9483131092A4031092A3038091F1
:1015B000A1039091A2032091CB033091CC03280F7B
:1015C000391F2436310514F489975CF0D093A403B5
:1015D000C093A303412F60E470E080E090E00E949C
:1015E00083131B9946C080917C03811142C0809176
:1015F0008E0581118AC0412F60E070E880E090E0A4
:101600000E94831380918D058F5F80938D051093C9
:101610007C031092810510921B0410921A042FEF84
:1016200086E791E0215080409040E1F700C0000043
:1016300010927E0340E060E870E080E090E00E945D
:10164000831380918D05843010F010938D05609187
:101650008D05CE010E9477048FE39CE90197F1F795
:1016600000C00000412F60E070E880E090E00E9440
:1016700083131B9B12C080917C03813071F4809195
:101680008E0581110AC01092810510927C038FE3B0
:101690009CE90197F1F700C0000080918D05813031
:1016A00031F480918E05811125C00E94870B8091B5
:1016B0008D05823031F480918E0581111BC00E940E
:1016C0003B0280918D058330A9F480918E058111B4
:1016D00011C060E080E80E9443058AE591E00E9425
:1016E00019060E94BF0C40E060E071E080E090E0ED
:1016F0000E94831340E060E070E880E090E00E9488
:10170000831328CF1092E6033ACF83B1C6CFCF938D
:1017100040E060E071E080E090E00E9483138091FF
:101720008105811112C11C9B0DC180917E03811125
:1017300009C160E080E80E9443058FE691E00E94C5
:1017400019060E94BF0C1C9924C080918105882332
:1017500009F401C11EC041E060E070E880E090E063
:101760000E94831381E0809381052FEF8AE693E046
:10177000215080409040E1F700C000001092180412
:101780001092170440E060E070E880E090E00E9472
:10179000831380918105813009F0EAC01C9B72C0DF
:1017A00080917E0381116EC08091820381111BC0E4
:1017B000809119048111D7C0C1E0C0937E0341E03C
:1017C00060E870E080E090E00E9483131092810551
:1017D0002FEF89EF90E0215080409040E1F700C06A
:1017E0000000C0937D0380918203823021F08091BC
:1017F00019048130F9F481E080937E0340E060E8D1
:1018000070E080E090E00E9483131092810560E018
:1018100080E80E94430584E291E00E9419062FEFC0
:1018200089EF90E0215080409040E1F700C0000037
:1018300010927D0380918105811189C01C994DC052
:1018400080917E03813009F048C08093810541E09A
:1018500060E070E880E090E00E9483132FEF82E563
:1018600097E0215080409040E1F700C0000040E048
:1018700060E070E880E090E00E9483138091810531
:10188000813039F51C9B79C080917E03813009F04D
:1018900074C010927E031092810560E080E80E947F
:1018A00043058FE691E00E9419060E94BF0C40E0BC
:1018B00060E870E080E090E00E9483132FEF89EFF2
:1018C00090E0215080409040E1F700C0000010926D
:1018D0007D0380918105811150C080917E0381300C
:1018E00009F04BC080918203811110C080911904CE
:1018F000811110C010920C0460E080E80E94430542
:1019000080E891E00E9419060E94BF0C809182033A
:10191000823021F080911904813079F540E060E84F
:1019200070E080E090E00E94831360E080E80E9415
:10193000430584E291E00E94190610927D030E9403
:10194000BF0C1BC01C9B07C075CF83B122CF813059
:1019500009F498CF12C080917E0381116FCFFBCE26
:1019600080918105F4CF809119048130C9F743CF6C
:1019700080918105882309F461CFCF910895CF9399
:10198000DF9380918D05813009F406C160E080EC21
:101990000E9443051092070410920604C0911A0495
:1019A000D0911B04C730D10509F0F8C10E94420450
:1019B000C0911A04D0911B04C730D1050CF074C03B
:1019C000FE01EE0FFF1FE05CFB4F808191810197CC
:1019D00009F060C005C081919191019709F05FC045
:1019E000C730D10508F051C0FE01EC5CFF4F0C94EC
:1019F000422581E991E00E94190681E090E09093F0
:101A000007048093060441C082EA91E00E9419060F
:101A100081E090E0909307048093060436C083EB46
:101A200091E00E94190681E090E090930704809372
:101A300006042BC084EC91E00E94190681E090E03E
:101A4000909307048093060420C085ED91E00E94E6
:101A5000190681E090E0909307048093060415C076
:101A600086EE91E00E94190681E090E090930704D1
:101A7000809306040AC087EF91E00E94190681E076
:101A800090E09093070480930604D0931B04C093C6
:101A90001A040AC0FE01EE0FFF1FEE5BFB4F2196FA
:101AA000C730D1050CF497CF8091060490910704BC
:101AB000892B31F40E94420410921B0410921A04E4
:101AC0008091060490910704019711F40E94590334
:101AD0001C990AC08091C603811106C081E08093E1
:101AE000C6031C9B54C007C01C9B51C08091C603F9
:101AF000813009F04CC041E060E070E880E090E0A7
:101B00000E9483131092C603E0911A04F0911B0403
:101B1000CF01019690931B0480931A04DC01AA0F55
:101B2000BB1FA05CBB4F2D913C91232B49F5873007
:101B300091055CF012C0219131912130310549F4B9
:101B400090931B0480931A0408C0EE0FFF1FEC5BF8
:101B5000FB4F01968730910571F780911A0490919F
:101B60001B04089724F010921B0410921A042FEF04
:101B700089EF90E0215080409040E1F700C00000E4
:101B800040E060E070E880E090E00E948313809184
:101B90008D05813009F00CC160E080EC0E944305A6
:101BA0001092070410920604C0911A04D0911B04ED
:101BB000C730D10509F0F7C00E944204C0911A0451
:101BC000D0911B04C730D1050CF074C0FE01EE0F9C
:101BD000FF1FE05CFB4F80819181019709F060C09D
:101BE00005C081919191019709F05FC0C730D1057F
:101BF00008F051C0FE01E55CFF4F0C94422581E9DD
:101C000091E00E94190681E090E090930704809390
:101C1000060441C082EA91E00E94190681E090E04A
:101C2000909307048093060436C083EB91E00E94F2
:101C3000190681E090E090930704809306042BC07E
:101C400084EC91E00E94190681E090E090930704F3
:101C50008093060420C085ED91E00E94190681E082
:101C600090E0909307048093060415C086EE91E0FF
:101C70000E94190681E090E0909307048093060487
:101C80000AC087EF91E00E94190681E090E09093EE
:101C9000070480930604D0931B04C0931A040AC05F
:101CA000FE01EE0FFF1FEE5BFB4F2196C730D10503
:101CB0000CF497CF8091060490910704892B31F49E
:101CC0000E94420410921B0410921A048091060490
:101CD00090910704019711F40E9459031D9B0AC0BB
:101CE0008091C603811106C081E08093C6031D99CF
:101CF0005FC007C01D995CC08091C603813009F0A8
:101D000057C041E060E070E880E090E00E948313FB
:101D10001092C603E0911A04F0911B04CF010196C2
:101D200090931B0480931A04DC01AA0FBB1FA05CD4
:101D3000BB4F2D913C91232B49F5873091055CF0E9
:101D400012C0219131912130310549F490931B0447
:101D500080931A0408C0EE0FFF1FEC5BFB4F019647
:101D60008730910571F780911A0490911B040897B0
:101D700024F010921B0410921A042FEF89EF90E0C8
:101D8000215080409040E1F700C0000040E060E05A
:101D900070E880E090E00E9483130AC0C730D1054C
:101DA0000CF40ECE87CEC730D1050CF40FCF88CF00
:101DB000DF91CF910895CF93DF938091900390911D
:101DC00091038D30910509F01AC3C6E5D4E02A8D40
:101DD0003B8D80911C0490911D04822B932B2C89A8
:101DE0003D89220F331F220F331F220F331F822BF7
:101DF000932B2E893F89220F331F220F331F822BF3
:101E0000932B288D398D220F331F822B932B909388
:101E10001D0480931C0408C0299A459A8091900360
:101E2000909191030D9711F4299A459A809190030E
:101E3000909191030E9761F4809140049091410438
:101E4000019721F0809119048230B1F4299A459AC2
:101E500080919003909191038D3091050CF4DBC239
:101E6000469711F4299A459A809190039091910395
:101E70004F9711F4299A459A80919003909191037C
:101E8000889711F4299A459A809190039091910333
:101E9000C19711F4299A459A8091900390919103EA
:101EA000CA9711F4299A459A8091900390919103D1
:101EB0008334910511F4299A459A80919003909169
:101EC00091038C34910511F4299A459A80911C0450
:101ED00090911D048230910509F46AC01CF4892B8D
:101EE00049F099C28330910509F47FC00E9709F437
:101EF0001FC291C28091900390919103099711F4B0
:101F0000299A459A80919003909191030D9711F42D
:101F1000299A459A80919003909191030E9761F4CC
:101F20008091400490914104019721F0809119041F
:101F3000823091F4299A459A80919003909191036F
:101F4000469711F4299A459A8091900390919103B4
:101F50004F9711F4299A459A80919003909191039B
:101F6000889711F4299A459A809190039091910352
:101F7000C19711F4299A459A809190039091910309
:101F8000CA9711F4299A459A8091900390919103F0
:101F90008334910511F4299A459A80919003909188
:101FA00091038C34910509F036C2299A459A33C2BF
:101FB00080919003909191030D9711F4299A459A7D
:101FC00080919003909191030E9709F024C2809123
:101FD000400490914104019729F0809119048230C6
:101FE00009F019C2299A459A16C2809190039091DE
:101FF00091030D9711F4299A459A8091900390913D
:1020000091030E9761F480914004909141040197EF
:1020100021F080911904823091F4299A459A809197
:10202000900390919103469711F4299A459A8091D3
:102030009003909191034F9711F4299A459A8091BA
:10204000900390919103889711F4299A459A809171
:10205000900390919103C19711F4299A459A809128
:10206000900390919103CA9711F4299A459A80910F
:102070009003909191038334910511F4299A459A24
:1020800080919003909191038C34910511F4299AD9
:10209000459A80919003909191039C012E503109B3
:1020A0002830310520F525E130E0281B390B8091DF
:1020B000EF039091F00302C0959587952A95E2F77A
:1020C000817099272091C0033091C103822B932BFB
:1020D0009093C1038093C003019711F4299A459A04
:1020E0008091C0039091C103892B09F429988091B4
:1020F0009003909191034E97E1F480911904E82F99
:10210000E170F0E08091C0039091C103E82BF92BBE
:10211000F093C103E093C003E130F10509F073C10E
:10212000299A459A8091C0039091C103892B09F4A3
:102130002998809190039091910382970297D0F40F
:102140008091E603A82FA170B0E08091C003909128
:10215000C103A82BB92BB093C103A093C00311975F
:1021600011F4299A459A8091C0039091C103892B5B
:1021700009F4299880919003909191038497049792
:10218000D8F480911904482F417050E08091C00329
:102190009091C103482B592B5093C1034093C00326
:1021A0004130510511F4299A459A8091C0039091CC
:1021B000C103892B09F42998809190039091910390
:1021C0008797E1F480918405682F617070E08091B9
:1021D000C0039091C103682B792B7093C103609366
:1021E000C0036130710509F012C1299A459A8091A6
:1021F000C0039091C103892B09F429982091900381
:1022000030919103C901C397069760F580918303CC
:102210009091840399230CF4039695958795959551
:10222000879549E350E0BA01621B730B02C0959594
:1022300087956A95E2F7817099272091C0033091C4
:10224000C103822B932B9093C1038093C00301970A
:1022500011F4299A459A8091C0039091C103892B6A
:1022600009F4299880919003909191039C012C533B
:1022700031092730310520F522E430E0281B390BE5
:1022800080918E0390918F0302C0959587952A9532
:10229000E2F7817099272091C0033091C103822B0E
:1022A000932B9093C1038093C003019711F4299A53
:1022B000459A8091C0039091C103892B09F4299814
:1022C0002091900330919103C9018554910907979A
:1022D00008F0A1C0809180039091810399230CF4B0
:1022E000039695958795959587954BE450E0BA01AF
:1022F000621B730B02C0959587956A95E2F7817012
:1023000099272091C0033091C103822B932B909386
:10231000C1038093C003019711F4299A459A8091D3
:10232000C0039091C103892B09F075C0299873C02F
:1023300080919003909191030D9711F4299A459AF9
:1023400080919003909191034E9711F4299A459AA8
:1023500080919003909191038D9711F4299A459A59
:1023600080919003909191038E9709F054C08091D1
:102370009C0490919D04019779F48091AA04909116
:10238000AB04019749F441E060E070E880E090E040
:102390000E9483131092190480919E0490919F04CF
:1023A000019779F48091AC049091AD04019749F4C0
:1023B00040E060E070E880E090E00E9483131092BB
:1023C00019048091A2049091A304019749F480918B
:1023D000B0049091B104019719F481E0809319043D
:1023E0008091A0049091A1040197A9F48091AE047A
:1023F0009091AF04019779F4109219040CC00997D9
:1024000009F014CD09CDEF2B09F492CED5CE672B70
:1024100009F4F3CE55CFDF91CF910895599A23B1A6
:10242000822F817090E090933D0480933C04813032
:10243000910509F02AC18091F20381115EC180915A
:10244000F3039091F4039C012950310922303105A6
:1024500028F41092F4031092F3032EC042970397CE
:1024600038F481E090E09093F4038093F30342C04A
:102470008091F3039091F4034B970897E8F482E07E
:1024800090E09093F4038093F303109291031092E1
:1024900090031092A00310929F031092CE0310920B
:1024A000CD0310921D0410921C0420E030E09093A4
:1024B00057048093560482C08091F3039091F403F3
:1024C000893E9340BCF010929103109290031092B9
:1024D000A00310929F031092CE031092CD0310928E
:1024E0001D0410921C0410921904109257041092AB
:1024F000560474C02091900330919103F901EE0FBE
:10250000FF1FEA5AFB4F8091F3039091F4039183EC
:1025100080832830310509F051C0E6E5F4E02089D8
:1025200031898091CD039091CE03822B932B24810E
:10253000358100243695279507943695279507947D
:10254000322F202D822B932B26813781220F331F90
:1025500022953295307F3227207F3227822B932B92
:102560002085318522953295307F3227207F322792
:10257000822B932B22853385220F331F220F331F8B
:10258000220F331F822B932B24853585220F331F77
:10259000220F331F822B932B26853785220F331F63
:1025A000822B932B9093CE038093CD03009709F059
:1025B0009BC01092D0031092CF0396C04091CD03E0
:1025C0005091CE038091200490912104481759071F
:1025D00029F42830310514F00E94DB0E81E080934D
:1025E000F203109224041092F4031092F303109259
:1025F000C1031092C003809158049091590401972F
:1026000011F580915A0490915B04892BE1F480913B
:102610009003909191030297B1F48091CF03909130
:10262000D00301969093D0038093CF032091200490
:10263000309121048217930731F49093CE03809355
:10264000CD03299A459A8091900390919103019628
:10265000909391038093900380913C0490913D046A
:102660008130910509F449C010C08091C90390914F
:10267000CA0301969093CA038093C90380913C04D6
:1026800090913D04892BE9F02DC0892B59F580915B
:102690002404811116C02998459881E08093240470
:1026A0001092F2031092CA031092C9031092A00371
:1026B00010929F0380913C0490913D04892B29F056
:1026C00011C080912404813069F41092CA031092E1
:1026D000C9038091F3039091F40301969093F4035E
:1026E0008093F30359980895209120043091210498
:1026F0008217930709F072CF6FCF8091F203813078
:1027000009F4B3CFEFCF0F931F934130B9F4009189
:102710008703109188032091890330918A03DC019B
:10272000CB01802B912BA22BB32B8093870390930B
:102730008803A0938903B0938A031AC0009187038A
:10274000109188032091890330918A03DC01CB0129
:1027500080959095A095B09580239123A223B323D3
:102760008093870390938803A0938903B0938A038F
:102770005B985C988091870390918803A09189036E
:10278000B0918A0397FF02C05A9A01C05A985C9A86
:102790005C988091870390918803A0918903B09100
:1027A0008A0396FF02C05A9A01C05A985C9A5C98B4
:1027B0008091870390918803A0918903B0918A0347
:1027C00095FF02C05A9A01C05A985C9A5C98809111
:1027D000870390918803A0918903B0918A0394FFA5
:1027E00002C05A9A01C05A985C9A5C9880918703FB
:1027F00090918803A0918903B0918A0393FF02C04E
:102800005A9A01C05A985C9A5C988091870390917B
:102810008803A0918903B0918A0392FF02C05A9A5B
:1028200001C05A985C9A5C988091870390918803C4
:10283000A0918903B0918A0391FF02C05A9A01C006
:102840005A985C9A5C988091870390918803A09134
:102850008903B0918A0390FF02C05A9A01C05A9826
:102860005C9A5C988091870390918803A09189037A
:10287000B0918A0387FF02C05A9A01C05A985C9AA5
:102880005C988091870390918803A0918903B0910F
:102890008A0386FF02C05A9A01C05A985C9A5C98D3
:1028A0008091870390918803A0918903B0918A0356
:1028B00085FF02C05A9A01C05A985C9A5C98809130
:1028C000870390918803A0918903B0918A0384FFC4
:1028D00002C05A9A01C05A985C9A5C98809187030A
:1028E00090918803A0918903B0918A0383FF02C06D
:1028F0005A9A01C05A985C9A5C988091870390918B
:102900008803A0918903B0918A0382FF02C05A9A7A
:1029100001C05A985C9A5C988091870390918803D3
:10292000A0918903B0918A0381FF02C05A9A01C025
:102930005A985C9A5C988091870390918803A09143
:102940008903B0918A0380FF02C05A9A01C05A9845
:102950005C9A5B9A1F910F910895CF92DF92EF924C
:10296000FF921D9B48C08091F103811144C080916A
:102970008D05833011F00C94D02041E060E070E8C8
:1029800080E090E00E948313809178059091790512
:102990009093F8038093F70380918E058F5F809367
:1029A0008E0581E08093F1032FEF30E782E0215024
:1029B00030408040E1F700C0000060E080EC0E9401
:1029C000430588E092E00E94190680918E058B30C5
:1029D00028F083E080938D0510928E0560918E051E
:1029E00080E090E00E94770440E060E070E880E0E2
:1029F00090E00E9483131D9B39C08091F1038130C8
:102A000011F00C94CB20809178059091790520915C
:102A1000F7033091F803821B930B90938C03809300
:102A20008B03813A9F4014F40C94C52041E060E090
:102A300070E880E090E00E94831380917805909187
:102A400079059093F8038093F70383E080938D05D5
:102A500010928E0560E080E090E00E94770440E0F4
:102A600060E070E880E090E00E9483131D9913C03D
:102A70008091F103813079F480918D05833059F490
:102A80001092F1033FEF89EF90E031508040904089
:102A9000E1F700C0000080918E05813009F0D5C0BB
:102AA00060E080E80E94430589E192E00E941906F7
:102AB00060E080EC0E9443058AE292E00E941906E1
:102AC00060E08EEC0E94430580910001909101012D
:102AD0006AE070E00E942E25CB0161E00E94300682
:102AE00060E08FEC0E94430580910001909101010C
:102AF00064E670E00E942E2561E00E9430061B997A
:102B000035C08091C603811131C041E060E070E8BA
:102B100080E090E00E948313809100019091010178
:102B20000296893291052CF4909301018093000163
:102B300004C0109201011092000181E08093C6034D
:102B40006091000183E090E00E9477042FEF39EF5D
:102B500080E0215030408040E1F700C0000040E0BC
:102B600060E070E880E090E00E9483131B9B1AC035
:102B70008091C6038130B1F441E060E070E880E00C
:102B800090E00E9483131092C6038FE39CE90197A3
:102B9000F1F700C0000040E060E070E880E090E005
:102BA0000E9483131C9935C08091C603811131C0E6
:102BB00041E060E070E880E090E00E948313809143
:102BC00000019091010102972AF0909301018093F6
:102BD000000106C088E290E090930101809300011B
:102BE00081E08093C6036091000183E090E00E9441
:102BF00077049FEF29EF30E0915020403040E1F71B
:102C000000C0000040E060E070E880E090E00E94DA
:102C100083131B9B1AC08091C6038130B1F441E03D
:102C200060E070E880E090E00E9483131092C60399
:102C30008FE39CE90197F1F700C0000040E060E0FD
:102C400070E880E090E00E94831380918E058230CE
:102C500009F0E6C060E080E80E94430588E392E066
:102C60000E94190660E080EC0E94430589E492E02E
:102C70000E94190660E08CEC0E94430583E592E017
:102C80000E94190682E090E00E947F0490E09093F9
:102C900016048093150460E08AEC0E94430580913D
:102CA0001504909116046AE070E00E942E25CB0175
:102CB00061E00E94300660E08BEC0E944305809149
:102CC00015049091160464E670E00E942E2561E0E0
:102CD0000E9430061B9935C08091C603811131C016
:102CE00041E060E070E880E090E00E948313809112
:102CF0001504909116040196853191052CF490935A
:102D000016048093150404C0109216041092150442
:102D100081E08093C6036091150482E090E00E94F8
:102D200077049FEF29EF30E0915020403040E1F7E9
:102D300000C0000040E060E070E880E090E00E94A9
:102D400083131B9B1AC08091C6038130B1F410928B
:102D5000C60341E060E070E880E090E00E948313E9
:102D60008FE39CE90197F1F700C0000040E060E0CC
:102D700070E880E090E00E9483131C9935C0809138
:102D8000C603811131C041E060E070E880E090E06E
:102D90000E948313809115049091160401972AF0E4
:102DA000909316048093150406C084E190E09093FC
:102DB00016048093150481E08093C6036091150486
:102DC00082E090E00E9477049FEF29EF30E091507D
:102DD00020403040E1F700C0000040E060E070E8D3
:102DE00080E090E00E9483131C9B1AC08091C60370
:102DF0008130B1F41092C60341E060E070E880E0F9
:102E000090E00E9483138FE39CE90197F1F700C0E3
:102E1000000040E060E070E880E090E00E948313F2
:102E200080918E05833009F0C1C060E080E80E9487
:102E3000430588E592E00E94190681E00E94E200C5
:102E4000909381038093800360E08DEC0E944305A2
:102E500080918003909181036AE070E00E942E25AA
:102E6000CB0162E00E94300660E08FEC0E944305D7
:102E7000809180039091810364E670E00E942E258A
:102E800061E00E94300680918603811108C060E0F5
:102E900080EC0E94430588E692E00E94190680912A
:102EA0008603813041F460E080EC0E94430584E7B2
:102EB00092E00E9419061B995AC080917E058111EB
:102EC00056C041E060E070E880E090E00E9483132B
:102ED00080918603811120C080917E05811140C0C0
:102EE00081E080937E058093860360E080EC0E9401
:102EF000430584E792E00E9419066091860386E00C
:102F000090E00E9477049FEF20E732E0915020404C
:102F10003040E1F700C0000080918603813001F568
:102F200080917E0581111CC081E080937E05109206
:102F3000860360E080EC0E94430588E692E00E94F0
:102F400019066091860386E090E00E9477048FEF77
:102F500090E722E0815090402040E1F700C000005F
:102F600040E060E070E880E090E00E9483131B9BEB
:102F70001DC080917E058130C9F441E060E070E8B9
:102F800080E090E00E94831310927E053FEF80E77F
:102F900092E0315080409040E1F700C0000040E0F6
:102FA00060E070E880E090E00E94831380918E05DD
:102FB000843009F0C1C060E080E80E94430581E8E8
:102FC00092E00E94190682E00E94E200909384033E
:102FD0008093830360E08DEC0E944305809183031E
:102FE000909184036AE070E00E942E25CB0162E09C
:102FF0000E94300660E08FEC0E94430580918303BD
:103000009091840364E670E00E942E2561E00E94A6
:10301000300680918503811108C060E080EC0E9439
:10302000430588E692E00E9419068091850381306D
:1030300041F460E080EC0E94430584E792E00E9446
:1030400019061B995AC080917E05811156C041E036
:1030500060E070E880E090E00E9483138091850337
:10306000811120C080917E05811140C081E0809354
:103070007E058093850360E080EC0E94430584E731
:1030800092E00E9419066091850387E090E00E941B
:1030900077042FEF30E782E0215030408040E1F7A5
:1030A00000C0000080918503813001F580917E058C
:1030B00081111CC081E080937E051092850360E041
:1030C00080EC0E94430588E692E00E941906609118
:1030D000850387E090E00E9477049FEF20E732E0CD
:1030E000915020403040E1F700C0000040E060E037
:1030F00070E880E090E00E9483131B9B1DC08091CC
:103100007E058130C9F441E060E070E880E090E045
:103110000E94831310927E058FEF90E722E081508A
:1031200090402040E1F700C0000040E060E070E81F
:1031300080E090E00E94831380918E05853009F035
:10314000D4C181E190E00E947F04682F70E080E0AC
:1031500090E00E94BC266B017C0160932504709373
:103160002604809327049093280420E030E040E771
:1031700052E40E940F2618160CF44AC020E030E0FA
:1031800040E251ECC701B6010E946E2788230CF47F
:103190003FC060E080E80E94430581E992E00E9420
:1031A000190660E080EC0E94430582EA92E00E94EA
:1031B000190660E08EEC0E94430520E030E040E21A
:1031C00051E4609125047091260480912704909128
:1031D00028040E9414260E948D26DC01CB0161E0A8
:1031E0000E94300660E08FEC0E9443056091250448
:1031F0007091260480912704909128040E948626CD
:10320000CB0164E670E00E942E2561E00E9430064A
:10321000C0902504D0902604E0902704F090280464
:1032200020E030E040E752E4C701B6010E946E277B
:10323000181654F020E030E040E251ECC701B6012E
:103240000E940F26882384F460E080E80E944305F2
:1032500081EB92E00E94190660E080EC0E94430539
:1032600082EC92E00E9419061B995DC08091C60312
:10327000811159C041E060E070E880E090E00E9478
:10328000831380917805909179059093F80380934A
:10329000F70381E08093C60320E030E040E050E493
:1032A0006091250470912604809127049091280450
:1032B0000E94A3256B017C0120E030E048E752E446
:1032C0000E946E2718164CF0C0922504D092260456
:1032D000E0922704F092280408C01092250410926E
:1032E00026041092270410922804609125047091FE
:1032F000260480912704909128040E948D2681E164
:1033000090E00E9477043FEF89EF90E031508040D9
:103310009040E1F700C0000040E060E070E880E02D
:1033200090E00E9483131B9B1BC08091C6038130D9
:1033300009F034C741E060E070E880E090E00E946E
:1033400083131092C6038FE39CE90197F1F700C045
:10335000000040E060E070E880E090E00E948313AD
:103360001B9950C08091C603813009F04BC0E0909A
:103370007805F09079058091F7039091F803970113
:10338000281B390BC90130938C0320938B03813D9B
:103390009740C4F120E030E040E85FE3609125040D
:1033A0007091260480912704909128040E94A325FF
:1033B0006093250470932604809327049093280437
:1033C000F092F803E092F70320E030E048E752E49F
:1033D0000E946E27181644F41092250410922604B9
:1033E00010922704109228046091250470912604FD
:1033F00080912704909128040E948D2681E190E01D
:103400000E9477041C9955C080917E05811151C09E
:1034100041E060E070E880E090E00E94831320E0EB
:1034200030E040E85FE360912504709126048091CC
:103430002704909128040E94A2256B017C0120E0C2
:1034400030E040E251EC0E940F2688234CF0C092FD
:103450002504D0922604E0922704F092280408C0A4
:10346000109225041092260410922704109228042A
:1034700081E080937E0560912504709126048091FF
:103480002704909128040E948D2681E190E00E94FB
:1034900077048FEF99EF20E0815090402040E1F7D2
:1034A00000C0000040E060E070E880E090E00E9432
:1034B00083131C9B1AC080917E058130B1F441E0DA
:1034C00060E070E880E090E00E94831310927E0537
:1034D0008FE39CE90197F1F700C0000040E060E055
:1034E00070E880E090E00E94831380918E05863022
:1034F00009F062C189E090E00E947F0490E090931F
:103500003F0480933E0420E030E046EC52E46091BA
:10351000E9037091EA038091EB039091EC030E9420
:103520000F2618160CF43FC060E080E80E944305A7
:1035300081E992E00E94190660E080EC0E94430558
:1035400083ED92E00E94190660E08EEC0E94430534
:1035500020E030E040E251E46091E9037091EA0339
:103560008091EB039091EC030E9414260E948D261B
:10357000DC01CB0161E00E94300660E08FEC0E942C
:1035800043056091E9037091EA038091EB03909108
:10359000EC030E948626CB0164E670E00E942E2593
:1035A00061E00E94300620E030E046EC52E4609199
:1035B000E9037091EA038091EB039091EC030E9480
:1035C0006E27181684F460E080E80E94430581EBC2
:1035D00092E00E94190660E080EC0E94430582EEB2
:1035E00092E00E9419061B9955C08091C603811173
:1035F00051C041E060E070E880E090E00E948313F9
:1036000020E030E040E050E46091E9037091EA038B
:103610008091EB039091EC030E94A3256B017C0148
:1036200020E030E048EC52E40E946E2718164CF07F
:10363000C092E903D092EA03E092EB03F092EC032C
:1036400008C01092E9031092EA031092EB03109263
:10365000EC0381E08093C6036091E9037091EA0373
:103660008091EB039091EC030E948D2682E190E023
:103670000E9477049FEF29EF30E0915020403040C6
:10368000E1F700C0000040E060E070E880E090E01A
:103690000E9483131B9B1AC08091C6038130B1F432
:1036A0001092C60341E060E070E880E090E00E9484
:1036B00083138FE39CE90197F1F700C0000040E01D
:1036C00060E070E880E090E00E9483131C9958C08D
:1036D00080917E05811154C041E060E070E880E097
:1036E00090E00E94831320E030E040E85FE36091C7
:1036F000E9037091EA038091EB039091EC030E943F
:10370000A2256B017C0120E030E0A9010E940F2678
:1037100088234CF0C092E903D092EA03E092EB03D5
:10372000F092EC030CC080E090E0A8ECB2E480934F
:10373000E9039093EA03A093EB03B093EC0381E0D9
:1037400080937E056091E9037091EA038091EB0319
:103750009091EC030E948D2682E190E00E94770414
:103760009FEF29EF30E0915020403040E1F700C05A
:10377000000040E060E070E880E090E00E94831389
:103780001C9B1AC080917E058130B1F441E060E05D
:1037900070E880E090E00E94831310927E058FE332
:1037A0009CE90197F1F700C0000040E060E070E89C
:1037B00080E090E00E94831380918E05873009F0AD
:1037C0007CC1C0902504D0902604E0902704F0909E
:1037D000280420E030E044E752E4C701B6010E942B
:1037E0006E2788231CF088E080938E0520E030E06F
:1037F00040EB50E460917A0570917B0580917C05E7
:1038000090917D050E940F261816CCF120E030E043
:1038100044E752E4C701B6010E940F2688237CF5D5
:1038200060E080E80E94430583EF92E00E94190661
:1038300060E080EC0E94430580917D058F9380912C
:103840007C058F9380917B058F9380917A058F9370
:1038500084E093E09F938F9389EA93E09F938F9303
:103860000E940A2989EA93E00E9419062DB73EB703
:10387000285F3F4F0FB6F8943EBF0FBE2DBF20E02C
:1038800030E040EB50E460917A0570917B058091C7
:103890007C0590917D050E946E27181644F41092C5
:1038A0007A0510927B0510927C0510927D051B997C
:1038B00074C08091C603811170C041E060E070E87F
:1038C00080E090E00E9483132DEC3CEC4CEC5DE337
:1038D00060917A0570917B0580917C0590917D05C2
:1038E0000E94A3256B017C0120E030E040EB50E416
:1038F0000E946E2718164CF0C0927A05D0927B0574
:10390000E0927C05F0927D0508C010927A05109235
:103910007B0510927C0510927D0581E08093C603A3
:1039200060917A0570917B0580917C0590917D0571
:103930000E948626262F6093890570938A05862F1C
:10394000972F880F991FAC01440F551F440F551F27
:10395000840F951F6AE070E00E942E2590939903D2
:1039600080939803622F83E190E00E947704609136
:10397000980384E190E00E9477043FEF89EF90E0A4
:10398000315080409040E1F700C0000040E060E02E
:1039900070E880E090E00E9483131B9B1AC0809126
:1039A000C6038130B1F41092C60341E060E070E8D4
:1039B00080E090E00E9483138FE39CE90197F1F788
:1039C00000C0000040E060E070E880E090E00E940D
:1039D00083131C9956C080917E05811152C041E02D
:1039E00060E070E880E090E00E9483132DEC3CECF6
:1039F0004CEC5DE360917A0570917B0580917C05CC
:103A000090917D050E94A2256B017C0120E030E0B1
:103A1000A9010E940F2688234CF0C0927A05D0920B
:103A20007B05E0927C05F0927D050CC083E393E377
:103A3000A3EBB0E480937A0590937B05A0937C057B
:103A4000B0937D0581E080937E056091890583E1D7
:103A500090E00E9477046091980384E190E00E94D6
:103A600077049FEF29EF30E0915020403040E1F79C
:103A700000C0000040E060E070E880E090E00E945C
:103A800083131C9B1AC080917E058130B1F441E004
:103A900060E070E880E090E00E94831310927E0561
:103AA0008FE39CE90197F1F700C0000040E060E07F
:103AB00070E880E090E00E94831380918E0588304A
:103AC00009F07CC1C090E903D090EA03E090EB03D9
:103AD000F090EC0320E030E048EC52E4C701B6017E
:103AE0000E946E2788231CF089E080938E0520E0D9
:103AF00030E040E251E460919B0370919C0380911F
:103B00009D0390919E030E940F261816CCF120E091
:103B100030E048EC52E4C701B6010E940F2688232A
:103B20007CF560E080E80E94430583EF92E00E940C
:103B3000190660E080EC0E94430580919E038F93FC
:103B400080919D038F9380919C038F9380919B0321
:103B50008F9389E193E09F938F9389EA93E09F93FA
:103B60008F930E940A2989EA93E00E9419062DB7D3
:103B70003EB7285F3F4F0FB6F8943EBF0FBE2DBF34
:103B800020E030E040E251E460919B0370919C039F
:103B900080919D0390919E030E946E27181644F415
:103BA00010929B0310929C0310929D0310929E030F
:103BB0001B9974C08091C603811170C041E060E020
:103BC00070E880E090E00E94831320E030E040E065
:103BD0005FE360919B0370919C0380919D039091A2
:103BE0009E030E94A3256B017C0120E030E040E2AF
:103BF00051E40E946E2718164CF0C0929B03D0929D
:103C00009C03E0929D03F0929E0308C010929B03D8
:103C100010929C0310929D0310929E0381E080936A
:103C2000C60360919B0370919C0380919D039091CA
:103C30009E030E948626262F6093E7037093E80375
:103C4000862F972F880F991FAC01440F551F440FE3
:103C5000551F840F951F6AE070E00E942E259093F7
:103C6000BC038093BB03622F85E190E00E94770440
:103C70006091BB0386E190E00E9477043FEF89EFFB
:103C800090E0315080409040E1F700C0000040E0FB
:103C900060E070E880E090E00E9483131B9B1AC0F4
:103CA0008091C6038130B1F41092C60341E060E018
:103CB00070E880E090E00E9483138FE39CE9019715
:103CC000F1F700C0000040E060E070E880E090E0C4
:103CD0000E9483131C9956C080917E05811152C0A9
:103CE00041E060E070E880E090E00E94831320E013
:103CF00030E040E05FE360919B0370919C03809112
:103D00009D0390919E030E94A2256B017C0120E0FF
:103D100030E0A9010E940F2688234CF0C0929B033B
:103D2000D0929C03E0929D03F0929E030CC080E031
:103D300090E0A0E2B1E480939B0390939C03A09356
:103D40009D03B0939E0381E080937E056091E7031D
:103D500085E190E00E9477046091BB0386E190E0EA
:103D60000E9477049FEF29EF30E0915020403040CF
:103D7000E1F700C0000040E060E070E880E090E023
:103D80000E9483131C9B1AC080917E058130B1F480
:103D900041E060E070E880E090E00E9483131092C0
:103DA0007E058FE39CE90197F1F700C0000040E039
:103DB00060E070E880E090E00E94831380918E05BF
:103DC000893009F003C1809120049091210480384A
:103DD00091057CF560E080E80E9443058CE293E069
:103DE0000E94190660E080EC0E9443058CE092E09E
:103DF0000E94190660E08CEC0E944305809120042B
:103E0000909121046AE070E00E942E25CB0162E0CF
:103E10000E94300660E08EEC0E94430580912004F1
:103E20009091210464E670E00E942E2561E00E94DA
:103E3000300680912004909121048038910581F40E
:103E400060E080E80E9443058DE393E00E9419063C
:103E500060E080EC0E9443058EE493E00E94190626
:103E60001B993DC08091C603811139C041E060E0DB
:103E700070E880E090E00E9483138091200490918C
:103E800021040196909321048093200481389105A8
:103E90002CF0109221041092200408C0992334F4CD
:103EA0008FE790E0909321048093200481E0809339
:103EB000C6036091200480E190E00E9477049FEFA8
:103EC00029EF30E0915020403040E1F700C0000081
:103ED00040E060E070E880E090E00E9483131B9B6C
:103EE0001AC08091C6038130B1F41092C60341E03C
:103EF00060E070E880E090E00E9483138FE39CE92B
:103F00000197F1F700C0000040E060E070E880E059
:103F100090E00E9483131C993DC08091C6038111DB
:103F200039C041E060E070E880E090E00E948313D7
:103F30008091200490912104019790932104809313
:103F40002004813891052CF0109221041092200455
:103F500008C0992334F48FE790E090932104809374
:103F6000200481E08093C6036091200480E190E00A
:103F70000E9477049FEF29EF30E0915020403040BD
:103F8000E1F700C0000040E060E070E880E090E011
:103F90000E9483131C9B1AC08091C6038130B1F428
:103FA0001092C60341E060E070E880E090E00E947B
:103FB00083138FE39CE90197F1F700C0000040E014
:103FC00060E070E880E090E00E94831380918E05AD
:103FD0008A3009F0EAC060E080E80E9443058FE57E
:103FE00093E00E9419061B9961C08091C60381115C
:103FF0005DC080917805909179059093F803809346
:10400000F70341E060E070E880E090E00E948313F5
:1040100041E060E470E080E090E00E94831341E0C2
:1040200060E870E080E090E00E94831341E060E08F
:1040300071E080E090E00E94831341E060E074E072
:1040400080E090E00E94831341E060E078E080E04F
:1040500090E00E94831341E060E072E080E090E035
:104060000E94831341E060E070E280E090E00E94F3
:10407000831341E060E070E480E090E00E948313ED
:1040800041E060E070E180E090E00E9483139FEFE8
:1040900023ED30E3915020403040E1F700C00000B4
:1040A00081E08093C6031B9908C07FC01B9B7DC025
:1040B0008091C603813009F078C080917805909195
:1040C00079052091F7033091F803821B930B9093AD
:1040D0008C0380938B03813797410CF466C041E0D9
:1040E00060E070E880E090E00E9483138FE39CE939
:1040F0000197F1F700C0000040E060E470E080E06C
:1041000090E00E94831340E060E870E080E090E07F
:104110000E94831340E060E071E080E090E00E9444
:10412000831340E060E074E080E090E00E9483133D
:1041300040E060E078E080E090E00E94831340E09F
:1041400060E072E080E090E00E94831340E060E075
:1041500070E280E090E00E94831340E060E070E451
:1041600080E090E00E94831340E060E070E180E036
:1041700090E00E94831340E060E070E880E090E00F
:104180000E9483131092C60310C01D9902C00C94A4
:104190003C150C944B1583B10C944B1583B132C96B
:1041A0001D9902C00C943615F6CFFF90EF90DF906A
:1041B000CF9008950F931F93CF93DF9360E080EC2F
:1041C0000E94430580E793E00E9419066091350440
:1041D000709136047250072E000C880B990B0E94C8
:1041E000BE262EEE34E045EB5FE30E94142621EE5E
:1041F0003AE744E95FE30E9473270E9486267093A2
:1042000088056093870560E081EC0E9443058091FA
:104210008705909188050AE010E0B8010E942E25DC
:10422000CB0162E00E94300660E083EC0E9443050F
:104230008091870590918805C4E6D0E0BE010E9478
:104240002E2561E00E9430060E94F80060E084ECB8
:104250000E94430582E793E00E9419066091C4031F
:104260007091C5037250072E000C880B990B0E94A9
:10427000BE262EEE34E045EB5FE30E94142621EECD
:104280003AE744E95FE30E9473270E948626709311
:10429000F6036093F50360E087EC0E94430580918C
:1042A000F5039091F603B8010E942E25CB0162E040
:1042B0000E94300660E089EC0E9443058091F5037E
:1042C0009091F603BE010E942E2561E00E94300607
:1042D0000E94F80060E08AEC0E94430586E793E0C4
:1042E0000E94190660912204709123047250072ED7
:1042F000000C880B990B0E94BE262EEE34E045EB95
:104300005FE30E94142621EE3AE744E95FE30E944E
:1043100073270E9486267093BA036093B90360E006
:104320008DEC0E9443058091B9039091BA03B801C6
:104330000E942E25CB0162E00E94300660E08FECE7
:104340000E9443058091B9039091BA03BE010E9477
:104350002E2561E00E943006DF91CF911F910F91D1
:104360000895A0E1B0E0E7EBF1E20C9457257C0161
:104370001B016A01FC0117821682838181FF44C3FD
:104380009E012F5F3F4F3901F7019381F10193FDAA
:10439000859193FF81911F01882309F431C38532F0
:1043A00039F493FD859193FF81911F01853239F492
:1043B000B70190E00E94CE2856016501E5CF10E0DC
:1043C000512C912CFFE1F915D8F08B3279F038F4AB
:1043D000803279F08332A1F4F92DF0612EC08D3254
:1043E00061F0803369F4292D21602DC0392D3260B0
:1043F000932E892D8460982E2AC0E92DE86015C07F
:1044000097FC2DC020ED280F2A3088F496FE06C0B8
:104410003AE0139F200D1124122F19C08AE0589EF4
:10442000200D1124522EE92DE0629E2E10C08E32F6
:1044300031F496FCE5C2F92DF0649F2E08C08C364D
:1044400021F4292D2068922E02C0883641F4F10112
:1044500093FD859193FF81911F018111B3CF9BEB58
:10446000980F933020F4992D9061805E07C09BE9EE
:10447000980F933008F066C1992D9F7E96FF16E045
:104480009F73992E853619F49064992E08C086364C
:1044900021F4392F3068932E02C01111115097FE6C
:1044A00007C01C3350F444244394410E27E00BC052
:1044B000183038F027E017E005C027E09CE3492ECC
:1044C00002C0212F412C560184E0A80EB11CF60138
:1044D0006081718182819381042DA3010E94E02774
:1044E0006C01F981FC87F0FF02C0F3FF06C091FC6C
:1044F00006C092FE06C000E205C00DE203C00BE25A
:1045000001C000E08C858C7019F001115AC29BC269
:1045100097FE10C04C0CFC85F4FF04C08A818133E7
:1045200009F44A94141474F528E0241578F588E009
:10453000482E2CC096FC2AC0812F90E08C159D053A
:104540009CF03CEFC3163FEFD30674F0892D8068D2
:10455000982E0AC0E2E0F0E0EC0FFD1FE10FF11D24
:104560008081803319F411501111F4CF97FE0EC0E1
:1045700044244394410E812F90E0C816D9062CF4B0
:104580001C1904C04424439401C010E097FE06C0E7
:104590001C141D0434F4C601019605C085E090E0AA
:1045A00002C081E090E001110196112331F0212F2A
:1045B00030E02F5F3F4F820F931F252D30E0821791
:1045C000930714F4581A01C0512C892D897049F4AD
:1045D000552039F0B70180E290E00E94CE285A942D
:1045E000F7CF002329F0B701802F90E00E94CE285A
:1045F00093FC09C0552039F0B70180E390E00E9498
:10460000CE285A94F7CF97FE4CC04601D7FE02C081
:10461000812C912CC60188199909F301E80FF91F23
:10462000FE87ED87960124193109388B2F87012FDA
:1046300010E01195019511093FEF8316930629F4B7
:10464000B7018EE290E00E94CE28C814D9044CF045
:104650008F8598898815990524F4ED85FE858181DB
:1046600001C080E3F1E08F1A91082D853E852F5F10
:104670003F4F3E872D87801691062CF0B70190E0C2
:104680000E94CE28D9CFC814D90441F49A81963318
:1046900020F4953319F43C8534FF81E3B70190E0B1
:1046A0004EC08A81813319F09C859F7E9C87B7011B
:1046B00090E00E94CE28111105C094FC18C085E638
:1046C00090E017C0B7018EE290E00E94CE281E5FF6
:1046D00082E001E0080FF301E80FF11D8081B701CE
:1046E00090E00E94CE28802F0113F3CFE6CF85E41F
:1046F00090E0B7010E94CE28D7FC06C0C114D104B7
:1047000041F4EC85E4FF05C0D194C194D1088DE259
:1047100001C08BE2B70190E00E94CE2880E32AE03E
:10472000C216D1042CF08F5FFAE0CF1AD108F7CF70
:10473000B70190E00E94CE28B701C601C0960E9442
:10474000CE2854C1833631F0833779F0833509F0B0
:1047500056C020C0560132E0A30EB11CF601808184
:10476000898301E010E0630112C05601F2E0AF0E50
:10477000B11CF601C080D18096FE03C0612F70E0AD
:1047800002C06FEF7FEFC6010E94C3288C01F92D94
:10479000FF7714C0560122E0A20EB11CF601C080C2
:1047A000D18096FE03C0612F70E002C06FEF7FEFF3
:1047B000C6010E94B8288C01F92DF0689F2EF3FDE8
:1047C0001AC0852D90E008171907A8F4B70180E2F8
:1047D00090E00E94CE285A94F4CFF60197FC859180
:1047E00097FE81916F01B70190E00E94CE28511091
:1047F0005A94015011090115110579F7F7C0843653
:1048000011F0893661F5560197FE09C024E0A20E29
:10481000B11CF60160817181828193810AC0F2E04E
:10482000AF0EB11CF60160817181072E000C880B60
:10483000990BF92DFF769F2E97FF09C090958095D3
:10484000709561957F4F8F4F9F4FF0689F2E2AE0A4
:1048500030E0A3010E942C29C82EC6183FC0092DA4
:10486000853721F40F7E2AE030E01DC0097F8F36A6
:1048700091F018F4883559F0C3C0803719F08837A3
:1048800011F0BEC0006104FF09C0046007C094FEBF
:1048900008C0066006C028E030E005C020E130E036
:1048A00002C020E132E0560107FF09C084E0A80EF3
:1048B000B11CF601608171818281938108C0F2E0B0
:1048C000AF0EB11CF6016081718180E090E0A30120
:1048D0000E942C29C82EC6180F77902E96FE0BC06A
:1048E000092D0E7FC11650F494FE0AC092FC08C038
:1048F000092D0E7E05C0DC2C092D03C0DC2C01C067
:10490000D12E04FF0DC0FE01EC0DF11D808180331E
:1049100011F4097E09C002FF06C0D394D39404C0E9
:10492000802F867809F0D39403FD11C000FF06C0E4
:104930001C2DD51480F4150D1D190DC0D51458F477
:10494000B70180E290E00E94CE28D394F7CFD5142F
:1049500010F45D1801C0512C04FF10C0B70180E3B2
:1049600090E00E94CE2802FF17C001FD03C088E737
:1049700090E002C088E590E0B7010CC0802F8678F7
:1049800059F001FF02C08BE201C080E207FD8DE219
:10499000B70190E00E94CE28C11638F4B70180E339
:1049A00090E00E94CE281150F7CFCA94F301EC0D8D
:1049B000F11D8081B70190E00E94CE28C110F5CF93
:1049C00015C0F4E0F51560F584E0581A93FE1FC099
:1049D000011127C02C8523FF2AC004E810E0392DDF
:1049E0003071932EF8018491811124C0552009F46F
:1049F000E4CCB70180E290E00E94CE285A94F6CF32
:104A0000F7018681978126C08FEF9FEF23C0B70102
:104A100080E290E00E94CE285A945110F8CFD8CF6F
:104A2000512CB701802F90E00E94CE28D3CF08E808
:104A300010E0D5CF91108052B70190E00E94CE28AF
:104A40000F5F1F4FCFCF23E0251510F483E0BDCFBC
:104A5000512CC0CF6096E2E10C94732597FB072E92
:104A600016F4009407D077FD09D00E948E2507FC2C
:104A700005D03EF4909581959F4F0895709561956E
:104A80007F4F0895EE0FFF1F0590F491E02D0994DC
:104A9000A29FB001B39FC001A39F700D811D11247F
:104AA000911DB29F700D811D1124911D08952F92AB
:104AB0003F924F925F926F927F928F929F92AF92AE
:104AC000BF92CF92DF92EF92FF920F931F93CF93FB
:104AD000DF93CDB7DEB7CA1BDB0B0FB6F894DEBF92
:104AE0000FBECDBF09942A88398848885F846E84B8
:104AF0007D848C849B84AA84B984C884DF80EE8002
:104B0000FD800C811B81AA81B981CE0FD11D0FB60A
:104B1000F894DEBF0FBECDBFED010895AA1BBB1BED
:104B200051E107C0AA1FBB1FA617B70710F0A61BAD
:104B3000B70B881F991F5A95A9F780959095BC01CE
:104B4000CD0108955058BB27AA270E94BA250C947E
:104B500034270E94262738F00E942D2720F039F4B0
:104B60009F3F19F426F40C9423270EF4E095E7FBFD
:104B70000C941D27E92F0E94452758F3BA176207A6
:104B800073078407950720F079F4A6F50C9467273E
:104B90000EF4E0950B2EBA2FA02D0B01B901900158
:104BA0000C01CA01A0011124FF27591B99F0593F9C
:104BB00050F4503E68F11A16F040A22F232F342FE4
:104BC0004427585FF3CF469537952795A795F04032
:104BD0005395C9F77EF41F16BA0B620B730B840B47
:104BE000BAF09150A1F0FF0FBB1F661F771F881FFF
:104BF000C2F70EC0BA0F621F731F841F48F4879557
:104C000077956795B795F7959E3F08F0B0CF939548
:104C1000880F08F09927EE0F9795879508950E94C1
:104C2000F92608F481E008950E9428260C94342780
:104C30000E942D2758F00E94262740F029F45F3F5C
:104C400029F00C941D2751110C9468270C942327EC
:104C50000E94452768F39923B1F3552391F3951BDF
:104C6000550BBB27AA2762177307840738F09F5F8D
:104C70005F4F220F331F441FAA1FA9F335D00E2EFA
:104C80003AF0E0E832D091505040E695001CCAF767
:104C90002BD0FE2F29D0660F771F881FBB1F26172A
:104CA00037074807AB07B0E809F0BB0B802DBF0101
:104CB000FF2793585F4F3AF09E3F510578F00C94D0
:104CC0001D270C9468275F3FE4F3983ED4F3869544
:104CD00077956795B795F7959F5FC9F7880F911DF1
:104CE0009695879597F90895E1E0660F771F881FDD
:104CF000BB1F621773078407BA0720F0621B730B90
:104D0000840BBA0BEE1F88F7E09508950E948D265C
:104D10006894B1110C94682708950E944D2788F07B
:104D20009F5798F0B92F9927B751B0F0E1F0660F6F
:104D3000771F881F991F1AF0BA95C9F714C0B130B0
:104D400091F00E946727B1E008950C946727672FC0
:104D5000782F8827B85F39F0B93FCCF386957795DF
:104D60006795B395D9F73EF49095809570956195C8
:104D70007F4F8F4F9F4F0895E89409C097FB3EF4F3
:104D800090958095709561957F4F8F4F9F4F992398
:104D9000A9F0F92F96E9BB279395F6958795779516
:104DA0006795B795F111F8CFFAF4BB0F11F460FFD6
:104DB0001BC06F5F7F4F8F4F9F4F16C0882311F02E
:104DC00096E911C0772321F09EE8872F762F05C042
:104DD000662371F096E8862F70E060E02AF09A95DD
:104DE000660F771F881FDAF7880F9695879597F9D2
:104DF0000895990F0008550FAA0BE0E8FEEF16166C
:104E00001706E807F907C0F012161306E407F507BE
:104E100098F0621B730B840B950B39F40A2661F032
:104E2000232B242B252B21F408950A2609F4A140D5
:104E3000A6958FEF811D811D089597F99F6780E8E2
:104E400070E060E008959FEF80EC089500240A94DC
:104E50001616170618060906089500240A94121655
:104E60001306140605060895092E0394000C11F488
:104E7000882352F0BB0F40F4BF2B11F460FF04C035
:104E80006F5F7F4F8F4F9F4F089557FD9058440F8E
:104E9000551F59F05F3F71F04795880F97FB991F99
:104EA00061F09F3F79F08795089512161306140656
:104EB000551FF2CF4695F1DF08C0161617061806E3
:104EC000991FF1CF86957105610508940895E894BE
:104ED000BB2766277727CB0197F908950E94F9260B
:104EE00008F48FEF08950E9486270C9434270E94BF
:104EF000262738F00E942D2720F0952311F00C94DE
:104F00001D270C94232711240C9468270E94452701
:104F100070F3959FC1F3950F50E0551F629FF0010C
:104F2000729FBB27F00DB11D639FAA27F00DB11D25
:104F3000AA1F649F6627B00DA11D661F829F2227AE
:104F4000B00DA11D621F739FB00DA11D621F839F35
:104F5000A00D611D221F749F3327A00D611D231F0B
:104F6000849F600D211D822F762F6A2F11249F5759
:104F700050409AF0F1F088234AF0EE0FFF1FBB1F5C
:104F8000661F771F881F91505040A9F79E3F51051B
:104F900080F00C941D270C9468275F3FE4F3983E43
:104FA000D4F3869577956795B795F795E7959F5FC5
:104FB000C1F7FE2B880F911D9695879597F9089557
:104FC000283008F027E03327DA01990F311D87FDDB
:104FD000916000966105710539F432602E5F3D9352
:104FE00030E32A95E1F708959F3F30F0803871054E
:104FF000610509F03C5F3C5F3D93913008F08068AB
:10500000911DDF93CF931F930F93FF92EF92192F70
:10501000987F9695E92F96959695E90FFF27EA5187
:10502000FF4F99273327EE24FF24A701E7010590BE
:105030000894079428F4360FE71EF81E491F511DE7
:10504000660F771F881F991F0694A1F70590079494
:1050500028F4E70EF81E491F561FC11D770F881F41
:10506000991F661F0694A1F70590079428F4F80E7F
:10507000491F561FC71FD11D880F991F661F771F15
:105080000694A1F70590079420F4490F561FC71FF7
:10509000D81F990F661F771F881F0694A9F7849160
:1050A0001095177041F0D695C79557954795F79489
:1050B000E7941A95C1F7ECE8F0E068941590159123
:1050C00035916591959105907FE27395E118F10A0C
:1050D000430B560BC90BD009C0F7E10CF11E431F5F
:1050E000561FC91FD01D7EF4703311F48A95E6CF88
:1050F000E894015030F0080F0AF40027021708F472
:10510000202F2395022F7A3328F079E37D932A9577
:10511000E9F710C07D932A9589F6069497956795CF
:10512000379517951794E118F10A430B560BC90BE5
:10513000D00998F023957E9173957A3308F070E347
:105140007C932013B8F77E9170617D9330F0839546
:1051500071E37D9370E32A95E1F71124EF90FF90BE
:105160000F911F91CF91DF91992787FD9095089519
:10517000FC010590615070400110D8F78095909522
:105180008E0F9F1F0895FC01615070400190011027
:10519000D8F7809590958E0F9F1F08950F931F93BA
:1051A000CF93DF93FB01238121FD03C08FEF9FEF9E
:1051B0002CC022FF16C046815781248135814217B9
:1051C000530744F4A081B1819D012F5F3F4F31838C
:1051D00020838C93268137812F5F3F4F378326832F
:1051E00014C08B01EC01FB010084F185E02D0995D1
:1051F000892BE1F6D80116968D919C91179701960F
:1052000017969C938E931697CE01DF91CF911F91A5
:105210000F910895AEE0B0E0E0E1F9E20C9465256D
:105220000D891E8986E08C831A8309838FEF9FE79F
:105230009E838D83AE01475E5F4F6F89788DCE016F
:1052400001960E94B121EF81F885E00FF11F1082D5
:105250002E96E4E00C948125FA01AA27283051F11A
:10526000203181F1E8946F936E7F6E5F7F4F8F4F97
:105270009F4FAF4FB1E03ED0B4E03CD0670F781FF6
:10528000891F9A1FA11D680F791F8A1F911DA11DDB
:105290006A0F711D811D911DA11D20D009F4689414
:1052A0003F912AE0269F11243019305D3193DEF6BC
:1052B000CF010895462F4770405D4193B3E00FD072
:1052C000C9F7F6CF462F4F70405D4A3318F0495D5D
:1052D00031FD4052419302D0A9F7EACFB4E0A69540
:1052E0009795879577956795BA95C9F70097610562
:1052F000710508959B01AC010A2E069457954795B8
:1053000037952795BA95C9F7620F731F841F951FAC
:08531000A01D0895F894FFCFE1
:1053180005005061B26FBF6120B365BDBF2D7061DC
:105328002020004142544F2020205045A3A54D2065
:1053380020202000A87963BA20A441A85045E2A201
:105348004820202000546D70252E3166432F486D6B
:10535800252E31662525202000A8B8BF61BDB86577
:1053680020424BA7B0AB45484F00A461BE7963BA51
:10537800204F544BA7B0ABA248202020202000503B
:1053880079C0BD6FB9205045A3A54D20202020002D
:105398005079C0BD6FB920A8A9434B20B365BDBFE4
:1053A800002143B8B4BD61BB20A84FA341505F2181
:1053B800200041B36170B8C720BEB8BF61BDB8C78F
:1053C80020200041B36170B8C720B3786FE3612033
:1053D800414C200041B36170B8C720B3786FE361D6
:1053E800205053200041B36170B8C7203338304291
:1053F80020202020200041B36170B8C720BBB8BD71
:10540800B8B8204448540041B36170B8C720BABB4B
:1054180061BE61BD612020002020202020202020A6
:105428002020202020202020004FBFBABB6FBD6560
:10543800BDB8652020202020200061BCBEBBB8BFBD
:1054480079E32C422B2F2D00427065BCC720B3C3D3
:10545800786FE3612020202000BD61207065B6B818
:10546800BC2C006365BA2E0054B8BE20E361BFC0EF
:10547800B8BA61202D5053002D4E4F2D6FBFBA7012
:10548800C3BF2D002D4E432DB761BCBABD79BF2DCA
:105498000054B8BE20E361BFC0B8BA61202D414CAA
:1054A800004D61BA63B8BC61BBC4BD61C720202090
:1054B8002000BF65BC2D70612C43202020202020B7
:1054C800004B6FBDBF706FBBC42020202020202060
:1054D8002000BF65BCBE2D70C320202020204F5463
:1054E8004BA700B3BB61B6BD6F63BFC420202020AB
:1054F8002500B3BB61B6BD6F63BFB82020204F54F1
:105508004BA700A1B863BF657065B7B863202020BA
:1055180020202000546D702B2F2D202020252E3187
:10552800664320202020202000486D2B2F2D20208E
:10553800252E3166252520202020200053797374DC
:10554800656D5F616472657320202020004164727C
:105558006573732064697361626C65202000202084
:105568002020202020204F544BA720202020002D31
:10557800544553542D544553542D544553542D00DC
:0A55880055005F5F56005F5F57009B
:00000001FF
