S010000056656E745F626F782E73726563CF
S11300000C94C3000C94E0000C94E0000C94E00009
S11300100C94E0000C94E0000C94E0000C946C0848
S11300200C94E0000C94E0000C94E0000C9499080B
S11300300C94E0000C94E0000C94E0000C94E000BC
S11300400C94E0000C94E0000C94E0000C94E000AC
S11300500C94E0000C94E0000C94E0000C94E0009C
S11300600C94E0000C94E000A50CB00CBB0CC60C86
S1130070D10CDC0CE70CA30DAE0DB90DC40DCF0DE6
S1130080DA0DE50D6E616E00696E660000407A104F
S1130090F35A00A0724E18090010A5D4E80000E835
S11300A07648170000E40B54020000CA9A3B000093
S11300B000E1F505000080969800000040420F0022
S11300C00000A08601000000102700000000E803E3
S11300D0000000006400000000000A0000000000AE
S11300E00100000000002C76D888DC674F0823DF6D
S11300F0C1DFAE59E1B1B796E5E3E453C63AE65140
S1130100997696E8E6C28426EB898C9B62ED407C66
S11301106FFCEFBC9C9F40F2BAA56FA5F490055A02
S11301202AF75C936B6CF9676DC11BFCE0E40D4727
S1130130FEF520E6B500D0ED902E0300943577054A
S11301400080841E080000204E0A000000C80C3302
S11301503333330F986E12831141EF8D2114893B91
S1130160E65516CFFEE6DB18D1844B381BF77C1D11
S1130170901DA4BBE424203284725E228100C9F164
S113018024ECA1E53D2711241FBECFEFD8E0DEBF4C
S1130190CDBF13E0A0E0B1E0ECE8FDE402C00590BF
S11301A00D92A234B107D9F725E0A2E4B3E001C06F
S11301B01D92A435B207E1F70E94B0080C94C4263E
S11301C00C94000080937C00EAE7F0E08081806476
S11301D08083808186FDFDCFE8E7F0E08081209177
S11301E0790090E0922B918380838081918108959E
S11301F00F931F93CF93DF931092FD031092FC0390
S113020010928C0310928B031092EA031092E9036C
S1130210C5E9D0E000E012E083E00E94E2009093A0
S11302204505809344052091FC033091FD0382171A
S113023093076CF0811522E092072CF09093FD0354
S11302408093FC0304C01093FD030093FC0387E038
S11302500E94E20090936D0380936C0320918B03C2
S113026030918C03821793076CF0811522E092077A
S11302702CF090938C0380938B0304C010938C0315
S113028000938B0386E00E94E20090938F03809397
S11302908E032091E9033091EA03821793076CF0EF
S11302A0811522E092072CF09093EA038093E903EE
S11302B004C01093EA030093E903219709F0ACCF3B
S11302C08091FC039091FD03DF91CF911F910F91D9
S11302D00895CF92DF92EF92FF92CF93C090EC03F8
S11302E0D090ED03E090EE03F090EF0320E030E0D7
S11302F040E752E4C701B6010E94492318160CF4E2
S113030056C020E030E040E251ECC701B6010E9443
S1130310A82488230CF44BC02091C4033091C50356
S11303204091C6035091C703C701B6010E944923F7
S1130330181684F08091430381110CC0C1E0C0936E
S1130340430341E060E070E280E090E00E94ED123F
S1130350C0935C0320913F053091400540914105D5
S1130360509142056091EC037091ED038091EE038E
S11303709091EF030E94DC222091C4033091C503C5
S11303804091C6035091C7030E94A82488237CF09F
S113039080914303813059F41092430340E060E0BC
S11303A070E280E090E00E94ED1210925C03C09035
S11303B0B003D090B103E090B203F090B30320E017
S11303C030E046EC52E4C701B6010E9449231816F6
S11303D00CF44BC02091C0033091C1034091C2037F
S11303E05091C303C701B6010E944923181684F033
S11303F08091420381110CC0C1E0C093420341E0EB
S113040060E070E480E090E00E94ED12C093F70396
S1130410209162033091630340916403509165031A
S11304206091B0037091B1038091B2039091B303D2
S11304300E94DC222091C0033091C1034091C20389
S11304405091C3030E94A82488237CF08091420326
S1130450813059F41092420340E060E070E480E09F
S113046090E00E94ED121092F703CF91FF90EF906D
S1130470DF90CF90089541E060E071E080E090E08B
S11304800E94ED120E946B0C80914A03811120C0DE
S11304908091E003811120C080915C03813019F0C8
S11304A081E08093F70341E060E870E080E090E051
S11304B00E94ED1260E080E80E94760582E091E0FF
S11304C00E944C0680915C03811102C01092F703D4
S11304D080914A03823021F08091E003813039F425
S11304E040E060E870E080E090E00E94ED128FE36D
S11304F09CE90197F1F700C000000895CF93DF93C2
S1130500579A5F982FEF80EE90E021508040904002
S1130510E1F700C000005F9A579887EC90E00197DC
S1130520F1F700C000004F9935C08FE391E00197C7
S1130530F1F700C000004F9B30C080913D058093CF
S113054048054F99FECFA4EDB3E0C9EDD3E061E0D7
S113055070E0FD011C9287E090E04F9BFECF2AE8FB
S11305602A95F1F700C04F9B0AC040819B01082ED9
S113057002C0220F331F0A94E2F7242B20834F99E1
S1130580FECF019750F71196CA17DB0711F781E0E8
S113059090E005C080E090E002C080E090E0DF9150
S11305A0CF9108958F929F92AF92BF92DF92EF9274
S11305B0FF920F931F93CF93DF93109255030E94E2
S11305C07E0280935503813009F08AC01092B503EE
S11305D01092B403E4EDF3E06081C62FD0E06181B2
S11305E0062F10E0D2806381E62EF12CCE01800F1D
S11305F0911F8D0D911D8E0D9F1D9093F603809379
S1130600F5036D2D6F7770E080E090E00E94F82391
S11306102DEC3CEC4CEC51E40E94AD244B015C010C
S1130620B701FF0C880B990B0E94F8232DEC3CECCE
S11306304CEC5DE30E94AD249B01AC01C501B40107
S11306400E94DD224B015C016093C4037093C503D7
S11306508093C6039093C7030E94C02370935703EB
S113066060935603DD209CF4B7FAB094B7F8B094C5
S11306708092C4039092C503A092C603B092C703AC
S11306807195619571097093570360935603B8018E
S1130690110F880B990B0E94F8232DEC3CEC4CECC9
S11306A05DE30E94AD244B015C01BE01DD0F880BAC
S11306B0990B0E94F8232DEC3CEC4CEC51E40E9485
S11306C0AD249B01AC01C501B4010E94DD226093FD
S11306D0C0037093C1038093C2039093C30318C0F3
S11306E0811109C08091B4039091B5030196909350
S11306F0B5038093B4038091B4039091B503853618
S1130700910534F084E690E09093B5038093B403AC
S113071010924905DF91CF911F910F91FF90EF90B7
S1130720DF90BF90AF909F908F9008950E94D20267
S113073060E080EC0E9476058091C3038F938091E2
S1130740C2038F938091C1038F938091C0038F93D1
S11307508091C7038F938091C6038F938091C503C3
S11307608F938091C4038F9383E191E09F938F9340
S113077080E793E09F938F930E94442680E793E061
S11307800E944C068DB79EB70C960FB6F8949EBF88
S11307900FBE8DBF0895F999FECF92BD81BD60BD96
S11307A0FA9AF99A0895F999FECF92BD81BDF89A03
S11307B080B5089580E00E94E20090934C038093FA
S11307C04B038E5492408F36910570F480914D0303
S11307D0813051F482E080934A0341E060E072E0AA
S11307E080E090E00E94ED1280914B0390914C03C5
S11307F0805991408D3B910508F047C020914D03ED
S113080021113EC082E080934A0341E060E072E03F
S113081080E090E00E94ED1280914B0390914C0394
S1130820805991408F3521E0920718F021E0209300
S11308304A038D3B910568F480914D03813049F45E
S113084010924A0340E060E072E080E090E00E9491
S1130850ED1280914B0390914C038E5492408F364D
S11308609105C0F480914D03811114C010924A0384
S113087040E060E072E080E090E00E94ED120895B4
S11308808F3521E0920790F6D7CF8F3521E092077C
S113089000F3CCCF089581E00E94E20090934903D5
S11308A0809348039C012E5432402F36310508F0C2
S11308B0B8C080914E03813099F480914603813011
S11308C029F080914503813009F0D7C081E08093FD
S11308D0470341E060E074E080E090E00E94ED12A4
S11308E08091480390914903805991408D3B910533
S11308F008F0D4C080914E038111A5C080914603B5
S1130900813029F080914503813009F091C081E064
S11309108093470341E060E074E080E090E00E944F
S1130920ED1280914803909149038E5492408F3682
S11309309105B0F480914E03813091F48091460387
S11309408111BEC0809145038111BAC083E08093B8
S1130950470341E060E074E080E090E00E94ED1223
S11309608091480390914903805991408D3B9105B2
S113097008F07EC080914E0381116FC080914603C0
S11309808111A8C0809145038111A4C083E08093A4
S1130990470341E060E074E080E090E00E94ED12E3
S11309A08091480390914903805991408F3591403B
S11309B050F082E08093470341E060E078E080E01B
S11309C090E00E94ED128091480390914903805970
S11309D091408D3B910568F480914E03813049F438
S11309E01092470340E060E074E080E090E00E94F1
S11309F0ED1280914803909149038E5492408F36B2
S1130A00910508F072C080914E0381116EC010925E
S1130A10470340E060E074E080E090E00E94ED1263
S1130A200895805991408D3B910508F463CF41C0EE
S1130A308091480390914903805991408D3B9105E1
S1130A4008F49CCF15C080914803909149038E54BB
S1130A5092408F36910508F46DCF809148039091B0
S1130A604903805991408F35914008F4B5CFA1CF07
S1130A708F35914008F4BDCF9CCF8091480390916D
S1130A804903805991408D3B9105E8F24ACF80910A
S1130A9048039091490380599140EACF80914803DB
S1130AA0909149038E5492408F36910508F442CFB9
S1130AB0EECF809148039091490380599140D8CF5B
S1130AC08091480390914903805991408D3B910551
S1130AD020F2CECF809148039091490380599140F0
S1130AE08F35914008F485CF64CF0895CF93C82FF4
S1130AF0613041F441E061E070E080E090E00E9408
S1130B00ED1207C040E061E070E080E090E00E94F8
S1130B10ED1241E062E070E080E090E00E94ED12AE
S1130B20C4FF08C041E064E070E080E090E00E940F
S1130B30ED1207C040E064E070E080E090E00E94C5
S1130B40ED12C5FF08C041E068E070E080E090E08D
S1130B500E94ED1207C040E068E070E080E090E0A1
S1130B600E94ED12C6FF08C041E060E170E080E041
S1130B7090E00E94ED1207C040E060E170E080E088
S1130B8090E00E94ED12CC2344F441E060E270E076
S1130B9080E090E00E94ED1207C040E060E270E067
S1130BA080E090E00E94ED1240E062E070E080E0BE
S1130BB090E00E94ED128FE39FE10197F1F700C0EE
S1130BC0000041E062E070E080E090E00E94ED12FD
S1130BD0C0FF08C041E064E070E080E090E00E9463
S1130BE0ED1207C040E064E070E080E090E00E9415
S1130BF0ED12C1FF08C041E068E070E080E090E0E1
S1130C000E94ED1207C040E068E070E080E090E0F0
S1130C100E94ED12C2FF08C041E060E170E080E094
S1130C2090E00E94ED1207C040E060E170E080E0D7
S1130C3090E00E94ED12C3FF08C041E060E270E062
S1130C4080E090E00E94ED1207C040E060E270E0B6
S1130C5080E090E00E94ED1240E062E070E080E00D
S1130C6090E00E94ED128FE39FE10197F1F700C03D
S1130C700000CF91089560E082E00E94760560E074
S1130C8088E20E94760560E08CE00E94760560E0D0
S1130C9081E00E94760508950F931F93CF93FC0182
S1130CA08081882361F08F01C0E0CF5F61E00E9402
S1130CB07605F801EC0FF11D80818111F6CFCF91FB
S1130CC01F910F910895CF93DF93EC01623009F4E3
S1130CD049C020F4613009F46DC08AC06330C1F0AA
S1130CE0643009F085C09C01369527953695279583
S1130CF036952795A5ECB0E20E94822292958295C2
S1130D008F7089279F70892761E0805D0E94760536
S1130D109E013695279536952795ABE7B4E10E9459
S1130D208222AC01569547959A01ADECBCEC0E9429
S1130D3082229695879596958795969587959C0199
S1130D40220F331F880F991F880F991F880F991F2F
S1130D50820F931F9A01281B390BC90161E0805D42
S1130D600E9476059E01ADECBCEC0E948222AC018F
S1130D705695479556954795569547959A010E94DD
S1130D8082229695879596958795969587959C0149
S1130D90220F331F880F991F880F991F880F991FDF
S1130DA0820F931F9A01281B390BC90161E0805DF2
S1130DB00E9476059E01ADECBCEC0E9482229695C1
S1130DC0879596958795969587959C01220F331F55
S1130DD0880F991F880F991F880F991F820F931FDF
S1130DE09E01281B390BC90161E0805D0E947605D4
S1130DF0DF91CF9108951092F0031092CA031092DC
S1130E00CC03809185039091860301969093860389
S1130E10809385036091E9037091EA037250072E71
S1130E20000C880B990B0E94F8232EEE34E045EB5E
S1130E305FE30E944E2321EE3AE744E95FE30E9418
S1130E40AD240E94C023AB017093D0036093CF0301
S1130E50209100013091010181EE90E0821B930BFF
S1130E60481759072CF02F513F4F241735074CF5DD
S1130E7080913D0590913E052091F1033091F2035C
S1130E80821B930B8D349D41A4F440E060E470E038
S1130E9080E090E00E94ED1280913D0590913E0526
S1130EA02091F1033091F203821B930B8D349D4109
S1130EB0ECF041E060E470E080E090E00E94ED122C
S1130EC015C081E08093F0038093CA038091D1031D
S1130ED09091D20301969093D2038093D10341E081
S1130EE060E470E080E090E00E94ED1281E0809385
S1130EF0CA0320918503309186034091D103509118
S1130F00D20364E6649FC001659F900D1124B9016A
S1130F100E946822709393036093920324363105F0
S1130F2041F410928603109285031092D20310921A
S1130F30D10380913D0590913E052091F1033091BC
S1130F40F203AC01421B530B9A0128393A4324F0B3
S1130F509093F2038093F103089580914A038230C1
S1130F6039F421E030E0309308042093070404C0EE
S1130F70109208041092070420916A0330916B03C5
S1130F80232B39F421E030E030930A042093090440
S1130F9004C010920A0410920904813039F481E0EB
S1130FA090E090930C0480930B0404C010920C0402
S1130FB010920B0480914703823039F421E030E031
S1130FC030930E0420930D0404C010920E0410926A
S1130FD00D049091CA03911107C021E030E03093D1
S1130FE0100420930F0404C01092100410920F04F4
S1130FF09091CB03913039F421E030E03093120426
S11310002093110404C010921204109211049091C0
S11310108403923039F421E030E0309314042093B7
S1131020130404C010921404109213049091D30377
S1131030913039F421E030E0309318042093170400
S113104004C01092180410921704833038F081E021
S113105090E090931A048093190404C010921A0427
S1131060109219048091050490910604899724F044
S113107010921204109211048091680390916903F4
S1131080899714F110921404109213041DC09081D6
S11310903296890FE217F307D1F78093CC038111BD
S11310A00BC040E060E078E080E090E00E94ED1248
S11310B08091CC03882379F041E060E078E080E01F
S11310C090E00E94ED1208958091CC03E9E0F4E0F1
S11310D02BE134E0DCCF08951F920F920FB60F92EC
S11310E011242F933F934F935F936F937F938F9329
S11310F09F93AF93BF93EF93FF9380913D0590919E
S11311003E05019690933E0580933D050E9478111B
S1131110FF91EF91BF91AF919F918F917F916F91CB
S11311205F914F913F912F910F900FBE0F901F90A1
S113113018951F920F920FB60F9211248F939F93BD
S11311408091DE039091DF0301969093DF038093F7
S1131150DE039F918F910F900FBE0F901F901895F3
S113116041E060E070E880E090E00E94ED12AAE7C0
S1131170B0E08C9180688C93ECE7F0E08081108281
S113118080818064808380818F6D80838C91866070
S11311908C93EBE7F0E080818083EEE7F0E08081E0
S11311A08763808380B7806880BF80E287B992E0DC
S11311B094B988E185B98EEF8AB918B81092800085
S11311C0E1E8F0E080818D608083109285001092C8
S11311D0840029E03DE330938900209388009093B4
S11311E06F00E0EBF0E0808182608083E1EBF0E06F
S11311F08081826080831092B2008FEF8093B3006D
S1131200E0E7F0E08081826080832FEF83EC99E057
S1131210215080409040E1F700C000000E943B064E
S113122060E081E00E94760560E080E80E94760537
S113123087E291E00E944C060E94FB060E94141E65
S11312404E9A0E94141E1092460585E090E09093F9
S1131250DD038093DC031092DF031092DE0383E04E
S1131260809352051092B80310928D031092430597
S113127010926903109268031092060410920504F8
S11312801092EC031092ED031092EE031092EF0310
S11312901092B0031092B1031092B2031092B303F0
S11312A010926B0310926A031092BF031092BE0354
S11312B010920104109200041092B5031092B4032A
S11312C01092CB03109284031092D30383E190E035
S11312D09093E8038093E7038DE990E09093B7033C
S11312E08093B60381E090E00E94D303809352057B
S11312F082E090E00E94D30390E09093DD0380931A
S1131300DC0383E090E00E94D30390E0909301011A
S11313108093000186E090E00E94D303823018F4A9
S113132080934E0303C081E080934E0387E090E0F6
S11313300E94D303823018F480934D0303C081E0EC
S113134080934D0388E090E00E94D30390E0909353
S11313506903809368038B9734F089E290E090935B
S113136069038093680389E090E00E94D30390E0CE
S113137090930604809305048B9734F089E290E0FF
S1131380909306048093050480E190E00E94D303C7
S113139090E09093E8038093E7038138910524F06B
S11313A01092E8031092E70381E190E00E94D303D6
S11313B0682F70E080E090E00E94F6236093EC03D5
S11313C07093ED038093EE039093EF0320E030E0FD
S11313D048E752E40E94A824181664F480E090E0E0
S11313E0A4E7B2E48093EC039093ED03A093EE039F
S11313F0B093EF0382E190E00E94D303682F70E082
S113140080E090E00E94F6236093B0037093B103F0
S11314108093B2039093B30320E030E048EC52E4AD
S11314200E94A824181664F480E090E0A8ECB2E4CA
S11314308093EC039093ED03A093EE03B093EF033A
S113144083E190E00E94D30390E090934F05809352
S11314504E0584E190E00E94D30390E090936103F1
S11314608093600385E190E00E94D30390E0909321
S1131470AF038093AE0386E190E00E94D303C82FAC
S1131480D0E0D0938303C093820360916003709192
S11314906103072E000C880B990B0E94F8232DEC96
S11314A03CEC4CEC5DE30E94AD246B017C0160914B
S11314B04E0570914F05072E000C880B990B0E9466
S11314C0F8239B01AC01C701B6010E94DD226093A1
S11314D03F057093400580934105909342056091C8
S11314E0AE037091AF03072E000C880B990B0E947A
S11314F0F8236B017C01BE01DD0F880B990B0E9460
S1131500F8232DEC3CEC4CEC5DE30E94AD249B01F4
S1131510AC01C701B6010E94DD226093620370939F
S1131520630380936403909365031092530580E0F2
S11315300E94E20090934C0380934B0381E00E944D
S1131540E20090934903809348030E94141E0E9472
S1131550FB060E94AD07789410925E0310925D031F
S113156040E060E070E880E090E00E94ED1211E05D
S1131570C1E0D0E00E94F8000E94DA030E944B040C
S11315800E94FB060E9417140E94AD070E94690185
S113159080915205823009F4C5C01093AD032091A7
S11315A09203309193038091680390916903820FB1
S11315B0931F84369105D4F440E060E470E080E049
S11315C090E00E94ED1210926B0310926A038091D6
S11315D06803909169032091920330919303280F3B
S11315E0391F2436310514F489975CF0D0936B03CA
S11315F0C0936A03412F60E470E080E090E00E94B1
S1131600ED121B9946C080914403811142C0809120
S1131610530581118AC0412F60E070E880E090E0BA
S11316200E94ED12809152058F5F809352051093B2
S11316304403109246051092E2031092E1032FEF47
S113164086E791E0215080409040E1F700C000001F
S11316501092460340E060E870E080E090E00E9471
S1131660ED1280915205843010F010935205609170
S11316705205CE010E94CB038FE39CE90197F1F759
S113168000C00000412F60E070E880E090E00E941C
S1131690ED121B9B12C080914403813071F4809140
S11316A0530581110AC010924605109244038FE33A
S11316B09CE90197F1F700C0000080915205813048
S11316C031F480915305811125C00E94970B8091BC
S11316D05205823031F48091530581111BC00E9460
S11316E03B02809152058330A9F480915305811106
S11316F011C060E080E80E94760588E391E00E94D2
S11317004C060E946B0C40E060E071E080E090E0E9
S11317100E94ED1240E060E070E880E090E00E94FA
S1131720ED1228CF1092AD033ACF83B1C6CF40E07B
S113173060E071E080E090E00E94ED128091460547
S11317408111B9C01C9BB4C0809146038111B0C003
S113175060E080E80E9476058DE491E00E944C06EA
S11317600E946B0C1C9924C080914605882309F4BF
S1131770A7C01EC041E060E070E880E090E00E94F5
S1131780ED1281E0809346052FEF8AE693E0215025
S113179080409040E1F700C000001092DF031092F7
S11317A0DE0340E060E070E880E090E00E94ED122B
S11317B080914605813009F088C01C9B41C080910E
S11317C0460381113DC081E08093460341E060E817
S11317D070E080E090E00E94ED12109246052FEF39
S11317E089EF90E0215080409040E1F700C0000074
S11317F080914605811161C01C994BC080914603BC
S1131800813009F046C08093460541E060E070E80D
S113181080E090E00E94ED122FEF82E597E02150E6
S113182080409040E1F700C0000040E060E070E8D4
S113183080E090E00E94ED1280914605813029F508
S11318401C9B48C080914603813009F043C010922C
S113185046031092460560E080E80E9476058DE418
S113186091E00E944C060E946B0C40E060E870E03E
S113187080E090E00E94ED122FEF89EF90E021507C
S113188080409040E1F700C000008091460581113E
S113189021C0809146038130E9F41092D30360E0C3
S11318A080E80E9476058EE591E00E944C0608953A
S11318B01C9B06C09DCF83B17BCF813009F2089574
S11318C080914603811198CF55CF80914605882396
S11318D009F492CF0895CF93DF938091520581301C
S11318E009F4FEC060E080EC0E9476051092CE03FD
S11318F01092CD03C091E103D091E203C730D1052A
S113190009F0E8C10E949603C091E103D091E2037B
S1131910C730D1050CF074C0FE01EE0FFF1FE95F64
S1131920FB4F80819181019709F060C005C08191CE
S11319309191019709F05FC0C730D10508F051C0FB
S1131940FE01EC5CFF4F0C947C228FE691E00E9438
S11319504C0681E090E09093CE038093CD0341C088
S113196080E891E00E944C0681E090E09093CE03E1
S11319708093CD0336C081E991E00E944C0681E05A
S113198090E09093CE038093CD032BC082EA91E044
S11319900E944C0681E090E09093CE038093CD03A7
S11319A020C083EB91E00E944C0681E090E090938C
S11319B0CE038093CD0315C084EC91E00E944C06C5
S11319C081E090E09093CE038093CD030AC085ED2F
S11319D091E00E944C0681E090E09093CE038093C6
S11319E0CD03D093E203C093E1030AC0FE01EE0FDE
S11319F0FF1FE75FFB4F2196C730D1050CF497CF4B
S1131A008091CD039091CE03892B31F40E949603EB
S1131A101092E2031092E1031C990AC080918D0395
S1131A20811106C081E080938D031C9B54C007C0C4
S1131A301C9B51C080918D03813009F04CC041E062
S1131A4060E070E880E090E00E94ED1210928D0357
S1131A50E091E103F091E203CF0101969093E20358
S1131A608093E103DC01AA0FBB1FA95FBB4F2D913B
S1131A703C91232B49F5873091055CF012C02191EC
S1131A8031912130310549F49093E2038093E103CD
S1131A9008C0EE0FFF1FE55FFB4F019687309105ED
S1131AA071F78091E1039091E203089724F010927A
S1131AB0E2031092E1032FEF89EF90E02150804080
S1131AC09040E1F700C0000040E060E070E880E092
S1131AD090E00E94ED1280915205813009F004C11A
S1131AE060E080EC0E9476051092CE031092CD0344
S1131AF0C091E103D091E203C730D10509F0EFC0F2
S1131B000E949603C091E103D091E203C730D1054E
S1131B100CF074C0FE01EE0FFF1FE95FFB4F8081E4
S1131B209181019709F060C005C08191919101975D
S1131B3009F05FC0C730D10508F051C0FE01E55C73
S1131B40FF4F0C947C228FE691E00E944C0681E0CA
S1131B5090E09093CE038093CD0341C080E891E060
S1131B600E944C0681E090E09093CE038093CD03D5
S1131B7036C081E991E00E944C0681E090E09093A8
S1131B80CE038093CD032BC082EA91E00E944C06E1
S1131B9081E090E09093CE038093CD0320C083EB4B
S1131BA091E00E944C0681E090E09093CE038093F4
S1131BB0CD0315C084EC91E00E944C0681E090E0D6
S1131BC09093CE038093CD030AC085ED91E00E94EB
S1131BD04C0681E090E09093CE038093CD03D093A4
S1131BE0E203C093E1030AC0FE01EE0FFF1FE75FAB
S1131BF0FB4F2196C730D1050CF497CF8091CD03CC
S1131C009091CE03892B31F40E9496031092E20343
S1131C101092E1031D9B0AC080918D03811106C0BF
S1131C2081E080938D031D995FC007C01D995CC03E
S1131C3080918D03813009F057C041E060E070E885
S1131C4080E090E00E94ED1210928D03E091E10398
S1131C50F091E203CF0101969093E2038093E103B4
S1131C60DC01AA0FBB1FA95FBB4F2D913C91232B15
S1131C7049F5873091055CF012C0219131912130F2
S1131C80310549F49093E2038093E10308C0EE0F19
S1131C90FF1FE55FFB4F01968730910571F7809137
S1131CA0E1039091E203089724F01092E20310926A
S1131CB0E1032FEF89EF90E0215080409040E1F75D
S1131CC000C0000040E060E070E880E090E00E9426
S1131CD0ED120AC0C730D1050CF41ECE97CEC73022
S1131CE0D1050CF417CF90CFDF91CF910895809157
S1131CF05803909159038D30910509F0F0C2EBE13E
S1131D00F4E0228D338D8091E3039091E403822BE0
S1131D10932B24893589220F331F220F331F220F5F
S1131D20331F822B932B26893789220F331F220FCF
S1131D30331F822B932B208D318D220F331F822B47
S1131D40932B9093E4038093E30308C0299A459A64
S1131D5080915803909159030D9711F4299A459A4B
S1131D6080915803909159030E9761F48091070470
S1131D7090910804019721F08091E0038230B1F43E
S1131D80299A459A80915803909159038D30910571
S1131D900CF4ADC2469711F4299A459A80915803E0
S1131DA0909159034F9711F4299A459A80915803B9
S1131DB090915903889711F4299A459A8091580370
S1131DC090915903C19711F4299A459A8091580327
S1131DD090915903CA9711F4299A459A809158030E
S1131DE0909159038334910511F4299A459A80916D
S1131DF05803909159038C34910511F4299A459A0A
S1131E008091E3039091E4038230910509F46AC060
S1131E101CF4892B49F008958330910509F47FC09F
S1131E200E9709F4F7C108958091580390915903CE
S1131E30099711F4299A459A80915803909159036E
S1131E400D9711F4299A459A80915803909159035A
S1131E500E9761F48091070490910804019721F092
S1131E608091E003823091F4299A459A8091580335
S1131E7090915903469711F4299A459A80915803F1
S1131E80909159034F9711F4299A459A80915803D8
S1131E9090915903889711F4299A459A809158038F
S1131EA090915903C19711F4299A459A8091580346
S1131EB090915903CA9711F4299A459A809158032D
S1131EC0909159038334910511F4299A459A80918C
S1131ED05803909159038C34910509F008C2299A4A
S1131EE0459A089580915803909159030D9711F4E0
S1131EF0299A459A80915803909159030E9709F0B5
S1131F00F6C18091070490910804019729F080910B
S1131F10E003823009F0EBC1299A459A0895809133
S1131F205803909159030D9711F4299A459A809179
S1131F305803909159030E9761F48091070490918E
S1131F400804019721F08091E003823091F4299AEA
S1131F50459A8091580390915903469711F4299A10
S1131F60459A80915803909159034F9711F4299AF7
S1131F70459A8091580390915903889711F4299AAE
S1131F80459A8091580390915903C19711F4299A65
S1131F90459A8091580390915903CA9711F4299A4C
S1131FA0459A80915803909159038334910511F413
S1131FB0299A459A80915803909159038C3491053C
S1131FC011F4299A459A80915803909159039C01E0
S1131FD02E5031092830310520F525E130E0281B49
S1131FE0390B8091B6039091B70302C095958795FC
S1131FF02A95E2F78170992720918703309188030D
S1132000822B932B9093880380938703019711F479
S1132010299A459A8091870390918803892B09F422
S1132020299880915803909159034F97A9F480916E
S1132030870390918803816090938803809387033A
S1132040019709F04DC0299A459A80918703909190
S11320508803892B09F42998809158039091590396
S113206082970297D8F48091AD03682F617070E075
S11320708091870390918803682B792B7093880350
S1132080609387036130710511F4299A459A809110
S1132090870390918803892B09F429988091580328
S11320A0909159038797E1F480914905482F417035
S11320B050E08091870390918803482B592B5093CB
S11320C08803409387034130510509F00CC1299AD4
S11320D0459A8091870390918803892B09F4299864
S11320E02091580330915903C901C397069760F5AD
S11320F080914B0390914C0399230CF4039695958E
S113210087959595879549E350E0BA01621B730B57
S113211002C0959587956A95E2F781709927209179
S1132120870330918803822B932B909388038093A9
S11321308703019711F4299A459A80918703909116
S11321408803892B09F429988091580390915903A5
S11321509C012C5331092730310520F522E430E06D
S1132160281B390B809156039091570302C0959513
S113217087952A95E2F781709927209187033091FA
S11321808803822B932B9093880380938703019772
S113219011F4299A459A8091870390918803892B99
S11321A009F429982091580330915903C9018554A1
S11321B09109079708F09BC08091480390914903C7
S11321C099230CF4039695958795959587954BE4FB
S11321D050E0BA01621B730B02C0959587956A950E
S11321E0E2F7817099272091870330918803822B2D
S11321F0932B9093880380938703019711F4299A72
S1132200459A8091870390918803892B09F06FC0C8
S11322102998089580915803909159030D9711F4CA
S1132220299A459A80915803909159034E9711F435
S1132230299A459A80915803909159038D9711F4E6
S1132240299A459A80915803909159038E9709F0E1
S11322504EC08091610490916204019769F4809169
S11322606F0490917004019739F441E060E070E8E4
S113227080E090E00E94ED128091630490916404E8
S1132280019779F48091710490917204019749F453
S113229040E060E070E880E090E00E94ED1210926F
S11322A0E0038091670490916804019749F4809158
S11322B0750490917604019719F482E08093E00309
S11322C08091650490916604019789F48091730468
S11322D090917404019759F41092E00308950997BA
S11322E009F03ECD33CD452B09F4F9CE5BCF0895EB
S11322F0599A23B1822F817090E0909304048093C3
S113230003048130910509F02AC18091B903811138
S11323105EC18091BA039091BB039C01295031099D
S11323202230310528F41092BB031092BA032EC058
S11323304297039738F481E090E09093BB03809335
S1132340BA0342C08091BA039091BB034B9708979C
S1132350E8F482E090E09093BB038093BA03109278
S11323605903109258031092670310926603109257
S11323709503109294031092E4031092E30320E077
S113238030E090931C0480931B0482C08091BA03B4
S11323909091BB03893E9340BCF010925903109274
S11323A058031092670310926603109295031092DB
S11323B094031092E4031092E3031092E00310924A
S11323C01C0410921B0474C02091580330915903CB
S11323D0F901EE0FFF1FE55EFB4F8091BA03909168
S11323E0BB03918380832830310509F051C0EBE1B0
S11323F0F4E0208931898091940390919503822B94
S1132400932B24813581002436952795079436959E
S113241027950794322F202D822B932B26813781E9
S1132420220F331F22953295307F3227207F3227A7
S1132430822B932B2085318522953295307F32274C
S1132440207F3227822B932B22853385220F331F43
S1132450220F331F220F331F822B932B24853585A4
S1132460220F331F220F331F822B932B2685378590
S1132470220F331F822B932B909395038093940305
S1132480009709F09BC0109297031092960396C090
S113249040919403509195038091E7039091E80350
S11324A04817590729F42830310514F00E94770E93
S11324B081E08093B9031092EB031092BB03109256
S11324C0BA03109288031092870380911D0490919F
S11324D01E04019711F580911F0490912004892B0B
S11324E0E1F480915803909159030297B1F48091DB
S11324F09603909197030196909397038093960384
S11325002091E7033091E8038217930731F4909305
S1132510950380939403299A459A80915803909146
S113252059030196909359038093580380910304AF
S1132530909104048130910509F449C010C0809140
S1132540900390919103019690939103809390034B
S11325508091030490910404892BE9F02DC0892B08
S113256059F58091EB03811116C02998459881E0B3
S11325708093EB031092B90310929103109290038D
S113258010926703109266038091030490910404EF
S1132590892B29F011C08091EB03813069F41092EA
S11325A09103109290038091BA039091BB0301961A
S11325B09093BB038093BA03599808952091E7033D
S11325C03091E8038217930709F072CF6FCF80919F
S11325D0B903813009F4B3CFEFCF0F931F93413088
S11325E0B9F400914F03109150032091510330919D
S11325F05203DC01CB01802B912BA22BB32B8093B4
S11326004F0390935003A0935103B09352031AC005
S113261000914F03109150032091510330915203C4
S1132620DC01CB0180959095A095B09580239123F2
S1132630A223B32380934F0390935003A093510399
S1132640B09352035B985C9880914F039091500330
S1132650A0915103B091520397FF02C05A9A01C04E
S11326605A985C9A5C9880914F0390915003A09182
S11326705103B091520396FF02C05A9A01C05A986E
S11326805C9A5C9880914F0390915003A091510300
S1132690B091520395FF02C05A9A01C05A985C9AAD
S11326A05C9880914F0390915003A0915103B09195
S11326B0520394FF02C05A9A01C05A985C9A5C98DB
S11326C080914F0390915003A0915103B091520314
S11326D093FF02C05A9A01C05A985C9A5C98809100
S11326E04F0390915003A0915103B091520392FF74
S11326F002C05A9A01C05A985C9A5C9880914F0320
S113270090915003A0915103B091520391FF02C0E4
S11327105A9A01C05A985C9A5C9880914F039091A0
S11327205003A0915103B091520390FF02C05A9AF2
S113273001C05A985C9A5C9880914F039091500321
S1132740A0915103B091520387FF02C05A9A01C06D
S11327505A985C9A5C9880914F0390915003A09191
S11327605103B091520386FF02C05A9A01C05A988D
S11327705C9A5C9880914F0390915003A09151030F
S1132780B091520385FF02C05A9A01C05A985C9ACC
S11327905C9880914F0390915003A0915103B091A4
S11327A0520384FF02C05A9A01C05A985C9A5C98FA
S11327B080914F0390915003A0915103B091520323
S11327C083FF02C05A9A01C05A985C9A5C9880911F
S11327D04F0390915003A0915103B091520382FF93
S11327E002C05A9A01C05A985C9A5C9880914F032F
S11327F090915003A0915103B091520381FF02C004
S11328005A9A01C05A985C9A5C9880914F039091AF
S11328105003A0915103B091520380FF02C05A9A11
S113282001C05A985C9A5B9A1F910F910895CF92B8
S1132830DF92EF92FF921D9B40C08091B8038111FB
S11328403CC080915205833011F00C940C1E41E081
S113285060E070E880E090E00E94ED128091530502
S11328608F5F8093530581E08093B8032FEF30E7A7
S113287082E0215030408040E1F700C0000060E079
S113288080EC0E94760586EE91E00E944C068091D1
S113289053058A3028F083E0809352051092530543
S11328A06091530580E090E00E94CB0340E060E03B
S11328B070E880E090E00E94ED121D9913C08091B1
S11328C0B803813079F480915205833059F4109221
S11328D0B8039FEF29EF30E0915020403040E1F7FA
S11328E000C0000080915305813009F082C060E08F
S11328F080E80E94760587EF91E00E944C0660E034
S113290080EC0E94760588E092E00E944C0660E02C
S11329108EEC0E94760580910001909101016AE09D
S113292070E00E946822CB0161E00E94630660E0CF
S11329308FEC0E947605809100019091010164E67C
S113294070E00E94682261E00E9463061B9935C012
S113295080918D03811131C041E060E070E880E036
S113296090E00E94ED128091000190910101029685
S1132970893291052CF4909301018093000104C0E5
S1132980109201011092000181E080938D03609107
S1132990000183E090E00E94CB038FEF99EF20E0E9
S11329A0815090402040E1F700C0000040E060E02A
S11329B070E880E090E00E94ED121B9B1AC08091A9
S11329C08D038130B1F410928D0341E060E070E832
S11329D080E090E00E94ED128FE39CE90197F1F70B
S11329E000C0000040E060E070E880E090E00E94F9
S11329F0ED1280915305823009F093C060E080E8C5
S1132A000E94760586E192E00E944C0660E080EC2C
S1132A100E94760587E292E00E944C0660E08CEC0E
S1132A200E94760581E392E00E944C0682E090E0E9
S1132A300E94D30390E09093DD038093DC0360E075
S1132A408AEC0E9476058091DC039091DD036AE0B4
S1132A5070E00E946822CB0161E00E94630660E09E
S1132A608BEC0E9476058091DC039091DD0364E693
S1132A7070E00E94682261E00E9463061B9935C0E1
S1132A8080918D03811131C041E060E070E880E005
S1132A9090E00E94ED128091DC039091DD03019699
S1132AA0853191052CF49093DD038093DC0304C0FD
S1132AB01092DD031092DC0381E080938D0360911A
S1132AC0DC0382E090E00E94CB039FEF29EF30E02B
S1132AD0915020403040E1F700C0000040E060E049
S1132AE070E880E090E00E94ED121B9B1AC0809178
S1132AF08D038130B1F410928D0341E060E070E801
S1132B0080E090E00E94ED128FE39CE90197F1F7D9
S1132B1000C0000040E060E070E880E090E00E94C7
S1132B20ED1280915305833009F0C1C060E080E864
S1132B300E94760586E392E00E944C0681E00E94A2
S1132B40E200909349038093480360E08DEC0E9477
S1132B50760580914803909149036AE070E00E94F1
S1132B606822CB0162E00E94630660E08FEC0E9461
S1132B707605809148039091490364E670E00E94D1
S1132B80682261E00E94630680914E03811108C0AF
S1132B9060E080EC0E94760586E492E00E944C0698
S1132BA080914E03813041F460E080EC0E94760510
S1132BB082E592E00E944C061B995AC0809143051D
S1132BC0811156C041E060E070E880E090E00E942E
S1132BD0ED1280914E03811120C080914305811133
S1132BE040C081E08093430580934E0360E080EC15
S1132BF00E94760582E592E00E944C0660914E03A5
S1132C0086E090E00E94CB039FEF20E732E09150F2
S1132C1020403040E1F700C0000080914E03813035
S1132C2001F58091430581111CC081E08093430527
S1132C3010924E0360E080EC0E94760586E492E0F8
S1132C400E944C0660914E0386E090E00E94CB0304
S1132C508FEF90E722E0815090402040E1F700C0E0
S1132C60000040E060E070E880E090E00E94ED1237
S1132C701B9B1DC0809143058130C9F441E060E095
S1132C8070E880E090E00E94ED12109243053FEF5F
S1132C9080E792E0315080409040E1F700C00000AE
S1132CA040E060E070E880E090E00E94ED128091E6
S1132CB05305843009F0C1C060E080E80E947605C5
S1132CC08FE592E00E944C0682E00E94E20090931D
S1132CD04C0380934B0360E08DEC0E947605809159
S1132CE04B0390914C036AE070E00E946822CB0190
S1132CF062E00E94630660E08FEC0E94760580919A
S1132D004B0390914C0364E670E00E94682261E0FA
S1132D100E94630680914D03811108C060E080EC3D
S1132D200E94760586E492E00E944C0680914D0351
S1132D30813041F460E080EC0E94760582E592E007
S1132D400E944C061B995AC080914305811156C0BC
S1132D5041E060E070E880E090E00E94ED12809134
S1132D604D03811120C080914305811140C081E051
S1132D708093430580934D0360E080EC0E947605C8
S1132D8082E592E00E944C0660914D0387E090E05A
S1132D900E94CB032FEF30E782E021503040804087
S1132DA0E1F700C0000080914D03813001F580916E
S1132DB0430581111CC081E08093430510924D03AB
S1132DC060E080EC0E94760586E492E00E944C0666
S1132DD060914D0387E090E00E94CB039FEF20E7D2
S1132DE032E0915020403040E1F700C0000040E064
S1132DF060E070E880E090E00E94ED121B9B1DC033
S1132E00809143058130C9F441E060E070E880E0DE
S1132E1090E00E94ED12109243058FEF90E722E0BC
S1132E20815090402040E1F700C0000040E060E0A5
S1132E3070E880E090E00E94ED12809153058530A7
S1132E4009F0D0C181E190E00E94D303682F70E0C3
S1132E5080E090E00E94F6236B017C016093EC0318
S1132E607093ED038093EE039093EF0320E030E042
S1132E7040E752E40E94492318160CF44AC020E0AB
S1132E8030E040E251ECC701B6010E94A824882337
S1132E900CF43FC060E080E80E9476058FE692E083
S1132EA00E944C0660E080EC0E9476058FE792E079
S1132EB00E944C0660E08EEC0E94760520E030E033
S1132EC040E251E46091EC037091ED038091EE03D4
S1132ED09091EF030E944E230E94C723DC01CB0193
S1132EE061E00E94630660E08FEC0E9476056091C9
S1132EF0EC037091ED038091EE039091EF030E9437
S1132F00C023CB0164E670E00E94682261E00E9465
S1132F106306C090EC03D090ED03E090EE03F090D4
S1132F20EF0320E030E040E752E4C701B6010E941D
S1132F30A824181654F020E030E040E251ECC70118
S1132F40B6010E944923882384F460E080E80E944B
S1132F5076058EE892E00E944C0660E080EC0E94C8
S1132F6076058FE992E00E944C061B99A4C08091DB
S1132F708D038111A0C041E060E070E880E090E042
S1132F800E94ED1281E080938D03E090DE03F090C7
S1132F90DF038091BE039091BF039701281B390B77
S1132FA0309354032093530322303105ECF11B99E1
S1132FB03BC020E030E040E050E46091EC037091CD
S1132FC0ED038091EE039091EF030E94DD22609364
S1132FD0EC037093ED038093EE039093EF03F09270
S1132FE0BF03E092BE0310928D0360E08AEC0E945E
S1132FF07605809153039091540364E670E00E9437
S1133000682261E00E94630660E08CEC0E94760511
S113301080915303909154036AE070E00E94682207
S1133020CB0162E00E94630620E030E040E050E41F
S11330306091EC037091ED038091EE039091EF03A6
S11330400E94DD226B017C0120E030E048E752E47D
S11330500E94A82418164CF0C092EC03D092ED0301
S1133060E092EE03F092EF0308C01092EC0310928A
S1133070ED031092EE031092EF036091EC03709154
S1133080ED038091EE039091EF030E94C72381E149
S113309090E00E94CB033FEF89EF90E031508040F5
S11330A09040E1F700C0000040E060E070E880E09C
S11330B090E00E94ED121B9B22C080918D03813011
S11330C0F1F441E060E070E880E090E00E94ED12ED
S11330D08091DE039091DF039093BF038093BE033E
S11330E010928D038FE39CE90197F1F700C0000073
S11330F040E060E070E880E090E00E94ED121C99EE
S113310055C080914305811151C041E060E070E8F1
S113311080E090E00E94ED1220E030E040E85FE3C0
S11331206091EC037091ED038091EE039091EF03B5
S11331300E94DC226B017C0120E030E040E251EC93
S11331400E94492388234CF0C092EC03D092ED03F3
S1133150E092EE03F092EF0308C01092EC03109299
S1133160ED031092EE031092EF0381E08093430588
S11331706091EC037091ED038091EE039091EF0365
S11331800E94C72381E190E00E94CB039FEF29EFC7
S113319030E0915020403040E1F700C0000040E0B2
S11331A060E070E880E090E00E94ED121C9B1AC081
S11331B0809143058130B1F441E060E070E880E043
S11331C090E00E94ED12109243058FE39CE9019771
S11331D0F1F700C0000040E060E070E880E090E0BB
S11331E00E94ED1280915305863009F062C189E096
S11331F090E00E94D30390E090930604809305042A
S113320020E030E046EC52E46091B0037091B103E9
S11332108091B2039091B3030E94492318160CF4D1
S11332203FC060E080E80E94760580EB92E00E9457
S11332304C0660E080EC0E94760581EC92E00E94EE
S11332404C0660E08EEC0E94760520E030E040E21F
S113325051E46091B0037091B1038091B2039091F5
S1133260B3030E944E230E94C723DC01CB0161E01B
S11332700E94630660E08FEC0E9476056091B003C3
S11332807091B1038091B2039091B3030E94C02363
S1133290CB0164E670E00E94682261E00E9463064C
S11332A020E030E046EC52E46091B0037091B10349
S11332B08091B2039091B3030E94A824181684F459
S11332C060E080E80E9476058EE892E00E944C0659
S11332D060E080EC0E94760580ED92E00E944C064E
S11332E01B9955C080918D03811151C041E060E06C
S11332F070E880E090E00E94ED1220E030E040E0D1
S113330050E46091B0037091B1038091B203909145
S1133310B3030E94DD226B017C0120E030E048EC25
S113332052E40E94A82418164CF0C092B003D09224
S1133330B103E092B203F092B30308C01092B00359
S11333401092B1031092B2031092B30381E0809300
S11333508D036091B0037091B1038091B203909199
S1133360B3030E94C72382E190E00E94CB039FEF46
S113337029EF30E0915020403040E1F700C00000D8
S113338040E060E070E880E090E00E94ED121B9B5A
S11333901AC080918D038130B1F410928D0341E005
S11333A060E070E880E090E00E94ED128FE39CE919
S11333B00197F1F700C0000040E060E070E880E0B1
S11333C090E00E94ED121C9958C080914305811130
S11333D054C041E060E070E880E090E00E94ED12AB
S11333E020E030E040E85FE36091B0037091B10306
S11333F08091B2039091B3030E94DC226B017C01A3
S113340020E030E0A9010E94492388234CF0C092B7
S1133410B003D092B103E092B203F092B3030CC0B4
S113342080E090E0A8ECB2E48093B0039093B10301
S1133430A093B203B093B30381E0809343056091FA
S1133440B0037091B1038091B2039091B3030E94D1
S1133450C72382E190E00E94CB039FEF29EF30E085
S1133460915020403040E1F700C0000040E060E0AF
S113347070E880E090E00E94ED121C9B1AC08091DD
S113348043058130B1F441E060E070E880E090E011
S11334900E94ED12109243058FE39CE90197F1F726
S11334A000C0000040E060E070E880E090E00E942E
S11334B0ED1280915305873009F07CC1C090EC0374
S11334C0D090ED03E090EE03F090EF0320E030E0C5
S11334D044E752E4C701B6010E94A82488231CF0E3
S11334E088E08093530520E030E040EB50E46091A5
S11334F03F057091400580914105909142050E94DD
S113350049231816CCF120E030E044E752E4C70127
S1133510B6010E94492388237CF560E080E80E947C
S1133520760580EB92E00E944C0660E080EC0E94FD
S11335307605809142058F93809141058F93809108
S113354040058F9380913F058F9381EE92E09F9386
S11335508F9380E793E09F938F930E94442680E7A4
S113356093E00E944C062DB73EB7285F3F4F0FB63D
S1133570F8943EBF0FBE2DBF20E030E040EB50E496
S113358060913F05709140058091410590914205FD
S11335900E94A824181644F410923F051092400586
S11335A010924105109242051B9974C080918D03BD
S11335B0811170C041E060E070E880E090E00E941A
S11335C0ED122DEC3CEC4CEC5DE360913F05709109
S11335D0400580914105909142050E94DD226B01D6
S11335E07C0120E030E040EB50E40E94A82418164F
S11335F04CF0C0923F05D0924005E0924105F09214
S1133600420508C010923F051092400510924105F2
S11336101092420581E080938D0360913F05709183
S1133620400580914105909142050E94C023262FB8
S113363060934E0570934F05862F972F880F991F1F
S1133640AC01440F551F440F551F840F951F6AE0AA
S113365070E00E9468229093610380936003622F5C
S113366083E190E00E94CB036091600384E190E0E9
S11336700E94CB033FEF89EF90E0315080409040AF
S1133680E1F700C0000040E060E070E880E090E016
S11336900E94ED121B9B1AC080918D038130B1F4FE
S11336A010928D0341E060E070E880E090E00E94B9
S11336B0ED128FE39CE90197F1F700C0000040E0B0
S11336C060E070E880E090E00E94ED121C9956C022
S11336D080914305811152C041E060E070E880E0D0
S11336E090E00E94ED122DEC3CEC4CEC5DE360911B
S11336F03F057091400580914105909142050E94DB
S1133700DC226B017C0120E030E0A9010E94492306
S113371088234CF0C0923F05D0924005E0924105C9
S1133720F09242050CC083E393E3A3EBB0E48093EF
S11337303F0590934005A0934105B093420581E075
S11337408093430560914E0583E190E00E94CB0392
S11337506091600384E190E00E94CB039FEF29EF26
S113376030E0915020403040E1F700C0000040E0DC
S113377060E070E880E090E00E94ED121C9B1AC0AB
S1133780809143058130B1F441E060E070E880E06D
S113379090E00E94ED12109243058FE39CE901979B
S11337A0F1F700C0000040E060E070E880E090E0E5
S11337B00E94ED1280915305883009F07CC1C090BD
S11337C0B003D090B103E090B203F090B30320E0D3
S11337D030E048EC52E4C701B6010E94A8248823D3
S11337E01CF089E08093530520E030E040E251E48E
S11337F06091620370916303809164039091650307
S11338000E9449231816CCF120E030E048EC52E441
S1133810C701B6010E94492388237CF560E080E853
S11338200E94760580EB92E00E944C0660E080ECFA
S11338300E947605809165038F93809164038F9332
S1133840809163038F93809162038F9383EF92E05F
S11338509F938F9380E793E09F938F930E944426D6
S113386080E793E00E944C062DB73EB7285F3F4F98
S11338700FB6F8943EBF0FBE2DBF20E030E040E20B
S113388051E46091620370916303809164039091A9
S113389065030E94A824181644F41092620310923F
S11338A0630310926403109265031B9974C08091A2
S11338B08D03811170C041E060E070E880E090E029
S11338C00E94ED1220E030E040E05FE3609162038B
S11338D07091630380916403909165030E94DD22DB
S11338E06B017C0120E030E040E251E40E94A82416
S11338F018164CF0C0926203D0926303E092640302
S1133900F092650308C01092620310926303109250
S113391064031092650381E080938D0360916203D8
S11339207091630380916403909165030E94C023A6
S1133930262F6093AE037093AF03862F972F880FC3
S1133940991FAC01440F551F440F551F840F951F39
S11339506AE070E00E94682290938303809382035C
S1133960622F85E190E00E94CB036091820386E19F
S113397090E00E94CB033FEF89EF90E0315080400C
S11339809040E1F700C0000040E060E070E880E0B3
S113399090E00E94ED121B9B1AC080918D03813030
S11339A0B1F410928D0341E060E070E880E090E0B3
S11339B00E94ED128FE39CE90197F1F700C000002B
S11339C040E060E070E880E090E00E94ED121C9915
S11339D056C080914305811152C041E060E070E817
S11339E080E090E00E94ED1220E030E040E05FE3F0
S11339F06091620370916303809164039091650305
S1133A000E94DC226B017C0120E030E0A9010E94CD
S1133A10492388234CF0C0926203D0926303E0925E
S1133A206403F09265030CC080E090E0A0E2B1E48E
S1133A308093620390936303A0936403B09365033C
S1133A4081E0809343056091AE0385E190E00E949C
S1133A50CB036091820386E190E00E94CB039FEF49
S1133A6029EF30E0915020403040E1F700C00000E1
S1133A7040E060E070E880E090E00E94ED121C9B62
S1133A801AC0809143058130B1F441E060E070E8F0
S1133A9080E090E00E94ED12109243058FE39CE9D0
S1133AA00197F1F700C0000040E060E070E880E0BA
S1133AB090E00E94ED1280915305893009F0AFC067
S1133AC060E08DE80E94760563E08091890390911F
S1133AD08A030E9463068091E7039091E80380388B
S1133AE091057CF560E080E80E94760584E093E02F
S1133AF00E944C0660E080EC0E94760589EE91E01D
S1133B000E944C0660E08CEC0E9476058091E703ED
S1133B109091E8036AE070E00E946822CB0162E0C1
S1133B200E94630660E08EEC0E9476058091E703B4
S1133B309091E80364E670E00E94682261E00E94CC
S1133B4063068091E7039091E8038038910581F43E
S1133B5060E080E80E94760585E193E00E944C06CF
S1133B6060E080EC0E94760586E293E00E944C06B9
S1133B701B9935C080918D03811131C041E060E013
S1133B8070E880E090E00E94ED128091E70390914C
S1133B90E8030196813891052CF49093E80380930F
S1133BA0E70304C01092E8031092E70381E08093D6
S1133BB08D036091E70380E190E00E94CB039FEFC7
S1133BC029EF30E0915020403040E1F700C0000080
S1133BD040E060E070E880E090E00E94ED121B9B02
S1133BE01EC080918D038130D1F410928D0341E089
S1133BF060E070E880E090E00E94ED128FE39CE9C1
S1133C000197F1F700C0000040E060E070E880E058
S1133C1090E00E94ED1203C083B10C947214FF90E3
S1133C20EF90DF90CF9008950F931F93CF93DF937E
S1133C3060E080EC0E94760587E393E00E944C06E6
S1133C406091FC037091FD037250072E000C880BE9
S1133C50990B0E94F8232EEE34E045EB5FE30E94BB
S1133C604E2321EE3AE744E95FE30E94AD240E942B
S1133C70C02370934D0560934C0560E081EC0E9475
S1133C80760580914C0590914D050AE010E0B8014D
S1133C900E946822CB0162E00E94630660E083EC2C
S1133CA00E94760580914C0590914D05C4E6D0E0C4
S1133CB0BE010E94682261E00E9463060E94F8002F
S1133CC060E084EC0E94760589E393E00E944C0650
S1133CD060918B0370918C037250072E000C880B3B
S1133CE0990B0E94F8232EEE34E045EB5FE30E942B
S1133CF04E2321EE3AE744E95FE30E94AD240E949B
S1133D00C0237093BD036093BC0360E087EC0E9402
S1133D1076058091BC039091BD03B8010E9468228E
S1133D20CB0162E00E94630660E089EC0E947605A4
S1133D308091BC039091BD03BE010E94682261E0A2
S1133D400E9463060E94F80060E08AEC0E947605F7
S1133D508DE393E00E944C066091E9037091EA03BD
S1133D607250072E000C880B990B0E94F8232EEE3C
S1133D7034E045EB5FE30E944E2321EE3AE744E949
S1133D805FE30E94AD240E94C0237093810360937B
S1133D90800360E08DEC0E94760580918003909111
S1133DA08103B8010E946822CB0162E00E9463068D
S1133DB060E08FEC0E9476058091800390918103EE
S1133DC0BE010E94682261E00E946306DF91CF91E8
S1133DD01F910F910895A0E1B0E0E1EFFEE10C9492
S1133DE091227C011B016A01FC01178216828381E6
S1133DF081FF44C39E012F5F3F4F3901F701938137
S1133E00F10193FD859193FF81911F01882309F4AA
S1133E1031C3853239F493FD859193FF81911F015C
S1133E20853239F4B70190E00E94082656016501F5
S1133E30E5CF10E0512C912CFFE1F915D8F08B322D
S1133E4079F038F4803279F08332A1F4F92DF061FD
S1133E502EC08D3261F0803369F4292D21602DC08C
S1133E60392D3260932E892D8460982E2AC0E92D35
S1133E70E86015C097FC2DC020ED280F2A3088F487
S1133E8096FE06C03AE0139F200D1124122F19C08C
S1133E908AE0589E200D1124522EE92DE0629E2EB8
S1133EA010C08E3231F496FCE5C2F92DF0649F2ED9
S1133EB008C08C3621F4292D2068922E02C0883641
S1133EC041F4F10193FD859193FF81911F018111CB
S1133ED0B3CF9BEB980F933020F4992D9061805EC3
S1133EE007C09BE9980F933008F066C1992D9F7E17
S1133EF096FF16E09F73992E853619F49064992ED7
S1133F0008C0863621F4392F3068932E02C011116F
S1133F10115097FE07C01C3350F444244394410EBF
S1133F2027E00BC0183038F027E017E005C027E081
S1133F309CE3492E02C0212F412C560184E0A80E97
S1133F40B11CF6016081718182819381042DA301EA
S1133F500E941A256C01F981FC87F0FF02C0F3FF6F
S1133F6006C091FC06C092FE06C000E205C00DE248
S1133F7003C00BE201C000E08C858C7019F00111C4
S1133F805AC29BC297FE10C04C0CFC85F4FF04C0BF
S1133F908A81813309F44A94141474F528E02415B1
S1133FA078F588E0482E2CC096FC2AC0812F90E03A
S1133FB08C159D059CF03CEFC3163FEFD30674F0BF
S1133FC0892D8068982E0AC0E2E0F0E0EC0FFD1F16
S1133FD0E10FF11D8081803319F411501111F4CFD8
S1133FE097FE0EC044244394410E812F90E0C816DE
S1133FF0D9062CF41C1904C04424439401C010E0D5
S113400097FE06C01C141D0434F4C601019605C0B5
S113401085E090E002C081E090E001110196112357
S113402031F0212F30E02F5F3F4F820F931F252D5A
S113403030E08217930714F4581A01C0512C892DCB
S1134040897049F4552039F0B70180E290E00E946C
S113405008265A94F7CF002329F0B701802F90E067
S11340600E94082693FC09C0552039F0B70180E36B
S113407090E00E9408265A94F7CF97FE4CC0460160
S1134080D7FE02C0812C912CC60188199909F3012D
S1134090E80FF91FFE87ED87960124193109388B43
S11340A02F87012F10E01195019511093FEF831619
S11340B0930629F4B7018EE290E00E940826C81402
S11340C0D9044CF08F8598898815990524F4ED85D9
S11340D0FE85818101C080E3F1E08F1A91082D856E
S11340E03E852F5F3F4F3E872D87801691062CF02B
S11340F0B70190E00E940826D9CFC814D90441F42E
S11341009A81963320F4953319F43C8534FF81E386
S1134110B70190E04EC08A81813319F09C859F7E5F
S11341209C87B70190E00E940826111105C094FCF9
S113413018C085E690E017C0B7018EE290E00E94B7
S113414008261E5F82E001E0080FF301E80FF11D6D
S11341508081B70190E00E940826802F0113F3CFDD
S1134160E6CF85E490E0B7010E940826D7FC06C09C
S1134170C114D10441F4EC85E4FF05C0D194C19489
S1134180D1088DE201C08BE2B70190E00E940826BD
S113419080E32AE0C216D1042CF08F5FFAE0CF1A34
S11341A0D108F7CFB70190E00E940826B701C601F5
S11341B0C0960E94082654C1833631F0833779F0C3
S11341C0833509F056C020C0560132E0A30EB11C5D
S11341D0F6018081898301E010E0630112C0560179
S11341E0F2E0AF0EB11CF601C080D18096FE03C090
S11341F0612F70E002C06FEF7FEFC6010E94FD25C2
S11342008C01F92DFF7714C0560122E0A20EB11CD7
S1134210F601C080D18096FE03C0612F70E002C019
S11342206FEF7FEFC6010E94F2258C01F92DF06833
S11342309F2EF3FD1AC0852D90E008171907A8F4E6
S1134240B70180E290E00E9408265A94F4CFF60168
S113425097FC859197FE81916F01B70190E00E94D0
S1134260082651105A94015011090115110579F7C6
S1134270F7C0843611F0893661F5560197FE09C0FE
S113428024E0A20EB11CF6016081718182819381C8
S11342900AC0F2E0AF0EB11CF60160817181072EF5
S11342A0000C880B990BF92DFF769F2E97FF09C000
S11342B090958095709561957F4F8F4F9F4FF068D3
S11342C09F2E2AE030E0A3010E946626C82EC6185D
S11342D03FC0092D853721F40F7E2AE030E01DC050
S11342E0097F8F3691F018F4883559F0C3C08037B0
S11342F019F0883711F0BEC0006104FF09C00460E2
S113430007C094FE08C0066006C028E030E005C07F
S113431020E130E002C020E132E0560107FF09C08D
S113432084E0A80EB11CF6016081718182819381C1
S113433008C0F2E0AF0EB11CF6016081718180E02B
S113434090E0A3010E946626C82EC6180F77902E0F
S113435096FE0BC0092D0E7FC11650F494FE0AC0C0
S113436092FC08C0092D0E7E05C0DC2C092D03C06B
S1134370DC2C01C0D12E04FF0DC0FE01EC0DF11D9B
S11343808081803311F4097E09C002FF06C0D394F2
S1134390D39404C0802F867809F0D39403FD11C010
S11343A000FF06C01C2DD51480F4150D1D190DC079
S11343B0D51458F4B70180E290E00E940826D39403
S11343C0F7CFD51410F45D1801C0512C04FF10C0B0
S11343D0B70180E390E00E94082602FF17C001FDA8
S11343E003C088E790E002C088E590E0B7010CC004
S11343F0802F867859F001FF02C08BE201C080E271
S113440007FD8DE2B70190E00E940826C11638F43A
S1134410B70180E390E00E9408261150F7CFCA94B8
S1134420F301EC0DF11D8081B70190E00E94082694
S1134430C110F5CF15C0F4E0F51560F584E0581A05
S113444093FE1FC0011127C02C8523FF2AC004E856
S113445010E0392D3071932EF8018491811124C01C
S1134460552009F4E4CCB70180E290E00E940826CC
S11344705A94F6CFF7018681978126C08FEF9FEF7C
S113448023C0B70180E290E00E9408265A9451109C
S1134490F8CFD8CF512CB701802F90E00E94082686
S11344A0D3CF08E810E0D5CF91108052B70190E047
S11344B00E9408260F5F1F4FCFCF23E0251510F46D
S11344C083E0BDCF512CC0CF6096E2E10C94AD22C5
S11344D097FB072E16F4009407D077FD09D00E94AD
S11344E0C82207FC05D03EF4909581959F4F08950E
S11344F0709561957F4F0895EE0FFF1F0590F4911D
S1134500E02D0994A29FB001B39FC001A39F700D39
S1134510811D1124911DB29F700D811D1124911DC7
S113452008952F923F924F925F926F927F928F9253
S11345309F92AF92BF92CF92DF92EF92FF920F932E
S11345401F93CF93DF93CDB7DEB7CA1BDB0B0FB638
S1134550F894DEBF0FBECDBF09942A8839884888F5
S11345605F846E847D848C849B84AA84B984C8848B
S1134570DF80EE80FD800C811B81AA81B981CE0F82
S1134580D11D0FB6F894DEBF0FBECDBFED01089567
S1134590AA1BBB1B51E107C0AA1FBB1FA617B70765
S11345A010F0A61BB70B881F991F5A95A9F7809581
S11345B09095BC01CD0108955058BB27AA270E94AD
S11345C0F4220C946E240E94602438F00E94672424
S11345D020F039F49F3F19F426F40C945D240EF472
S11345E0E095E7FB0C945724E92F0E947F2458F3AD
S11345F0BA17620773078407950720F079F4A6F5C4
S11346000C94A1240EF4E0950B2EBA2FA02D0B01CF
S1134610B90190010C01CA01A0011124FF27591B03
S113462099F0593F50F4503E68F11A16F040A22F09
S1134630232F342F4427585FF3CF4695379527957A
S1134640A795F0405395C9F77EF41F16BA0B620B79
S1134650730B840BBAF09150A1F0FF0FBB1F661FC0
S1134660771F881FC2F70EC0BA0F621F731F841F03
S113467048F4879577956795B795F7959E3F08F029
S1134680B0CF9395880F08F09927EE0F97958795EB
S113469008950E94332408F481E008950E9462235F
S11346A00C946E240E94672458F00E94602440F009
S11346B029F45F3F29F00C94572451110C94A2243F
S11346C00C945D240E947F2468F39923B1F355234D
S11346D091F3951B550BBB27AA2762177307840711
S11346E038F09F5F5F4F220F331F441FAA1FA9F3A7
S11346F035D00E2E3AF0E0E832D091505040E69595
S1134700001CCAF72BD0FE2F29D0660F771F881FF5
S1134710BB1F261737074807AB07B0E809F0BB0BE8
S1134720802DBF01FF2793585F4F3AF09E3F5105FC
S113473078F00C9457240C94A2245F3FE4F3983E41
S1134740D4F3869577956795B795F7959F5FC9F7E5
S1134750880F911D9695879597F90895E1E0660F66
S1134760771F881FBB1F621773078407BA0720F0DF
S1134770621B730B840BBA0BEE1F88F7E095089548
S11347800E94C7236894B1110C94A22408950E9436
S1134790872488F09F5798F0B92F9927B751B0F024
S11347A0E1F0660F771F881F991F1AF0BA95C9F7B1
S11347B014C0B13091F00E94A124B1E008950C948A
S11347C0A124672F782F8827B85F39F0B93FCCF33D
S11347D0869577956795B395D9F73EF4909580952E
S11347E0709561957F4F8F4F9F4F0895E89409C04E
S11347F097FB3EF490958095709561957F4F8F4F10
S11348009F4F9923A9F0F92F96E9BB279395F69525
S1134810879577956795B795F111F8CFFAF4BB0FA3
S113482011F460FF1BC06F5F7F4F8F4F9F4F16C007
S1134830882311F096E911C0772321F09EE8872F91
S1134840762F05C0662371F096E8862F70E060E04D
S11348502AF09A95660F771F881FDAF7880F9695C6
S1134860879597F90895990F0008550FAA0BE0E86A
S1134870FEEF16161706E807F907C0F0121613061E
S1134880E407F50798F0621B730B840B950B39F45E
S11348900A2661F0232B242B252B21F408950A26C4
S11348A009F4A140A6958FEF811D811D089597F904
S11348B09F6780E870E060E008959FEF80EC0895C2
S11348C000240A94161617061806090608950024EB
S11348D00A9412161306140605060895092E039465
S11348E0000C11F4882352F0BB0F40F4BF2B11F4D9
S11348F060FF04C06F5F7F4F8F4F9F4F089557FD38
S11349009058440F551F59F05F3F71F04795880F39
S113491097FB991F61F09F3F79F0879508951216D0
S113492013061406551FF2CF4695F1DF08C016167C
S113493017061806991FF1CF86957105610508942D
S11349400895E894BB2766277727CB0197F9089544
S11349500E94332408F48FEF08950E94C0240C941D
S11349606E240E94602438F00E94672420F095236E
S113497011F00C9457240C945D2411240C94A2245B
S11349800E947F2470F3959FC1F3950F50E0551F4B
S1134990629FF001729FBB27F00DB11D639FAA2790
S11349A0F00DB11DAA1F649F6627B00DA11D661FDF
S11349B0829F2227B00DA11D621F739FB00DA11D00
S11349C0621F839FA00D611D221F749F3327A00DBA
S11349D0611D231F849F600D211D822F762F6A2F56
S11349E011249F5750409AF0F1F088234AF0EE0FBB
S11349F0FF1FBB1F661F771F881F91505040A9F7E8
S1134A009E3F510580F00C9457240C94A2245F3FE0
S1134A10E4F3983ED4F3869577956795B795F79523
S1134A20E7959F5FC1F7FE2B880F911D969587959B
S1134A3097F90895283008F027E03327DA01990F11
S1134A40311D87FD916000966105710539F432606E
S1134A502E5F3D9330E32A95E1F708959F3F30F0B0
S1134A6080387105610509F03C5F3C5F3D939130EE
S1134A7008F08068911DDF93CF931F930F93FF92EB
S1134A80EF92192F987F9695E92F96959695E90FB1
S1134A90FF27EA51FF4F99273327EE24FF24A7016C
S1134AA0E70105900894079428F4360FE71EF81ED2
S1134AB0491F511D660F771F881F991F0694A1F780
S1134AC00590079428F4E70EF81E491F561FC11DD0
S1134AD0770F881F991F661F0694A1F70590079406
S1134AE028F4F80E491F561FC71FD11D880F991FA0
S1134AF0661F771F0694A1F70590079420F4490FC9
S1134B00561FC71FD81F990F661F771F881F06944B
S1134B10A9F784911095177041F0D695C7955795CC
S1134B204795F794E7941A95C1F7ECE8F0E0689498
S1134B301590159135916591959105907FE2739546
S1134B40E118F10A430B560BC90BD009C0F7E10C6D
S1134B50F11E431F561FC91FD01D7EF4703311F47C
S1134B608A95E6CFE894015030F0080F0AF4002744
S1134B70021708F4202F2395022F7A3328F079E3C3
S1134B807D932A95E9F710C07D932A9589F60694BA
S1134B9097956795379517951794E118F10A430B84
S1134BA0560BC90BD00998F023957E9173957A33EF
S1134BB008F070E37C932013B8F77E9170617D93C5
S1134BC030F0839571E37D9370E32A95E1F7112426
S1134BD0EF90FF900F911F91CF91DF91992787FD5F
S1134BE090950895FC010590615070400110D8F72C
S1134BF0809590958E0F9F1F0895FC016150704021
S1134C0001900110D8F7809590958E0F9F1F0895FD
S1134C100F931F93CF93DF93FB01238121FD03C0E7
S1134C208FEF9FEF2CC022FF16C04681578124814D
S1134C3035814217530744F4A081B1819D012F5F50
S1134C403F4F318320838C93268137812F5F3F4FE1
S1134C503783268314C08B01EC01FB010084F185AA
S1134C60E02D0995892BE1F6D80116968D919C913A
S1134C701797019617969C938E931697CE01DF9102
S1134C80CF911F910F910895AEE0B0E0EAE4F6E20F
S1134C900C949F220D891E8986E08C831A830983D4
S1134CA08FEF9FE79E838D83AE01475E5F4F6F89D1
S1134CB0788DCE0101960E94EB1EEF81F885E00FFE
S1134CC0F11F10822E96E4E00C94BB22FA01AA276D
S1134CD0283051F1203181F1E8946F936E7F6E5F3B
S1134CE07F4F8F4F9F4FAF4FB1E03ED0B4E03CD0E9
S1134CF0670F781F891F9A1FA11D680F791F8A1FCC
S1134D00911DA11D6A0F711D811D911DA11D20D032
S1134D1009F468943F912AE0269F11243019305DEC
S1134D203193DEF6CF010895462F4770405D4193DD
S1134D30B3E00FD0C9F7F6CF462F4F70405D4A332A
S1134D4018F0495D31FD4052419302D0A9F7EACFF2
S1134D50B4E0A6959795879577956795BA95C9F721
S1134D6000976105710508959B01AC010A2E069414
S1134D705795479537952795BA95C9F7620F731FCD
S10F4D80841F951FA01D0895F894FFCF18
S1134D8C05005061B26FBF6120B365BDBF2D70616A
S1134D9C202000546D70252E3166432F486D252E2E
S1134DAC31662525202000A8B8BF61BDB865204216
S1134DBC4BA7B0AB45484F00A461BE7963BA204FF2
S1134DCC544BA7B0ABA2482020202020005079C01F
S1134DDCBD6FB9205045A3A54D202020200050794B
S1134DECC0BD6FB920A8A9434B20B365BDBF00213A
S1134DFC43B8B4BD61BB20A84FA341505F21200030
S1134E0C41B36170B8C720BEB8BF61BDB8C720201C
S1134E1C0041B36170B8C720B3786FE36120414C93
S1134E2C200041B36170B8C720B3786FE3612050A0
S1134E3C53200041B36170B8C7203338304220206E
S1134E4C2020200041B36170B8C720E461B7B8706A
S1134E5C6FB3BAB8005065B365706320E461B720D2
S1134E6C33383042200020202020202020202020F5
S1134E7C202020202020004FBFBABB6FBD65BDB8D9
S1134E8C652020202020200061BCBEBBB8BF79E384
S1134E9C2C422B2F2D00427065BCC720B3C3786FF6
S1134EACE3612020202000BD61207065B6B8BC2CC5
S1134EBC006365BA2E0054B8BE20E361BFC0B8BA13
S1134ECC61202D5053002D4E4F2D6FBFBA70C3BFB0
S1134EDC2D002D4E432DB761BCBABD79BF2D0054A6
S1134EECB8BE20E361BFC0B8BA61202D414C00A804
S1134EFC6F706FB420637061B26FBFBAB820005486
S1134F0C286D6178292D43202020202020004B6F10
S1134F1CBDBF706FBBC4202020202020202000BFE8
S1134F2C65BCBE2D70C320202020204F544BA700FD
S1134F3C4D61BA63B8BC61BBC4BD61C720202020DD
S1134F4C00B3BB61B6BD6F63BFC420202020250015
S1134F5CB3BB61B6BD6F63BFB82020204F544BA7C1
S1134F6C00546D702B2F2D252E31664320202020CC
S1134F7C202000486D2B2F2D252E31662525202031
S1134F8C2020200053797374656D5F6164726573BE
S1134F9C202020200041647265737320646973615E
S1134FAC626C6520200020202020202020204F54DB
S1134FBC4BA7202020200055005F5F56005F5F57F1
S1054FCC0000DF
S9030000FC
