:100000000C94BC000C94D9000C94D9000C94D90029
:100010000C94D9000C94D9000C94D9000C941E08AF
:100020000C94D9000C94D9000C94D9000C944B0872
:100030000C94D9000C94D9000C94D9000C94D900DC
:100040000C94D9000C94D9000C94D9000C94D900CC
:100050000C94D9000C94D9000C94D9000C94D900BC
:100060000C94D9000C94D900B00BBB0BC60BD10B70
:10007000DC0BE70BF20B6E616E00696E66000040F0
:100080007A10F35A00A0724E18090010A5D4E800A7
:1000900000E87648170000E40B54020000CA9A3BBF
:1000A000000000E1F5050000809698000000404245
:1000B0000F000000A08601000000102700000000D3
:1000C000E803000000006400000000000A000000D7
:1000D00000000100000000002C76D888DC674F0883
:1000E00023DFC1DFAE59E1B1B796E5E3E453C63A89
:1000F000E651997696E8E6C28426EB898C9B62ED00
:10010000407C6FFCEFBC9C9F40F2BAA56FA5F490B9
:10011000055A2AF75C936B6CF9676DC11BFCE0E430
:100120000D47FEF520E6B500D0ED902E0300943586
:1001300077050080841E080000204E0A000000C8D9
:100140000C333333330F986E12831141EF8D21142A
:10015000893BE65516CFFEE6DB18D1844B381BF7FA
:100160007C1D901DA4BBE424203284725E22810099
:10017000C9F124ECA1E53D2711241FBECFEFD8E043
:10018000DEBFCDBF13E0A0E0B1E0E8E5FFE302C0D1
:1001900005900D92AE35B107D9F725E0AEE5B3E095
:1001A00001C01D92A435B207E1F70E9462080C94C9
:1001B000AA1F0C94000080937C00EAE7F0E08081A5
:1001C00080648083808186FDFDCFE8E7F0E0808158
:1001D0002091790090E0922B91838083808191819E
:1001E00008950F931F93CF93DF93109203041092FF
:1001F000020410929B0310929A031092F303109240
:10020000F203C5E9D0E000E012E083E00E94DB00E9
:100210009093470580934605209102043091030492
:10022000821793076CF0811522E092072CF09093CF
:1002300003048093020404C0109303040093020497
:1002400087E00E94DB0090937E0380937D032091E2
:100250009A0330919B03821793076CF0811522E07B
:1002600092072CF090939B0380939A0304C0109301
:100270009B0300939A0386E00E94DB0090939E0309
:1002800080939D032091F2033091F303821793072B
:100290006CF0811522E092072CF09093F303809389
:1002A000F20304C01093F3030093F203219709F0C3
:1002B000ACCF8091020490910304DF91CF911F9104
:1002C0000F9108950F931F93CF93DF9341E060E068
:1002D00071E080E090E00E94F5100E947B0B80911D
:1002E000640381111DC08091E90381111DC010922A
:1002F000610360E080E80E94280582E091E00E94AE
:10030000FE051092DC0340E060E870E080E090E0E1
:100310000E94F5101092E8031092E70310925F0319
:1003200080916403823029F08091E903823009F0E2
:100330008CC081E080935F0341E060E870E080E082
:1003400090E00E94F510C091E503D091E603009182
:10035000E7031091E80390916103913089F441E043
:1003600060E074E080E090E00E94F51060E080E8DA
:100370000E94280583E191E00E94FE051092DC03B3
:100380004091E7035091E8032091E5033091E603A3
:100390004217530794F580916103811156C0C01B29
:1003A000D10B60E080E80E94280584E291E00E9481
:1003B000FE0560E08DE80E942805CE016AE070E04D
:1003C0000E947C1BCB0162E00E94150660E08FE872
:1003D0000E942805CE0164E670E00E947C1B61E06B
:1003E0000E9415062091E7033091E8038091E50310
:1003F0009091E6032817390744F180916103811138
:1004000016C060E080E80E94280582E391E00E9427
:10041000FE0581E08093DC032091E7033091E8033F
:100420008091E5039091E6032817390774F08091D5
:100430006103823050F060E080E80E94280583E488
:1004400091E00E94FE051092DC038FE39CE9019786
:10045000F1F700C00000DF91CF911F910F91089537
:10046000CF93DF93579A5F982FEF80EE90E0215063
:1004700080409040E1F700C000005F9A579887ECF9
:1004800090E00197F1F700C000004F9935C08FE36D
:1004900091E00197F1F700C000004F9B30C08091C0
:1004A000430580934A054F99FECFADEDB3E0C2EE10
:1004B000D3E061E070E0FD011C9287E090E04F9B8B
:1004C000FECF2AE82A95F1F700C04F9B0AC0408171
:1004D0009B01082E02C0220F331F0A94E2F7242B3F
:1004E00020834F99FECF019750F71196CA17DB076B
:1004F00011F781E090E005C080E090E002C080E06C
:1005000090E0DF91CF9108958F929F92AF92BF922A
:10051000DF92EF92FF920F931F93CF93DF9310928E
:100520006D030E94300280936D03813009F08AC010
:100530001092C0031092BF03EDEDF3E06081C62F6F
:10054000D0E06181062F10E0D2806381E62EF12C8D
:10055000CE01800F911F8D0D911D8E0D9F1D9093CB
:10056000FD038093FC036D2D6F7770E080E090E0D9
:100570000E94071D2DEC3CEC4CEC51E40E94931DB5
:100580004B015C01B701FF0C880B990B0E94071D02
:100590002DEC3CEC4CEC5DE30E94931D9B01AC0107
:1005A000C501B4010E94F11B4B015C016093CD03B6
:1005B0007093CE038093CF039093D0030E94CF1CFF
:1005C00070936F0360936E03DD209CF4B7FAB094D0
:1005D000B7F8B0948092CD039092CE03A092CF034F
:1005E000B092D00371956195710970936F03609318
:1005F0006E03B801110F880B990B0E94071D2DEC9B
:100600003CEC4CEC5DE30E94931D4B015C01BE0190
:10061000DD0F880B990B0E94071D2DEC3CEC4CEC78
:1006200051E40E94931D9B01AC01C501B4010E94DD
:10063000F11B6093C9037093CA038093CB0390931B
:10064000CC0318C0811109C08091BF039091C003F1
:1006500001969093C0038093BF038091BF03909154
:10066000C0038536910534F084E690E09093C00392
:100670008093BF0310924B05DF91CF911F910F9193
:10068000FF90EF90DF90BF90AF909F908F90089574
:100690000E94840260E080EC0E9428058091CC03D7
:1006A0008F938091CB038F938091CA038F93809116
:1006B000C9038F938091D0038F938091CF038F9341
:1006C0008091CE038F938091CD038F9384E591E049
:1006D0009F938F9381E893E09F938F930E942A1FAB
:1006E00081E893E00E94FE058DB79EB70C960FB689
:1006F000F8949EBF0FBE8DBF0895F999FECF92BDAD
:1007000081BD60BDFA9AF99A0895F999FECF92BD1C
:1007100081BDF89A80B5089580E00E94DB00909337
:100720006603809365038E5492408F36910570F472
:1007300080916703813051F482E08093640341E04B
:1007400060E072E080E090E00E94F5108091650327
:1007500090916603805991408D3B910508F047C008
:100760002091670321113EC082E08093640341E041
:1007700060E072E080E090E00E94F51080916503F7
:1007800090916603805991408F3521E0920718F0CF
:1007900021E0209364038D3B910568F48091670309
:1007A000813049F41092640340E060E072E080E040
:1007B00090E00E94F51080916503909166038E543D
:1007C00092408F369105C0F480916703811114C067
:1007D0001092640340E060E072E080E090E00E94EC
:1007E000F51008958F3521E0920790F6D7CF8F3519
:1007F00021E0920700F3CCCF089581E00E94DB0056
:1008000090936303809362039C012E5432402F36F1
:10081000310508F0B8C080916803813099F4809167
:100820006003813029F080915F03813009F0D7C0E7
:1008300081E08093610341E060E074E080E090E05B
:100840000E94F5108091620390916303805991405A
:100850008D3B910508F0D4C0809168038111A5C03B
:1008600080916003813029F080915F03813009F02D
:1008700091C081E08093610341E060E074E080E03A
:1008800090E00E94F51080916203909163038E5472
:1008900092408F369105B0F480916803813091F4D5
:1008A000809160038111BEC080915F038111BAC045
:1008B00083E08093610341E060E074E080E090E0D9
:1008C0000E94F510809162039091630380599140DA
:1008D0008D3B910508F07EC08091680381116FC047
:1008E000809160038111A8C080915F038111A4C031
:1008F00083E08093610341E060E074E080E090E099
:100900000E94F51080916203909163038059914099
:100910008F35914050F082E08093610341E060E0C8
:1009200078E080E090E00E94F51080916203909161
:100930006303805991408D3B910568F48091680371
:10094000813049F41092610340E060E074E080E09F
:1009500090E00E94F51080916203909163038E54A1
:1009600092408F36910508F072C080916803811122
:100970006EC01092610340E060E074E080E090E0BF
:100980000E94F5100895805991408D3B910508F41F
:1009900063CF41C08091620390916303805991407D
:1009A0008D3B910508F49CCF15C080916203909116
:1009B00063038E5492408F36910508F46DCF809179
:1009C000620390916303805991408F35914008F400
:1009D000B5CFA1CF8F35914008F4BDCF9CCF80918A
:1009E000620390916303805991408D3B9105E8F239
:1009F0004ACF809162039091630380599140EACF7E
:100A000080916203909163038E5492408F369105DA
:100A100008F442CFEECF8091620390916303805936
:100A20009140D8CF809162039091630380599140A7
:100A30008D3B910520F2CECF8091620390916303AC
:100A4000805991408F35914008F485CF64CF089547
:100A5000CF93C82F613041F441E061E070E080E065
:100A600090E00E94F51007C040E061E070E080E097
:100A700090E00E94F51041E062E070E080E090E0DC
:100A80000E94F510C4FF08C041E064E070E080E01F
:100A900090E00E94F51007C040E064E070E080E064
:100AA00090E00E94F510C5FF08C041E068E070E0EA
:100AB00080E090E00E94F51007C040E068E070E040
:100AC00080E090E00E94F510C6FF08C041E060E1C0
:100AD00070E080E090E00E94F51007C040E060E127
:100AE00070E080E090E00E94F510CC2344F441E0F7
:100AF00060E270E080E090E00E94F51007C040E006
:100B000060E270E080E090E00E94F51040E062E07A
:100B100070E080E090E00E94F5108FE39FE1019784
:100B2000F1F700C0000041E062E070E080E090E09A
:100B30000E94F510C0FF08C041E064E070E080E072
:100B400090E00E94F51007C040E064E070E080E0B3
:100B500090E00E94F510C1FF08C041E068E070E03D
:100B600080E090E00E94F51007C040E068E070E08F
:100B700080E090E00E94F510C2FF08C041E060E113
:100B800070E080E090E00E94F51007C040E060E176
:100B900070E080E090E00E94F510C3FF08C041E0E3
:100BA00060E270E080E090E00E94F51007C040E055
:100BB00060E270E080E090E00E94F51040E062E0CA
:100BC00070E080E090E00E94F5108FE39FE10197D4
:100BD000F1F700C00000CF91089560E082E00E942C
:100BE000280560E088E20E94280560E08CE00E9411
:100BF000280560E081E00E94280508950F931F9367
:100C0000CF93FC018081882361F08F01C0E0CF5F2A
:100C100061E00E942805F801EC0FF11D808181112F
:100C2000F6CFCF911F910F910895CF93DF93EC01F1
:100C3000623009F449C020F4613009F46DC08AC003
:100C40006330C1F0643009F085C09C01369527956A
:100C50003695279536952795A5ECB0E20E94961B10
:100C6000929582958F7089279F70892761E0805DBA
:100C70000E9428059E013695279536952795ABE766
:100C8000B4E10E94961BAC01569547959A01ADECD4
:100C9000BCEC0E94961B96958795969587959695A0
:100CA00087959C01220F331F880F991F880F991F6A
:100CB000880F991F820F931F9A01281B390BC901B6
:100CC00061E0805D0E9428059E01ADECBCEC0E94B5
:100CD000961BAC0156954795569547955695479561
:100CE0009A010E94961B969587959695879596955D
:100CF00087959C01220F331F880F991F880F991F1A
:100D0000880F991F820F931F9A01281B390BC90165
:100D100061E0805D0E9428059E01ADECBCEC0E9464
:100D2000961B9695879596958795969587959C01A0
:100D3000220F331F880F991F880F991F880F991F43
:100D4000820F931F9E01281B390BC90161E0805D52
:100D50000E942805DF91CF9108951092F703109219
:100D6000D3031092D503809194039091950301963B
:100D700090939503809394036091F2037091F30331
:100D80007250072E000C880B990B0E94071D2EEE47
:100D900034E045EB5FE30E945D1C21EE3AE744E955
:100DA0005FE30E94931D0E94CF1CAB017093D90397
:100DB0006093D803209100013091010181EE90E011
:100DC000821B930B481759072CF02F513F4F2417C4
:100DD00035074CF580914305909144052091F80327
:100DE0003091F903821B930B8D349D41A4F440E0B4
:100DF00060E470E080E090E00E94F510809143058F
:100E0000909144052091F8033091F903821B930BD4
:100E10008D349D41ECF041E060E470E080E090E0D2
:100E20000E94F51015C081E08093F7038093D303EF
:100E30008091DA039091DB0301969093DB0380931A
:100E4000DA0341E060E470E080E090E00E94F51099
:100E500081E08093D30320919403309195034091D6
:100E6000DA035091DB0364E6649FC001659F900D37
:100E70001124B9010E947C1B7093A2036093A1030B
:100E80002436310541F41092950310929403109288
:100E9000DB031092DA038091430590914405209181
:100EA000F8033091F903AC01421B530B9A01283926
:100EB0003A4324F09093F9038093F80308958091C6
:100EC0006403823039F421E030E030930E04209343
:100ED0000D0404C010920E0410920D0420917B03A7
:100EE00030917C03232B39F421E030E0309310045F
:100EF00020930F0404C01092100410920F0481304C
:100F000039F481E090E0909312048093110404C0BE
:100F1000109212041092110480916103823039F40E
:100F200021E030E0309314042093130404C01092A5
:100F30001404109213049091D303911107C021E07F
:100F400030E0309316042093150404C01092160468
:100F5000109215049091D403913039F421E030E0DF
:100F6000309318042093170404C0109218041092B0
:100F7000170490919303923039F421E030E03093DC
:100F80001A042093190404C010921A041092190430
:100F90009091DC03913039F421E030E030931E046D
:100FA00020931D0404C010921E0410921D0483306F
:100FB00038F081E090E09093200480931F0404C0F7
:100FC0001092200410921F0480910B0490910C0445
:100FD000899724F0109218041092170480917903D5
:100FE00090917A03899714F110921A0410921904BF
:100FF0001DC090813296890FE217F307D1F78093D5
:10100000D50381110BC040E060E078E080E090E023
:101010000E94F5108091D503882379F041E060E0CB
:1010200078E080E090E00E94F51008958091D5036B
:10103000EFE0F4E021E234E0DCCF08951F920F925C
:101040000FB60F9211242F933F934F935F936F939B
:101050007F938F939F93AF93BF93EF93FF93809171
:101060004305909144050196909344058093430570
:101070000E94800FFF91EF91BF91AF919F918F914F
:101080007F916F915F914F913F912F910F900FBE84
:101090000F901F9018951F920F920FB60F92112468
:1010A0008F939F938091E7039091E803019690932B
:1010B000E8038093E7039F918F910F900FBE0F90ED
:1010C0001F90189541E060E070E880E090E00E9499
:1010D000F510AAE7B0E08C9180688C93ECE7F0E023
:1010E0008081108280818064808380818F6D808385
:1010F0008C9186608C93EBE7F0E080818083EEE753
:10110000F0E080818763808380B7806880BF80E261
:1011100087B992E094B988E185B98EEF8AB918B899
:1011200010928000E1E8F0E080818D608083109271
:1011300085001092840029E03DE3309389002093DC
:10114000880090936F00E0EBF0E080818260808304
:10115000E1EBF0E08081826080831092B2008FEF3B
:101160008093B300E0E7F0E08081826080832FEF1E
:1011700083EC99E0215080409040E1F700C00000EE
:101180000E94ED0560E081E00E94280560E080E8B3
:101190000E94280588E691E00E94FE050E94AD06A7
:1011A0000E9428174E9A0E9428171092480585E041
:1011B00090E09093E6038093E5031092E803109289
:1011C000E70383E0809352051092C30310929C03BF
:1011D0001092450510927A031092790310920C0434
:1011E00010920B041092F6031092F5031092BE03B6
:1011F0001092BD0310927C0310927B03109207049F
:10120000109206041092C0031092BF031092D403F0
:10121000109293031092DC0383E190E09093F1032A
:101220008093F0038DE990E09093C2038093C10313
:1012300081E090E00E9485038093520582E090E077
:101240000E94850390E09093E6038093E50383E09A
:1012500090E00E94850390E090930101809300014B
:1012600086E090E00E948503823018F48093680342
:1012700003C081E08093680387E090E00E948503CB
:10128000823018F48093670303C081E08093670382
:1012900088E090E00E94850390E090937A03809329
:1012A00079038B9734F089E290E090937A038093EE
:1012B000790389E090E00E94850390E090930C040C
:1012C00080930B048B9734F089E290E090930C04A8
:1012D00080930B0480E190E00E94850390E090935E
:1012E000F1038093F0038138910524F01092F1030B
:1012F0001092F00381E190E00E94850390E09093CA
:10130000F6038093F503CF9734F08DE390E090934C
:10131000F6038093F50382E190E00E94850390E05C
:101320009093BE038093BD031092530580E00E940A
:10133000DB00909366038093650381E00E94DB00ED
:1013400090936303809362030E9428170E94AD0666
:101350000E945F077894109275031092740340E026
:1013600060E070E880E090E00E94F51011E0C1E0DC
:10137000D0E00E94F1000E948C030E94FD030E94B5
:10138000AD060E941F120E945F07809152058230B5
:1013900009F4C5C01093BC032091A1033091A203AE
:1013A0008091790390917A03820F931F843691057F
:1013B000D4F440E060E470E080E090E00E94F5103A
:1013C00010927C0310927B038091790390917A03B1
:1013D0002091A1033091A203280F391F2436310533
:1013E00014F489975CF0D0937C03C0937B03412F66
:1013F00060E470E080E090E00E94F5101B9946C028
:1014000080915E03811142C08091530581118AC091
:10141000412F60E070E880E090E00E94F51080913C
:1014200052058F5F8093520510935E03109248051A
:101430001092EB031092EA032FEF86E791E0215020
:1014400080409040E1F700C000001092600340E04F
:1014500060E870E080E090E00E94F5108091520515
:10146000843010F01093520560915205CE010E9415
:101470007D038FE39CE90197F1F700C00000412F45
:1014800060E070E880E090E00E94F5101B9B12C0C5
:1014900080915E03813071F48091530581110AC0FF
:1014A0001092480510925E038FE39CE90197F1F7D3
:1014B00000C0000080915205813031F480915305C5
:1014C000811125C00E94940A80915205823031F426
:1014D0008091530581111BC00E94620180915205C9
:1014E0008330A9F480915305811111C060E080E838
:1014F0000E94280589E791E00E94FE050E947B0B6F
:1015000040E060E071E080E090E00E94F51040E093
:1015100060E070E880E090E00E94F5102ACF109221
:10152000BC033ACF83B1C6CF40E060E071E080E019
:1015300090E00E94F510809148058111CBC01C9B62
:10154000C6C0809160038111C2C060E080E80E9443
:1015500028058EE891E00E94FE050E9448031C9930
:1015600024C080914805882309F4BAC01EC041E018
:1015700060E070E880E090E00E94F51081E08093E8
:1015800048052FEF81EE94E0215080409040E1F734
:1015900000C000001092E8031092E70340E060E012
:1015A00070E880E090E00E94F5108091480581305D
:1015B00009F09BC01C9B41C08091600381113DC01C
:1015C00081E08093600341E060E870E080E090E0BB
:1015D0000E94F510109248052FEF89EF90E02150FE
:1015E00080409040E1F700C00000809148058111E3
:1015F00073C01C995DC080916003813009F058C0B0
:101600008093480541E060E070E880E090E00E944F
:10161000F5102FEF82E597E0215080409040E1F7F0
:1016200000C0000040E060E070E880E090E00E94D0
:10163000F510809148058130B9F51C9B5BC0809105
:101640006003813009F056C0109260031092480583
:1016500060E080E80E9428058EE891E00E94FE0587
:101660000E94480380916403813071F4809161038A
:10167000823050F060E080E80E9428058EE891E01A
:101680000E94FE050E94480340E060E870E080E0B0
:1016900090E00E94F5102FEF89EF90E021508040FC
:1016A0009040E1F700C0000080914805811122C000
:1016B000809160038130F1F41092DC0360E080E8F7
:1016C0000E9428058FE991E00E94FE0508951C9B69
:1016D00007C08BCF83B169CF813009F4AECF0895B5
:1016E00080916003811185CF42CF80914805882386
:1016F00009F47FCF0895CF93DF9360E080EC0E94E0
:1017000028051092D7031092D603C091EA03D09116
:10171000EB03C730D10509F0EAC00E944803C0912D
:10172000EA03D091EB03C730D1050CF074C0FE0181
:10173000EE0FFF1FE35FFB4F80819181019709F05E
:1017400060C005C081919191019709F05FC0C730D9
:10175000D10508F051C0FE01EC5CFF4F0C94901BCA
:1017600080EB91E00E94FE0581E090E09093D7032A
:101770008093D60341C081EC91E00E94FE0581E098
:1017800090E09093D7038093D60336C082ED91E02A
:101790000E94FE0581E090E09093D7038093D603EA
:1017A0002BC083EE91E00E94FE0581E090E09093D3
:1017B000D7038093D60320C084EF91E00E94FE05FA
:1017C00081E090E09093D7038093D60315C085E025
:1017D00092E00E94FE0581E090E09093D703809311
:1017E000D6030AC086E192E00E94FE0581E090E007
:1017F0009093D7038093D603D093EB03C093EA036F
:101800000AC0FE01EE0FFF1FE15FFB4F2196C730BC
:10181000D1050CF497CF8091D6039091D703892BF3
:1018200031F40E9448031092EB031092EA031C99D2
:101830000AC080919C03811106C081E080939C03C3
:101840001C9B5AC007C01C9B57C080919C038130D1
:1018500009F052C041E060E070E880E090E00E9452
:10186000F51010929C03E091EA03F091EB03CF0195
:1018700001969093EB038093EA03DC01AA0FBB1F50
:10188000A35FBB4F2D913C91232B49F587309105E8
:101890005CF012C0219131912130310549F49093CF
:1018A000EB038093EA0308C0EE0FFF1FEF5EFB4FD0
:1018B00001968730910571F78091EA039091EB03CF
:1018C000089724F01092EB031092EA032FEF89EFB0
:1018D00090E0215080409040E1F700C0000040E0DF
:1018E00060E070E880E090E00E94F51005C0C7302D
:1018F000D1050CF41CCF95CFDF91CF910895809145
:101900007003909171038D30910509F0F0C2E1E20E
:10191000F4E0228D338D8091EC039091ED03822BC6
:10192000932B24893589220F331F220F331F220F57
:10193000331F822B932B26893789220F331F220FC7
:10194000331F822B932B208D318D220F331F822B3F
:10195000932B9093ED038093EC0308C0299A459A4A
:1019600080917003909171030D9711F4299A459A13
:1019700080917003909171030E9761F480910D0432
:1019800090910E04019721F08091E9038230B1F427
:10199000299A459A80917003909171038D30910539
:1019A0000CF4ADC2469711F4299A459A80917003C0
:1019B000909171034F9711F4299A459A8091700381
:1019C00090917103889711F4299A459A8091700338
:1019D00090917103C19711F4299A459A80917003EF
:1019E00090917103CA9711F4299A459A80917003D6
:1019F000909171038334910511F4299A459A80914D
:101A00007003909171038C34910511F4299A459AD1
:101A10008091EC039091ED038230910509F46AC046
:101A20001CF4892B49F008958330910509F47FC097
:101A30000E9709F4F7C10895809170039091710396
:101A4000099711F4299A459A809170039091710336
:101A50000D9711F4299A459A809170039091710322
:101A60000E9761F480910D0490910E04019721F07E
:101A70008091E903823091F4299A459A809170030C
:101A800090917103469711F4299A459A80917003B9
:101A9000909171034F9711F4299A459A80917003A0
:101AA00090917103889711F4299A459A8091700357
:101AB00090917103C19711F4299A459A809170030E
:101AC00090917103CA9711F4299A459A80917003F5
:101AD000909171038334910511F4299A459A80916C
:101AE0007003909171038C34910509F008C2299A12
:101AF000459A089580917003909171030D9711F4A8
:101B0000299A459A80917003909171030E9709F07C
:101B1000F6C180910D0490910E04019729F08091F7
:101B2000E903823009F0EBC1299A459A0895809122
:101B30007003909171030D9711F4299A459A809141
:101B40007003909171030E9761F480910D04909150
:101B50000E04019721F08091E903823091F4299AD3
:101B6000459A8091700390917103469711F4299AD8
:101B7000459A80917003909171034F9711F4299ABF
:101B8000459A8091700390917103889711F4299A76
:101B9000459A8091700390917103C19711F4299A2D
:101BA000459A8091700390917103CA9711F4299A14
:101BB000459A80917003909171038334910511F4DB
:101BC000299A459A80917003909171038C34910504
:101BD00011F4299A459A80917003909171039C01A8
:101BE0002E5031092830310520F525E130E0281B41
:101BF000390B8091C1039091C20302C095958795DE
:101C00002A95E2F7817099272091960330919703E6
:101C1000822B932B9093970380939603019711F453
:101C2000299A459A8091960390919703892B09F4FC
:101C3000299880917003909171034F97A9F4809136
:101C400096039091970381609093970380939603F6
:101C5000019709F04DC0299A459A80919603909179
:101C60009703892B09F4299880917003909171034F
:101C700082970297D8F48091BC03682F617070E05E
:101C80008091960390919703682B792B709397031B
:101C9000609396036130710511F4299A459A8091F9
:101CA000960390919703892B09F4299880917003EA
:101CB000909171038797E1F480914B05482F417013
:101CC00050E08091960390919703482B592B5093A5
:101CD0009703409396034130510509F00CC1299AAE
:101CE000459A8091960390919703892B09F429983E
:101CF0002091700330917103C901C397069760F575
:101D0000809165039091660399230CF40396959551
:101D100087959595879549E350E0BA01621B730B4F
:101D200002C0959587956A95E2F781709927209171
:101D3000960330919703822B932B90939703809374
:101D40009603019711F4299A459A809196039091F0
:101D50009703892B09F4299880917003909171035E
:101D60009C012C5331092730310520F522E430E065
:101D7000281B390B80916E0390916F0302C09595DB
:101D800087952A95E2F781709927209196033091E3
:101D90009703822B932B909397038093960301973D
:101DA00011F4299A459A8091960390919703892B73
:101DB00009F429982091700330917103C901855469
:101DC0009109079708F09BC080916203909163038B
:101DD00099230CF4039695958795959587954BE4F3
:101DE00050E0BA01621B730B02C0959587956A9506
:101DF000E2F7817099272091960330919703822B07
:101E0000932B9093970380939603019711F4299A4B
:101E1000459A8091960390919703892B09F06FC0A2
:101E20002998089580917003909171030D9711F492
:101E3000299A459A80917003909171034E9711F4FD
:101E4000299A459A80917003909171038D9711F4AE
:101E5000299A459A80917003909171038E9709F0A9
:101E60004EC08091670490916804019769F4809155
:101E7000750490917604019739F441E060E070E8D0
:101E800080E090E00E94F5108091690490916A04CE
:101E9000019779F48091770490917804019749F43F
:101EA00040E060E070E880E090E00E94F510109261
:101EB000E90380916D0490916E04019749F480913B
:101EC0007B0490917C04019719F482E08093E903EC
:101ED00080916B0490916C04019789F4809179044E
:101EE00090917A04019759F41092E90308950997A3
:101EF00009F03ECD33CD452B09F4F9CE5BCF0895E3
:101F0000599A23B1822F817090E090930A048093B4
:101F100009048130910509F02AC18091C40381111F
:101F20005EC18091C5039091C6039C01295031097F
:101F30002230310528F41092C6031092C5032EC03A
:101F40004297039738F481E090E09093C603809322
:101F5000C50342C08091C5039091C6034B97089773
:101F6000E8F482E090E09093C6038093C50310925A
:101F700071031092700310927803109277031092FD
:101F8000A4031092A3031092ED031092EC0320E03F
:101F900030E0909322048093210482C08091C50395
:101FA0009091C603893E9340BCF010927103109249
:101FB000700310927803109277031092A40310928A
:101FC000A3031092ED031092EC031092E903109218
:101FD00022041092210474C0209170033091710387
:101FE000F901EE0FFF1FEF5DFB4F8091C50390914C
:101FF000C603918380832830310509F051C0E1E2A6
:10200000F4E0208931898091A3039091A403822B6D
:10201000932B248135810024369527950794369596
:1020200027950794322F202D822B932B26813781E1
:10203000220F331F22953295307F3227207F32279F
:10204000822B932B2085318522953295307F322744
:10205000207F3227822B932B22853385220F331F3B
:10206000220F331F220F331F822B932B248535859C
:10207000220F331F220F331F822B932B2685378588
:10208000220F331F822B932B9093A4038093A303DF
:10209000009709F09BC01092A6031092A50396C06A
:1020A0004091A3035091A4038091F0039091F10318
:1020B0004817590729F42830310514F00E947F0C85
:1020C00081E08093C4031092F4031092C60310922F
:1020D000C503109297031092960380912304909168
:1020E0002404019711F58091250490912604892BF1
:1020F000E1F480917003909171030297B1F48091A3
:10210000A5039091A60301969093A6038093A5033F
:102110002091F0033091F1038217930731F49093EB
:10212000A4038093A303299A459A80917003909108
:102130007103019690937103809370038091090459
:1021400090910A048130910509F449C010C0809132
:102150009F039091A00301969093A00380939F0307
:102160008091090490910A04892BE9F02DC0892BF4
:1021700059F58091F403811116C02998459881E0A2
:102180008093F4031092C4031092A00310929F0353
:1021900010927803109277038091090490910A04B9
:1021A000892B29F011C08091F403813069F41092D9
:1021B000A00310929F038091C5039091C6030196DE
:1021C0009093C6038093C503599808952091F00316
:1021D0003091F1038217930709F072CF6FCF80918E
:1021E000C403813009F4B3CFEFCF0F931F93413075
:1021F000B9F40091690310916A0320916B03309147
:102200006C03DC01CB01802B912BA22BB32B809391
:10221000690390936A03A0936B03B0936C031AC095
:102220000091690310916A0320916B0330916C0354
:10223000DC01CB0180959095A095B09580239123EA
:10224000A223B3238093690390936A03A0936B0343
:10225000B0936C035B985C988091690390916A03DA
:10226000A0916B03B0916C0397FF02C05A9A01C012
:102270005A985C9A5C988091690390916A03A09146
:102280006B03B0916C0396FF02C05A9A01C05A9832
:102290005C9A5C988091690390916A03A0916B03AA
:1022A000B0916C0395FF02C05A9A01C05A985C9A8B
:1022B0005C988091690390916A03A0916B03B0913F
:1022C0006C0394FF02C05A9A01C05A985C9A5C98B9
:1022D0008091690390916A03A0916B03B0916C03A4
:1022E00093FF02C05A9A01C05A985C9A5C988091F8
:1022F000690390916A03A0916B03B0916C0392FF04
:1023000002C05A9A01C05A985C9A5C9880916903FD
:1023100090916A03A0916B03B0916C0391FF02C08E
:102320005A9A01C05A985C9A5C988091690390917E
:102330006A03A0916B03B0916C0390FF02C05A9A9C
:1023400001C05A985C9A5C988091690390916A03E5
:10235000A0916B03B0916C0387FF02C05A9A01C031
:102360005A985C9A5C988091690390916A03A09155
:102370006B03B0916C0386FF02C05A9A01C05A9851
:102380005C9A5C988091690390916A03A0916B03B9
:10239000B0916C0385FF02C05A9A01C05A985C9AAA
:1023A0005C988091690390916A03A0916B03B0914E
:1023B0006C0384FF02C05A9A01C05A985C9A5C98D8
:1023C0008091690390916A03A0916B03B0916C03B3
:1023D00083FF02C05A9A01C05A985C9A5C98809117
:1023E000690390916A03A0916B03B0916C0382FF23
:1023F00002C05A9A01C05A985C9A5C98809169030D
:1024000090916A03A0916B03B0916C0381FF02C0AD
:102410005A9A01C05A985C9A5C988091690390918D
:102420006A03A0916B03B0916C0380FF02C05A9ABB
:1024300001C05A985C9A5B9A1F910F9108951D9B59
:102440003FC08091C30381113BC08091520583300E
:1024500009F0FBC441E060E070E880E090E00E9499
:10246000F510809153058F5F8093530581E0809331
:10247000C3032FEF80E792E0215080409040E1F7C6
:1024800000C0000060E080EC0E94280587E292E036
:102490000E94FE0580915305883028F083E08093E8
:1024A0005205109253056091530580E090E00E9420
:1024B0007D0340E060E070E880E090E00E94F5106D
:1024C0001D9913C08091C303813079F48091520526
:1024D000833059F41092C3032FEF89EF90E021501D
:1024E00080409040E1F700C00000809153058130AA
:1024F00009F082C060E080E80E94280588E392E04D
:102500000E94FE0560E080EC0E94280589E492E0CC
:102510000E94FE0560E08EEC0E942805809100017B
:10252000909101016AE070E00E947C1BCB0161E0A8
:102530000E94150660E08FEC0E9428058091000142
:102540009091010164E670E00E947C1B61E00E94B2
:1025500015061B9935C080919C03811131C041E063
:1025600060E070E880E090E00E94F510809100014A
:10257000909101010296893291052CF4909301010A
:102580008093000104C0109201011092000181E0CB
:1025900080939C036091000183E090E00E947D03A2
:1025A0002FEF89EF90E0215080409040E1F700C08C
:1025B000000040E060E070E880E090E00E94F510EC
:1025C0001B9B1AC080919C038130B1F410929C0334
:1025D00041E060E070E880E090E00E94F5108FE359
:1025E0009CE90197F1F700C0000040E060E070E86E
:1025F00080E090E00E94F51080915305823009F050
:1026000093C060E080E80E94280587E592E00E9480
:10261000FE0560E080EC0E94280588E692E00E94BA
:10262000FE0560E08CEC0E94280582E792E00E94A3
:10263000FE0582E090E00E94850390E09093E6031F
:102640008093E50360E08AEC0E9428058091E50311
:102650009091E6036AE070E00E947C1BCB0161E090
:102660000E94150660E08BEC0E9428058091E5032E
:102670009091E60364E670E00E947C1B61E00E949A
:1026800015061B9935C080919C03811131C041E032
:1026900060E070E880E090E00E94F5108091E50332
:1026A0009091E6030196853191052CF49093E60311
:1026B0008093E50304C01092E6031092E50381E0E5
:1026C00080939C036091E50382E090E00E947D038B
:1026D0009FEF29EF80E0915020408040E1F700C05B
:1026E000000040E060E070E880E090E00E94F510BB
:1026F0001B9B1AC080919C038130B1F410929C0303
:1027000041E060E070E880E090E00E94F5108FE327
:102710009CE90197F1F700C0000040E060E070E83C
:1027200080E090E00E94F51080915305833009F01D
:10273000C1C060E080E80E94280587E792E00E941F
:10274000FE0581E00E94DB009093630380936203A7
:1027500060E08DEC0E9428058091620390916303F4
:102760006AE070E00E947C1BCB0162E00E941506CB
:1027700060E08FEC0E9428058091620390916303D2
:1027800064E670E00E947C1B61E00E941506809167
:102790006803811108C060E080EC0E94280587E88A
:1027A00092E00E94FE0580916803813041F460E070
:1027B00080EC0E94280583E992E00E94FE051B99A7
:1027C0005AC080914505811156C041E060E070E833
:1027D00080E090E00E94F51080916803811120C094
:1027E00080914505811140C081E08093450580932B
:1027F000680360E080EC0E94280583E992E00E9473
:10280000FE056091680386E090E00E947D039FEFE3
:1028100020E782E0915020408040E1F700C00000B6
:1028200080916803813001F58091450581111CC0BC
:1028300081E0809345051092680360E080EC0E947F
:10284000280587E892E00E94FE056091680386E013
:1028500090E00E947D039FEF20E782E091502040AE
:102860008040E1F700C0000040E060E070E880E0F8
:1028700090E00E94F5101B9B1DC0809145058130A2
:10288000C9F441E060E070E880E090E00E94F5105B
:10289000109245059FEF20E782E091502040804054
:1028A000E1F700C0000040E060E070E880E090E008
:1028B0000E94F51080915305843009F0C1C060E09A
:1028C00080E80E94280580EA92E00E94FE0582E0EE
:1028D0000E94DB00909366038093650360E08DECBB
:1028E0000E94280580916503909166036AE070E07C
:1028F0000E947C1BCB0162E00E94150660E08FEC19
:102900000E942805809165039091660364E670E05B
:102910000E947C1B61E00E94150680916703811173
:1029200008C060E080EC0E94280587E892E00E94E1
:10293000FE0580916703813041F460E080EC0E94E5
:10294000280583E992E00E94FE051B995AC08091F8
:102950004505811156C041E060E070E880E090E0FC
:102960000E94F51080916703811120C08091450578
:10297000811140C081E0809345058093670360E04A
:1029800080EC0E94280583E992E00E94FE05609198
:10299000670387E090E00E947D039FEF20E782E0DD
:1029A000915020408040E1F700C000008091670313
:1029B000813001F58091450581111CC081E0809333
:1029C00045051092670360E080EC0E94280587E8C7
:1029D00092E00E94FE056091670387E090E00E940C
:1029E0007D039FEF20E782E0915020408040E1F797
:1029F00000C0000040E060E070E880E090E00E94ED
:102A0000F5101B9B1DC0809145058130C9F441E044
:102A100060E070E880E090E00E94F51010924505BB
:102A20009FEF20E782E0915020408040E1F700C016
:102A3000000040E060E070E880E090E00E94F51067
:102A400080915305853009F0A7C081E190E00E9494
:102A5000850390E09093F6038093F5030A968734FC
:102A6000910578F560E080E80E94280580EB92E00F
:102A70000E94FE0560E080EC0E94280580EC92E058
:102A80000E94FE0560E08EEC0E9428058091F5030F
:102A90009091F6036AE070E00E947C1BCB0161E03C
:102AA0000E94150660E08FEC0E9428058091F503D6
:102AB0009091F60364E670E00E947C1B61E00E9446
:102AC00015068091F5039091F6030A9687349105D7
:102AD00080F060E080E80E9428058EEC92E00E9481
:102AE000FE0560E080EC0E9428058FED92E00E94D8
:102AF000FE051B9935C080919C03811131C041E0D6
:102B000060E070E880E090E00E94F5108091F503AD
:102B10009091F60302968F3391052CF49093F6036F
:102B20008093F50304C01092F6031092F50381E040
:102B300080939C036091F50381E190E00E947D0306
:102B40009FEF29EF80E0915020408040E1F700C0E6
:102B5000000040E060E070E880E090E00E94F51046
:102B60001B9B1AC080919C038130B1F441E060E06E
:102B700070E880E090E00E94F51010929C038FE3D3
:102B80009CE90197F1F700C0000040E060E070E8C8
:102B900080E090E00E94F51080915305863009F0A6
:102BA000A3C089E090E00E94850390E090930C041C
:102BB00080930B048997ACF560E080E80E942805BB
:102BC00080EF92E00E94FE0560E080EC0E94280504
:102BD00081E093E00E94FE0560E08EEC0E942805F3
:102BE00080910B0490910C046AE070E00E947C1BC1
:102BF000CB0161E00E94150660E08FEC0E94280581
:102C000080910B0490910C0464E670E00E947C1BA0
:102C100061E00E94150680910B0490910C04899745
:102C200084F060E080E80E9428058EEC92E00E942B
:102C3000FE0560E080EC0E94280580E193E00E94A0
:102C4000FE051B9935C080919C03811131C041E084
:102C500060E070E880E090E00E94F51080910B0445
:102C600090910C0402968B3291052CF490930C04F5
:102C700080930B0404C010920C0410920B0481E0AA
:102C800080939C0360910B0489E090E00E947D0397
:102C90009FEF29EF80E0915020408040E1F700C095
:102CA000000040E060E070E880E090E00E94F510F5
:102CB0001B9B1AC080919C038130B1F410929C033D
:102CC00041E060E070E880E090E00E94F5108FE362
:102CD0009CE90197F1F700C0000040E060E070E877
:102CE00080E090E00E94F51080915305873009F054
:102CF000AEC060E08DE80E94280563E080919803F3
:102D0000909199030E9415068091F0039091F10330
:102D1000803891057CF560E080E80E94280581E21A
:102D200093E00E94FE0560E080EC0E9428058AE2A4
:102D300092E00E94FE0560E08CEC0E9428058091E4
:102D4000F0039091F1036AE070E00E947C1BCB01DC
:102D500062E00E94150660E08EEC0E9428058091DA
:102D6000F0039091F10364E670E00E947C1B61E047
:102D70000E9415068091F0039091F103803891052F
:102D800081F460E080E80E94280582E393E00E94DD
:102D9000FE0560E080EC0E94280583E493E00E9439
:102DA000FE051B9935C080919C03811131C041E023
:102DB00060E070E880E090E00E94F5108091F00300
:102DC0009091F1030196813891052CF49093F103D1
:102DD0008093F00304C01092F1031092F00381E09D
:102DE00080939C036091F00380E190E00E947D035A
:102DF0009FEF29EF80E0915020408040E1F700C034
:102E0000000040E060E070E880E090E00E94F51093
:102E10001B9B1DC080919C038130C9F410929C03C0
:102E200041E060E070E880E090E00E94F5108FE300
:102E30009CE90197F1F700C0000040E060E070E815
:102E400080E090E00E94F510089583B14ECB089584
:102E50000F931F93CF93DF9360E080EC0E942805CF
:102E600084E593E00E94FE056091020470910304E2
:102E70007250072E000C880B990B0E94071D2EEE36
:102E800034E045EB5FE30E945D1C21EE3AE744E944
:102E90005FE30E94931D0E94CF1C70934F056093C7
:102EA0004E0560E081EC0E94280580914E059091CE
:102EB0004F050AE010E0B8010E947C1BCB0162E0E4
:102EC0000E94150660E083EC0E94280580914E0563
:102ED00090914F05C4E6D0E0BE010E947C1B61E0EA
:102EE0000E9415060E94F10060E084EC0E94280513
:102EF00086E593E00E94FE0560919A0370919B0322
:102F00007250072E000C880B990B0E94071D2EEEA5
:102F100034E045EB5FE30E945D1C21EE3AE744E9B3
:102F20005FE30E94931D0E94CF1C7093C8036093BF
:102F3000C70360E087EC0E9428058091C703909149
:102F4000C803B8010E947C1BCB0162E00E941506F9
:102F500060E089EC0E9428058091C7039091C80326
:102F6000BE010E947C1B61E00E9415060E94F100D8
:102F700060E08AEC0E9428058AE593E00E94FE0545
:102F80006091F2037091F3037250072E000C880BCE
:102F9000990B0E94071D2EEE34E045EB5FE30E9483
:102FA0005D1C21EE3AE744E95FE30E94931D0E9415
:102FB000CF1C709392036093910360E08DEC0E94AC
:102FC00028058091910390919203B8010E947C1B87
:102FD000CB0162E00E94150660E08FEC0E9428059C
:102FE0008091910390919203BE010E947C1B61E04D
:102FF0000E941506DF91CF911F910F910895A0E1D6
:10300000B0E0E5E0F8E10C94A51B7C011B016A012E
:10301000FC0117821682838181FF44C39E012F5FCA
:103020003F4F3901F7019381F10193FD859193FFA2
:1030300081911F01882309F431C3853239F493FD4E
:10304000859193FF81911F01853239F4B70190E09A
:103050000E94EE1E56016501E5CF10E0512C912C27
:10306000FFE1F915D8F08B3279F038F4803279F03D
:103070008332A1F4F92DF0612EC08D3261F08033DE
:1030800069F4292D21602DC0392D3260932E892DB0
:103090008460982E2AC0E92DE86015C097FC2DC0E9
:1030A00020ED280F2A3088F496FE06C03AE0139FE0
:1030B000200D1124122F19C08AE0589E200D1124D2
:1030C000522EE92DE0629E2E10C08E3231F496FC15
:1030D000E5C2F92DF0649F2E08C08C3621F4292D0D
:1030E0002068922E02C0883641F4F10193FD85914B
:1030F00093FF81911F018111B3CF9BEB980F933008
:1031000020F4992D9061805E07C09BE9980F933061
:1031100008F066C1992D9F7E96FF16E09F73992E49
:10312000853619F49064992E08C0863621F4392F1B
:103130003068932E02C01111115097FE07C01C3346
:1031400050F444244394410E27E00BC0183038F06B
:1031500027E017E005C027E09CE3492E02C0212F9D
:10316000412C560184E0A80EB11CF60160817181EA
:1031700082819381042DA3010E94001E6C01F981BC
:10318000FC87F0FF02C0F3FF06C091FC06C092FE70
:1031900006C000E205C00DE203C00BE201C000E082
:1031A0008C858C7019F001115AC29BC297FE10C019
:1031B0004C0CFC85F4FF04C08A81813309F44A94E5
:1031C000141474F528E0241578F588E0482E2CC0F6
:1031D00096FC2AC0812F90E08C159D059CF03CEF59
:1031E000C3163FEFD30674F0892D8068982E0AC06D
:1031F000E2E0F0E0EC0FFD1FE10FF11D8081803374
:1032000019F411501111F4CF97FE0EC044244394C9
:10321000410E812F90E0C816D9062CF41C1904C069
:103220004424439401C010E097FE06C01C141D0402
:1032300034F4C601019605C085E090E002C081E04B
:1032400090E001110196112331F0212F30E02F5F22
:103250003F4F820F931F252D30E08217930714F400
:10326000581A01C0512C892D897049F4552039F024
:10327000B70180E290E00E94EE1E5A94F7CF00233F
:1032800029F0B701802F90E00E94EE1E93FC09C048
:10329000552039F0B70180E390E00E94EE1E5A9469
:1032A000F7CF97FE4CC04601D7FE02C0812C912C6F
:1032B000C60188199909F301E80FF91FFE87ED8708
:1032C000960124193109388B2F87012F10E01195B1
:1032D000019511093FEF8316930629F4B7018EE299
:1032E00090E00E94EE1EC814D9044CF08F85988996
:1032F0008815990524F4ED85FE85818101C080E360
:10330000F1E08F1A91082D853E852F5F3F4F3E8754
:103310002D87801691062CF0B70190E00E94EE1EDA
:10332000D9CFC814D90441F49A81963320F4953347
:1033300019F43C8534FF81E3B70190E04EC08A81E7
:10334000813319F09C859F7E9C87B70190E00E9495
:10335000EE1E111105C094FC18C085E690E017C060
:10336000B7018EE290E00E94EE1E1E5F82E001E057
:10337000080FF301E80FF11D8081B70190E00E9472
:10338000EE1E802F0113F3CFE6CF85E490E0B70166
:103390000E94EE1ED7FC06C0C114D10441F4EC8596
:1033A000E4FF05C0D194C194D1088DE201C08BE245
:1033B000B70190E00E94EE1E80E32AE0C216D1041D
:1033C0002CF08F5FFAE0CF1AD108F7CFB70190E069
:1033D0000E94EE1EB701C601C0960E94EE1E54C1A7
:1033E000833631F0833779F0833509F056C020C039
:1033F000560132E0A30EB11CF6018081898301E001
:1034000010E0630112C05601F2E0AF0EB11CF601EC
:10341000C080D18096FE03C0612F70E002C06FEFC4
:103420007FEFC6010E94E31E8C01F92DFF7714C0C7
:10343000560122E0A20EB11CF601C080D18096FE9A
:1034400003C0612F70E002C06FEF7FEFC6010E94E2
:10345000D81E8C01F92DF0689F2EF3FD1AC0852D22
:1034600090E008171907A8F4B70180E290E00E94E5
:10347000EE1E5A94F4CFF60197FC859197FE819148
:103480006F01B70190E00E94EE1E51105A94015056
:1034900011090115110579F7F7C0843611F0893645
:1034A00061F5560197FE09C024E0A20EB11CF60199
:1034B00060817181828193810AC0F2E0AF0EB11CFC
:1034C000F60160817181072E000C880B990BF92D94
:1034D000FF769F2E97FF09C0909580957095619516
:1034E0007F4F8F4F9F4FF0689F2E2AE030E0A3015F
:1034F0000E944C1FC82EC6183FC0092D853721F4E5
:103500000F7E2AE030E01DC0097F8F3691F018F45D
:10351000883559F0C3C0803719F0883711F0BEC024
:10352000006104FF09C0046007C094FE08C0066083
:1035300006C028E030E005C020E130E002C020E114
:1035400032E0560107FF09C084E0A80EB11CF60165
:10355000608171818281938108C0F2E0AF0EB11C5D
:10356000F6016081718180E090E0A3010E944C1F10
:10357000C82EC6180F77902E96FE0BC0092D0E7F11
:10358000C11650F494FE0AC092FC08C0092D0E7EAC
:1035900005C0DC2C092D03C0DC2C01C0D12E04FF9A
:1035A0000DC0FE01EC0DF11D8081803311F4097E08
:1035B00009C002FF06C0D394D39404C0802F86783C
:1035C00009F0D39403FD11C000FF06C01C2DD514D3
:1035D00080F4150D1D190DC0D51458F4B70180E203
:1035E00090E00E94EE1ED394F7CFD51410F45D182E
:1035F00001C0512C04FF10C0B70180E390E00E948D
:10360000EE1E02FF17C001FD03C088E790E002C074
:1036100088E590E0B7010CC0802F867859F001FF53
:1036200002C08BE201C080E207FD8DE2B70190E0AD
:103630000E94EE1EC11638F4B70180E390E00E94AC
:10364000EE1E1150F7CFCA94F301EC0DF11D8081ED
:10365000B70190E00E94EE1EC110F5CF15C0F4E056
:10366000F51560F584E0581A93FE1FC0011127C0BC
:103670002C8523FF2AC006E710E0392D3071932EE8
:10368000F8018491811124C0552009F4E4CCB701DC
:1036900080E290E00E94EE1E5A94F6CFF7018681F8
:1036A000978126C08FEF9FEF23C0B70180E290E0A3
:1036B0000E94EE1E5A945110F8CFD8CF512CB7016A
:1036C000802F90E00E94EE1ED3CF0AE710E0D5CF06
:1036D00091108052B70190E00E94EE1E0F5F1F4FC5
:1036E000CFCF23E0251510F483E0BDCF512CC0CF00
:1036F0006096E2E10C94C11B97FB072E16F4009430
:1037000007D077FD09D00E94DC1B07FC05D03EF4F2
:10371000909581959F4F0895709561957F4F08957D
:10372000EE0FFF1F0590F491E02D0994A29FB001C8
:10373000B39FC001A39F700D811D1124911DB29FE5
:10374000700D811D1124911D08952F923F924F926B
:103750005F926F927F928F929F92AF92BF92CF9221
:10376000DF92EF92FF920F931F93CF93DF93CDB72A
:10377000DEB7CA1BDB0B0FB6F894DEBF0FBECDBFA2
:1037800009942A88398848885F846E847D848C8473
:103790009B84AA84B984C884DF80EE80FD800C817C
:1037A0001B81AA81B981CE0FD11D0FB6F894DEBF5F
:1037B0000FBECDBFED010895AA1BBB1B51E107C091
:1037C000AA1FBB1FA617B70710F0A61BB70B881FB1
:1037D000991F5A95A9F780959095BC01CD01089540
:1037E0005058BB27AA270E94081C0C94591D0E9400
:1037F0004B1D38F00E94521D20F039F49F3F19F400
:1038000026F40C94481D0EF4E095E7FB0C94421D41
:10381000E92F0E946A1D58F3BA17620773078407DD
:10382000950720F079F4A6F50C948C1D0EF4E09524
:103830000B2EBA2FA02D0B01B90190010C01CA016A
:10384000A0011124FF27591B99F0593F50F4503E15
:1038500068F11A16F040A22F232F342F4427585F07
:10386000F3CF469537952795A795F0405395C9F71F
:103870007EF41F16BA0B620B730B840BBAF09150D7
:10388000A1F0FF0FBB1F661F771F881FC2F70EC076
:10389000BA0F621F731F841F48F487957795679549
:1038A000B795F7959E3F08F0B0CF9395880F08F035
:1038B0009927EE0F9795879508950E94711C0C9497
:1038C000591D0E94521D58F00E944B1D40F029F4D2
:1038D0005F3F29F00C94421D51110C948D1D0C94E6
:1038E000481D0E946A1D68F39923B1F3552391F393
:1038F000951B550BBB27AA2762177307840738F05F
:103900009F5F5F4F220F331F441FAA1FA9F335D0BB
:103910000E2E3AF0E0E832D091505040E695001C6F
:10392000CAF72BD0FE2F29D0660F771F881FBB1F29
:10393000261737074807AB07B0E809F0BB0B802D07
:10394000BF01FF2793585F4F3AF09E3F510578F033
:103950000C94421D0C948D1D5F3FE4F3983ED4F30C
:10396000869577956795B795F7959F5FC9F7880F07
:10397000911D9695879597F90895E1E0660F771F59
:10398000881FBB1F621773078407BA0720F0621BEA
:10399000730B840BBA0BEE1F88F7E09508950E9415
:1039A000D61C6894B1110C948D1D08950E94721D4F
:1039B00088F09F5798F0B92F9927B751B0F0E1F0F0
:1039C000660F771F881F991F1AF0BA95C9F714C0A0
:1039D000B13091F00E948C1DB1E008950C948C1DC3
:1039E000672F782F8827B85F39F0B93FCCF38695D9
:1039F00077956795B395D9F73EF490958095709536
:103A000061957F4F8F4F9F4F0895E89409C097FBB2
:103A10003EF490958095709561957F4F8F4F9F4FA5
:103A20009923A9F0F92F96E9BB279395F6958795E9
:103A300077956795B795F111F8CFFAF4BB0F11F4AC
:103A400060FF1BC06F5F7F4F8F4F9F4F16C0882353
:103A500011F096E911C0772321F09EE8872F762F89
:103A600005C0662371F096E8862F70E060E02AF0CA
:103A70009A95660F771F881FDAF7880F96958795B6
:103A800097F9089597F99F6780E870E060E00895DE
:103A90009FEF80EC089500240A9416161706180666
:103AA0000906089500240A94121613061406050642
:103AB0000895092E0394000C11F4882352F0BB0FD3
:103AC00040F4BF2B11F460FF04C06F5F7F4F8F4F36
:103AD0009F4F089557FD9058440F551F59F05F3F71
:103AE00071F04795880F97FB991F61F09F3F79F020
:103AF00087950895121613061406551FF2CF4695A2
:103B0000F1DF08C0161617061806991FF1CF869523
:103B10007105610508940895E894BB276627772707
:103B2000CB0197F908950E94A61D0C94591D0E947F
:103B30004B1D38F00E94521D20F0952311F00C947B
:103B4000421D0C94481D11240C948D1D0E946A1D69
:103B500070F3959FC1F3950F50E0551F629FF001E0
:103B6000729FBB27F00DB11D639FAA27F00DB11DF9
:103B7000AA1F649F6627B00DA11D661F829F222782
:103B8000B00DA11D621F739FB00DA11D621F839F09
:103B9000A00D611D221F749F3327A00D611D231FDF
:103BA000849F600D211D822F762F6A2F11249F572D
:103BB00050409AF0F1F088234AF0EE0FFF1FBB1F30
:103BC000661F771F881F91505040A9F79E3F5105EF
:103BD00080F00C94421D0C948D1D5F3FE4F3983EE1
:103BE000D4F3869577956795B795F795E7959F5F99
:103BF000C1F7FE2B880F911D9695879597F908952B
:103C0000283008F027E03327DA01990F311D87FDAE
:103C1000916000966105710539F432602E5F3D9325
:103C200030E32A95E1F708959F3F30F08038710521
:103C3000610509F03C5F3C5F3D93913008F080687E
:103C4000911DDF93CF931F930F93FF92EF92192F44
:103C5000987F9695E92F96959695E90FFF27E8525C
:103C6000FF4F99273327EE24FF24A701E701059092
:103C70000894079428F4360FE71EF81E491F511DBB
:103C8000660F771F881F991F0694A1F70590079468
:103C900028F4E70EF81E491F561FC11D770F881F15
:103CA000991F661F0694A1F70590079428F4F80E53
:103CB000491F561FC71FD11D880F991F661F771FE9
:103CC0000694A1F70590079420F4490F561FC71FCB
:103CD000D81F990F661F771F881F0694A9F7849134
:103CE0001095177041F0D695C79557954795F7945D
:103CF000E7941A95C1F7EEE7F0E0689415901591F6
:103D000035916591959105907FE27395E118F10ADF
:103D1000430B560BC90BD009C0F7E10CF11E431F32
:103D2000561FC91FD01D7EF4703311F48A95E6CF5B
:103D3000E894015030F0080F0AF40027021708F445
:103D4000202F2395022F7A3328F079E37D932A954B
:103D5000E9F710C07D932A9589F6069497956795A3
:103D6000379517951794E118F10A430B560BC90BB9
:103D7000D00998F023957E9173957A3308F070E31B
:103D80007C932013B8F77E9170617D9330F083951A
:103D900071E37D9370E32A95E1F71124EF90FF9092
:103DA0000F911F91CF91DF91992787FD90950895ED
:103DB000FC010590615070400110D8F780959095F6
:103DC0008E0F9F1F0895FC016150704001900110FB
:103DD000D8F7809590958E0F9F1F08950F931F938E
:103DE000CF93DF93FB01238121FD03C08FEF9FEF72
:103DF0002CC022FF16C0468157812481358142178D
:103E0000530744F4A081B1819D012F5F3F4F31835F
:103E100020838C93268137812F5F3F4F3783268302
:103E200014C08B01EC01FB010084F185E02D0995A4
:103E3000892BE1F6D80116968D919C9117970196E2
:103E400017969C938E931697CE01DF91CF911F9179
:103E50000F910895AEE0B0E0E0E3FFE10C94B31BF6
:103E60000D891E8986E08C831A8309838FEF9FE773
:103E70009E838D83AE01475E5F4F6F89788DCE0143
:103E800001960E94FF17EF81F885E00FF11F108265
:103E90002E96E4E00C94CF1BFA01AA27283051F1AA
:103EA000203181F1E8946F936E7F6E5F7F4F8F4F6B
:103EB0009F4FAF4FB1E03ED0B4E03CD0670F781FCA
:103EC000891F9A1FA11D680F791F8A1F911DA11DAF
:103ED0006A0F711D811D911DA11D20D009F46894E8
:103EE0003F912AE0269F11243019305D3193DEF690
:103EF000CF010895462F4770405D4193B3E00FD046
:103F0000C9F7F6CF462F4F70405D4A3318F0495D30
:103F100031FD4052419302D0A9F7EACFB4E0A69513
:103F20009795879577956795BA95C9F70097610535
:103F3000710508959B01AC010A2E0694579547958B
:103F400037952795BA95C9F7620F731F841F951F80
:083F5000A01D0895F894FFCFB5
:103F580005004142544F2020205045A3A54D202064
:103F680020200042C3786FE320BD61207065B6B899
:103F7800BC202000A16FBF6FB3BD6F63BFC42E2EDE
:103F88002E004865B3C3786FE320BD61207065B625
:103F9800B8BC005053204C494E45204552524F5210
:103FA80020202000546D70252E3166432F486D2542
:103FB8002E31662525202000A8B8BF61BDB8652030
:103FC800424BA7B0AB45484F00A461BE7963BA2005
:103FD8004F544BA7B0ABA248202020202000507996
:103FE800C0BD6FB9205045A3A54D2020202000500A
:103FF80079C0BD6FB920A8A9434B20B365BDBF00E8
:104008002143B8B4BD61BB20A84FA341505F212014
:104018000041B36170B8C720BEB8BF61BDB8C72042
:10402800200041B36170B8C720B3786FE3612041C5
:104038004C200041B36170B8C720B3786FE36120AA
:104048005053200041B36170B8C720333830422044
:10405800202020200041B36170B8C720E461B7B8C0
:10406800706FB3BAB8005065B365706320E461B788
:1040780020333830422000202020202020202020FB
:1040880020202020202020004FBFBABB6FBD65BD77
:10409800B8652020202020200061BCBEBBB8BF79B5
:1040A800E32C422B2F2D00427065BCC720B3C37888
:1040B8006FE3612020202000BD61207065B6B8BC88
:1040C8002C006365BA2E0054B8BE20E361BFC0B8A7
:1040D800BA61202D5053002D4E4F2D6FBFBA70C3BB
:1040E800BF2D002D4E432DB761BCBABD79BF2D0041
:1040F80054B8BE20E361BFC0B8BA61202D414C005E
:10410800A86F706FB420637061B26FBFBAB8200037
:1041180054286D6178292D432020202020004B6FE2
:10412800BDBF706FBBC4202020202020202000BFEE
:1041380065BCBE2D70C320202020204F544BA70003
:10414800E06FBE7963BFB8BCC3B92020202020200F
:104158000063E3B3B8B420E461B720202025200031
:1041680063E3B3B8B46120E461B7204F544BA72090
:104178000053797374656D5F6164726573202020E4
:1041880020004164726573732064697361626C65B1
:1041980020200020202020202020204F544BA72022
:0E41A8002020200055005F5F56005F5F57002B
:00000001FF
