:100000000C94BC000C94D9000C94D9000C94D90029
:100010000C94D9000C94D9000C94D9000C941E08AF
:100020000C94D9000C94D9000C94D9000C944B0872
:100030000C94D9000C94D9000C94D9000C94D900DC
:100040000C94D9000C94D9000C94D9000C94D900CC
:100050000C94D9000C94D9000C94D9000C94D900BC
:100060000C94D9000C94D900320C3D0C480C530C64
:100070005E0C690C740C6E616E00696E6600004067
:100080007A10F35A00A0724E18090010A5D4E800A7
:1000900000E87648170000E40B54020000CA9A3BBF
:1000A000000000E1F5050000809698000000404245
:1000B0000F000000A08601000000102700000000D3
:1000C000E803000000006400000000000A000000D7
:1000D00000000100000000002C76D888DC674F0883
:1000E00023DFC1DFAE59E1B1B796E5E3E453C63A89
:1000F000E651997696E8E6C28426EB898C9B62ED00
:10010000407C6FFCEFBC9C9F40F2BAA56FA5F490B9
:10011000055A2AF75C936B6CF9676DC11BFCE0E430
:100120000D47FEF520E6B500D0ED902E0300943586
:1001300077050080841E080000204E0A000000C8D9
:100140000C333333330F986E12831141EF8D21142A
:10015000893BE65516CFFEE6DB18D1844B381BF7FA
:100160007C1D901DA4BBE424203284725E22810099
:10017000C9F124ECA1E53D2711241FBECFEFD8E043
:10018000DEBFCDBF13E0A0E0B1E0E2E4F8E402C0DE
:1001900005900D92A238B107D9F725E0A2E8B3E0A7
:1001A00001C01D92AC38B207E1F70E9462080C94BE
:1001B0001F240C94000080937C00EAE7F0E080812B
:1001C00080648083808186FDFDCFE8E7F0E0808158
:1001D0002091790090E0922B91838083808191819E
:1001E00008950F931F93CF93DF93109235041092CD
:1001F00034041092C9031092C8031092250410927F
:100200002404C5E9D0E000E012E083E00E94DB00B6
:1002100090937D0580937C052091340430913504C2
:10022000821793076CF0811522E092072CF09093CF
:1002300035048093340404C01093350400933404CF
:1002400087E00E94DB009093AA038093A90320918A
:10025000C8033091C903821793076CF0811522E01F
:1002600092072CF09093C9038093C80304C01093A5
:10027000C9030093C80386E00E94DB009093CC037F
:100280008093CB0320912404309125048217930797
:100290006CF0811522E092072CF090932504809356
:1002A000240404C01093250400932404219709F02A
:1002B000ACCF8091340490913504DF91CF911F91A0
:1002C0000F9108950F931F93CF93DF9341E060E068
:1002D00071E080E090E00E9477110E94FD0B809118
:1002E000880381111DC080911B0481111DC01092D3
:1002F000850360E080E80E94280582E091E00E948A
:10030000FE0510920E0440E060E870E080E090E0AE
:100310000E94771110921A0410921904109283030C
:1003200080918803823029F080911B04823009F08B
:100330008CC081E08093830341E060E870E080E05E
:1003400090E00E947711C0911704D0911804009199
:10035000190410911A0490918503913089F441E0B9
:1003600060E074E080E090E00E94771160E080E857
:100370000E94280583E191E00E94FE0510920E0480
:100380004091190450911A042091170430911804D7
:100390004217530794F580918503811156C0C01B05
:1003A000D10B60E080E80E94280584E291E00E9481
:1003B000FE0560E08DE80E942805CE016AE070E04D
:1003C0000E94C31FCB0162E00E94150660E08FE827
:1003D0000E942805CE0164E670E00E94C31F61E020
:1003E0000E9415062091190430911A048091170477
:1003F000909118042817390744F1809185038111E1
:1004000016C060E080E80E94280582E391E00E9427
:10041000FE0581E080930E042091190430911A04A6
:1004200080911704909118042817390774F080916F
:100430008503823050F060E080E80E94280583E464
:1004400091E00E94FE0510920E048FE39CE9019753
:10045000F1F700C00000DF91CF911F910F91089537
:10046000CF93DF93579A5F982FEF80EE90E0215063
:1004700080409040E1F700C000005F9A579887ECF9
:1004800090E00197F1F700C000004F9935C08FE36D
:1004900091E00197F1F700C000004F9B30C08091C0
:1004A0007505809380054F99FECFAFE0B4E0C4E1BD
:1004B000D4E061E070E0FD011C9287E090E04F9B8A
:1004C000FECF2AE82A95F1F700C04F9B0AC0408171
:1004D0009B01082E02C0220F331F0A94E2F7242B3F
:1004E00020834F99FECF019750F71196CA17DB076B
:1004F00011F781E090E005C080E090E002C080E06C
:1005000090E0DF91CF9108958F929F92AF92BF922A
:10051000DF92EF92FF920F931F93CF93DF9310928E
:1005200093030E94300280939303813009F08AC0C4
:100530001092F0031092EF03EFE0F4E06081C62F19
:10054000D0E06181062F10E0D2806381E62EF12C8D
:10055000CE01800F911F8D0D911D8E0D9F1D9093CB
:100560002F0480932E046D2D6F7770E080E090E073
:100570000E9453212DEC3CEC4CEC51E40E940822EB
:100580004B015C01B701FF0C880B990B0E945321B2
:100590002DEC3CEC4CEC5DE30E9408229B01AC018D
:1005A000C501B4010E9438204B015C016093FF0338
:1005B0007093000480930104909302040E941B2115
:1005C0007093950360939403DD209CF4B7FAB09484
:1005D000B7F8B0948092FF0390920004A0920104B7
:1005E000B0920204719561957109709395036093BF
:1005F0009403B801110F880B990B0E9453212DEC25
:100600003CEC4CEC5DE30E9408224B015C01BE0116
:10061000DD0F880B990B0E9453212DEC3CEC4CEC28
:1006200051E40E9408229B01AC01C501B4010E9463
:1006300038206093FB037093FC038093FD03909339
:10064000FE0318C0811109C08091EF039091F0035F
:1006500001969093F0038093EF038091EF039091C4
:10066000F0038536910534F084E690E09093F00332
:100670008093EF0310928105DF91CF911F910F912D
:10068000FF90EF90DF90BF90AF909F908F90089574
:100690000E94840260E080EC0E9428058091FE03A5
:1006A0008F938091FD038F938091FC038F938091B2
:1006B000FB038F93809102048F93809101048F93A9
:1006C000809100048F938091FF038F9384E591E0E4
:1006D0009F938F938DEA93E09F938F930E949F2324
:1006E0008DEA93E00E94FE058DB79EB70C960FB67B
:1006F000F8949EBF0FBE8DBF0895F999FECF92BDAD
:1007000081BD60BDFA9AF99A0895F999FECF92BD1C
:1007100081BDF89A80B5089580E00E94DB00909337
:100720008A03809389038E5492408F36910570F42A
:1007300080918B03813051F482E08093880341E003
:1007400060E072E080E090E00E9477118091890380
:1007500090918A03805991408D3B910508F047C0E4
:1007600020918B0321113EC082E08093880341E0F9
:1007700060E072E080E090E00E9477118091890350
:1007800090918A03805991408F3521E0920718F0AB
:1007900021E0209388038D3B910568F480918B03C1
:1007A000813049F41092880340E060E072E080E01C
:1007B00090E00E9477118091890390918A038E5472
:1007C00092408F369105C0F480918B03811114C043
:1007D0001092880340E060E072E080E090E00E94C8
:1007E000771108958F3521E0920790F6D7CF8F3596
:1007F00021E0920700F3CCCF089581E00E94DB0056
:1008000090938703809386039C012E5432402F36A9
:10081000310508F0B8C080918C03813099F4809143
:100820008403813029F080918303813009F0D7C09F
:1008300081E08093850341E060E074E080E090E037
:100840000E9477118091860390918703805991408F
:100850008D3B910508F0D4C080918C038111A5C017
:1008600080918403813029F080918303813009F0E5
:1008700091C081E08093850341E060E074E080E016
:1008800090E00E94771180918603909187038E54A7
:1008900092408F369105B0F480918C03813091F4B1
:1008A000809184038111BEC0809183038111BAC0FD
:1008B00083E08093850341E060E074E080E090E0B5
:1008C0000E9477118091860390918703805991400F
:1008D0008D3B910508F07EC080918C0381116FC023
:1008E000809184038111A8C0809183038111A4C0E9
:1008F00083E08093850341E060E074E080E090E075
:100900000E947711809186039091870380599140CE
:100910008F35914050F082E08093850341E060E0A4
:1009200078E080E090E00E947711809186039091BA
:100930008703805991408D3B910568F480918C0329
:10094000813049F41092850340E060E074E080E07B
:1009500090E00E94771180918603909187038E54D6
:1009600092408F36910508F072C080918C038111FE
:100970006EC01092850340E060E074E080E090E09B
:100980000E9477110895805991408D3B910508F49C
:1009900063CF41C080918603909187038059914035
:1009A0008D3B910508F49CCF15C0809186039091F2
:1009B00087038E5492408F36910508F46DCF809155
:1009C000860390918703805991408F35914008F4B8
:1009D000B5CFA1CF8F35914008F4BDCF9CCF80918A
:1009E000860390918703805991408D3B9105E8F2F1
:1009F0004ACF809186039091870380599140EACF36
:100A000080918603909187038E5492408F36910592
:100A100008F442CFEECF80918603909187038059EE
:100A20009140D8CF8091860390918703805991405F
:100A30008D3B910520F2CECF809186039091870364
:100A4000805991408F35914008F485CF64CF089547
:100A5000CF93C82F613041F441E061E070E080E065
:100A600090E00E94771107C040E061E070E080E014
:100A700090E00E94771141E062E070E080E090E059
:100A80000E947711C4FF08C041E064E070E080E09C
:100A900090E00E94771107C040E064E070E080E0E1
:100AA00090E00E947711C5FF08C041E068E070E067
:100AB00080E090E00E94771107C040E068E070E0BD
:100AC00080E090E00E947711C6FF08C041E060E13D
:100AD00070E080E090E00E94771107C040E060E1A4
:100AE00070E080E090E00E947711CC2344F441E074
:100AF00060E270E080E090E00E94771107C040E083
:100B000060E270E080E090E00E94771140E062E0F7
:100B100070E080E090E00E9477118FE39FE1019701
:100B2000F1F700C0000041E062E070E080E090E09A
:100B30000E947711C0FF08C041E064E070E080E0EF
:100B400090E00E94771107C040E064E070E080E030
:100B500090E00E947711C1FF08C041E068E070E0BA
:100B600080E090E00E94771107C040E068E070E00C
:100B700080E090E00E947711C2FF08C041E060E190
:100B800070E080E090E00E94771107C040E060E1F3
:100B900070E080E090E00E947711C3FF08C041E060
:100BA00060E270E080E090E00E94771107C040E0D2
:100BB00060E270E080E090E00E94771140E062E047
:100BC00070E080E090E00E9477118FE39FE1019751
:100BD000F1F700C00000CF91089560E082E00E942C
:100BE000280560E088E20E94280560E08CE00E9411
:100BF000280560E081E00E94280508950F931F9367
:100C0000CF93FC018081882361F08F01C0E0CF5F2A
:100C100061E00E942805F801EC0FF11D808181112F
:100C2000F6CFCF911F910F910895CF93DF93EC01F1
:100C3000623009F449C020F4613009F46DC08AC003
:100C40006330C1F0643009F085C09C01369527956A
:100C50003695279536952795A5ECB0E20E94DD1FC5
:100C6000929582958F7089279F70892761E0805DBA
:100C70000E9428059E013695279536952795ABE766
:100C8000B4E10E94DD1FAC01569547959A01ADEC89
:100C9000BCEC0E94DD1F9695879596958795969555
:100CA00087959C01220F331F880F991F880F991F6A
:100CB000880F991F820F931F9A01281B390BC901B6
:100CC00061E0805D0E9428059E01ADECBCEC0E94B5
:100CD000DD1FAC0156954795569547955695479516
:100CE0009A010E94DD1F9695879596958795969512
:100CF00087959C01220F331F880F991F880F991F1A
:100D0000880F991F820F931F9A01281B390BC90165
:100D100061E0805D0E9428059E01ADECBCEC0E9464
:100D2000DD1F9695879596958795969587959C0155
:100D3000220F331F880F991F880F991F880F991F43
:100D4000820F931F9E01281B390BC90161E0805D52
:100D50000E942805DF91CF910895109229041092E6
:100D60000504109207048091C2039091C303019679
:100D70009093C3038093C20360912404709125046F
:100D80007250072E000C880B990B0E9453212EEEF7
:100D900034E045EB5FE30E94A92021EE3AE744E905
:100DA0005FE30E9408220E941B21AB0170930B0499
:100DB00060930A04209100013091010181EE90E0DE
:100DC000821B930B481759072CF02F513F4F2417C4
:100DD00035074CF5809175059091760520912A0490
:100DE00030912B04821B930B8D349D41A4F440E081
:100DF00060E470E080E090E00E94771180917505DA
:100E00009091760520912A0430912B04821B930B3C
:100E10008D349D41ECF041E060E470E080E090E0D2
:100E20000E94771115C081E0809329048093050406
:100E300080910C0490910D04019690930D04809381
:100E40000C0441E060E470E080E090E00E947711E3
:100E500081E0809305042091C2033091C303409147
:100E60000C0450910D0464E6649FC001659F900DD1
:100E70001124B9010E94C31F7093D0036093CF0364
:100E80002436310541F41092C3031092C20310922C
:100E90000D0410920C0480917505909176052091B7
:100EA0002A0430912B04AC01421B530B9A012839C0
:100EB0003A4324F090932B0480932A040895809160
:100EC0008803823039F421E030E0309340042093ED
:100ED0003F0404C01092400410923F042091A703E5
:100EE0003091A803232B39F421E030E03093420401
:100EF0002093410404C010924204109241048130B6
:100F000039F481E090E0909344048093430404C05A
:100F1000109244041092430480918503823039F486
:100F200021E030E0309346042093450404C0109241
:100F300046041092450490910504911107C021E0E8
:100F400030E0309348042093470404C010924804D2
:100F50001092470490910604913039F421E030E07A
:100F600030934A042093490404C010924A0410921A
:100F700049049091C103923039F421E030E030937C
:100F80004C0420934B0404C010924C0410924B0468
:100F900090910E04913039F421E030E03093500408
:100FA00020934F0404C01092500410924F048330D9
:100FB00038F081E090E0909352048093510404C093
:100FC000109252041092510480913D0490913E047D
:100FD000899724F010924A04109249048091A50345
:100FE0009091A603899714F110924C0410924B042F
:100FF0001DC090813296890FE217F307D1F78093D5
:10100000070481110BC040E060E078E080E090E0F0
:101010000E94771180910704882379F041E060E015
:1010200078E080E090E00E947711089580910704B5
:10103000E1E4F4E023E534E0DCCF08951F920F9261
:101040000FB60F9211242F933F934F935F936F939B
:101050007F938F939F93AF93BF93EF93FF93809171
:1010600075059091760501969093760580937505A8
:101070000E940210FF91EF91BF91AF919F918F91CC
:101080007F916F915F914F913F912F910F900FBE84
:101090000F901F9018951F920F920FB60F92112468
:1010A0008F939F938091190490911A0401969093C5
:1010B0001A04809319049F918F910F900FBE0F9087
:1010C0001F90189541E060E070E880E090E00E9499
:1010D0007711AAE7B0E08C9180688C93ECE7F0E0A0
:1010E0008081108280818064808380818F6D808385
:1010F0008C9186608C93EBE7F0E080818083EEE753
:10110000F0E080818763808380B7806880BF80E261
:1011100087B992E094B988E185B98EEF8AB918B899
:1011200010928000E1E8F0E080818D608083109271
:1011300085001092840029E03DE3309389002093DC
:10114000880090936F00E0EBF0E080818260808304
:10115000E1EBF0E08081826080831092B2008FEF3B
:101160008093B300E0E7F0E08081826080832FEF1E
:1011700083EC99E0215080409040E1F700C00000EE
:101180000E94ED0560E081E00E94280560E080E8B3
:101190000E94280588E691E00E94FE050E94AD06A7
:1011A0000E946F1B4E9A0E946F1B10927E0585E075
:1011B00090E0909318048093170410921A041092F0
:1011C000190483E080938A051092F3031092CA03F6
:1011D00010927B051092A6031092A50310923E0474
:1011E00010923D0410922804109227041092EE03EE
:1011F0001092ED031092A8031092A7031092FA0325
:101200001092F90310923904109238041092F003EE
:101210001092EF03109206041092C10310920E0474
:1012200083E190E090932304809322048DE990E081
:101230009093F2038093F10381E090E00E94850394
:1012400080938A0582E090E00E94850390E090936D
:1012500018048093170483E090E00E94850390E0D7
:10126000909301018093000186E090E00E94850345
:10127000823018F480938C0303C081E080938C0348
:1012800087E090E00E948503823018F480938B03FE
:1012900003C081E080938B0388E090E00E94850387
:1012A00090E09093A6038093A5038B9734F089E296
:1012B00090E09093A6038093A50389E090E00E94BC
:1012C000850390E090933E0480933D048B9734F027
:1012D00089E290E090933E0480933D0480E190E0A9
:1012E0000E94850390E09093230480932204813828
:1012F000910524F0109223041092220481E190E0E1
:101300000E94850390E09093280480932704CF9750
:1013100034F08DE390E0909328048093270482E1D9
:1013200090E00E94850390E09093EE038093ED039C
:101330008536910534F084E690E0909328048093FC
:10134000270483E190E00E94850390E09093870555
:101350008093860584E190E00E94850390E090935D
:101360009E0380939D0385E190E00E94850390E0B9
:101370009093EC038093EB0386E190E00E94850359
:10138000C82FD0E0D093C003C093BF0360919D03EA
:1013900070919E03072E000C880B990B0E9453211D
:1013A0002DEC3CEC4CEC5DE30E9408226B017C01CF
:1013B0006091860570918705072E000C880B990BAC
:1013C0000E9453219B01AC01C701B6010E94382045
:1013D00060937705709378058093790590937A05EB
:1013E0006091EB037091EC03072E000C880B990BB6
:1013F0000E9453216B017C01BE01DD0F880B990B0C
:101400000E9453212DEC3CEC4CEC5DE30E94082241
:101410009B01AC01C701B6010E94382060939F0375
:101420007093A0038093A1039093A20310928B0565
:1014300080E00E94DB0090938A038093890381E01F
:101440000E94DB0090938703809386030E946F1BAA
:101450000E94AD060E945F07789410929B03109241
:101460009A0340E060E070E880E090E00E9477112D
:1014700011E0C1E0D0E00E94F1000E948C030E94C4
:10148000FD030E94AD060E94A1120E945F07809199
:101490008A05823009F4C5C01093EA032091CF0376
:1014A0003091D0038091A5039091A603820F931FE2
:1014B00084369105D4F440E060E470E080E090E090
:1014C0000E9477111092A8031092A7038091A503A0
:1014D0009091A6032091CF033091D003280F391F9C
:1014E0002436310514F489975CF0D093A803C09397
:1014F000A703412F60E470E080E090E00E94771144
:101500001B9946C080918203811142C080918B0556
:1015100081118AC0412F60E070E880E090E00E9475
:10152000771180918A058F5F80938A0510938203DB
:1015300010927E0510921D0410921C042FEF86E776
:1015400091E0215080409040E1F700C000001092EF
:10155000840340E060E870E080E090E00E94771152
:1015600080918A05843010F010938A0560918A0575
:10157000CE010E947D038FE39CE90197F1F700C043
:101580000000412F60E070E880E090E00E94771159
:101590001B9B12C080918203813071F480918B0576
:1015A00081110AC010927E05109282038FE39CE99C
:1015B0000197F1F700C0000080918A05813031F475
:1015C00080918B05811125C00E94160B80918A05A0
:1015D000823031F480918B0581111BC00E94620121
:1015E00080918A058330A9F480918B05811111C007
:1015F00060E080E80E94280589E791E00E94FE05EE
:101600000E94FD0B40E060E071E080E090E00E940D
:10161000771140E060E070E880E090E00E94771190
:101620002ACF1092EA033ACF83B1C6CF40E060E000
:1016300071E080E090E00E94771180917E05811139
:10164000CBC01C9BC6C0809184038111C2C060E0E6
:1016500080E80E9428058EE891E00E94FE050E9425
:1016600048031C9924C080917E05882309F4BAC0E0
:101670001EC041E060E070E880E090E00E947711D9
:1016800081E080937E052FEF81EE94E02150804031
:101690009040E1F700C0000010921A041092190463
:1016A00040E060E070E880E090E00E947711809177
:1016B0007E05813009F09BC01C9B41C08091840352
:1016C00081113DC081E08093840341E060E870E0D7
:1016D00080E090E00E94771110927E052FEF89EF55
:1016E00090E0215080409040E1F700C000008091E0
:1016F0007E05811173C01C995DC080918403813087
:1017000009F058C080937E0541E060E070E880E019
:1017100090E00E9477112FEF82E597E02150804002
:101720009040E1F700C0000040E060E070E880E039
:1017300090E00E94771180917E058130B9F51C9B65
:101740005BC080918403813009F056C010928403FD
:1017500010927E0560E080E80E9428058EE891E006
:101760000E94FE050E94480380918803813071F435
:1017700080918503823050F060E080E80E94280567
:101780008EE891E00E94FE050E94480340E060E878
:1017900070E080E090E00E9477112FEF89EF90E0F9
:1017A000215080409040E1F700C0000080917E050C
:1017B000811122C0809184038130F1F410920E04D3
:1017C00060E080E80E9428058FE991E00E94FE0514
:1017D00008951C9B07C08BCF83B169CF813009F47A
:1017E000AECF089580918403811185CF42CF80913F
:1017F0007E05882309F47FCF0895CF93DF9360E0BF
:1018000080EC0E9428051092090410920804C091EF
:101810001C04D0911D04C730D10509F0EAC00E9414
:101820004803C0911C04D0911D04C730D1050CF0B1
:1018300074C0FE01EE0FFF1FE15CFB4F80819181C0
:10184000019709F060C005C081919191019709F05D
:101850005FC0C730D10508F051C0FE01EC5CFF4FFE
:101860000C94D71F80EB91E00E94FE0581E090E090
:10187000909309048093080441C081EC91E00E9498
:10188000FE0581E090E0909309048093080436C03F
:1018900082ED91E00E94FE0581E090E090930904C2
:1018A000809308042BC083EE91E00E94FE0581E046
:1018B00090E0909309048093080420C084EF91E0A5
:1018C0000E94FE0581E090E0909309048093080453
:1018D00015C085E092E00E94FE0581E090E09093C3
:1018E0000904809308040AC086E192E00E94FE0584
:1018F00081E090E09093090480930804D0931D0444
:10190000C0931C040AC0FE01EE0FFF1FEF5BFB4FEC
:101910002196C730D1050CF497CF8091080490919F
:101920000904892B31F40E94480310921D0410927F
:101930001C041C990AC08091CA03811106C081E071
:101940008093CA031C9B5AC007C01C9B57C0809140
:10195000CA03813009F052C041E060E070E880E0E5
:1019600090E00E9477111092CA03E0911C04F0915C
:101970001D04CF01019690931D0480931C04DC018B
:10198000AA0FBB1FA15CBB4F2D913C91232B49F5A6
:10199000873091055CF012C02191319121303105E1
:1019A00049F490931D0480931C0408C0EE0FFF1FA0
:1019B000ED5BFB4F01968730910571F780911C0418
:1019C00090911D04089724F010921D0410921C049D
:1019D0002FEF89EF90E0215080409040E1F700C068
:1019E000000040E060E070E880E090E00E94771145
:1019F00005C0C730D1050CF41CCF95CFDF91CF9136
:101A0000089580919603909197038D30910509F088
:101A1000F0C2E3E5F4E0228D338D80911E049091B5
:101A20001F04822B932B24893589220F331F220F09
:101A3000331F220F331F822B932B26893789220FC6
:101A4000331F220F331F822B932B208D318D220FBA
:101A5000331F822B932B90931F0480931E0408C086
:101A6000299A459A80919603909197030D9711F4C6
:101A7000299A459A80919603909197030E9761F465
:101A800080913F0490914004019721F080911B04C4
:101A90008230B1F4299A459A8091960390919703E8
:101AA0008D3091050CF4ADC2469711F4299A459AF0
:101AB00080919603909197034F9711F4299A459A34
:101AC0008091960390919703889711F4299A459AEB
:101AD0008091960390919703C19711F4299A459AA2
:101AE0008091960390919703CA9711F4299A459A89
:101AF00080919603909197038334910511F4299A6C
:101B0000459A80919603909197038C34910511F436
:101B1000299A459A80911E0490911F048230910564
:101B200009F46AC01CF4892B49F0089583309105AB
:101B300009F47FC00E9709F4F7C1089580919603C8
:101B400090919703099711F4299A459A80919603E9
:101B5000909197030D9711F4299A459A80919603D5
:101B6000909197030E9761F480913F049091400407
:101B7000019721F080911B04823091F4299A459AB3
:101B80008091960390919703469711F4299A459A6C
:101B900080919603909197034F9711F4299A459A53
:101BA0008091960390919703889711F4299A459A0A
:101BB0008091960390919703C19711F4299A459AC1
:101BC0008091960390919703CA9711F4299A459AA8
:101BD00080919603909197038334910511F4299A8B
:101BE000459A80919603909197038C34910509F062
:101BF00008C2299A459A0895809196039091970377
:101C00000D9711F4299A459A809196039091970324
:101C10000E9709F0F6C180913F049091400401971E
:101C200029F080911B04823009F0EBC1299A459A72
:101C3000089580919603909197030D9711F4299A36
:101C4000459A80919603909197030E9761F4809145
:101C50003F0490914004019721F080911B04823051
:101C600091F4299A459A809196039091970346970B
:101C700011F4299A459A80919603909197034F9772
:101C800011F4299A459A8091960390919703889729
:101C900011F4299A459A8091960390919703C197E0
:101CA00011F4299A459A8091960390919703CA97C7
:101CB00011F4299A459A8091960390919703833461
:101CC000910511F4299A459A809196039091970372
:101CD0008C34910511F4299A459A8091960390913C
:101CE00097039C012E5031092830310520F525E15C
:101CF00030E0281B390B8091F1039091F20302C070
:101D0000959587952A95E2F7817099272091C403CC
:101D10003091C503822B932B9093C5038093C4030A
:101D2000019711F4299A459A8091C4039091C503B3
:101D3000892B09F4299880919603909197034F97E6
:101D4000A9F48091C4039091C50381609093C50369
:101D50008093C403019709F04DC0299A459A809158
:101D6000C4039091C503892B09F4299880919603A7
:101D70009091970382970297D8F48091EA03682F95
:101D8000617070E08091C4039091C503682B792B3A
:101D90007093C5036093C4036130710511F4299AEF
:101DA000459A8091C4039091C503892B09F4299821
:101DB00080919603909197038797E1F48091810534
:101DC000482F417050E08091C4039091C503482B87
:101DD000592B5093C5034093C4034130510509F07A
:101DE0000CC1299A459A8091C4039091C503892B0F
:101DF00009F429982091960330919703C901C3975C
:101E0000069760F58091890390918A0399230CF4D9
:101E10000396959587959595879549E350E0BA0186
:101E2000621B730B02C0959587956A95E2F78170E6
:101E300099272091C4033091C503822B932B909353
:101E4000C5038093C403019711F4299A459A8091A0
:101E5000C4039091C503892B09F4299880919603B6
:101E6000909197039C012C5331092730310520F5BF
:101E700022E430E0281B390B809194039091950364
:101E800002C0959587952A95E2F781709927209150
:101E9000C4033091C503822B932B9093C503809389
:101EA000C403019711F4299A459A8091C403909133
:101EB000C503892B09F42998209196033091970343
:101EC000C90185549109079708F09BC0809186034A
:101ED0009091870399230CF4039695958795959592
:101EE00087954BE450E0BA01621B730B02C09595D5
:101EF00087956A95E2F7817099272091C403309104
:101F0000C503822B932B9093C5038093C403019741
:101F100011F4299A459A8091C4039091C503892BA5
:101F200009F06FC0299808958091960390919703C6
:101F30000D9711F4299A459A8091960390919703F1
:101F40004E9711F4299A459A8091960390919703A0
:101F50008D9711F4299A459A809196039091970351
:101F60008E9709F04EC08091990490919A04019740
:101F700069F48091A7049091A804019739F441E095
:101F800060E070E880E090E00E94771180919B040F
:101F900090919C04019779F48091A9049091AA04EE
:101FA000019749F440E060E070E880E090E00E9432
:101FB000771110921B0480919F049091A0040197C7
:101FC00049F48091AD049091AE04019719F482E038
:101FD00080931B0480919D0490919E04019789F445
:101FE0008091AB049091AC04019759F410921B04BA
:101FF0000895099709F03ECD33CD452B09F4F9CE6C
:102000005BCF0895599A23B1822F817090E090930D
:102010003C0480933B048130910509F02AC18091F2
:10202000F40381115EC18091F5039091F6039C0148
:10203000295031092230310528F41092F60310920C
:10204000F5032EC04297039738F481E090E0909317
:10205000F6038093F50342C08091F5039091F60357
:102060004B970897E8F482E090E09093F603809312
:10207000F50310929703109296031092A403109206
:10208000A3031092D2031092D10310921F04109256
:102090001E0420E030E0909354048093530482C0E7
:1020A0008091F5039091F603893E9340BCF0109225
:1020B0009703109296031092A4031092A303109218
:1020C000D2031092D10310921F0410921E0410929A
:1020D0001B04109254041092530474C02091960370
:1020E00030919703F901EE0FFF1FED5AFB4F8091DE
:1020F000F5039091F603918380832830310509F030
:1021000051C0E3E5F4E0208931898091D1039091B9
:10211000D203822B932B2481358100243695279579
:102120000794369527950794322F202D822B932BD9
:1021300026813781220F331F22953295307F322737
:10214000207F3227822B932B208531852295329553
:10215000307F3227207F3227822B932B22853385B5
:10216000220F331F220F331F220F331F822B932B7B
:1021700024853585220F331F220F331F822B932B8B
:1021800026853785220F331F822B932B9093D20302
:102190008093D103009709F09BC01092D403109252
:1021A000D30396C04091D1035091D2038091220471
:1021B000909123044817590729F42830310514F069
:1021C0000E94010D81E08093F40310922604109286
:1021D000F6031092F5031092C5031092C403809188
:1021E000550490915604019711F5809157049091F0
:1021F0005804892BE1F480919603909197030297FC
:10220000B1F48091D3039091D40301969093D403B9
:102210008093D303209122043091230482179307E3
:1022200031F49093D2038093D103299A459A8091F7
:10223000960390919703019690939703809396034A
:1022400080913B0490913C048130910509F449C090
:1022500010C08091CD039091CE0301969093CE0350
:102260008093CD0380913B0490913C04892BE9F04D
:102270002DC0892B59F580912604811116C029980B
:10228000459881E0809326041092F4031092CE03C7
:102290001092CD031092A4031092A30380913B04EB
:1022A00090913C04892B29F011C080912604813043
:1022B00069F41092CE031092CD038091F5039091B2
:1022C000F60301969093F6038093F50359980895C9
:1022D00020912204309123048217930709F072CFD2
:1022E0006FCF8091F403813009F4B3CFEFCF0F9318
:1022F0001F934130B9F400918D0310918E0320910A
:102300008F0330919003DC01CB01802B912BA22B0A
:10231000B32B80938D0390938E03A0938F03B09380
:1023200090031AC000918D0310918E0320918F03AA
:1023300030919003DC01CB0180959095A095B095EC
:1023400080239123A223B32380938D0390938E0344
:10235000A0938F03B09390035B985C9880918D035A
:1023600090918E03A0918F03B091900397FF02C0CC
:102370005A9A01C05A985C9A5C9880918D0390910A
:102380008E03A0918F03B091900396FF02C05A9ADA
:1023900001C05A985C9A5C9880918D0390918E034D
:1023A000A0918F03B091900395FF02C05A9A01C08B
:1023B0005A985C9A5C9880918D0390918E03A091BD
:1023C0008F03B091900394FF02C05A9A01C05A98AB
:1023D0005C9A5C9880918D0390918E03A0918F03FD
:1023E000B091900393FF02C05A9A01C05A985C9A28
:1023F0005C9880918D0390918E03A0918F03B09192
:10240000900392FF02C05A9A01C05A985C9A5C9855
:1024100080918D0390918E03A0918F03B0919003D2
:1024200091FF02C05A9A01C05A985C9A5C988091B8
:102430008D0390918E03A0918F03B091900390FF34
:1024400002C05A9A01C05A985C9A5C9880918D0398
:1024500090918E03A0918F03B091900387FF02C0EB
:102460005A9A01C05A985C9A5C9880918D03909119
:102470008E03A0918F03B091900386FF02C05A9AF9
:1024800001C05A985C9A5C9880918D0390918E035C
:10249000A0918F03B091900385FF02C05A9A01C0AA
:1024A0005A985C9A5C9880918D0390918E03A091CC
:1024B0008F03B091900384FF02C05A9A01C05A98CA
:1024C0005C9A5C9880918D0390918E03A0918F030C
:1024D000B091900383FF02C05A9A01C05A985C9A47
:1024E0005C9880918D0390918E03A0918F03B091A1
:1024F000900382FF02C05A9A01C05A985C9A5C9875
:1025000080918D0390918E03A0918F03B0919003E1
:1025100081FF02C05A9A01C05A985C9A5C988091D7
:102520008D0390918E03A0918F03B091900380FF53
:1025300002C05A9A01C05A985C9A5B9A1F910F91F7
:102540000895CF92DF92EF92FF921D9B40C0809141
:10255000F30381113CC080918A05833011F00C9403
:10256000671B41E060E070E880E090E00E94771136
:1025700080918B058F5F80938B0581E08093F303BF
:102580002FEF40E752E0215040405040E1F700C0BB
:10259000000060E080EC0E94280587E292E00E9443
:1025A000FE0580918B058A3028F083E080938A05B0
:1025B00010928B0560918B0580E090E00E947D0376
:1025C00040E060E070E880E090E00E9477111D99A3
:1025D00013C08091F303813079F480918A058330B0
:1025E00059F41092F3038FEF99EF20E0815090405F
:1025F0002040E1F700C0000080918B05813009F098
:1026000082C060E080E80E94280588E392E00E9492
:10261000FE0560E080EC0E94280589E492E00E94BB
:10262000FE0560E08EEC0E942805809100019091EB
:1026300001016AE070E00E94C31FCB0161E00E94CB
:10264000150660E08FEC0E942805809100019091B2
:10265000010164E670E00E94C31F61E00E9415065C
:102660001B9935C08091CA03811131C041E060E0FF
:1026700070E880E090E00E947711809100019091D5
:1026800001010296893291052CF490930101809307
:10269000000104C0109201011092000181E08093BA
:1026A000CA036091000183E090E00E947D034FEF38
:1026B00059EF80E0415050408040E1F700C00000F9
:1026C00040E060E070E880E090E00E9477111B9BA2
:1026D0001AC08091CA038130B1F41092CA0341E05C
:1026E00060E070E880E090E00E9477118FE39CE961
:1026F0000197F1F700C0000040E060E070E880E082
:1027000090E00E94771180918B05823009F093C090
:1027100060E080E80E94280587E592E00E94FE05BF
:1027200060E080EC0E94280588E692E00E94FE05A9
:1027300060E08CEC0E94280582E792E00E94FE0592
:1027400082E090E00E94850390E0909318048093CB
:10275000170460E08AEC0E9428058091170490918C
:1027600018046AE070E00E94C31FCB0161E00E9480
:10277000150660E08BEC0E9428058091170490916B
:10278000180464E670E00E94C31F61E00E94150611
:102790001B9935C08091CA03811131C041E060E0CE
:1027A00070E880E090E00E9477118091170490918A
:1027B00018040196853191052CF4909318048093A8
:1027C000170404C0109218041092170481E080933B
:1027D000CA036091170482E090E00E947D039FEF9E
:1027E00029EF40E0915020404040E1F700C0000058
:1027F00040E060E070E880E090E00E9477111B9B71
:102800001AC08091CA038130B1F41092CA0341E02A
:1028100060E070E880E090E00E9477118FE39CE92F
:102820000197F1F700C0000040E060E070E880E050
:1028300090E00E94771180918B05833009F0C1C030
:1028400060E080E80E94280587E792E00E94FE058C
:1028500081E00E94DB00909387038093860360E011
:102860008DEC0E94280580918603909187036AE091
:1028700070E00E94C31FCB0162E00E94150660E079
:102880008FEC0E942805809186039091870364E66F
:1028900070E00E94C31F61E00E94150680918C03C6
:1028A000811108C060E080EC0E94280587E892E072
:1028B0000E94FE0580918C03813041F460E080EC41
:1028C0000E94280583E992E00E94FE051B995AC0E8
:1028D00080917B05811156C041E060E070E880E0A6
:1028E00090E00E94771180918C03811120C080912B
:1028F0007B05811140C081E080937B0580938C0330
:1029000060E080EC0E94280583E992E00E94FE05C9
:1029100060918C0386E090E00E947D039FEF20E7AA
:1029200042E0915020404040E1F700C0000080911B
:102930008C03813001F580917B0581111CC081E001
:1029400080937B0510928C0360E080EC0E94280548
:1029500087E892E00E94FE0560918C0386E090E09B
:102960000E947D035FEF80E792E0515080409040ED
:10297000E1F700C0000040E060E070E880E090E037
:102980000E9477111B9B1DC080917B058130C9F48B
:1029900041E060E070E880E090E00E9477111092E2
:1029A0007B052FEF40E752E0215040405040E1F7D7
:1029B00000C0000040E060E070E880E090E00E942D
:1029C000771180918B05843009F0C1C060E080E808
:1029D0000E94280580EA92E00E94FE0582E00E94A3
:1029E000DB0090938A038093890360E08DEC0E9462
:1029F00028058091890390918A036AE070E00E9423
:102A0000C31FCB0162E00E94150660E08FEC0E94BC
:102A100028058091890390918A0364E670E00E9402
:102A2000C31F61E00E94150680918B03811108C0CD
:102A300060E080EC0E94280587E892E00E94FE0595
:102A400080918B03813041F460E080EC0E94280586
:102A500083E992E00E94FE051B995AC080917B0594
:102A6000811156C041E060E070E880E090E00E9493
:102A7000771180918B03811120C080917B0581119A
:102A800040C081E080937B0580938B0360E080EC05
:102A90000E94280583E992E00E94FE0560918B0365
:102AA00087E090E00E947D038FEF90E722E0815065
:102AB00090402040E1F700C0000080918B038130FE
:102AC00001F580917B0581111CC081E080937B051D
:102AD00010928B0360E080EC0E94280587E892E06A
:102AE0000E94FE0560918B0387E090E00E947D03C9
:102AF0004FEF50E782E0415050408040E1F700C086
:102B0000000040E060E070E880E090E00E94771113
:102B10001B9B1DC080917B058130C9F441E060E0C2
:102B200070E880E090E00E94771110927B059FEFA3
:102B300020E742E0915020404040E1F700C0000013
:102B400040E060E070E880E090E00E9477118091C2
:102B50008B05853009F045C181E190E00E94850335
:102B600090E090932804809327040A968734910577
:102B700078F560E080E80E94280580EB92E00E94F2
:102B8000FE0560E080EC0E94280580EC92E00E9447
:102B9000FE0560E08EEC0E9428058091270490914C
:102BA00028046AE070E00E94C31FCB0161E00E942C
:102BB000150660E08FEC0E94280580912704909113
:102BC000280464E670E00E94C31F61E00E941506BD
:102BD00080912704909128040A968734910580F00B
:102BE00060E080E80E9428058FEC92E00E94FE05DC
:102BF00060E080EC0E94280580EE92E00E94FE05D5
:102C00001B9977C08091CA03811173C041E060E0D5
:102C100070E880E090E00E94771181E08093CA0321
:102C20002091190430911A048091F9039091FA03CC
:102C3000A901481B590B50939203409391034230D2
:102C4000510584F11B992EC080912704909128048E
:102C5000029690932804809327043093FA032093DC
:102C6000F9031092CA0360E08AEC0E942805809163
:102C700091039091920364E670E00E94C31F61E0AB
:102C80000E94150660E08CEC0E942805809191035B
:102C9000909192036AE070E00E94C31FCB0162E052
:102CA0000E941506809127049091280402968F3384
:102CB00091052CF4909328048093270404C010926B
:102CC0002804109227046091270481E190E00E947B
:102CD0007D035FEF89EF90E0515080409040E1F735
:102CE00000C0000040E060E070E880E090E00E94FA
:102CF00077111B9B22C08091CA038130F1F441E01F
:102D000060E070E880E090E00E9477118091190403
:102D100090911A049093FA038093F9031092CA03D6
:102D20008FE39CE90197F1F700C0000040E060E00C
:102D300070E880E090E00E9477111C9936C0809185
:102D40007B05811132C041E060E070E880E090E0F6
:102D50000E94771180912704909128040197863F63
:102D60002FEF92072CF0909328048093270404C03F
:102D7000109228041092270481E080937B056091D3
:102D8000270481E190E00E947D034FEF59EF80E03E
:102D9000415050408040E1F700C0000040E060E05A
:102DA00070E880E090E00E9477111C9B1AC080912F
:102DB0007B058130B1F441E060E070E880E090E0B4
:102DC0000E94771110927B058FE39CE90197F1F740
:102DD00000C0000040E060E070E880E090E00E9409
:102DE000771180918B05863009F0FCC089E090E076
:102DF0000E94850390E090933E0480933D0480916F
:102E0000ED039091EE0384369105B4F560E080E81F
:102E10000E94280581EF92E00E94FE0560E080ECB0
:102E20000E94280582E093E00E94FE0560E08EEC9F
:102E30000E9428058091ED039091EE036AE070E016
:102E40000E94C31FCB0161E00E94150660E08FEC79
:102E50000E9428058091ED039091EE0364E670E0F6
:102E60000E94C31F61E00E9415068091ED039091BE
:102E7000EE038436910584F060E080E80E94280526
:102E80008FEC92E00E94FE0560E080EC0E94280535
:102E900081E193E00E94FE051B9935C08091CA0331
:102EA000811131C041E060E070E880E090E00E9474
:102EB00077118091ED039091EE030296853691058E
:102EC0002CF49093EE038093ED0304C01092EE0374
:102ED0001092ED0381E08093CA036091ED0382E1DB
:102EE00090E00E947D039FEF29EF40E09150204049
:102EF0004040E1F700C0000040E060E070E880E0A2
:102F000090E00E9477111B9B1AC08091CA03813008
:102F1000B1F41092CA0341E060E070E880E090E014
:102F20000E9477118FE39CE90197F1F700C0000040
:102F300040E060E070E880E090E00E9477111C992A
:102F400035C080917B05811131C041E060E070E8BF
:102F500080E090E00E9477118091ED039091EE0364
:102F600001972AF09093EE038093ED0306C084E668
:102F700090E09093EE038093ED0381E080937B05D6
:102F80006091ED0382E190E00E947D039FEF29EFC5
:102F900040E0915020404040E1F700C0000040E098
:102FA00060E070E880E090E00E9477111C9B1AC0FE
:102FB00080917B058130B1F441E060E070E880E011
:102FC00090E00E94771110927B058FE39CE90197B6
:102FD000F1F700C0000040E060E070E880E090E0C1
:102FE0000E94771180918B05873009F05DC120E048
:102FF00030E040EB50E46091770570917805809166
:10300000790590917A050E94A42018167CF160E061
:1030100080E80E94280581EF92E00E94FE0560E0B2
:1030200080EC0E94280580917A058F938091790524
:103030008F93809178058F93809177058F9382E2AB
:1030400093E09F938F938DEA93E09F938F930E94D9
:103050009F238DEA93E00E94FE054DB75EB7485F5F
:103060005F4F0FB6F8945EBF0FBE4DBF20E030E05B
:1030700040EB50E460917705709178058091790577
:1030800090917A050E940322181644F41092770555
:10309000109278051092790510927A051B9974C0E8
:1030A0008091CA03811170C041E060E070E880E067
:1030B00090E00E9477112DEC3CEC4CEC5DE36091CC
:1030C0007705709178058091790590917A050E9435
:1030D00038206B017C0120E030E040EB50E40E949E
:1030E000032218164CF0C0927705D0927805E09232
:1030F0007905F0927A0508C010927705109278054C
:103100001092790510927A0581E08093CA0360914C
:103110007705709178058091790590917A050E94E4
:103120001B21262F6093860570938705862F972F86
:10313000880F991FAC01440F551F440F551F840F72
:10314000951F6AE070E00E94C31F90939E038093D6
:103150009D03622F83E190E00E947D0360919D03B7
:1031600084E190E00E947D035FEF89EF90E0515091
:1031700080409040E1F700C0000040E060E070E86F
:1031800080E090E00E9477111B9B1AC08091CA03D7
:103190008130B1F41092CA0341E060E070E880E051
:1031A00090E00E9477118FE39CE90197F1F700C04E
:1031B000000040E060E070E880E090E00E9477115D
:1031C0001C9956C080917B05811152C041E060E09E
:1031D00070E880E090E00E9477112DEC3CEC4CEC24
:1031E0005DE3609177057091780580917905909104
:1031F0007A050E9437206B017C0120E030E0A901B4
:103200000E94A42088234CF0C0927705D0927805C4
:10321000E0927905F0927A050CC083E393E3A3EB87
:10322000B0E48093770590937805A0937905B093E7
:103230007A0581E080937B056091860583E190E0CB
:103240000E947D0360919D0384E190E00E947D03D4
:103250009FEF29EF40E0915020404040E1F700C04F
:10326000000040E060E070E880E090E00E947711AC
:103270001C9B1AC080917B058130B1F441E060E075
:1032800070E880E090E00E94771110927B058FE358
:103290009CE90197F1F700C0000040E060E070E8B1
:1032A00080E090E00E94771180918B05883009F0D2
:1032B0005DC120E030E040E251E460919F037091F5
:1032C000A0038091A1039091A2030E94A42018164C
:1032D0007CF160E080E80E94280581EF92E00E9486
:1032E000FE0560E080EC0E9428058091A2038F9388
:1032F0008091A1038F938091A0038F9380919F036E
:103300008F9384E393E09F938F938DEA93E09F9351
:103310008F930E949F238DEA93E00E94FE054DB794
:103320005EB7485F5F4F0FB6F8945EBF0FBE4DBFEC
:1033300020E030E040E251E460919F037091A003EF
:103340008091A1039091A2030E940322181644F4D5
:1033500010929F031092A0031092A1031092A20357
:103360001B9974C08091CA03811170C041E060E074
:1033700070E880E090E00E94771120E030E040E0CB
:103380005FE360919F037091A0038091A1039091EE
:10339000A2030E9438206B017C0120E030E040E273
:1033A00051E40E94032218164CF0C0929F03D09261
:1033B000A003E092A103F092A20308C010929F0321
:1033C0001092A0031092A1031092A20381E08093B7
:1033D000CA0360919F037091A0038091A103909113
:1033E000A2030E941B21262F6093EB037093EC0332
:1033F000862F972F880F991FAC01440F551F440F3C
:10340000551F840F951F6AE070E00E94C31F9093C0
:10341000C0038093BF03622F85E190E00E947D038B
:103420006091BF0386E190E00E947D035FEF89EF2A
:1034300090E0515080409040E1F700C0000040E033
:1034400060E070E880E090E00E9477111B9B1AC05A
:103450008091CA038130B1F41092CA0341E060E068
:1034600070E880E090E00E9477118FE39CE901977B
:10347000F1F700C0000040E060E070E880E090E01C
:103480000E9477111C9956C080917B05811152C012
:1034900041E060E070E880E090E00E94771120E079
:1034A00030E040E05FE360919F037091A003809162
:1034B000A1039091A2030E9437206B017C0120E0C0
:1034C00030E0A9010E94A42088234CF0C0929F0301
:1034D000D092A003E092A103F092A2030CC080E07E
:1034E00090E0A0E2B1E480939F039093A003A093A7
:1034F000A103B093A20381E080937B056091EB036D
:1035000085E190E00E947D036091BF0386E190E039
:103510000E947D039FEF29EF40E091502040404002
:10352000E1F700C0000040E060E070E880E090E07B
:103530000E9477111C9B1AC080917B058130B1F4E9
:1035400041E060E070E880E090E00E947711109226
:103550007B058FE39CE90197F1F700C0000040E094
:1035600060E070E880E090E00E94771180918B0528
:10357000893009F0AFC060E08DE80E94280563E063
:103580008091C6039091C7030E9415068091220482
:1035900090912304803891057CF560E080E80E94DA
:1035A000280585E493E00E94FE0560E080EC0E941F
:1035B00028058AE292E00E94FE0560E08CEC0E9401
:1035C000280580912204909123046AE070E00E9413
:1035D000C31FCB0162E00E94150660E08EEC0E94E2
:1035E0002805809122049091230464E670E00E94F3
:1035F000C31F61E00E94150680912204909123046C
:103600008038910581F460E080E80E94280586E515
:1036100093E00E94FE0560E080EC0E94280587E6AA
:1036200093E00E94FE051B9935C08091CA03811169
:1036300031C041E060E070E880E090E00E947711E6
:1036400080912204909123040196813891052CF4F5
:10365000909323048093220404C0109223041092B8
:10366000220481E08093CA036091220480E190E00B
:103670000E947D039FEF29EF40E0915020404040A1
:10368000E1F700C0000040E060E070E880E090E01A
:103690000E9477111B9B1EC08091CA038130D1F418
:1036A0001092CA0341E060E070E880E090E00E9480
:1036B00077118FE39CE90197F1F700C0000040E02B
:1036C00060E070E880E090E00E94771103C083B171
:1036D0000C94FC12FF90EF90DF90CF9008950F9321
:1036E0001F93CF93DF9360E080EC0E94280588E76A
:1036F00093E00E94FE05609134047091350472508D
:10370000072E000C880B990B0E9453212EEE34E0FB
:1037100045EB5FE30E94A92021EE3AE744E95FE32D
:103720000E9408220E941B217093850560938405E6
:1037300060E081EC0E9428058091840590918505C8
:103740000AE010E0B8010E94C31FCB0162E00E94B2
:10375000150660E083EC0E94280580918405909115
:103760008505C4E6D0E0BE010E94C31F61E00E944F
:1037700015060E94F10060E084EC0E9428058AE7AB
:1037800093E00E94FE056091C8037091C9037250D6
:10379000072E000C880B990B0E9453212EEE34E06B
:1037A00045EB5FE30E94A92021EE3AE744E95FE39D
:1037B0000E9408220E941B217093F8036093F70374
:1037C00060E087EC0E9428058091F7039091F80350
:1037D000B8010E94C31FCB0162E00E94150660E0A1
:1037E00089EC0E9428058091F7039091F803BE01AF
:1037F0000E94C31F61E00E9415060E94F10060E074
:103800008AEC0E9428058EE793E00E94FE056091F5
:103810002404709125047250072E000C880B990B1C
:103820000E9453212EEE34E045EB5FE30E94A92075
:1038300021EE3AE744E95FE30E9408220E941B213F
:103840007093BE036093BD0360E08DEC0E94280579
:103850008091BD039091BE03B8010E94C31FCB01AC
:1038600062E00E94150660E08FEC0E9428058091BE
:10387000BD039091BE03BE010E94C31F61E00E9480
:103880001506DF91CF911F910F910895A0E1B0E04F
:10389000ECE4FCE10C94EC1F7C011B016A01FC01CF
:1038A00017821682838181FF44C39E012F5F3F4FA1
:1038B0003901F7019381F10193FD859193FF819186
:1038C0001F01882309F431C3853239F493FD8591B2
:1038D00093FF81911F01853239F4B70190E00E9476
:1038E000632356016501E5CF10E0512C912CFFE1D7
:1038F000F915D8F08B3279F038F4803279F08332D0
:10390000A1F4F92DF0612EC08D3261F0803369F49D
:10391000292D21602DC0392D3260932E892D846090
:10392000982E2AC0E92DE86015C097FC2DC020ED27
:10393000280F2A3088F496FE06C03AE0139F200D27
:103940001124122F19C08AE0589E200D1124522EE6
:10395000E92DE0629E2E10C08E3231F496FCE5C255
:10396000F92DF0649F2E08C08C3621F4292D206893
:10397000922E02C0883641F4F10193FD859193FFA8
:1039800081911F018111B3CF9BEB980F933020F4ED
:10399000992D9061805E07C09BE9980F933008F0E5
:1039A00066C1992D9F7E96FF16E09F73992E8536EE
:1039B00019F49064992E08C0863621F4392F3068A6
:1039C000932E02C01111115097FE07C01C3350F402
:1039D00044244394410E27E00BC0183038F027E010
:1039E00017E005C027E09CE3492E02C0212F412C9F
:1039F000560184E0A80EB11CF601608171818281BC
:103A00009381042DA3010E9475226C01F981FC872A
:103A1000F0FF02C0F3FF06C091FC06C092FE06C094
:103A200000E205C00DE203C00BE201C000E08C859E
:103A30008C7019F001115AC29BC297FE10C04C0C39
:103A4000FC85F4FF04C08A81813309F44A9414147C
:103A500074F528E0241578F588E0482E2CC096FCF3
:103A60002AC0812F90E08C159D059CF03CEFC31679
:103A70003FEFD30674F0892D8068982E0AC0E2E0EB
:103A8000F0E0EC0FFD1FE10FF11D8081803319F490
:103A900011501111F4CF97FE0EC044244394410EEF
:103AA000812F90E0C816D9062CF41C1904C04424B8
:103AB000439401C010E097FE06C01C141D0434F4AA
:103AC000C601019605C085E090E002C081E090E06B
:103AD00001110196112331F0212F30E02F5F3F4F6C
:103AE000820F931F252D30E08217930714F4581A84
:103AF00001C0512C892D897049F4552039F0B70146
:103B000080E290E00E9463235A94F7CF002329F0CB
:103B1000B701802F90E00E94632393FC09C05520D9
:103B200039F0B70180E390E00E9463235A94F7CF05
:103B300097FE4CC04601D7FE02C0812C912CC601D5
:103B400088199909F301E80FF91FFE87ED8796019F
:103B500024193109388B2F87012F10E01195019519
:103B600011093FEF8316930629F4B7018EE290E026
:103B70000E946323C814D9044CF08F859889881556
:103B8000990524F4ED85FE85818101C080E3F1E093
:103B90008F1A91082D853E852F5F3F4F3E872D87D9
:103BA000801691062CF0B70190E00E946323D9CFD4
:103BB000C814D90441F49A81963320F4953319F44A
:103BC0003C8534FF81E3B70190E04EC08A818133A8
:103BD00019F09C859F7E9C87B70190E00E9463232B
:103BE000111105C094FC18C085E690E017C0B7011C
:103BF0008EE290E00E9463231E5F82E001E0080FE6
:103C0000F301E80FF11D8081B70190E00E9463236A
:103C1000802F0113F3CFE6CF85E490E0B7010E9437
:103C20006323D7FC06C0C114D10441F4EC85E4FF42
:103C300005C0D194C194D1088DE201C08BE2B701D7
:103C400090E00E94632380E32AE0C216D1042CF0A6
:103C50008F5FFAE0CF1AD108F7CFB70190E00E944A
:103C60006323B701C601C0960E94632354C1833603
:103C700031F0833779F0833509F056C020C0560102
:103C800032E0A30EB11CF6018081898301E010E0CF
:103C9000630112C05601F2E0AF0EB11CF601C08004
:103CA000D18096FE03C0612F70E002C06FEF7FEFFE
:103CB000C6010E9458238C01F92DFF7714C05601CC
:103CC00022E0A20EB11CF601C080D18096FE03C096
:103CD000612F70E002C06FEF7FEFC6010E944D239D
:103CE0008C01F92DF0689F2EF3FD1AC0852D90E010
:103CF00008171907A8F4B70180E290E00E94632337
:103D00005A94F4CFF60197FC859197FE81916F014B
:103D1000B70190E00E94632351105A940150110999
:103D20000115110579F7F7C0843611F0893661F570
:103D3000560197FE09C024E0A20EB11CF601608175
:103D40007181828193810AC0F2E0AF0EB11CF6014D
:103D500060817181072E000C880B990BF92DFF767D
:103D60009F2E97FF09C090958095709561957F4F24
:103D70008F4F9F4FF0689F2E2AE030E0A3010E94F2
:103D8000C123C82EC6183FC0092D853721F40F7EE8
:103D90002AE030E01DC0097F8F3691F018F4883595
:103DA00059F0C3C0803719F0883711F0BEC00061E8
:103DB00004FF09C0046007C094FE08C0066006C086
:103DC00028E030E005C020E130E002C020E132E030
:103DD000560107FF09C084E0A80EB11CF6016081FE
:103DE00071818281938108C0F2E0AF0EB11CF601AF
:103DF0006081718180E090E0A3010E94C123C82E00
:103E0000C6180F77902E96FE0BC0092D0E7FC11697
:103E100050F494FE0AC092FC08C0092D0E7E05C025
:103E2000DC2C092D03C0DC2C01C0D12E04FF0DC0F9
:103E3000FE01EC0DF11D8081803311F4097E09C073
:103E400002FF06C0D394D39404C0802F867809F073
:103E5000D39403FD11C000FF06C01C2DD51480F4BF
:103E6000150D1D190DC0D51458F4B70180E290E06E
:103E70000E946323D394F7CFD51410F45D1801C0CA
:103E8000512C04FF10C0B70180E390E00E9463232F
:103E900002FF17C001FD03C088E790E002C088E57B
:103EA00090E0B7010CC0802F867859F001FF02C066
:103EB0008BE201C080E207FD8DE2B70190E00E9435
:103EC0006323C11638F4B70180E390E00E946323B6
:103ED0001150F7CFCA94F301EC0DF11D8081B701A9
:103EE00090E00E946323C110F5CF15C0F4E0F515F2
:103EF00060F584E0581A93FE1FC0011127C02C857D
:103F000023FF2AC006E710E0392D3071932EF80107
:103F10008491811124C0552009F4E4CCB70180E2DA
:103F200090E00E9463235A94F6CFF701868197812F
:103F300026C08FEF9FEF23C0B70180E290E00E9480
:103F400063235A945110F8CFD8CF512CB701802F4A
:103F500090E00E946323D3CF0AE710E0D5CF911001
:103F60008052B70190E00E9463230F5F1F4FCFCFB5
:103F700023E0251510F483E0BDCF512CC0CF60960F
:103F8000E2E10C94082097FB072E16F4009407D06A
:103F900077FD09D00E94232007FC05D03EF49095C0
:103FA00081959F4F0895709561957F4F0895EE0F0D
:103FB000FF1F0590F491E02D0994A29FB001B39FDB
:103FC000C001A39F700D811D1124911DB29F700D22
:103FD000811D1124911D08952F923F924F925F925F
:103FE0006F927F928F929F92AF92BF92CF92DF9209
:103FF000EF92FF920F931F93CF93DF93CDB7DEB76E
:10400000CA1BDB0B0FB6F894DEBF0FBECDBF099401
:104010002A88398848885F846E847D848C849B8458
:10402000AA84B984C884DF80EE80FD800C811B8166
:10403000AA81B981CE0FD11D0FB6F894DEBF0FBE95
:10404000CDBFED010895AA1BBB1B51E107C0AA1FFC
:10405000BB1FA617B70710F0A61BB70B881F991F29
:104060005A95A9F780959095BC01CD0108955058B7
:10407000BB27AA270E944F200C94C9210E94BB2174
:1040800038F00E94C22120F039F49F3F19F426F441
:104090000C94B8210EF4E095E7FB0C94B221E92FC3
:1040A0000E94DA2158F3BA1762077307840795074D
:1040B00020F079F4A6F50C94FC210EF4E0950B2E7B
:1040C000BA2FA02D0B01B90190010C01CA01A0016A
:1040D0001124FF27591B99F0593F50F4503E68F1C5
:1040E0001A16F040A22F232F342F4427585FF3CF06
:1040F000469537952795A795F0405395C9F77EF4D7
:104100001F16BA0B620B730B840BBAF09150A1F01F
:10411000FF0FBB1F661F771F881FC2F70EC0BA0FA5
:10412000621F731F841F48F4879577956795B7952D
:10413000F7959E3F08F0B0CF9395880F08F0992728
:10414000EE0F9795879508950E948E2108F481E0DF
:1041500008950E94BD200C94C9210E94C22158F0EC
:104160000E94BB2140F029F45F3F29F00C94B2215A
:1041700051110C94FD210C94B8210E94DA2168F3AE
:104180009923B1F3552391F3951B550BBB27AA2710
:1041900062177307840738F09F5F5F4F220F331F4A
:1041A000441FAA1FA9F335D00E2E3AF0E0E832D012
:1041B00091505040E695001CCAF72BD0FE2F29D015
:1041C000660F771F881FBB1F261737074807AB07E7
:1041D000B0E809F0BB0B802DBF01FF2793585F4F5C
:1041E0003AF09E3F510578F00C94B2210C94FD21D9
:1041F0005F3FE4F3983ED4F3869577956795B7953E
:10420000F7959F5FC9F7880F911D9695879597F948
:104210000895E1E0660F771F881FBB1F62177307C1
:104220008407BA0720F0621B730B840BBA0BEE1FD6
:1042300088F7E09508950E9422216894B1110C94AA
:10424000FD2108950E94E22188F09F5798F0B92F30
:104250009927B751B0F0E1F0660F771F881F991FBB
:104260001AF0BA95C9F714C0B13091F00E94FC2140
:10427000B1E008950C94FC21672F782F8827B85F50
:1042800039F0B93FCCF3869577956795B395D9F713
:104290003EF490958095709561957F4F8F4F9F4F1D
:1042A0000895E89409C097FB3EF490958095709529
:1042B00061957F4F8F4F9F4F9923A9F0F92F96E972
:1042C000BB279395F695879577956795B795F111E7
:1042D000F8CFFAF4BB0F11F460FF1BC06F5F7F4F84
:1042E0008F4F9F4F16C0882311F096E911C0772396
:1042F00021F09EE8872F762F05C0662371F096E89F
:10430000862F70E060E02AF09A95660F771F881F6D
:10431000DAF7880F9695879597F90895990F000811
:10432000550FAA0BE0E8FEEF16161706E807F90787
:10433000C0F012161306E407F50798F0621B730B22
:10434000840B950B39F40A2661F0232B242B252BA3
:1043500021F408950A2609F4A140A6958FEF811D46
:10436000811D089597F99F6780E870E060E00895E7
:104370009FEF80EC089500240A941616170618067D
:104380000906089500240A94121613061406050659
:104390000895092E0394000C11F4882352F0BB0FEA
:1043A00040F4BF2B11F460FF04C06F5F7F4F8F4F4D
:1043B0009F4F089557FD9058440F551F59F05F3F88
:1043C00071F04795880F97FB991F61F09F3F79F037
:1043D00087950895121613061406551FF2CF4695B9
:1043E000F1DF08C0161617061806991FF1CF86953B
:1043F0007105610508940895E894BB27662777271F
:10440000CB0197F908950E948E2108F48FEF08954B
:104410000E941B220C94C9210E94BB2138F00E94EB
:10442000C22120F0952311F00C94B2210C94B821F4
:1044300011240C94FD210E94DA2170F3959FC1F3A1
:10444000950F50E0551F629FF001729FBB27F00D42
:10445000B11D639FAA27F00DB11DAA1F649F662797
:10446000B00DA11D661F829F2227B00DA11D621FE6
:10447000739FB00DA11D621F839FA00D611D221FA0
:10448000749F3327A00D611D231F849F600D211D84
:10449000822F762F6A2F11249F5750409AF0F1F007
:1044A00088234AF0EE0FFF1FBB1F661F771F881F70
:1044B00091505040A9F79E3F510580F00C94B221D5
:1044C0000C94FD215F3FE4F3983ED4F386957795F5
:1044D0006795B795F795E7959F5FC1F7FE2B880F16
:1044E000911D9695879597F90895283008F027E053
:1044F0003327DA01990F311D87FD91600096610520
:10450000710539F432602E5F3D9330E32A95E1F76F
:1045100008959F3F30F080387105610509F03C5FD8
:104520003C5F3D93913008F08068911DDF93CF93FD
:104530001F930F93FF92EF92192F987F9695E92F73
:1045400096959695E90FFF27E852FF4F9927332755
:10455000EE24FF24A701E70105900894079428F4AE
:10456000360FE71EF81E491F511D660F771F881F63
:10457000991F0694A1F70590079428F4E70EF81EFA
:10458000491F561FC11D770F881F991F661F06946C
:10459000A1F70590079428F4F80E491F561FC71F6E
:1045A000D11D880F991F661F771F0694A1F70590EC
:1045B000079420F4490F561FC71FD81F990F661F75
:1045C000771F881F0694A9F784911095177041F002
:1045D000D695C79557954795F794E7941A95C1F7DF
:1045E000EEE7F0E0689415901591359165919591FD
:1045F00005907FE27395E118F10A430B560BC90B46
:10460000D009C0F7E10CF11E431F561FC91FD01D72
:104610007EF4703311F48A95E6CFE894015030F0BF
:10462000080F0AF40027021708F4202F2395022F01
:104630007A3328F079E37D932A95E9F710C07D93CA
:104640002A9589F606949795679537951795179447
:10465000E118F10A430B560BC90BD00998F02395CA
:104660007E9173957A3308F070E37C932013B8F74A
:104670007E9170617D9330F0839571E37D9370E35B
:104680002A95E1F71124EF90FF900F911F91CF91A0
:10469000DF91992787FD90950895FC010590615061
:1046A00070400110D8F7809590958E0F9F1F089548
:1046B000FC016150704001900110D8F780959095F1
:1046C0008E0F9F1F08950F931F93CF93DF93FB01CE
:1046D000238121FD03C08FEF9FEF2CC022FF16C066
:1046E00046815781248135814217530744F4A081C4
:1046F000B1819D012F5F3F4F318320838C932681B1
:1047000037812F5F3F4F3783268314C08B01EC0125
:10471000FB010084F185E02D0995892BE1F6D80194
:1047200016968D919C911797019617969C938E9350
:104730001697CE01DF91CF911F910F910895AEE0B2
:10474000B0E0E5EAF3E20C94FA1F0D891E8986E0D9
:104750008C831A8309838FEF9FE79E838D83AE013D
:10476000475E5F4F6F89788DCE0101960E94461C8F
:10477000EF81F885E00FF11F10822E96E4E00C9493
:104780001620FA01AA27283051F1203181F1E8944E
:104790006F936E7F6E5F7F4F8F4F9F4FAF4FB1E034
:1047A0003ED0B4E03CD0670F781F891F9A1FA11D2F
:1047B000680F791F8A1F911DA11D6A0F711D811D30
:1047C000911DA11D20D009F468943F912AE0269FF5
:1047D00011243019305D3193DEF6CF010895462F54
:1047E0004770405D4193B3E00FD0C9F7F6CF462F35
:1047F0004F70405D4A3318F0495D31FD405241939E
:1048000002D0A9F7EACFB4E0A6959795879577955A
:104810006795BA95C9F700976105710508959B01E1
:10482000AC010A2E06945795479537952795BA956A
:10483000C9F7620F731F841F951FA01D0895F89478
:02484000FFCFA8
:1048420005004142544F2020205045A3A54D202071
:1048520020200042C3786FE320BD61207065B6B8A6
:10486200BC202000A16FBF6FB3BD6F63BFC42E2EEB
:104872002E004865B3C3786FE320BD61207065B632
:10488200B8BC005053204C494E45204552524F521D
:1048920020202000546D70252E3166432F486D254F
:1048A2002E31662525202000A8B8BF61BDB865203D
:1048B200424BA7B0AB45484F00A461BE7963BA2012
:1048C2004F544BA7B0ABA2482020202020005079A3
:1048D200C0BD6FB9205045A3A54D20202020005017
:1048E20079C0BD6FB920A8A9434B20B365BDBF00F5
:1048F2002143B8B4BD61BB20A84FA341505F212022
:104902000041B36170B8C720BEB8BF61BDB8C7204F
:10491200200041B36170B8C720B3786FE3612041D2
:104922004C200041B36170B8C720B3786FE36120B7
:104932005053200041B36170B8C720333830422051
:10494200202020200041B36170B8C720E461B7B8CD
:10495200706FB3BAB8005065B365706320E461B795
:104962002033383042200020202020202020202008
:1049720020202020202020004FBFBABB6FBD65BD84
:10498200B8652020202020200061BCBEBBB8BF79C2
:10499200E32C422B2F2D00427065BCC720B3C37895
:1049A2006FE3612020202000BD61207065B6B8BC95
:1049B2002C006365BA2E0054B8BE20E361BFC0B8B4
:1049C200BA61202D5053002D4E4F2D6FBFBA70C3C8
:1049D200BF2D002D4E432DB761BCBABD79BF2D004E
:1049E20054B8BE20E361BFC0B8BA61202D414C006B
:1049F200A86F706FB420637061B26FBFBAB8200045
:104A020054286D6178292D43202020202020004B3E
:104A12006FBDBF706FBBC42020202020202020004B
:104A2200BF65BCBE2D70C320202020204F544BA751
:104A3200004D61BA63B8BC61BBC4BD61C720202010
:104A42002000B3BB61B6BD6F63BFC4202020202508
:104A520000B3BB61B6BD6F63BFB82020204F544B7B
:104A6200A700546D702B2F2D252E31664320202058
:104A720020202000486D2B2F2D252E316625252044
:104A8200202020200053797374656D5F6164726524
:104A9200732020202000416472657373206469735F
:104AA20061626C6520200020202020202020204FE1
:104AB200544BA7202020200055005F5F56005F5F07
:024AC20057009B
:00000001FF
