S010000056656E745F626F782E73726563CF
S11300000C94C3000C94E0000C94E0000C94E00009
S11300100C94E0000C94E0000C94E0000C94B708FD
S11300200C94E0000C94E0000C94E0000C94E408C0
S11300300C94E0000C94E0000C94E0000C94E000BC
S11300400C94E0000C94E0000C94E0000C94E000AC
S11300500C94E0000C94E0000C94E0000C94E0009C
S11300600C94E0000C94E000F00CFB0C060D110D58
S11300701C0D270D320DF60D010E0C0E170E220E5F
S11300802D0E380E6E616E00696E660000407A10A7
S1130090F35A00A0724E18090010A5D4E80000E835
S11300A07648170000E40B54020000CA9A3B000093
S11300B000E1F505000080969800000040420F0022
S11300C00000A08601000000102700000000E803E3
S11300D0000000006400000000000A0000000000AE
S11300E00100000000002C76D888DC674F0823DF6D
S11300F0C1DFAE59E1B1B796E5E3E453C63AE65140
S1130100997696E8E6C28426EB898C9B62ED407C66
S11301106FFCEFBC9C9F40F2BAA56FA5F490055A02
S11301202AF75C936B6CF9676DC11BFCE0E40D4727
S1130130FEF520E6B500D0ED902E0300943577054A
S11301400080841E080000204E0A000000C80C3302
S11301503333330F986E12831141EF8D2114893B91
S1130160E65516CFFEE6DB18D1844B381BF77C1D11
S1130170901DA4BBE424203284725E228100C9F164
S113018024ECA1E53D2711241FBECFEFD8E0DEBF4C
S1130190CDBF13E0A0E0B1E0E4E0FEE402C00590CE
S11301A00D92A435B107D9F725E0A4E5B3E001C069
S11301B01D92A436B207E1F70E94FB080C940027B5
S11301C00C94000080937C00EAE7F0E08081806476
S11301D08083808186FDFDCFE8E7F0E08081209177
S11301E0790090E0922B918380838081918108959E
S11301F00F931F93CF93DF9310920D0410920C046E
S113020010929C0310929B031092FA031092F9032C
S1130210C5E9D0E000E012E083E00E94E2009093A0
S113022055058093540520910C0430910D048217D8
S113023093076CF0811522E092072CF090930D0443
S113024080930C0404C010930D0400930C0487E005
S11302500E94E20090937D0380937C0320919B0392
S113026030919C03821793076CF0811522E092076A
S11302702CF090939C0380939B0304C010939C03E5
S113028000939B0386E00E94E20090939F03809377
S11302909E032091F9033091FA03821793076CF0BF
S11302A0811522E092072CF09093FA038093F903CE
S11302B004C01093FA030093F903219709F0ACCF1B
S11302C080910C0490910D04DF91CF911F910F91B7
S11302D00895CF92DF92EF92FF92CF93C090FC03E8
S11302E0D090FD03E090FE03F090FF0320E030E0A7
S11302F040E752E4C701B6010E94852318160CF4A6
S113030056C020E030E040E251ECC701B6010E9443
S1130310E42488230CF44BC02091D4033091D503FA
S11303204091D6035091D703C701B6010E9485239B
S1130330181684F08091550381110CC0C1E0C0935C
S1130340550341E060E070E280E090E00E947A139F
S1130350C0936C0320914F05309150054091510595
S1130360509152056091FC037091FD038091FE034E
S11303709091FF030E9418232091D4033091D50358
S11303804091D6035091D7030E94E42488237CF043
S113039080915503813059F41092550340E060E098
S11303A070E280E090E00E947A1310926C03C09097
S11303B0C003D090C103E090C203F090C30320E0D7
S11303C030E046EC52E4C701B6010E9485231816BA
S11303D00CF44BC02091D0033091D1034091D2034F
S11303E05091D303C701B6010E948523181684F0E7
S11303F08091540381110CC0C1E0C093540341E0C7
S113040060E070E480E090E00E947A13C0930704F7
S113041020917203309173034091740350917503DA
S11304206091C0037091C1038091C2039091C30392
S11304300E9418232091D0033091D1034091D2031C
S11304405091D3030E94E42488237CF080915403C8
S1130450813059F41092540340E060E070E480E08D
S113046090E00E947A1310920704CF91FF90EF90CE
S1130470DF90CF90089541E060E071E080E090E08B
S11304800E947A130E94B60C80915C03811133C0E0
S11304908091F003811133C080916C03813029F085
S11304A090910704913009F063C041E060E870E086
S11304B080E090E00E947A1360E080E80E94BD052D
S11304C082E091E00E94930680916C03811113C035
S11304D08091070481114FC040E060E870E080E043
S11304E090E00E947A1360E080E80E94BD0583E1F9
S11304F091E00E94930680915C03823021F0809108
S1130500F003813071F580916C03813021F080918A
S11305100704813041F460E080E80E94BD0584E274
S113052091E00E94930680916C03811113C0809125
S1130530070481110FC040E060E870E080E090E0C3
S11305400E947A1360E080E80E94BD0583E191E097
S11305500E94930640E060E870E080E090E00E9432
S11305607A138FE39CE90197F1F700C00000089526
S1130570882331F0F6CF80915C03823041F2BFCF03
S1130580809107048111BBCFA7CFCF93DF93579AF4
S11305905F982FEF80EE90E0215080409040E1F78B
S11305A000C000005F9A579887EC90E00197F1F73C
S11305B000C000004F9935C08FE391E00197F1F737
S11305C000C000004F9B30C080914D0580935805BA
S11305D04F99FECFA4EEB3E0C9EED3E061E070E042
S11305E0FD011C9287E090E04F9BFECF2AE82A95FC
S11305F0F1F700C04F9B0AC040819B01082E02C046
S1130600220F331F0A94E2F7242B20834F99FECF45
S1130610019750F71196CA17DB0711F781E090E0B4
S113062005C080E090E002C080E090E0DF91CF91CF
S113063008958F929F92AF92BF92DF92EF92FF92B2
S11306400F931F93CF93DF93109265030E94C5020B
S113065080936503813009F08AC01092C50310921B
S1130660C403E4EEF3E06081C62FD0E06181062F7D
S113067010E0D2806381E62EF12CCE01800F911F11
S11306808D0D911D8E0D9F1D90930604809305047E
S11306906D2D6F7770E080E090E00E9434242DECA3
S11306A03CEC4CEC51E40E94E9244B015C01B701A1
S11306B0FF0C880B990B0E9434242DEC3CEC4CEC81
S11306C05DE30E94E9249B01AC01C501B4010E94D1
S11306D019234B015C016093D4037093D503809379
S11306E0D6039093D7030E94FC237093670360930F
S11306F06603DD209CF4B7FAB094B7F8B094809206
S1130700D4039092D503A092D603B092D7037195E7
S1130710619571097093670360936603B801110FC3
S1130720880B990B0E9434242DEC3CEC4CEC5DE3DB
S11307300E94E9244B015C01BE01DD0F880B990B7B
S11307400E9434242DEC3CEC4CEC51E40E94E9244E
S11307509B01AC01C501B4010E9419236093D0032D
S11307607093D1038093D2039093D30318C0811163
S113077009C08091C4039091C50301969093C50369
S11307808093C4038091C4039091C5038536910579
S113079034F084E690E09093C5038093C4031092F0
S11307A05905DF91CF911F910F91FF90EF90DF904A
S11307B0BF90AF909F908F9008950E94190360E0BE
S11307C080EC0E94BD058091D3038F938091D20366
S11307D08F938091D1038F938091D0038F938091D5
S11307E0D7038F938091D6038F938091D5038F93F2
S11307F08091D4038F9385E391E09F938F9380E856
S113080093E09F938F930E94802680E893E00E9458
S113081093068DB79EB70C960FB6F8949EBF0FBE85
S11308208DBF0895F999FECF92BD81BD60BDFA9A3E
S1130830F99A0895F999FECF92BD81BDF89A80B5D1
S1130840089580E00E94E20090935E0380935D032C
S11308508E5492408F36910570F480915F038130FD
S113086051F482E080935C0341E060E072E080E058
S113087090E00E947A1380915D0390915E03805909
S113088091408D3B910508F047C020915F032111F1
S11308903EC082E080935C0341E060E072E080E06F
S11308A090E00E947A1380915D0390915E038059D9
S11308B091408F3521E0920718F021E020935C03EA
S11308C08D3B910568F480915F03813049F4109267
S11308D05C0340E060E072E080E090E00E947A1304
S11308E080915D0390915E038E5492408F36910502
S11308F0C0F480915F03811114C010925C0340E046
S113090060E072E080E090E00E947A1308958F35F1
S113091021E0920790F6D7CF8F3521E0920700F3BC
S1130920CCCF089581E00E94E20090935B03809312
S11309305A039C012E5432402F36310508F0B8C0BA
S113094080916003813099F480915803813029F0BB
S113095080915703813009F0D7C081E08093590317
S113096041E060E074E080E090E00E947A138091BE
S11309705A0390915B03805991408D3B910508F097
S1130980D4C0809160038111A5C080915803813047
S113099029F080915703813009F091C081E0809360
S11309A0590341E060E074E080E090E00E947A1333
S11309B080915A0390915B038E5492408F36910537
S11309C0B0F480916003813091F4809158038111D7
S11309D0BEC0809157038111BAC083E0809359034C
S11309E041E060E074E080E090E00E947A1380913E
S11309F05A0390915B03805991408D3B910508F017
S1130A007EC08091600381116FC080915803811171
S1130A10A8C0809157038111A4C083E08093590337
S1130A2041E060E074E080E090E00E947A138091FD
S1130A305A0390915B03805991408F35914050F057
S1130A4082E08093590341E060E078E080E090E048
S1130A500E947A1380915A0390915B0380599140CC
S1130A608D3B910568F480916003813049F41092C4
S1130A70590340E060E074E080E090E00E947A1363
S1130A8080915A0390915B038E5492408F36910566
S1130A9008F072C08091600381116EC010925903F6
S1130AA040E060E074E080E090E00E947A130895F2
S1130AB0805991408D3B910508F463CF41C08091EA
S1130AC05A0390915B03805991408D3B910508F442
S1130AD09CCF15C080915A0390915B038E54924031
S1130AE08F36910508F46DCF80915A0390915B0382
S1130AF0805991408F35914008F4B5CFA1CF8F35FF
S1130B00914008F4BDCF9CCF80915A0390915B0330
S1130B10805991408D3B9105E8F24ACF80915A0368
S1130B2090915B0380599140EACF80915A03909150
S1130B305B038E5492408F36910508F442CFEECF7A
S1130B4080915A0390915B0380599140D8CF809152
S1130B505A0390915B03805991408D3B910520F29B
S1130B60CECF80915A0390915B03805991408F3589
S1130B70914008F485CF64CF0895CF93C82F613096
S1130B8041F441E061E070E080E090E00E947A137B
S1130B9007C040E061E070E080E090E00E947A13DA
S1130BA041E062E070E080E090E00E947A13C4FFCC
S1130BB008C041E064E070E080E090E00E947A13B5
S1130BC007C040E064E070E080E090E00E947A13A7
S1130BD0C5FF08C041E068E070E080E090E00E945A
S1130BE07A1307C040E068E070E080E090E00E9483
S1130BF07A13C6FF08C041E060E170E080E090E055
S1130C000E947A1307C040E060E170E080E090E069
S1130C100E947A13CC2344F441E060E270E080E067
S1130C2090E00E947A1307C040E060E270E080E048
S1130C3090E00E947A1340E062E070E080E090E08F
S1130C400E947A138FE39FE10197F1F700C000003F
S1130C5041E062E070E080E090E00E947A13C0FF1F
S1130C6008C041E064E070E080E090E00E947A1304
S1130C7007C040E064E070E080E090E00E947A13F6
S1130C80C1FF08C041E068E070E080E090E00E94AD
S1130C907A1307C040E068E070E080E090E00E94D2
S1130CA07A13C2FF08C041E060E170E080E090E0A8
S1130CB00E947A1307C040E060E170E080E090E0B9
S1130CC00E947A13C3FF08C041E060E270E080E054
S1130CD090E00E947A1307C040E060E270E080E098
S1130CE090E00E947A1340E062E070E080E090E0DF
S1130CF00E947A138FE39FE10197F1F700C000008F
S1130D00CF91089560E082E00E94BD0560E088E232
S1130D100E94BD0560E08CE00E94BD0560E081E0BA
S1130D200E94BD0508950F931F93CF93FC0180810A
S1130D30882361F08F01C0E0CF5F61E00E94BD05B0
S1130D40F801EC0FF11D80818111F6CFCF911F9135
S1130D500F910895CF93DF93EC01623009F449C0F9
S1130D6020F4613009F46DC08AC06330C1F064308E
S1130D7009F085C09C0136952795369527953695BB
S1130D802795A5ECB0E20E94BE22929582958F70C1
S1130D9089279F70892761E0805D0E94BD059E01BF
S1130DA03695279536952795ABE7B4E10E94BE2288
S1130DB0AC01569547959A01ADECBCEC0E94BE225D
S1130DC09695879596958795969587959C01220F7C
S1130DD0331F880F991F880F991F880F991F820F3F
S1130DE0931F9A01281B390BC90161E0805D0E94A1
S1130DF0BD059E01ADECBCEC0E94BE22AC01569533
S1130E00479556954795569547959A010E94BE2257
S1130E109695879596958795969587959C01220F2B
S1130E20331F880F991F880F991F880F991F820FEE
S1130E30931F9A01281B390BC90161E0805D0E9450
S1130E40BD059E01ADECBCEC0E94BE229695879533
S1130E5096958795969587959C01220F331F880F49
S1130E60991F880F991F880F991F820F931F9E0146
S1130E70281B390BC90161E0805D0E94BD05DF912B
S1130E80CF910895109200041092DA031092DC03BB
S1130E908091950390919603019690939603809385
S1130EA095036091F9037091FA037250072E000CB8
S1130EB0880B990B0E9434242EEE34E045EB5FE35B
S1130EC00E948A2321EE3AE744E95FE30E94E92481
S1130ED00E94FC23AB017093E0036093DF03209135
S1130EE000013091010181EE90E0821B930B4817C1
S1130EF059072CF02F513F4F241735074CF580919B
S1130F004D0590914E052091010430910204821BFD
S1130F10930B8D349D41A4F440E060E470E080E0E4
S1130F2090E00E947A1380914D0590914E05209196
S1130F30010430910204821B930B8D349D41ECF02B
S1130F4041E060E470E080E090E00E947A1315C014
S1130F5081E0809300048093DA038091E10390910F
S1130F60E20301969093E2038093E10341E060E49D
S1130F7070E080E090E00E947A1381E08093DA03CD
S1130F8020919503309196034091E1035091E2033F
S1130F9064E6649FC001659F900D1124B9010E940D
S1130FA0A4227093A3036093A2032436310541F471
S1130FB010929603109295031092E2031092E103AB
S1130FC080914D0590914E052091010430910204C9
S1130FD0AC01421B530B9A0128393A4324F09093F5
S1130FE0020480930104089580915C03823021F00F
S1130FF09091F003913039F421E030E030931804FB
S11310002093170404C0109218041092170420911E
S11310107A0330917B03232B39F421E030E03093C1
S11310201A042093190404C010921A04109219048B
S1131030813039F481E090E090931C0480931B0488
S113104004C010921C0410921B0480915903823036
S113105039F421E030E030931E0420931D0404C0D1
S113106010921E0410921D049091DA03911107C08E
S113107021E030E03093200420931F0404C0109238
S1131080200410921F0490915905913039F421E005
S113109030E0309322042093210404C010922204EF
S11310A01092210490919403923039F421E030E0BD
S11310B0309324042093230404C010922404109237
S11310C023049091E303913039F421E030E030932C
S11310D028042093270404C01092280410922704A3
S11310E0833038F081E090E090932A0480932904BF
S11310F004C010922A04109229048091150490913E
S11311001604899724F010922204109221048091ED
S1131110780390917903899714F110922404109222
S113112023041DC090813296890FE217F307D1F78B
S11311308093DC0381110BC040E060E078E080E044
S113114090E00E947A138091DC03882379F041E0D7
S113115060E078E080E090E00E947A130895809146
S1131160DC03E9E1F4E02BE234E0DCCF08951F92E4
S11311700F920FB60F9211242F933F934F935F93C7
S11311806F937F938F939F93AF93BF93EF93FF934B
S113119080914D0590914E05019690934E05809354
S11311A04D050E940512FF91EF91BF91AF919F9160
S11311B08F917F916F915F914F913F912F910F90FC
S11311C00FBE0F901F9018951F920F920FB60F929B
S11311D011248F939F938091EE039091EF030196D6
S11311E09093EF038093EE039F918F910F900FBE26
S11311F00F901F90189541E060E070E880E090E067
S11312000E947A13AAE7B0E08C9180688C93ECE793
S1131210F0E08081108280818064808380818F6D82
S113122080838C9186608C93EBE7F0E080818083EF
S1131230EEE7F0E080818763808380B7806880BFB9
S113124080E287B992E094B988E185B98EEF8AB9D2
S113125018B810928000E1E8F0E080818D6080830E
S1131260109285001092840029E03DE330938900B8
S11312702093880090936F00E0EBF0E0808182601F
S11312808083E1EBF0E08081826080831092B20081
S11312908FEF8093B300E0E7F0E080818260808389
S11312A02FEF83EC99E0215080409040E1F700C09B
S11312B000000E94820660E081E00E94BD0560E0BB
S11312C080E80E94BD0589E491E00E9493060E9493
S11312D042070E94501E4E9A0E94501E10925605BC
S11312E085E090E09093ED038093EC031092EF037C
S11312F01092EE0383E0809362051092C80310926B
S11313009D03109253051092790310927803109262
S11313101604109215041092FC031092FD0310920F
S1131320FE031092FF031092C0031092C1031092A7
S1131330C2031092C30310927B0310927A0310929B
S1131340CF031092CE031092110410921004109245
S1131350C5031092C4031092DB03109294031092FD
S1131360E30383E190E09093F8038093F7038DE91E
S113137090E09093C7038093C60381E090E00E94BD
S11313801A048093620582E090E00E941A0490E0BF
S11313909093ED038093EC0383E090E00E941A04A1
S11313A090E0909301018093000186E090E00E9418
S11313B01A04823018F48093600303C081E08093A0
S11313C0600387E090E00E941A04823018F480934E
S11313D05F0303C081E080935F0388E090E00E9494
S11313E01A0490E090937903809378038B9734F0F8
S11313F089E290E0909379038093780389E090E008
S11314000E941A0490E090931604809315048B971D
S113141034F089E290E0909316048093150480E1FF
S113142090E00E941A0490E09093F8038093F703ED
S11314308138910524F01092F8031092F70381E1AA
S113144090E00E941A04682F70E080E090E00E940F
S113145032246093FC037093FD038093FE03909306
S1131460FF0320E030E048E752E40E94E424181629
S113147064F480E090E0A4E7B2E48093FC039093EA
S1131480FD03A093FE03B093FF0382E190E00E946A
S11314901A04682F70E080E090E00E943224609388
S11314A0C0037093C1038093C2039093C30320E0ED
S11314B030E048EC52E40E94E424181664F480E01E
S11314C090E0A8ECB2E48093FC039093FD03A09316
S11314D0FE03B093FF0383E190E00E941A0490E0BE
S11314E090935F0580935E0584E190E00E941A0466
S11314F090E0909371038093700385E190E00E94E3
S11315001A0490E09093BF038093BE0386E190E0B9
S11315100E941A04C82FD0E0D0939303C09392037F
S11315206091700370917103072E000C880B990B66
S11315300E9434242DEC3CEC4CEC5DE30E94E92445
S11315406B017C0160915E0570915F05072E000CB4
S1131550880B990B0E9434249B01AC01C701B6018E
S11315600E94192360934F05709350058093510591
S1131570909352056091BE037091BF03072E000C37
S1131580880B990B0E9434246B017C01BE01DD0F92
S1131590880B990B0E9434242DEC3CEC4CEC5DE35D
S11315A00E94E9249B01AC01C701B6010E941923E2
S11315B06093720370937303809374039093750321
S11315C01092630580E00E94E20090935E03809392
S11315D05D0381E00E94E20090935B0380935A03D1
S11315E00E94501E0E9442070E94F40778941092B1
S11315F06E0310926D0340E060E070E880E090E0DC
S11316000E947A1311E0C1E0D0E00E94F8000E9429
S113161021040E9492040E9442070E94A4140E9482
S1131620F4070E94690180916205823009F4C5C003
S11316301093BD032091A2033091A30380917803FA
S113164090917903820F931F84369105D4F440E07E
S113165060E470E080E090E00E947A1310927B03D3
S113166010927A0380917803909179032091A203D8
S11316703091A303280F391F2436310514F48997B8
S11316805CF0D0937B03C0937A03412F60E470E055
S113169080E090E00E947A131B9946C08091560323
S11316A0811142C08091630581118AC0412F60E09D
S11316B070E880E090E00E947A13809162058F5F69
S11316C08093620510935603109256051092F2030C
S11316D01092F1032FEF86E791E021508040904073
S11316E0E1F700C000001092580340E060E870E0A9
S11316F080E090E00E947A1380916205843010F0BB
S11317001093620560916205CE010E9412048FE37A
S11317109CE90197F1F700C00000412F60E070E8F8
S113172080E090E00E947A131B9B12C080915603C4
S1131730813071F48091630581110AC010925605BD
S1131740109256038FE39CE90197F1F700C0000063
S113175080916205813031F480916305811125C047
S11317600E94E20B80916205823031F4809163051E
S113177081111BC00E943B02809162058330A9F451
S113178080916305811111C060E080E80E94BD056D
S11317908AE591E00E9493060E94B60C40E060E066
S11317A071E080E090E00E947A1340E060E070E82D
S11317B080E090E00E947A1328CF1092BD033ACFC4
S11317C083B1C6CF40E060E071E080E090E00E9429
S11317D07A13809156058111B9C01C9BB4C08091C5
S11317E058038111B0C060E080E80E94BD058FE617
S11317F091E00E9493060E94B60C1C9924C080912B
S11318005605882309F4A7C01EC041E060E070E8D3
S113181080E090E00E947A1381E0809356052FEFD8
S11318208AE693E0215080409040E1F700C0000038
S11318301092EF031092EE0340E060E070E880E065
S113184090E00E947A1380915605813009F088C097
S11318501C9B41C08091580381113DC081E080935D
S1131860580341E060E870E080E090E00E947A1361
S1131870109256052FEF89EF90E021508040904060
S1131880E1F700C0000080915605811161C01C99E8
S11318904BC080915803813009F046C080935605AF
S11318A041E060E070E880E090E00E947A132FEF5E
S11318B082E597E0215080409040E1F700C00000AD
S11318C040E060E070E880E090E00E947A1380914C
S11318D05605813029F51C9B48C0809158038130FE
S11318E009F043C0109258031092560560E080E856
S11318F00E94BD058FE691E00E9493060E94B60CFB
S113190040E060E870E080E090E00E947A132FEFFE
S113191089EF90E0215080409040E1F700C0000042
S113192080915605811121C0809158038130E9F4DA
S11319301092E30360E080E80E94BD0580E891E036
S11319400E94930608951C9B06C09DCF83B17BCF54
S1131950813009F2089580915803811198CF55CFB1
S113196080915605882309F492CF0895CF93DF938D
S113197080916205813009F406C160E080EC0E9428
S1131980BD051092DE031092DD03C091F103D091E6
S1131990F203C730D10509F0F8C10E94DD03C091FC
S11319A0F103D091F203C730D1050CF074C0FE01ED
S11319B0EE0FFF1FE95EFB4F80819181019709F0D3
S11319C060C005C081919191019709F05FC0C73053
S11319D0D10508F051C0FE01EC5CFF4F0C94B82215
S11319E081E991E00E94930681E090E09093DE0308
S11319F08093DD0341C082EA91E00E94930681E076
S1131A0090E09093DE038093DD0336C083EB91E096
S1131A100E94930681E090E09093DE038093DD03BF
S1131A202BC084EC91E00E94930681E090E09093B7
S1131A30DE038093DD0320C085ED91E00E949306D0
S1131A4081E090E09093DE038093DD0315C086EE81
S1131A5091E00E94930681E090E09093DE038093EE
S1131A60DD030AC087EF91E00E94930681E090E0D5
S1131A709093DE038093DD03D093F203C093F103CC
S1131A800AC0FE01EE0FFF1FE75EFB4F2196C73031
S1131A90D1050CF497CF8091DD039091DE03892B5F
S1131AA031F40E94DD031092F2031092F10380914D
S1131AB0DD039091DE03019711F40E9419031C9930
S1131AC00AC080919D03811106C081E080939D032B
S1131AD01C9B54C007C01C9B51C080919D03813046
S1131AE009F04CC041E060E070E880E090E00E94C2
S1131AF07A1310929D03E091F103F091F203CF0168
S1131B0001969093F2038093F103DC01AA0FBB1FAB
S1131B10A95EBB4F2D913C91232B49F5873091054C
S1131B205CF012C0219131912130310549F4909338
S1131B30F2038093F10308C0EE0FFF1FE55EFB4F35
S1131B4001968730910571F78091F1039091F2032A
S1131B50089724F01092F2031092F1032FEF89EF0B
S1131B6090E0215080409040E1F700C0000040E048
S1131B7060E070E880E090E00E947A138091620552
S1131B80813009F00CC160E080EC0E94BD05109228
S1131B90DE031092DD03C091F103D091F203C7304C
S1131BA0D10509F0F7C00E94DD03C091F103D09183
S1131BB0F203C730D1050CF074C0FE01EE0FFF1F15
S1131BC0E95EFB4F80819181019709F060C005C0F7
S1131BD081919191019709F05FC0C730D10508F058
S1131BE051C0FE01E55CFF4F0C94B82281E991E0FD
S1131BF00E94930681E090E09093DE038093DD03DE
S1131C0041C082EA91E00E94930681E090E09093C3
S1131C10DE038093DD0336C083EB91E00E949306DC
S1131C2081E090E09093DE038093DD032BC084EC8D
S1131C3091E00E94930681E090E09093DE0380930C
S1131C40DD0320C085ED91E00E94930681E090E0E1
S1131C509093DE038093DD0315C086EE91E00E942D
S1131C60930681E090E09093DE038093DD030AC045
S1131C7087EF91E00E94930681E090E09093DE0369
S1131C808093DD03D093F203C093F1030AC0FE01F5
S1131C90EE0FFF1FE75EFB4F2196C730D1050CF412
S1131CA097CF8091DD039091DE03892B31F40E945C
S1131CB0DD031092F2031092F1038091DD03909101
S1131CC0DE03019711F40E9419031D9B0AC0809141
S1131CD09D03811106C081E080939D031D995FC01F
S1131CE007C01D995CC080919D03813009F057C0E5
S1131CF041E060E070E880E090E00E947A13109286
S1131D009D03E091F103F091F203CF0101969093CA
S1131D10F2038093F103DC01AA0FBB1FA95EBB4F42
S1131D202D913C91232B49F5873091055CF012C02D
S1131D30219131912130310549F49093F20380933C
S1131D40F10308C0EE0FFF1FE55EFB4F01968730DD
S1131D50910571F78091F1039091F203089724F0B3
S1131D601092F2031092F1032FEF89EF90E02150CB
S1131D7080409040E1F700C0000040E060E070E87F
S1131D8080E090E00E947A130AC0C730D1050CF4B9
S1131D900ECE87CEC730D1050CF40FCF88CFDF919C
S1131DA0CF910895CF93DF93809168039091690355
S1131DB08D30910509F01AC3CBE2D4E02A8D3B8D16
S1131DC08091F3039091F403822B932B2C893D890A
S1131DD0220F331F220F331F220F331F822B932B0B
S1131DE02E893F89220F331F220F331F822B932BFF
S1131DF0288D398D220F331F822B932B9093F4035C
S1131E008093F30308C0299A459A809168039091BE
S1131E1069030D9711F4299A459A8091680390916A
S1131E2069030E9761F48091170490911804019747
S1131E3021F08091F0038230B1F4299A459A80917F
S1131E406803909169038D3091050CF4DBC24697C9
S1131E5011F4299A459A80916803909169034F97E8
S1131E6011F4299A459A809168039091690388979F
S1131E7011F4299A459A8091680390916903C19756
S1131E8011F4299A459A8091680390916903CA973D
S1131E9011F4299A459A80916803909169038334D7
S1131EA0910511F4299A459A8091680390916903E8
S1131EB08C34910511F4299A459A8091F3039091F9
S1131EC0F4038230910509F46AC01CF4892B49F0AB
S1131ED099C28330910509F47FC00E9709F41FC29B
S1131EE091C28091680390916903099711F4299A2A
S1131EF0459A80916803909169030D9711F4299A8A
S1131F00459A80916803909169030E9761F48091DA
S1131F10170490911804019721F08091F003823006
S1131F2091F4299A459A80916803909169034697A0
S1131F3011F4299A459A80916803909169034F9707
S1131F4011F4299A459A80916803909169038897BE
S1131F5011F4299A459A8091680390916903C19775
S1131F6011F4299A459A8091680390916903CA975C
S1131F7011F4299A459A80916803909169038334F6
S1131F80910511F4299A459A809168039091690307
S1131F908C34910509F036C2299A459A33C280914E
S1131FA06803909169030D9711F4299A459A8091D9
S1131FB06803909169030E9709F024C28091170475
S1131FC090911804019729F08091F003823009F070
S1131FD019C2299A459A16C280916803909169039F
S1131FE00D9711F4299A459A809168039091690399
S1131FF00E9761F48091170490911804019721F0D1
S11320008091F003823091F4299A459A8091680373
S113201090916903469711F4299A459A809168032F
S1132020909169034F9711F4299A459A8091680316
S113203090916903889711F4299A459A80916803CD
S113204090916903C19711F4299A459A8091680384
S113205090916903CA9711F4299A459A809168036B
S1132060909169038334910511F4299A459A8091DA
S11320706803909169038C34910511F4299A459A67
S113208080916803909169039C012E503109283096
S1132090310520F525E130E0281B390B8091C6037A
S11320A09091C70302C0959587952A95E2F78170B0
S11320B099272091970330919803822B932B909327
S11320C0980380939703019711F4299A459A809174
S11320D0970390919803892B09F4299880916803B8
S11320E0909169034E97E1F48091F003E82FE17039
S11320F0F0E08091970390919803E82BF92BF093EB
S11321009803E0939703E130F10509F073C1299A2C
S1132110459A8091970390919803892B09F4299803
S1132120809168039091690382970297D0F480911B
S1132130BD03A82FA170B0E08091970390919803FC
S1132140A82BB92BB0939803A0939703119711F47C
S1132150299A459A8091970390919803892B09F4C1
S11321602998809168039091690384970497D8F41F
S11321708091F003482F417050E080919703909133
S11321809803482B592B509398034093970341305D
S1132190510511F4299A459A8091970390919803D7
S11321A0892B09F429988091680390916903879792
S11321B0E1F480915905682F617070E08091970374
S11321C090919803682B792B7093980360939703ED
S11321D06130710509F012C1299A459A80919703DB
S11321E090919803892B09F42998209168033091E0
S11321F06903C901C397069760F580915D039091C7
S11322005E0399230CF40396959587959595879588
S113221049E350E0BA01621B730B02C095958795A0
S11322206A95E2F78170992720919703309198037A
S1132230822B932B9093980380939703019711F427
S1132240299A459A8091970390919803892B09F4D0
S1132250299880916803909169039C012C5331095A
S11322602730310520F522E430E0281B390B80911A
S113227066039091670302C0959587952A95E2F7C6
S1132280817099272091970330919803822B932B87
S11322909093980380939703019711F4299A459A90
S11322A08091970390919803892B09F429982091A0
S11322B0680330916903C90185549109079708F0AF
S11322C0A1C080915A0390915B0399230CF4039667
S11322D095958795959587954BE450E0BA01621BD7
S11322E0730B02C0959587956A95E2F781709927DB
S11322F02091970330919803822B932B909398030A
S113230080939703019711F4299A459A8091970332
S113231090919803892B09F075C0299873C0809116
S11323206803909169030D9711F4299A459A809155
S11323306803909169034E9711F4299A459A809104
S11323406803909169038D9711F4299A459A8091B5
S11323506803909169038E9709F054C080917104C9
S113236090917204019779F480917F049091800494
S1132370019749F441E060E070E880E090E00E9459
S11323807A131092F003809173049091740401976E
S113239079F48091810490918204019749F440E09A
S11323A060E070E880E090E00E947A131092F003FD
S11323B08091770490917804019749F48091850481
S11323C090918604019719F481E08093F003809141
S11323D07504909176040197A9F4809183049091F7
S11323E08404019779F41092F0030CC0099709F062
S11323F014CD09CDEF2B09F492CED5CE672B09F479
S1132400F3CE55CFDF91CF910895599A23B1822FFE
S1132410817090E0909314048093130481309105AB
S113242009F02AC18091C90381115EC18091CA0358
S11324309091CB039C01295031092230310528F4B5
S11324401092CB031092CA032EC04297039738F41C
S113245081E090E09093CB038093CA0342C08091C3
S1132460CA039091CB034B970897E8F482E090E07D
S11324709093CB038093CA0310926903109268036C
S113248010927703109276031092A5031092A4037E
S11324901092F4031092F30320E030E090932C04A4
S11324A080932B0482C08091CA039091CB03893E10
S11324B09340BCF010926903109268031092770362
S11324C0109276031092A5031092A4031092F403C1
S11324D01092F3031092F00310922C0410922B0428
S11324E074C02091680330916903F901EE0FFF1F56
S11324F0E55DFB4F8091CA039091CB039183808368
S11325002830310509F051C0EBE2F4E0208931892B
S11325108091A4039091A503822B932B2481358170
S11325200024369527950794369527950794322FDE
S1132530202D822B932B26813781220F331F229546
S11325403295307F3227207F3227822B932B2085B0
S1132550318522953295307F3227207F3227822B96
S1132560932B22853385220F331F220F331F220F13
S1132570331F822B932B24853585220F331F220F83
S1132580331F822B932B26853785220F331F822BF3
S1132590932B9093A5038093A403009709F09BC009
S11325A01092A7031092A60396C04091A4035091E1
S11325B0A5038091F7039091F8034817590729F46C
S11325C02830310514F00E94D20E81E08093C903B3
S11325D01092FB031092CB031092CA03109298033B
S11325E01092970380912D0490912E04019711F578
S11325F080912F0490913004892BE1F48091680339
S1132600909169030297B1F48091A6039091A70376
S113261001969093A7038093A6032091F70330912A
S1132620F8038217930731F49093A5038093A403CE
S1132630299A459A80916803909169030196909331
S1132640690380936803809113049091140481308A
S1132650910509F449C010C08091A0039091A10391
S113266001969093A1038093A00380911304909109
S11326701404892BE9F02DC0892B59F58091FB03B3
S1132680811116C02998459881E08093FB0310922C
S1132690C9031092A1031092A00310927703109221
S11326A076038091130490911404892B29F011C0AE
S11326B08091FB03813069F41092A1031092A0036E
S11326C08091CA039091CB0301969093CB0380939E
S11326D0CA03599808952091F7033091F80382179B
S11326E0930709F072CF6FCF8091C903813009F449
S11326F0B3CFEFCF0F931F934130B9F4009161032F
S1132700109162032091630330916403DC01CB01D7
S1132710802B912BA22BB32B8093610390936203A4
S1132720A0936303B09364031AC0009161031091F2
S113273062032091630330916403DC01CB01809533
S11327409095A095B09580239123A223B3238093E1
S1132750610390936203A0936303B09364035B9853
S11327605C988091610390916203A0916303B0919E
S1132770640397FF02C05A9A01C05A985C9A5C9805
S11327808091610390916203A0916303B09164030B
S113279096FF02C05A9A01C05A985C9A5C9880913C
S11327A0610390916203A0916303B091640395FF68
S11327B002C05A9A01C05A985C9A5C98809161034D
S11327C090916203A0916303B091640394FF02C0EB
S11327D05A9A01C05A985C9A5C98809161039091CE
S11327E06203A0916303B091640393FF02C05A9AF9
S11327F001C05A985C9A5C9880916103909162033D
S1132800A0916303B091640392FF02C05A9A01C07D
S11328105A985C9A5C988091610390916203A091AC
S11328206303B091640391FF02C05A9A01C05A989D
S11328305C9A5C988091610390916203A091630318
S1132840B091640390FF02C05A9A01C05A985C9AEE
S11328505C988091610390916203A0916303B091AD
S1132860640387FF02C05A9A01C05A985C9A5C9824
S11328708091610390916203A0916303B09164031A
S113288086FF02C05A9A01C05A985C9A5C9880915B
S1132890610390916203A0916303B091640385FF87
S11328A002C05A9A01C05A985C9A5C98809161035C
S11328B090916203A0916303B091640384FF02C00A
S11328C05A9A01C05A985C9A5C98809161039091DD
S11328D06203A0916303B091640383FF02C05A9A18
S11328E001C05A985C9A5C9880916103909162034C
S11328F0A0916303B091640382FF02C05A9A01C09D
S11329005A985C9A5C988091610390916203A091BB
S11329106303B091640381FF02C05A9A01C05A98BC
S11329205C9A5C988091610390916203A091630327
S1132930B091640380FF02C05A9A01C05A985C9A0D
S11329405B9A1F910F910895CF92DF92EF92FF92BD
S11329501D9B40C08091C80381113CC080916205D9
S1132960833011F00C94481E41E060E070E880E090
S113297090E00E947A13809163058F5F80936305D2
S113298081E08093C8032FEF80E792E021508040DC
S11329909040E1F700C0000060E080EC0E94BD05BB
S11329A088E092E00E949306809163058A3028F0C3
S11329B083E080936205109263056091630580E073
S11329C090E00E94120440E060E070E880E090E053
S11329D00E947A131D9913C08091C803813079F441
S11329E080916205833059F41092C8032FEF89EF68
S11329F090E0215080409040E1F700C000008091B9
S1132A006305813009F082C060E080E80E94BD0562
S1132A1089E192E00E94930660E080EC0E94BD058B
S1132A208AE292E00E94930660E08EEC0E94BD056B
S1132A3080910001909101016AE070E00E94A4225B
S1132A40CB0161E00E94AA0660E08FEC0E94BD0504
S1132A50809100019091010164E670E00E94A4223B
S1132A6061E00E94AA061B9935C080919D038111E3
S1132A7031C041E060E070E880E090E00E947A13A9
S1132A8080910001909101010296893291052CF404
S1132A90909301018093000104C0109201011092EF
S1132AA0000181E080939D036091000183E090E048
S1132AB00E9412042FEF89EF90E021508040904053
S1132AC0E1F700C0000040E060E070E880E090E0E2
S1132AD00E947A131B9B1AC080919D038130B1F42C
S1132AE010929D0341E060E070E880E090E00E9475
S1132AF07A138FE39CE90197F1F700C0000040E0EE
S1132B0060E070E880E090E00E947A1380916305B1
S1132B10823009F093C060E080E80E94BD0588E33C
S1132B2092E00E94930660E080EC0E94BD0589E477
S1132B3092E00E94930660E08CEC0E94BD0583E560
S1132B4092E00E94930682E090E00E941A0490E0D2
S1132B509093ED038093EC0360E08AEC0E94BD0542
S1132B608091EC039091ED036AE070E00E94A4224E
S1132B70CB0161E00E94AA0660E08BEC0E94BD05D7
S1132B808091EC039091ED0364E670E00E94A4222E
S1132B9061E00E94AA061B9935C080919D038111B2
S1132BA031C041E060E070E880E090E00E947A1378
S1132BB08091EC039091ED030196853191052CF4FD
S1132BC09093ED038093EC0304C01092ED031092F4
S1132BD0EC0381E080939D036091EC0382E090E03C
S1132BE00E9412049FEF29EF80E091502040804022
S1132BF0E1F700C0000040E060E070E880E090E0B1
S1132C000E947A131B9B1AC080919D038130B1F4FA
S1132C1010929D0341E060E070E880E090E00E9443
S1132C207A138FE39CE90197F1F700C0000040E0BC
S1132C3060E070E880E090E00E947A138091630580
S1132C40833009F0C1C060E080E80E94BD0588E5DA
S1132C5092E00E94930681E00E94E20090935B035D
S1132C6080935A0360E08DEC0E94BD0580915A0365
S1132C7090915B036AE070E00E94A422CB0162E0C1
S1132C800E94AA0660E08FEC0E94BD0580915A0361
S1132C9090915B0364E670E00E94A42261E00E94CC
S1132CA0AA0680916003811108C060E080EC0E9454
S1132CB0BD0588E692E00E9493068091600381300E
S1132CC041F460E080EC0E94BD0584E792E00E943C
S1132CD093061B995AC080915305811156C041E057
S1132CE060E070E880E090E00E947A1380916003D5
S1132CF0811120C080915305811140C081E08093EF
S1132D0053058093600360E080EC0E94BD0584E776
S1132D1092E00E9493066091600386E090E00E9436
S1132D2012049FEF20E782E0915020408040E1F7B9
S1132D3000C0000080916003813001F5809153054B
S1132D4081111CC081E0809353051092600360E000
S1132D5080EC0E94BD0588E692E00E949306609193
S1132D60600386E090E00E9412049FEF20E782E077
S1132D70915020408040E1F700C0000040E060E056
S1132D8070E880E090E00E947A131B9B1DC0809144
S1132D9053058130C9F441E060E070E880E090E0E0
S1132DA00E947A13109253059FEF20E782E091501E
S1132DB020408040E1F700C0000040E060E070E89F
S1132DC080E090E00E947A1380916305843009F0DA
S1132DD0C1C060E080E80E94BD0581E892E00E94E5
S1132DE0930682E00E94E20090935E0380935D0369
S1132DF060E08DEC0E94BD0580915D0390915E03BF
S1132E006AE070E00E94A422CB0162E00E94AA065C
S1132E1060E08FEC0E94BD0580915D0390915E039C
S1132E2064E670E00E94A42261E00E94AA068091F8
S1132E305F03811108C060E080EC0E94BD0588E654
S1132E4092E00E94930680915F03813041F460E038
S1132E5080EC0E94BD0584E792E00E9493061B99D2
S1132E605AC080915305811156C041E060E070E87A
S1132E7080E090E00E947A1380915F03811120C06A
S1132E8080915305811140C081E080935305809364
S1132E905F0360E080EC0E94BD0584E792E00E943D
S1132EA0930660915F0387E090E00E9412049FEF15
S1132EB020E782E0915020408040E1F700C000000C
S1132EC080915F03813001F58091530581111CC00D
S1132ED081E08093530510925F0360E080EC0E94D0
S1132EE0BD0588E692E00E94930660915F0387E047
S1132EF090E00E9412049FEF20E782E0915020406E
S1132F008040E1F700C0000040E060E070E880E04D
S1132F1090E00E947A131B9B1DC080915305813061
S1132F20C9F441E060E070E880E090E00E947A1328
S1132F30109253059FEF20E782E09150204080409B
S1132F40E1F700C0000040E060E070E880E090E05D
S1132F500E947A1380916305853009F081C181E173
S1132F6090E00E941A04682F70E080E090E00E94D4
S1132F7032246B017C016093FC037093FD03809306
S1132F80FE039093FF0320E030E040E752E40E9408
S1132F90852318160CF44AC020E030E040E251ECDE
S1132FA0C701B6010E94E42488230CF43FC060E00A
S1132FB080E80E94BD0581E992E00E94930660E0EA
S1132FC080EC0E94BD0582EA92E00E94930660E0D4
S1132FD08EEC0E94BD0520E030E040E251E46091B7
S1132FE0FC037091FD038091FE039091FF030E9406
S1132FF08A230E940324DC01CB0161E00E94AA061B
S113300060E08FEC0E94BD056091FC037091FD03AC
S11330108091FE039091FF030E94FC23CB0164E6A0
S113302070E00E94A42261E00E94AA06C090FC0302
S1133030D090FD03E090FE03F090FF0320E030E029
S113304040E752E4C701B6010E94E424181654F084
S113305020E030E040E251ECC701B6010E94852334
S1133060882384F460E080E80E94BD0581EB92E04F
S11330700E94930660E080EC0E94BD0582EC92E021
S11330800E9493061B9955C080919D03811151C0E4
S113309041E060E070E880E090E00E947A1381E013
S11330A080939D0320E030E040E050E46091FC0315
S11330B07091FD038091FE039091FF030E941923F8
S11330C06B017C0120E030E048E752E40E94E424F4
S11330D018164CF0C092FC03D092FD03E092FE035C
S11330E0F092FF0308C01092FC031092FD031092AB
S11330F0FE031092FF036091FC037091FD03809125
S1133100FE039091FF030E94032481E190E00E945A
S113311012049FEF29EF80E0915020408040E1F7B6
S113312000C0000040E060E070E880E090E00E94B1
S11331307A131B9B22C080919D038130F1F441E0FE
S113314060E070E880E090E00E947A138091EE03E2
S11331509091EF039093CF038093CE0310929D033D
S11331608FE39CE90197F1F700C0000040E060E0C4
S113317070E880E090E00E947A131C9955C0809119
S11331805305811151C041E060E070E880E090E0B7
S11331900E947A1320E030E040E85FE36091FC0392
S11331A07091FD038091FE039091FF030E94182308
S11331B06B017C0120E030E040E251EC0E94852369
S11331C088234CF0C092FC03D092FD03E092FE03EE
S11331D0F092FF0308C01092FC031092FD031092BA
S11331E0FE031092FF0381E0809353056091FC037A
S11331F07091FD038091FE039091FF030E940324CC
S113320081E190E00E9412049FEF29EF80E0915049
S113321020408040E1F700C0000040E060E070E83A
S113322080E090E00E947A131C9B1AC080915305A1
S11332308130B1F441E060E070E880E090E00E9409
S11332407A13109253058FE39CE90197F1F700C0BC
S1133250000040E060E070E880E090E00E947A13B3
S113326080916305863009F062C189E090E00E9494
S11332701A0490E0909316048093150420E030E043
S113328046EC52E46091C0037091C1038091C20383
S11332909091C3030E94852318160CF43FC060E08C
S11332A080E80E94BD0581E992E00E94930660E0F7
S11332B080EC0E94BD0583ED92E00E94930660E0DD
S11332C08EEC0E94BD0520E030E040E251E46091C4
S11332D0C0037091C1038091C2039091C3030E9403
S11332E08A230E940324DC01CB0161E00E94AA0628
S11332F060E08FEC0E94BD056091C0037091C10332
S11333008091C2039091C3030E94FC23CB0164E625
S113331070E00E94A42261E00E94AA0620E030E04E
S113332046EC52E46091C0037091C1038091C203E2
S11333309091C3030E94E424181684F460E080E8AA
S11333400E94BD0581EB92E00E94930660E080EC50
S11333500E94BD0582EE92E00E9493061B9955C01F
S113336080919D03811151C041E060E070E880E0EC
S113337090E00E947A1320E030E040E050E4609155
S1133380C0037091C1038091C2039091C3030E9452
S113339019236B017C0120E030E048EC52E40E94E8
S11333A0E42418164CF0C092C003D092C103E092FA
S11333B0C203F092C30308C01092C0031092C10369
S11333C01092C2031092C30381E080939D03609125
S11333D0C0037091C1038091C2039091C3030E9402
S11333E0032482E190E00E9412049FEF29EF80E021
S11333F0915020408040E1F700C0000040E060E0D0
S113340070E880E090E00E947A131B9B1AC08091C0
S11334109D038130B1F410929D0341E060E070E8B7
S113342080E090E00E947A138FE39CE90197F1F722
S113343000C0000040E060E070E880E090E00E949E
S11334407A131C9958C080915305811154C041E0EE
S113345060E070E880E090E00E947A1320E030E0C1
S113346040E85FE36091C0037091C1038091C2039F
S11334709091C3030E9418236B017C0120E030E08B
S1133480A9010E94852388234CF0C092C003D092E6
S1133490C103E092C203F092C3030CC080E090E049
S11334A0A8ECB2E48093C0039093C103A093C20339
S11334B0B093C30381E0809353056091C00370917E
S11334C0C1038091C2039091C3030E94032482E14B
S11334D090E00E9412049FEF29EF80E09150204079
S11334E08040E1F700C0000040E060E070E880E068
S11334F090E00E947A131C9B1AC08091530581307E
S1133500B1F441E060E070E880E090E00E947A135A
S1133510109253058FE39CE90197F1F700C0000076
S113352040E060E070E880E090E00E947A138091CF
S11335306305873009F07BC1C090FC03D090FD0384
S1133540E090FE03F090FF0320E030E044E752E413
S1133550C701B6010E94E42488231CF088E080930C
S1133560630520E030E040EB50E460914F0570913A
S1133570500580915105909152050E94852318169B
S1133580C4F120E030E044E752E4C701B6010E94F0
S11335908523882374F560E080E80E94BD0581E9F5
S11335A092E00E94930660E080EC0E94BD05809149
S11335B052058F93809151058F93809150058F937D
S11335C080914F058F9383EF92E09F938F9380E8D0
S11335D093E09F938F930E94802680E893E00E945B
S11335E093068DB79EB708960FB6F8949EBF0FBE8C
S11335F08DBF20E030E040EB50E460914F057091C6
S1133600500580915105909152050E94E4241816AA
S113361044F410924F0510925005109251051092E7
S113362052051B9974C080919D03811170C041E0C3
S113363060E070E880E090E00E947A132DEC3CECAE
S11336404CEC5DE360914F057091500580915105FC
S1133650909152050E9419236B017C0120E030E017
S113366040EB50E40E94E42418164CF0C0924F053D
S1133670D0925005E0925105F092520508C0109284
S11336804F0510925005109251051092520581E099
S113369080939D0360914F05709150058091510571
S11336A0909152050E94FC23262F60935E0570932F
S11336B05F05862F972F880F991FAC01440F551F64
S11336C0440F551F840F951F6AE070E00E94A422E6
S11336D09093710380937003622F83E190E00E94C2
S11336E012046091700384E190E00E9412049FEF41
S11336F029EF80E0915020408040E1F700C00000B5
S113370040E060E070E880E090E00E947A131B9B48
S11337101AC080919D038130B1F410929D0341E061
S113372060E070E880E090E00E947A138FE39CE907
S11337300197F1F700C0000040E060E070E880E02D
S113374090E00E947A131C9956C080915305811110
S113375052C041E060E070E880E090E00E947A139B
S11337602DEC3CEC4CEC5DE360914F057091500501
S113377080915105909152050E9418236B017C01A0
S113378020E030E0A9010E94852388234CF0C092F8
S11337904F05D0925005E0925105F09252050CC0AD
S11337A083E393E3A3EBB0E480934F059093500538
S11337B0A0935105B093520581E080935305609125
S11337C05E0583E190E00E9412046091700384E13D
S11337D090E00E9412049FEF29EF80E09150204076
S11337E08040E1F700C0000040E060E070E880E065
S11337F090E00E947A131C9B1AC08091530581307B
S1133800B1F441E060E070E880E090E00E947A1357
S1133810109253058FE39CE90197F1F700C0000073
S113382040E060E070E880E090E00E947A138091CC
S11338306305883009F07BC1C090C003D090C103F8
S1133840E090C203F090C30320E030E048EC52E47F
S1133850C701B6010E94E42488231CF089E0809308
S1133860630520E030E040E251E46091720370911E
S1133870730380917403909175030E948523181635
S1133880C4F120E030E048EC52E4C701B6010E94E4
S11338908523882374F560E080E80E94BD0581E9F2
S11338A092E00E94930660E080EC0E94BD05809146
S11338B075038F93809174038F93809173038F9317
S11338C0809172038F9385E093E09F938F9380E8B8
S11338D093E09F938F930E94802680E893E00E9458
S11338E093068DB79EB708960FB6F8949EBF0FBE89
S11338F08DBF20E030E040E251E4609172037091AA
S1133900730380917403909175030E94E424181644
S113391044F4109272031092730310927403109281
S113392075031B9974C080919D03811170C041E09F
S113393060E070E880E090E00E947A1320E030E0DC
S113394040E05FE3609172037091730380917403AC
S1133950909175030E9419236B017C0120E030E0F3
S113396040E251E40E94E42418164CF0C092720321
S1133970D0927303E0927403F092750308C010921E
S1133980720310927303109274031092750381E012
S113399080939D036091720370917303809174030B
S11339A0909175030E94FC23262F6093BE037093AD
S11339B0BF03862F972F880F991FAC01440F551F03
S11339C0440F551F840F951F6AE070E00E94A422E3
S11339D09093930380939203622F85E190E00E9479
S11339E012046091920386E190E00E9412049FEF1A
S11339F029EF80E0915020408040E1F700C00000B2
S1133A0040E060E070E880E090E00E947A131B9B45
S1133A101AC080919D038130B1F410929D0341E05E
S1133A2060E070E880E090E00E947A138FE39CE904
S1133A300197F1F700C0000040E060E070E880E02A
S1133A4090E00E947A131C9956C08091530581110D
S1133A5052C041E060E070E880E090E00E947A1398
S1133A6020E030E040E05FE3609172037091730303
S1133A7080917403909175030E9418236B017C015B
S1133A8020E030E0A9010E94852388234CF0C092F5
S1133A907203D0927303E0927403F09275030CC026
S1133AA080E090E0A0E2B1E480937203909373030A
S1133AB0A0937403B093750381E0809353056091E0
S1133AC0BE0385E190E00E9412046091920386E1B6
S1133AD090E00E9412049FEF29EF80E09150204073
S1133AE08040E1F700C0000040E060E070E880E062
S1133AF090E00E947A131C9B1AC080915305813078
S1133B00B1F441E060E070E880E090E00E947A1354
S1133B10109253058FE39CE90197F1F700C0000070
S1133B2040E060E070E880E090E00E947A138091C9
S1133B306305893009F0AFC060E08DE80E94BD05DF
S1133B4063E08091990390919A030E94AA06809160
S1133B50F7039091F803803891057CF560E080E8E4
S1133B600E94BD0586E193E00E94930660E080EC2C
S1133B700E94BD058BE092E00E94930660E08CEC0D
S1133B800E94BD058091F7039091F8036AE070E00C
S1133B900E94A422CB0162E00E94AA0660E08EEC9F
S1133BA00E94BD058091F7039091F80364E670E0EC
S1133BB00E94A42261E00E94AA068091F7039091DA
S1133BC0F8038038910581F460E080E80E94BD0527
S1133BD087E293E00E94930660E080EC0E94BD05BA
S1133BE088E393E00E9493061B9935C080919D035E
S1133BF0811131C041E060E070E880E090E00E9413
S1133C007A138091F7039091F80301968138910516
S1133C102CF49093F8038093F70304C01092F803F4
S1133C201092F70381E080939D036091F70380E194
S1133C3090E00E9412049FEF29EF80E09150204011
S1133C408040E1F700C0000040E060E070E880E000
S1133C5090E00E947A131B9B1EC080919D038130CB
S1133C60D1F410929D0341E060E070E880E090E0C0
S1133C700E947A138FE39CE90197F1F700C00000DA
S1133C8040E060E070E880E090E00E947A1303C0B6
S1133C9083B10C94FF14FF90EF90DF90CF900895C0
S1133CA00F931F93CF93DF9360E080EC0E94BD05D8
S1133CB089E493E00E94930660910C0470910D04D2
S1133CC07250072E000C880B990B0E9434242EEEA0
S1133CD034E045EB5FE30E948A2321EE3AE744E9AE
S1133CE05FE30E94E9240E94FC2370935D056093C6
S1133CF05C0560E081EC0E94BD0580915C059091BB
S1133D005D050AE010E0B8010E94A422CB0162E044
S1133D100E94AA0660E083EC0E94BD0580915C05C8
S1133D2090915D05C4E6D0E0BE010E94A42261E04A
S1133D300E94AA060E94F80060E084EC0E94BD057F
S1133D408BE493E00E94930660919B0370919C0323
S1133D507250072E000C880B990B0E9434242EEE0F
S1133D6034E045EB5FE30E948A2321EE3AE744E91D
S1133D705FE30E94E9240E94FC237093CD036093C7
S1133D80CC0360E087EC0E94BD058091CC03909148
S1133D90CD03B8010E94A422CB0162E00E94AA06CE
S1133DA060E089EC0E94BD058091CC039091CD0325
S1133DB0BE010E94A42261E00E94AA060E94F800AB
S1133DC060E08AEC0E94BD058FE493E00E949306B4
S1133DD06091F9037091FA037250072E000C880B5E
S1133DE0990B0E9434242EEE34E045EB5FE30E94ED
S1133DF08A2321EE3AE744E95FE30E94E9240E9422
S1133E00FC23709391036093900360E08DEC0E9417
S1133E10BD058091900390919103B8010E94A42262
S1133E20CB0162E00E94AA0660E08FEC0E94BD050F
S1133E308091900390919103BE010E94A42261E0BD
S1133E400E94AA06DF91CF911F910F910895A0E1DE
S1133E50B0E0EDE2FFE10C94CD227C011B016A018C
S1133E60FC0117821682838181FF44C39E012F5F68
S1133E703F4F3901F7019381F10193FD859193FF40
S1133E8081911F01882309F431C3853239F493FDEC
S1133E90859193FF81911F01853239F4B70190E038
S1133EA00E94442656016501E5CF10E0512C912C67
S1133EB0FFE1F915D8F08B3279F038F4803279F0DB
S1133EC08332A1F4F92DF0612EC08D3261F080337C
S1133ED069F4292D21602DC0392D3260932E892D4E
S1133EE08460982E2AC0E92DE86015C097FC2DC087
S1133EF020ED280F2A3088F496FE06C03AE0139F7E
S1133F00200D1124122F19C08AE0589E200D11246F
S1133F10522EE92DE0629E2E10C08E3231F496FCB2
S1133F20E5C2F92DF0649F2E08C08C3621F4292DAA
S1133F302068922E02C0883641F4F10193FD8591E8
S1133F4093FF81911F018111B3CF9BEB980F9330A5
S1133F5020F4992D9061805E07C09BE9980F9330FF
S1133F6008F066C1992D9F7E96FF16E09F73992EE7
S1133F70853619F49064992E08C0863621F4392FB9
S1133F803068932E02C01111115097FE07C01C33E4
S1133F9050F444244394410E27E00BC0183038F009
S1133FA027E017E005C027E09CE3492E02C0212F3B
S1133FB0412C560184E0A80EB11CF6016081718188
S1133FC082819381042DA3010E9456256C01F981FD
S1133FD0FC87F0FF02C0F3FF06C091FC06C092FE0E
S1133FE006C000E205C00DE203C00BE201C000E020
S1133FF08C858C7019F001115AC29BC297FE10C0B7
S11340004C0CFC85F4FF04C08A81813309F44A9482
S1134010141474F528E0241578F588E0482E2CC093
S113402096FC2AC0812F90E08C159D059CF03CEFF6
S1134030C3163FEFD30674F0892D8068982E0AC00A
S1134040E2E0F0E0EC0FFD1FE10FF11D8081803311
S113405019F411501111F4CF97FE0EC04424439467
S1134060410E812F90E0C816D9062CF41C1904C007
S11340704424439401C010E097FE06C01C141D04A0
S113408034F4C601019605C085E090E002C081E0E9
S113409090E001110196112331F0212F30E02F5FC0
S11340A03F4F820F931F252D30E08217930714F49E
S11340B0581A01C0512C892D897049F4552039F0C2
S11340C0B70180E290E00E9444265A94F7CF00237F
S11340D029F0B701802F90E00E94442693FC09C088
S11340E0552039F0B70180E390E00E9444265A94A9
S11340F0F7CF97FE4CC04601D7FE02C0812C912C0D
S1134100C60188199909F301E80FF91FFE87ED87A5
S1134110960124193109388B2F87012F10E011954E
S1134120019511093FEF8316930629F4B7018EE236
S113413090E00E944426C814D9044CF08F859889D5
S11341408815990524F4ED85FE85818101C080E3FD
S1134150F1E08F1A91082D853E852F5F3F4F3E87F2
S11341602D87801691062CF0B70190E00E9444261A
S1134170D9CFC814D90441F49A81963320F49533E5
S113418019F43C8534FF81E3B70190E04EC08A8185
S1134190813319F09C859F7E9C87B70190E00E9433
S11341A04426111105C094FC18C085E690E017C0A0
S11341B0B7018EE290E00E9444261E5F82E001E097
S11341C0080FF301E80FF11D8081B70190E00E9410
S11341D04426802F0113F3CFE6CF85E490E0B701A6
S11341E00E944426D7FC06C0C114D10441F4EC85D6
S11341F0E4FF05C0D194C194D1088DE201C08BE2E3
S1134200B70190E00E94442680E32AE0C216D1045C
S11342102CF08F5FFAE0CF1AD108F7CFB70190E006
S11342200E944426B701C601C0960E94442654C188
S1134230833631F0833779F0833509F056C020C0D6
S1134240560132E0A30EB11CF6018081898301E09E
S113425010E0630112C05601F2E0AF0EB11CF6018A
S1134260C080D18096FE03C0612F70E002C06FEF62
S11342707FEFC6010E9439268C01F92DFF7714C007
S1134280560122E0A20EB11CF601C080D18096FE38
S113429003C0612F70E002C06FEF7FEFC6010E9480
S11342A02E268C01F92DF0689F2EF3FD1AC0852D62
S11342B090E008171907A8F4B70180E290E00E9483
S11342C044265A94F4CFF60197FC859197FE819188
S11342D06F01B70190E00E94442651105A94015096
S11342E011090115110579F7F7C0843611F08936E3
S11342F061F5560197FE09C024E0A20EB11CF60137
S113430060817181828193810AC0F2E0AF0EB11C99
S1134310F60160817181072E000C880B990BF92D31
S1134320FF769F2E97FF09C09095809570956195B3
S11343307F4F8F4F9F4FF0689F2E2AE030E0A301FC
S11343400E94A226C82EC6183FC0092D853721F425
S11343500F7E2AE030E01DC0097F8F3691F018F4FB
S1134360883559F0C3C0803719F0883711F0BEC0C2
S1134370006104FF09C0046007C094FE08C0066021
S113438006C028E030E005C020E130E002C020E1B2
S113439032E0560107FF09C084E0A80EB11CF60103
S11343A0608171818281938108C0F2E0AF0EB11CFB
S11343B0F6016081718180E090E0A3010E94A22651
S11343C0C82EC6180F77902E96FE0BC0092D0E7FAF
S11343D0C11650F494FE0AC092FC08C0092D0E7E4A
S11343E005C0DC2C092D03C0DC2C01C0D12E04FF38
S11343F00DC0FE01EC0DF11D8081803311F4097EA6
S113440009C002FF06C0D394D39404C0802F8678D9
S113441009F0D39403FD11C000FF06C01C2DD51470
S113442080F4150D1D190DC0D51458F4B70180E2A0
S113443090E00E944426D394F7CFD51410F45D186D
S113444001C0512C04FF10C0B70180E390E00E942A
S1134450442602FF17C001FD03C088E790E002C0B4
S113446088E590E0B7010CC0802F867859F001FFF1
S113447002C08BE201C080E207FD8DE2B70190E04B
S11344800E944426C11638F4B70180E390E00E94EC
S113449044261150F7CFCA94F301EC0DF11D80812D
S11344A0B70190E00E944426C110F5CF15C0F4E096
S11344B0F51560F584E0581A93FE1FC0011127C05A
S11344C02C8523FF2AC004E810E0392D3071932E87
S11344D0F8018491811124C0552009F4E4CCB7017A
S11344E080E290E00E9444265A94F6CFF701868138
S11344F0978126C08FEF9FEF23C0B70180E290E041
S11345000E9444265A945110F8CFD8CF512CB701A9
S1134510802F90E00E944426D3CF08E810E0D5CF46
S113452091108052B70190E00E9444260F5F1F4F04
S1134530CFCF23E0251510F483E0BDCF512CC0CF9D
S11345406096E2E10C94E92297FB072E16F400949E
S113455007D077FD09D00E94042307FC05D03EF460
S1134560909581959F4F0895709561957F4F08951B
S1134570EE0FFF1F0590F491E02D0994A29FB00166
S1134580B39FC001A39F700D811D1124911DB29F83
S1134590700D811D1124911D08952F923F924F9209
S11345A05F926F927F928F929F92AF92BF92CF92BF
S11345B0DF92EF92FF920F931F93CF93DF93CDB7C8
S11345C0DEB7CA1BDB0B0FB6F894DEBF0FBECDBF40
S11345D009942A88398848885F846E847D848C8411
S11345E09B84AA84B984C884DF80EE80FD800C811A
S11345F01B81AA81B981CE0FD11D0FB6F894DEBFFD
S11346000FBECDBFED010895AA1BBB1B51E107C02E
S1134610AA1FBB1FA617B70710F0A61BB70B881F4E
S1134620991F5A95A9F780959095BC01CD010895DD
S11346305058BB27AA270E9430230C94AA240E9416
S11346409C2438F00E94A32420F039F49F3F19F4ED
S113465026F40C9499240EF4E095E7FB0C9493242F
S1134660E92F0E94BB2458F3BA1762077307840723
S1134670950720F079F4A6F50C94DD240EF4E0956A
S11346800B2EBA2FA02D0B01B90190010C01CA0108
S1134690A0011124FF27591B99F0593F50F4503EB3
S11346A068F11A16F040A22F232F342F4427585FA5
S11346B0F3CF469537952795A795F0405395C9F7BD
S11346C07EF41F16BA0B620B730B840BBAF0915075
S11346D0A1F0FF0FBB1F661F771F881FC2F70EC014
S11346E0BA0F621F731F841F48F4879577956795E7
S11346F0B795F7959E3F08F0B0CF9395880F08F0D3
S11347009927EE0F9795879508950E946F2408F4D2
S113471081E008950E949E230C94AA240E94A3245D
S113472058F00E949C2440F029F45F3F29F00C9437
S1134730932451110C94DE240C9499240E94BB24DC
S113474068F39923B1F3552391F3951B550BBB27BC
S1134750AA2762177307840738F09F5F5F4F220F01
S1134760331F441FAA1FA9F335D00E2E3AF0E0E8F8
S113477032D091505040E695001CCAF72BD0FE2F42
S113478029D0660F771F881FBB1F261737074807D6
S1134790AB07B0E809F0BB0B802DBF01FF2793588E
S11347A05F4F3AF09E3F510578F00C9493240C949B
S11347B0DE245F3FE4F3983ED4F3869577956795BE
S11347C0B795F7959F5FC9F7880F911D96958795C3
S11347D097F90895E1E0660F771F881FBB1F6217E2
S11347E073078407BA0720F0621B730B840BBA0BA0
S11347F0EE1F88F7E09508950E9403246894B11190
S11348000C94DE2408950E94C32488F09F5798F0E6
S1134810B92F9927B751B0F0E1F0660F771F881FC1
S1134820991F1AF0BA95C9F714C0B13091F00E94DB
S1134830DD24B1E008950C94DD24672F782F8827B8
S1134840B85F39F0B93FCCF3869577956795B39502
S1134850D9F73EF490958095709561957F4F8F4F71
S11348609F4F0895E89409C097FB3EF49095809576
S1134870709561957F4F8F4F9F4F9923A9F0F92F22
S113488096E9BB279395F695879577956795B795A0
S1134890F111F8CFFAF4BB0F11F460FF1BC06F5F86
S11348A07F4F8F4F9F4F16C0882311F096E911C098
S11348B0772321F09EE8872F762F05C0662371F0B9
S11348C096E8862F70E060E02AF09A95660F771FCD
S11348D0881FDAF7880F9695879597F90895990FA9
S11348E00008550FAA0BE0E8FEEF16161706E807B6
S11348F0F907C0F012161306E407F50798F0621BD7
S1134900730B840B950B39F40A2661F0232B242BAB
S1134910252B21F408950A2609F4A140A6958FEFCA
S1134920811D811D089597F99F6780E870E060E01C
S113493008959FEF80EC089500240A941616170634
S113494018060906089500240A941216130614067C
S113495005060895092E0394000C11F4882352F0DF
S1134960BB0F40F4BF2B11F460FF04C06F5F7F4F97
S11349708F4F9F4F089557FD9058440F551F59F07E
S11349805F3F71F04795880F97FB991F61F09F3F38
S113499079F087950895121613061406551FF2CF61
S11349A04695F1DF08C0161617061806991FF1CFB1
S11349B086957105610508940895E894BB276627D8
S11349C07727CB0197F908950E946F2408F48FEF9D
S11349D008950E94FC240C94AA240E949C2438F07C
S11349E00E94A32420F0952311F00C9493240C949A
S11349F0992411240C94DE240E94BB2470F3959F07
S1134A00C1F3950F50E0551F629FF001729FBB27C1
S1134A10F00DB11D639FAA27F00DB11DAA1F649F5D
S1134A206627B00DA11D661F829F2227B00DA11D10
S1134A30621F739FB00DA11D621F839FA00D611D96
S1134A40221F749F3327A00D611D231F849F600DB7
S1134A50211D822F762F6A2F11249F5750409AF0E0
S1134A60F1F088234AF0EE0FFF1FBB1F661F771F6C
S1134A70881F91505040A9F79E3F510580F00C9437
S1134A8093240C94DE245F3FE4F3983ED4F386959C
S1134A9077956795B795F795E7959F5FC1F7FE2BD7
S1134AA0880F911D9695879597F90895283008F0F9
S1134AB027E03327DA01990F311D87FD91600096B5
S1134AC06105710539F432602E5F3D9330E32A9518
S1134AD0E1F708959F3F30F080387105610509F0D2
S1134AE03C5F3C5F3D93913008F08068911DDF93FB
S1134AF0CF931F930F93FF92EF92192F987F969560
S1134B00E92F96959695E90FFF27EA51FF4F9927CC
S1134B103327EE24FF24A701E701059008940794A6
S1134B2028F4360FE71EF81E491F511D660F771F24
S1134B30881F991F0694A1F70590079428F4E70E9F
S1134B40F81E491F561FC11D770F881F991F661F26
S1134B500694A1F70590079428F4F80E491F561FF0
S1134B60C71FD11D880F991F661F771F0694A1F7D1
S1134B700590079420F4490F561FC71FD81F990F9B
S1134B80661F771F881F0694A9F7849110951770E4
S1134B9041F0D695C79557954795F794E7941A959C
S1134BA0C1F7ECE8F0E068941590159135916591A2
S1134BB0959105907FE27395E118F10A430B560B2A
S1134BC0C90BD009C0F7E10CF11E431F561FC91FC2
S1134BD0D01D7EF4703311F48A95E6CFE894015029
S1134BE030F0080F0AF40027021708F4202F239549
S1134BF0022F7A3328F079E37D932A95E9F710C0E0
S1134C007D932A9589F60694979567953795179518
S1134C101794E118F10A430B560BC90BD00998F00D
S1134C2023957E9173957A3308F070E37C93201377
S1134C30B8F77E9170617D9330F0839571E37D9335
S1134C4070E32A95E1F71124EF90FF900F911F91E3
S1134C50CF91DF91992787FD90950895FC010590E8
S1134C60615070400110D8F7809590958E0F9F1F6A
S1134C700895FC016150704001900110D8F78095AF
S1134C8090958E0F9F1F08950F931F93CF93DF93DB
S1134C90FB01238121FD03C08FEF9FEF2CC022FF76
S1134CA016C046815781248135814217530744F445
S1134CB0A081B1819D012F5F3F4F318320838C936D
S1134CC0268137812F5F3F4F3783268314C08B01A2
S1134CD0EC01FB010084F185E02D0995892BE1F6B7
S1134CE0D80116968D919C911797019617969C93CF
S1134CF08E931697CE01DF91CF911F910F91089556
S1134D00AEE0B0E0E6E8F6E20C94DB220D891E8901
S1134D1086E08C831A8309838FEF9FE79E838D83BC
S1134D20AE01475E5F4F6F89788DCE0101960E9478
S1134D30271FEF81F885E00FF11F10822E96E4E023
S1134D400C94F722FA01AA27283051F1203181F17D
S1134D50E8946F936E7F6E5F7F4F8F4F9F4FAF4F7F
S1134D60B1E03ED0B4E03CD0670F781F891F9A1F92
S1134D70A11D680F791F8A1F911DA11D6A0F711D46
S1134D80811D911DA11D20D009F468943F912AE052
S1134D90269F11243019305D3193DEF6CF0108953A
S1134DA0462F4770405D4193B3E00FD0C9F7F6CF6B
S1134DB0462F4F70405D4A3318F0495D31FD405233
S1134DC0419302D0A9F7EACFB4E0A69597958795C9
S1134DD077956795BA95C9F70097610571050895A8
S1134DE09B01AC010A2E0694579547953795279554
S1134DF0BA95C9F7620F731F841F951FA01D0895EC
S1074E00F894FFCF50
S1134E0405005061B26FBF6120B365BDBF2D7061F1
S1134E142020004142544F2020205045A3A54D207A
S1134E2420202000A87963BA20A441A85045E2A216
S1134E344820202000546D70252E3166432F486D80
S1134E44252E31662525202000A8B8BF61BDB8658C
S1134E5420424BA7B0AB45484F00A461BE7963BA66
S1134E64204F544BA7B0ABA2482020202020005050
S1134E7479C0BD6FB9205045A3A54D202020200042
S1134E845079C0BD6FB920A8A9434B20B365BDBFF9
S1134E94002143B8B4BD61BB20A84FA341505F2196
S1134EA4200041B36170B8C720BEB8BF61BDB8C7A4
S1134EB420200041B36170B8C720B3786FE3612048
S1134EC4414C200041B36170B8C720B3786FE361EB
S1134ED4205053200041B36170B8C72033383042A6
S1134EE4202020202000413F61703F3F20BB3F3FF2
S1134EF43F3F20444854005065B365706320E46127
S1134F04B7203338304220002020202020202020C5
S1134F142020202020202020004FBFBABB6FBD6575
S1134F24BDB8652020202020200061BCBEBBB8BFD2
S1134F3479E32C422B2F2D00427065BCC720B3C3E8
S1134F44786FE3612020202000BD61207065B6B82D
S1134F54BC2C006365BA2E0054B8BE20E361BFC004
S1134F64B8BA61202D5053002D4E4F2D6FBFBA7027
S1134F74C3BF2D002D4E432DB761BCBABD79BF2DDF
S1134F840054B8BE20E361BFC0B8BA61202D414CBF
S1134F94004D61BA63B8BC61BBC4BD61C7202020A5
S1134FA42000BF65BC2D70612C43202020202020CC
S1134FB4004B6FBDBF706FBBC42020202020202075
S1134FC42000BF65BCBE2D70C320202020204F5478
S1134FD44BA700B3BB61B6BD6F63BFC420202020C0
S1134FE42500B3BB61B6BD6F63BFB82020204F5406
S1134FF44BA700546D702B2F2D252E316643202092
S11350042020202000486D2B2F2D252E31662525A8
S113501420202020200053797374656D5F616472CD
S113502465732020202000416472657373206469D1
S11350347361626C65202000202020202020202021
S11350444F544BA7202020200055005F5F56005F7B
S10750545F5700009E
S9030000FC
