:100000000C94C3000C94E0000C94E0000C94E0000D
:100010000C94E0000C94E0000C94E0000C94A00818
:100020000C94E0000C94E0000C94E0000C94E000D0
:100030000C94E0000C94E0000C94E0000C94E000C0
:100040000C94E0000C94E0000C94E0000C94E000B0
:100050000C94E0000C94E0000C94E0000C94E000A0
:100060000C94E0000C94E000770D820D8D0D980D3E
:10007000A30DAE0DB90D7D0E880E930E9E0EA90E2A
:10008000B40EBF0E6E616E00696E660000407A109D
:10009000F35A00A0724E18090010A5D4E80000E839
:1000A0007648170000E40B54020000CA9A3B000097
:1000B00000E1F505000080969800000040420F0026
:1000C0000000A08601000000102700000000E803E7
:1000D000000000006400000000000A0000000000B2
:1000E0000100000000002C76D888DC674F0823DF71
:1000F000C1DFAE59E1B1B796E5E3E453C63AE65144
:10010000997696E8E6C28426EB898C9B62ED407C6A
:100110006FFCEFBC9C9F40F2BAA56FA5F490055A06
:100120002AF75C936B6CF9676DC11BFCE0E40D472B
:10013000FEF520E6B500D0ED902E0300943577054E
:100140000080841E080000204E0A000000C80C3306
:100150003333330F986E12831141EF8D2114893B95
:10016000E65516CFFEE6DB18D1844B381BF77C1D15
:10017000901DA4BBE424203284725E228100C9F168
:1001800024ECA1E53D2711241FBECFEFD8E0DEBF50
:10019000CDBF13E0A0E0B1E0EAE7F6E502C00590CC
:1001A0000D92AA37B107D9F725E0AAE7B3E001C05D
:1001B0001D92A13AB207E1F70E94DB080C943B2B99
:1001C0000C94000080937C00EAE7F0E0808180647A
:1001D0008083808186FDFDCFE8E7F0E0808120917B
:1001E000790090E0922B91838083808191810895A2
:1001F0000F931F93CF93DF931092480410924704FC
:100200001092CD031092CC0310923304109232045A
:1002100080E00E94E2009093840380938303C7E709
:10022000D0E000E012E083E00E94E20090939205AB
:1002300080939105209147043091480482179307D9
:100240006CF0811522E092072CF090934804809383
:10025000470404C0109348040093470487E00E94B9
:10026000E2009093AE038093AD032091CC033091D4
:10027000CD03821793076CF0811522E092072CF0D2
:100280009093CD038093CC0304C01093CD030093CF
:10029000CC0386E00E94E2009093D0038093CF03CA
:1002A0002091320430913304821793076CF081154A
:1002B00022E092072CF0909333048093320404C020
:1002C0001093330400933204219709F0ACCF80914E
:1002D000470490914804DF91CF911F910F910895A9
:1002E000CF92DF92EF92FF92CF93C0903704D090DD
:1002F0003804E0903904F0903A0420E030E040E720
:1003000052E4C701B6010E94C02718160CF456C06B
:1003100020E030E040E251ECC701B6010E941F2905
:1003200088230CF44BC02091090430910A044091B9
:100330000B0450910C04C701B6010E94C027181687
:1003400084F080917B0381110CC0C1E0C0937B03DA
:1003500041E060E070E280E090E00E94AE14C09363
:10036000970320918C0530918D0540918E05509119
:100370008F05609137047091380480913904909111
:100380003A040E9453272091090430910A044091B5
:100390000B0450910C040E941F2988237CF080914B
:1003A0007B03813059F410927B0340E060E070E2FF
:1003B00080E090E00E94AE1410929703C090F50385
:1003C000D090F603E090F703F090F80320E030E0DF
:1003D00046EC52E4C701B6010E94C02718160CF47F
:1003E0004BC02091050430910604409107045091C0
:1003F0000804C701B6010E94C027181684F0809136
:100400007A0381110CC0C1E0C0937A0341E060E03F
:1004100070E480E090E00E94AE14C093420420910A
:10042000A3033091A4034091A5035091A6036091CA
:10043000F5037091F6038091F7039091F8030E9401
:1004400053272091050430910604409107045091F0
:1004500008040E941F2988237CF080917A03813050
:1004600059F410927A0340E060E070E480E090E09C
:100470000E94AE1410924204CF91FF90EF90DF9053
:10048000CF90089541E060E071E080E090E00E944C
:10049000AE140E943D0D80918203811160C0809155
:1004A000280481110DC180919703813029F090912A
:1004B0004204913009F0F6C080912904811103C0F3
:1004C00081E080939803809116048130A1F480919B
:1004D000D103811110C0109298031092DD03109285
:1004E000DC0381E08093D10341E060E870E080E0CC
:1004F00090E00E94AE1460E080E80E949C0582E0DB
:1005000091E00E94720681E080937D0380919703C1
:10051000811125C0809142048111C7C010929803B7
:10052000109229041092DD031092DC03109236041D
:10053000109235041092DB031092160440E060E83C
:1005400070E080E090E00E94AE1460E080E80E94DD
:100550009C0583E191E00E94720610927D038091D8
:100560008203823021F0809128048130F1F580915E
:100570009703813021F080914204813041F460E0A2
:1005800080E80E949C0584E291E00E9472068091BE
:100590009703811115C080914204811111C040E080
:1005A00060E870E080E090E00E94AE1460E080E8D7
:1005B0000E949C0583E191E00E94720610927D03E7
:1005C00040E060E870E080E090E00E94AE1410929D
:1005D0009803109229041092DD031092DC0310920C
:1005E00036041092350410921604809182038130F3
:1005F00009F051C080919703813021F0809142042D
:10060000813051F580912904811103C081E08093EC
:100610009803809116048130A1F48091D103811157
:1006200010C0109298031092DD031092DC0381E059
:100630008093D10341E060E870E080E090E00E94A8
:10064000AE1460E080E80E949C0582E091E00E9488
:10065000720681E080937D038091970381111BC016
:1006600080914204811117C01092980310922904BE
:100670001092D10340E060E870E080E090E00E94DA
:10068000AE1460E080E80E949C0583E191E00E9446
:10069000720610927D038FE39CE90197F1F700C089
:1006A00000000895882339F0A0CF80918203823022
:1006B00009F461CF58CF80914204811154CF2ECFDD
:1006C00080912804813039F752CFCF93DF93579A26
:1006D0005F982FEF80EE90E0215080409040E1F74E
:1006E00000C000005F9A579887EC90E00197F1F7FF
:1006F00000C000004F9931C08FE391E00197F1F7FE
:1007000000C000004F9B2CC04F99FECFACE1B4E07D
:10071000C1E2D4E061E070E0FD011C9287E090E06E
:100720004F9BFECF2AE82A95F1F700C04F9B0AC0E5
:1007300040819B01082E02C0220F331F0A94E2F76A
:10074000242B20834F99FECF019750F71196CA179B
:10075000DB0711F781E090E005C080E090E002C087
:1007600080E090E0DF91CF9108958F929F92AF92B9
:10077000BF92CF92DF92EF92FF920F931F93CF938E
:10078000DF9310928D030E946503C82F80938D0321
:10079000813009F08BC01092FA031092F903ECE15A
:1007A000F4E0008110E0E180F12CD281C380D12CF3
:1007B000C8018E0D9F1D8D0F911D8C0D9D1D909359
:1007C0004104809340046D2F6F7770E080E090E0EB
:1007D0000E946F282DEC3CEC4CEC51E40E94242943
:1007E0004B015C01B601DD0C880B990B0E946F2850
:1007F0002DEC3CEC4CEC5DE30E9424299B01AC0108
:10080000C501B4010E9454274B015C0160930904A7
:1008100070930A0480930B0490930C040E94372871
:1008200070938F0360938E03DD239CF4B7FAB0942A
:10083000B7F8B0948092090490920A04A0920B0435
:10084000B0920C0471956195710970938F03609358
:100850008E03B701FF0C880B990B0E946F282DECBB
:100860003CEC4CEC5DE30E9424296B017C01B80157
:10087000110F880B990B0E946F282DEC3CEC4CEC6F
:1008800051E40E9424299B01AC01C701B6010E94DA
:100890005427609305047093060480930704909393
:1008A00008048091F9039091FA031EC0811109C0D8
:1008B0008091F9039091FA0301969093FA03809343
:1008C000F9038091F9039091FA038536910564F05C
:1008D00084E690E09093FA038093F90381E080939B
:1008E0009605C130F1F408C08436910514F41092D5
:1008F0009605C13041F402C084E690E001979093E0
:10090000FA038093F9038091F9039091FA03049715
:1009100044F41092960588E090E09093FA03809357
:10092000F903DF91CF911F910F91FF90EF90DF902E
:10093000CF90BF90AF909F908F9008950E94B50385
:1009400060E080EC0E949C05809108048F93809168
:1009500007048F93809106048F93809105048F93F1
:1009600080910C048F9380910B048F9380910A04E3
:100970008F93809109048F9385E391E09F938F93E8
:1009800081EB93E09F938F930E94BB2A81EB93E0CE
:100990000E9472068DB79EB70C960FB6F8949EBF54
:1009A0000FBE8DBF0895F999FECF92BD81BD60BD88
:1009B000FA9AF99A0895F999FECF92BD81BDF89AF5
:1009C00080B5089580918303909184039C012E54F7
:1009D00032402F36310538F440918503413019F407
:1009E00042E040938203805991408D3B9105E8F4A9
:1009F00040918503411115C042E04093820311C02C
:100A000080918503813019F41092820308952F3666
:100A10003105B8F480918503811113C010928203CF
:100A200008958F35914028F4EBCF8F35914078F3BE
:100A300004C081E080938203E3CF81E0809382034E
:100A4000E6CF089581E00E94E200909381038093B5
:100A500080038E5492408F36910568F4809186030E
:100A6000813049F480937F0341E060E074E080E0EE
:100A700090E00E94AE148091800390918103805990
:100A800091408D3B910508F052C0209186032111C1
:100A90004AC081E080937F0341E060E074E080E041
:100AA00090E00E94AE148091800390918103805960
:100AB00091408F35914050F082E080937F0341E078
:100AC00060E078E080E090E00E94AE1480918003C6
:100AD00090918103805991408D3B910568F48091FC
:100AE0008603813049F410927F0340E060E074E0B7
:100AF00080E090E00E94AE14809180039091810389
:100B00008E5492408F369105B0F480918603811106
:100B100012C010927F0340E060E074E080E090E05B
:100B20000E94AE1408958F359140C8F2C5CF8F351D
:100B3000914010F3C1CF0895CF93C82F613041F495
:100B400041E061E070E080E090E00E94AE1407C0F8
:100B500040E061E070E080E090E00E94AE1441E08F
:100B600062E070E080E090E00E94AE14C4FF08C034
:100B700041E064E070E080E090E00E94AE1407C0C5
:100B800040E064E070E080E090E00E94AE14C5FFB9
:100B900008C041E068E070E080E090E00E94AE14A0
:100BA00007C040E068E070E080E090E00E94AE1492
:100BB000C6FF08C041E060E170E080E090E00E9484
:100BC000AE1407C040E060E170E080E090E00E9479
:100BD000AE14CC2344F441E060E270E080E090E0A9
:100BE0000E94AE1407C040E060E270E080E090E058
:100BF0000E94AE1440E062E070E080E090E00E946D
:100C0000AE148FE39FE10197F1F700C0000041E0CF
:100C100062E070E080E090E00E94AE14C0FF08C087
:100C200041E064E070E080E090E00E94AE1407C014
:100C300040E064E070E080E090E00E94AE14C1FF0C
:100C400008C041E068E070E080E090E00E94AE14EF
:100C500007C040E068E070E080E090E00E94AE14E1
:100C6000C2FF08C041E060E170E080E090E00E94D7
:100C7000AE1407C040E060E170E080E090E00E94C8
:100C8000AE14C3FF08C041E060E270E080E090E095
:100C90000E94AE1407C040E060E270E080E090E0A7
:100CA0000E94AE1440E062E070E080E090E00E94BC
:100CB000AE148FE39FE10197F1F700C00000CF91E0
:100CC000089560E082E00E949C0560E088E20E9456
:100CD0009C0560E08CE00E949C0560E081E00E9441
:100CE0009C0508950F931F93CF93FC018081882367
:100CF00061F08F01C0E0CF5F61E00E949C05F801C8
:100D0000EC0FF11D80818111F6CFCF911F910F91D2
:100D10000895CF93DF93EC01623009F449C020F4C9
:100D2000613009F46DC08AC06330C1F0643009F0ED
:100D300085C09C013695279536952795369527953C
:100D4000A5ECB0E20E94F926929582958F708927D2
:100D50009F70892761E0805D0E949C059E01369509
:100D6000279536952795ABE7B4E10E94F926AC01AB
:100D7000569547959A01ADECBCEC0E94F9269695E4
:100D8000879596958795969587959C01220F331F99
:100D9000880F991F880F991F880F991F820F931F23
:100DA0009A01281B390BC90161E0805D0E949C05F6
:100DB0009E01ADECBCEC0E94F926AC01569547951E
:100DC00056954795569547959A010E94F92696950E
:100DD000879596958795969587959C01220F331F49
:100DE000880F991F880F991F880F991F820F931FD3
:100DF0009A01281B390BC90161E0805D0E949C05A6
:100E00009E01ADECBCEC0E94F926969587959695CF
:100E10008795969587959C01220F331F880F991F00
:100E2000880F991F880F991F820F931F9E01281BFF
:100E3000390BC90161E0805D0E949C05DF91CF9173
:100E4000089510923B0410920F04109211048091A7
:100E5000C6039091C70301969093C7038093C6037E
:100E600060913204709133047250072E000C880B8D
:100E7000990B0E946F282EEE34E045EB5FE30E9451
:100E8000C52721EE3AE744E95FE30E9424290E9446
:100E90003728AB017093150460931404209100016E
:100EA0003091010181EE90E0821B930B48175907A6
:100EB0002CF02F513F4F241735074CF580918A05B0
:100EC00090918B0520913C0430913D04821B930B43
:100ED0008D349D41A4F440E060E470E080E090E057
:100EE0000E94AE1480918A0590918B0520913C045C
:100EF00030913D04821B930B8D349D41ECF041E019
:100F000060E470E080E090E00E94AE1415C081E0E3
:100F100080933B0480930F048091190490911A04EC
:100F2000019690931A048093190441E060E470E004
:100F300080E090E00E94AE1481E080930F04209145
:100F4000C6033091C7034091190450911A0464E616
:100F5000649FC001659F900D1124B9010E94DF2696
:100F60007093D5036093D4032436310541F4109275
:100F7000C7031092C60310921A04109219048091AC
:100F80008A0590918B0520913C0430913D04AC0181
:100F9000421B530B9A0128393A4324F090933D04A5
:100FA00080933C04089580918203823021F09091D7
:100FB0002804913039F421E030E030935304209339
:100FC000520404C010925304109252042091AB03B7
:100FD0003091AC03232B39F421E030E030935504F9
:100FE0002093540404C0109255041092540481308C
:100FF00039F481E090E0909357048093560404C044
:10100000109257041092560480917F03823039F475
:1010100021E030E0309359042093580404C010922A
:1010200059041092580490910F04911107C021E0C7
:1010300030E030935B0420935A0404C010925B04A8
:1010400010925A0490919605913039F421E030E0E5
:1010500030935D0420935C0404C010925D041092F0
:101060005C049091A003913039F421E030E030939A
:101070005F0420935E0404C010925F0410925E042B
:1010800090911B04913039F421E030E030936304F7
:101090002093620404C010926304109262048330AF
:1010A00038F081E090E0909365048093640440C040
:1010B00010926504109264043BC090813296890FAF
:1010C000E217F307D1F78093110481110BC040E0C0
:1010D00060E078E080E090E00E94AE14809111041E
:1010E000882339F041E060E078E080E090E00E9401
:1010F000AE1480918203823021F0809128048130E7
:1011000039F441E060E072E080E090E00E94AE14CB
:1011100080918203811113C08091280481110FC036
:1011200040E060E072E080E090E00E94AE1408953C
:1011300080911104E4E5F4E026E634E0BECF0895A2
:101140001F920F920FB60F9211242F933F934F933C
:101150005F936F937F938F939F93AF93BF93EF931F
:10116000FF9380918A0590918B05019690938B0552
:1011700080938A050E948C120E94FF1380918A0539
:1011800090918B0562EC7EE10E94DF26709327042C
:1011900060932604FF91EF91BF91AF919F918F9142
:1011A0007F916F915F914F913F912F910F900FBE63
:1011B0000F901F90189541E060E070E880E090E0AB
:1011C0000E94AE14AAE7B0E08C9180688C93ECE7A3
:1011D000F0E08081108280818064808380818F6DC7
:1011E00080838C9186608C93EBE7F0E08081808334
:1011F000EEE7F0E080818763808380B7806880BFFE
:1012000080E287B982E084B988E185B98EEF8AB936
:1012100018B8E0EBF0E0808182608083E1EBF0E0E1
:101220008081826080831092B2008FEF8093B30040
:10123000E0E7F0E08081826080832FEF83EC99E02B
:10124000215080409040E1F700C000000E946106FC
:1012500060E081E00E949C0560E080E80E949C05BF
:1012600089E491E00E9472060E9421070E948B226D
:101270004E9A0E948B221092930585E090E0909305
:10128000250480932404109227041092260483E0FE
:1012900080939F051092FD031092CE03109290054B
:1012A0001092AA031092A9031092510410925004B4
:1012B00010923704109238041092390410923A04B4
:1012C0001092F5031092F6031092F7031092F803B0
:1012D0001092AC031092AB0310920404109203041A
:1012E00010924C0410924B041092FA031092F903DE
:1012F000109210041092C50310921B0483E190E039
:1013000090933104809330048DE990E09093FC0336
:101310008093FB0381E090E00E94DB0480939F05B3
:1013200082E090E00E94DB0490E09093250480939B
:10133000240483E090E00E94DB0490E0909301019C
:101340008093000186E090E00E94DB04823018F474
:101350008093860303C081E08093860387E090E05A
:101360000E94DB04823018F48093850303C081E07F
:101370008093850388E090E00E94DB0490E09093E6
:10138000AA038093A9038B9734F089E290E09093AD
:10139000AA038093A90389E090E00E94DB0490E017
:1013A00090935104809350048B9734F089E290E03D
:1013B000909351048093500480E190E00E94DB04FC
:1013C00090E090933104809330048138910524F0AB
:1013D000109231041092300481E190E00E94DB040D
:1013E000682F70E080E090E00E946D2860933704E1
:1013F000709338048093390490933A0420E030E0ED
:1014000048E752E40E941F29181664F480E090E037
:10141000A4E7B2E48093370490933804A09339048E
:10142000B0933A0482E190E00E94DB04682F70E000
:1014300080E090E00E946D286093F5037093F603BE
:101440008093F7039093F80320E030E048EC52E4F7
:101450000E941F29181664F480E090E0A8ECB2E422
:101460008093370490933804A0933904B0933A04DE
:1014700083E190E00E94DB0490E090939C058093D0
:101480009B0584E190E00E94DB0490E090939D0333
:1014900080939C0385E190E00E94DB0490E09093B0
:1014A000F4038093F30386E190E00E94DB04C82FED
:1014B000D0E0D093C403C093C30360919C037091A8
:1014C0009D03072E000C880B990B0E946F282DECB2
:1014D0003CEC4CEC5DE30E9424296B017C016091A3
:1014E0009B0570919C05072E000C880B990B0E94A0
:1014F0006F289B01AC01C701B6010E94542760937D
:101500008C0570938D0580938E0590938F05609167
:10151000F3037091F403072E000C880B990B0E94C3
:101520006F286B017C01BE01DD0F880B990B0E94B7
:101530006F282DEC3CEC4CEC5DE30E9424299B01D0
:10154000AC01C701B6010E9454276093A3037093B6
:10155000A4038093A5039093A6031092A00580E0B6
:101560000E94E200909384038093830381E00E94B1
:10157000E20090938103809380030E948B220E945B
:1015800021070E94D30710929A031092990340E01A
:1015900060E070E880E090E00E94AE14789411E082
:1015A000C1E0D0E080919803811106C00E94F8004C
:1015B0000E94E2040E9422050E9421070E94D81581
:1015C0000E94D3070E94700180919F05823009F428
:1015D000C3C01093F2032091D4033091D5038091BE
:1015E000A9039091AA03820F931F84369105D4F426
:1015F00040E060E470E080E090E00E94AE14109261
:10160000AC031092AB038091A9039091AA0320919F
:10161000D4033091D503280F391F2436310514F433
:1016200089975CF0D093AC03C093AB03412F60E487
:1016300070E080E090E00E94AE141B9946C080915B
:101640007C03811142C08091A005811188C0412F87
:1016500060E070E880E090E00E94AE1480919F0509
:101660008F5F80939F0510937C03109293051092D7
:101670002B0410922A042FEF86E791E0215080403E
:101680009040E1F700C0000010927E0340E060E867
:1016900070E080E090E00E94AE1480919F0584305D
:1016A00010F010939F0560919F05CE010E94D30416
:1016B0008FE39CE90197F1F700C0000040E060E093
:1016C00070E880E090E00E94AE141B9B16C08091F1
:1016D0007C03813091F48091A00581110EC010929D
:1016E00098031092D1031092930510927C038FE31C
:1016F0009CE90197F1F700C0000080919F058130BF
:1017000031F48091A00581114DCF0E94B10B8091E1
:101710009F05823031F48091A005811143CF0E9452
:10172000420280919F05833009F03CCF8091A00553
:10173000811138CF60E080E80E949C058AE591E045
:101740000E9472060E943D0D40E060E071E080E082
:1017500090E00E94AE1426CF1092F2033CCF83B1EA
:10176000CCCF8091930581116CC11C9B67C1809186
:101770007E03811163C18091980381110EC0109284
:10178000DD031092DC031092A2031092A1031092C9
:101790009F0310929E031092D10340E060E071E03D
:1017A00080E090E00E94AE1460E080E80E949C051A
:1017B0008FE691E00E9472060E943D0D1092360461
:1017C000109235041092DB031092980310921604C5
:1017D0008FE39CE90197F1F700C000001C9920C03D
:1017E00080919305882309F435C11AC041E060E077
:1017F00070E880E090E00E94AE1481E08093930551
:101800009FEF2AE683E0915020408040E1F700C03E
:10181000000040E060E070E880E090E00E94AE14DC
:1018200080919305813009F022C11C9B8BC080916F
:101830007E03811187C080918203811128C080912D
:10184000280481110FC160E080E80E949C0580E8B7
:1018500091E00E9472061092930581E080937E03CE
:1018600080937D031092DD031092DC031092360406
:101870001092350480939803109216049FEF29EF7D
:1018800080E0915020408040E1F700C0000080914E
:101890008203823021F080912804813009F581E0B3
:1018A00080937E0340E060E870E080E090E00E947A
:1018B000AE14109298031092930560E080E80E94A5
:1018C0009C0584E291E00E9472069FEF29EF80E080
:1018D000915020408040E1F700C0000010927D034D
:1018E000809193058111AFC01C9957C080917E03F0
:1018F000813009F052C040E060E870E080E090E0A4
:101900000E94AE141092980341E060E070E880E01D
:1019100090E00E94AE1481E0809393059FEF22E552
:1019200087E0915020408040E1F700C0000040E097
:1019300060E070E880E090E00E94AE148091930532
:10194000813039F51C9B98C080917E03813009F06D
:1019500093C01092D10340E060E870E080E090E036
:101960000E94AE1410927E031092930560E080E80E
:101970000E949C058FE691E00E9472069FEF29EF7E
:1019800080E0915020408040E1F700C000001092BC
:101990007D038091930581116FC080917E0381301A
:1019A00009F06AC0809116048130A1F48091D103BE
:1019B000811110C0109298031092DD031092DC0385
:1019C00081E08093D10341E060E870E080E090E046
:1019D0000E94AE1480918203823090F4909128048A
:1019E00091110EC090919803911131C060E080E890
:1019F0000E949C0580E891E00E9472060E943D0DC5
:101A000080918203823021F0809128048130A1F5F9
:101A100040E060E870E080E090E00E94AE14109238
:101A2000980360E080E80E949C0584E291E00E94B7
:101A3000720610927D030E943D0D08951C9B0AC002
:101A40004FCF83B1EDCE813009F47CCF0895823041
:101A500099F4DECF80917E03811146CFC7CE80916D
:101A60009305F1CF809128048130C9F718CF809178
:101A70009305882309F438CF0895CF93DF9380919D
:101A80009F05813009F406C160E080EC0E949C054E
:101A90001092130410921204C0912A04D0912B04C6
:101AA000C730D10509F0F8C10E949E04C0912A04F4
:101AB000D0912B04C730D1050CF074C0FE01EE0F9D
:101AC000FF1FEE5AFB4F80819181019709F060C0A2
:101AD00005C081919191019709F05FC0C730D10590
:101AE00008F051C0FE01EC5CFF4F0C94F32681E935
:101AF00091E00E94720681E090E09093130480933D
:101B0000120441C082EA91E00E94720681E090E0F6
:101B1000909313048093120436C083EB91E00E94EB
:101B2000720681E090E090931304809312042BC01E
:101B300084EC91E00E94720681E090E0909313049F
:101B40008093120420C085ED91E00E94720681E02E
:101B500090E0909313048093120415C086EE91E0F8
:101B60000E94720681E090E0909313048093120427
:101B70000AC087EF91E00E94720681E090E09093A6
:101B8000130480931204D0932B04C0932A040AC038
:101B9000FE01EE0FFF1FEC5AFB4F2196C730D10517
:101BA0000CF497CF8091120490911304892B31F497
:101BB0000E949E0410922B0410922A048091120419
:101BC00090911304019711F40E94B5031C990AC067
:101BD0008091CE03811106C081E08093CE031C9BCF
:101BE00054C007C01C9B51C08091CE03813009F0C6
:101BF0004CC041E060E070E880E090E00E94AE14EC
:101C00001092CE03E0912A04F0912B04CF010196AB
:101C100090932B0480932A04DC01AA0FBB1FAE5AB9
:101C2000BB4F2D913C91232B49F5873091055CF0FA
:101C300012C0219131912130310549F490932B0448
:101C400080932A0408C0EE0FFF1FEA5AFB4F01964B
:101C50008730910571F780912A0490912B040897A1
:101C600024F010922B0410922A042FEF89EF90E0B9
:101C7000215080409040E1F700C0000040E060E06B
:101C800070E880E090E00E94AE1480919F05813062
:101C900009F00CC160E080EC0E949C0510921304D6
:101CA00010921204C0912A04D0912B04C730D105A0
:101CB00009F0F7C00E949E04C0912A04D0912B0421
:101CC000C730D1050CF074C0FE01EE0FFF1FEE5AB5
:101CD000FB4F80819181019709F060C005C081911F
:101CE0009191019709F05FC0C730D10508F051C04C
:101CF000FE01E55CFF4F0C94F32681E991E00E9420
:101D0000720681E090E0909313048093120441C026
:101D100082EA91E00E94720681E090E090931304C1
:101D20008093120436C083EB91E00E94720681E03A
:101D300090E090931304809312042BC084EC91E004
:101D40000E94720681E090E0909313048093120445
:101D500020C085ED91E00E94720681E090E09093B2
:101D600013048093120415C086EE91E00E9472065F
:101D700081E090E090931304809312040AC087EFEF
:101D800091E00E94720681E090E0909313048093AA
:101D90001204D0932B04C0932A040AC0FE01EE0F54
:101DA000FF1FEC5AFB4F2196C730D1050CF497CF9B
:101DB0008091120490911304892B31F40E949E04A7
:101DC00010922B0410922A04809112049091130413
:101DD000019711F40E94B5031D9B0AC08091CE03A8
:101DE000811106C081E08093CE031D995FC007C0BA
:101DF0001D995CC08091CE03813009F057C041E04D
:101E000060E070E880E090E00E94AE141092CE0393
:101E1000E0912A04F0912B04CF01019690932B04BA
:101E200080932A04DC01AA0FBB1FAE5ABB4F2D9131
:101E30003C91232B49F5873091055CF012C021912C
:101E400031912130310549F490932B0480932A0479
:101E500008C0EE0FFF1FEA5AFB4F0196873091052D
:101E600071F780912A0490912B04089724F0109226
:101E70002B0410922A042FEF89EF90E0215080402C
:101E80009040E1F700C0000040E060E070E880E0D2
:101E900090E00E94AE140AC0C730D1050CF40ECEFB
:101EA00087CEC730D1050CF40FCF88CFDF91CF910B
:101EB0000895CF93DF9380919003909191038D309B
:101EC000910509F01AC3C8E6D4E02A8D3B8D8091B4
:101ED0002C0490912D04822B932B2C893D89220F69
:101EE000331F220F331F220F331F822B932B2E8978
:101EF0003F89220F331F220F331F822B932B288DF4
:101F0000398D220F331F822B932B90932D048093B6
:101F10002C0408C0299A459A8091900390919103CE
:101F20000D9711F4299A459A80919003909191030D
:101F30000E9761F48091520490915304019721F01F
:101F4000809128048230B1F4299A459A80919003B7
:101F5000909191038D3091050CF4DBC2469711F4FA
:101F6000299A459A80919003909191034F9711F48B
:101F7000299A459A8091900390919103889711F442
:101F8000299A459A8091900390919103C19711F4F9
:101F9000299A459A8091900390919103CA9711F4E0
:101FA000299A459A809190039091910383349105E9
:101FB00011F4299A459A80919003909191038C3461
:101FC000910511F4299A459A80912C0490912D0441
:101FD0008230910509F46AC01CF4892B49F099C23A
:101FE0008330910509F47FC00E9709F41FC291C296
:101FF0008091900390919103099711F4299A459A41
:1020000080919003909191030D9711F4299A459A2C
:1020100080919003909191030E9761F48091520406
:1020200090915304019721F080912804823091F41B
:10203000299A459A8091900390919103469711F4C3
:10204000299A459A80919003909191034F9711F4AA
:10205000299A459A8091900390919103889711F461
:10206000299A459A8091900390919103C19711F418
:10207000299A459A8091900390919103CA9711F4FF
:10208000299A459A80919003909191038334910508
:1020900011F4299A459A80919003909191038C3480
:1020A000910509F036C2299A459A33C2809190036E
:1020B000909191030D9711F4299A459A809190037C
:1020C000909191030E9709F024C28091520490914F
:1020D0005304019729F080912804823009F019C235
:1020E000299A459A16C280919003909191030D9779
:1020F00011F4299A459A80919003909191030E973B
:1021000061F48091520490915304019721F08091E1
:102110002804823091F4299A459A809190039091F5
:102120009103469711F4299A459A809190039091D2
:1021300091034F9711F4299A459A809190039091B9
:102140009103889711F4299A459A80919003909170
:102150009103C19711F4299A459A80919003909127
:102160009103CA9711F4299A459A8091900390910E
:1021700091038334910511F4299A459A8091900333
:10218000909191038C34910511F4299A459A80918C
:102190009003909191039C012E5031092830310514
:1021A00020F525E130E0281B390B8091FB0390914D
:1021B000FC0302C0959587952A95E2F781709927CF
:1021C0002091C8033091C903822B932B9093C903AC
:1021D0008093C803019711F4299A459A8091C80306
:1021E0009091C903892B09F42998809190039091CB
:1021F00091034E97E1F480912804E82FE170F0E01C
:102200008091C8039091C903E82BF92BF093C9037F
:10221000E093C803E130F10509F073C1299A459AAA
:102220008091C8039091C903892B09F42998809162
:1022300090039091910382970297D0F48091F203DA
:10224000A82FA170B0E08091C8039091C903A82B7A
:10225000B92BB093C903A093C803119711F4299A1D
:10226000459A8091C8039091C903892B09F4299854
:10227000809190039091910384970497D8F4809172
:102280002804482F417050E08091C8039091C90301
:10229000482B592B5093C9034093C8034130510533
:1022A00011F4299A459A8091C8039091C903892B0A
:1022B00009F4299880919003909191038797E1F414
:1022C00080919605682F617070E08091C8039091AD
:1022D000C903682B792B7093C9036093C8036130DD
:1022E000710509F012C1299A459A8091C80390910D
:1022F000C903892B09F42998209190033091910307
:10230000C901C397069760F5809183039091840378
:1023100099230CF40396959587959595879549E3B0
:1023200050E0BA01621B730B02C0959587956A95C0
:10233000E2F7817099272091C8033091C903822B5D
:10234000932B9093C9038093C803019711F4299AA2
:10235000459A8091C8039091C903892B09F4299863
:1023600080919003909191039C012C533109273067
:10237000310520F522E430E0281B390B80918E03D3
:1023800090918F0302C0959587952A95E2F7817009
:1023900099272091C8033091C903822B932B9093E6
:1023A000C9038093C803019711F4299A459A809133
:1023B000C8039091C903892B09F4299820919003AF
:1023C00030919103C90185549109079708F0A1C084
:1023D000809180039091810399230CF40396959545
:1023E0008795959587954BE450E0BA01621B730B76
:1023F00002C0959587956A95E2F78170992720919B
:10240000C8033091C903822B932B9093C903809307
:10241000C803019711F4299A459A8091C8039091B5
:10242000C903892B09F075C0299873C08091900366
:10243000909191030D9711F4299A459A80919003F8
:10244000909191034E9711F4299A459A80919003A7
:10245000909191038D9711F4299A459A8091900358
:10246000909191038E9709F054C08091AE049091A1
:10247000AF04019779F48091BC049091BD04019759
:1024800049F441E060E070E880E090E00E94AE1422
:10249000109228048091B0049091B104019779F4CE
:1024A0008091BE049091BF04019749F440E060E040
:1024B00070E880E090E00E94AE14109228048091B1
:1024C000B4049091B504019749F48091C2049091AD
:1024D000C304019719F481E0809328048091B20429
:1024E0009091B3040197A9F48091C0049091C10424
:1024F000019779F4109228040CC0099709F014CDC3
:1025000009CDEF2B09F492CED5CE672B09F4F3CE8B
:1025100055CFDF91CF91089523B1822F817090E044
:1025200090934F0480934E048130910509F02AC1A5
:102530008091FE0381115DC18091FF0390910004A1
:102540009C01295031092230310528F410920004F1
:102550001092FF032EC04297039738F481E090E079
:10256000909300048093FF0342C08091FF039091F9
:1025700000044B970897E8F482E090E09093000401
:102580008093FF0310929103109290031092A8037E
:102590001092A7031092D7031092D60310922D0425
:1025A00010922C0420E030E090936904809368043A
:1025B00082C08091FF0390910004893E9340BCF05B
:1025C00010929103109290031092A8031092A70307
:1025D0001092D7031092D60310922D0410922C045F
:1025E00010922804109269041092680474C020911B
:1025F000900330919103F901EE0FFF1FE859FB4F53
:102600008091FF03909100049183808328303105ED
:1026100009F051C0E8E6F4E0208931898091D603C1
:102620009091D703822B932B2481358100243695FA
:1026300027950794369527950794322F202D822BC6
:10264000932B26813781220F331F22953295307FBD
:102650003227207F3227822B932B208531852295AC
:102660003295307F3227207F3227822B932B228591
:102670003385220F331F220F331F220F331F822B6C
:10268000932B24853585220F331F220F331F822B76
:10269000932B26853785220F331F822B932B909304
:1026A000D7038093D603009709F09AC01092D903FC
:1026B0001092D80395C04091D6035091D7038091D2
:1026C0003004909131044817590729F42830310516
:1026D00014F00E94590F81E08093FE03109234049D
:1026E000109200041092FF031092C9031092C803C5
:1026F00080916A0490916B04019711F580916C04AC
:1027000090916D04892BE1F4809190039091910355
:102710000297B1F48091D8039091D90301969093D8
:10272000D9038093D803209130043091310482176B
:10273000930731F49093D7038093D603299A459A4F
:1027400080919003909191030196909391038093CF
:10275000900380914E0490914F048130910509F4CB
:1027600048C010C08091D2039091D30301969093FA
:10277000D3038093D20380914E0490914F04892B10
:10278000E9F00895892BD1F580913404811116C0A8
:102790002998459881E0809334041092FE031092AA
:1027A000D3031092D2031092A8031092A703809132
:1027B0004E0490914F04892B29F0089580913404A0
:1027C0008130E1F41092D3031092D2038091FF0381
:1027D000909100040196909300048093FF03089564
:1027E00020913004309131048217930709F073CFA0
:1027F00070CF8091FE03813009F4B4CF08958091A9
:102800009803813009F0A9C0809116048111A5C0F8
:102810008091DC039091DD0301969093DD0380931A
:10282000DC0368E572E00E94DF267093A2036093E8
:10283000A10310921804109217048091DB038111F8
:1028400032C086E00E94E20090931804809317043F
:10285000865F9140459738F58091DB03811123C055
:102860002091DC033091DD03809135049091360492
:10287000A901481B590B4A3451050CF46AC0309326
:1028800036042093350481E08093DB0310929F038C
:1028900010929E031092920340E060E870E080E0A6
:1028A00090E00E94AE148091DC039091DD032091B2
:1028B000350430913604821B930B8E3491051CF045
:1028C0001092DB0334C08091DB03813081F52091CD
:1028D0009E0330919F032F5F3F4F30939F032093C0
:1028E0009E034091A1035091A2038FE490E0841BCA
:1028F000950B90939403809393032817390771F4F1
:102900008091920381110AC041E060E870E080E0AC
:1029100090E00E94AE1481E08093920380919E0328
:1029200090919F038A34910514F01092DB038091FB
:10293000DC039091DD0386349C457CF081E080933C
:10294000160441E060E870E080E090E00E94AE1480
:1029500008954E3451055CF3B3CF08950F931F9340
:102960004130B9F4009187031091880320918903C5
:1029700030918A03DC01CB01802B912BA22BB32B4E
:102980008093870390938803A0938903B0938A036D
:102990001AC0009187031091880320918903309118
:1029A0008A03DC01CB0180959095A095B09580239A
:1029B0009123A223B3238093870390938803A0934A
:1029C0008903B0938A035B985C9880918703909108
:1029D0008803A0918903B0918A0397FF02C05A9A95
:1029E00001C05A985C9A5C98809187039091880303
:1029F000A0918903B0918A0396FF02C05A9A01C040
:102A00005A985C9A5C988091870390918803A09172
:102A10008903B0918A0395FF02C05A9A01C05A985F
:102A20005C9A5C988091870390918803A0918903B8
:102A3000B0918A0394FF02C05A9A01C05A985C9AD6
:102A40005C988091870390918803A0918903B0914D
:102A50008A0393FF02C05A9A01C05A985C9A5C9804
:102A60008091870390918803A0918903B0918A0394
:102A700092FF02C05A9A01C05A985C9A5C98809161
:102A8000870390918803A0918903B0918A0391FFF5
:102A900002C05A9A01C05A985C9A5C988091870348
:102AA00090918803A0918903B0918A0390FF02C09E
:102AB0005A9A01C05A985C9A5C98809187039091C9
:102AC0008803A0918903B0918A0387FF02C05A9AB4
:102AD00001C05A985C9A5C98809187039091880312
:102AE000A0918903B0918A0386FF02C05A9A01C05F
:102AF0005A985C9A5C988091870390918803A09182
:102B00008903B0918A0385FF02C05A9A01C05A987E
:102B10005C9A5C988091870390918803A0918903C7
:102B2000B0918A0384FF02C05A9A01C05A985C9AF5
:102B30005C988091870390918803A0918903B0915C
:102B40008A0383FF02C05A9A01C05A985C9A5C9823
:102B50008091870390918803A0918903B0918A03A3
:102B600082FF02C05A9A01C05A985C9A5C98809180
:102B7000870390918803A0918903B0918A0381FF14
:102B800002C05A9A01C05A985C9A5C988091870357
:102B900090918803A0918903B0918A0380FF02C0BD
:102BA0005A9A01C05A985C9A5B9A1F910F910895A6
:102BB000CF92DF92EF92FF92CF93DF931D9B48C09D
:102BC0008091FD03811144C080919F05833011F0F5
:102BD0000C947F2241E060E070E880E090E00E9489
:102BE000AE1480918A0590918B0590930404809394
:102BF00003048091A0058F5F8093A00581E08093FE
:102C0000FD032FEF30E782E0215030408040E1F7B4
:102C100000C0000060E080EC0E949C0588E092E02B
:102C20000E9472068091A0058B3028F083E080938B
:102C30009F051092A0056091A00580E090E00E94A1
:102C4000D30440E060E070E880E090E00E94AE14C1
:102C50001D9B39C08091FD03813011F00C947822C6
:102C600080918A0590918B05209103043091040492
:102C7000821B930B90938C0380938B03813A9F402C
:102C800014F40C94722241E060E070E880E090E07F
:102C90000E94AE1480918A0590918B059093040454
:102CA0008093030483E080939F051092A00560E069
:102CB00080E090E00E94D30440E060E070E880E0B3
:102CC00090E00E94AE141D9913C08091FD038130E5
:102CD00079F480919F05833059F41092FD033FEF02
:102CE00089EF90E0315080409040E1F700C0000053
:102CF0008091A005813009F0FDC060E080E80E946D
:102D00009C0589E192E00E94720660913204709104
:102D100033047250072E000C880B990B0E946F2809
:102D20002EEE34E045EB5FE30E94C52721EE3AE743
:102D300044E95FE30E9424290E9437287093C2036C
:102D40006093C10360E08BE80E949C0563E0809182
:102D5000C1039091C2030E94890660E080EC0E944A
:102D60009C058AE292E00E94720660E08EEC0E946E
:102D70009C0580910001909101016AE070E00E9441
:102D8000DF26CB0161E00E94890660E08FEC0E94A3
:102D90009C05809100019091010164E670E00E9421
:102DA000DF2661E00E9489061B9935C08091CE0321
:102DB000811131C041E060E070E880E090E00E9465
:102DC000AE14809100019091010102968932910523
:102DD0002CF4909301018093000104C01092010132
:102DE0001092000181E08093CE036091000183E0A6
:102DF00090E00E94D3042FEF39EF80E02150304063
:102E00008040E1F700C0000040E060E070E880E052
:102E100090E00E94AE141B9B1AC08091CE038130BB
:102E2000B1F441E060E070E880E090E00E94AE1410
:102E30001092CE038FE39CE90197F1F700C00000E8
:102E400040E060E070E880E090E00E94AE141C99E1
:102E500035C08091CE03811131C041E060E070E85F
:102E600080E090E00E94AE148091000190910101F9
:102E700002972AF0909301018093000106C088E236
:102E800090E0909301018093000181E08093CE0354
:102E90006091000183E090E00E94D3049FEF29EF4E
:102EA00030E0915020403040E1F700C0000040E0A9
:102EB00060E070E880E090E00E94AE141B9B1AC0B6
:102EC0008091CE038130B1F441E060E070E880E0B1
:102ED00090E00E94AE141092CE038FE39CE901971C
:102EE000F1F700C0000040E060E070E880E090E0B2
:102EF0000E94AE148091A005823009F0E6C060E027
:102F000080E80E949C0588E392E00E94720660E0DF
:102F100080EC0E949C0589E492E00E94720660E0C9
:102F20008CEC0E949C0583E592E00E94720682E090
:102F300090E00E94DB0490E09093250480932404A9
:102F400060E08AEC0E949C05809124049091250405
:102F50006AE070E00E94DF26CB0161E00E948906F2
:102F600060E08BEC0E949C058091240490912504E4
:102F700064E670E00E94DF2661E00E9489061B99EA
:102F800035C08091CE03811131C041E060E070E82E
:102F900080E090E00E94AE1480912404909125047A
:102FA0000196853191052CF4909325048093240497
:102FB00004C0109225041092240481E08093CE0373
:102FC0006091240482E090E00E94D3049FEF29EFF7
:102FD00030E0915020403040E1F700C0000040E078
:102FE00060E070E880E090E00E94AE141B9B1AC085
:102FF0008091CE038130B1F41092CE0341E060E0C5
:1030000070E880E090E00E94AE148FE39CE90197A5
:10301000F1F700C0000040E060E070E880E090E080
:103020000E94AE141C9935C08091CE03811131C02D
:1030300041E060E070E880E090E00E94AE14809192
:1030400024049091250401972AF0909325048093FD
:10305000240406C084E190E0909325048093240426
:1030600081E08093CE036091240482E090E00E948E
:10307000D3049FEF29EF30E0915020403040E1F73A
:1030800000C0000040E060E070E880E090E00E9456
:10309000AE141C9B1AC08091CE038130B1F4109203
:1030A000CE0341E060E070E880E090E00E94AE1462
:1030B0008FE39CE90197F1F700C0000040E060E079
:1030C00070E880E090E00E94AE148091A00583300B
:1030D00009F0C1C060E080E80E949C0588E592E0AC
:1030E0000E94720681E00E94E20090938103809327
:1030F000800360E08DEC0E949C058091800390919C
:1031000081036AE070E00E94DF26CB0162E00E944A
:10311000890660E08FEC0E949C058091800390916D
:10312000810364E670E00E94DF2661E00E94890668
:1031300080918603811108C060E080EC0E949C05AC
:1031400088E692E00E94720680918603813041F405
:1031500060E080EC0E949C0584E792E00E94720689
:103160001B995AC080919005811156C041E060E0E2
:1031700070E880E090E00E94AE1480918603811197
:1031800020C080919005811140C081E0809390051E
:103190008093860360E080EC0E949C0584E792E0C7
:1031A0000E9472066091860386E090E00E94D3043C
:1031B0009FEF20E732E0915020403040E1F700C01F
:1031C000000080918603813001F580919005811186
:1031D0001CC081E0809390051092860360E080EC33
:1031E0000E949C0588E692E00E9472066091860328
:1031F00086E090E00E94D3048FEF90E722E08150B8
:1032000090402040E1F700C0000040E060E070E83E
:1032100080E090E00E94AE141B9B1DC08091900541
:103220008130C9F441E060E070E880E090E00E9405
:10323000AE14109290053FEF80E792E0315080404D
:103240009040E1F700C0000040E060E070E880E0FE
:1032500090E00E94AE148091A005843009F0C1C0B6
:1032600060E080E80E949C0581E892E00E9472067E
:1032700082E00E94E200909384038093830360E0E5
:103280008DEC0E949C0580918303909184036AE0F9
:1032900070E00E94DF26CB0162E00E94890660E0B8
:1032A0008FEC0E949C05809183039091840364E6D7
:1032B00070E00E94DF2661E00E948906809185030C
:1032C000811108C060E080EC0E949C0588E692E0D5
:1032D0000E94720680918503813041F460E080ECA9
:1032E0000E949C0584E792E00E9472061B995AC0D6
:1032F00080919005811156C041E060E070E880E067
:1033000090E00E94AE1480918503811120C08091CD
:103310009005811140C081E08093900580938503E2
:1033200060E080EC0E949C0584E792E00E947206B7
:103330006091850387E090E00E94D3042FEF30E78F
:1033400082E0215030408040E1F700C000008091D1
:103350008503813001F58091900581111CC081E0C9
:10336000809390051092850360E080EC0E949C059C
:1033700088E692E00E9472066091850387E090E003
:103380000E94D3049FEF20E732E09150204030406C
:10339000E1F700C0000040E060E070E880E090E00D
:1033A0000E94AE141B9B1DC0809190058130C9F412
:1033B00041E060E070E880E090E00E94AE1410927E
:1033C00090058FEF90E722E0815090402040E1F798
:1033D00000C0000040E060E070E880E090E00E9403
:1033E000AE148091A005853009F0D4C181E190E050
:1033F0000E94DB04682F70E080E090E00E946D285E
:103400006B017C0160933704709338048093390416
:1034100090933A0420E030E040E752E40E94C02755
:1034200018160CF44AC020E030E040E251ECC7012D
:10343000B6010E941F2988230CF43FC060E080E899
:103440000E949C0581E992E00E94720660E080EC97
:103450000E949C0582EA92E00E94720660E08EEC77
:103460000E949C0520E030E040E251E46091370486
:10347000709138048091390490913A040E94C527D4
:103480000E943E28DC01CB0161E00E94890660E0D9
:103490008FEC0E949C0560913704709138048091F4
:1034A000390490913A040E943728CB0164E670E019
:1034B0000E94DF2661E00E948906C0903704D09008
:1034C0003804E0903904F0903A0420E030E040E71E
:1034D00052E4C701B6010E941F29181654F020E0DB
:1034E00030E040E251ECC701B6010E94C0278823BA
:1034F00084F460E080E80E949C0581EB92E00E94E9
:10350000720660E080EC0E949C0582EC92E00E94D2
:1035100072061B995DC08091CE03811159C041E0B4
:1035200060E070E880E090E00E94AE1480918A052F
:1035300090918B05909304048093030481E0809321
:10354000CE0320E030E040E050E460913704709119
:1035500038048091390490913A040E9454276B01F9
:103560007C0120E030E048E752E40E941F29181651
:103570004CF0C0923704D0923804E0923904F092B3
:103580003A0408C01092370410923804109239049B
:1035900010923A0460913704709138048091390494
:1035A00090913A040E943E2881E190E00E94D30469
:1035B0003FEF89EF90E0315080409040E1F700C04C
:1035C000000040E060E070E880E090E00E94AE140F
:1035D0001B9B1BC08091CE03813009F08CC741E05A
:1035E00060E070E880E090E00E94AE141092CE039C
:1035F0008FE39CE90197F1F700C0000040E060E034
:1036000070E880E090E00E94AE141B9950C0809159
:10361000CE03813009F04BC0C0918A05D0918B0553
:1036200080910304909104049E01281B390BC90169
:1036300030938C0320938B03813D9740C4F120E0AD
:1036400030E040E85FE36091370470913804809186
:10365000390490913A040E94542760933704709380
:1036600038048093390490933A04D0930404C093AF
:10367000030420E030E048E752E40E941F291816B6
:1036800044F41092370410923804109239041092C6
:103690003A04609137047091380480913904909114
:1036A0003A040E943E2881E190E00E94D3041C99D4
:1036B00055C080919005811151C041E060E070E8F3
:1036C00080E090E00E94AE1420E030E040E85FE34C
:1036D00060913704709138048091390490913A04D4
:1036E0000E9453276B017C0120E030E040E251EC66
:1036F0000E94C02788234CF0C0923704D09238042F
:10370000E0923904F0923A0408C010923704109203
:1037100038041092390410923A0481E080939005A5
:1037200060913704709138048091390490913A0483
:103730000E943E2881E190E00E94D3048FEF99EF30
:1037400020E0815090402040E1F700C0000040E0C0
:1037500060E070E880E090E00E94AE141C9B1AC00C
:10376000809190058130B1F441E060E070E880E044
:1037700090E00E94AE14109290058FE39CE90197AF
:10378000F1F700C0000040E060E070E880E090E009
:103790000E94AE148091A005863009F062C189E0D4
:1037A00090E00E94DB0490E09093510480935004D9
:1037B00020E030E046EC52E46091F5037091F603AE
:1037C0008091F7039091F8030E94C02718160CF41B
:1037D0003FC060E080E80E949C0581E992E00E9481
:1037E000720660E080EC0E949C0583ED92E00E94EE
:1037F000720660E08EEC0E949C0520E030E040E222
:1038000051E46091F5037091F6038091F703909174
:10381000F8030E94C5270E943E28DC01CB0161E02D
:103820000E94890660E08FEC0E949C056091F50380
:103830007091F6038091F7039091F8030E94372866
:10384000CB0164E670E00E94DF2661E00E948906F9
:1038500020E030E046EC52E46091F5037091F6030D
:103860008091F7039091F8030E941F29181684F4A1
:1038700060E080E80E949C0581EB92E00E94720665
:1038800060E080EC0E949C0582EE92E00E9472064D
:103890001B9955C08091CE03811151C041E060E079
:1038A00070E880E090E00E94AE1420E030E040E05C
:1038B00050E46091F5037091F6038091F7039091C5
:1038C000F8030E9454276B017C0120E030E048ECB3
:1038D00052E40E941F2918164CF0C092F503D092B2
:1038E000F603E092F703F092F80308C01092F50394
:1038F0001092F6031092F7031092F80381E0809380
:10390000CE036091F5037091F6038091F7039091D7
:10391000F8030E943E2882E190E00E94D3049FEFCA
:1039200029EF30E0915020403040E1F700C0000026
:1039300040E060E070E880E090E00E94AE141B9BE5
:103940001AC08091CE038130B1F41092CE0341E0D1
:1039500060E070E880E090E00E94AE148FE39CE9A4
:103960000197F1F700C0000040E060E070E880E0FF
:1039700090E00E94AE141C9958C08091900581116E
:1039800054C041E060E070E880E090E00E94AE1436
:1039900020E030E040E85FE36091F5037091F603CA
:1039A0008091F7039091F8030E9453276B017C01EB
:1039B00020E030E0A9010E94C02788234CF0C0928B
:1039C000F503D092F603E092F703F092F8030CC0EF
:1039D00080E090E0A8ECB2E48093F5039093F603C6
:1039E000A093F703B093F80381E080939005609172
:1039F000F5037091F6038091F7039091F8030E940C
:103A00003E2882E190E00E94D3049FEF29EF30E04E
:103A1000915020403040E1F700C0000040E060E0FD
:103A200070E880E090E00E94AE141C9B1AC0809168
:103A300090058130B1F441E060E070E880E090E012
:103A40000E94AE14109290058FE39CE90197F1F764
:103A500000C0000040E060E070E880E090E00E947C
:103A6000AE148091A005873009F07CC1C090370466
:103A7000D0903804E0903904F0903A0420E030E02F
:103A800044E752E4C701B6010E941F2988231CF0B5
:103A900088E08093A00520E030E040EB50E46091A6
:103AA0008C0570918D0580918E0590918F050E94F7
:103AB000C0271816CCF120E030E044E752E4C701FB
:103AC000B6010E94C02788237CF560E080E80E9450
:103AD0009C0583EF92E00E94720660E080EC0E94F9
:103AE0009C0580918F058F9380918E058F93809197
:103AF0008D058F9380918C058F9384E093E09F9345
:103B00008F9381EB93E09F938F930E94BB2A81EB6D
:103B100093E00E9472062DB73EB7285F3F4F0FB665
:103B2000F8943EBF0FBE2DBF20E030E040EB50E4E4
:103B300060918C0570918D0580918E0590918F0517
:103B40000E941F29181644F410928C0510928D05BE
:103B500010928E0510928F051B9974C08091CE0330
:103B6000811170C041E060E070E880E090E00E9468
:103B7000AE142DEC3CEC4CEC5DE360918C05709147
:103B80008D0580918E0590918F050E9454276B01C1
:103B90007C0120E030E040EB50E40E941F29181621
:103BA0004CF0C0928C05D0928D05E0928E05F0927B
:103BB0008F0508C010928C0510928D0510928E050D
:103BC00010928F0581E08093CE0360918C057091F7
:103BD0008D0580918E0590918F050E943728262FA4
:103BE00060939B0570939C05862F972F880F991FD4
:103BF000AC01440F551F440F551F840F951F6AE0F9
:103C000070E00E94DF2690939D0380939C03622FB7
:103C100083E190E00E94D30460919C0384E190E0F2
:103C20000E94D3043FEF89EF90E0315080409040F4
:103C3000E1F700C0000040E060E070E880E090E064
:103C40000E94AE141B9B1AC08091CE038130B1F448
:103C50001092CE0341E060E070E880E090E00E94C6
:103C6000AE148FE39CE90197F1F700C0000040E03B
:103C700060E070E880E090E00E94AE141C9956C0AD
:103C800080919005811152C041E060E070E880E0D1
:103C900090E00E94AE142DEC3CEC4CEC5DE36091A6
:103CA0008C0570918D0580918E0590918F050E94F5
:103CB00053276B017C0120E030E0A9010E94C0275E
:103CC00088234CF0C0928C05D0928D05E0928E0531
:103CD000F0928F050CC083E393E3A3EBB0E48093F1
:103CE0008C0590938D05A0938E05B0938F0581E090
:103CF0008093900560919B0583E190E00E94D3043E
:103D000060919C0384E190E00E94D3049FEF29EF2F
:103D100030E0915020403040E1F700C0000040E02A
:103D200060E070E880E090E00E94AE141C9B1AC036
:103D3000809190058130B1F441E060E070E880E06E
:103D400090E00E94AE14109290058FE39CE90197D9
:103D5000F1F700C0000040E060E070E880E090E033
:103D60000E94AE148091A005883009F07CC1C090FB
:103D7000F503D090F603E090F703F090F80320E00D
:103D800030E048EC52E4C701B6010E941F298823A5
:103D90001CF089E08093A00520E030E040E251E48F
:103DA0006091A3037091A4038091A5039091A60351
:103DB0000E94C0271816CCF120E030E048EC52E415
:103DC000C701B6010E94C02788237CF560E080E827
:103DD0000E949C0583EF92E00E94720660E080ECF6
:103DE0000E949C058091A6038F938091A5038F93D9
:103DF0008091A4038F938091A3038F9389E193E033
:103E00009F938F9381EB93E09F938F930E94BB2AA4
:103E100081EB93E00E9472062DB73EB7285F3F4FBB
:103E20000FB6F8943EBF0FBE2DBF20E030E040E259
:103E300051E46091A3037091A4038091A503909134
:103E4000A6030E941F29181644F41092A30310928F
:103E5000A4031092A5031092A6031B9974C080912D
:103E6000CE03811170C041E060E070E880E090E036
:103E70000E94AE1420E030E040E05FE36091A303D5
:103E80007091A4038091A5039091A6030E945427EA
:103E90006B017C0120E030E040E251E40E941F29E8
:103EA00018164CF0C092A303D092A403E092A5038D
:103EB000F092A60308C01092A3031092A4031092DC
:103EC000A5031092A60381E08093CE036091A30323
:103ED0007091A4038091A5039091A6030E943728B6
:103EE000262F6093F3037093F403862F972F880F88
:103EF000991FAC01440F551F440F551F840F951F88
:103F00006AE070E00E94DF269093C4038093C303AD
:103F1000622F85E190E00E94D3046091C30386E1A3
:103F200090E00E94D3043FEF89EF90E03150804051
:103F30009040E1F700C0000040E060E070E880E001
:103F400090E00E94AE141B9B1AC08091CE0381307A
:103F5000B1F41092CE0341E060E070E880E090E0C0
:103F60000E94AE148FE39CE90197F1F700C00000B6
:103F700040E060E070E880E090E00E94AE141C99A0
:103F800056C080919005811152C041E060E070E818
:103F900080E090E00E94AE1420E030E040E05FE37B
:103FA0006091A3037091A4038091A5039091A6034F
:103FB0000E9453276B017C0120E030E0A9010E94A0
:103FC000C02788234CF0C092A303D092A403E092B0
:103FD000A503F092A6030CC080E090E0A0E2B1E45B
:103FE0008093A3039093A403A093A503B093A60387
:103FF00081E0809390056091F30385E190E00E9459
:10400000D3046091C30386E190E00E94D3049FEF44
:1040100029EF30E0915020403040E1F700C000002F
:1040200040E060E070E880E090E00E94AE141C9BED
:104030001AC0809190058130B1F441E060E070E8F1
:1040400080E090E00E94AE14109290058FE39CE90E
:104050000197F1F700C0000040E060E070E880E008
:1040600090E00E94AE148091A005893009F003C150
:104070008091300490913104803891057CF560E0A6
:1040800080E80E949C058CE293E00E94720660E04A
:1040900080EC0E949C058CE092E00E94720660E039
:1040A0008CEC0E949C0580913004909131046AE070
:1040B00070E00E94DF26CB0162E00E94890660E08A
:1040C0008EEC0E949C05809130049091310464E64E
:1040D00070E00E94DF2661E00E9489068091300432
:1040E000909131048038910581F460E080E80E946D
:1040F0009C058DE393E00E94720660E080EC0E94D4
:104100009C058EE493E00E9472061B993DC080914D
:10411000CE03811139C041E060E070E880E090E0BA
:104120000E94AE14809130049091310401969093D6
:10413000310480933004813891052CF010923104C1
:104140001092300408C0992334F48FE790E09093E4
:1041500031048093300481E08093CE036091300479
:1041600080E190E00E94D3049FEF29EF30E091506E
:1041700020403040E1F700C0000040E060E070E81F
:1041800080E090E00E94AE141B9B1AC08091CE0389
:104190008130B1F41092CE0341E060E070E880E03D
:1041A00090E00E94AE148FE39CE90197F1F700C004
:1041B000000040E060E070E880E090E00E94AE1413
:1041C0001C993DC08091CE03811139C041E060E06F
:1041D00070E880E090E00E94AE14809130049091ED
:1041E0003104019790933104809330048138910514
:1041F0002CF0109231041092300408C0992334F44A
:104200008FE790E0909331048093300481E08093B5
:10421000CE036091300480E190E00E94D3049FEFD0
:1042200029EF30E0915020403040E1F700C000001D
:1042300040E060E070E880E090E00E94AE141C9BDB
:104240001AC08091CE038130B1F41092CE0341E0C8
:1042500060E070E880E090E00E94AE148FE39CE99B
:104260000197F1F700C0000040E060E070E880E0F6
:1042700090E00E94AE148091A0058A3009F044C1FC
:1042800060E080E80E949C058FE593E00E94720642
:1042900060E080EC0E949C05C2E5D4E061E088818A
:1042A00099810E94890660E081EC0E949C0561E092
:1042B0008A819B810E94890660E082EC0E949C05B5
:1042C00061E08C819D810E94890660E083EC0E9400
:1042D0009C0561E08E819F810E94890660E084ECEC
:1042E0000E949C0561E0888599850E94890660E0AE
:1042F00085EC0E949C0561E08A859B850E94890669
:1043000060E086EC0E949C0561E08C859D850E94A2
:10431000890660E087EC0E949C0561E08E859F85A0
:104320000E94890660E088EC0E949C0561E0888913
:1043300099890E9489061C9908C08091CE03811139
:10434000DCC081E08093CE03D8C01B995CC0809113
:10435000CE03811158C080918A0590918B0590936E
:1043600004048093030441E060E070E880E090E0A2
:104370000E94AE1441E060E470E080E090E00E94B2
:10438000AE1441E060E071E080E090E00E94AE1485
:1043900041E060E074E080E090E00E94AE1441E013
:1043A00060E078E080E090E00E94AE1441E060E0E0
:1043B00072E080E090E00E94AE1441E060E070E2C4
:1043C00080E090E00E94AE1441E060E070E480E0A4
:1043D00090E00E94AE1441E060E070E180E090E087
:1043E0000E94AE1481E0809398039FEF23ED30E3A9
:1043F000915020403040E1F700C000008093CE0390
:104400001B9908C081C01B9B7FC08091CE03813067
:1044100009F07AC080918A0590918B052091030460
:1044200030910404821B930B90938C0380938B0335
:10443000813797410CF468C041E060E070E880E0AB
:1044400090E00E94AE148FE39CE90197F1F700C061
:10445000000040E060E470E080E090E00E94AE1474
:1044600040E060E870E080E090E00E94AE1440E040
:1044700060E071E080E090E00E94AE1440E060E017
:1044800074E080E090E00E94AE1440E060E078E0EC
:1044900080E090E00E94AE1440E060E072E080E0D6
:1044A00090E00E94AE1440E060E070E280E090E0B6
:1044B0000E94AE1440E060E070E480E090E00E9472
:1044C000AE1440E060E070E180E090E00E94AE1445
:1044D00040E060E070E880E090E00E94AE1410924E
:1044E000CE0312C01D9902C00C9469160C94781664
:1044F00083B10C94781683B1DAC883B184CF1D9947
:1045000002C00C946316F4CFDF91CF91FF90EF902F
:10451000DF90CF9008950F931F93CF93DF9360E0C8
:1045200080EC0E949C0580E793E00E9472066091F7
:104530004704709148047250072E000C880B990BA9
:104540000E946F282EEE34E045EB5FE30E94C52702
:1045500021EE3AE744E95FE30E9424290E943728CC
:1045600070939A056093990560E081EC0E949C0528
:104570008091990590919A050AE010E0B8010E9497
:10458000DF26CB0162E00E94890660E083EC0E9496
:104590009C058091990590919A05C4E6D0E0BE01F2
:1045A0000E94DF2661E00E9489060E94F80060E018
:1045B00084EC0E949C0582E793E00E947206609161
:1045C000CC037091CD037250072E000C880B990B11
:1045D0000E946F282EEE34E045EB5FE30E94C52772
:1045E00021EE3AE744E95FE30E9424290E9437283C
:1045F000709302046093010460E087EC0E949C05C4
:104600008091010490910204B8010E94DF26CB0141
:1046100062E00E94890660E089EC0E949C0580911E
:10462000010490910204BE010E94DF2661E00E9415
:1046300089060E94F80060E08AEC0E949C0586E7EB
:1046400093E00E94720660913204709133047250BC
:10465000072E000C880B990B0E946F282EEE34E079
:1046600045EB5FE30E94C52721EE3AE744E95FE3AB
:104670000E9424290E9437287093C2036093C103CB
:1046800060E08DEC0E949C058091C1039091C20373
:10469000B8010E94DF26CB0162E00E94890660E03B
:1046A0008FEC0E949C058091C1039091C203BE01D2
:1046B0000E94DF2661E00E948906DF91CF911F9161
:1046C0000F910895A0E1B0E0E8E6F3E20C9408272A
:1046D0007C011B016A01FC0117821682838181FF24
:1046E00044C39E012F5F3F4F3901F7019381F101D0
:1046F00093FD859193FF81911F01882309F431C3B4
:10470000853239F493FD859193FF81911F018532A4
:1047100039F4B70190E00E947F2A56016501E5CF88
:1047200010E0512C912CFFE1F915D8F08B3279F083
:1047300038F4803279F08332A1F4F92DF0612EC083
:104740008D3261F0803369F4292D21602DC0392D1F
:104750003260932E892D8460982E2AC0E92DE8605E
:1047600015C097FC2DC020ED280F2A3088F496FE46
:1047700006C03AE0139F200D1124122F19C08AE0C1
:10478000589E200D1124522EE92DE0629E2E10C05D
:104790008E3231F496FCE5C2F92DF0649F2E08C0EC
:1047A0008C3621F4292D2068922E02C0883641F4DF
:1047B000F10193FD859193FF81911F018111B3CF89
:1047C0009BEB980F933020F4992D9061805E07C089
:1047D0009BE9980F933008F066C1992D9F7E96FF54
:1047E00016E09F73992E853619F49064992E08C0AF
:1047F000863621F4392F3068932E02C011111150E2
:1048000097FE07C01C3350F444244394410E27E024
:104810000BC0183038F027E017E005C027E09CE314
:10482000492E02C0212F412C560184E0A80EB11C54
:10483000F6016081718182819381042DA3010E9420
:1048400091296C01F981FC87F0FF02C0F3FF06C0DB
:1048500091FC06C092FE06C000E205C00DE203C056
:104860000BE201C000E08C858C7019F001115AC276
:104870009BC297FE10C04C0CFC85F4FF04C08A81DB
:10488000813309F44A94141474F528E0241578F55A
:1048900088E0482E2CC096FC2AC0812F90E08C1511
:1048A0009D059CF03CEFC3163FEFD30674F0892DB5
:1048B0008068982E0AC0E2E0F0E0EC0FFD1FE10FE7
:1048C000F11D8081803319F411501111F4CF97FE3E
:1048D0000EC044244394410E812F90E0C816D9069F
:1048E0002CF41C1904C04424439401C010E097FE2A
:1048F00006C01C141D0434F4C601019605C085E0F1
:1049000090E002C081E090E001110196112331F0A6
:10491000212F30E02F5F3F4F820F931F252D30E076
:104920008217930714F4581A01C0512C892D8970ED
:1049300049F4552039F0B70180E290E00E947F2AC7
:104940005A94F7CF002329F0B701802F90E00E94FE
:104950007F2A93FC09C0552039F0B70180E390E02D
:104960000E947F2A5A94F7CF97FE4CC04601D7FE8B
:1049700002C0812C912CC60188199909F301E80F16
:10498000F91FFE87ED87960124193109388B2F878F
:10499000012F10E01195019511093FEF8316930641
:1049A00029F4B7018EE290E00E947F2AC814D9044E
:1049B0004CF08F8598898815990524F4ED85FE853E
:1049C000818101C080E3F1E08F1A91082D853E8539
:1049D0002F5F3F4F3E872D87801691062CF0B70141
:1049E00090E00E947F2AD9CFC814D90441F49A815B
:1049F000963320F4953319F43C8534FF81E3B701F5
:104A000090E04EC08A81813319F09C859F7E9C87FF
:104A1000B70190E00E947F2A111105C094FC18C0D4
:104A200085E690E017C0B7018EE290E00E947F2AF1
:104A30001E5F82E001E0080FF301E80FF11D8081A5
:104A4000B70190E00E947F2A802F0113F3CFE6CFB9
:104A500085E490E0B7010E947F2AD7FC06C0C1140C
:104A6000D10441F4EC85E4FF05C0D194C194D10890
:104A70008DE201C08BE2B70190E00E947F2A80E3C3
:104A80002AE0C216D1042CF08F5FFAE0CF1AD108C9
:104A9000F7CFB70190E00E947F2AB701C601C09608
:104AA0000E947F2A54C1833631F0833779F08335F1
:104AB00009F056C020C0560132E0A30EB11CF60129
:104AC0008081898301E010E0630112C05601F2E0A9
:104AD000AF0EB11CF601C080D18096FE03C0612FDD
:104AE00070E002C06FEF7FEFC6010E94742A8C0154
:104AF000F92DFF7714C0560122E0A20EB11CF60179
:104B0000C080D18096FE03C0612F70E002C06FEFBD
:104B10007FEFC6010E94692A8C01F92DF0689F2E53
:104B2000F3FD1AC0852D90E008171907A8F4B70106
:104B300080E290E00E947F2A5A94F4CFF60197FC1D
:104B4000859197FE81916F01B70190E00E947F2AC5
:104B500051105A94015011090115110579F7F7C048
:104B6000843611F0893661F5560197FE09C024E0BC
:104B7000A20EB11CF60160817181828193810AC00D
:104B8000F2E0AF0EB11CF60160817181072E000CBE
:104B9000880B990BF92DFF769F2E97FF09C09095F2
:104BA0008095709561957F4F8F4F9F4FF0689F2E36
:104BB0002AE030E0A3010E94DD2AC82EC6183FC0BB
:104BC000092D853721F40F7E2AE030E01DC0097FD2
:104BD0008F3691F018F4883559F0C3C0803719F03A
:104BE000883711F0BEC0006104FF09C0046007C02F
:104BF00094FE08C0066006C028E030E005C020E151
:104C000030E002C020E132E0560107FF09C084E035
:104C1000A80EB11CF601608171818281938108C068
:104C2000F2E0AF0EB11CF6016081718180E090E08E
:104C3000A3010E94DD2AC82EC6180F77902E96FE7B
:104C40000BC0092D0E7FC11650F494FE0AC092FCD1
:104C500008C0092D0E7E05C0DC2C092D03C0DC2CFC
:104C600001C0D12E04FF0DC0FE01EC0DF11D8081AD
:104C7000803311F4097E09C002FF06C0D394D39497
:104C800004C0802F867809F0D39403FD11C000FF83
:104C900006C01C2DD51480F4150D1D190DC0D5149A
:104CA00058F4B70180E290E00E947F2AD394F7CFB6
:104CB000D51410F45D1801C0512C04FF10C0B701C9
:104CC00080E390E00E947F2A02FF17C001FD03C02D
:104CD00088E790E002C088E590E0B7010CC0802F23
:104CE000867859F001FF02C08BE201C080E207FD27
:104CF0008DE2B70190E00E947F2AC11638F4B70117
:104D000080E390E00E947F2A1150F7CFCA94F3010C
:104D1000EC0DF11D8081B70190E00E947F2AC11047
:104D2000F5CF15C0F4E0F51560F584E0581A93FE50
:104D30001FC0011127C02C8523FF2AC004E810E002
:104D4000392D3071932EF8018491811124C05520A2
:104D500009F4E4CCB70180E290E00E947F2A5A94E3
:104D6000F6CFF7018681978126C08FEF9FEF23C092
:104D7000B70180E290E00E947F2A5A945110F8CF48
:104D8000D8CF512CB701802F90E00E947F2AD3CF3B
:104D900008E810E0D5CF91108052B70190E00E9452
:104DA0007F2A0F5F1F4FCFCF23E0251510F483E03C
:104DB000BDCF512CC0CF6096E2E10C94242797FB25
:104DC000072E16F4009407D077FD09D00E943F27E4
:104DD00007FC05D03EF4909581959F4F08957095FE
:104DE00061957F4F0895EE0FFF1F0590F491E02D20
:104DF0000994A29FB001B39FC001A39F700D811DB4
:104E00001124911DB29F700D811D1124911D0895D3
:104E10002F923F924F925F926F927F928F929F92CA
:104E2000AF92BF92CF92DF92EF92FF920F931F93B8
:104E3000CF93DF93CDB7DEB7CA1BDB0B0FB6F89469
:104E4000DEBF0FBECDBF09942A88398848885F84A9
:104E50006E847D848C849B84AA84B984C884DF801A
:104E6000EE80FD800C811B81AA81B981CE0FD11DFE
:104E70000FB6F894DEBF0FBECDBFED010895AA1B9B
:104E8000BB1B51E107C0AA1FBB1FA617B70710F035
:104E9000A61BB70B881F991F5A95A9F78095909567
:104EA000BC01CD0108955058BB27AA270E946B274B
:104EB0000C94E5280E94D72838F00E94DE2820F0C4
:104EC00039F49F3F19F426F40C94D4280EF4E0959D
:104ED000E7FB0C94CE28E92F0E94F62858F3BA1766
:104EE000620773078407950720F079F4A6F50C9400
:104EF00018290EF4E0950B2EBA2FA02D0B01B90145
:104F000090010C01CA01A0011124FF27591B99F03F
:104F1000593F50F4503E68F11A16F040A22F232F4B
:104F2000342F4427585FF3CF469537952795A7959B
:104F3000F0405395C9F77EF41F16BA0B620B730B42
:104F4000840BBAF09150A1F0FF0FBB1F661F771FB3
:104F5000881FC2F70EC0BA0F621F731F841F48F468
:104F6000879577956795B795F7959E3F08F0B0CFF1
:104F70009395880F08F09927EE0F979587950895D8
:104F80000E94AA2808F481E008950E94D9270C9471
:104F9000E5280E94DE2858F00E94D72840F029F426
:104FA0005F3F29F00C94CE2851110C9419290C94D0
:104FB000D4280E94F62868F39923B1F3552391F37E
:104FC000951B550BBB27AA2762177307840738F078
:104FD0009F5F5F4F220F331F441FAA1FA9F335D0D5
:104FE0000E2E3AF0E0E832D091505040E695001C89
:104FF000CAF72BD0FE2F29D0660F771F881FBB1F43
:10500000261737074807AB07B0E809F0BB0B802D20
:10501000BF01FF2793585F4F3AF09E3F510578F04C
:105020000C94CE280C9419295F3FE4F3983ED4F3F6
:10503000869577956795B795F7959F5FC9F7880F20
:10504000911D9695879597F90895E1E0660F771F72
:10505000881FBB1F621773078407BA0720F0621B03
:10506000730B840BBA0BEE1F88F7E09508950E942E
:105070003E286894B1110C94192908950E94FE28C5
:1050800088F09F5798F0B92F9927B751B0F0E1F009
:10509000660F771F881F991F1AF0BA95C9F714C0B9
:1050A000B13091F00E941829B1E008950C941829AC
:1050B000672F782F8827B85F39F0B93FCCF38695F2
:1050C00077956795B395D9F73EF49095809570954F
:1050D00061957F4F8F4F9F4F0895E89409C097FBCC
:1050E0003EF490958095709561957F4F8F4F9F4FBF
:1050F0009923A9F0F92F96E9BB279395F695879503
:1051000077956795B795F111F8CFFAF4BB0F11F4C5
:1051100060FF1BC06F5F7F4F8F4F9F4F16C088236C
:1051200011F096E911C0772321F09EE8872F762FA2
:1051300005C0662371F096E8862F70E060E02AF0E3
:105140009A95660F771F881FDAF7880F96958795CF
:1051500097F90895990F0008550FAA0BE0E8FEEFA4
:1051600016161706E807F907C0F012161306E4072B
:10517000F50798F0621B730B840B950B39F40A2624
:1051800061F0232B242B252B21F408950A2609F402
:10519000A140A6958FEF811D811D089597F99F6706
:1051A00080E870E060E008959FEF80EC08950024AF
:1051B0000A941616170618060906089500240A947C
:1051C00012161306140605060895092E0394000C02
:1051D00011F4882352F0BB0F40F4BF2B11F460FF91
:1051E00004C06F5F7F4F8F4F9F4F089557FD9058BA
:1051F000440F551F59F05F3F71F04795880F97FB9B
:10520000991F61F09F3F79F0879508951216130654
:105210001406551FF2CF4695F1DF08C01616170683
:105220001806991FF1CF86957105610508940895B8
:10523000E894BB2766277727CB0197F908950E944A
:10524000AA2808F48FEF08950E9437290C94E528C6
:105250000E94D72838F00E94DE2820F0952311F014
:105260000C94CE280C94D42811240C9419290E9453
:10527000F62870F3959FC1F3950F50E0551F629F7C
:10528000F001729FBB27F00DB11D639FAA27F00D9F
:10529000B11DAA1F649F6627B00DA11D661F829FC6
:1052A0002227B00DA11D621F739FB00DA11D621FAB
:1052B000839FA00D611D221F749F3327A00D611DC8
:1052C000231F849F600D211D822F762F6A2F1124AA
:1052D0009F5750409AF0F1F088234AF0EE0FFF1FDD
:1052E000BB1F661F771F881F91505040A9F79E3F34
:1052F000510580F00C94CE280C9419295F3FE4F3FB
:10530000983ED4F3869577956795B795F795E79589
:105310009F5FC1F7FE2B880F911D9695879597F992
:105320000895283008F027E03327DA01990F311D5E
:1053300087FD916000966105710539F432602E5F3A
:105340003D9330E32A95E1F708959F3F30F0803890
:105350007105610509F03C5F3C5F3D93913008F0B9
:105360008068911DDF93CF931F930F93FF92EF926D
:10537000192F987F9695E92F96959695E90FFF2717
:10538000EA51FF4F99273327EE24FF24A701E701B5
:1053900005900894079428F4360FE71EF81E491F5D
:1053A000511D660F771F881F991F0694A1F705905E
:1053B000079428F4E70EF81E491F561FC11D770FEA
:1053C000881F991F661F0694A1F70590079428F47B
:1053D000F80E491F561FC71FD11D880F991F661F42
:1053E000771F0694A1F70590079420F4490F561FE4
:1053F000C71FD81F990F661F771F881F0694A9F72C
:1054000084911095177041F0D695C795579547959B
:10541000F794E7941A95C1F7ECE8F0E068941590DA
:10542000159135916591959105907FE27395E118FD
:10543000F10A430B560BC90BD009C0F7E10CF11E62
:10544000431F561FC91FD01D7EF4703311F48A9577
:10545000E6CFE894015030F0080F0AF40027021755
:1054600008F4202F2395022F7A3328F079E37D93D7
:105470002A95E9F710C07D932A9589F606949795A9
:105480006795379517951794E118F10A430B560B5A
:10549000C90BD00998F023957E9173957A3308F063
:1054A00070E37C932013B8F77E9170617D9330F0A8
:1054B000839571E37D9370E32A95E1F71124EF90D2
:1054C000FF900F911F91CF91DF91992787FD9095C4
:1054D0000895FC010590615070400110D8F7809547
:1054E00090958E0F9F1F0895FC01615070400190B0
:1054F0000110D8F7809590958E0F9F1F08950F93F8
:105500001F93CF93DF93FB01238121FD03C08FEF16
:105510009FEF2CC022FF16C0468157812481358120
:105520004217530744F4A081B1819D012F5F3F4F83
:10553000318320838C93268137812F5F3F4F3783C0
:10554000268314C08B01EC01FB010084F185E02D62
:105550000995892BE1F6D80116968D919C911797A4
:10556000019617969C938E931697CE01DF91CF915B
:105570001F910F910895AEE0B0E0E1ECFAE20C94D7
:1055800016270D891E8986E08C831A8309838FEF85
:105590009FE79E838D83AE01475E5F4F6F89788D55
:1055A000CE0101960E946223EF81F885E00FF11F82
:1055B00010822E96E4E00C943227FA01AA272830B4
:1055C00051F1203181F1E8946F936E7F6E5F7F4FD0
:1055D0008F4F9F4FAF4FB1E03ED0B4E03CD0670F4C
:1055E000781F891F9A1FA11D680F791F8A1F911D9F
:1055F000A11D6A0F711D811D911DA11D20D009F4EF
:1056000068943F912AE0269F11243019305D319330
:10561000DEF6CF010895462F4770405D4193B3E019
:105620000FD0C9F7F6CF462F4F70405D4A3318F0C0
:10563000495D31FD4052419302D0A9F7EACFB4E071
:10564000A6959795879577956795BA95C9F7009729
:105650006105710508959B01AC010A2E06945795CA
:10566000479537952795BA95C9F7620F731F841F21
:0A567000951FA01D0895F894FFCFC8
:10567A0005005061B26FBF6120B365BDBF2D706177
:10568A002020004142544F2020205045A3A54D2000
:10569A0020202000A87963BA20A441A85045E2A29C
:1056AA004820202000546D70252E3166432F486D06
:1056BA00252E31662525202000A8B8BF61BDB86512
:1056CA0020424BA7B0AB45484F00A461BE7963BAEC
:1056DA00204F544BA7B0ABA24820202020200050D6
:1056EA0079C0BD6FB9205045A3A54D2020202000C8
:1056FA005079C0BD6FB920A8A9434B20B365BDBF7F
:10570A00002143B8B4BD61BB20A84FA341505F211B
:10571A00200041B36170B8C720BEB8BF61BDB8C729
:10572A0020200041B36170B8C720B3786FE36120CD
:10573A00414C200041B36170B8C720B3786FE36170
:10574A00205053200041B36170B8C720333830422B
:10575A0020202020200041B36170B8C720BBB8BD0B
:10576A00B8B8204448540041B36170B8C720BABBE6
:10577A0061BE61BD61202000202020202020202041
:10578A002020202020202020004FBFBABB6FBD65FB
:10579A00BDB8652820202056290061BCBEBBB8BF11
:1057AA0079E32C422B2F2D00427065BCC720B3C36E
:1057BA00786FE3612020202000BD61207065B6B8B3
:1057CA00BC2C006365BA2E0054B8BE20E361BFC08A
:1057DA00B8BA61202D5053002D4E4F2D6FBFBA70AD
:1057EA00C3BF2D002D4E432DB761BCBABD79BF2D65
:1057FA000054B8BE20E361BFC0B8BA61202D414C45
:10580A00004D61BA63B8BC61BBC4BD61C72020202A
:10581A002000BF65BC2D70612C4320202020202051
:10582A00004B6FBDBF706FBBC420202020202020FA
:10583A002000BF65BCBE2D70C320202020204F54FD
:10584A004BA700B3BB61B6BD6F63BFC42020202045
:10585A002500B3BB61B6BD6F63BFB82020204F548B
:10586A004BA700A1B863BF657065B7B86320202055
:10587A0020202000546D702B2F2D202020252E3122
:10588A00664320202020202000486D2B2F2D202029
:10589A00252E316625252020202020005379737477
:1058AA00656D5F6164726573202020200041647217
:1058BA006573732064697361626C6520200020201F
:1058CA002020202020204F544BA720202020002DCC
:1058DA00544553542D544553542D544553542D0077
:0A58EA0055005F5F56005F5F570036
:04000003000027FED4
:00000001FF
