S010000056656E745F626F782E73726563CF
S11300000C94BC000C94D9000C94D9000C94D90025
S11300100C94D9000C94D9000C94D9000C941E08AB
S11300200C94D9000C94D9000C94D9000C944B086E
S11300300C94D9000C94D9000C94D9000C94D900D8
S11300400C94D9000C94D9000C94D9000C94D900C8
S11300500C94D9000C94D9000C94D9000C94D900B8
S11300600C94D9000C94D900BD0BC80BD30BDE0B38
S1130070E90BF40BFF0B6E616E00696E66000040C5
S11300807A10F35A00A0724E18090010A5D4E800A3
S113009000E87648170000E40B54020000CA9A3BBB
S11300A0000000E1F5050000809698000000404241
S11300B00F000000A08601000000102700000000CF
S11300C0E803000000006400000000000A000000D3
S11300D000000100000000002C76D888DC674F087F
S11300E023DFC1DFAE59E1B1B796E5E3E453C63A85
S11300F0E651997696E8E6C28426EB898C9B62EDFC
S1130100407C6FFCEFBC9C9F40F2BAA56FA5F490B5
S1130110055A2AF75C936B6CF9676DC11BFCE0E42C
S11301200D47FEF520E6B500D0ED902E0300943582
S113013077050080841E080000204E0A000000C8D5
S11301400C333333330F986E12831141EF8D211426
S1130150893BE65516CFFEE6DB18D1844B381BF7F6
S11301607C1D901DA4BBE424203284725E22810095
S1130170C9F124ECA1E53D2711241FBECFEFD8E03F
S1130180DEBFCDBF13E0A0E0B1E0E4E6F5E402C0D9
S113019005900D92A036B107D9F725E0A0E6B3E0AB
S11301A001C01D92AA35B207E1F70E9462080C94BF
S11301B0B0220C94000080937C00EAE7F0E0808198
S11301C080648083808186FDFDCFE8E7F0E0808154
S11301D02091790090E0922B91838083808191819A
S11301E008950F931F93CF93DF93109209041092F5
S11301F0080410929F0310929E031092F903109228
S1130200F803C5E9D0E000E012E083E00E94DB00DF
S113021090934D0580934C05209108043091090476
S1130220821793076CF0811522E092072CF09093CB
S113023009048093080404C010930904009308047B
S113024087E00E94DB0090938203809381032091D6
S11302509E0330919F03821793076CF0811522E06F
S113026092072CF090939F0380939E0304C01093F5
S11302709F0300939E0386E00E94DB009093A203F9
S11302808093A1032091F8033091F9038217930717
S11302906CF0811522E092072CF09093F90380937F
S11302A0F80304C01093F9030093F803219709F0AD
S11302B0ACCF8091080490910904DF91CF911F91F4
S11302C00F9108950F931F93CF93DF9341E060E064
S11302D071E080E090E00E9402110E94880B8091FE
S11302E0660381111DC08091EF0381111DC010921E
S11302F0630360E080E80E94280582E091E00E94A8
S1130300FE051092E20340E060E870E080E090E0D7
S11303100E9402111092EE031092ED0310926103F9
S113032080916603823029F08091EF03823009F0D6
S11303308CC081E08093610341E060E870E080E07C
S113034090E00E940211C091EB03D091EC03009164
S1130350ED031091EE0390916303913089F441E031
S113036060E074E080E090E00E94021160E080E8C8
S11303700E94280583E191E00E94FE051092E203A9
S11303804091ED035091EE032091EB033091EC0387
S11303904217530794F580916303811156C0C01B23
S11303A0D10B60E080E80E94280584E291E00E947D
S11303B0FE0560E08DE80E942805CE016AE070E049
S11303C00E94821ECB0162E00E94150660E08FE865
S11303D00E942805CE0164E670E00E94821E61E05E
S11303E00E9415062091ED033091EE038091EB03FA
S11303F09091EC032817390744F18091630381112C
S113040016C060E080E80E94280582E391E00E9423
S1130410FE0581E08093E2032091ED033091EE0329
S11304208091EB039091EC032817390774F08091C5
S11304306303823050F060E080E80E94280583E482
S113044091E00E94FE051092E2038FE39CE901977C
S1130450F1F700C00000DF91CF911F910F91089533
S1130460CF93DF93579A5F982FEF80EE90E021505F
S113047080409040E1F700C000005F9A579887ECF5
S113048090E00197F1F700C000004F9935C08FE369
S113049091E00197F1F700C000004F9B30C08091BC
S11304A04905809350054F99FECFA3EEB3E0C8EE03
S11304B0D3E061E070E0FD011C9287E090E04F9B87
S11304C0FECF2AE82A95F1F700C04F9B0AC040816D
S11304D09B01082E02C0220F331F0A94E2F7242B3B
S11304E020834F99FECF019750F71196CA17DB0767
S11304F011F781E090E005C080E090E002C080E068
S113050090E0DF91CF9108958F929F92AF92BF9226
S1130510DF92EF92FF920F931F93CF93DF9310928A
S113052071030E94300280937103813009F08AC004
S11305301092C4031092C303E3EEF3E06081C62F6C
S1130540D0E06181062F10E0D2806381E62EF12C89
S1130550CE01800F911F8D0D911D8E0D9F1D9093C7
S11305600304809302046D2D6F7770E080E090E0C7
S11305700E940D202DEC3CEC4CEC51E40E9499209F
S11305804B015C01B701FF0C880B990B0E940D20F5
S11305902DEC3CEC4CEC5DE30E9499209B01AC01FA
S11305A0C501B4010E94F71E4B015C016093D303A3
S11305B07093D4038093D5039093D6030E94D51FE0
S11305C07093730360937203DD209CF4B7FAB094C4
S11305D0B7F8B0948092D3039092D403A092D50339
S11305E0B092D6037195619571097093730360930A
S11305F07203B801110F880B990B0E940D202DEC8A
S11306003CEC4CEC5DE30E9499204B015C01BE0183
S1130610DD0F880B990B0E940D202DEC3CEC4CEC6B
S113062051E40E9499209B01AC01C501B4010E94D0
S1130630F71E6093CF037093D0038093D1039093FC
S1130640D20318C0811109C08091C3039091C403DF
S113065001969093C4038093C3038091C303909144
S1130660C4038536910534F084E690E09093C40386
S11306708093C30310925105DF91CF911F910F9185
S1130680FF90EF90DF90BF90AF909F908F90089570
S11306900E94840260E080EC0E9428058091D203CD
S11306A08F938091D1038F938091D0038F93809106
S11306B0CF038F938091D6038F938091D5038F932B
S11306C08091D4038F938091D3038F9384E591E039
S11306D09F938F9385E893E09F938F930E9430229A
S11306E085E893E00E94FE058DB79EB70C960FB681
S11306F0F8949EBF0FBE8DBF0895F999FECF92BDA9
S113070081BD60BDFA9AF99A0895F999FECF92BD18
S113071081BDF89A80B5089580E00E94DB00909333
S11307206803809367038E5492408F36910570F46A
S113073080916903813051F482E08093660341E043
S113074060E072E080E090E00E9402118091670313
S113075090916803805991408D3B910508F047C002
S11307602091690321113EC082E08093660341E039
S113077060E072E080E090E00E94021180916703E3
S113078090916803805991408F3521E0920718F0C9
S113079021E0209366038D3B910568F48091690301
S11307A0813049F41092660340E060E072E080E03A
S11307B090E00E94021180916703909168038E5427
S11307C092408F369105C0F480916903811114C061
S11307D01092660340E060E072E080E090E00E94E6
S11307E0021108958F3521E0920790F6D7CF8F3507
S11307F021E0920700F3CCCF089581E00E94DB0052
S113080090936503809364039C012E5432402F36E9
S1130810310508F0B8C080916A03813099F4809161
S11308206203813029F080916103813009F0D7C0DF
S113083081E08093630341E060E074E080E090E055
S11308400E94021180916403909165038059914044
S11308508D3B910508F0D4C080916A038111A5C035
S113086080916203813029F080916103813009F025
S113087091C081E08093630341E060E074E080E034
S113088090E00E94021180916403909165038E545C
S113089092408F369105B0F480916A03813091F4CF
S11308A0809162038111BEC0809161038111BAC03D
S11308B083E08093630341E060E074E080E090E0D3
S11308C00E940211809164039091650380599140C4
S11308D08D3B910508F07EC080916A0381116FC041
S11308E0809162038111A8C0809161038111A4C029
S11308F083E08093630341E060E074E080E090E093
S11309000E94021180916403909165038059914083
S11309108F35914050F082E08093630341E060E0C2
S113092078E080E090E00E9402118091640390914D
S11309306503805991408D3B910568F480916A0369
S1130940813049F41092630340E060E074E080E099
S113095090E00E94021180916403909165038E548B
S113096092408F36910508F072C080916A0381111C
S11309706EC01092630340E060E074E080E090E0B9
S11309800E9402110895805991408D3B910508F40D
S113099063CF41C080916403909165038059914075
S11309A08D3B910508F49CCF15C080916403909110
S11309B065038E5492408F36910508F46DCF809173
S11309C0640390916503805991408F35914008F4F8
S11309D0B5CFA1CF8F35914008F4BDCF9CCF809186
S11309E0640390916503805991408D3B9105E8F231
S11309F04ACF809164039091650380599140EACF76
S1130A0080916403909165038E5492408F369105D2
S1130A1008F442CFEECF809164039091650380592E
S1130A209140D8CF8091640390916503805991409F
S1130A308D3B910520F2CECF8091640390916503A4
S1130A40805991408F35914008F485CF64CF089543
S1130A50CF93C82F613041F441E061E070E080E061
S1130A6090E00E94021107C040E061E070E080E085
S1130A7090E00E94021141E062E070E080E090E0CA
S1130A800E940211C4FF08C041E064E070E080E00D
S1130A9090E00E94021107C040E064E070E080E052
S1130AA090E00E940211C5FF08C041E068E070E0D8
S1130AB080E090E00E94021107C040E068E070E02E
S1130AC080E090E00E940211C6FF08C041E060E1AE
S1130AD070E080E090E00E94021107C040E060E115
S1130AE070E080E090E00E940211CC2344F441E0E5
S1130AF060E270E080E090E00E94021107C040E0F4
S1130B0060E270E080E090E00E94021140E062E068
S1130B1070E080E090E00E9402118FE39FE1019772
S1130B20F1F700C0000041E062E070E080E090E096
S1130B300E940211C0FF08C041E064E070E080E060
S1130B4090E00E94021107C040E064E070E080E0A1
S1130B5090E00E940211C1FF08C041E068E070E02B
S1130B6080E090E00E94021107C040E068E070E07D
S1130B7080E090E00E940211C2FF08C041E060E101
S1130B8070E080E090E00E94021107C040E060E164
S1130B9070E080E090E00E940211C3FF08C041E0D1
S1130BA060E270E080E090E00E94021107C040E043
S1130BB060E270E080E090E00E94021140E062E0B8
S1130BC070E080E090E00E9402118FE39FE10197C2
S1130BD0F1F700C00000CF91089560E082E00E9428
S1130BE0280560E088E20E94280560E08CE00E940D
S1130BF0280560E081E00E94280508950F931F9363
S1130C00CF93FC018081882361F08F01C0E0CF5F26
S1130C1061E00E942805F801EC0FF11D808181112B
S1130C20F6CFCF911F910F910895CF93DF93EC01ED
S1130C30623009F449C020F4613009F46DC08AC0FF
S1130C406330C1F0643009F085C09C013695279566
S1130C503695279536952795A5ECB0E20E949C1E03
S1130C60929582958F7089279F70892761E0805DB6
S1130C700E9428059E013695279536952795ABE762
S1130C80B4E10E949C1EAC01569547959A01ADECC7
S1130C90BCEC0E949C1E9695879596958795969593
S1130CA087959C01220F331F880F991F880F991F66
S1130CB0880F991F820F931F9A01281B390BC901B2
S1130CC061E0805D0E9428059E01ADECBCEC0E94B1
S1130CD09C1EAC0156954795569547955695479554
S1130CE09A010E949C1E9695879596958795969550
S1130CF087959C01220F331F880F991F880F991F16
S1130D00880F991F820F931F9A01281B390BC90161
S1130D1061E0805D0E9428059E01ADECBCEC0E9460
S1130D209C1E9695879596958795969587959C0193
S1130D30220F331F880F991F880F991F880F991F3F
S1130D40820F931F9E01281B390BC90161E0805D4E
S1130D500E942805DF91CF9108951092FD0310920F
S1130D60D9031092DB038091980390919903019623
S1130D7090939903809398036091F8037091F90319
S1130D807250072E000C880B990B0E940D202EEE3A
S1130D9034E045EB5FE30E94631F21EE3AE744E948
S1130DA05FE30E9499200E94D51FAB017093DF037B
S1130DB06093DE03209100013091010181EE90E007
S1130DC0821B930B481759072CF02F513F4F2417C0
S1130DD035074CF58091490590914A052091FE0311
S1130DE03091FF03821B930B8D349D41A4F440E0AA
S1130DF060E470E080E090E00E9402118091490577
S1130E0090914A052091FE033091FF03821B930BBE
S1130E108D349D41ECF041E060E470E080E090E0CE
S1130E200E94021115C081E08093FD038093D903D1
S1130E308091E0039091E10301969093E103809304
S1130E40E00341E060E470E080E090E00E94021181
S1130E5081E08093D90320919803309199034091C4
S1130E60E0035091E10364E6649FC001659F900D27
S1130E701124B9010E94821E7093A6036093A503F6
S1130E802436310541F4109299031092980310927C
S1130E90E1031092E0038091490590914A05209165
S1130EA0FE033091FF03AC01421B530B9A01283916
S1130EB03A4324F09093FF038093FE0308958091B6
S1130EC06603823039F421E030E030931404209337
S1130ED0130404C0109214041092130420917F038D
S1130EE030918003232B39F421E030E03093160451
S1130EF02093150404C01092160410921504813036
S1130F0039F481E090E0909318048093170404C0AE
S1130F10109218041092170480916303823039F4FC
S1130F2021E030E030931A042093190404C0109295
S1130F301A04109219049091D903911107C021E069
S1130F4030E030931C0420931B0404C010921C0452
S1130F5010921B049091DA03913039F421E030E0CF
S1130F6030931E0420931D0404C010921E0410929A
S1130F701D0490919703923039F421E030E03093CE
S1130F80200420931F0404C01092200410921F0414
S1130F909091E203913039F421E030E0309324045D
S1130FA02093230404C01092240410922304833059
S1130FB038F081E090E0909326048093250404C0E7
S1130FC01092260410922504809111049091120429
S1130FD0899724F010921E0410921D0480917D03C1
S1130FE090917E03899714F11092200410921F04AB
S1130FF01DC090813296890FE217F307D1F78093D1
S1131000DB0381110BC040E060E078E080E090E019
S11310100E9402118091DB03882379F041E060E0B3
S113102078E080E090E00E94021108958091DB0353
S1131030E5E1F4E027E234E0DCCF08951F920F925B
S11310400FB60F9211242F933F934F935F936F9397
S11310507F938F939F93AF93BF93EF93FF9380916D
S1131060490590914A05019690934A058093490554
S11310700E948D0FFF91EF91BF91AF919F918F913E
S11310807F916F915F914F913F912F910F900FBE80
S11310900F901F9018951F920F920FB60F92112464
S11310A08F939F938091ED039091EE03019690931B
S11310B0EE038093ED039F918F910F900FBE0F90DD
S11310C01F90189541E060E070E880E090E00E9495
S11310D00211AAE7B0E08C9180688C93ECE7F0E011
S11310E08081108280818064808380818F6D808381
S11310F08C9186608C93EBE7F0E080818083EEE74F
S1131100F0E080818763808380B7806880BF80E25D
S113111087B992E094B988E185B98EEF8AB918B895
S113112010928000E1E8F0E080818D60808310926D
S113113085001092840029E03DE3309389002093D8
S1131140880090936F00E0EBF0E080818260808300
S1131150E1EBF0E08081826080831092B2008FEF37
S11311608093B300E0E7F0E08081826080832FEF1A
S113117083EC99E0215080409040E1F700C00000EA
S11311800E94ED0560E081E00E94280560E080E8AF
S11311900E94280588E691E00E94FE050E94AD06A3
S11311A00E942E1A4E9A0E942E1A10924E0585E025
S11311B090E09093EC038093EB031092EE03109273
S11311C0ED0383E0809358051092C7031092A003A7
S11311D010924B0510927E0310927D03109212041C
S11311E0109211041092FC031092FB031092C2039C
S11311F01092C1031092800310927F031092CE03C9
S11312001092CD0310920D0410920C041092C4039A
S11312101092C3031092DA03109297031092E20320
S113122083E190E09093F7038093F6038DE990E0D7
S11312309093C6038093C50381E090E00E948503E8
S11312408093580582E090E00E94850390E090939B
S1131250EC038093EB0383E090E00E94850390E02D
S1131260909301018093000186E090E00E94850341
S1131270823018F480936A0303C081E080936A0388
S113128087E090E00E948503823018F4809369031C
S113129003C081E08093690388E090E00E948503A5
S11312A090E090937E0380937D038B9734F089E2E2
S11312B090E090937E0380937D0389E090E00E9408
S11312C0850390E090931204809311048B9734F07B
S11312D089E290E0909312048093110480E190E0FD
S11312E00E94850390E09093F7038093F60381387E
S11312F0910524F01092F7031092F60381E190E037
S11313000E94850390E09093FC038093FB03CF97A6
S113131034F08DE390E09093FC038093FB0382E12F
S113132090E00E94850390E09093C2038093C103F0
S11313308536910534F084E690E09093FC03809325
S1131340FB031092590580E00E94DB009093680330
S11313508093670381E00E94DB0090936503809390
S113136064030E942E1A0E94AD060E945F077894BF
S1131370109279031092780340E060E070E880E016
S113138090E00E94021111E0C1E0D0E00E94F1005F
S11313900E948C030E94FD030E94AD060E942C1241
S11313A00E945F0780915805823009F4C5C01093EC
S11313B0C0032091A5033091A60380917D039091F1
S11313C07E03820F931F84369105D4F440E060E4D9
S11313D070E080E090E00E9402111092800310926D
S11313E07F0380917D0390917E032091A50330912A
S11313F0A603280F391F2436310514F489975CF0AD
S1131400D0938003C0937F03412F60E470E080E0B9
S113141090E00E9402111B9946C0809160038111E3
S113142042C08091590581118AC0412F60E070E863
S113143080E090E00E940211809158058F5F8093B4
S113144058051093600310924E051092F103109208
S1131450F0032FEF86E791E0215080409040E1F7C0
S113146000C000001092620340E060E870E080E099
S113147090E00E94021180915805843010F010937E
S1131480580560915805CE010E947D038FE39CE9C5
S11314900197F1F700C00000412F60E070E880E0A0
S11314A090E00E9402111B9B12C080916003813066
S11314B071F48091590581110AC010924E05109261
S11314C060038FE39CE90197F1F700C0000080916D
S11314D05805813031F480915905811125C00E944D
S11314E0A10A80915805823031F480915905811107
S11314F01BC00E946201809158058330A9F4809139
S11315005905811111C060E080E80E94280589E72F
S113151091E00E94FE050E94880B40E060E071E0CB
S113152080E090E00E94021140E060E070E880E01A
S113153090E00E9402112ACF1092C0033ACF83B1E7
S1131540C6CF40E060E071E080E090E00E940211CC
S113155080914E058111CBC01C9BC6C08091620353
S11315608111C2C060E080E80E9428058EE891E005
S11315700E94FE050E9448031C9924C080914E05D8
S1131580882309F4BAC01EC041E060E070E880E03E
S113159090E00E94021181E080934E052FEF81EECE
S11315A094E0215080409040E1F700C00000109288
S11315B0EE031092ED0340E060E070E880E090E01C
S11315C00E94021180914E05813009F09BC01C9B42
S11315D041C08091620381113DC081E08093620328
S11315E041E060E870E080E090E00E940211109217
S11315F04E052FEF89EF90E0215080409040E1F7B5
S113160000C0000080914E05811173C01C995DC01B
S113161080916203813009F058C080934E0541E007
S113162060E070E880E090E00E9402112FEF82E514
S113163097E0215080409040E1F700C0000040E076
S113164060E070E880E090E00E94021180914E0515
S11316508130B9F51C9B5BC080916203813009F035
S113166056C01092620310924E0560E080E80E941A
S113167028058EE891E00E94FE050E9448038091AF
S11316806603813071F480916303823050F060E02E
S113169080E80E9428058EE891E00E94FE050E94E1
S11316A0480340E060E870E080E090E00E940211AE
S11316B02FEF89EF90E0215080409040E1F700C087
S11316C0000080914E05811122C080916203813017
S11316D0F1F41092E20360E080E80E9428058FE9AB
S11316E091E00E94FE0508951C9B07C08BCF83B137
S11316F069CF813009F4AECF0895809162038111DE
S113170085CF42CF80914E05882309F47FCF089579
S1131710CF93DF9360E080EC0E9428051092DD03F4
S11317201092DC03C091F003D091F103C730D105CE
S113173009F0EAC00E944803C091F003D091F1037C
S1131740C730D1050CF074C0FE01EE0FFF1FED5E33
S1131750FB4F80819181019709F060C005C08191A0
S11317609191019709F05FC0C730D10508F051C0CD
S1131770FE01EC5CFF4F0C94961E80EB91E00E94FE
S1131780FE0581E090E09093DD038093DC0341C08B
S113179081EC91E00E94FE0581E090E09093DD03EE
S11317A08093DC0336C082ED91E00E94FE0581E067
S11317B090E09093DD038093DC032BC083EE91E0F3
S11317C00E94FE0581E090E09093DD038093DC03AA
S11317D020C084EF91E00E94FE0581E090E09093A8
S11317E0DD038093DC0315C085E092E00E94FE05D2
S11317F081E090E09093DD038093DC030AC086E1EE
S113180092E00E94FE0581E090E09093DD038093D6
S1131810DC03D093F103C093F0030AC0FE01EE0F82
S1131820FF1FEB5EFB4F2196C730D1050CF497CF19
S11318308091DC039091DD03892B31F40E944803ED
S11318401092F1031092F0031C990AC08091A00336
S1131850811106C081E08093A0031C9B5AC007C07D
S11318601C9B57C08091A003813009F052C041E015
S113187060E070E880E090E00E9402111092A00302
S1131880E091F003F091F103CF0101969093F103FD
S11318908093F003DC01AA0FBB1FAD5EBB4F2D91FB
S11318A03C91232B49F5873091055CF012C02191BE
S11318B031912130310549F49093F1038093F00381
S11318C008C0EE0FFF1FE95EFB4F019687309105BC
S11318D071F78091F0039091F103089724F010922E
S11318E0F1031092F0032FEF89EF90E02150804034
S11318F09040E1F700C0000040E060E070E880E064
S113190090E00E94021105C0C730D1050CF41CCF31
S113191095CFDF91CF9108958091740390917503D1
S11319208D30910509F0F0C2E7E2F4E0228D338DA9
S11319308091F2039091F303822B932B24893589B0
S1131940220F331F220F331F220F331F822B932B9F
S113195026893789220F331F220F331F822B932BA3
S1131960208D318D220F331F822B932B9093F30301
S11319708093F20308C0299A459A80917403909148
S113198075030D9711F4299A459A809174039091E7
S113199075030E9761F480911304909114040197D8
S11319A021F08091EF038230B1F4299A459A809115
S11319B07403909175038D3091050CF4ADC2469774
S11319C011F4299A459A80917403909175034F9765
S11319D011F4299A459A809174039091750388971C
S11319E011F4299A459A8091740390917503C197D3
S11319F011F4299A459A8091740390917503CA97BA
S1131A0011F4299A459A8091740390917503833453
S1131A10910511F4299A459A809174039091750364
S1131A208C34910511F4299A459A8091F20390918E
S1131A30F3038230910509F46AC01CF4892B49F040
S1131A4008958330910509F47FC00E9709F4F7C116
S1131A5008958091740390917503099711F4299A5C
S1131A60459A80917403909175030D9711F4299A06
S1131A70459A80917403909175030E9761F4809157
S1131A80130490911404019721F08091EF038230A4
S1131A9091F4299A459A809174039091750346971D
S1131AA011F4299A459A80917403909175034F9784
S1131AB011F4299A459A809174039091750388973B
S1131AC011F4299A459A8091740390917503C197F2
S1131AD011F4299A459A8091740390917503CA97D9
S1131AE011F4299A459A8091740390917503833473
S1131AF0910511F4299A459A809174039091750384
S1131B008C34910509F008C2299A459A0895809168
S1131B107403909175030D9711F4299A459A809155
S1131B207403909175030E9709F0F6C18091130424
S1131B3090911404019729F08091EF03823009F009
S1131B40EBC1299A459A0895809174039091750385
S1131B500D9711F4299A459A809174039091750315
S1131B600E9761F48091130490911404019721F06D
S1131B708091EF03823091F4299A459A80917403FD
S1131B8090917503469711F4299A459A80917403AC
S1131B90909175034F9711F4299A459A8091740393
S1131BA090917503889711F4299A459A809174034A
S1131BB090917503C19711F4299A459A8091740301
S1131BC090917503CA9711F4299A459A80917403E8
S1131BD0909175038334910511F4299A459A809163
S1131BE07403909175038C34910511F4299A459AE4
S1131BF080917403909175039C012E503109283013
S1131C00310520F525E130E0281B390B8091C5030F
S1131C109091C60302C0959587952A95E2F7817045
S1131C20992720919A0330919B03822B932B9093B5
S1131C309B0380939A03019711F4299A459A809102
S1131C409A0390919B03892B09F42998809174033A
S1131C50909175034F97A9F480919A0390919B03F7
S1131C60816090939B0380939A03019709F04DC080
S1131C70299A459A80919A0390919B03892B09F4A0
S1131C802998809174039091750382970297D8F4F0
S1131C908091C003682F617070E080919A039091E5
S1131CA09B03682B792B70939B0360939A03613099
S1131CB0710511F4299A459A80919A0390919B0396
S1131CC0892B09F42998809174039091750387975F
S1131CD0E1F480915105482F417050E080919A03BE
S1131CE090919B03482B592B50939B0340939A0349
S1131CF04130510509F00CC1299A459A80919A0303
S1131D0090919B03892B09F42998209174033091B5
S1131D107503C901C397069760F580916703909195
S1131D20680399230CF40396959587959595879563
S1131D3049E350E0BA01621B730B02C09595879585
S1131D406A95E2F78170992720919A0330919B0359
S1131D50822B932B90939B0380939A03019711F406
S1131D60299A459A80919A0390919B03892B09F4AF
S1131D70299880917403909175039C012C53310927
S1131D802730310520F522E430E0281B390B8091FF
S1131D9072039091730302C0959587952A95E2F793
S1131DA08170992720919A0330919B03822B932B66
S1131DB090939B0380939A03019711F4299A459A6F
S1131DC080919A0390919B03892B09F4299820917F
S1131DD0740330917503C90185549109079708F07C
S1131DE09BC0809164039091650399230CF403963E
S1131DF095958795959587954BE450E0BA01621BBC
S1131E00730B02C0959587956A95E2F781709927BF
S1131E1020919A0330919B03822B932B90939B03E5
S1131E2080939A03019711F4299A459A80919A0311
S1131E3090919B03892B09F06FC029980895809194
S1131E407403909175030D9711F4299A459A809122
S1131E507403909175034E9711F4299A459A8091D1
S1131E607403909175038D9711F4299A459A809182
S1131E707403909175038E9709F04EC080916D04A0
S1131E8090916E04019769F480917B0490917C0495
S1131E90019739F441E060E070E880E090E00E944E
S1131EA0021180916F0490917004019779F48091EC
S1131EB07D0490917E04019749F440E060E070E86D
S1131EC080E090E00E9402111092EF03809173046D
S1131ED090917404019749F4809181049091820453
S1131EE0019719F482E08093EF038091710490913B
S1131EF07204019789F480917F0490918004019782
S1131F0059F41092EF030895099709F03ECD33CDAB
S1131F10452B09F4F9CE5BCF0895599A23B1822F4A
S1131F20817090E09093100480930F0481309105A8
S1131F3009F02AC18091C80381115EC18091C9034F
S1131F409091CA039C01295031092230310528F4AB
S1131F501092CA031092C9032EC04297039738F413
S1131F6081E090E09093CA038093C90342C08091BA
S1131F70C9039091CA034B970897E8F482E090E074
S1131F809093CA038093C90310927503109274034B
S1131F9010927C0310927B031092A8031092A70363
S1131FA01092F3031092F20320E030E0909328049F
S1131FB08093270482C08091C9039091CA03893E0B
S1131FC09340BCF0109275031092740310927C033A
S1131FD010927B031092A8031092A7031092F303AC
S1131FE01092F2031092EF03109228041092270427
S1131FF074C02091740330917503F901EE0FFF1F33
S1132000E95DFB4F8091C9039091CA03918380835A
S11320102830310509F051C0E7E2F4E02089318924
S11320208091A7039091A803822B932B248135815F
S11320300024369527950794369527950794322FD3
S1132040202D822B932B26813781220F331F22953B
S11320503295307F3227207F3227822B932B2085A5
S1132060318522953295307F3227207F3227822B8B
S1132070932B22853385220F331F220F331F220F08
S1132080331F822B932B24853585220F331F220F78
S1132090331F822B932B26853785220F331F822BE8
S11320A0932B9093A8038093A703009709F09BC0F8
S11320B01092AA031092A90396C04091A7035091CD
S11320C0A8038091F6039091F7034817590729F460
S11320D02830310514F00E948C0C81E08093C803F1
S11320E01092FA031092CA031092C90310929B0330
S11320F010929A038091290490912A04019711F572
S113210080912B0490912C04892BE1F48091740329
S1132110909175030297B1F48091A9039091AA0359
S113212001969093AA038093A9032091F60330911A
S1132130F7038217930731F49093A8038093A703BE
S1132140299A459A8091740390917503019690930E
S113215075038093740380910F049091100481306F
S1132160910509F449C010C08091A3039091A40380
S113217001969093A4038093A30380910F049091FC
S11321801004892BE9F02DC0892B59F58091FA03AD
S1132190811116C02998459881E08093FA03109222
S11321A0C8031092A4031092A30310927C0310920C
S11321B07B0380910F0490911004892B29F011C0A6
S11321C08091FA03813069F41092A4031092A3035E
S11321D08091C9039091CA0301969093CA03809396
S11321E0C903599808952091F6033091F703821793
S11321F0930709F072CF6FCF8091C803813009F43F
S1132200B3CFEFCF0F931F934130B9F400916B0319
S113221010916C0320916D0330916E03DC01CB01AE
S1132220802B912BA22BB32B80936B0390936C0385
S1132230A0936D03B0936E031AC000916B031091C9
S11322406C0320916D0330916E03DC01CB0180950A
S11322509095A095B09580239123A223B3238093D6
S11322606B0390936C03A0936D03B0936E035B9820
S11322705C9880916B0390916C03A0916D03B09175
S11322806E0397FF02C05A9A01C05A985C9A5C98F0
S113229080916B0390916C03A0916D03B0916E03D8
S11322A096FF02C05A9A01C05A985C9A5C98809131
S11322B06B0390916C03A0916D03B0916E0395FF35
S11322C002C05A9A01C05A985C9A5C9880916B0338
S11322D090916C03A0916D03B0916E0394FF02C0C2
S11322E05A9A01C05A985C9A5C9880916B039091B9
S11322F06C03A0916D03B0916E0393FF02C05A9AD0
S113230001C05A985C9A5C9880916B0390916C031D
S1132310A0916D03B0916E0392FF02C05A9A01C05E
S11323205A985C9A5C9880916B0390916C03A0918D
S11323306D03B0916E0391FF02C05A9A01C05A987E
S11323405C9A5C9880916B0390916C03A0916D03EF
S1132350B0916E0390FF02C05A9A01C05A985C9AD9
S11323605C9880916B0390916C03A0916D03B09184
S11323706E0387FF02C05A9A01C05A985C9A5C980F
S113238080916B0390916C03A0916D03B0916E03E7
S113239086FF02C05A9A01C05A985C9A5C98809150
S11323A06B0390916C03A0916D03B0916E0385FF54
S11323B002C05A9A01C05A985C9A5C9880916B0347
S11323C090916C03A0916D03B0916E0384FF02C0E1
S11323D05A9A01C05A985C9A5C9880916B039091C8
S11323E06C03A0916D03B0916E0383FF02C05A9AEF
S11323F001C05A985C9A5C9880916B0390916C032D
S1132400A0916D03B0916E0382FF02C05A9A01C07D
S11324105A985C9A5C9880916B0390916C03A0919C
S11324206D03B0916E0381FF02C05A9A01C05A989D
S11324305C9A5C9880916B0390916C03A0916D03FE
S1132440B0916E0380FF02C05A9A01C05A985C9AF8
S11324505B9A1F910F9108951D9B3FC08091C70304
S113246081113BC080915805833009F0F4C741E0E5
S113247060E070E880E090E00E94021180915905CC
S11324808F5F8093590581E08093C7032FEF40E766
S113249052E0215040405040E1F700C0000060E0AD
S11324A080EC0E94280587E292E00E94FE0580915C
S11324B059058A3028F083E0809358051092590515
S11324C06091590580E090E00E947D0340E060E067
S11324D070E880E090E00E9402111D9913C0809181
S11324E0C703813079F480915805833059F41092F0
S11324F0C7038FEF99EF20E0815090402040E1F72F
S113250000C0000080915905813009F082C060E06C
S113251080E80E94280588E392E00E94FE0560E0BE
S113252080EC0E94280589E492E00E94FE0560E0A8
S11325308EEC0E94280580910001909101016AE0CF
S113254070E00E94821ECB0161E00E94150660E0EB
S11325508FEC0E942805809100019091010164E6AE
S113256070E00E94821E61E00E9415061B9935C02E
S11325708091A003811131C041E060E070E880E007
S113258090E00E9402118091000190910101029655
S1132590893291052CF4909301018093000104C0C9
S11325A0109201011092000181E08093A0036091D8
S11325B0000183E090E00E947D034FEF59EF80E03B
S11325C0415050408040E1F700C0000040E060E02E
S11325D070E880E090E00E9402111B9B1AC0809179
S11325E0A0038130B1F41092A00341E060E070E8F0
S11325F080E090E00E9402118FE39CE90197F1F7DB
S113260000C0000040E060E070E880E090E00E94DC
S1132610021180915905823009F093C060E080E88E
S11326200E94280587E592E00E94FE0560E080ECA8
S11326300E94280588E692E00E94FE0560E08CEC8A
S11326400E94280582E792E00E94FE0582E090E065
S11326500E94850390E09093EC038093EB0360E089
S11326608AEC0E9428058091EB039091EC036AE0C8
S113267070E00E94821ECB0161E00E94150660E0BA
S11326808BEC0E9428058091EB039091EC0364E6A7
S113269070E00E94821E61E00E9415061B9935C0FD
S11326A08091A003811131C041E060E070E880E0D6
S11326B090E00E9402118091EB039091EC0301964B
S11326C0853191052CF49093EC038093EB0304C0C3
S11326D01092EC031092EB0381E08093A0036091CD
S11326E0EB0382E090E00E947D039FEF29EF40E03E
S11326F0915020404040E1F700C0000040E060E01D
S113270070E880E090E00E9402111B9B1AC0809147
S1132710A0038130B1F41092A00341E060E070E8BE
S113272080E090E00E9402118FE39CE90197F1F7A9
S113273000C0000040E060E070E880E090E00E94AB
S1132740021180915905833009F0C1C060E080E82E
S11327500E94280587E792E00E94FE0581E00E941E
S1132760DB00909365038093640360E08DEC0E942A
S1132770280580916403909165036AE070E00E94EB
S1132780821ECB0162E00E94150660E08FEC0E947D
S11327902805809164039091650364E670E00E94CB
S11327A0821E61E00E94150680916A03811108C0AF
S11327B060E080EC0E94280587E892E00E94FE0514
S11327C080916A03813041F460E080EC0E94280526
S11327D083E992E00E94FE051B995AC080914B0543
S11327E0811156C041E060E070E880E090E00E9412
S11327F0021180916A03811120C080914B058111DF
S113280040C081E080934B0580936A0360E080ECD4
S11328100E94280583E992E00E94FE0560916A0304
S113282086E090E00E947D039FEF20E742E0915014
S113283020404040E1F700C0000080916A038130ED
S113284001F580914B0581111CC081E080934B05FB
S113285010926A0360E080EC0E94280587E892E009
S11328600E94FE0560916A0386E090E00E947D0369
S11328705FEF80E792E0515080409040E1F700C064
S1132880000040E060E070E880E090E00E94021107
S11328901B9B1DC080914B058130C9F441E060E071
S11328A070E880E090E00E94021110924B052FEF37
S11328B040E752E0215040405040E1F700C00000A2
S11328C040E060E070E880E090E00E9402118091B6
S11328D05905843009F0C1C060E080E80E942805F1
S11328E080EA92E00E94FE0582E00E94DB00909361
S11328F068038093670360E08DEC0E942805809153
S11329006703909168036AE070E00E94821ECB0125
S113291062E00E94150660E08FEC0E942805809119
S113292067039091680364E670E00E94821E61E090
S11329300E94150680916903811108C060E080EC53
S11329400E94280587E892E00E94FE0580916903B1
S1132950813041F460E080EC0E94280583E992E034
S11329600E94FE051B995AC080914B05811156C0E7
S113297041E060E070E880E090E00E940211809104
S11329806903811120C080914B05811140C081E011
S113299080934B058093690360E080EC0E942805D6
S11329A083E992E00E94FE056091690387E090E06C
S11329B00E947D038FEF90E722E0815090402040F9
S11329C0E1F700C0000080916903813001F5809136
S11329D04B0581111CC081E080934B051092690363
S11329E060E080EC0E94280587E892E00E94FE05E2
S11329F06091690387E090E00E947D034FEF50E708
S1132A0082E0415050408040E1F700C0000040E0C7
S1132A1060E070E880E090E00E9402111B9B1DC002
S1132A2080914B058130C9F441E060E070E880E0BA
S1132A3090E00E94021110924B059FEF20E742E0C4
S1132A40915020404040E1F700C0000040E060E0C9
S1132A5070E880E090E00E94021180915905853071
S1132A6009F045C181E190E00E94850390E09093D4
S1132A70FC038093FB030A968734910578F560E0A4
S1132A8080E80E94280580EB92E00E94FE0560E049
S1132A9080EC0E94280580EC92E00E94FE0560E034
S1132AA08EEC0E9428058091FB039091FC036AE060
S1132AB070E00E94821ECB0161E00E94150660E076
S1132AC08FEC0E9428058091FB039091FC0364E63F
S1132AD070E00E94821E61E00E9415068091FB0353
S1132AE09091FC030A968734910580F060E080E8B9
S1132AF00E9428058FEC92E00E94FE0560E080ECC5
S1132B000E94280580EE92E00E94FE051B9977C082
S1132B108091A003811173C041E060E070E880E01F
S1132B2090E00E94021181E08093A0032091ED03C4
S1132B303091EE038091CD039091CE03A901481BFF
S1132B40590B5093700340936F034230510584F145
S1132B501B992EC08091FB039091FC0302969093E5
S1132B60FC038093FB033093CE032093CD03109298
S1132B70A00360E08AEC0E94280580916F03909185
S1132B80700364E670E00E94821E61E00E941506F4
S1132B9060E08CEC0E94280580916F039091700393
S1132BA06AE070E00E94821ECB0162E00E9415067A
S1132BB08091FB039091FC0302968F3391052CF4D2
S1132BC09093FC038093FB0304C01092FC031092C7
S1132BD0FB036091FB0381E190E00E947D035FEFC2
S1132BE089EF90E0515080409040E1F700C0000030
S1132BF040E060E070E880E090E00E9402111B9BDE
S1132C0022C08091A0038130F1F441E060E070E8DB
S1132C1080E090E00E9402118091ED039091EE0318
S1132C209093CE038093CD031092A0038FE39CE98D
S1132C300197F1F700C0000040E060E070E880E038
S1132C4090E00E9402111C9936C080914B058111BD
S1132C5032C041E060E070E880E090E00E94021140
S1132C608091FB039091FC030197863F2FEF92071D
S1132C702CF09093FC038093FB0304C01092FC039C
S1132C801092FB0381E080934B056091FB0381E18B
S1132C9090E00E947D034FEF59EF80E04150504097
S1132CA08040E1F700C0000040E060E070E880E0B0
S1132CB090E00E9402111C9B1AC080914B05813048
S1132CC0B1F441E060E070E880E090E00E9402111D
S1132CD010924B058FE39CE90197F1F700C00000C7
S1132CE040E060E070E880E090E00E940211809192
S1132CF05905863009F0FCC089E090E00E94850304
S1132D0090E090931204809311048091C1039091F8
S1132D10C20384369105B4F560E080E80E9428057A
S1132D2081EF92E00E94FE0560E080EC0E9428059D
S1132D3082E093E00E94FE0560E08EEC0E9428058C
S1132D408091C1039091C2036AE070E00E94821EE8
S1132D50CB0161E00E94150660E08FEC0E9428051B
S1132D608091C1039091C20364E670E00E94821EC8
S1132D7061E00E9415068091C1039091C2038436DC
S1132D80910584F060E080E80E9428058FEC92E0D1
S1132D900E94FE0560E080EC0E94280581E193E03A
S1132DA00E94FE051B9935C08091A003811131C09A
S1132DB041E060E070E880E090E00E9402118091C0
S1132DC0C1039091C2030296853691052CF4909329
S1132DD0C2038093C10304C01092C2031092C103C2
S1132DE081E08093A0036091C10382E190E00E949E
S1132DF07D039FEF29EF40E0915020404040E1F7F0
S1132E0000C0000040E060E070E880E090E00E94D4
S1132E1002111B9B1AC08091A0038130B1F410925F
S1132E20A00341E060E070E880E090E00E940211BD
S1132E308FE39CE90197F1F700C0000040E060E0F7
S1132E4070E880E090E00E9402111C9935C08091E6
S1132E504B05811131C041E060E070E880E090E012
S1132E600E9402118091C1039091C20301972AF03C
S1132E709093C2038093C10306C084E690E09093CC
S1132E80C2038093C10381E080934B056091C10329
S1132E9082E190E00E947D039FEF29EF40E0915092
S1132EA020404040E1F700C0000040E060E070E8EE
S1132EB080E090E00E9402111C9B1AC080914B0597
S1132EC08130B1F441E060E070E880E090E00E947D
S1132ED0021110924B058FE39CE90197F1F700C0B2
S1132EE0000040E060E070E880E090E00E940211A1
S1132EF080915905873009F0FCC089E090E00E9478
S1132F00850390E090931204809311048091C1038F
S1132F109091C20384369105B4F560E080E80E9484
S1132F20280581EF92E00E94FE0560E080EC0E949B
S1132F30280582E093E00E94FE0560E08EEC0E948A
S1132F4028058091C1039091C2036AE070E00E9459
S1132F50821ECB0161E00E94150660E08FEC0E94A6
S1132F6028058091C1039091C20364E670E00E9439
S1132F70821E61E00E9415068091C1039091C203F4
S1132F808436910584F060E080E80E9428058FEC87
S1132F9092E00E94FE0560E080EC0E94280581E139
S1132FA093E00E94FE051B9935C08091A003811116
S1132FB031C041E060E070E880E090E00E940211DE
S1132FC08091C1039091C2030296853691052CF439
S1132FD09093C2038093C10304C01092C203109261
S1132FE0C10381E08093A0036091C10382E190E07A
S1132FF00E947D039FEF29EF40E091502040404024
S1133000E1F700C0000040E060E070E880E090E09C
S11330100E9402111B9B1AC08091A0038130B1F45D
S11330201092A00341E060E070E880E090E00E942C
S113303002118FE39CE90197F1F700C0000040E022
S113304060E070E880E090E00E9402111C9935C0B5
S113305080914B05811131C041E060E070E880E06F
S113306090E00E9402118091C1039091C2030197E4
S11330702AF09093C2038093C10306C084E690E0D3
S11330809093C2038093C10381E080934B056091C8
S1133090C10382E190E00E947D039FEF29EF40E0AD
S11330A0915020404040E1F700C0000040E060E063
S11330B070E880E090E00E9402111C9B1AC080918D
S11330C04B058130B1F441E060E070E880E090E0CD
S11330D00E94021110924B058FE39CE90197F1F7CE
S11330E000C0000040E060E070E880E090E00E94F2
S11330F0021180915905883009F0FCC089E090E004
S11331000E94850390E090931204809311048091AF
S1133110C1039091C20384369105B4F560E080E860
S11331200E94280581EF92E00E94FE0560E080EC99
S11331300E94280582E093E00E94FE0560E08EEC88
S11331400E9428058091C1039091C2036AE070E057
S11331500E94821ECB0161E00E94150660E08FECA4
S11331600E9428058091C1039091C20364E670E037
S11331700E94821E61E00E9415068091C103909115
S1133180C2038436910584F060E080E80E9428053B
S11331908FEC92E00E94FE0560E080EC0E9428051E
S11331A081E193E00E94FE051B9935C08091A00344
S11331B0811131C041E060E070E880E090E00E945D
S11331C002118091C1039091C20302968536910544
S11331D02CF49093C2038093C10304C01092C203E1
S11331E01092C10381E08093A0036091C10382E146
S11331F090E00E947D039FEF29EF40E09150204032
S11332004040E1F700C0000040E060E070E880E08A
S113321090E00E9402111B9B1AC08091A003813090
S1133220B1F41092A00341E060E070E880E090E027
S11332300E9402118FE39CE90197F1F700C000009E
S113324040E060E070E880E090E00E9402111C9988
S113325035C080914B05811131C041E060E070E8D8
S113326080E090E00E9402118091C1039091C2031A
S113327001972AF09093C2038093C10306C084E6A9
S113328090E09093C2038093C10381E080934B0547
S11332906091C10382E190E00E947D039FEF29EFDA
S11332A040E0915020404040E1F700C0000040E081
S11332B060E070E880E090E00E9402111C9B1AC05C
S11332C080914B058130B1F441E060E070E880E02A
S11332D090E00E94021110924B058FE39CE9019744
S11332E0F1F700C0000040E060E070E880E090E0AA
S11332F00E94021180915905893009F0AEC060E046
S11333008DE80E94280563E080919C0390919D03C1
S11333100E9415068091F6039091F7038038910579
S11333207CF560E080E80E94280582E293E00E9438
S1133330FE0560E080EC0E9428058AE292E00E948B
S1133340FE0560E08CEC0E9428058091F6039091C4
S1133350F7036AE070E00E94821ECB0162E00E94E3
S1133360150660E08EEC0E9428058091F60390918A
S1133370F70364E670E00E94821E61E00E94150675
S11333808091F6039091F7038038910581F460E011
S113339080E80E94280583E393E00E94FE0560E034
S11333A080EC0E94280584E493E00E94FE051B99AA
S11333B035C08091A003811131C041E060E070E824
S11333C080E090E00E9402118091F6039091F7034F
S11333D00196813891052CF49093F7038093F603BA
S11333E004C01092F7031092F60381E08093A003C7
S11333F06091F60380E190E00E947D039FEF29EF46
S113340040E0915020404040E1F700C0000040E01F
S113341060E070E880E090E00E9402111B9B1DC0F8
S11334208091A0038130C9F41092A00341E060E0D0
S113343070E880E090E00E9402118FE39CE901971C
S1133440F1F700C0000040E060E070E880E090E048
S11334500E940211089583B155C808950F931F93D4
S1133460CF93DF9360E080EC0E94280585E593E02C
S11334700E94FE0560910804709109047250072EA1
S1133480000C880B990B0E940D202EEE34E045EBC6
S11334905FE30E94631F21EE3AE744E95FE30E9481
S11334A099200E94D51F709355056093540560E0E0
S11334B081EC0E94280580915405909155050AE0FD
S11334C010E0B8010E94821ECB0162E00E94150642
S11334D060E083EC0E942805809154059091550585
S11334E0C4E6D0E0BE010E94821E61E00E9415067F
S11334F00E94F10060E084EC0E94280587E593E0D7
S11335000E94FE0560919E0370919F037250072EE6
S1133510000C880B990B0E940D202EEE34E045EB35
S11335205FE30E94631F21EE3AE744E95FE30E94F0
S113353099200E94D51F7093CC036093CB0360E065
S113354087EC0E9428058091CB039091CC03B801AD
S11335500E94821ECB0162E00E94150660E089ECA5
S11335600E9428058091CB039091CC03BE010E9458
S1133570821E61E00E9415060E94F10060E08AEC60
S11335800E9428058BE593E00E94FE056091F803F4
S11335907091F9037250072E000C880B990B0E944E
S11335A00D202EEE34E045EB5FE30E94631F21EE15
S11335B03AE744E95FE30E9499200E94D51F709383
S11335C096036093950360E08DEC0E94280580913A
S11335D0950390919603B8010E94821ECB0162E08C
S11335E00E94150660E08FEC0E94280580919503E7
S11335F090919603BE010E94821E61E00E9415060E
S1133600DF91CF911F910F910895A0E1B0E0EBE01D
S1133610FBE10C94AB1E7C011B016A01FC011782C7
S11336201682838181FF44C39E012F5F3F4F39017E
S1133630F7019381F10193FD859193FF81911F011E
S1133640882309F431C3853239F493FD859193FFBE
S113365081911F01853239F4B70190E00E94F42171
S113366056016501E5CF10E0512C912CFFE1F915CD
S1133670D8F08B3279F038F4803279F08332A1F4C7
S1133680F92DF0612EC08D3261F0803369F4292D5B
S113369021602DC0392D3260932E892D8460982E9F
S11336A02AC0E92DE86015C097FC2DC020ED280F35
S11336B02A3088F496FE06C03AE0139F200D1124A8
S11336C0122F19C08AE0589E200D1124522EE92D84
S11336D0E0629E2E10C08E3231F496FCE5C2F92DC4
S11336E0F0649F2E08C08C3621F4292D2068922E78
S11336F002C0883641F4F10193FD859193FF8191D5
S11337001F018111B3CF9BEB980F933020F4992DB7
S11337109061805E07C09BE9980F933008F066C102
S1133720992D9F7E96FF16E09F73992E853619F486
S11337309064992E08C0863621F4392F3068932E70
S113374002C01111115097FE07C01C3350F44424D9
S11337504394410E27E00BC0183038F027E017E0FF
S113376005C027E09CE3492E02C0212F412C5601BD
S113377084E0A80EB11CF60160817181828193817D
S1133780042DA3010E9406216C01F981FC87F0FF3E
S113379002C0F3FF06C091FC06C092FE06C000E220
S11337A005C00DE203C00BE201C000E08C858C7003
S11337B019F001115AC29BC297FE10C04C0CFC8533
S11337C0F4FF04C08A81813309F44A94141474F513
S11337D028E0241578F588E0482E2CC096FC2AC0F1
S11337E0812F90E08C159D059CF03CEFC3163FEFB4
S11337F0D30674F0892D8068982E0AC0E2E0F0E0C8
S1133800EC0FFD1FE10FF11D8081803319F411507D
S11338101111F4CF97FE0EC044244394410E812F1E
S113382090E0C816D9062CF41C1904C0442443940F
S113383001C010E097FE06C01C141D0434F4C60138
S1133840019605C085E090E002C081E090E001119E
S11338500196112331F0212F30E02F5F3F4F820F6B
S1133860931F252D30E08217930714F4581A01C0D2
S1133870512C892D897049F4552039F0B70180E223
S113388090E00E94F4215A94F7CF002329F0B70165
S1133890802F90E00E94F42193FC09C0552039F058
S11338A0B70180E390E00E94F4215A94F7CF97FE89
S11338B04CC04601D7FE02C0812C912CC601881948
S11338C09909F301E80FF91FFE87ED879601241982
S11338D03109388B2F87012F10E0119501951109BB
S11338E03FEF8316930629F4B7018EE290E00E941D
S11338F0F421C814D9044CF08F859889881599054A
S113390024F4ED85FE85818101C080E3F1E08F1A06
S113391091082D853E852F5F3F4F3E872D8780166A
S113392091062CF0B70190E00E94F421D9CFC8147D
S1133930D90441F49A81963320F4953319F43C85E3
S113394034FF81E3B70190E04EC08A81813319F0DE
S11339509C859F7E9C87B70190E00E94F421111101
S113396005C094FC18C085E690E017C0B7018EE24C
S113397090E00E94F4211E5F82E001E0080FF30151
S1133980E80FF11D8081B70190E00E94F421802F9F
S11339900113F3CFE6CF85E490E0B7010E94F42150
S11339A0D7FC06C0C114D10441F4EC85E4FF05C082
S11339B0D194C194D1088DE201C08BE2B70190E0AB
S11339C00E94F42180E32AE0C216D1042CF08F5F18
S11339D0FAE0CF1AD108F7CFB70190E00E94F421A2
S11339E0B701C601C0960E94F42154C1833631F058
S11339F0833779F0833509F056C020C0560132E090
S1133A00A30EB11CF6018081898301E010E06301FB
S1133A1012C05601F2E0AF0EB11CF601C080D18095
S1133A2096FE03C0612F70E002C06FEF7FEFC60106
S1133A300E94E9218C01F92DFF7714C0560122E080
S1133A40A20EB11CF601C080D18096FE03C0612F86
S1133A5070E002C06FEF7FEFC6010E94DE218C018F
S1133A60F92DF0689F2EF3FD1AC0852D90E00817FC
S1133A701907A8F4B70180E290E00E94F4215A9457
S1133A80F4CFF60197FC859197FE81916F01B70100
S1133A9090E00E94F42151105A940150110901152B
S1133AA0110579F7F7C0843611F0893661F55601AE
S1133AB097FE09C024E0A20EB11CF6016081718159
S1133AC0828193810AC0F2E0AF0EB11CF6016081DD
S1133AD07181072E000C880B990BF92DFF769F2E10
S1133AE097FF09C090958095709561957F4F8F4F92
S1133AF09F4FF0689F2E2AE030E0A3010E945222DB
S1133B00C82EC6183FC0092D853721F40F7E2AE040
S1133B1030E01DC0097F8F3691F018F4883559F0D4
S1133B20C3C0803719F0883711F0BEC0006104FFAC
S1133B3009C0046007C094FE08C0066006C028E0FF
S1133B4030E005C020E130E002C020E132E056015F
S1133B5007FF09C084E0A80EB11CF60160817181E1
S1133B608281938108C0F2E0AF0EB11CF60160813E
S1133B70718180E090E0A3010E945222C82EC618F1
S1133B800F77902E96FE0BC0092D0E7FC11650F4B0
S1133B9094FE0AC092FC08C0092D0E7E05C0DC2CE0
S1133BA0092D03C0DC2C01C0D12E04FF0DC0FE0181
S1133BB0EC0DF11D8081803311F4097E09C002FFF0
S1133BC006C0D394D39404C0802F867809F0D3948C
S1133BD003FD11C000FF06C01C2DD51480F4150D83
S1133BE01D190DC0D51458F4B70180E290E00E946D
S1133BF0F421D394F7CFD51410F45D1801C0512CDF
S1133C0004FF10C0B70180E390E00E94F42102FF9A
S1133C1017C001FD03C088E790E002C088E590E08A
S1133C20B7010CC0802F867859F001FF02C08BE2E7
S1133C3001C080E207FD8DE2B70190E00E94F4210B
S1133C40C11638F4B70180E390E00E94F4211150CA
S1133C50F7CFCA94F301EC0DF11D8081B70190E018
S1133C600E94F421C110F5CF15C0F4E0F51560F5FC
S1133C7084E0581A93FE1FC0011127C02C8523FF2E
S1133C802AC006E710E0392D3071932EF801849193
S1133C90811124C0552009F4E4CCB70180E290E0FE
S1133CA00E94F4215A94F6CFF7018681978126C0A9
S1133CB08FEF9FEF23C0B70180E290E00E94F421D0
S1133CC05A945110F8CFD8CF512CB701802F90E0DF
S1133CD00E94F421D3CF0AE710E0D5CF911080528F
S1133CE0B70190E00E94F4210F5F1F4FCFCF23E074
S1133CF0251510F483E0BDCF512CC0CF6096E2E1CE
S1133D000C94C71E97FB072E16F4009407D077FD7A
S1133D1009D00E94E21E07FC05D03EF490958195DF
S1133D209F4F0895709561957F4F0895EE0FFF1F83
S1133D300590F491E02D0994A29FB001B39FC001B6
S1133D40A39F700D811D1124911DB29F700D811DC3
S1133D501124911D08952F923F924F925F926F927A
S1133D607F928F929F92AF92BF92CF92DF92EF9207
S1133D70FF920F931F93CF93DF93CDB7DEB7CA1B88
S1133D80DB0B0FB6F894DEBF0FBECDBF09942A88B3
S1133D90398848885F846E847D848C849B84AA845B
S1133DA0B984C884DF80EE80FD800C811B81AA81E8
S1133DB0B981CE0FD11D0FB6F894DEBF0FBECDBFB3
S1133DC0ED010895AA1BBB1B51E107C0AA1FBB1F2D
S1133DD0A617B70710F0A61BB70B881F991F5A9593
S1133DE0A9F780959095BC01CD0108955058BB2743
S1133DF0AA270E940E1F0C945F200E94512038F0C5
S1133E000E94582020F039F49F3F19F426F40C94B2
S1133E104E200EF4E095E7FB0C944820E92F0E9415
S1133E20702058F3BA17620773078407950720F0C8
S1133E3079F4A6F50C9492200EF4E0950B2EBA2F8B
S1133E40A02D0B01B90190010C01CA01A00111249C
S1133E50FF27591B99F0593F50F4503E68F11A1648
S1133E60F040A22F232F342F4427585FF3CF4695D9
S1133E7037952795A795F0405395C9F77EF41F16FB
S1133E80BA0B620B730B840BBAF09150A1F0FF0FC5
S1133E90BB1F661F771F881FC2F70EC0BA0F621FB1
S1133EA0731F841F48F4879577956795B795F795A1
S1133EB09E3F08F0B0CF9395880F08F09927EE0F36
S1133EC09795879508950E94771F0C945F200E9410
S1133ED0582058F00E94512040F029F45F3F29F007
S1133EE00C94482051110C9493200C944E200E9461
S1133EF0702068F39923B1F3552391F3951B550B67
S1133F00BB27AA2762177307840738F09F5F5F4FA8
S1133F10220F331F441FAA1FA9F335D00E2E3AF0E7
S1133F20E0E832D091505040E695001CCAF72BD0FF
S1133F30FE2F29D0660F771F881FBB1F2617370750
S1133F404807AB07B0E809F0BB0B802DBF01FF2782
S1133F5093585F4F3AF09E3F510578F00C944820F7
S1133F600C9493205F3FE4F3983ED4F386957795C1
S1133F706795B795F7959F5FC9F7880F911D96953B
S1133F80879597F90895E1E0660F771F881FBB1F97
S1133F90621773078407BA0720F0621B730B840B44
S1133FA0BA0BEE1F88F7E09508950E94DC1F689411
S1133FB0B1110C94932008950E94782088F09F57A3
S1133FC098F0B92F9927B751B0F0E1F0660F771F39
S1133FD0881F991F1AF0BA95C9F714C0B13091F02F
S1133FE00E949220B1E008950C949220672F782FBC
S1133FF08827B85F39F0B93FCCF3869577956795F4
S1134000B395D9F73EF490958095709561957F4F5F
S11340108F4F9F4F0895E89409C097FB3EF4909505
S11340208095709561957F4F8F4F9F4F9923A9F08D
S1134030F92F96E9BB279395F6958795779567951C
S1134040B795F111F8CFFAF4BB0F11F460FF1BC060
S11340506F5F7F4F8F4F9F4F16C0882311F096E9F3
S113406011C0772321F09EE8872F762F05C06623A1
S113407071F096E8862F70E060E02AF09A95660F5A
S1134080771F881FDAF7880F9695879597F9089513
S113409097F99F6780E870E060E008959FEF80ECF7
S11340A0089500240A94161617061806090608959A
S11340B000240A9412161306140605060895092E00
S11340C00394000C11F4882352F0BB0F40F4BF2B6F
S11340D011F460FF04C06F5F7F4F8F4F9F4F0895AF
S11340E057FD9058440F551F59F05F3F71F04795A5
S11340F0880F97FB991F61F09F3F79F0879508958A
S1134100121613061406551FF2CF4695F1DF08C0A8
S1134110161617061806991FF1CF869571056105C5
S113412008940895E894BB2766277727CB0197F96D
S113413008950E94AC200C945F200E94512038F016
S11341400E94582020F0952311F00C9448200C94E0
S11341504E2011240C9493200E94702070F3959F9C
S1134160C1F3950F50E0551F629FF001729FBB276A
S1134170F00DB11D639FAA27F00DB11DAA1F649F06
S11341806627B00DA11D661F829F2227B00DA11DB9
S1134190621F739FB00DA11D621F839FA00D611D3F
S11341A0221F749F3327A00D611D231F849F600D60
S11341B0211D822F762F6A2F11249F5750409AF089
S11341C0F1F088234AF0EE0FFF1FBB1F661F771F15
S11341D0881F91505040A9F79E3F510580F00C94E0
S11341E048200C9493205F3FE4F3983ED4F38695E3
S11341F077956795B795F795E7959F5FC1F7FE2B80
S1134200880F911D9695879597F90895283008F0A1
S113421027E03327DA01990F311D87FD916000965D
S11342206105710539F432602E5F3D9330E32A95C0
S1134230E1F708959F3F30F080387105610509F07A
S11342403C5F3C5F3D93913008F08068911DDF93A3
S1134250CF931F930F93FF92EF92192F987F969508
S1134260E92F96959695E90FFF27E852FF4F992776
S11342703327EE24FF24A701E7010590089407944F
S113428028F4360FE71EF81E491F511D660F771FCD
S1134290881F991F0694A1F70590079428F4E70E48
S11342A0F81E491F561FC11D770F881F991F661FCF
S11342B00694A1F70590079428F4F80E491F561F99
S11342C0C71FD11D880F991F661F771F0694A1F77A
S11342D00590079420F4490F561FC71FD81F990F44
S11342E0661F771F881F0694A9F78491109517708D
S11342F041F0D695C79557954795F794E7941A9545
S1134300C1F7EEE7F0E06894159015913591659149
S1134310959105907FE27395E118F10A430B560BD2
S1134320C90BD009C0F7E10CF11E431F561FC91F6A
S1134330D01D7EF4703311F48A95E6CFE8940150D1
S113434030F0080F0AF40027021708F4202F2395F1
S1134350022F7A3328F079E37D932A95E9F710C088
S11343607D932A9589F606949795679537951795C1
S11343701794E118F10A430B560BC90BD00998F0B6
S113438023957E9173957A3308F070E37C93201320
S1134390B8F77E9170617D9330F0839571E37D93DE
S11343A070E32A95E1F71124EF90FF900F911F918C
S11343B0CF91DF91992787FD90950895FC01059091
S11343C0615070400110D8F7809590958E0F9F1F13
S11343D00895FC016150704001900110D8F7809558
S11343E090958E0F9F1F08950F931F93CF93DF9384
S11343F0FB01238121FD03C08FEF9FEF2CC022FF1F
S113440016C046815781248135814217530744F4ED
S1134410A081B1819D012F5F3F4F318320838C9315
S1134420268137812F5F3F4F3783268314C08B014A
S1134430EC01FB010084F185E02D0995892BE1F65F
S1134440D80116968D919C911797019617969C9377
S11344508E931697CE01DF91CF911F910F910895FE
S1134460AEE0B0E0E6E3F2E20C94B91E0D891E89D9
S113447086E08C831A8309838FEF9FE79E838D8365
S1134480AE01475E5F4F6F89788DCE0101960E9421
S1134490051BEF81F885E00FF11F10822E96E4E0F2
S11344A00C94D51EFA01AA27283051F1203181F14C
S11344B0E8946F936E7F6E5F7F4F8F4F9F4FAF4F28
S11344C0B1E03ED0B4E03CD0670F781F891F9A1F3B
S11344D0A11D680F791F8A1F911DA11D6A0F711DEF
S11344E0811D911DA11D20D009F468943F912AE0FB
S11344F0269F11243019305D3193DEF6CF010895E3
S1134500462F4770405D4193B3E00FD0C9F7F6CF13
S1134510462F4F70405D4A3318F0495D31FD4052DB
S1134520419302D0A9F7EACFB4E0A6959795879571
S113453077956795BA95C9F7009761057105089550
S11345409B01AC010A2E06945795479537952795FC
S1134550BA95C9F7620F731F841F951FA01D089594
S1074560F894FFCFF9
S113456405004142544F2020205045A3A54D20204E
S113457420200042C3786FE320BD61207065B6B883
S1134584BC202000A16FBF6FB3BD6F63BFC42E2EC8
S11345942E004865B3C3786FE320BD61207065B60F
S11345A4B8BC005053204C494E45204552524F52FA
S11345B420202000546D70252E3166432F486D252C
S11345C42E31662525202000A8B8BF61BDB865201A
S11345D4424BA7B0AB45484F00A461BE7963BA20EF
S11345E44F544BA7B0ABA248202020202000507980
S11345F4C0BD6FB9205045A3A54D202020200050F4
S113460479C0BD6FB920A8A9434B20B365BDBF00D1
S11346142143B8B4BD61BB20A84FA341505F2120FE
S11346240041B36170B8C720BEB8BF61BDB8C7202C
S1134634200041B36170B8C720B3786FE3612041AF
S11346444C200041B36170B8C720B3786FE3612094
S11346545053200041B36170B8C72033383042202E
S1134664202020200041B36170B8C720E461B7B8AA
S1134674706FB3BAB8005065B365706320E461B772
S113468420333830422000202020202020202020E5
S113469420202020202020004FBFBABB6FBD65BD61
S11346A4B8652020202020200061BCBEBBB8BF799F
S11346B4E32C422B2F2D00427065BCC720B3C37872
S11346C46FE3612020202000BD61207065B6B8BC72
S11346D42C006365BA2E0054B8BE20E361BFC0B891
S11346E4BA61202D5053002D4E4F2D6FBFBA70C3A5
S11346F4BF2D002D4E432DB761BCBABD79BF2D002B
S113470454B8BE20E361BFC0B8BA61202D414C0047
S1134714A86F706FB420637061B26FBFBAB8200021
S113472454286D6178292D43202020202020004B1B
S11347346FBDBF706FBBC420202020202020200028
S1134744BF65BCBE2D70C320202020204F544BA72E
S1134754004D61BA63B8BC61BBC4BD61C7202020ED
S11347642000B3BB61B6BD6F63BFC42020202025E5
S113477400B3BB61B6BD6F63BFB82020204F544B58
S1134784A70053797374656D5F6164726573202047
S11347942020004164726573732064697361626CE0
S11347A46520200020202020202020204F544BA7C7
S11347B4202020200055005F5F56005F5F570000F3
S9030000FC
