S010000056656E745F626F782E73726563CF
S11300000C94B5000C94D2000C94D2000C94D20041
S11300100C94D2000C94D2000C94D2000C94D20014
S11300200C94D2000C94D2000C94D2000C94D909F4
S11300300C94D2000C94D2000C94AA090C94D20013
S11300400C94D2000C94D2000C94D2000C94D200E4
S11300500C94D2000C94D2000C94D2000C94D200D4
S11300600C94D2000C94D2006E616E00696E66002E
S113007000407A10F35A00A0724E18090010A5D45B
S1130080E80000E87648170000E40B54020000CAB8
S11300909A3B000000E1F5050000809698000000FE
S11300A040420F000000A08601000000102700005D
S11300B00000E803000000006400000000000A00E3
S11300C0000000000100000000002C76D888DC67E6
S11300D04F0823DFC1DFAE59E1B1B796E5E3E4533E
S11300E0C63AE651997696E8E6C28426EB898C9B5B
S11300F062ED407C6FFCEFBC9C9F40F2BAA56FA5FB
S1130100F490055A2AF75C936B6CF9676DC11BFC7C
S1130110E0E40D47FEF520E6B500D0ED902E030097
S1130120943577050080841E080000204E0A0000E4
S113013000C80C333333330F986E12831141EF8DA3
S11301402114893BE65516CFFEE6DB18D1844B38E3
S11301501BF77C1D901DA4BBE424203284725E2214
S11301608100C9F124ECA1E53D2711241FBECFEF86
S1130170D8E0DEBFCDBF13E0A0E0B1E0E8E9F0E4F1
S113018002C005900D92A036B107D9F725E0A0E68C
S1130190B3E001C01D92AD32B207E1F70E94F0094D
S11301A00C944A200C94000080937C00EAE7F0E071
S11301B0808180648083808186FDFDCFE8E7F0E064
S11301C080812091790090E0922B918380838081BB
S11301D0918108950F931F93CF93DF931092E403BB
S11301E01092E30310929D0310929C031092D60385
S11301F01092D503C5E9D0E000E012E083E00E944C
S1130200D40090932405809323052091E303309137
S1130210E403821793076CF0811522E092072CF017
S11302209093E4038093E30304C01093E4030093E6
S1130230E30387E00E94D4009093820380938103B8
S113024020919C0330919D03821793076CF08115D4
S113025022E092072CF090939D0380939C0304C0AA
S113026010939D0300939C0386E00E94D400909316
S1130270A00380939F032091D5033091D603821766
S113028093076CF0811522E092072CF09093D6032B
S11302908093D50304C01093D6030093D50321970C
S11302A009F0ACCF8091E3039091E403DF91CF9107
S11302B01F910F9108950F931F93CF93DF9341E004
S11302C060E071E080E090E00E949F1180916A03F9
S11302D0811143C080916703823010F51092670347
S11302E060E080E80E94490382E091E00E941F04DC
S11302F00E945D1840E060E870E080E090E00E94B9
S11303009F111092CE031092CD0310926503809139
S11303106A03811122C080916703823008F4CFC040
S113032060E080E80E94490382E091E00E941F049B
S113033060E080EC0E94490383E191E00E941F0485
S113034040E060E870E080E090E00E949F1110922D
S1130350CE031092CD031092650380916A0382301C
S113036009F088C081E08093650341E060E870E0B3
S113037080E090E00E949F11C091CB03D091CC0308
S11303800091CD031091CE0390916703913079F4DD
S113039041E060E074E080E090E00E949F1160E042
S11303A080E80E94490384E291E00E941F04409186
S11303B0CD035091CE032091CB033091CC0342174F
S11303C0530794F580916703811154C0C01BD10B6E
S11303D060E080E80E94490385E391E00E941F04E5
S11303E060E08DE80E944903CE016AE070E00E945B
S11303F0B11CCB0162E00E94360460E08FE80E94E9
S11304004903CE0164E670E00E94B11C61E00E94E1
S113041036042091CD033091CE038091CB0390918B
S1130420CC032817390734F180916703811116C072
S113043060E080E80E94490383E491E00E941F0485
S113044082E08093C4032091CD033091CE03809148
S1130450CB039091CC032817390764F0809167038C
S1130460823068F160E080E80E94490384E591E00D
S11304700E941F0480916A03813009F5809167030B
S11304808230E8F060E080E80E94490385E691E06C
S11304900E941F0460E080EC0E94490386E791E01B
S11304A00E941F0440E060E870E080E090E00E9459
S11304B09F111092CE031092CD03109265038FE327
S11304C09CE90197F1F700C00000DF91CF911F91E3
S11304D00F910895F999FECF92BD81BD60BDFA9A3E
S11304E0F99A0895F999FECF92BD81BDF89A80B525
S11304F0089580E00E94D40090936C0380936B0372
S11305008E5492408F36910570F480916D03813042
S113051051F482E080936A0341E060E072E080E09D
S113052090E00E949F1180916B0390916C0380591D
S113053091408D3B910508F047C020916D03211136
S11305403EC082E080936A0341E060E072E080E0B4
S113055090E00E949F1180916B0390916C038059ED
S113056091408F3521E0920718F021E020936A032F
S11305708D3B910568F480916D03813049F41092AC
S11305806A0340E060E072E080E090E00E949F1126
S113059080916B0390916C038E5492408F36910539
S11305A0C0F480916D03811114C010926A0340E07D
S11305B060E072E080E090E00E949F1108958F3522
S11305C021E0920790F6D7CF8F3521E0920700F310
S11305D0CCCF089581E00E94D40090936903809366
S11305E068038E5492408F36910568F580916603B6
S11305F0813021F080916503813099F481E080930A
S1130600670341E060E074E080E090E00E949F11A5
S113061080916803909169038E5492408F369105BE
S113062090F48091660381110EC08091650381115D
S11306300AC083E08093670341E060E074E080E0F7
S113064090E00E949F118091680390916903805902
S113065091408F35914050F082E08093670341E0F0
S113066060E078E080E090E00E949F118091680350
S113067090916903805991408D3B910548F4109203
S1130680670340E060E074E080E090E00E949F1126
S11306900895CF93C82F613041F441E061E070E0E8
S11306A080E090E00E949F1107C040E061E070E0AC
S11306B080E090E00E949F1141E062E070E080E001
S11306C090E00E949F11C4FF08C041E064E070E024
S11306D080E090E00E949F1107C040E064E070E079
S11306E080E090E00E949F11C5FF08C041E068E0EF
S11306F070E080E090E00E949F1107C040E068E055
S113070070E080E090E00E949F11C6FF08C041E0C5
S113071060E170E080E090E00E949F1107C040E03B
S113072060E170E080E090E00E949F11CC2344F4EB
S113073041E060E270E080E090E00E949F1107C019
S113074040E060E270E080E090E00E949F1140E0B1
S113075062E070E080E090E00E949F118FE39FE1EF
S11307600197F1F700C0000041E062E070E080E032
S113077090E00E949F11C0FF08C041E064E070E077
S113078080E090E00E949F1107C040E064E070E0C8
S113079080E090E00E949F11C1FF08C041E068E042
S11307A070E080E090E00E949F1107C040E068E0A4
S11307B070E080E090E00E949F11C2FF08C041E019
S11307C060E170E080E090E00E949F1107C040E08B
S11307D060E170E080E090E00E949F11C3FF08C0D8
S11307E041E060E270E080E090E00E949F1107C069
S11307F040E060E270E080E090E00E949F1140E001
S113080062E070E080E090E00E949F118FE39FE13E
S11308100197F1F700C00000CF91089560E082E0F5
S11308200E94490360E088E20E94490360E08CE092
S11308300E94490360E081E00E94490308950F93F8
S11308401F93CF93FC018081882361F08F01C0E066
S1130850CF5F61E00E944903F801EC0FF11D808134
S11308608111F6CFCF911F910F910895CF93DF930C
S1130870EC01623009F449C020F4613009F46DC020
S11308808AC06330C1F0643009F085C09C0136959C
S113089027953695279536952795A5ECB0E20E94C5
S11308A0C51C929582958F7089279F70892761E076
S11308B0805D0E9449039E013695279536952795BC
S11308C0ABE7B4E10E94C51CAC01569547959A016B
S11308D0ADECBCEC0E94C51C9695879596958795C2
S11308E0969587959C01220F331F880F991F880FB7
S11308F0991F880F991F820F931F9A01281B390B88
S1130900C90161E0805D0E9449039E01ADECBCEC2D
S11309100E94C51CAC01569547955695479556952A
S113092047959A010E94C51C96958795969587953B
S1130930969587959C01220F331F880F991F880F66
S1130940991F880F991F820F931F9A01281B390B37
S1130950C90161E0805D0E9449039E01ADECBCECDD
S11309600E94C51C9695879596958795969587952B
S11309709C01220F331F880F991F880F991F880F1E
S1130980991F820F931F9E01281B390BC90161E037
S1130990805D0E944903DF91CF910895CF93DF9347
S11309A01092A9031092CA031092D80310929703CD
S11309B01092BD031092E903109226051092BF0312
S11309C08091980390919903019690939903809351
S11309D098036091E3037091E4037250072E000CB6
S11309E0880B990B0E94C91D2EEE34E045EB5FE3A2
S11309F00E941F1D21EE3AE744E95FE30E94551E61
S1130A000E94911DEB0170938403609383036091B2
S1130A109C0370919D037250072E000C880B990B58
S1130A200E94C91D2EEE34E045EB5FE30E941F1DBA
S1130A3021EE3AE744E95FE30E94551E0E94911DAE
S1130A4070937703609376036091D5037091D60316
S1130A507250072E000C880B990B0E94C91D2EEEB4
S1130A6034E045EB5FE30E941F1D21EE3AE744E9C1
S1130A705FE30E94551E0E94911D7093C103609311
S1130A80C003209100013091010181EE90E0821BAE
S1130A90930BC817D9072CF02F513F4F2C173D0744
S1130AA04CF580912005909121052091D903309136
S1130AB0DA03821B930B8D349D41A4F440E060E083
S1130AC070E180E090E00E949F1180912005909158
S1130AD021052091D9033091DA03821B930B8D34C5
S1130AE09D415CF041E060E070E180E090E00E94B4
S1130AF09F1103C081E08093A903209100013091EC
S1130B000101409176035091770381EE90E0821BBE
S1130B10930B481759072CF02F513F4F24173507D3
S1130B205CF51092CA0380912005909121052091D3
S1130B30D9033091DA03821B930B8D349D41A4F4C5
S1130B4040E060E070E280E090E00E949F118091BC
S1130B502005909121052091D9033091DA03821B5D
S1130B60930B8D349D415CF041E060E070E280E0E5
S1130B7090E00E949F1103C081E08093CA032091FA
S1130B800001309101014091C0035091C10381EEF5
S1130B9090E0821B930B481759072CF02F513F4FBD
S1130BA0241735075CF51092D803809120059091A5
S1130BB021052091D9033091DA03821B930B8D34E4
S1130BC09D41A4F440E060E070E480E090E00E9485
S1130BD09F1180912005909121052091D903309196
S1130BE0DA03821B930B8D349D415CF041E060E09D
S1130BF070E480E090E00E949F1103C081E0809344
S1130C00D8038091A903813009F0E6C28091CA0318
S1130C10813009F0DCC28091D803813009F0D7C259
S1130C208093BD038091C2039091C3030196909376
S1130C30C3038093C20322C041E060E070E180E01E
S1130C4090E00E949F118091CA03813039F441E001
S1130C5060E070E280E090E00E949F118091D803F0
S1130C60813039F441E060E070E480E090E00E947B
S1130C709F118091BD03813009F061C21092240557
S1130C801092230510928203109281031092A00304
S1130C9010929F0383E00E94D400909324058093D4
S1130CA023058FE394E60197F1F700C0000086E086
S1130CB00E94D40090938203809381038FE394E68F
S1130CC00197F1F700C0000087E00E94D4009093E0
S1130CD0A00380939F0360912305709124052091C4
S1130CE00001309101014091810350918203FB0185
S1130CF0E21BF30B4E175F070CF452C0FB01E20F2B
S1130D00F31FE417F5070CF43FC0FA01E21BF30BE1
S1130D108E179F07CCF1F901E40FF51FE817F907C7
S1130D209CF181E08093970341E060E070E180E012
S1130D3090E00E949F1141E060E070E280E090E06A
S1130D400E949F1141E060E070E480E090E00E9426
S1130D509F1180912705909128050196909328056D
S1130D60809327056091230570912405209100014B
S1130D70309101014091810350918203CB01821B88
S1130D80930B4817590764F0260F371F24173507AC
S1130D903CF080919F039091A003281739071CF41D
S1130DA081E08093E90310922405109223051092A8
S1130DB08203109281031092A00310929F0383E098
S1130DC00E94D40090932405809323058FE497E632
S1130DD00197F1F700C0000087E00E94D4009093CF
S1130DE08203809381038FE497E60197F1F700C0B3
S1130DF0000086E00E94D4009093A00380939F0398
S1130E002091230530912405609100017091010126
S1130E104091810350918203F901E61BF70B4E17B1
S1130E205F070CF4E9C1F901E60FF71FE417F507B2
S1130E300CF4D8C1E817F9070CF4D4C19A01261BA5
S1130E40370B821793070CF498C0460F571F4817A7
S1130E5059070CF492C082E0809397038091200597
S1130E60909121052091D9033091DA03821B930BD1
S1130E700197853A9E40A8F440E060E070E180E08C
S1130E8090E00E949F1140E060E070E280E090E01A
S1130E900E949F1140E060E070E480E090E00E94D6
S1130EA09F1180912005909121052091D9033091C3
S1130EB0DA03821B930B865A9E40863A9E40A8F41E
S1130EC040E060E070E180E090E00E949F1140E02B
S1130ED060E070E280E090E00E949F1141E060E0F9
S1130EE070E480E090E00E949F1180912005909131
S1130EF021052091D9033091DA03821B930B8C5482
S1130F009D41803A9F40A8F440E060E070E180E0B9
S1130F1090E00E949F1141E060E070E280E090E088
S1130F200E949F1140E060E070E480E090E00E9445
S1130F309F1180912005909121052091D903309132
S1130F40DA03821B930B8C5E9C428C3A9D40A8F47E
S1130F5041E060E070E180E090E00E949F1140E099
S1130F6060E070E280E090E00E949F1140E060E069
S1130F7070E480E090E00E949F118091E9039091D9
S1130F802605899F802D11248093BE03813009F0AA
S1130F90D6C080912005909121052091D9033091EC
S1130FA0DA03821B930B853C9940ACF440E060E08B
S1130FB070E180E090E00E949F1140E060E070E208
S1130FC080E090E00E949F1140E060E070E480E0E7
S1130FD090E00E949F11809120059091210520911D
S1130FE0D9033091DA03821B930B855C9940843CCE
S1130FF09940A8F441E060E070E180E090E00E9454
S11310009F1141E060E070E280E090E00E949F1157
S113101041E060E070E480E090E00E949F118091E4
S11310202005909121052091D9033091DA03821B88
S1131030930B89589341843C9940A8F440E060E0C4
S113104070E180E090E00E949F1140E060E070E277
S113105080E090E00E949F1140E060E070E480E056
S113106090E00E949F11809120059091210520918C
S1131070D9033091DA03821B930B8D549D41843C38
S11310809940A8F441E060E070E180E090E00E94C3
S11310909F1141E060E070E280E090E00E949F11C7
S11310A041E060E070E480E090E00E949F11809154
S11310B02005909121052091D9033091DA03821BF8
S11310C0930B81519742843C9940A8F440E060E03E
S11310D070E180E090E00E949F1140E060E070E2E7
S11310E080E090E00E949F1140E060E070E480E0C6
S11310F090E00E949F1180912005909121052091FC
S1131100D9033091DA03821B930B855D9043843CB1
S11311109940A8F441E060E070E180E090E00E9432
S11311209F1141E060E070E280E090E00E949F1136
S113113041E060E070E480E090E00E949F11209123
S1131140980330919903609127057091280544E62E
S1131150469FC001479F900D1124B9010E94B11C04
S11311607093BC036093BB036091C2037091C3038B
S1131170469FC001479F900D1124B9010E94B11CE4
S11311807093A4036093A3032436310561F4109291
S11311902805109227051092990310929803109233
S11311A0C3031092C20380912005909121052091E0
S11311B0D9033091DA03AC01421B530B9A0128394D
S11311C03A43F4F09093DA038093D90319C08091E1
S11311D0BD0381114ECD30CD8091BD03882309F428
S11311E032CD47CDE1E0E0932605260F371F2417C3
S11311F035070CF4C2CE22CE81E080932605BDCE05
S1131200DF91CF91089580916A03823039F421E00F
S113121030E03093EF032093EE0304C01092EF0309
S11312201092EE0320917F0330918003232B39F435
S113123021E030E03093F1032093F00304C01092D6
S1131240F1031092F003813039F481E090E090933F
S1131250F3038093F20304C01092F3031092F20399
S113126080916703823039F481E090E09093F50334
S11312708093F40304C01092F5031092F403809158
S1131280BD03811107C081E090E09093F703809340
S1131290F60304C01092F7031092F6038091BE0384
S11312A0813039F481E090E09093F9038093F8035E
S11312B004C01092F9031092F803809197038230CE
S11312C039F481E090E09093FB038093FA0304C027
S11312D01092FB031092FA038091C403882339F01F
S11312E081E090E09093FF038093FE0304C010928A
S11312F0FF031092FE038091EC039091ED03899714
S113130024F01092F9031092F80310927A0380915A
S1131310BF03EEEEF3E02EEF33E090813296890FB7
S1131320E217F307D1F78093BF0381110BC040E0AC
S113133060E078E080E090E00E949F118091BF031C
S1131340882339F041E060E078E080E090E00E949A
S11313509F1108951F920F920FB60F9211242F938D
S11313603F934F935F936F937F938F939F93AF9329
S1131370BF93EF93FF93599A809120059091210593
S1131380019690932105809320050E94930F59980C
S1131390FF91EF91BF91AF919F918F917F916F9149
S11313A05F914F913F912F910F900FBE0F901F901F
S11313B018951F920F920FB60F9211248F939F933B
S11313C08091CD039091CE0301969093CE038093A8
S11313D0CD039F918F910F900FBE0F901F90189582
S11313E0AAE7B0E08C9180688C93ECE7F0E0808110
S11313F0108280818064808380818F6D80838C9152
S113140086608C93EBE7F0E080818083EEE7F0E088
S113141080818763808380B7806880BF17B882E04B
S113142084B998E195B99EEF9AB918B814BC95B5EA
S11314309A6095BD16BC9FEF97BD80936E00109285
S11314408000E1E8F0E090819D6090831092850037
S11314501092840029E03DE33093890020938800B2
S113146080936F0041E060E070E880E090E00E94CB
S11314709F112FEF83EC99E0215080409040E1F7D9
S113148000C0000040E060E070E880E090E00E946E
S11314909F110E940E0460E081E00E94490360E015
S11314A080E80E94490387E891E00E941F040E949B
S11314B0CE040E945D1841E060E070E880E090E0B6
S11314C00E949F114E9A0E945D181092250585E096
S11314D090E09093CC038093CB031092CE031092B0
S11314E0CD0383E080932B051092AD0310929E03ED
S11314F01092220510927E0310927D031092ED0348
S11315001092EC031092800310927F031092E80370
S11315101092E7031092AA031092BE03109297034D
S113152083E190E09093D4038093D3038CE690E01E
S11315309093AC038093AB0381E090E00E9472022D
S113154080932B0582E090E00E94720290E09093D9
S1131550CC038093CB0383E090E00E94720290E07E
S1131560909301018093000186E090E00E94720252
S1131570823018F480936E0303C081E080936E037D
S113158087E090E00E947202823018F480936D0329
S113159003C081E080936D0388E090E00E947202B2
S11315A090E090937E0380937D038B9734F089E2DF
S11315B090E090937E0380937D0389E090E00E9405
S11315C0720290E09093ED038093EC038B9734F0D8
S11315D089E290E09093ED038093EC0387E080939D
S11315E02C0580E00E94D40090936C0380936B03DD
S11315F081E00E94D40090936903809368030E9461
S11316005D180E94CE040E94030978941092790315
S11316101092780340E060E070E880E090E00E947F
S11316209F11C1E0D0E00EEE13E00F2EF7E0FF2E85
S1131630F02D0F2EF6E0BF2EF02D0F2EF5E0CF2E5D
S1131640F02D0F2EF5E02F2E312CF02D6894DD2493
S1131650D2F86894442442F8512C0F2EF3E0EF2E74
S1131660F02D0F2EF3E06F2E712CF02D689488244A
S113167081F8912C0E94EA000E9479020E94EA02F9
S11316800E94CE040E9403090E94C9122091A30360
S11316903091A40380917D0390917E03820F931F68
S11316A0843691056CF02091BB033091BC0380918A
S11316B0EC039091ED03820F931F843691059CF502
S11316C040E060E470E080E090E00E949F1180912F
S11316D0CD039091CE039093E8038093E703109297
S11316E0800310927F0320917D0330917E038091CB
S11316F0A3039091A403820F931F843691051CF4D5
S113170029323105DCF02091EC033091ED03809116
S1131710BB039091BC03820F931F843691051CF484
S1131720293231055CF0D0938003C0937F0341E0FC
S113173060E470E080E090E00E949F111B9945C036
S113174080916203811141C080912C05873009F09A
S113175035C280912B058F5F80932B0581E08093A8
S113176062031092250541E060E070E880E090E0BB
S11317700E949F11EFEFF6E721E0E150F040204096
S1131780E1F700C000001092660340E060E870E0FA
S113179080E090E00E949F1180912B05843018F026
S11317A081E080932B0560912B05CE010E946A0293
S11317B08FE39CE90197F1F700C0000041E060E08D
S11317C070E880E090E00E949F111B9B12C0809102
S11317D06203813071F480912C05873051F41092AA
S11317E0250510926203EFE3FCE93197F1F700C09D
S11317F0000080912B05813039F480912C058730CD
S113180009F0D4C10E94F10D80912B05823039F486
S113181080912C05873009F0C9C10E945B01809139
S11318202B05833009F0C2C180912C05873009F063
S1131830BDC160E080E80E94490388E991E00E940C
S11318401F04109264031092630360E080EC0E9412
S11318504903F80180819181019729F580917A03E8
S1131860811129C08091AA038111AAC180916003CA
S113187090916103892B09F0A3C18DEA91E00E9444
S11318801F0421E020937A031092610310926003F5
S11318908091630390916403019690936403809311
S11318A063032093AA03F80180819181892B19F4A1
S11318B081E08093AA03F80182819381019729F53D
S11318C080917A03811148C08091AA03813009F084
S11318D07EC18091600390916103019709F077C103
S11318E08EEB91E00E941F0481E080937A03D093F1
S11318F06103C09360038091630390916403019634
S1131900909364038093630327C082E08093AA03C7
S1131910F801848195810197F9F480917A0381110A
S11319201BC080916003909161030297A9F48FEC2E
S113193091E00E941F0481E080937A0390926103F6
S11319408092600380916303909164030196909365
S113195064038093630326C0E092AA03F80186819E
S113196097810197F9F480917A0381111BC08091CA
S11319706003909161030397A9F480EE91E00E94C3
S11319801F0481E080937A03709261036092600384
S11319908091630390916403019690936403809310
S11319A0630326C0D092AA03F8018085918501972C
S11319B0F9F480917A0381111BC0809160039091A6
S11319C061030497A9F481EF91E00E941F0481E070
S11319D080937A0350926103409260038091630381
S11319E0909164030196909364038093630323C0EE
S11319F0C092AA03F801828593850197E1F480914E
S1131A007A03811118C08091600390916103059756
S1131A1091F482E092E00E941F04309261032092CC
S1131A20600380916303909164030196909364032F
S1131A308093630327C0B092AA03F8018485958537
S1131A40019701F580917A0381111CC08091600394
S1131A50909161030697B1F483E192E00E941F0420
S1131A6086E090E090936103809360038091630328
S1131A709091640301969093640380936303F092BE
S1131A80AA0302C0F092AA0310927A03F801868591
S1131A909785892B11F58091AA038730F1F4809101
S1131AA06003909161030797C1F48091630390915F
S1131AB06403009791F50E945D1881E080937A0396
S1131AC087E090E0909361038093600380916303C7
S1131AD090916403009739F020C080916303909142
S1131AE06403009761F4809160039091610301960F
S1131AF09093610380936003089748F414C0209185
S1131B006003309161032830310518F406C080E089
S1131B1090E01092610310926003089724F01092F1
S1131B206403109263038091AA03873011F4109226
S1131B30AA031C990AC080919E03811106C081E00A
S1131B4080939E031C9B2BC006C01C9B28C08091C5
S1131B509E03813021F541E060E070E880E090E090
S1131B600E949F1110929E0310927A038091600349
S1131B7090916103019690936103809360039FEFBA
S1131B80E9EFF0E09150E040F040E1F700C00000E0
S1131B9040E060E070E880E090E00E949F1140E047
S1131BA060E071E080E090E00E949F1140E060E01E
S1131BB070E880E090E00E949F115CCD83B119CE63
S1131BC0F80182819381019709F09FCE7DCE82E056
S1131BD08093AA03F80184819581019709F0BCCE12
S1131BE0A0CECF93DF9340E060E071E080E090E02E
S1131BF00E949F118091250581117FC11C9B7FC18B
S1131C008091660381117BC160E080E80E944903F2
S1131C1084E292E00E941F0480916A03811106C04D
S1131C208091670381111AC00E945D1880916A0334
S1131C308130A1F480916703823080F060E080E815
S1131C400E94490384E292E00E941F0460E080EC59
S1131C500E94490386E791E00E941F041C9924C056
S1131C6080912505882309F451C11EC041E060E03C
S1131C7070E880E090E00E949F1181E08093250548
S1131C802FEF81EE94E0215080409040E1F700C0B6
S1131C9000001092CE031092CD0340E060E070E8A3
S1131CA080E090E00E949F1180912505813009F029
S1131CB032C11C9B52C08091660381114EC081E0E9
S1131CC08093660380916A03813061F48091670395
S1131CD0823040F060E080E80E94490385E392E0AE
S1131CE00E941F0441E060E870E080E090E00E9400
S1131CF09F11109225052FEF89EF90E0215080402D
S1131D009040E1F700C00000809125058111FAC0E0
S1131D101C996CC080916603813009F067C0809380
S1131D20250541E060E070E880E090E00E949F11AA
S1131D302FEF82E597E0215080409040E1F700C00A
S1131D40000040E060E070E880E090E00E949F11B5
S1131D5080912505813009F045C01C9BE1C080912C
S1131D606603813009F0DCC01092660310922505E9
S1131D7080916A0381110EC080916703811122C092
S1131D8060E080E80E94490384E292E00E941F041C
S1131D900E945D1880916A038130A1F480916703E9
S1131DA0823080F060E080E80E94490384E292E09F
S1131DB00E941F0460E080EC0E94490386E791E0E2
S1131DC00E941F0440E060E870E080E090E00E9420
S1131DD09F112FEF89EF90E0215080409040E1F770
S1131DE000C000008091250581119AC0809166038E
S1131DF0813009F095C080916A03811191C080916E
S1131E00670381115BC08091CB039091CC03209137
S1131E10CD033091CE0328173907B4F5EC01C21B6A
S1131E20D30B1092C40360E080E80E94490389E464
S1131E3092E00E941F0460E080EC0E94490385E365
S1131E4091E00E941F0460E08DEC0E944903CE01E2
S1131E506AE070E00E94B11CCB0162E00E9436048B
S1131E6060E08FEC0E944903CE0164E670E00E94BA
S1131E70B11C61E00E94360480916A03811150C054
S1131E808091670381111AC02091CB033091CC0358
S1131E908091CD039091CE03821793070CF160E0FB
S1131EA080EC0E94490383E491E00E941F0481E0D6
S1131EB08093C40380916A03811132C080916703C7
S1131EC0813071F460E080EC0E9449038AE592E07D
S1131ED00E941F041092C40380916A03811120C0E0
S1131EE0809167038230E0F060E080EC0E94490357
S1131EF083E191E00E941F0413C083B1D5CE1C9BE3
S1131F0005C002CF813009F428CF0AC0809166034E
S1131F108111FECEABCE80912505882309F4F8CE3D
S1131F20DF91CF91089523B183B121708470282B60
S1131F308091EA039091EB03822B9093EB038093BF
S1131F40EA038130910509F0A2C18091AE038111A9
S1131F50F0C18091AF039091B0039C0129503109E5
S1131F602230310528F41092B0031092AF032EC032
S1131F704297039738F481E090E09093B003809304
S1131F80AF0324C08091AF039091B0034B9708979F
S1131F90E8F482E090E09093B0038093AF03109252
S1131FA075031092740310927C0310927B031092B9
S1131FB0A6031092A5031092D0031092CF0390931E
S1131FC0FF038093FE0380E090E098C08091740347
S1131FD090917503FC01EE0FFF1FE250FC4F20911E
S1131FE0AF033091B003318320838830910509F029
S1131FF051C0EEEFF3E0208931898091A5039091DF
S1132000A603822B932B24813581002436952795B2
S11320100794369527950794322F202D822B932BE6
S113202026813781220F331F22953295307F322744
S1132030207F3227822B932B208531852295329560
S1132040307F3227207F3227822B932B22853385C2
S1132050220F331F220F331F220F331F822B932B88
S113206024853585220F331F220F331F822B932B98
S113207026853785220F331F822B932B9093A6033B
S11320808093A503892B09F047C11092A8031092ED
S1132090A70342C18D30910589F5EEEFF3E0228D5F
S11320A0338D8091CF039091D003822B932B22897F
S11320B0338922953295307F3227207F3227822B35
S11320C0932B24893589220F331F220F331F220FAC
S11320D0331F822B932B26893789220F331F220F1C
S11320E0331F822B932B208D318D220F331F822B94
S11320F0932B9093D0038093CF030EC14091A503FB
S11321005091A6032091D3033091D403421753076F
S113211009F067C0099769F4299A2091A5033091C1
S1132120A6038091D3039091D4032817390709F0AB
S113213058C080917403909175030D9769F4299A9E
S11321402091A5033091A6038091D3039091D403E9
S11321502817390709F045C08091740390917503DD
S1132160469761F4299A2091A5033091A6038091A2
S1132170D3039091D4032817390799F58091CF039D
S11321809091D003039769F580917403909175033E
S11321909C012E5031092830310518F525E130E035
S11321A0281B390B8091AB039091AC0302C0959529
S11321B087952A95E2F78170992720919A033091A7
S11321C09B03822B932B90939B0380939A030197F9
S11321D009F4299A80919A0390919B03892B09F41D
S11321E0299881E08093AE031092D7031092B00334
S11321F01092AF0310929B0310929A0380910004F3
S113220090910104019709F58091020490910304CF
S1132210892BD9F480917403909175030297A9F4E2
S11322208091A7039091A80301969093A8038093AB
S1132230A7032091D3033091D4038217930729F481
S11322409093A6038093A503299A80917403909197
S11322507503019690937503809374038091EA0348
S11322609091EB038130910509F463C010C0809113
S1132270A1039091A20301969093A2038093A103DA
S11322808091EA039091EB03892BE1F02CC0892B18
S113229051F58091D703811115C0299881E080936D
S11322A0D7031092AE031092A2031092A1031092CE
S11322B07C0310927B038091EA039091EB03892BBA
S11322C091F404C08091D703813069F41092A20381
S11322D01092A1038091AF039091B0030196909363
S11322E0B0038093AF03809174039091750382309F
S11322F0910524F12091DB033091DC0382179307CD
S1132300E9F4109275031092740381E090E09093C5
S11323107C0380937B0308952091A5033091A60349
S11323208091D3039091D4032817390709F008CF7B
S113233000CF8091AE038130B1F699CF08950F9309
S11323401F934130B9F400916F03109170032091F1
S1132350710330917203DC01CB01802B912BA22BF2
S1132360B32B80936F0390937003A0937103B09386
S113237072031AC000916F031091700320917103CE
S113238030917203DC01CB0180959095A095B095B6
S113239080239123A223B32380936F03909370032C
S11323A0A0937103B09372035B985C9880916F0360
S11323B090917003A0917103B091720397FF02C0D2
S11323C05A9A01C05A985C9A5C9880916F039091D4
S11323D07003A0917103B091720396FF02C05A9AE0
S11323E001C05A985C9A5C9880916F039091700335
S11323F0A0917103B091720395FF02C05A9A01C073
S11324005A985C9A5C9880916F0390917003A091A4
S11324107103B091720394FF02C05A9A01C05A9892
S11324205C9A5C9880916F0390917003A091710302
S1132430B091720393FF02C05A9A01C05A985C9AF1
S11324405C9880916F0390917003A0917103B09197
S1132450720392FF02C05A9A01C05A985C9A5C981F
S113246080916F0390917003A0917103B0917203F6
S113247091FF02C05A9A01C05A985C9A5C98809164
S11324806F0390917003A0917103B091720390FF58
S113249002C05A9A01C05A985C9A5C9880916F0362
S11324A090917003A0917103B091720387FF02C0F1
S11324B05A9A01C05A985C9A5C9880916F039091E3
S11324C07003A0917103B091720386FF02C05A9AFF
S11324D001C05A985C9A5C9880916F039091700344
S11324E0A0917103B091720385FF02C05A9A01C092
S11324F05A985C9A5C9880916F0390917003A091B4
S11325007103B091720384FF02C05A9A01C05A98B1
S11325105C9A5C9880916F0390917003A091710311
S1132520B091720383FF02C05A9A01C05A985C9A10
S11325305C9880916F0390917003A0917103B091A6
S1132540720382FF02C05A9A01C05A985C9A5C983E
S113255080916F0390917003A0917103B091720305
S113256081FF02C05A9A01C05A985C9A5C98809183
S11325706F0390917003A0917103B091720380FF77
S113258002C05A9A01C05A985C9A5B9A1F910F91A3
S113259008950F931F93CF93DF931D9B40C08091A9
S11325A0AD0381113CC080912B05833009F07EC5B9
S11325B041E060E070E880E090E00E949F1180912B
S11325C02C058F5F80932C0581E08093AD032FEF62
S11325D080E792E0215080409040E1F700C0000085
S11325E060E080EC0E9449038BE692E00E941F04A5
S11325F080912C05883030F083E080932B0581E0B6
S113260080932C0560912C0580E090E00E946A0282
S113261040E060E070E880E090E00E949F111D9926
S113262013C08091AD03813079F480912B05833000
S113263059F41092AD032FEF89EF90E021508040C0
S11326409040E1F700C0000080912C05813009F032
S113265082C060E080E80E9449038CE792E00E9417
S11326601F0460E080EC0E9449038DE892E00E9420
S11326701F0460E08EEC0E94490380910001909158
S113268001016AE070E00E94B11CCB0161E00E948C
S1132690360460E08FEC0E94490380910001909120
S11326A0010164E670E00E94B11C61E00E943604FE
S11326B01B9935C080919E03811131C041E060E0D7
S11326C070E880E090E00E949F1180910001909159
S11326D001010296893291052CF4909301018093B3
S11326E0000104C0109201011092000181E0809366
S11326F09E036091000183E090E00E946A022FEF44
S113270089EF90E0215080409040E1F700C0000044
S113271040E060E070E880E090E00E949F111B9B25
S11327201AC080919E038130B1F410929E0341E05F
S113273060E070E880E090E00E949F118FE39CE9E4
S11327400197F1F700C0000040E060E070E880E02D
S113275090E00E949F1180912C05823009F093C073
S113276060E080E80E9449038BE992E00E941F0424
S113277060E080EC0E9449038CEA92E00E941F040E
S113278060E08CEC0E94490386EB92E00E941F04F7
S113279082E090E00E94720290E09093CC038093D8
S11327A0CB0360E08AEC0E9449038091CB039091B3
S11327B0CC036AE070E00E94B11CCB0161E00E948E
S11327C0360460E08BEC0E9449038091CB03909126
S11327D0CC0364E670E00E94B11C61E00E94360400
S11327E01B9935C080919E03811131C041E060E0A6
S11327F070E880E090E00E949F118091CB0390915B
S1132800CC030196853191052CF49093CC038093ED
S1132810CB0304C01092CC031092CB0381E08093CD
S11328209E036091CB0382E090E00E946A029FEFD6
S113283029EF80E0915020408040E1F700C0000083
S113284040E060E070E880E090E00E949F111B9BF4
S11328501AC080919E038130B1F410929E0341E02E
S113286060E070E880E090E00E949F118FE39CE9B3
S11328700197F1F700C0000040E060E070E880E0FC
S113288090E00E949F1180912C05833009F0C1C013
S113289060E080E80E9449038BEB92E00E941F04F1
S11328A081E00E94D400909369038093680360E000
S11328B08DEC0E94490380916803909169036AE05A
S11328C070E00E94B11CCB0162E00E94360460E01B
S11328D08FEC0E944903809168039091690364E638
S11328E070E00E94B11C61E00E94360480916E0386
S11328F0811108C060E080EC0E9449038BEC92E0F7
S11329000E941F0480916E03813041F460E080ECEA
S11329100E94490387ED92E00E941F041B995AC04C
S113292080912205811156C041E060E070E880E0AA
S113293090E00E949F1180916E03811120C08091CC
S11329402205811140C081E08093220580936E03AB
S113295060E080EC0E94490387ED92E00E941F042E
S113296060916E0386E090E00E946A029FEF20E788
S113297082E0915020408040E1F700C00000809147
S11329806E03813001F58091220581111CC081E024
S11329908093220510926E0360E080EC0E9449034C
S11329A08BEC92E00E941F0460916E0386E090E03D
S11329B00E946A029FEF20E782E09150204080400D
S11329C0E1F700C0000040E060E070E880E090E0E3
S11329D00E949F111B9B1DC0809122058130C9F468
S11329E041E060E070E880E090E00E949F11109266
S11329F022059FEF20E782E0915020408040E1F7DC
S1132A0000C0000040E060E070E880E090E00E94D8
S1132A109F1180912C05843009F0C1C060E080E8EA
S1132A200E94490384EE92E00E941F0482E00E9407
S1132A30D40090936C0380936B0360E08DEC0E9450
S1132A40490380916B0390916C036AE070E00E94EB
S1132A50B11CCB0162E00E94360460E08FEC0E945E
S1132A60490380916B0390916C0364E670E00E94CB
S1132A70B11C61E00E94360480916D03811108C08D
S1132A8060E080EC0E9449038BEC92E00E941F04FA
S1132A9080916D03813041F460E080EC0E94490331
S1132AA087ED92E00E941F041B995AC08091220571
S1132AB0811156C041E060E070E880E090E00E943F
S1132AC09F1180916D03811120C080912205811195
S1132AD040C081E08093220580936D0360E080EC28
S1132AE00E94490387ED92E00E941F0460916D03E8
S1132AF087E090E00E946A029FEF20E782E0915015
S1132B0020408040E1F700C0000080916D038130D7
S1132B1001F58091220581111CC081E0809322057A
S1132B2010926D0360E080EC0E9449038BEC92E00C
S1132B300E941F0460916D0387E090E00E946A0286
S1132B409FEF20E782E0915020408040E1F700C0F1
S1132B50000040E060E070E880E090E00E949F1197
S1132B601B9B1DC0809122058130C9F441E060E0C7
S1132B7070E880E090E00E949F11109222059FEF80
S1132B8020E782E0915020408040E1F700C000003F
S1132B9040E060E070E880E090E00E949F11809146
S1132BA02C05853009F0A3C088E090E00E947202F1
S1132BB090E090937E0380937D038997ACF560E069
S1132BC080E80E94490384EF92E00E941F0460E0C1
S1132BD080EC0E94490385E093E00E941F0460E0BA
S1132BE08EEC0E94490380917D0390917E036AE0FC
S1132BF070E00E94B11CCB0161E00E94360460E0E9
S1132C008FEC0E94490380917D0390917E0364E6DA
S1132C1070E00E94B11C61E00E94360480917D0343
S1132C2090917E03899784F060E080E80E944903D4
S1132C3083E193E00E941F0460E080EC0E9449035A
S1132C4084E293E00E941F041B9935C080919E0387
S1132C50811131C041E060E070E880E090E00E94C2
S1132C609F1180917D0390917E0302968B32910592
S1132C702CF490937E0380937D0304C010927E0312
S1132C8010927D0381E080939E0360917D0388E030
S1132C9090E00E946A029FEF29EF80E0915020406B
S1132CA08040E1F700C0000040E060E070E880E0B0
S1132CB090E00E949F111B9B1AC080919E0381305B
S1132CC0B1F410929E0341E060E070E880E090E08F
S1132CD00E949F118FE39CE90197F1F700C0000067
S1132CE040E060E070E880E090E00E949F118091F5
S1132CF02C05863009F0DCC189E090E00E94720264
S1132D0090E09093ED038093EC038997ACF560E039
S1132D1080E80E94490384EF92E00E941F0460E06F
S1132D2080EC0E94490385E393E00E941F0460E065
S1132D308EEC0E9449038091EC039091ED036AE0CC
S1132D4070E00E94B11CCB0161E00E94360460E097
S1132D508FEC0E9449038091EC039091ED0364E6AB
S1132D6070E00E94B11C61E00E9436048091EC0383
S1132D709091ED03899784F060E080E80E94490314
S1132D8083E193E00E941F0460E080EC0E94490309
S1132D9084E493E00E941F041B9935C080919E0334
S1132DA0811131C041E060E070E880E090E00E9471
S1132DB09F118091EC039091ED0302968B32910563
S1132DC02CF49093ED038093EC0304C01092ED0374
S1132DD01092EC0381E080939E036091EC0389E000
S1132DE090E00E946A029FEF29EF80E0915020401A
S1132DF08040E1F700C0000040E060E070E880E05F
S1132E0090E00E949F111B9B1AC080919E03813009
S1132E10B1F410929E0341E060E070E880E090E03D
S1132E200E949F118FE39CE90197F1F700C0000015
S1132E3040E060E070E880E090E00E949F111C99FF
S1132E401EC080919E0381111AC041E060E070E8C9
S1132E5080E090E00E949F1181E080939E039FEFA9
S1132E6029EF80E0915020408040E1F700C000004D
S1132E7040E060E070E880E090E00E949F111C9BBD
S1132E8017C180919E03813009F012C141E060E0D6
S1132E9070E880E090E00E949F1183E00E94D400DB
S1132EA090932405809323058FE394E60197F1F72B
S1132EB000C0000086E00E94D400909382038093B7
S1132EC081038FE394E60197F1F700C0000087E0E7
S1132ED00E94D4009093A00380939F0360E080EC51
S1132EE00E94490385E593E00E941F046091230535
S1132EF070912405072E000C880B990B0E94C91DA4
S1132F002EEE34E045EB5FE30E941F1D21EE3AE70D
S1132F1044E95FE30E94551E0E94911D70932A05A7
S1132F206093290560E081EC0E94490380912905A2
S1132F3090912A050AE010E0B8010E94B11CCB016F
S1132F4062E00E94360460E083EC0E9449038091B1
S1132F50290590912A05C4E6D0E0BE010E94B11C67
S1132F6061E00E9436040E94EA0060E084EC0E9462
S1132F70490387E593E00E941F04609181037091E7
S1132F808203072E000C880B990B0E94C91D2EEE9C
S1132F9034E045EB5FE30E941F1D21EE3AE744E96C
S1132FA05FE30E94551E0E94911D7093B2036093CB
S1132FB0B10360E087EC0E9449038091B1039091D2
S1132FC0B203B8010E94B11CCB0162E00E94360436
S1132FD060E089EC0E9449038091B1039091B203AF
S1132FE0BE010E94B11C61E00E9436040E94EA0006
S1132FF060E08AEC0E9449038BE593E00E941F0481
S113300060919F037091A0037250072E000C880BEF
S1133010990B0E94C91D2EEE34E045EB5FE30E943C
S11330201F1D21EE3AE744E95FE30E94551E0E940A
S1133030911D709396036093950360E08DEC0E945C
S113304049038091950390919603B8010E94B11CA5
S1133050CB0162E00E94360460E08FEC0E944903D9
S11330608091950390919603BE010E94B11C61E08A
S11330700E94360410922A05109229051092B20378
S11330801092B103109296031092950310929E032E
S11330908FE39CE90197F1F700C0000040E060E095
S11330A070E880E090E00E949F1102C083B1CCCA16
S11330B0DF91CF911F910F9108950F931F93CF9399
S11330C0DF9360E080EC0E94490385E593E00E9471
S11330D01F046091E3037091E4037250072E000C07
S11330E0880B990B0E94C91D2EEE34E045EB5FE37B
S11330F00E941F1D21EE3AE744E95FE30E94551E3A
S11331000E94911D70932A056093290560E081EC6B
S11331100E9449038091290590912A050AE010E054
S1133120B8010E94B11CCB0162E00E94360460E049
S113313083EC0E9449038091290590912A05C4E6F5
S1133140D0E0BE010E94B11C61E00E9436040E94DE
S1133150EA0060E084EC0E94490387E593E00E9462
S11331601F0460919C0370919D037250072E000C04
S1133170880B990B0E94C91D2EEE34E045EB5FE3EA
S11331800E941F1D21EE3AE744E95FE30E94551EA9
S11331900E94911D7093B2036093B10360E087ECC9
S11331A00E9449038091B1039091B203B8010E9437
S11331B0B11CCB0162E00E94360460E089EC0E94FD
S11331C049038091B1039091B203BE010E94B11CE6
S11331D061E00E9436040E94EA0060E08AEC0E94EA
S11331E049038BE593E00E941F046091D50370911D
S11331F0D6037250072E000C880B990B0E94C91D30
S11332002EEE34E045EB5FE30E941F1D21EE3AE70A
S113321044E95FE30E94551E0E94911D709396033A
S11332206093950360E08DEC0E94490380919503BF
S113323090919603B8010E94B11CCB0162E00E94F8
S1133240360460E08FEC0E944903809195039091CD
S11332509603BE010E94B11C61E00E943604DF9116
S1133260CF911F910F910895A0E1B0E0EAE3F9E155
S11332700C94D41C7C011B016A01FC011782168288
S1133280838181FF44C39E012F5F3F4F3901F701C2
S11332909381F10193FD859193FF81911F0188230F
S11332A009F431C3853239F493FD859193FF8191FB
S11332B01F01853239F4B70190E00E94B01F560116
S11332C06501E5CF10E0512C912CFFE1F915D8F000
S11332D08B3279F038F4803279F08332A1F4F92D0D
S11332E0F0612EC08D3261F0803369F4292D2160A4
S11332F02DC0392D3260932E892D8460982E2AC0DA
S1133300E92DE86015C097FC2DC020ED280F2A3068
S113331088F496FE06C03AE0139F200D1124122F64
S113332019C08AE0589E200D1124522EE92DE06226
S11333309E2E10C08E3231F496FCE5C2F92DF06455
S11333409F2E08C08C3621F4292D2068922E02C0AD
S1133350883641F4F10193FD859193FF81911F011A
S11333608111B3CF9BEB980F933020F4992D90618A
S1133370805E07C09BE9980F933008F066C1992DD1
S11333809F7E96FF16E09F73992E853619F49064FC
S1133390992E08C0863621F4392F3068932E02C046
S11333A01111115097FE07C01C3350F44424439468
S11333B0410E27E00BC0183038F027E017E005C0B5
S11333C027E09CE3492E02C0212F412C560184E0C2
S11333D0A80EB11CF6016081718182819381042D54
S11333E0A3010E94C21E6C01F981FC87F0FF02C098
S11333F0F3FF06C091FC06C092FE06C000E205C0C1
S11334000DE203C00BE201C000E08C858C7019F062
S113341001115AC29BC297FE10C04C0CFC85F4FFEC
S113342004C08A81813309F44A94141474F528E0A1
S1133430241578F588E0482E2CC096FC2AC0812FEC
S113344090E08C159D059CF03CEFC3163FEFD3062E
S113345074F0892D8068982E0AC0E2E0F0E0EC0F49
S1133460FD1FE10FF11D8081803319F411501111FA
S1133470F4CF97FE0EC044244394410E812F90E074
S1133480C816D9062CF41C1904C04424439401C062
S113349010E097FE06C01C141D0434F4C601019606
S11334A005C085E090E002C081E090E00111019642
S11334B0112331F0212F30E02F5F3F4F820F931FF4
S11334C0252D30E08217930714F4581A01C0512CAB
S11334D0892D897049F4552039F0B70180E290E0D4
S11334E00E94B01F5A94F7CF002329F0B701802F10
S11334F090E00E94B01F93FC09C0552039F0B70139
S113350080E390E00E94B01F5A94F7CF97FE4CC01E
S11335104601D7FE02C0812C912CC6018819990955
S1133520F301E80FF91FFE87ED879601241931098D
S1133530388B2F87012F10E01195019511093FEF6A
S11335408316930629F4B7018EE290E00E94B01F1F
S1133550C814D9044CF08F8598898815990524F4EA
S1133560ED85FE85818101C080E3F1E08F1A910829
S11335702D853E852F5F3F4F3E872D878016910610
S11335802CF0B70190E00E94B01FD9CFC814D90421
S113359041F49A81963320F4953319F43C8534FF31
S11335A081E3B70190E04EC08A81813319F09C8594
S11335B09F7E9C87B70190E00E94B01F111105C047
S11335C094FC18C085E690E017C0B7018EE290E045
S11335D00E94B01F1E5F82E001E0080FF301E80FB4
S11335E0F11D8081B70190E00E94B01F802F01136C
S11335F0F3CFE6CF85E490E0B7010E94B01FD7FC7B
S113360006C0C114D10441F4EC85E4FF05C0D19493
S1133610C194D1088DE201C08BE2B70190E00E9411
S1133620B01F80E32AE0C216D1042CF08F5FFAE0C9
S1133630CF1AD108F7CFB70190E00E94B01FB701AD
S1133640C601C0960E94B01F54C1833631F083373F
S113365079F0833509F056C020C0560132E0A30E3C
S1133660B11CF6018081898301E010E0630112C07E
S11336705601F2E0AF0EB11CF601C080D18096FE77
S113368003C0612F70E002C06FEF7FEFC6010E949C
S1133690A51F8C01F92DFF7714C0560122E0A20E5C
S11336A0B11CF601C080D18096FE03C0612F70E08A
S11336B002C06FEF7FEFC6010E949A1F8C01F92DA3
S11336C0F0689F2EF3FD1AC0852D90E008171907A6
S11336D0A8F4B70180E290E00E94B01F5A94F4CF9E
S11336E0F60197FC859197FE81916F01B70190E0F7
S11336F00E94B01F51105A9401501109011511056F
S113370079F7F7C0843611F0893661F5560197FED2
S113371009C024E0A20EB11CF6016081718182818E
S113372093810AC0F2E0AF0EB11CF6016081718191
S1133730072E000C880B990BF92DFF769F2E97FF0F
S113374009C090958095709561957F4F8F4F9F4FDD
S1133750F0689F2E2AE030E0A3010E94EC1FC82EDF
S1133760C6183FC0092D853721F40F7E2AE030E0CA
S11337701DC0097F8F3691F018F4883559F0C3C005
S1133780803719F0883711F0BEC0006104FF09C00A
S1133790046007C094FE08C0066006C028E030E05C
S11337A005C020E130E002C020E132E0560107FF0D
S11337B009C084E0A80EB11CF60160817181828188
S11337C0938108C0F2E0AF0EB11CF60160817181F3
S11337D080E090E0A3010E94EC1FC82EC6180F776A
S11337E0902E96FE0BC0092D0E7FC11650F494FE48
S11337F00AC092FC08C0092D0E7E05C0DC2C092DE0
S113380003C0DC2C01C0D12E04FF0DC0FE01EC0D61
S1133810F11D8081803311F4097E09C002FF06C0C6
S1133820D394D39404C0802F867809F0D39403FDF5
S113383011C000FF06C01C2DD51480F4150D1D19F0
S11338400DC0D51458F4B70180E290E00E94B01F77
S1133850D394F7CFD51410F45D1801C0512C04FF94
S113386010C0B70180E390E00E94B01F02FF17C0B0
S113387001FD03C088E790E002C088E590E0B7014D
S11338800CC0802F867859F001FF02C08BE201C082
S113389080E207FD8DE2B70190E00E94B01FC116DF
S11338A038F4B70180E390E00E94B01F1150F7CFC5
S11338B0CA94F301EC0DF11D8081B70190E00E94E0
S11338C0B01FC110F5CF15C0F4E0F51560F584E024
S11338D0581A93FE1FC0011127C02C8523FF2AC04C
S11338E008E610E0392D3071932EF801849181118E
S11338F024C0552009F4E4CCB70180E290E00E9492
S1133900B01F5A94F6CFF7018681978126C08FEFB6
S11339109FEF23C0B70180E290E00E94B01F5A9449
S11339205110F8CFD8CF512CB701802F90E00E94CE
S1133930B01FD3CF0CE610E0D5CF91108052B70161
S113394090E00E94B01F0F5F1F4FCFCF23E02515DB
S113395010F483E0BDCF512CC0CF6096E2E10C940B
S1133960F01C97FB072E16F4009407D077FD09D0BE
S11339700E940B1D07FC05D03EF4909581959F4F46
S11339800895709561957F4F0895A29FB001B39FEC
S1133990C001A39F700D811D1124911DB29F700D54
S11339A0811D1124911D08952F923F924F925F9291
S11339B06F927F928F929F92AF92BF92CF92DF923B
S11339C0EF92FF920F931F93CF93DF93CDB7DEB7A0
S11339D0CA1BDB0B0FB6F894DEBF0FBECDBF099434
S11339E02A88398848885F846E847D848C849B848B
S11339F0AA84B984C884DF80EE80FD800C811B8199
S1133A00AA81B981CE0FD11D0FB6F894DEBF0FBEC7
S1133A10CDBFED010895AA1BBB1B51E107C0AA1F2E
S1133A20BB1FA617B70710F0A61BB70B881F991F5B
S1133A305A95A9F780959095BC01CD0108950E94EF
S1133A40331D0C941B1E0E94141E58F00E940D1E60
S1133A5040F029F45F3F29F00C94041E51110C949A
S1133A604F1E0C940A1E0E942C1E68F39923B1F376
S1133A70552391F3951B550BBB27AA276217730790
S1133A80840738F09F5F5F4F220F331F441FAA1F24
S1133A90A9F335D00E2E3AF0E0E832D091505040E0
S1133AA0E695001CCAF72BD0FE2F29D0660F771F8E
S1133AB0881FBB1F261737074807AB07B0E809F074
S1133AC0BB0B802DBF01FF2793585F4F3AF09E3FF9
S1133AD0510578F00C94041E0C944F1E5F3FE4F3E0
S1133AE0983ED4F3869577956795B795F7959F5F3C
S1133AF0C9F7880F911D9695879597F90895E1E088
S1133B00660F771F881FBB1F621773078407BA07E6
S1133B1020F0621B730B840BBA0BEE1F88F7E09541
S1133B2008950E94981D6894B1110C944F1E089535
S1133B300E94341E88F09F5798F0B92F9927B751E7
S1133B40B0F0E1F0660F771F881F991F1AF0BA953D
S1133B50C9F714C0B13091F00E944E1EB1E008952F
S1133B600C944E1E672F782F8827B85F39F0B93F21
S1133B70CCF3869577956795B395D9F73EF49095F0
S1133B808095709561957F4F8F4F9F4F0895E8946E
S1133B9009C097FB3EF490958095709561957F4F91
S1133BA08F4F9F4F9923A9F0F92F96E9BB2793953F
S1133BB0F695879577956795B795F111F8CFFAF44F
S1133BC0BB0F11F460FF1BC06F5F7F4F8F4F9F4F80
S1133BD016C0882311F096E911C0772321F09EE8DE
S1133BE0872F762F05C0662371F096E8862F70E044
S1133BF060E02AF09A95660F771F881FDAF7880F1E
S1133C009695879597F9089597F99F6780E870E0EE
S1133C1060E008959FEF80EC089500240A9416163E
S1133C20170618060906089500240A9412161306A6
S1133C30140605060895092E0394000C11F4882334
S1133C4052F0BB0F40F4BF2B11F460FF04C06F5F50
S1133C507F4F8F4F9F4F089557FD9058440F551F26
S1133C6059F05F3F71F04795880F97FB991F61F0FA
S1133C709F3F79F087950895121613061406551F71
S1133C80F2CF4695F1DF08C0161617061806991FDD
S1133C90F1CF86957105610508940895E894BB27D2
S1133CA066277727CB0197F908950E94681E0C9424
S1133CB01B1E0E940D1E38F00E94141E20F0952336
S1133CC011F00C94041E0C940A1E11240C944F1E23
S1133CD00E942C1E70F3959FC1F3950F50E0551F61
S1133CE0629FF001729FBB27F00DB11D639FAA274D
S1133CF0F00DB11DAA1F649F6627B00DA11D661F9C
S1133D00829F2227B00DA11D621F739FB00DA11DBC
S1133D10621F839FA00D611D221F749F3327A00D76
S1133D20611D231F849F600D211D822F762F6A2F12
S1133D3011249F5750409AF0F1F088234AF0EE0F77
S1133D40FF1FBB1F661F771F881F91505040A9F7A4
S1133D509E3F510580F00C94041E0C944F1E5F3F4F
S1133D60E4F3983ED4F3869577956795B795F795E0
S1133D70E7959F5FC1F7FE2B880F911D9695879558
S1133D8097F90895283008F027E03327DA01990FCE
S1133D90311D87FD916000966105710539F432602B
S1133DA02E5F3D9330E32A95E1F708959F3F30F06D
S1133DB080387105610509F03C5F3C5F3D939130AB
S1133DC008F08068911DDF93CF931F930F93FF92A8
S1133DD0EF92192F987F9695E92F96959695E90F6E
S1133DE0FF27E653FF4F99273327EE24FF24A7012B
S1133DF0E70105900894079428F4360FE71EF81E8F
S1133E00491F511D660F771F881F991F0694A1F73C
S1133E100590079428F4E70EF81E491F561FC11D8C
S1133E20770F881F991F661F0694A1F705900794C2
S1133E3028F4F80E491F561FC71FD11D880F991F5C
S1133E40661F771F0694A1F70590079420F4490F85
S1133E50561FC71FD81F990F661F771F881F069408
S1133E60A9F784911095177041F0D695C795579589
S1133E704795F794E7941A95C1F7E0E7F0E0689462
S1133E801590159135916591959105907FE2739503
S1133E90E118F10A430B560BC90BD009C0F7E10C2A
S1133EA0F11E431F561FC91FD01D7EF4703311F439
S1133EB08A95E6CFE894015030F0080F0AF4002701
S1133EC0021708F4202F2395022F7A3328F079E380
S1133ED07D932A95E9F710C07D932A9589F6069477
S1133EE097956795379517951794E118F10A430B41
S1133EF0560BC90BD00998F023957E9173957A33AC
S1133F0008F070E37C932013B8F77E9170617D9381
S1133F1030F0839571E37D9370E32A95E1F71124E2
S1133F20EF90FF900F911F91CF91DF91992787FD1B
S1133F3090950895FC010590615070400110D8F7E8
S1133F40809590958E0F9F1F0895FC0161507040DD
S1133F5001900110D8F7809590958E0F9F1F0895BA
S1133F600F931F93CF93DF93FB01238121FD03C0A4
S1133F708FEF9FEF2CC022FF16C04681578124810A
S1133F8035814217530744F4A081B1819D012F5F0D
S1133F903F4F318320838C93268137812F5F3F4F9E
S1133FA03783268314C08B01EC01FB010084F18567
S1133FB0E02D0995892BE1F6D80116968D919C91F7
S1133FC01797019617969C938E931697CE01DF91BF
S1133FD0CF911F910F910895FA01AA27283051F12A
S1133FE0203181F1E8946F936E7F6E5F7F4F8F4F26
S1133FF09F4FAF4FB1E03ED0B4E03CD0670F781F85
S1134000891F9A1FA11D680F791F8A1F911DA11D69
S11340106A0F711D811D911DA11D20D009F46894A2
S11340203F912AE0269F11243019305D3193DEF64A
S1134030CF010895462F4770405D4193B3E00FD000
S1134040C9F7F6CF462F4F70405D4A3318F0495DEB
S113405031FD4052419302D0A9F7EACFB4E0A695CE
S11340609795879577956795BA95C9F700976105F0
S1134070710508959B01AC010A2E06945795479546
S113408037952795BA95C9F7620F731F841F951F3B
S10B4090A01D0895F894FFCF70
S113409805004142544F2020205045A3A54D20201F
S11340A820200041B36170B8C720BBB8BDB8B820A0
S11340B85053210042C3786FE320BD61207065B678
S11340C8B8BC202000A16FBF6FB3BD6F63BFC42EFF
S11340D82E2E004865B3C3786FE320BD6120706558
S11340E8B6B8BC005053204C494E45204552524F57
S11340F852202020004155544F4D415449432053E8
S11341084554202020005349474E414C204C494EE9
S113411845532045525200A8B8BF61BDB865204236
S11341284BA7B0AB45484F00A461BE7963BA204F92
S1134138544BA7B0ABA2482020202020002143B82C
S1134148B4BD61BB20A84FA341505F21200041B3F7
S11341586170B8C720BEB8BF61BDB8C72020004190
S1134168B36170B8C720B3786FE36120414C200075
S113417841B36170B8C720B3786FE361205053200E
S11341880041B36170B8C720333830422020283347
S1134198290041B36170B8C720E461B7B8706FB340
S11341A8BAB8005065B365706320E461B72033384A
S11341B8304220005079C0BD6FB9205045A3A54DA9
S11341C820202020002020204D616E75616C205332
S11341D85441525420202020005079C0BD6FB9208A
S11341E8A8A9434B20B365BDBF005061B26FBF613E
S11341F820B365BDBF2D7061202000202020202021
S11342082020202020202020202020004FBFBABBBF
S11342186FBD65BDB8652020202020200061BCBE8C
S1134228BBB8BF79E32C422B2F2D00427065BCC765
S113423820B3C3786FE3612020202000BD61207083
S113424865B6B8BC2C006365BA2E0054B8BE20E32A
S113425861BFC0B8BA61202D5053002D4E4F2D6F49
S1134268BFBA70C3BF2D002D4E432DB761BCBABD74
S113427879BF2D0054B8BE20E361BFC0B8BA61202D
S11342882D414C00E06FBE7963BFB8BCC3B9202090
S11342982020202000BE657065BA6F6320E461B7F2
S11342A82025004B6FBDBF706FBBC4202020202089
S11342B820202000BE657065BA6F636120E461B791
S11342C8204F544B0063E3B3B8B420E461B7202013
S11342D82025200063E3B3B8B46120E461B7204F1C
S11342E8544BA7200055005F5F56005F5F570000DE
S9030000FC
